{
	"contracts/Bond3.sol": {
		"Bond3": {
			"abi": [
				{
					"inputs": [],
					"name": "AccessControlBadConfirmation",
					"type": "error"
				},
				{
					"inputs": [
						{
							"internalType": "address",
							"name": "account",
							"type": "address"
						},
						{
							"internalType": "bytes32",
							"name": "neededRole",
							"type": "bytes32"
						}
					],
					"name": "AccessControlUnauthorizedAccount",
					"type": "error"
				},
				{
					"inputs": [
						{
							"internalType": "address",
							"name": "target",
							"type": "address"
						}
					],
					"name": "AddressEmptyCode",
					"type": "error"
				},
				{
					"inputs": [
						{
							"internalType": "address",
							"name": "implementation",
							"type": "address"
						}
					],
					"name": "ERC1967InvalidImplementation",
					"type": "error"
				},
				{
					"inputs": [],
					"name": "ERC1967NonPayable",
					"type": "error"
				},
				{
					"inputs": [],
					"name": "EnforcedPause",
					"type": "error"
				},
				{
					"inputs": [],
					"name": "ExpectedPause",
					"type": "error"
				},
				{
					"inputs": [],
					"name": "FailedInnerCall",
					"type": "error"
				},
				{
					"inputs": [],
					"name": "InvalidInitialization",
					"type": "error"
				},
				{
					"inputs": [],
					"name": "NotInitializing",
					"type": "error"
				},
				{
					"inputs": [],
					"name": "UUPSUnauthorizedCallContext",
					"type": "error"
				},
				{
					"inputs": [
						{
							"internalType": "bytes32",
							"name": "slot",
							"type": "bytes32"
						}
					],
					"name": "UUPSUnsupportedProxiableUUID",
					"type": "error"
				},
				{
					"anonymous": false,
					"inputs": [
						{
							"indexed": false,
							"internalType": "uint64",
							"name": "version",
							"type": "uint64"
						}
					],
					"name": "Initialized",
					"type": "event"
				},
				{
					"anonymous": false,
					"inputs": [
						{
							"indexed": false,
							"internalType": "address",
							"name": "account",
							"type": "address"
						}
					],
					"name": "Paused",
					"type": "event"
				},
				{
					"anonymous": false,
					"inputs": [
						{
							"indexed": true,
							"internalType": "address",
							"name": "recipient",
							"type": "address"
						},
						{
							"indexed": false,
							"internalType": "uint256",
							"name": "amount",
							"type": "uint256"
						}
					],
					"name": "RequestSent",
					"type": "event"
				},
				{
					"anonymous": false,
					"inputs": [
						{
							"indexed": true,
							"internalType": "bytes32",
							"name": "role",
							"type": "bytes32"
						},
						{
							"indexed": true,
							"internalType": "bytes32",
							"name": "previousAdminRole",
							"type": "bytes32"
						},
						{
							"indexed": true,
							"internalType": "bytes32",
							"name": "newAdminRole",
							"type": "bytes32"
						}
					],
					"name": "RoleAdminChanged",
					"type": "event"
				},
				{
					"anonymous": false,
					"inputs": [
						{
							"indexed": true,
							"internalType": "bytes32",
							"name": "role",
							"type": "bytes32"
						},
						{
							"indexed": true,
							"internalType": "address",
							"name": "account",
							"type": "address"
						},
						{
							"indexed": true,
							"internalType": "address",
							"name": "sender",
							"type": "address"
						}
					],
					"name": "RoleGranted",
					"type": "event"
				},
				{
					"anonymous": false,
					"inputs": [
						{
							"indexed": true,
							"internalType": "bytes32",
							"name": "role",
							"type": "bytes32"
						},
						{
							"indexed": true,
							"internalType": "address",
							"name": "account",
							"type": "address"
						},
						{
							"indexed": true,
							"internalType": "address",
							"name": "sender",
							"type": "address"
						}
					],
					"name": "RoleRevoked",
					"type": "event"
				},
				{
					"anonymous": false,
					"inputs": [
						{
							"indexed": false,
							"internalType": "string",
							"name": "tradeId",
							"type": "string"
						}
					],
					"name": "TradeActivated",
					"type": "event"
				},
				{
					"anonymous": false,
					"inputs": [
						{
							"indexed": false,
							"internalType": "address",
							"name": "confirmer",
							"type": "address"
						},
						{
							"indexed": false,
							"internalType": "string",
							"name": "tradeId",
							"type": "string"
						}
					],
					"name": "TradeConfirmed",
					"type": "event"
				},
				{
					"anonymous": false,
					"inputs": [
						{
							"indexed": false,
							"internalType": "address",
							"name": "initiator",
							"type": "address"
						},
						{
							"indexed": false,
							"internalType": "string",
							"name": "tradeId",
							"type": "string"
						},
						{
							"indexed": false,
							"internalType": "string",
							"name": "tradeData",
							"type": "string"
						}
					],
					"name": "TradeIncepted",
					"type": "event"
				},
				{
					"anonymous": false,
					"inputs": [],
					"name": "TradeSettlementPhase",
					"type": "event"
				},
				{
					"anonymous": false,
					"inputs": [
						{
							"indexed": false,
							"internalType": "string",
							"name": "tradeData",
							"type": "string"
						},
						{
							"indexed": false,
							"internalType": "string",
							"name": "lastSettlementData",
							"type": "string"
						}
					],
					"name": "TradeSettlementRequest",
					"type": "event"
				},
				{
					"anonymous": false,
					"inputs": [
						{
							"indexed": false,
							"internalType": "address",
							"name": "account",
							"type": "address"
						}
					],
					"name": "Unpaused",
					"type": "event"
				},
				{
					"anonymous": false,
					"inputs": [
						{
							"indexed": true,
							"internalType": "address",
							"name": "implementation",
							"type": "address"
						}
					],
					"name": "Upgraded",
					"type": "event"
				},
				{
					"inputs": [],
					"name": "DEFAULT_ADMIN_ROLE",
					"outputs": [
						{
							"internalType": "bytes32",
							"name": "",
							"type": "bytes32"
						}
					],
					"stateMutability": "view",
					"type": "function"
				},
				{
					"inputs": [],
					"name": "PAUSER_ROLE",
					"outputs": [
						{
							"internalType": "bytes32",
							"name": "",
							"type": "bytes32"
						}
					],
					"stateMutability": "view",
					"type": "function"
				},
				{
					"inputs": [],
					"name": "UPGRADER_ROLE",
					"outputs": [
						{
							"internalType": "bytes32",
							"name": "",
							"type": "bytes32"
						}
					],
					"stateMutability": "view",
					"type": "function"
				},
				{
					"inputs": [],
					"name": "UPGRADE_INTERFACE_VERSION",
					"outputs": [
						{
							"internalType": "string",
							"name": "",
							"type": "string"
						}
					],
					"stateMutability": "view",
					"type": "function"
				},
				{
					"inputs": [
						{
							"internalType": "uint256",
							"name": "transactionHash",
							"type": "uint256"
						},
						{
							"internalType": "bool",
							"name": "success",
							"type": "bool"
						}
					],
					"name": "afterTransfer",
					"outputs": [],
					"stateMutability": "nonpayable",
					"type": "function"
				},
				{
					"inputs": [
						{
							"internalType": "address",
							"name": "_withParty",
							"type": "address"
						},
						{
							"internalType": "string",
							"name": "_tradeData",
							"type": "string"
						},
						{
							"internalType": "int256",
							"name": "_position",
							"type": "int256"
						},
						{
							"internalType": "int256",
							"name": "_paymentAmount",
							"type": "int256"
						},
						{
							"internalType": "string",
							"name": "_initialSettlementData",
							"type": "string"
						}
					],
					"name": "confirmTrade",
					"outputs": [],
					"stateMutability": "nonpayable",
					"type": "function"
				},
				{
					"inputs": [
						{
							"internalType": "string",
							"name": "tradeId",
							"type": "string"
						},
						{
							"internalType": "int256",
							"name": "_terminationPayment",
							"type": "int256"
						}
					],
					"name": "confirmTradeTermination",
					"outputs": [],
					"stateMutability": "nonpayable",
					"type": "function"
				},
				{
					"inputs": [
						{
							"internalType": "bytes32",
							"name": "role",
							"type": "bytes32"
						}
					],
					"name": "getRoleAdmin",
					"outputs": [
						{
							"internalType": "bytes32",
							"name": "",
							"type": "bytes32"
						}
					],
					"stateMutability": "view",
					"type": "function"
				},
				{
					"inputs": [
						{
							"internalType": "bytes32",
							"name": "role",
							"type": "bytes32"
						},
						{
							"internalType": "address",
							"name": "account",
							"type": "address"
						}
					],
					"name": "grantRole",
					"outputs": [],
					"stateMutability": "nonpayable",
					"type": "function"
				},
				{
					"inputs": [
						{
							"internalType": "bytes32",
							"name": "role",
							"type": "bytes32"
						},
						{
							"internalType": "address",
							"name": "account",
							"type": "address"
						}
					],
					"name": "hasRole",
					"outputs": [
						{
							"internalType": "bool",
							"name": "",
							"type": "bool"
						}
					],
					"stateMutability": "view",
					"type": "function"
				},
				{
					"inputs": [
						{
							"internalType": "address",
							"name": "_withParty",
							"type": "address"
						},
						{
							"internalType": "string",
							"name": "_tradeData",
							"type": "string"
						},
						{
							"internalType": "int256",
							"name": "_position",
							"type": "int256"
						},
						{
							"internalType": "int256",
							"name": "_paymentAmount",
							"type": "int256"
						},
						{
							"internalType": "string",
							"name": "_initialSettlementData",
							"type": "string"
						}
					],
					"name": "inceptTrade",
					"outputs": [],
					"stateMutability": "nonpayable",
					"type": "function"
				},
				{
					"inputs": [],
					"name": "initialize",
					"outputs": [],
					"stateMutability": "nonpayable",
					"type": "function"
				},
				{
					"inputs": [],
					"name": "initiateSettlement",
					"outputs": [],
					"stateMutability": "nonpayable",
					"type": "function"
				},
				{
					"inputs": [],
					"name": "pause",
					"outputs": [],
					"stateMutability": "nonpayable",
					"type": "function"
				},
				{
					"inputs": [],
					"name": "paused",
					"outputs": [
						{
							"internalType": "bool",
							"name": "",
							"type": "bool"
						}
					],
					"stateMutability": "view",
					"type": "function"
				},
				{
					"inputs": [
						{
							"internalType": "int256",
							"name": "settlementAmount",
							"type": "int256"
						},
						{
							"internalType": "string",
							"name": "settlementData",
							"type": "string"
						}
					],
					"name": "performSettlement",
					"outputs": [],
					"stateMutability": "nonpayable",
					"type": "function"
				},
				{
					"inputs": [],
					"name": "proxiableUUID",
					"outputs": [
						{
							"internalType": "bytes32",
							"name": "",
							"type": "bytes32"
						}
					],
					"stateMutability": "view",
					"type": "function"
				},
				{
					"inputs": [
						{
							"internalType": "bytes32",
							"name": "role",
							"type": "bytes32"
						},
						{
							"internalType": "address",
							"name": "callerConfirmation",
							"type": "address"
						}
					],
					"name": "renounceRole",
					"outputs": [],
					"stateMutability": "nonpayable",
					"type": "function"
				},
				{
					"inputs": [
						{
							"internalType": "string",
							"name": "tradeId",
							"type": "string"
						},
						{
							"internalType": "int256",
							"name": "_terminationPayment",
							"type": "int256"
						}
					],
					"name": "requestTradeTermination",
					"outputs": [],
					"stateMutability": "nonpayable",
					"type": "function"
				},
				{
					"inputs": [
						{
							"internalType": "bytes32",
							"name": "role",
							"type": "bytes32"
						},
						{
							"internalType": "address",
							"name": "account",
							"type": "address"
						}
					],
					"name": "revokeRole",
					"outputs": [],
					"stateMutability": "nonpayable",
					"type": "function"
				},
				{
					"inputs": [
						{
							"internalType": "bytes4",
							"name": "interfaceId",
							"type": "bytes4"
						}
					],
					"name": "supportsInterface",
					"outputs": [
						{
							"internalType": "bool",
							"name": "",
							"type": "bool"
						}
					],
					"stateMutability": "view",
					"type": "function"
				},
				{
					"inputs": [
						{
							"internalType": "uint256",
							"name": "_amount",
							"type": "uint256"
						}
					],
					"name": "testSendFunds",
					"outputs": [],
					"stateMutability": "nonpayable",
					"type": "function"
				},
				{
					"inputs": [
						{
							"internalType": "uint256",
							"name": "",
							"type": "uint256"
						}
					],
					"name": "tradeIds",
					"outputs": [
						{
							"internalType": "string",
							"name": "",
							"type": "string"
						}
					],
					"stateMutability": "view",
					"type": "function"
				},
				{
					"inputs": [
						{
							"internalType": "string",
							"name": "",
							"type": "string"
						}
					],
					"name": "trades",
					"outputs": [
						{
							"internalType": "address",
							"name": "initiator",
							"type": "address"
						},
						{
							"internalType": "address",
							"name": "counterparty",
							"type": "address"
						},
						{
							"internalType": "string",
							"name": "tradeData",
							"type": "string"
						},
						{
							"internalType": "int256",
							"name": "position",
							"type": "int256"
						},
						{
							"internalType": "int256",
							"name": "paymentAmount",
							"type": "int256"
						},
						{
							"internalType": "string",
							"name": "initialSettlementData",
							"type": "string"
						},
						{
							"internalType": "bool",
							"name": "confirmed",
							"type": "bool"
						},
						{
							"internalType": "bool",
							"name": "settled",
							"type": "bool"
						}
					],
					"stateMutability": "view",
					"type": "function"
				},
				{
					"inputs": [],
					"name": "unpause",
					"outputs": [],
					"stateMutability": "nonpayable",
					"type": "function"
				},
				{
					"inputs": [
						{
							"internalType": "address",
							"name": "newImplementation",
							"type": "address"
						},
						{
							"internalType": "bytes",
							"name": "data",
							"type": "bytes"
						}
					],
					"name": "upgradeToAndCall",
					"outputs": [],
					"stateMutability": "payable",
					"type": "function"
				}
			],
			"devdoc": {
				"errors": {
					"AccessControlBadConfirmation()": [
						{
							"details": "The caller of a function is not the expected one. NOTE: Don't confuse with {AccessControlUnauthorizedAccount}."
						}
					],
					"AccessControlUnauthorizedAccount(address,bytes32)": [
						{
							"details": "The `account` is missing a role."
						}
					],
					"AddressEmptyCode(address)": [
						{
							"details": "There's no code at `target` (it is not a contract)."
						}
					],
					"ERC1967InvalidImplementation(address)": [
						{
							"details": "The `implementation` of the proxy is invalid."
						}
					],
					"ERC1967NonPayable()": [
						{
							"details": "An upgrade function sees `msg.value > 0` that may be lost."
						}
					],
					"EnforcedPause()": [
						{
							"details": "The operation failed because the contract is paused."
						}
					],
					"ExpectedPause()": [
						{
							"details": "The operation failed because the contract is not paused."
						}
					],
					"FailedInnerCall()": [
						{
							"details": "A call to an address target failed. The target may have reverted."
						}
					],
					"InvalidInitialization()": [
						{
							"details": "The contract is already initialized."
						}
					],
					"NotInitializing()": [
						{
							"details": "The contract is not initializing."
						}
					],
					"UUPSUnauthorizedCallContext()": [
						{
							"details": "The call is from an unauthorized context."
						}
					],
					"UUPSUnsupportedProxiableUUID(bytes32)": [
						{
							"details": "The storage `slot` is unsupported as a UUID."
						}
					]
				},
				"events": {
					"Initialized(uint64)": {
						"details": "Triggered when the contract has been initialized or reinitialized."
					},
					"Paused(address)": {
						"details": "Emitted when the pause is triggered by `account`."
					},
					"RoleAdminChanged(bytes32,bytes32,bytes32)": {
						"details": "Emitted when `newAdminRole` is set as ``role``'s admin role, replacing `previousAdminRole` `DEFAULT_ADMIN_ROLE` is the starting admin for all roles, despite {RoleAdminChanged} not being emitted signaling this."
					},
					"RoleGranted(bytes32,address,address)": {
						"details": "Emitted when `account` is granted `role`. `sender` is the account that originated the contract call, an admin role bearer except when using {AccessControl-_setupRole}."
					},
					"RoleRevoked(bytes32,address,address)": {
						"details": "Emitted when `account` is revoked `role`. `sender` is the account that originated the contract call:   - if using `revokeRole`, it is the admin role bearer   - if using `renounceRole`, it is the role bearer (i.e. `account`)"
					},
					"Unpaused(address)": {
						"details": "Emitted when the pause is lifted by `account`."
					},
					"Upgraded(address)": {
						"details": "Emitted when the implementation is upgraded."
					}
				},
				"kind": "dev",
				"methods": {
					"getRoleAdmin(bytes32)": {
						"details": "Returns the admin role that controls `role`. See {grantRole} and {revokeRole}. To change a role's admin, use {_setRoleAdmin}."
					},
					"grantRole(bytes32,address)": {
						"details": "Grants `role` to `account`. If `account` had not been already granted `role`, emits a {RoleGranted} event. Requirements: - the caller must have ``role``'s admin role. May emit a {RoleGranted} event."
					},
					"hasRole(bytes32,address)": {
						"details": "Returns `true` if `account` has been granted `role`."
					},
					"initialize()": {
						"custom:oz-upgrades-unsafe-allow": "constructor"
					},
					"paused()": {
						"details": "Returns true if the contract is paused, and false otherwise."
					},
					"proxiableUUID()": {
						"details": "Implementation of the ERC1822 {proxiableUUID} function. This returns the storage slot used by the implementation. It is used to validate the implementation's compatibility when performing an upgrade. IMPORTANT: A proxy pointing at a proxiable contract should not be considered proxiable itself, because this risks bricking a proxy that upgrades to it, by delegating to itself until out of gas. Thus it is critical that this function revert if invoked through a proxy. This is guaranteed by the `notDelegated` modifier."
					},
					"renounceRole(bytes32,address)": {
						"details": "Revokes `role` from the calling account. Roles are often managed via {grantRole} and {revokeRole}: this function's purpose is to provide a mechanism for accounts to lose their privileges if they are compromised (such as when a trusted device is misplaced). If the calling account had been revoked `role`, emits a {RoleRevoked} event. Requirements: - the caller must be `callerConfirmation`. May emit a {RoleRevoked} event."
					},
					"revokeRole(bytes32,address)": {
						"details": "Revokes `role` from `account`. If `account` had been granted `role`, emits a {RoleRevoked} event. Requirements: - the caller must have ``role``'s admin role. May emit a {RoleRevoked} event."
					},
					"supportsInterface(bytes4)": {
						"details": "See {IERC165-supportsInterface}."
					},
					"upgradeToAndCall(address,bytes)": {
						"custom:oz-upgrades-unsafe-allow-reachable": "delegatecall",
						"details": "Upgrade the implementation of the proxy to `newImplementation`, and subsequently execute the function call encoded in `data`. Calls {_authorizeUpgrade}. Emits an {Upgraded} event."
					}
				},
				"version": 1
			},
			"evm": {
				"assembly": "    /* \"contracts/Bond3.sol\":479:5579  contract Bond3 is Initializable, PausableUpgradeable, AccessControlUpgradeable, UUPSUpgradeable, ISmartDerivativeContract  {... */\n  mstore(0x40, 0xa0)\n    /* \"@openzeppelin/contracts-upgradeable/proxy/utils/UUPSUpgradeable.sol\":1171:1175  this */\n  address\n    /* \"@openzeppelin/contracts-upgradeable/proxy/utils/UUPSUpgradeable.sol\":1128:1176  address private immutable __self = address(this) */\n  0xffffffffffffffffffffffffffffffffffffffff\n  and\n  0x80\n  swap1\n  0xffffffffffffffffffffffffffffffffffffffff\n  and\n  dup2\n  mstore\n  pop\n    /* \"contracts/Bond3.sol\":479:5579  contract Bond3 is Initializable, PausableUpgradeable, AccessControlUpgradeable, UUPSUpgradeable, ISmartDerivativeContract  {... */\n  callvalue\n  dup1\n  iszero\n  tag_1\n  jumpi\n  0x00\n  dup1\n  revert\ntag_1:\n  pop\n  mload(0x80)\n  codecopy(0x00, dataOffset(sub_0), dataSize(sub_0))\n  0x00\n  assignImmutable(\"0x3b04ad91523c4dcf551e081621e633b9099d51bf9c5461e58c3bc7354a578b27\")\n  return(0x00, dataSize(sub_0))\nstop\n\nsub_0: assembly {\n        /* \"contracts/Bond3.sol\":479:5579  contract Bond3 is Initializable, PausableUpgradeable, AccessControlUpgradeable, UUPSUpgradeable, ISmartDerivativeContract  {... */\n      mstore(0x40, 0x80)\n      jumpi(tag_1, lt(calldatasize, 0x04))\n      shr(0xe0, calldataload(0x00))\n      dup1\n      0x8129fc1c\n      gt\n      tag_28\n      jumpi\n      dup1\n      0xc78b432e\n      gt\n      tag_29\n      jumpi\n      dup1\n      0xe63ab1e9\n      gt\n      tag_30\n      jumpi\n      dup1\n      0xe63ab1e9\n      eq\n      tag_24\n      jumpi\n      dup1\n      0xec11c4e9\n      eq\n      tag_25\n      jumpi\n      dup1\n      0xf72c0d8b\n      eq\n      tag_26\n      jumpi\n      dup1\n      0xff52c484\n      eq\n      tag_27\n      jumpi\n      jump(tag_1)\n    tag_30:\n      dup1\n      0xc78b432e\n      eq\n      tag_21\n      jumpi\n      dup1\n      0xd547741f\n      eq\n      tag_22\n      jumpi\n      dup1\n      0xdf2d0728\n      eq\n      tag_23\n      jumpi\n      jump(tag_1)\n    tag_29:\n      dup1\n      0x8129fc1c\n      eq\n      tag_15\n      jumpi\n      dup1\n      0x8456cb59\n      eq\n      tag_16\n      jumpi\n      dup1\n      0x858f0e93\n      eq\n      tag_17\n      jumpi\n      dup1\n      0x91d14854\n      eq\n      tag_18\n      jumpi\n      dup1\n      0xa217fddf\n      eq\n      tag_19\n      jumpi\n      dup1\n      0xad3cb1cc\n      eq\n      tag_20\n      jumpi\n      jump(tag_1)\n    tag_28:\n      dup1\n      0x4f1ef286\n      gt\n      tag_31\n      jumpi\n      dup1\n      0x6861c20c\n      gt\n      tag_32\n      jumpi\n      dup1\n      0x6861c20c\n      eq\n      tag_11\n      jumpi\n      dup1\n      0x6ba63956\n      eq\n      tag_12\n      jumpi\n      dup1\n      0x729d581c\n      eq\n      tag_13\n      jumpi\n      dup1\n      0x79648ed3\n      eq\n      tag_14\n      jumpi\n      jump(tag_1)\n    tag_32:\n      dup1\n      0x4f1ef286\n      eq\n      tag_8\n      jumpi\n      dup1\n      0x52d1902d\n      eq\n      tag_9\n      jumpi\n      dup1\n      0x5c975abb\n      eq\n      tag_10\n      jumpi\n      jump(tag_1)\n    tag_31:\n      dup1\n      0x01ffc9a7\n      eq\n      tag_2\n      jumpi\n      dup1\n      0x248a9ca3\n      eq\n      tag_3\n      jumpi\n      dup1\n      0x2f2ff15d\n      eq\n      tag_4\n      jumpi\n      dup1\n      0x36568abe\n      eq\n      tag_5\n      jumpi\n      dup1\n      0x3f4ba83a\n      eq\n      tag_6\n      jumpi\n      dup1\n      0x47a04100\n      eq\n      tag_7\n      jumpi\n    tag_1:\n      0x00\n      dup1\n      revert\n        /* \"@openzeppelin/contracts-upgradeable/access/AccessControlUpgradeable.sol\":3443:3645  function supportsInterface(bytes4 interfaceId) public view virtual override returns (bool) {... */\n    tag_2:\n      callvalue\n      dup1\n      iszero\n      tag_33\n      jumpi\n      0x00\n      dup1\n      revert\n    tag_33:\n      pop\n      tag_34\n      0x04\n      dup1\n      calldatasize\n      sub\n      dup2\n      add\n      swap1\n      tag_35\n      swap2\n      swap1\n      tag_36\n      jump\t// in\n    tag_35:\n      tag_37\n      jump\t// in\n    tag_34:\n      mload(0x40)\n      tag_38\n      swap2\n      swap1\n      tag_39\n      jump\t// in\n    tag_38:\n      mload(0x40)\n      dup1\n      swap2\n      sub\n      swap1\n      return\n        /* \"@openzeppelin/contracts-upgradeable/access/AccessControlUpgradeable.sol\":4759:4950  function getRoleAdmin(bytes32 role) public view virtual returns (bytes32) {... */\n    tag_3:\n      callvalue\n      dup1\n      iszero\n      tag_40\n      jumpi\n      0x00\n      dup1\n      revert\n    tag_40:\n      pop\n      tag_41\n      0x04\n      dup1\n      calldatasize\n      sub\n      dup2\n      add\n      swap1\n      tag_42\n      swap2\n      swap1\n      tag_43\n      jump\t// in\n    tag_42:\n      tag_44\n      jump\t// in\n    tag_41:\n      mload(0x40)\n      tag_45\n      swap2\n      swap1\n      tag_46\n      jump\t// in\n    tag_45:\n      mload(0x40)\n      dup1\n      swap2\n      sub\n      swap1\n      return\n        /* \"@openzeppelin/contracts-upgradeable/access/AccessControlUpgradeable.sol\":5246:5382  function grantRole(bytes32 role, address account) public virtual onlyRole(getRoleAdmin(role)) {... */\n    tag_4:\n      callvalue\n      dup1\n      iszero\n      tag_47\n      jumpi\n      0x00\n      dup1\n      revert\n    tag_47:\n      pop\n      tag_48\n      0x04\n      dup1\n      calldatasize\n      sub\n      dup2\n      add\n      swap1\n      tag_49\n      swap2\n      swap1\n      tag_50\n      jump\t// in\n    tag_49:\n      tag_51\n      jump\t// in\n    tag_48:\n      stop\n        /* \"@openzeppelin/contracts-upgradeable/access/AccessControlUpgradeable.sol\":6348:6593  function renounceRole(bytes32 role, address callerConfirmation) public virtual {... */\n    tag_5:\n      callvalue\n      dup1\n      iszero\n      tag_52\n      jumpi\n      0x00\n      dup1\n      revert\n    tag_52:\n      pop\n      tag_53\n      0x04\n      dup1\n      calldatasize\n      sub\n      dup2\n      add\n      swap1\n      tag_54\n      swap2\n      swap1\n      tag_50\n      jump\t// in\n    tag_54:\n      tag_55\n      jump\t// in\n    tag_53:\n      stop\n        /* \"contracts/Bond3.sol\":1692:1769  function unpause() public onlyRole(PAUSER_ROLE) {... */\n    tag_6:\n      callvalue\n      dup1\n      iszero\n      tag_56\n      jumpi\n      0x00\n      dup1\n      revert\n    tag_56:\n      pop\n      tag_57\n      tag_58\n      jump\t// in\n    tag_57:\n      stop\n        /* \"contracts/Bond3.sol\":863:901  mapping(string => Trade) public trades */\n    tag_7:\n      callvalue\n      dup1\n      iszero\n      tag_59\n      jumpi\n      0x00\n      dup1\n      revert\n    tag_59:\n      pop\n      tag_60\n      0x04\n      dup1\n      calldatasize\n      sub\n      dup2\n      add\n      swap1\n      tag_61\n      swap2\n      swap1\n      tag_62\n      jump\t// in\n    tag_61:\n      tag_63\n      jump\t// in\n    tag_60:\n      mload(0x40)\n      tag_64\n      swap9\n      swap8\n      swap7\n      swap6\n      swap5\n      swap4\n      swap3\n      swap2\n      swap1\n      tag_65\n      jump\t// in\n    tag_64:\n      mload(0x40)\n      dup1\n      swap2\n      sub\n      swap1\n      return\n        /* \"@openzeppelin/contracts-upgradeable/proxy/utils/UUPSUpgradeable.sol\":4158:4372  function upgradeToAndCall(address newImplementation, bytes memory data) public payable virtual onlyProxy {... */\n    tag_8:\n      tag_66\n      0x04\n      dup1\n      calldatasize\n      sub\n      dup2\n      add\n      swap1\n      tag_67\n      swap2\n      swap1\n      tag_68\n      jump\t// in\n    tag_67:\n      tag_69\n      jump\t// in\n    tag_66:\n      stop\n        /* \"@openzeppelin/contracts-upgradeable/proxy/utils/UUPSUpgradeable.sol\":3705:3839  function proxiableUUID() external view virtual notDelegated returns (bytes32) {... */\n    tag_9:\n      callvalue\n      dup1\n      iszero\n      tag_70\n      jumpi\n      0x00\n      dup1\n      revert\n    tag_70:\n      pop\n      tag_71\n      tag_72\n      jump\t// in\n    tag_71:\n      mload(0x40)\n      tag_73\n      swap2\n      swap1\n      tag_46\n      jump\t// in\n    tag_73:\n      mload(0x40)\n      dup1\n      swap2\n      sub\n      swap1\n      return\n        /* \"@openzeppelin/contracts-upgradeable/utils/PausableUpgradeable.sol\":2692:2837  function paused() public view virtual returns (bool) {... */\n    tag_10:\n      callvalue\n      dup1\n      iszero\n      tag_74\n      jumpi\n      0x00\n      dup1\n      revert\n    tag_74:\n      pop\n      tag_75\n      tag_76\n      jump\t// in\n    tag_75:\n      mload(0x40)\n      tag_77\n      swap2\n      swap1\n      tag_39\n      jump\t// in\n    tag_77:\n      mload(0x40)\n      dup1\n      swap2\n      sub\n      swap1\n      return\n        /* \"contracts/Bond3.sol\":5333:5438  function testSendFunds(uint256 _amount) external {... */\n    tag_11:\n      callvalue\n      dup1\n      iszero\n      tag_78\n      jumpi\n      0x00\n      dup1\n      revert\n    tag_78:\n      pop\n      tag_79\n      0x04\n      dup1\n      calldatasize\n      sub\n      dup2\n      add\n      swap1\n      tag_80\n      swap2\n      swap1\n      tag_81\n      jump\t// in\n    tag_80:\n      tag_82\n      jump\t// in\n    tag_79:\n      stop\n        /* \"contracts/Bond3.sol\":3861:4400  function performSettlement(... */\n    tag_12:\n      callvalue\n      dup1\n      iszero\n      tag_83\n      jumpi\n      0x00\n      dup1\n      revert\n    tag_83:\n      pop\n      tag_84\n      0x04\n      dup1\n      calldatasize\n      sub\n      dup2\n      add\n      swap1\n      tag_85\n      swap2\n      swap1\n      tag_86\n      jump\t// in\n    tag_85:\n      tag_87\n      jump\t// in\n    tag_84:\n      stop\n        /* \"contracts/Bond3.sol\":4593:4950  function requestTradeTermination(... */\n    tag_13:\n      callvalue\n      dup1\n      iszero\n      tag_88\n      jumpi\n      0x00\n      dup1\n      revert\n    tag_88:\n      pop\n      tag_89\n      0x04\n      dup1\n      calldatasize\n      sub\n      dup2\n      add\n      swap1\n      tag_90\n      swap2\n      swap1\n      tag_91\n      jump\t// in\n    tag_90:\n      tag_92\n      jump\t// in\n    tag_89:\n      stop\n        /* \"contracts/Bond3.sol\":4962:5325  function confirmTradeTermination(... */\n    tag_14:\n      callvalue\n      dup1\n      iszero\n      tag_93\n      jumpi\n      0x00\n      dup1\n      revert\n    tag_93:\n      pop\n      tag_94\n      0x04\n      dup1\n      calldatasize\n      sub\n      dup2\n      add\n      swap1\n      tag_95\n      swap2\n      swap1\n      tag_91\n      jump\t// in\n    tag_95:\n      tag_96\n      jump\t// in\n    tag_94:\n      stop\n        /* \"contracts/Bond3.sol\":1295:1603  function initialize()... */\n    tag_15:\n      callvalue\n      dup1\n      iszero\n      tag_97\n      jumpi\n      0x00\n      dup1\n      revert\n    tag_97:\n      pop\n      tag_98\n      tag_99\n      jump\t// in\n    tag_98:\n      stop\n        /* \"contracts/Bond3.sol\":1611:1684  function pause() public onlyRole(PAUSER_ROLE) {... */\n    tag_16:\n      callvalue\n      dup1\n      iszero\n      tag_100\n      jumpi\n      0x00\n      dup1\n      revert\n    tag_100:\n      pop\n      tag_101\n      tag_102\n      jump\t// in\n    tag_101:\n      stop\n        /* \"contracts/Bond3.sol\":2898:3403  function confirmTrade(... */\n    tag_17:\n      callvalue\n      dup1\n      iszero\n      tag_103\n      jumpi\n      0x00\n      dup1\n      revert\n    tag_103:\n      pop\n      tag_104\n      0x04\n      dup1\n      calldatasize\n      sub\n      dup2\n      add\n      swap1\n      tag_105\n      swap2\n      swap1\n      tag_106\n      jump\t// in\n    tag_105:\n      tag_107\n      jump\t// in\n    tag_104:\n      stop\n        /* \"@openzeppelin/contracts-upgradeable/access/AccessControlUpgradeable.sol\":3732:3939  function hasRole(bytes32 role, address account) public view virtual returns (bool) {... */\n    tag_18:\n      callvalue\n      dup1\n      iszero\n      tag_108\n      jumpi\n      0x00\n      dup1\n      revert\n    tag_108:\n      pop\n      tag_109\n      0x04\n      dup1\n      calldatasize\n      sub\n      dup2\n      add\n      swap1\n      tag_110\n      swap2\n      swap1\n      tag_50\n      jump\t// in\n    tag_110:\n      tag_111\n      jump\t// in\n    tag_109:\n      mload(0x40)\n      tag_112\n      swap2\n      swap1\n      tag_39\n      jump\t// in\n    tag_112:\n      mload(0x40)\n      dup1\n      swap2\n      sub\n      swap1\n      return\n        /* \"@openzeppelin/contracts-upgradeable/access/AccessControlUpgradeable.sol\":2317:2366  bytes32 public constant DEFAULT_ADMIN_ROLE = 0x00 */\n    tag_19:\n      callvalue\n      dup1\n      iszero\n      tag_113\n      jumpi\n      0x00\n      dup1\n      revert\n    tag_113:\n      pop\n      tag_114\n      tag_115\n      jump\t// in\n    tag_114:\n      mload(0x40)\n      tag_116\n      swap2\n      swap1\n      tag_46\n      jump\t// in\n    tag_116:\n      mload(0x40)\n      dup1\n      swap2\n      sub\n      swap1\n      return\n        /* \"@openzeppelin/contracts-upgradeable/proxy/utils/UUPSUpgradeable.sol\":1819:1877  string public constant UPGRADE_INTERFACE_VERSION = \"5.0.0\" */\n    tag_20:\n      callvalue\n      dup1\n      iszero\n      tag_117\n      jumpi\n      0x00\n      dup1\n      revert\n    tag_117:\n      pop\n      tag_118\n      tag_119\n      jump\t// in\n    tag_118:\n      mload(0x40)\n      tag_120\n      swap2\n      swap1\n      tag_121\n      jump\t// in\n    tag_120:\n      mload(0x40)\n      dup1\n      swap2\n      sub\n      swap1\n      return\n        /* \"contracts/Bond3.sol\":3415:3849  function initiateSettlement() external override {... */\n    tag_21:\n      callvalue\n      dup1\n      iszero\n      tag_122\n      jumpi\n      0x00\n      dup1\n      revert\n    tag_122:\n      pop\n      tag_123\n      tag_124\n      jump\t// in\n    tag_123:\n      stop\n        /* \"@openzeppelin/contracts-upgradeable/access/AccessControlUpgradeable.sol\":5662:5800  function revokeRole(bytes32 role, address account) public virtual onlyRole(getRoleAdmin(role)) {... */\n    tag_22:\n      callvalue\n      dup1\n      iszero\n      tag_125\n      jumpi\n      0x00\n      dup1\n      revert\n    tag_125:\n      pop\n      tag_126\n      0x04\n      dup1\n      calldatasize\n      sub\n      dup2\n      add\n      swap1\n      tag_127\n      swap2\n      swap1\n      tag_50\n      jump\t// in\n    tag_127:\n      tag_128\n      jump\t// in\n    tag_126:\n      stop\n        /* \"contracts/Bond3.sol\":4412:4581  function afterTransfer(... */\n    tag_23:\n      callvalue\n      dup1\n      iszero\n      tag_129\n      jumpi\n      0x00\n      dup1\n      revert\n    tag_129:\n      pop\n      tag_130\n      0x04\n      dup1\n      calldatasize\n      sub\n      dup2\n      add\n      swap1\n      tag_131\n      swap2\n      swap1\n      tag_132\n      jump\t// in\n    tag_131:\n      tag_133\n      jump\t// in\n    tag_130:\n      stop\n        /* \"contracts/Bond3.sol\":939:1001  bytes32 public constant PAUSER_ROLE = keccak256(\"PAUSER_ROLE\") */\n    tag_24:\n      callvalue\n      dup1\n      iszero\n      tag_134\n      jumpi\n      0x00\n      dup1\n      revert\n    tag_134:\n      pop\n      tag_135\n      tag_136\n      jump\t// in\n    tag_135:\n      mload(0x40)\n      tag_137\n      swap2\n      swap1\n      tag_46\n      jump\t// in\n    tag_137:\n      mload(0x40)\n      dup1\n      swap2\n      sub\n      swap1\n      return\n        /* \"contracts/Bond3.sol\":1777:2886  function inceptTrade(... */\n    tag_25:\n      callvalue\n      dup1\n      iszero\n      tag_138\n      jumpi\n      0x00\n      dup1\n      revert\n    tag_138:\n      pop\n      tag_139\n      0x04\n      dup1\n      calldatasize\n      sub\n      dup2\n      add\n      swap1\n      tag_140\n      swap2\n      swap1\n      tag_106\n      jump\t// in\n    tag_140:\n      tag_141\n      jump\t// in\n    tag_139:\n      stop\n        /* \"contracts/Bond3.sol\":1008:1074  bytes32 public constant UPGRADER_ROLE = keccak256(\"UPGRADER_ROLE\") */\n    tag_26:\n      callvalue\n      dup1\n      iszero\n      tag_142\n      jumpi\n      0x00\n      dup1\n      revert\n    tag_142:\n      pop\n      tag_143\n      tag_144\n      jump\t// in\n    tag_143:\n      mload(0x40)\n      tag_145\n      swap2\n      swap1\n      tag_46\n      jump\t// in\n    tag_145:\n      mload(0x40)\n      dup1\n      swap2\n      sub\n      swap1\n      return\n        /* \"contracts/Bond3.sol\":908:932  string[] public tradeIds */\n    tag_27:\n      callvalue\n      dup1\n      iszero\n      tag_146\n      jumpi\n      0x00\n      dup1\n      revert\n    tag_146:\n      pop\n      tag_147\n      0x04\n      dup1\n      calldatasize\n      sub\n      dup2\n      add\n      swap1\n      tag_148\n      swap2\n      swap1\n      tag_81\n      jump\t// in\n    tag_148:\n      tag_149\n      jump\t// in\n    tag_147:\n      mload(0x40)\n      tag_150\n      swap2\n      swap1\n      tag_121\n      jump\t// in\n    tag_150:\n      mload(0x40)\n      dup1\n      swap2\n      sub\n      swap1\n      return\n        /* \"@openzeppelin/contracts-upgradeable/access/AccessControlUpgradeable.sol\":3443:3645  function supportsInterface(bytes4 interfaceId) public view virtual override returns (bool) {... */\n    tag_37:\n        /* \"@openzeppelin/contracts-upgradeable/access/AccessControlUpgradeable.sol\":3528:3532  bool */\n      0x00\n        /* \"@openzeppelin/contracts-upgradeable/access/AccessControlUpgradeable.sol\":3566:3598  type(IAccessControl).interfaceId */\n      0x7965db0b00000000000000000000000000000000000000000000000000000000\n        /* \"@openzeppelin/contracts-upgradeable/access/AccessControlUpgradeable.sol\":3551:3598  interfaceId == type(IAccessControl).interfaceId */\n      not(0xffffffffffffffffffffffffffffffffffffffffffffffffffffffff)\n      and\n        /* \"@openzeppelin/contracts-upgradeable/access/AccessControlUpgradeable.sol\":3551:3562  interfaceId */\n      dup3\n        /* \"@openzeppelin/contracts-upgradeable/access/AccessControlUpgradeable.sol\":3551:3598  interfaceId == type(IAccessControl).interfaceId */\n      not(0xffffffffffffffffffffffffffffffffffffffffffffffffffffffff)\n      and\n      eq\n        /* \"@openzeppelin/contracts-upgradeable/access/AccessControlUpgradeable.sol\":3551:3638  interfaceId == type(IAccessControl).interfaceId || super.supportsInterface(interfaceId) */\n      dup1\n      tag_152\n      jumpi\n      pop\n        /* \"@openzeppelin/contracts-upgradeable/access/AccessControlUpgradeable.sol\":3602:3638  super.supportsInterface(interfaceId) */\n      tag_153\n        /* \"@openzeppelin/contracts-upgradeable/access/AccessControlUpgradeable.sol\":3626:3637  interfaceId */\n      dup3\n        /* \"@openzeppelin/contracts-upgradeable/access/AccessControlUpgradeable.sol\":3602:3625  super.supportsInterface */\n      tag_154\n        /* \"@openzeppelin/contracts-upgradeable/access/AccessControlUpgradeable.sol\":3602:3638  super.supportsInterface(interfaceId) */\n      jump\t// in\n    tag_153:\n        /* \"@openzeppelin/contracts-upgradeable/access/AccessControlUpgradeable.sol\":3551:3638  interfaceId == type(IAccessControl).interfaceId || super.supportsInterface(interfaceId) */\n    tag_152:\n        /* \"@openzeppelin/contracts-upgradeable/access/AccessControlUpgradeable.sol\":3544:3638  return interfaceId == type(IAccessControl).interfaceId || super.supportsInterface(interfaceId) */\n      swap1\n      pop\n        /* \"@openzeppelin/contracts-upgradeable/access/AccessControlUpgradeable.sol\":3443:3645  function supportsInterface(bytes4 interfaceId) public view virtual override returns (bool) {... */\n      swap2\n      swap1\n      pop\n      jump\t// out\n        /* \"@openzeppelin/contracts-upgradeable/access/AccessControlUpgradeable.sol\":4759:4950  function getRoleAdmin(bytes32 role) public view virtual returns (bytes32) {... */\n    tag_44:\n        /* \"@openzeppelin/contracts-upgradeable/access/AccessControlUpgradeable.sol\":4824:4831  bytes32 */\n      0x00\n        /* \"@openzeppelin/contracts-upgradeable/access/AccessControlUpgradeable.sol\":4843:4873  AccessControlStorage storage $ */\n      dup1\n        /* \"@openzeppelin/contracts-upgradeable/access/AccessControlUpgradeable.sol\":4876:4902  _getAccessControlStorage() */\n      tag_156\n        /* \"@openzeppelin/contracts-upgradeable/access/AccessControlUpgradeable.sol\":4876:4900  _getAccessControlStorage */\n      tag_157\n        /* \"@openzeppelin/contracts-upgradeable/access/AccessControlUpgradeable.sol\":4876:4902  _getAccessControlStorage() */\n      jump\t// in\n    tag_156:\n        /* \"@openzeppelin/contracts-upgradeable/access/AccessControlUpgradeable.sol\":4843:4902  AccessControlStorage storage $ = _getAccessControlStorage() */\n      swap1\n      pop\n        /* \"@openzeppelin/contracts-upgradeable/access/AccessControlUpgradeable.sol\":4919:4920  $ */\n      dup1\n        /* \"@openzeppelin/contracts-upgradeable/access/AccessControlUpgradeable.sol\":4919:4927  $._roles */\n      0x00\n      add\n        /* \"@openzeppelin/contracts-upgradeable/access/AccessControlUpgradeable.sol\":4919:4933  $._roles[role] */\n      0x00\n        /* \"@openzeppelin/contracts-upgradeable/access/AccessControlUpgradeable.sol\":4928:4932  role */\n      dup5\n        /* \"@openzeppelin/contracts-upgradeable/access/AccessControlUpgradeable.sol\":4919:4933  $._roles[role] */\n      dup2\n      mstore\n      0x20\n      add\n      swap1\n      dup2\n      mstore\n      0x20\n      add\n      0x00\n      keccak256\n        /* \"@openzeppelin/contracts-upgradeable/access/AccessControlUpgradeable.sol\":4919:4943  $._roles[role].adminRole */\n      0x01\n      add\n      sload\n        /* \"@openzeppelin/contracts-upgradeable/access/AccessControlUpgradeable.sol\":4912:4943  return $._roles[role].adminRole */\n      swap2\n      pop\n      pop\n        /* \"@openzeppelin/contracts-upgradeable/access/AccessControlUpgradeable.sol\":4759:4950  function getRoleAdmin(bytes32 role) public view virtual returns (bytes32) {... */\n      swap2\n      swap1\n      pop\n      jump\t// out\n        /* \"@openzeppelin/contracts-upgradeable/access/AccessControlUpgradeable.sol\":5246:5382  function grantRole(bytes32 role, address account) public virtual onlyRole(getRoleAdmin(role)) {... */\n    tag_51:\n        /* \"@openzeppelin/contracts-upgradeable/access/AccessControlUpgradeable.sol\":5320:5338  getRoleAdmin(role) */\n      tag_158\n        /* \"@openzeppelin/contracts-upgradeable/access/AccessControlUpgradeable.sol\":5333:5337  role */\n      dup3\n        /* \"@openzeppelin/contracts-upgradeable/access/AccessControlUpgradeable.sol\":5320:5332  getRoleAdmin */\n      tag_44\n        /* \"@openzeppelin/contracts-upgradeable/access/AccessControlUpgradeable.sol\":5320:5338  getRoleAdmin(role) */\n      jump\t// in\n    tag_158:\n        /* \"@openzeppelin/contracts-upgradeable/access/AccessControlUpgradeable.sol\":3191:3207  _checkRole(role) */\n      tag_160\n        /* \"@openzeppelin/contracts-upgradeable/access/AccessControlUpgradeable.sol\":3202:3206  role */\n      dup2\n        /* \"@openzeppelin/contracts-upgradeable/access/AccessControlUpgradeable.sol\":3191:3201  _checkRole */\n      tag_161\n        /* \"@openzeppelin/contracts-upgradeable/access/AccessControlUpgradeable.sol\":3191:3207  _checkRole(role) */\n      jump\t// in\n    tag_160:\n        /* \"@openzeppelin/contracts-upgradeable/access/AccessControlUpgradeable.sol\":5350:5375  _grantRole(role, account) */\n      tag_163\n        /* \"@openzeppelin/contracts-upgradeable/access/AccessControlUpgradeable.sol\":5361:5365  role */\n      dup4\n        /* \"@openzeppelin/contracts-upgradeable/access/AccessControlUpgradeable.sol\":5367:5374  account */\n      dup4\n        /* \"@openzeppelin/contracts-upgradeable/access/AccessControlUpgradeable.sol\":5350:5360  _grantRole */\n      tag_164\n        /* \"@openzeppelin/contracts-upgradeable/access/AccessControlUpgradeable.sol\":5350:5375  _grantRole(role, account) */\n      jump\t// in\n    tag_163:\n      pop\n        /* \"@openzeppelin/contracts-upgradeable/access/AccessControlUpgradeable.sol\":5246:5382  function grantRole(bytes32 role, address account) public virtual onlyRole(getRoleAdmin(role)) {... */\n      pop\n      pop\n      pop\n      jump\t// out\n        /* \"@openzeppelin/contracts-upgradeable/access/AccessControlUpgradeable.sol\":6348:6593  function renounceRole(bytes32 role, address callerConfirmation) public virtual {... */\n    tag_55:\n        /* \"@openzeppelin/contracts-upgradeable/access/AccessControlUpgradeable.sol\":6463:6475  _msgSender() */\n      tag_166\n        /* \"@openzeppelin/contracts-upgradeable/access/AccessControlUpgradeable.sol\":6463:6473  _msgSender */\n      tag_167\n        /* \"@openzeppelin/contracts-upgradeable/access/AccessControlUpgradeable.sol\":6463:6475  _msgSender() */\n      jump\t// in\n    tag_166:\n        /* \"@openzeppelin/contracts-upgradeable/access/AccessControlUpgradeable.sol\":6441:6475  callerConfirmation != _msgSender() */\n      0xffffffffffffffffffffffffffffffffffffffff\n      and\n        /* \"@openzeppelin/contracts-upgradeable/access/AccessControlUpgradeable.sol\":6441:6459  callerConfirmation */\n      dup2\n        /* \"@openzeppelin/contracts-upgradeable/access/AccessControlUpgradeable.sol\":6441:6475  callerConfirmation != _msgSender() */\n      0xffffffffffffffffffffffffffffffffffffffff\n      and\n      eq\n        /* \"@openzeppelin/contracts-upgradeable/access/AccessControlUpgradeable.sol\":6437:6539  if (callerConfirmation != _msgSender()) {... */\n      tag_168\n      jumpi\n        /* \"@openzeppelin/contracts-upgradeable/access/AccessControlUpgradeable.sol\":6498:6528  AccessControlBadConfirmation() */\n      mload(0x40)\n      0x6697b23200000000000000000000000000000000000000000000000000000000\n      dup2\n      mstore\n      0x04\n      add\n      mload(0x40)\n      dup1\n      swap2\n      sub\n      swap1\n      revert\n        /* \"@openzeppelin/contracts-upgradeable/access/AccessControlUpgradeable.sol\":6437:6539  if (callerConfirmation != _msgSender()) {... */\n    tag_168:\n        /* \"@openzeppelin/contracts-upgradeable/access/AccessControlUpgradeable.sol\":6549:6586  _revokeRole(role, callerConfirmation) */\n      tag_169\n        /* \"@openzeppelin/contracts-upgradeable/access/AccessControlUpgradeable.sol\":6561:6565  role */\n      dup3\n        /* \"@openzeppelin/contracts-upgradeable/access/AccessControlUpgradeable.sol\":6567:6585  callerConfirmation */\n      dup3\n        /* \"@openzeppelin/contracts-upgradeable/access/AccessControlUpgradeable.sol\":6549:6560  _revokeRole */\n      tag_170\n        /* \"@openzeppelin/contracts-upgradeable/access/AccessControlUpgradeable.sol\":6549:6586  _revokeRole(role, callerConfirmation) */\n      jump\t// in\n    tag_169:\n      pop\n        /* \"@openzeppelin/contracts-upgradeable/access/AccessControlUpgradeable.sol\":6348:6593  function renounceRole(bytes32 role, address callerConfirmation) public virtual {... */\n      pop\n      pop\n      jump\t// out\n        /* \"contracts/Bond3.sol\":1692:1769  function unpause() public onlyRole(PAUSER_ROLE) {... */\n    tag_58:\n        /* \"contracts/Bond3.sol\":977:1001  keccak256(\"PAUSER_ROLE\") */\n      0x65d7a28e3265b37a6474929f336521b332c1681b933f6cb9f3376673440d862a\n        /* \"@openzeppelin/contracts-upgradeable/access/AccessControlUpgradeable.sol\":3191:3207  _checkRole(role) */\n      tag_172\n        /* \"@openzeppelin/contracts-upgradeable/access/AccessControlUpgradeable.sol\":3202:3206  role */\n      dup2\n        /* \"@openzeppelin/contracts-upgradeable/access/AccessControlUpgradeable.sol\":3191:3201  _checkRole */\n      tag_161\n        /* \"@openzeppelin/contracts-upgradeable/access/AccessControlUpgradeable.sol\":3191:3207  _checkRole(role) */\n      jump\t// in\n    tag_172:\n        /* \"contracts/Bond3.sol\":1751:1761  _unpause() */\n      tag_174\n        /* \"contracts/Bond3.sol\":1751:1759  _unpause */\n      tag_175\n        /* \"contracts/Bond3.sol\":1751:1761  _unpause() */\n      jump\t// in\n    tag_174:\n        /* \"contracts/Bond3.sol\":1692:1769  function unpause() public onlyRole(PAUSER_ROLE) {... */\n      pop\n      jump\t// out\n        /* \"contracts/Bond3.sol\":863:901  mapping(string => Trade) public trades */\n    tag_63:\n      0x00\n      dup2\n      dup1\n      mload\n      0x20\n      dup2\n      add\n      dup3\n      add\n      dup1\n      mload\n      dup5\n      dup3\n      mstore\n      0x20\n      dup4\n      add\n      0x20\n      dup6\n      add\n      keccak256\n      dup2\n      dup4\n      mstore\n      dup1\n      swap6\n      pop\n      pop\n      pop\n      pop\n      pop\n      pop\n      0x00\n      swap2\n      pop\n      swap1\n      pop\n      dup1\n      0x00\n      add\n      0x00\n      swap1\n      sload\n      swap1\n      0x0100\n      exp\n      swap1\n      div\n      0xffffffffffffffffffffffffffffffffffffffff\n      and\n      swap1\n      dup1\n      0x01\n      add\n      0x00\n      swap1\n      sload\n      swap1\n      0x0100\n      exp\n      swap1\n      div\n      0xffffffffffffffffffffffffffffffffffffffff\n      and\n      swap1\n      dup1\n      0x02\n      add\n      dup1\n      sload\n      tag_176\n      swap1\n      tag_177\n      jump\t// in\n    tag_176:\n      dup1\n      0x1f\n      add\n      0x20\n      dup1\n      swap2\n      div\n      mul\n      0x20\n      add\n      mload(0x40)\n      swap1\n      dup2\n      add\n      0x40\n      mstore\n      dup1\n      swap3\n      swap2\n      swap1\n      dup2\n      dup2\n      mstore\n      0x20\n      add\n      dup3\n      dup1\n      sload\n      tag_178\n      swap1\n      tag_177\n      jump\t// in\n    tag_178:\n      dup1\n      iszero\n      tag_179\n      jumpi\n      dup1\n      0x1f\n      lt\n      tag_180\n      jumpi\n      0x0100\n      dup1\n      dup4\n      sload\n      div\n      mul\n      dup4\n      mstore\n      swap2\n      0x20\n      add\n      swap2\n      jump(tag_179)\n    tag_180:\n      dup3\n      add\n      swap2\n      swap1\n      0x00\n      mstore\n      keccak256(0x00, 0x20)\n      swap1\n    tag_181:\n      dup2\n      sload\n      dup2\n      mstore\n      swap1\n      0x01\n      add\n      swap1\n      0x20\n      add\n      dup1\n      dup4\n      gt\n      tag_181\n      jumpi\n      dup3\n      swap1\n      sub\n      0x1f\n      and\n      dup3\n      add\n      swap2\n    tag_179:\n      pop\n      pop\n      pop\n      pop\n      pop\n      swap1\n      dup1\n      0x03\n      add\n      sload\n      swap1\n      dup1\n      0x04\n      add\n      sload\n      swap1\n      dup1\n      0x05\n      add\n      dup1\n      sload\n      tag_182\n      swap1\n      tag_177\n      jump\t// in\n    tag_182:\n      dup1\n      0x1f\n      add\n      0x20\n      dup1\n      swap2\n      div\n      mul\n      0x20\n      add\n      mload(0x40)\n      swap1\n      dup2\n      add\n      0x40\n      mstore\n      dup1\n      swap3\n      swap2\n      swap1\n      dup2\n      dup2\n      mstore\n      0x20\n      add\n      dup3\n      dup1\n      sload\n      tag_183\n      swap1\n      tag_177\n      jump\t// in\n    tag_183:\n      dup1\n      iszero\n      tag_184\n      jumpi\n      dup1\n      0x1f\n      lt\n      tag_185\n      jumpi\n      0x0100\n      dup1\n      dup4\n      sload\n      div\n      mul\n      dup4\n      mstore\n      swap2\n      0x20\n      add\n      swap2\n      jump(tag_184)\n    tag_185:\n      dup3\n      add\n      swap2\n      swap1\n      0x00\n      mstore\n      keccak256(0x00, 0x20)\n      swap1\n    tag_186:\n      dup2\n      sload\n      dup2\n      mstore\n      swap1\n      0x01\n      add\n      swap1\n      0x20\n      add\n      dup1\n      dup4\n      gt\n      tag_186\n      jumpi\n      dup3\n      swap1\n      sub\n      0x1f\n      and\n      dup3\n      add\n      swap2\n    tag_184:\n      pop\n      pop\n      pop\n      pop\n      pop\n      swap1\n      dup1\n      0x06\n      add\n      0x00\n      swap1\n      sload\n      swap1\n      0x0100\n      exp\n      swap1\n      div\n      0xff\n      and\n      swap1\n      dup1\n      0x06\n      add\n      0x01\n      swap1\n      sload\n      swap1\n      0x0100\n      exp\n      swap1\n      div\n      0xff\n      and\n      swap1\n      pop\n      dup9\n      jump\t// out\n        /* \"@openzeppelin/contracts-upgradeable/proxy/utils/UUPSUpgradeable.sol\":4158:4372  function upgradeToAndCall(address newImplementation, bytes memory data) public payable virtual onlyProxy {... */\n    tag_69:\n        /* \"@openzeppelin/contracts-upgradeable/proxy/utils/UUPSUpgradeable.sol\":2653:2666  _checkProxy() */\n      tag_188\n        /* \"@openzeppelin/contracts-upgradeable/proxy/utils/UUPSUpgradeable.sol\":2653:2664  _checkProxy */\n      tag_189\n        /* \"@openzeppelin/contracts-upgradeable/proxy/utils/UUPSUpgradeable.sol\":2653:2666  _checkProxy() */\n      jump\t// in\n    tag_188:\n        /* \"@openzeppelin/contracts-upgradeable/proxy/utils/UUPSUpgradeable.sol\":4273:4309  _authorizeUpgrade(newImplementation) */\n      tag_191\n        /* \"@openzeppelin/contracts-upgradeable/proxy/utils/UUPSUpgradeable.sol\":4291:4308  newImplementation */\n      dup3\n        /* \"@openzeppelin/contracts-upgradeable/proxy/utils/UUPSUpgradeable.sol\":4273:4290  _authorizeUpgrade */\n      tag_192\n        /* \"@openzeppelin/contracts-upgradeable/proxy/utils/UUPSUpgradeable.sol\":4273:4309  _authorizeUpgrade(newImplementation) */\n      jump\t// in\n    tag_191:\n        /* \"@openzeppelin/contracts-upgradeable/proxy/utils/UUPSUpgradeable.sol\":4319:4365  _upgradeToAndCallUUPS(newImplementation, data) */\n      tag_193\n        /* \"@openzeppelin/contracts-upgradeable/proxy/utils/UUPSUpgradeable.sol\":4341:4358  newImplementation */\n      dup3\n        /* \"@openzeppelin/contracts-upgradeable/proxy/utils/UUPSUpgradeable.sol\":4360:4364  data */\n      dup3\n        /* \"@openzeppelin/contracts-upgradeable/proxy/utils/UUPSUpgradeable.sol\":4319:4340  _upgradeToAndCallUUPS */\n      tag_194\n        /* \"@openzeppelin/contracts-upgradeable/proxy/utils/UUPSUpgradeable.sol\":4319:4365  _upgradeToAndCallUUPS(newImplementation, data) */\n      jump\t// in\n    tag_193:\n        /* \"@openzeppelin/contracts-upgradeable/proxy/utils/UUPSUpgradeable.sol\":4158:4372  function upgradeToAndCall(address newImplementation, bytes memory data) public payable virtual onlyProxy {... */\n      pop\n      pop\n      jump\t// out\n        /* \"@openzeppelin/contracts-upgradeable/proxy/utils/UUPSUpgradeable.sol\":3705:3839  function proxiableUUID() external view virtual notDelegated returns (bytes32) {... */\n    tag_72:\n        /* \"@openzeppelin/contracts-upgradeable/proxy/utils/UUPSUpgradeable.sol\":3774:3781  bytes32 */\n      0x00\n        /* \"@openzeppelin/contracts-upgradeable/proxy/utils/UUPSUpgradeable.sol\":2924:2944  _checkNotDelegated() */\n      tag_196\n        /* \"@openzeppelin/contracts-upgradeable/proxy/utils/UUPSUpgradeable.sol\":2924:2942  _checkNotDelegated */\n      tag_197\n        /* \"@openzeppelin/contracts-upgradeable/proxy/utils/UUPSUpgradeable.sol\":2924:2944  _checkNotDelegated() */\n      jump\t// in\n    tag_196:\n        /* \"@openzeppelin/contracts/proxy/ERC1967/ERC1967Utils.sol\":1327:1393  0x360894a13ba1a3210667c828492db98dca3e2076cc3735a920a3ca505d382bbc */\n      0x360894a13ba1a3210667c828492db98dca3e2076cc3735a920a3ca505d382bbc\n        /* \"@openzeppelin/contracts-upgradeable/proxy/utils/UUPSUpgradeable.sol\":3800:3832  ERC1967Utils.IMPLEMENTATION_SLOT */\n      0x00\n      shl\n        /* \"@openzeppelin/contracts-upgradeable/proxy/utils/UUPSUpgradeable.sol\":3793:3832  return ERC1967Utils.IMPLEMENTATION_SLOT */\n      swap1\n      pop\n        /* \"@openzeppelin/contracts-upgradeable/proxy/utils/UUPSUpgradeable.sol\":3705:3839  function proxiableUUID() external view virtual notDelegated returns (bytes32) {... */\n      swap1\n      jump\t// out\n        /* \"@openzeppelin/contracts-upgradeable/utils/PausableUpgradeable.sol\":2692:2837  function paused() public view virtual returns (bool) {... */\n    tag_76:\n        /* \"@openzeppelin/contracts-upgradeable/utils/PausableUpgradeable.sol\":2739:2743  bool */\n      0x00\n        /* \"@openzeppelin/contracts-upgradeable/utils/PausableUpgradeable.sol\":2755:2780  PausableStorage storage $ */\n      dup1\n        /* \"@openzeppelin/contracts-upgradeable/utils/PausableUpgradeable.sol\":2783:2804  _getPausableStorage() */\n      tag_200\n        /* \"@openzeppelin/contracts-upgradeable/utils/PausableUpgradeable.sol\":2783:2802  _getPausableStorage */\n      tag_201\n        /* \"@openzeppelin/contracts-upgradeable/utils/PausableUpgradeable.sol\":2783:2804  _getPausableStorage() */\n      jump\t// in\n    tag_200:\n        /* \"@openzeppelin/contracts-upgradeable/utils/PausableUpgradeable.sol\":2755:2804  PausableStorage storage $ = _getPausableStorage() */\n      swap1\n      pop\n        /* \"@openzeppelin/contracts-upgradeable/utils/PausableUpgradeable.sol\":2821:2822  $ */\n      dup1\n        /* \"@openzeppelin/contracts-upgradeable/utils/PausableUpgradeable.sol\":2821:2830  $._paused */\n      0x00\n      add\n      0x00\n      swap1\n      sload\n      swap1\n      0x0100\n      exp\n      swap1\n      div\n      0xff\n      and\n        /* \"@openzeppelin/contracts-upgradeable/utils/PausableUpgradeable.sol\":2814:2830  return $._paused */\n      swap2\n      pop\n      pop\n        /* \"@openzeppelin/contracts-upgradeable/utils/PausableUpgradeable.sol\":2692:2837  function paused() public view virtual returns (bool) {... */\n      swap1\n      jump\t// out\n        /* \"contracts/Bond3.sol\":5333:5438  function testSendFunds(uint256 _amount) external {... */\n    tag_82:\n        /* \"contracts/Bond3.sol\":5410:5420  msg.sender */\n      caller\n        /* \"contracts/Bond3.sol\":5398:5430  RequestSent(msg.sender, _amount) */\n      0xffffffffffffffffffffffffffffffffffffffff\n      and\n      0x0c27e43af6588b65dccc4465720ef720b7cf45f5fba352df8607ae1cfea9089b\n        /* \"contracts/Bond3.sol\":5422:5429  _amount */\n      dup3\n        /* \"contracts/Bond3.sol\":5398:5430  RequestSent(msg.sender, _amount) */\n      mload(0x40)\n      tag_203\n      swap2\n      swap1\n      tag_204\n      jump\t// in\n    tag_203:\n      mload(0x40)\n      dup1\n      swap2\n      sub\n      swap1\n      log2\n        /* \"contracts/Bond3.sol\":5333:5438  function testSendFunds(uint256 _amount) external {... */\n      pop\n      jump\t// out\n        /* \"contracts/Bond3.sol\":3861:4400  function performSettlement(... */\n    tag_87:\n        /* \"contracts/Bond3.sol\":4024:4025  0 */\n      0x00\n        /* \"contracts/Bond3.sol\":4006:4014  tradeIds */\n      0x01\n        /* \"contracts/Bond3.sol\":4006:4021  tradeIds.length */\n      dup1\n      sload\n      swap1\n      pop\n        /* \"contracts/Bond3.sol\":4006:4025  tradeIds.length > 0 */\n      gt\n        /* \"contracts/Bond3.sol\":3998:4049  require(tradeIds.length > 0, \"No trades available\") */\n      tag_206\n      jumpi\n      mload(0x40)\n      0x08c379a000000000000000000000000000000000000000000000000000000000\n      dup2\n      mstore\n      0x04\n      add\n      tag_207\n      swap1\n      tag_208\n      jump\t// in\n    tag_207:\n      mload(0x40)\n      dup1\n      swap2\n      sub\n      swap1\n      revert\n    tag_206:\n        /* \"contracts/Bond3.sol\":4060:4081  string memory tradeId */\n      0x00\n        /* \"contracts/Bond3.sol\":4084:4092  tradeIds */\n      0x01\n        /* \"contracts/Bond3.sol\":4111:4112  1 */\n      dup1\n        /* \"contracts/Bond3.sol\":4093:4101  tradeIds */\n      dup1\n        /* \"contracts/Bond3.sol\":4093:4108  tradeIds.length */\n      dup1\n      sload\n      swap1\n      pop\n        /* \"contracts/Bond3.sol\":4093:4112  tradeIds.length - 1 */\n      tag_209\n      swap2\n      swap1\n      tag_210\n      jump\t// in\n    tag_209:\n        /* \"contracts/Bond3.sol\":4084:4113  tradeIds[tradeIds.length - 1] */\n      dup2\n      sload\n      dup2\n      lt\n      tag_211\n      jumpi\n      tag_212\n      tag_213\n      jump\t// in\n    tag_212:\n    tag_211:\n      swap1\n      0x00\n      mstore\n      keccak256(0x00, 0x20)\n      add\n        /* \"contracts/Bond3.sol\":4060:4113  string memory tradeId = tradeIds[tradeIds.length - 1] */\n      dup1\n      sload\n      tag_215\n      swap1\n      tag_177\n      jump\t// in\n    tag_215:\n      dup1\n      0x1f\n      add\n      0x20\n      dup1\n      swap2\n      div\n      mul\n      0x20\n      add\n      mload(0x40)\n      swap1\n      dup2\n      add\n      0x40\n      mstore\n      dup1\n      swap3\n      swap2\n      swap1\n      dup2\n      dup2\n      mstore\n      0x20\n      add\n      dup3\n      dup1\n      sload\n      tag_216\n      swap1\n      tag_177\n      jump\t// in\n    tag_216:\n      dup1\n      iszero\n      tag_217\n      jumpi\n      dup1\n      0x1f\n      lt\n      tag_218\n      jumpi\n      0x0100\n      dup1\n      dup4\n      sload\n      div\n      mul\n      dup4\n      mstore\n      swap2\n      0x20\n      add\n      swap2\n      jump(tag_217)\n    tag_218:\n      dup3\n      add\n      swap2\n      swap1\n      0x00\n      mstore\n      keccak256(0x00, 0x20)\n      swap1\n    tag_219:\n      dup2\n      sload\n      dup2\n      mstore\n      swap1\n      0x01\n      add\n      swap1\n      0x20\n      add\n      dup1\n      dup4\n      gt\n      tag_219\n      jumpi\n      dup3\n      swap1\n      sub\n      0x1f\n      and\n      dup3\n      add\n      swap2\n    tag_217:\n      pop\n      pop\n      pop\n      pop\n      pop\n      swap1\n      pop\n        /* \"contracts/Bond3.sol\":4132:4138  trades */\n      0x00\n        /* \"contracts/Bond3.sol\":4139:4146  tradeId */\n      dup2\n        /* \"contracts/Bond3.sol\":4132:4147  trades[tradeId] */\n      mload(0x40)\n      tag_220\n      swap2\n      swap1\n      tag_221\n      jump\t// in\n    tag_220:\n      swap1\n      dup2\n      mstore\n      0x20\n      add\n      mload(0x40)\n      dup1\n      swap2\n      sub\n      swap1\n      keccak256\n        /* \"contracts/Bond3.sol\":4132:4157  trades[tradeId].confirmed */\n      0x06\n      add\n      0x00\n      swap1\n      sload\n      swap1\n      0x0100\n      exp\n      swap1\n      div\n      0xff\n      and\n        /* \"contracts/Bond3.sol\":4124:4181  require(trades[tradeId].confirmed, \"Trade not confirmed\") */\n      tag_222\n      jumpi\n      mload(0x40)\n      0x08c379a000000000000000000000000000000000000000000000000000000000\n      dup2\n      mstore\n      0x04\n      add\n      tag_223\n      swap1\n      tag_224\n      jump\t// in\n    tag_223:\n      mload(0x40)\n      dup1\n      swap2\n      sub\n      swap1\n      revert\n    tag_222:\n        /* \"contracts/Bond3.sol\":4291:4295  true */\n      0x01\n        /* \"contracts/Bond3.sol\":4265:4271  trades */\n      0x00\n        /* \"contracts/Bond3.sol\":4272:4279  tradeId */\n      dup3\n        /* \"contracts/Bond3.sol\":4265:4280  trades[tradeId] */\n      mload(0x40)\n      tag_225\n      swap2\n      swap1\n      tag_221\n      jump\t// in\n    tag_225:\n      swap1\n      dup2\n      mstore\n      0x20\n      add\n      mload(0x40)\n      dup1\n      swap2\n      sub\n      swap1\n      keccak256\n        /* \"contracts/Bond3.sol\":4265:4288  trades[tradeId].settled */\n      0x06\n      add\n      0x01\n        /* \"contracts/Bond3.sol\":4265:4295  trades[tradeId].settled = true */\n      0x0100\n      exp\n      dup2\n      sload\n      dup2\n      0xff\n      mul\n      not\n      and\n      swap1\n      dup4\n      iszero\n      iszero\n      mul\n      or\n      swap1\n      sstore\n      pop\n        /* \"contracts/Bond3.sol\":4338:4354  settlementAmount */\n      dup3\n        /* \"contracts/Bond3.sol\":4306:4312  trades */\n      0x00\n        /* \"contracts/Bond3.sol\":4313:4320  tradeId */\n      dup3\n        /* \"contracts/Bond3.sol\":4306:4321  trades[tradeId] */\n      mload(0x40)\n      tag_226\n      swap2\n      swap1\n      tag_221\n      jump\t// in\n    tag_226:\n      swap1\n      dup2\n      mstore\n      0x20\n      add\n      mload(0x40)\n      dup1\n      swap2\n      sub\n      swap1\n      keccak256\n        /* \"contracts/Bond3.sol\":4306:4335  trades[tradeId].paymentAmount */\n      0x04\n      add\n        /* \"contracts/Bond3.sol\":4306:4354  trades[tradeId].paymentAmount = settlementAmount */\n      dup2\n      swap1\n      sstore\n      pop\n        /* \"contracts/Bond3.sol\":4370:4392  TradeSettlementPhase() */\n      0x4145167a2ecc3424513c83e72c2d0e4a94f423754b82af0bdeaf9fd0f7a174b7\n      mload(0x40)\n      mload(0x40)\n      dup1\n      swap2\n      sub\n      swap1\n      log1\n        /* \"contracts/Bond3.sol\":3987:4400  {... */\n      pop\n        /* \"contracts/Bond3.sol\":3861:4400  function performSettlement(... */\n      pop\n      pop\n      jump\t// out\n        /* \"contracts/Bond3.sol\":4593:4950  function requestTradeTermination(... */\n    tag_92:\n        /* \"contracts/Bond3.sol\":4769:4779  msg.sender */\n      caller\n        /* \"contracts/Bond3.sol\":4740:4779  trades[tradeId].initiator == msg.sender */\n      0xffffffffffffffffffffffffffffffffffffffff\n      and\n        /* \"contracts/Bond3.sol\":4740:4746  trades */\n      0x00\n        /* \"contracts/Bond3.sol\":4747:4754  tradeId */\n      dup4\n        /* \"contracts/Bond3.sol\":4740:4755  trades[tradeId] */\n      mload(0x40)\n      tag_228\n      swap2\n      swap1\n      tag_221\n      jump\t// in\n    tag_228:\n      swap1\n      dup2\n      mstore\n      0x20\n      add\n      mload(0x40)\n      dup1\n      swap2\n      sub\n      swap1\n      keccak256\n        /* \"contracts/Bond3.sol\":4740:4765  trades[tradeId].initiator */\n      0x00\n      add\n      0x00\n      swap1\n      sload\n      swap1\n      0x0100\n      exp\n      swap1\n      div\n      0xffffffffffffffffffffffffffffffffffffffff\n      and\n        /* \"contracts/Bond3.sol\":4740:4779  trades[tradeId].initiator == msg.sender */\n      0xffffffffffffffffffffffffffffffffffffffff\n      and\n      eq\n        /* \"contracts/Bond3.sol\":4732:4801  require(trades[tradeId].initiator == msg.sender, \"Not the initiator\") */\n      tag_229\n      jumpi\n      mload(0x40)\n      0x08c379a000000000000000000000000000000000000000000000000000000000\n      dup2\n      mstore\n      0x04\n      add\n      tag_230\n      swap1\n      tag_231\n      jump\t// in\n    tag_230:\n      mload(0x40)\n      dup1\n      swap2\n      sub\n      swap1\n      revert\n    tag_229:\n        /* \"contracts/Bond3.sol\":4838:4842  true */\n      0x01\n        /* \"contracts/Bond3.sol\":4812:4818  trades */\n      0x00\n        /* \"contracts/Bond3.sol\":4819:4826  tradeId */\n      dup4\n        /* \"contracts/Bond3.sol\":4812:4827  trades[tradeId] */\n      mload(0x40)\n      tag_232\n      swap2\n      swap1\n      tag_221\n      jump\t// in\n    tag_232:\n      swap1\n      dup2\n      mstore\n      0x20\n      add\n      mload(0x40)\n      dup1\n      swap2\n      sub\n      swap1\n      keccak256\n        /* \"contracts/Bond3.sol\":4812:4835  trades[tradeId].settled */\n      0x06\n      add\n      0x01\n        /* \"contracts/Bond3.sol\":4812:4842  trades[tradeId].settled = true */\n      0x0100\n      exp\n      dup2\n      sload\n      dup2\n      0xff\n      mul\n      not\n      and\n      swap1\n      dup4\n      iszero\n      iszero\n      mul\n      or\n      swap1\n      sstore\n      pop\n        /* \"contracts/Bond3.sol\":4885:4904  _terminationPayment */\n      dup1\n        /* \"contracts/Bond3.sol\":4853:4859  trades */\n      0x00\n        /* \"contracts/Bond3.sol\":4860:4867  tradeId */\n      dup4\n        /* \"contracts/Bond3.sol\":4853:4868  trades[tradeId] */\n      mload(0x40)\n      tag_233\n      swap2\n      swap1\n      tag_221\n      jump\t// in\n    tag_233:\n      swap1\n      dup2\n      mstore\n      0x20\n      add\n      mload(0x40)\n      dup1\n      swap2\n      sub\n      swap1\n      keccak256\n        /* \"contracts/Bond3.sol\":4853:4882  trades[tradeId].paymentAmount */\n      0x04\n      add\n        /* \"contracts/Bond3.sol\":4853:4904  trades[tradeId].paymentAmount = _terminationPayment */\n      dup2\n      swap1\n      sstore\n      pop\n        /* \"contracts/Bond3.sol\":4920:4942  TradeSettlementPhase() */\n      0x4145167a2ecc3424513c83e72c2d0e4a94f423754b82af0bdeaf9fd0f7a174b7\n      mload(0x40)\n      mload(0x40)\n      dup1\n      swap2\n      sub\n      swap1\n      log1\n        /* \"contracts/Bond3.sol\":4593:4950  function requestTradeTermination(... */\n      pop\n      pop\n      jump\t// out\n        /* \"contracts/Bond3.sol\":4962:5325  function confirmTradeTermination(... */\n    tag_96:\n        /* \"contracts/Bond3.sol\":5141:5151  msg.sender */\n      caller\n        /* \"contracts/Bond3.sol\":5109:5151  trades[tradeId].counterparty == msg.sender */\n      0xffffffffffffffffffffffffffffffffffffffff\n      and\n        /* \"contracts/Bond3.sol\":5109:5115  trades */\n      0x00\n        /* \"contracts/Bond3.sol\":5116:5123  tradeId */\n      dup4\n        /* \"contracts/Bond3.sol\":5109:5124  trades[tradeId] */\n      mload(0x40)\n      tag_235\n      swap2\n      swap1\n      tag_221\n      jump\t// in\n    tag_235:\n      swap1\n      dup2\n      mstore\n      0x20\n      add\n      mload(0x40)\n      dup1\n      swap2\n      sub\n      swap1\n      keccak256\n        /* \"contracts/Bond3.sol\":5109:5137  trades[tradeId].counterparty */\n      0x01\n      add\n      0x00\n      swap1\n      sload\n      swap1\n      0x0100\n      exp\n      swap1\n      div\n      0xffffffffffffffffffffffffffffffffffffffff\n      and\n        /* \"contracts/Bond3.sol\":5109:5151  trades[tradeId].counterparty == msg.sender */\n      0xffffffffffffffffffffffffffffffffffffffff\n      and\n      eq\n        /* \"contracts/Bond3.sol\":5101:5176  require(trades[tradeId].counterparty == msg.sender, \"Not the counterparty\") */\n      tag_236\n      jumpi\n      mload(0x40)\n      0x08c379a000000000000000000000000000000000000000000000000000000000\n      dup2\n      mstore\n      0x04\n      add\n      tag_237\n      swap1\n      tag_238\n      jump\t// in\n    tag_237:\n      mload(0x40)\n      dup1\n      swap2\n      sub\n      swap1\n      revert\n    tag_236:\n        /* \"contracts/Bond3.sol\":5213:5217  true */\n      0x01\n        /* \"contracts/Bond3.sol\":5187:5193  trades */\n      0x00\n        /* \"contracts/Bond3.sol\":5194:5201  tradeId */\n      dup4\n        /* \"contracts/Bond3.sol\":5187:5202  trades[tradeId] */\n      mload(0x40)\n      tag_239\n      swap2\n      swap1\n      tag_221\n      jump\t// in\n    tag_239:\n      swap1\n      dup2\n      mstore\n      0x20\n      add\n      mload(0x40)\n      dup1\n      swap2\n      sub\n      swap1\n      keccak256\n        /* \"contracts/Bond3.sol\":5187:5210  trades[tradeId].settled */\n      0x06\n      add\n      0x01\n        /* \"contracts/Bond3.sol\":5187:5217  trades[tradeId].settled = true */\n      0x0100\n      exp\n      dup2\n      sload\n      dup2\n      0xff\n      mul\n      not\n      and\n      swap1\n      dup4\n      iszero\n      iszero\n      mul\n      or\n      swap1\n      sstore\n      pop\n        /* \"contracts/Bond3.sol\":5260:5279  _terminationPayment */\n      dup1\n        /* \"contracts/Bond3.sol\":5228:5234  trades */\n      0x00\n        /* \"contracts/Bond3.sol\":5235:5242  tradeId */\n      dup4\n        /* \"contracts/Bond3.sol\":5228:5243  trades[tradeId] */\n      mload(0x40)\n      tag_240\n      swap2\n      swap1\n      tag_221\n      jump\t// in\n    tag_240:\n      swap1\n      dup2\n      mstore\n      0x20\n      add\n      mload(0x40)\n      dup1\n      swap2\n      sub\n      swap1\n      keccak256\n        /* \"contracts/Bond3.sol\":5228:5257  trades[tradeId].paymentAmount */\n      0x04\n      add\n        /* \"contracts/Bond3.sol\":5228:5279  trades[tradeId].paymentAmount = _terminationPayment */\n      dup2\n      swap1\n      sstore\n      pop\n        /* \"contracts/Bond3.sol\":5295:5317  TradeSettlementPhase() */\n      0x4145167a2ecc3424513c83e72c2d0e4a94f423754b82af0bdeaf9fd0f7a174b7\n      mload(0x40)\n      mload(0x40)\n      dup1\n      swap2\n      sub\n      swap1\n      log1\n        /* \"contracts/Bond3.sol\":4962:5325  function confirmTradeTermination(... */\n      pop\n      pop\n      jump\t// out\n        /* \"contracts/Bond3.sol\":1295:1603  function initialize()... */\n    tag_99:\n        /* \"@openzeppelin/contracts-upgradeable/proxy/utils/Initializable.sol\":4158:4188  InitializableStorage storage $ */\n      0x00\n        /* \"@openzeppelin/contracts-upgradeable/proxy/utils/Initializable.sol\":4191:4217  _getInitializableStorage() */\n      tag_242\n        /* \"@openzeppelin/contracts-upgradeable/proxy/utils/Initializable.sol\":4191:4215  _getInitializableStorage */\n      tag_243\n        /* \"@openzeppelin/contracts-upgradeable/proxy/utils/Initializable.sol\":4191:4217  _getInitializableStorage() */\n      jump\t// in\n    tag_242:\n        /* \"@openzeppelin/contracts-upgradeable/proxy/utils/Initializable.sol\":4158:4217  InitializableStorage storage $ = _getInitializableStorage() */\n      swap1\n      pop\n        /* \"@openzeppelin/contracts-upgradeable/proxy/utils/Initializable.sol\":4279:4298  bool isTopLevelCall */\n      0x00\n        /* \"@openzeppelin/contracts-upgradeable/proxy/utils/Initializable.sol\":4302:4303  $ */\n      dup2\n        /* \"@openzeppelin/contracts-upgradeable/proxy/utils/Initializable.sol\":4302:4317  $._initializing */\n      0x00\n      add\n      0x08\n      swap1\n      sload\n      swap1\n      0x0100\n      exp\n      swap1\n      div\n      0xff\n      and\n        /* \"@openzeppelin/contracts-upgradeable/proxy/utils/Initializable.sol\":4301:4317  !$._initializing */\n      iszero\n        /* \"@openzeppelin/contracts-upgradeable/proxy/utils/Initializable.sol\":4279:4317  bool isTopLevelCall = !$._initializing */\n      swap1\n      pop\n        /* \"@openzeppelin/contracts-upgradeable/proxy/utils/Initializable.sol\":4327:4345  uint64 initialized */\n      0x00\n        /* \"@openzeppelin/contracts-upgradeable/proxy/utils/Initializable.sol\":4348:4349  $ */\n      dup3\n        /* \"@openzeppelin/contracts-upgradeable/proxy/utils/Initializable.sol\":4348:4362  $._initialized */\n      0x00\n      add\n      0x00\n      swap1\n      sload\n      swap1\n      0x0100\n      exp\n      swap1\n      div\n      0xffffffffffffffff\n      and\n        /* \"@openzeppelin/contracts-upgradeable/proxy/utils/Initializable.sol\":4327:4362  uint64 initialized = $._initialized */\n      swap1\n      pop\n        /* \"@openzeppelin/contracts-upgradeable/proxy/utils/Initializable.sol\":4706:4723  bool initialSetup */\n      0x00\n        /* \"@openzeppelin/contracts-upgradeable/proxy/utils/Initializable.sol\":4741:4742  0 */\n      dup1\n        /* \"@openzeppelin/contracts-upgradeable/proxy/utils/Initializable.sol\":4726:4737  initialized */\n      dup3\n        /* \"@openzeppelin/contracts-upgradeable/proxy/utils/Initializable.sol\":4726:4742  initialized == 0 */\n      0xffffffffffffffff\n      and\n      eq\n        /* \"@openzeppelin/contracts-upgradeable/proxy/utils/Initializable.sol\":4726:4760  initialized == 0 && isTopLevelCall */\n      dup1\n      iszero\n      tag_244\n      jumpi\n      pop\n        /* \"@openzeppelin/contracts-upgradeable/proxy/utils/Initializable.sol\":4746:4760  isTopLevelCall */\n      dup3\n        /* \"@openzeppelin/contracts-upgradeable/proxy/utils/Initializable.sol\":4726:4760  initialized == 0 && isTopLevelCall */\n    tag_244:\n        /* \"@openzeppelin/contracts-upgradeable/proxy/utils/Initializable.sol\":4706:4760  bool initialSetup = initialized == 0 && isTopLevelCall */\n      swap1\n      pop\n        /* \"@openzeppelin/contracts-upgradeable/proxy/utils/Initializable.sol\":4770:4787  bool construction */\n      0x00\n        /* \"@openzeppelin/contracts-upgradeable/proxy/utils/Initializable.sol\":4805:4806  1 */\n      0x01\n        /* \"@openzeppelin/contracts-upgradeable/proxy/utils/Initializable.sol\":4790:4801  initialized */\n      dup4\n        /* \"@openzeppelin/contracts-upgradeable/proxy/utils/Initializable.sol\":4790:4806  initialized == 1 */\n      0xffffffffffffffff\n      and\n      eq\n        /* \"@openzeppelin/contracts-upgradeable/proxy/utils/Initializable.sol\":4790:4840  initialized == 1 && address(this).code.length == 0 */\n      dup1\n      iszero\n      tag_245\n      jumpi\n      pop\n        /* \"@openzeppelin/contracts-upgradeable/proxy/utils/Initializable.sol\":4839:4840  0 */\n      0x00\n        /* \"@openzeppelin/contracts-upgradeable/proxy/utils/Initializable.sol\":4818:4822  this */\n      address\n        /* \"@openzeppelin/contracts-upgradeable/proxy/utils/Initializable.sol\":4810:4835  address(this).code.length */\n      0xffffffffffffffffffffffffffffffffffffffff\n      and\n      extcodesize\n        /* \"@openzeppelin/contracts-upgradeable/proxy/utils/Initializable.sol\":4810:4840  address(this).code.length == 0 */\n      eq\n        /* \"@openzeppelin/contracts-upgradeable/proxy/utils/Initializable.sol\":4790:4840  initialized == 1 && address(this).code.length == 0 */\n    tag_245:\n        /* \"@openzeppelin/contracts-upgradeable/proxy/utils/Initializable.sol\":4770:4840  bool construction = initialized == 1 && address(this).code.length == 0 */\n      swap1\n      pop\n        /* \"@openzeppelin/contracts-upgradeable/proxy/utils/Initializable.sol\":4856:4868  initialSetup */\n      dup2\n        /* \"@openzeppelin/contracts-upgradeable/proxy/utils/Initializable.sol\":4855:4868  !initialSetup */\n      iszero\n        /* \"@openzeppelin/contracts-upgradeable/proxy/utils/Initializable.sol\":4855:4885  !initialSetup && !construction */\n      dup1\n      iszero\n      tag_246\n      jumpi\n      pop\n        /* \"@openzeppelin/contracts-upgradeable/proxy/utils/Initializable.sol\":4873:4885  construction */\n      dup1\n        /* \"@openzeppelin/contracts-upgradeable/proxy/utils/Initializable.sol\":4872:4885  !construction */\n      iszero\n        /* \"@openzeppelin/contracts-upgradeable/proxy/utils/Initializable.sol\":4855:4885  !initialSetup && !construction */\n    tag_246:\n        /* \"@openzeppelin/contracts-upgradeable/proxy/utils/Initializable.sol\":4851:4942  if (!initialSetup && !construction) {... */\n      iszero\n      tag_247\n      jumpi\n        /* \"@openzeppelin/contracts-upgradeable/proxy/utils/Initializable.sol\":4908:4931  InvalidInitialization() */\n      mload(0x40)\n      0xf92ee8a900000000000000000000000000000000000000000000000000000000\n      dup2\n      mstore\n      0x04\n      add\n      mload(0x40)\n      dup1\n      swap2\n      sub\n      swap1\n      revert\n        /* \"@openzeppelin/contracts-upgradeable/proxy/utils/Initializable.sol\":4851:4942  if (!initialSetup && !construction) {... */\n    tag_247:\n        /* \"@openzeppelin/contracts-upgradeable/proxy/utils/Initializable.sol\":4968:4969  1 */\n      0x01\n        /* \"@openzeppelin/contracts-upgradeable/proxy/utils/Initializable.sol\":4951:4952  $ */\n      dup6\n        /* \"@openzeppelin/contracts-upgradeable/proxy/utils/Initializable.sol\":4951:4965  $._initialized */\n      0x00\n      add\n      0x00\n        /* \"@openzeppelin/contracts-upgradeable/proxy/utils/Initializable.sol\":4951:4969  $._initialized = 1 */\n      0x0100\n      exp\n      dup2\n      sload\n      dup2\n      0xffffffffffffffff\n      mul\n      not\n      and\n      swap1\n      dup4\n      0xffffffffffffffff\n      and\n      mul\n      or\n      swap1\n      sstore\n      pop\n        /* \"@openzeppelin/contracts-upgradeable/proxy/utils/Initializable.sol\":4983:4997  isTopLevelCall */\n      dup4\n        /* \"@openzeppelin/contracts-upgradeable/proxy/utils/Initializable.sol\":4979:5046  if (isTopLevelCall) {... */\n      iszero\n      tag_248\n      jumpi\n        /* \"@openzeppelin/contracts-upgradeable/proxy/utils/Initializable.sol\":5031:5035  true */\n      0x01\n        /* \"@openzeppelin/contracts-upgradeable/proxy/utils/Initializable.sol\":5013:5014  $ */\n      dup6\n        /* \"@openzeppelin/contracts-upgradeable/proxy/utils/Initializable.sol\":5013:5028  $._initializing */\n      0x00\n      add\n      0x08\n        /* \"@openzeppelin/contracts-upgradeable/proxy/utils/Initializable.sol\":5013:5035  $._initializing = true */\n      0x0100\n      exp\n      dup2\n      sload\n      dup2\n      0xff\n      mul\n      not\n      and\n      swap1\n      dup4\n      iszero\n      iszero\n      mul\n      or\n      swap1\n      sstore\n      pop\n        /* \"@openzeppelin/contracts-upgradeable/proxy/utils/Initializable.sol\":4979:5046  if (isTopLevelCall) {... */\n    tag_248:\n        /* \"contracts/Bond3.sol\":1361:1378  __Pausable_init() */\n      tag_250\n        /* \"contracts/Bond3.sol\":1361:1376  __Pausable_init */\n      tag_251\n        /* \"contracts/Bond3.sol\":1361:1378  __Pausable_init() */\n      jump\t// in\n    tag_250:\n        /* \"contracts/Bond3.sol\":1389:1411  __AccessControl_init() */\n      tag_252\n        /* \"contracts/Bond3.sol\":1389:1409  __AccessControl_init */\n      tag_253\n        /* \"contracts/Bond3.sol\":1389:1411  __AccessControl_init() */\n      jump\t// in\n    tag_252:\n        /* \"contracts/Bond3.sol\":1422:1446  __UUPSUpgradeable_init() */\n      tag_254\n        /* \"contracts/Bond3.sol\":1422:1444  __UUPSUpgradeable_init */\n      tag_255\n        /* \"contracts/Bond3.sol\":1422:1446  __UUPSUpgradeable_init() */\n      jump\t// in\n    tag_254:\n        /* \"contracts/Bond3.sol\":1459:1501  _grantRole(DEFAULT_ADMIN_ROLE, msg.sender) */\n      tag_256\n        /* \"@openzeppelin/contracts-upgradeable/access/AccessControlUpgradeable.sol\":2362:2366  0x00 */\n      0x00\n        /* \"contracts/Bond3.sol\":1470:1488  DEFAULT_ADMIN_ROLE */\n      dup1\n      shl\n        /* \"contracts/Bond3.sol\":1490:1500  msg.sender */\n      caller\n        /* \"contracts/Bond3.sol\":1459:1469  _grantRole */\n      tag_164\n        /* \"contracts/Bond3.sol\":1459:1501  _grantRole(DEFAULT_ADMIN_ROLE, msg.sender) */\n      jump\t// in\n    tag_256:\n      pop\n        /* \"contracts/Bond3.sol\":1512:1547  _grantRole(PAUSER_ROLE, msg.sender) */\n      tag_257\n        /* \"contracts/Bond3.sol\":977:1001  keccak256(\"PAUSER_ROLE\") */\n      0x65d7a28e3265b37a6474929f336521b332c1681b933f6cb9f3376673440d862a\n        /* \"contracts/Bond3.sol\":1536:1546  msg.sender */\n      caller\n        /* \"contracts/Bond3.sol\":1512:1522  _grantRole */\n      tag_164\n        /* \"contracts/Bond3.sol\":1512:1547  _grantRole(PAUSER_ROLE, msg.sender) */\n      jump\t// in\n    tag_257:\n      pop\n        /* \"contracts/Bond3.sol\":1558:1595  _grantRole(UPGRADER_ROLE, msg.sender) */\n      tag_258\n        /* \"contracts/Bond3.sol\":1048:1074  keccak256(\"UPGRADER_ROLE\") */\n      0x189ab7a9244df0848122154315af71fe140f3db0fe014031783b0946b8c9d2e3\n        /* \"contracts/Bond3.sol\":1584:1594  msg.sender */\n      caller\n        /* \"contracts/Bond3.sol\":1558:1568  _grantRole */\n      tag_164\n        /* \"contracts/Bond3.sol\":1558:1595  _grantRole(UPGRADER_ROLE, msg.sender) */\n      jump\t// in\n    tag_258:\n      pop\n        /* \"@openzeppelin/contracts-upgradeable/proxy/utils/Initializable.sol\":5070:5084  isTopLevelCall */\n      dup4\n        /* \"@openzeppelin/contracts-upgradeable/proxy/utils/Initializable.sol\":5066:5167  if (isTopLevelCall) {... */\n      iszero\n      tag_259\n      jumpi\n        /* \"@openzeppelin/contracts-upgradeable/proxy/utils/Initializable.sol\":5118:5123  false */\n      0x00\n        /* \"@openzeppelin/contracts-upgradeable/proxy/utils/Initializable.sol\":5100:5101  $ */\n      dup6\n        /* \"@openzeppelin/contracts-upgradeable/proxy/utils/Initializable.sol\":5100:5115  $._initializing */\n      0x00\n      add\n      0x08\n        /* \"@openzeppelin/contracts-upgradeable/proxy/utils/Initializable.sol\":5100:5123  $._initializing = false */\n      0x0100\n      exp\n      dup2\n      sload\n      dup2\n      0xff\n      mul\n      not\n      and\n      swap1\n      dup4\n      iszero\n      iszero\n      mul\n      or\n      swap1\n      sstore\n      pop\n        /* \"@openzeppelin/contracts-upgradeable/proxy/utils/Initializable.sol\":5142:5156  Initialized(1) */\n      0xc7f505b2f371ae2175ee4913f4499e1f2633a7b5936321eed1cdaeb6115181d2\n        /* \"@openzeppelin/contracts-upgradeable/proxy/utils/Initializable.sol\":5154:5155  1 */\n      0x01\n        /* \"@openzeppelin/contracts-upgradeable/proxy/utils/Initializable.sol\":5142:5156  Initialized(1) */\n      mload(0x40)\n      tag_260\n      swap2\n      swap1\n      tag_261\n      jump\t// in\n    tag_260:\n      mload(0x40)\n      dup1\n      swap2\n      sub\n      swap1\n      log1\n        /* \"@openzeppelin/contracts-upgradeable/proxy/utils/Initializable.sol\":5066:5167  if (isTopLevelCall) {... */\n    tag_259:\n        /* \"@openzeppelin/contracts-upgradeable/proxy/utils/Initializable.sol\":4092:5173  {... */\n      pop\n      pop\n      pop\n      pop\n      pop\n        /* \"contracts/Bond3.sol\":1295:1603  function initialize()... */\n      jump\t// out\n        /* \"contracts/Bond3.sol\":1611:1684  function pause() public onlyRole(PAUSER_ROLE) {... */\n    tag_102:\n        /* \"contracts/Bond3.sol\":977:1001  keccak256(\"PAUSER_ROLE\") */\n      0x65d7a28e3265b37a6474929f336521b332c1681b933f6cb9f3376673440d862a\n        /* \"@openzeppelin/contracts-upgradeable/access/AccessControlUpgradeable.sol\":3191:3207  _checkRole(role) */\n      tag_263\n        /* \"@openzeppelin/contracts-upgradeable/access/AccessControlUpgradeable.sol\":3202:3206  role */\n      dup2\n        /* \"@openzeppelin/contracts-upgradeable/access/AccessControlUpgradeable.sol\":3191:3201  _checkRole */\n      tag_161\n        /* \"@openzeppelin/contracts-upgradeable/access/AccessControlUpgradeable.sol\":3191:3207  _checkRole(role) */\n      jump\t// in\n    tag_263:\n        /* \"contracts/Bond3.sol\":1668:1676  _pause() */\n      tag_265\n        /* \"contracts/Bond3.sol\":1668:1674  _pause */\n      tag_266\n        /* \"contracts/Bond3.sol\":1668:1676  _pause() */\n      jump\t// in\n    tag_265:\n        /* \"contracts/Bond3.sol\":1611:1684  function pause() public onlyRole(PAUSER_ROLE) {... */\n      pop\n      jump\t// out\n        /* \"contracts/Bond3.sol\":2898:3403  function confirmTrade(... */\n    tag_107:\n        /* \"contracts/Bond3.sol\":3127:3148  string memory tradeId */\n      0x00\n        /* \"contracts/Bond3.sol\":3175:3185  _tradeData */\n      dup5\n        /* \"contracts/Bond3.sol\":3187:3196  _position */\n      dup5\n        /* \"contracts/Bond3.sol\":3198:3213  block.timestamp */\n      timestamp\n        /* \"contracts/Bond3.sol\":3158:3214  abi.encodePacked(_tradeData, _position, block.timestamp) */\n      add(0x20, mload(0x40))\n      tag_268\n      swap4\n      swap3\n      swap2\n      swap1\n      tag_269\n      jump\t// in\n    tag_268:\n      mload(0x40)\n      0x20\n      dup2\n      dup4\n      sub\n      sub\n      dup2\n      mstore\n      swap1\n      0x40\n      mstore\n        /* \"contracts/Bond3.sol\":3127:3215  string memory tradeId = string(abi.encodePacked(_tradeData, _position, block.timestamp)) */\n      swap1\n      pop\n        /* \"contracts/Bond3.sol\":3266:3276  msg.sender */\n      caller\n        /* \"contracts/Bond3.sol\":3234:3276  trades[tradeId].counterparty == msg.sender */\n      0xffffffffffffffffffffffffffffffffffffffff\n      and\n        /* \"contracts/Bond3.sol\":3234:3240  trades */\n      0x00\n        /* \"contracts/Bond3.sol\":3241:3248  tradeId */\n      dup3\n        /* \"contracts/Bond3.sol\":3234:3249  trades[tradeId] */\n      mload(0x40)\n      tag_270\n      swap2\n      swap1\n      tag_221\n      jump\t// in\n    tag_270:\n      swap1\n      dup2\n      mstore\n      0x20\n      add\n      mload(0x40)\n      dup1\n      swap2\n      sub\n      swap1\n      keccak256\n        /* \"contracts/Bond3.sol\":3234:3262  trades[tradeId].counterparty */\n      0x01\n      add\n      0x00\n      swap1\n      sload\n      swap1\n      0x0100\n      exp\n      swap1\n      div\n      0xffffffffffffffffffffffffffffffffffffffff\n      and\n        /* \"contracts/Bond3.sol\":3234:3276  trades[tradeId].counterparty == msg.sender */\n      0xffffffffffffffffffffffffffffffffffffffff\n      and\n      eq\n        /* \"contracts/Bond3.sol\":3226:3301  require(trades[tradeId].counterparty == msg.sender, \"Not the counterparty\") */\n      tag_271\n      jumpi\n      mload(0x40)\n      0x08c379a000000000000000000000000000000000000000000000000000000000\n      dup2\n      mstore\n      0x04\n      add\n      tag_272\n      swap1\n      tag_238\n      jump\t// in\n    tag_272:\n      mload(0x40)\n      dup1\n      swap2\n      sub\n      swap1\n      revert\n    tag_271:\n        /* \"contracts/Bond3.sol\":3340:3344  true */\n      0x01\n        /* \"contracts/Bond3.sol\":3312:3318  trades */\n      0x00\n        /* \"contracts/Bond3.sol\":3319:3326  tradeId */\n      dup3\n        /* \"contracts/Bond3.sol\":3312:3327  trades[tradeId] */\n      mload(0x40)\n      tag_273\n      swap2\n      swap1\n      tag_221\n      jump\t// in\n    tag_273:\n      swap1\n      dup2\n      mstore\n      0x20\n      add\n      mload(0x40)\n      dup1\n      swap2\n      sub\n      swap1\n      keccak256\n        /* \"contracts/Bond3.sol\":3312:3337  trades[tradeId].confirmed */\n      0x06\n      add\n      0x00\n        /* \"contracts/Bond3.sol\":3312:3344  trades[tradeId].confirmed = true */\n      0x0100\n      exp\n      dup2\n      sload\n      dup2\n      0xff\n      mul\n      not\n      and\n      swap1\n      dup4\n      iszero\n      iszero\n      mul\n      or\n      swap1\n      sstore\n      pop\n        /* \"contracts/Bond3.sol\":3360:3395  TradeConfirmed(msg.sender, tradeId) */\n      0x02f9110550f3374364c85539074b740b7bfed285798d152502c5f2dfd745cf00\n        /* \"contracts/Bond3.sol\":3375:3385  msg.sender */\n      caller\n        /* \"contracts/Bond3.sol\":3387:3394  tradeId */\n      dup3\n        /* \"contracts/Bond3.sol\":3360:3395  TradeConfirmed(msg.sender, tradeId) */\n      mload(0x40)\n      tag_274\n      swap3\n      swap2\n      swap1\n      tag_275\n      jump\t// in\n    tag_274:\n      mload(0x40)\n      dup1\n      swap2\n      sub\n      swap1\n      log1\n        /* \"contracts/Bond3.sol\":3116:3403  {... */\n      pop\n        /* \"contracts/Bond3.sol\":2898:3403  function confirmTrade(... */\n      pop\n      pop\n      pop\n      pop\n      pop\n      jump\t// out\n        /* \"@openzeppelin/contracts-upgradeable/access/AccessControlUpgradeable.sol\":3732:3939  function hasRole(bytes32 role, address account) public view virtual returns (bool) {... */\n    tag_111:\n        /* \"@openzeppelin/contracts-upgradeable/access/AccessControlUpgradeable.sol\":3809:3813  bool */\n      0x00\n        /* \"@openzeppelin/contracts-upgradeable/access/AccessControlUpgradeable.sol\":3825:3855  AccessControlStorage storage $ */\n      dup1\n        /* \"@openzeppelin/contracts-upgradeable/access/AccessControlUpgradeable.sol\":3858:3884  _getAccessControlStorage() */\n      tag_277\n        /* \"@openzeppelin/contracts-upgradeable/access/AccessControlUpgradeable.sol\":3858:3882  _getAccessControlStorage */\n      tag_157\n        /* \"@openzeppelin/contracts-upgradeable/access/AccessControlUpgradeable.sol\":3858:3884  _getAccessControlStorage() */\n      jump\t// in\n    tag_277:\n        /* \"@openzeppelin/contracts-upgradeable/access/AccessControlUpgradeable.sol\":3825:3884  AccessControlStorage storage $ = _getAccessControlStorage() */\n      swap1\n      pop\n        /* \"@openzeppelin/contracts-upgradeable/access/AccessControlUpgradeable.sol\":3901:3902  $ */\n      dup1\n        /* \"@openzeppelin/contracts-upgradeable/access/AccessControlUpgradeable.sol\":3901:3909  $._roles */\n      0x00\n      add\n        /* \"@openzeppelin/contracts-upgradeable/access/AccessControlUpgradeable.sol\":3901:3915  $._roles[role] */\n      0x00\n        /* \"@openzeppelin/contracts-upgradeable/access/AccessControlUpgradeable.sol\":3910:3914  role */\n      dup6\n        /* \"@openzeppelin/contracts-upgradeable/access/AccessControlUpgradeable.sol\":3901:3915  $._roles[role] */\n      dup2\n      mstore\n      0x20\n      add\n      swap1\n      dup2\n      mstore\n      0x20\n      add\n      0x00\n      keccak256\n        /* \"@openzeppelin/contracts-upgradeable/access/AccessControlUpgradeable.sol\":3901:3923  $._roles[role].hasRole */\n      0x00\n      add\n        /* \"@openzeppelin/contracts-upgradeable/access/AccessControlUpgradeable.sol\":3901:3932  $._roles[role].hasRole[account] */\n      0x00\n        /* \"@openzeppelin/contracts-upgradeable/access/AccessControlUpgradeable.sol\":3924:3931  account */\n      dup5\n        /* \"@openzeppelin/contracts-upgradeable/access/AccessControlUpgradeable.sol\":3901:3932  $._roles[role].hasRole[account] */\n      0xffffffffffffffffffffffffffffffffffffffff\n      and\n      0xffffffffffffffffffffffffffffffffffffffff\n      and\n      dup2\n      mstore\n      0x20\n      add\n      swap1\n      dup2\n      mstore\n      0x20\n      add\n      0x00\n      keccak256\n      0x00\n      swap1\n      sload\n      swap1\n      0x0100\n      exp\n      swap1\n      div\n      0xff\n      and\n        /* \"@openzeppelin/contracts-upgradeable/access/AccessControlUpgradeable.sol\":3894:3932  return $._roles[role].hasRole[account] */\n      swap2\n      pop\n      pop\n        /* \"@openzeppelin/contracts-upgradeable/access/AccessControlUpgradeable.sol\":3732:3939  function hasRole(bytes32 role, address account) public view virtual returns (bool) {... */\n      swap3\n      swap2\n      pop\n      pop\n      jump\t// out\n        /* \"@openzeppelin/contracts-upgradeable/access/AccessControlUpgradeable.sol\":2317:2366  bytes32 public constant DEFAULT_ADMIN_ROLE = 0x00 */\n    tag_115:\n        /* \"@openzeppelin/contracts-upgradeable/access/AccessControlUpgradeable.sol\":2362:2366  0x00 */\n      0x00\n        /* \"@openzeppelin/contracts-upgradeable/access/AccessControlUpgradeable.sol\":2317:2366  bytes32 public constant DEFAULT_ADMIN_ROLE = 0x00 */\n      dup1\n      shl\n      dup2\n      jump\t// out\n        /* \"@openzeppelin/contracts-upgradeable/proxy/utils/UUPSUpgradeable.sol\":1819:1877  string public constant UPGRADE_INTERFACE_VERSION = \"5.0.0\" */\n    tag_119:\n      mload(0x40)\n      dup1\n      0x40\n      add\n      0x40\n      mstore\n      dup1\n      0x05\n      dup2\n      mstore\n      0x20\n      add\n      0x352e302e30000000000000000000000000000000000000000000000000000000\n      dup2\n      mstore\n      pop\n      dup2\n      jump\t// out\n        /* \"contracts/Bond3.sol\":3415:3849  function initiateSettlement() external override {... */\n    tag_124:\n        /* \"contracts/Bond3.sol\":3580:3581  0 */\n      0x00\n        /* \"contracts/Bond3.sol\":3562:3570  tradeIds */\n      0x01\n        /* \"contracts/Bond3.sol\":3562:3577  tradeIds.length */\n      dup1\n      sload\n      swap1\n      pop\n        /* \"contracts/Bond3.sol\":3562:3581  tradeIds.length > 0 */\n      gt\n        /* \"contracts/Bond3.sol\":3554:3605  require(tradeIds.length > 0, \"No trades available\") */\n      tag_279\n      jumpi\n      mload(0x40)\n      0x08c379a000000000000000000000000000000000000000000000000000000000\n      dup2\n      mstore\n      0x04\n      add\n      tag_280\n      swap1\n      tag_208\n      jump\t// in\n    tag_280:\n      mload(0x40)\n      dup1\n      swap2\n      sub\n      swap1\n      revert\n    tag_279:\n        /* \"contracts/Bond3.sol\":3616:3637  string memory tradeId */\n      0x00\n        /* \"contracts/Bond3.sol\":3640:3648  tradeIds */\n      0x01\n        /* \"contracts/Bond3.sol\":3667:3668  1 */\n      dup1\n        /* \"contracts/Bond3.sol\":3649:3657  tradeIds */\n      dup1\n        /* \"contracts/Bond3.sol\":3649:3664  tradeIds.length */\n      dup1\n      sload\n      swap1\n      pop\n        /* \"contracts/Bond3.sol\":3649:3668  tradeIds.length - 1 */\n      tag_281\n      swap2\n      swap1\n      tag_210\n      jump\t// in\n    tag_281:\n        /* \"contracts/Bond3.sol\":3640:3669  tradeIds[tradeIds.length - 1] */\n      dup2\n      sload\n      dup2\n      lt\n      tag_282\n      jumpi\n      tag_283\n      tag_213\n      jump\t// in\n    tag_283:\n    tag_282:\n      swap1\n      0x00\n      mstore\n      keccak256(0x00, 0x20)\n      add\n        /* \"contracts/Bond3.sol\":3616:3669  string memory tradeId = tradeIds[tradeIds.length - 1] */\n      dup1\n      sload\n      tag_285\n      swap1\n      tag_177\n      jump\t// in\n    tag_285:\n      dup1\n      0x1f\n      add\n      0x20\n      dup1\n      swap2\n      div\n      mul\n      0x20\n      add\n      mload(0x40)\n      swap1\n      dup2\n      add\n      0x40\n      mstore\n      dup1\n      swap3\n      swap2\n      swap1\n      dup2\n      dup2\n      mstore\n      0x20\n      add\n      dup3\n      dup1\n      sload\n      tag_286\n      swap1\n      tag_177\n      jump\t// in\n    tag_286:\n      dup1\n      iszero\n      tag_287\n      jumpi\n      dup1\n      0x1f\n      lt\n      tag_288\n      jumpi\n      0x0100\n      dup1\n      dup4\n      sload\n      div\n      mul\n      dup4\n      mstore\n      swap2\n      0x20\n      add\n      swap2\n      jump(tag_287)\n    tag_288:\n      dup3\n      add\n      swap2\n      swap1\n      0x00\n      mstore\n      keccak256(0x00, 0x20)\n      swap1\n    tag_289:\n      dup2\n      sload\n      dup2\n      mstore\n      swap1\n      0x01\n      add\n      swap1\n      0x20\n      add\n      dup1\n      dup4\n      gt\n      tag_289\n      jumpi\n      dup3\n      swap1\n      sub\n      0x1f\n      and\n      dup3\n      add\n      swap2\n    tag_287:\n      pop\n      pop\n      pop\n      pop\n      pop\n      swap1\n      pop\n        /* \"contracts/Bond3.sol\":3688:3694  trades */\n      0x00\n        /* \"contracts/Bond3.sol\":3695:3702  tradeId */\n      dup2\n        /* \"contracts/Bond3.sol\":3688:3703  trades[tradeId] */\n      mload(0x40)\n      tag_290\n      swap2\n      swap1\n      tag_221\n      jump\t// in\n    tag_290:\n      swap1\n      dup2\n      mstore\n      0x20\n      add\n      mload(0x40)\n      dup1\n      swap2\n      sub\n      swap1\n      keccak256\n        /* \"contracts/Bond3.sol\":3688:3713  trades[tradeId].confirmed */\n      0x06\n      add\n      0x00\n      swap1\n      sload\n      swap1\n      0x0100\n      exp\n      swap1\n      div\n      0xff\n      and\n        /* \"contracts/Bond3.sol\":3680:3737  require(trades[tradeId].confirmed, \"Trade not confirmed\") */\n      tag_291\n      jumpi\n      mload(0x40)\n      0x08c379a000000000000000000000000000000000000000000000000000000000\n      dup2\n      mstore\n      0x04\n      add\n      tag_292\n      swap1\n      tag_224\n      jump\t// in\n    tag_292:\n      mload(0x40)\n      dup1\n      swap2\n      sub\n      swap1\n      revert\n    tag_291:\n        /* \"contracts/Bond3.sol\":3753:3841  TradeSettlementRequest(trades[tradeId].tradeData, trades[tradeId].initialSettlementData) */\n      0xf31a94b3b4c854e5a4adea9f6082ab58856d3750c9a0182c2d9641bda7c09fc5\n        /* \"contracts/Bond3.sol\":3776:3782  trades */\n      0x00\n        /* \"contracts/Bond3.sol\":3783:3790  tradeId */\n      dup3\n        /* \"contracts/Bond3.sol\":3776:3791  trades[tradeId] */\n      mload(0x40)\n      tag_293\n      swap2\n      swap1\n      tag_221\n      jump\t// in\n    tag_293:\n      swap1\n      dup2\n      mstore\n      0x20\n      add\n      mload(0x40)\n      dup1\n      swap2\n      sub\n      swap1\n      keccak256\n        /* \"contracts/Bond3.sol\":3776:3801  trades[tradeId].tradeData */\n      0x02\n      add\n        /* \"contracts/Bond3.sol\":3803:3809  trades */\n      0x00\n        /* \"contracts/Bond3.sol\":3810:3817  tradeId */\n      dup4\n        /* \"contracts/Bond3.sol\":3803:3818  trades[tradeId] */\n      mload(0x40)\n      tag_294\n      swap2\n      swap1\n      tag_221\n      jump\t// in\n    tag_294:\n      swap1\n      dup2\n      mstore\n      0x20\n      add\n      mload(0x40)\n      dup1\n      swap2\n      sub\n      swap1\n      keccak256\n        /* \"contracts/Bond3.sol\":3803:3840  trades[tradeId].initialSettlementData */\n      0x05\n      add\n        /* \"contracts/Bond3.sol\":3753:3841  TradeSettlementRequest(trades[tradeId].tradeData, trades[tradeId].initialSettlementData) */\n      mload(0x40)\n      tag_295\n      swap3\n      swap2\n      swap1\n      tag_296\n      jump\t// in\n    tag_295:\n      mload(0x40)\n      dup1\n      swap2\n      sub\n      swap1\n      log1\n        /* \"contracts/Bond3.sol\":3463:3849  {... */\n      pop\n        /* \"contracts/Bond3.sol\":3415:3849  function initiateSettlement() external override {... */\n      jump\t// out\n        /* \"@openzeppelin/contracts-upgradeable/access/AccessControlUpgradeable.sol\":5662:5800  function revokeRole(bytes32 role, address account) public virtual onlyRole(getRoleAdmin(role)) {... */\n    tag_128:\n        /* \"@openzeppelin/contracts-upgradeable/access/AccessControlUpgradeable.sol\":5737:5755  getRoleAdmin(role) */\n      tag_297\n        /* \"@openzeppelin/contracts-upgradeable/access/AccessControlUpgradeable.sol\":5750:5754  role */\n      dup3\n        /* \"@openzeppelin/contracts-upgradeable/access/AccessControlUpgradeable.sol\":5737:5749  getRoleAdmin */\n      tag_44\n        /* \"@openzeppelin/contracts-upgradeable/access/AccessControlUpgradeable.sol\":5737:5755  getRoleAdmin(role) */\n      jump\t// in\n    tag_297:\n        /* \"@openzeppelin/contracts-upgradeable/access/AccessControlUpgradeable.sol\":3191:3207  _checkRole(role) */\n      tag_299\n        /* \"@openzeppelin/contracts-upgradeable/access/AccessControlUpgradeable.sol\":3202:3206  role */\n      dup2\n        /* \"@openzeppelin/contracts-upgradeable/access/AccessControlUpgradeable.sol\":3191:3201  _checkRole */\n      tag_161\n        /* \"@openzeppelin/contracts-upgradeable/access/AccessControlUpgradeable.sol\":3191:3207  _checkRole(role) */\n      jump\t// in\n    tag_299:\n        /* \"@openzeppelin/contracts-upgradeable/access/AccessControlUpgradeable.sol\":5767:5793  _revokeRole(role, account) */\n      tag_301\n        /* \"@openzeppelin/contracts-upgradeable/access/AccessControlUpgradeable.sol\":5779:5783  role */\n      dup4\n        /* \"@openzeppelin/contracts-upgradeable/access/AccessControlUpgradeable.sol\":5785:5792  account */\n      dup4\n        /* \"@openzeppelin/contracts-upgradeable/access/AccessControlUpgradeable.sol\":5767:5778  _revokeRole */\n      tag_170\n        /* \"@openzeppelin/contracts-upgradeable/access/AccessControlUpgradeable.sol\":5767:5793  _revokeRole(role, account) */\n      jump\t// in\n    tag_301:\n      pop\n        /* \"@openzeppelin/contracts-upgradeable/access/AccessControlUpgradeable.sol\":5662:5800  function revokeRole(bytes32 role, address account) public virtual onlyRole(getRoleAdmin(role)) {... */\n      pop\n      pop\n      pop\n      jump\t// out\n        /* \"contracts/Bond3.sol\":4412:4581  function afterTransfer(... */\n    tag_133:\n      pop\n      pop\n      jump\t// out\n        /* \"contracts/Bond3.sol\":939:1001  bytes32 public constant PAUSER_ROLE = keccak256(\"PAUSER_ROLE\") */\n    tag_136:\n        /* \"contracts/Bond3.sol\":977:1001  keccak256(\"PAUSER_ROLE\") */\n      0x65d7a28e3265b37a6474929f336521b332c1681b933f6cb9f3376673440d862a\n        /* \"contracts/Bond3.sol\":939:1001  bytes32 public constant PAUSER_ROLE = keccak256(\"PAUSER_ROLE\") */\n      dup2\n      jump\t// out\n        /* \"contracts/Bond3.sol\":1777:2886  function inceptTrade(... */\n    tag_141:\n        /* \"contracts/Bond3.sol\":2005:2026  string memory tradeId */\n      0x00\n        /* \"contracts/Bond3.sol\":2053:2063  _tradeData */\n      dup5\n        /* \"contracts/Bond3.sol\":2065:2074  _position */\n      dup5\n        /* \"contracts/Bond3.sol\":2076:2091  block.timestamp */\n      timestamp\n        /* \"contracts/Bond3.sol\":2036:2092  abi.encodePacked(_tradeData, _position, block.timestamp) */\n      add(0x20, mload(0x40))\n      tag_304\n      swap4\n      swap3\n      swap2\n      swap1\n      tag_269\n      jump\t// in\n    tag_304:\n      mload(0x40)\n      0x20\n      dup2\n      dup4\n      sub\n      sub\n      dup2\n      mstore\n      swap1\n      0x40\n      mstore\n        /* \"contracts/Bond3.sol\":2005:2093  string memory tradeId = string(abi.encodePacked(_tradeData, _position, block.timestamp)) */\n      swap1\n      pop\n        /* \"contracts/Bond3.sol\":2122:2449  Trade({... */\n      mload(0x40)\n      dup1\n      0x0100\n      add\n      0x40\n      mstore\n      dup1\n        /* \"contracts/Bond3.sol\":2154:2164  msg.sender */\n      caller\n        /* \"contracts/Bond3.sol\":2122:2449  Trade({... */\n      0xffffffffffffffffffffffffffffffffffffffff\n      and\n      dup2\n      mstore\n      0x20\n      add\n        /* \"contracts/Bond3.sol\":2193:2203  _withParty */\n      dup8\n        /* \"contracts/Bond3.sol\":2122:2449  Trade({... */\n      0xffffffffffffffffffffffffffffffffffffffff\n      and\n      dup2\n      mstore\n      0x20\n      add\n        /* \"contracts/Bond3.sol\":2229:2239  _tradeData */\n      dup7\n        /* \"contracts/Bond3.sol\":2122:2449  Trade({... */\n      dup2\n      mstore\n      0x20\n      add\n        /* \"contracts/Bond3.sol\":2264:2273  _position */\n      dup6\n        /* \"contracts/Bond3.sol\":2122:2449  Trade({... */\n      dup2\n      mstore\n      0x20\n      add\n        /* \"contracts/Bond3.sol\":2303:2317  _paymentAmount */\n      dup5\n        /* \"contracts/Bond3.sol\":2122:2449  Trade({... */\n      dup2\n      mstore\n      0x20\n      add\n        /* \"contracts/Bond3.sol\":2355:2377  _initialSettlementData */\n      dup4\n        /* \"contracts/Bond3.sol\":2122:2449  Trade({... */\n      dup2\n      mstore\n      0x20\n      add\n        /* \"contracts/Bond3.sol\":2403:2408  false */\n      0x00\n        /* \"contracts/Bond3.sol\":2122:2449  Trade({... */\n      iszero\n      iszero\n      dup2\n      mstore\n      0x20\n      add\n        /* \"contracts/Bond3.sol\":2432:2437  false */\n      0x00\n        /* \"contracts/Bond3.sol\":2122:2449  Trade({... */\n      iszero\n      iszero\n      dup2\n      mstore\n      pop\n        /* \"contracts/Bond3.sol\":2104:2110  trades */\n      0x00\n        /* \"contracts/Bond3.sol\":2111:2118  tradeId */\n      dup3\n        /* \"contracts/Bond3.sol\":2104:2119  trades[tradeId] */\n      mload(0x40)\n      tag_305\n      swap2\n      swap1\n      tag_221\n      jump\t// in\n    tag_305:\n      swap1\n      dup2\n      mstore\n      0x20\n      add\n      mload(0x40)\n      dup1\n      swap2\n      sub\n      swap1\n      keccak256\n        /* \"contracts/Bond3.sol\":2104:2449  trades[tradeId] = Trade({... */\n      0x00\n      dup3\n      add\n      mload\n      dup2\n      0x00\n      add\n      exp(0x0100, 0x00)\n      dup2\n      sload\n      dup2\n      0xffffffffffffffffffffffffffffffffffffffff\n      mul\n      not\n      and\n      swap1\n      dup4\n      0xffffffffffffffffffffffffffffffffffffffff\n      and\n      mul\n      or\n      swap1\n      sstore\n      pop\n      0x20\n      dup3\n      add\n      mload\n      dup2\n      0x01\n      add\n      exp(0x0100, 0x00)\n      dup2\n      sload\n      dup2\n      0xffffffffffffffffffffffffffffffffffffffff\n      mul\n      not\n      and\n      swap1\n      dup4\n      0xffffffffffffffffffffffffffffffffffffffff\n      and\n      mul\n      or\n      swap1\n      sstore\n      pop\n      0x40\n      dup3\n      add\n      mload\n      dup2\n      0x02\n      add\n      swap1\n      dup2\n      tag_306\n      swap2\n      swap1\n      tag_307\n      jump\t// in\n    tag_306:\n      pop\n      0x60\n      dup3\n      add\n      mload\n      dup2\n      0x03\n      add\n      sstore\n      0x80\n      dup3\n      add\n      mload\n      dup2\n      0x04\n      add\n      sstore\n      0xa0\n      dup3\n      add\n      mload\n      dup2\n      0x05\n      add\n      swap1\n      dup2\n      tag_308\n      swap2\n      swap1\n      tag_307\n      jump\t// in\n    tag_308:\n      pop\n      0xc0\n      dup3\n      add\n      mload\n      dup2\n      0x06\n      add\n      exp(0x0100, 0x00)\n      dup2\n      sload\n      dup2\n      0xff\n      mul\n      not\n      and\n      swap1\n      dup4\n      iszero\n      iszero\n      mul\n      or\n      swap1\n      sstore\n      pop\n      0xe0\n      dup3\n      add\n      mload\n      dup2\n      0x06\n      add\n      exp(0x0100, 0x01)\n      dup2\n      sload\n      dup2\n      0xff\n      mul\n      not\n      and\n      swap1\n      dup4\n      iszero\n      iszero\n      mul\n      or\n      swap1\n      sstore\n      pop\n      swap1\n      pop\n      pop\n        /* \"contracts/Bond3.sol\":2460:2468  tradeIds */\n      0x01\n        /* \"contracts/Bond3.sol\":2474:2481  tradeId */\n      dup2\n        /* \"contracts/Bond3.sol\":2460:2482  tradeIds.push(tradeId) */\n      swap1\n      dup1\n      0x01\n      dup2\n      sload\n      add\n      dup1\n      dup3\n      sstore\n      dup1\n      swap2\n      pop\n      pop\n      0x01\n      swap1\n      sub\n      swap1\n      0x00\n      mstore\n      keccak256(0x00, 0x20)\n      add\n      0x00\n      swap1\n      swap2\n      swap1\n      swap2\n      swap1\n      swap2\n      pop\n      swap1\n      dup2\n      tag_310\n      swap2\n      swap1\n      tag_307\n      jump\t// in\n    tag_310:\n      pop\n        /* \"contracts/Bond3.sol\":2832:2878  TradeIncepted(msg.sender, tradeId, _tradeData) */\n      0x7511eeca77b6245674aa0ed9cfc29c93005ca6c461f25ca4dcbb0fdb80e003c9\n        /* \"contracts/Bond3.sol\":2846:2856  msg.sender */\n      caller\n        /* \"contracts/Bond3.sol\":2858:2865  tradeId */\n      dup3\n        /* \"contracts/Bond3.sol\":2867:2877  _tradeData */\n      dup8\n        /* \"contracts/Bond3.sol\":2832:2878  TradeIncepted(msg.sender, tradeId, _tradeData) */\n      mload(0x40)\n      tag_311\n      swap4\n      swap3\n      swap2\n      swap1\n      tag_312\n      jump\t// in\n    tag_311:\n      mload(0x40)\n      dup1\n      swap2\n      sub\n      swap1\n      log1\n        /* \"contracts/Bond3.sol\":1994:2886  {... */\n      pop\n        /* \"contracts/Bond3.sol\":1777:2886  function inceptTrade(... */\n      pop\n      pop\n      pop\n      pop\n      pop\n      jump\t// out\n        /* \"contracts/Bond3.sol\":1008:1074  bytes32 public constant UPGRADER_ROLE = keccak256(\"UPGRADER_ROLE\") */\n    tag_144:\n        /* \"contracts/Bond3.sol\":1048:1074  keccak256(\"UPGRADER_ROLE\") */\n      0x189ab7a9244df0848122154315af71fe140f3db0fe014031783b0946b8c9d2e3\n        /* \"contracts/Bond3.sol\":1008:1074  bytes32 public constant UPGRADER_ROLE = keccak256(\"UPGRADER_ROLE\") */\n      dup2\n      jump\t// out\n        /* \"contracts/Bond3.sol\":908:932  string[] public tradeIds */\n    tag_149:\n      0x01\n      dup2\n      dup2\n      sload\n      dup2\n      lt\n      tag_313\n      jumpi\n      0x00\n      dup1\n      revert\n    tag_313:\n      swap1\n      0x00\n      mstore\n      keccak256(0x00, 0x20)\n      add\n      0x00\n      swap2\n      pop\n      swap1\n      pop\n      dup1\n      sload\n      tag_315\n      swap1\n      tag_177\n      jump\t// in\n    tag_315:\n      dup1\n      0x1f\n      add\n      0x20\n      dup1\n      swap2\n      div\n      mul\n      0x20\n      add\n      mload(0x40)\n      swap1\n      dup2\n      add\n      0x40\n      mstore\n      dup1\n      swap3\n      swap2\n      swap1\n      dup2\n      dup2\n      mstore\n      0x20\n      add\n      dup3\n      dup1\n      sload\n      tag_316\n      swap1\n      tag_177\n      jump\t// in\n    tag_316:\n      dup1\n      iszero\n      tag_317\n      jumpi\n      dup1\n      0x1f\n      lt\n      tag_318\n      jumpi\n      0x0100\n      dup1\n      dup4\n      sload\n      div\n      mul\n      dup4\n      mstore\n      swap2\n      0x20\n      add\n      swap2\n      jump(tag_317)\n    tag_318:\n      dup3\n      add\n      swap2\n      swap1\n      0x00\n      mstore\n      keccak256(0x00, 0x20)\n      swap1\n    tag_319:\n      dup2\n      sload\n      dup2\n      mstore\n      swap1\n      0x01\n      add\n      swap1\n      0x20\n      add\n      dup1\n      dup4\n      gt\n      tag_319\n      jumpi\n      dup3\n      swap1\n      sub\n      0x1f\n      and\n      dup3\n      add\n      swap2\n    tag_317:\n      pop\n      pop\n      pop\n      pop\n      pop\n      dup2\n      jump\t// out\n        /* \"@openzeppelin/contracts-upgradeable/utils/introspection/ERC165Upgradeable.sol\":1034:1180  function supportsInterface(bytes4 interfaceId) public view virtual returns (bool) {... */\n    tag_154:\n        /* \"@openzeppelin/contracts-upgradeable/utils/introspection/ERC165Upgradeable.sol\":1110:1114  bool */\n      0x00\n        /* \"@openzeppelin/contracts-upgradeable/utils/introspection/ERC165Upgradeable.sol\":1148:1173  type(IERC165).interfaceId */\n      0x01ffc9a700000000000000000000000000000000000000000000000000000000\n        /* \"@openzeppelin/contracts-upgradeable/utils/introspection/ERC165Upgradeable.sol\":1133:1173  interfaceId == type(IERC165).interfaceId */\n      not(0xffffffffffffffffffffffffffffffffffffffffffffffffffffffff)\n      and\n        /* \"@openzeppelin/contracts-upgradeable/utils/introspection/ERC165Upgradeable.sol\":1133:1144  interfaceId */\n      dup3\n        /* \"@openzeppelin/contracts-upgradeable/utils/introspection/ERC165Upgradeable.sol\":1133:1173  interfaceId == type(IERC165).interfaceId */\n      not(0xffffffffffffffffffffffffffffffffffffffffffffffffffffffff)\n      and\n      eq\n        /* \"@openzeppelin/contracts-upgradeable/utils/introspection/ERC165Upgradeable.sol\":1126:1173  return interfaceId == type(IERC165).interfaceId */\n      swap1\n      pop\n        /* \"@openzeppelin/contracts-upgradeable/utils/introspection/ERC165Upgradeable.sol\":1034:1180  function supportsInterface(bytes4 interfaceId) public view virtual returns (bool) {... */\n      swap2\n      swap1\n      pop\n      jump\t// out\n        /* \"@openzeppelin/contracts-upgradeable/access/AccessControlUpgradeable.sol\":2787:2964  function _getAccessControlStorage() private pure returns (AccessControlStorage storage $) {... */\n    tag_157:\n        /* \"@openzeppelin/contracts-upgradeable/access/AccessControlUpgradeable.sol\":2845:2875  AccessControlStorage storage $ */\n      0x00\n        /* \"@openzeppelin/contracts-upgradeable/access/AccessControlUpgradeable.sol\":2920:2948  AccessControlStorageLocation */\n      0x02dd7bc7dec4dceedda775e58dd541e08a116c6c53815c0bd028192f7b626800\n        /* \"@openzeppelin/contracts-upgradeable/access/AccessControlUpgradeable.sol\":2910:2948  $.slot := AccessControlStorageLocation */\n      swap1\n      pop\n        /* \"@openzeppelin/contracts-upgradeable/access/AccessControlUpgradeable.sol\":2787:2964  function _getAccessControlStorage() private pure returns (AccessControlStorage storage $) {... */\n      swap1\n      jump\t// out\n        /* \"@openzeppelin/contracts-upgradeable/access/AccessControlUpgradeable.sol\":4148:4251  function _checkRole(bytes32 role) internal view virtual {... */\n    tag_161:\n        /* \"@openzeppelin/contracts-upgradeable/access/AccessControlUpgradeable.sol\":4214:4244  _checkRole(role, _msgSender()) */\n      tag_323\n        /* \"@openzeppelin/contracts-upgradeable/access/AccessControlUpgradeable.sol\":4225:4229  role */\n      dup2\n        /* \"@openzeppelin/contracts-upgradeable/access/AccessControlUpgradeable.sol\":4231:4243  _msgSender() */\n      tag_324\n        /* \"@openzeppelin/contracts-upgradeable/access/AccessControlUpgradeable.sol\":4231:4241  _msgSender */\n      tag_167\n        /* \"@openzeppelin/contracts-upgradeable/access/AccessControlUpgradeable.sol\":4231:4243  _msgSender() */\n      jump\t// in\n    tag_324:\n        /* \"@openzeppelin/contracts-upgradeable/access/AccessControlUpgradeable.sol\":4214:4224  _checkRole */\n      tag_325\n        /* \"@openzeppelin/contracts-upgradeable/access/AccessControlUpgradeable.sol\":4214:4244  _checkRole(role, _msgSender()) */\n      jump\t// in\n    tag_323:\n        /* \"@openzeppelin/contracts-upgradeable/access/AccessControlUpgradeable.sol\":4148:4251  function _checkRole(bytes32 role) internal view virtual {... */\n      pop\n      jump\t// out\n        /* \"@openzeppelin/contracts-upgradeable/access/AccessControlUpgradeable.sol\":7270:7657  function _grantRole(bytes32 role, address account) internal virtual returns (bool) {... */\n    tag_164:\n        /* \"@openzeppelin/contracts-upgradeable/access/AccessControlUpgradeable.sol\":7347:7351  bool */\n      0x00\n        /* \"@openzeppelin/contracts-upgradeable/access/AccessControlUpgradeable.sol\":7363:7393  AccessControlStorage storage $ */\n      dup1\n        /* \"@openzeppelin/contracts-upgradeable/access/AccessControlUpgradeable.sol\":7396:7422  _getAccessControlStorage() */\n      tag_327\n        /* \"@openzeppelin/contracts-upgradeable/access/AccessControlUpgradeable.sol\":7396:7420  _getAccessControlStorage */\n      tag_157\n        /* \"@openzeppelin/contracts-upgradeable/access/AccessControlUpgradeable.sol\":7396:7422  _getAccessControlStorage() */\n      jump\t// in\n    tag_327:\n        /* \"@openzeppelin/contracts-upgradeable/access/AccessControlUpgradeable.sol\":7363:7422  AccessControlStorage storage $ = _getAccessControlStorage() */\n      swap1\n      pop\n        /* \"@openzeppelin/contracts-upgradeable/access/AccessControlUpgradeable.sol\":7437:7459  hasRole(role, account) */\n      tag_328\n        /* \"@openzeppelin/contracts-upgradeable/access/AccessControlUpgradeable.sol\":7445:7449  role */\n      dup5\n        /* \"@openzeppelin/contracts-upgradeable/access/AccessControlUpgradeable.sol\":7451:7458  account */\n      dup5\n        /* \"@openzeppelin/contracts-upgradeable/access/AccessControlUpgradeable.sol\":7437:7444  hasRole */\n      tag_111\n        /* \"@openzeppelin/contracts-upgradeable/access/AccessControlUpgradeable.sol\":7437:7459  hasRole(role, account) */\n      jump\t// in\n    tag_328:\n        /* \"@openzeppelin/contracts-upgradeable/access/AccessControlUpgradeable.sol\":7432:7651  if (!hasRole(role, account)) {... */\n      tag_329\n      jumpi\n        /* \"@openzeppelin/contracts-upgradeable/access/AccessControlUpgradeable.sol\":7509:7513  true */\n      0x01\n        /* \"@openzeppelin/contracts-upgradeable/access/AccessControlUpgradeable.sol\":7475:7476  $ */\n      dup2\n        /* \"@openzeppelin/contracts-upgradeable/access/AccessControlUpgradeable.sol\":7475:7483  $._roles */\n      0x00\n      add\n        /* \"@openzeppelin/contracts-upgradeable/access/AccessControlUpgradeable.sol\":7475:7489  $._roles[role] */\n      0x00\n        /* \"@openzeppelin/contracts-upgradeable/access/AccessControlUpgradeable.sol\":7484:7488  role */\n      dup7\n        /* \"@openzeppelin/contracts-upgradeable/access/AccessControlUpgradeable.sol\":7475:7489  $._roles[role] */\n      dup2\n      mstore\n      0x20\n      add\n      swap1\n      dup2\n      mstore\n      0x20\n      add\n      0x00\n      keccak256\n        /* \"@openzeppelin/contracts-upgradeable/access/AccessControlUpgradeable.sol\":7475:7497  $._roles[role].hasRole */\n      0x00\n      add\n        /* \"@openzeppelin/contracts-upgradeable/access/AccessControlUpgradeable.sol\":7475:7506  $._roles[role].hasRole[account] */\n      0x00\n        /* \"@openzeppelin/contracts-upgradeable/access/AccessControlUpgradeable.sol\":7498:7505  account */\n      dup6\n        /* \"@openzeppelin/contracts-upgradeable/access/AccessControlUpgradeable.sol\":7475:7506  $._roles[role].hasRole[account] */\n      0xffffffffffffffffffffffffffffffffffffffff\n      and\n      0xffffffffffffffffffffffffffffffffffffffff\n      and\n      dup2\n      mstore\n      0x20\n      add\n      swap1\n      dup2\n      mstore\n      0x20\n      add\n      0x00\n      keccak256\n      0x00\n        /* \"@openzeppelin/contracts-upgradeable/access/AccessControlUpgradeable.sol\":7475:7513  $._roles[role].hasRole[account] = true */\n      0x0100\n      exp\n      dup2\n      sload\n      dup2\n      0xff\n      mul\n      not\n      and\n      swap1\n      dup4\n      iszero\n      iszero\n      mul\n      or\n      swap1\n      sstore\n      pop\n        /* \"@openzeppelin/contracts-upgradeable/access/AccessControlUpgradeable.sol\":7559:7571  _msgSender() */\n      tag_330\n        /* \"@openzeppelin/contracts-upgradeable/access/AccessControlUpgradeable.sol\":7559:7569  _msgSender */\n      tag_167\n        /* \"@openzeppelin/contracts-upgradeable/access/AccessControlUpgradeable.sol\":7559:7571  _msgSender() */\n      jump\t// in\n    tag_330:\n        /* \"@openzeppelin/contracts-upgradeable/access/AccessControlUpgradeable.sol\":7532:7572  RoleGranted(role, account, _msgSender()) */\n      0xffffffffffffffffffffffffffffffffffffffff\n      and\n        /* \"@openzeppelin/contracts-upgradeable/access/AccessControlUpgradeable.sol\":7550:7557  account */\n      dup4\n        /* \"@openzeppelin/contracts-upgradeable/access/AccessControlUpgradeable.sol\":7532:7572  RoleGranted(role, account, _msgSender()) */\n      0xffffffffffffffffffffffffffffffffffffffff\n      and\n        /* \"@openzeppelin/contracts-upgradeable/access/AccessControlUpgradeable.sol\":7544:7548  role */\n      dup6\n        /* \"@openzeppelin/contracts-upgradeable/access/AccessControlUpgradeable.sol\":7532:7572  RoleGranted(role, account, _msgSender()) */\n      0x2f8788117e7eff1d82e926ec794901d17c78024a50270940304540a733656f0d\n      mload(0x40)\n      mload(0x40)\n      dup1\n      swap2\n      sub\n      swap1\n      log4\n        /* \"@openzeppelin/contracts-upgradeable/access/AccessControlUpgradeable.sol\":7593:7597  true */\n      0x01\n        /* \"@openzeppelin/contracts-upgradeable/access/AccessControlUpgradeable.sol\":7586:7597  return true */\n      swap2\n      pop\n      pop\n      jump(tag_326)\n        /* \"@openzeppelin/contracts-upgradeable/access/AccessControlUpgradeable.sol\":7432:7651  if (!hasRole(role, account)) {... */\n    tag_329:\n        /* \"@openzeppelin/contracts-upgradeable/access/AccessControlUpgradeable.sol\":7635:7640  false */\n      0x00\n        /* \"@openzeppelin/contracts-upgradeable/access/AccessControlUpgradeable.sol\":7628:7640  return false */\n      swap2\n      pop\n      pop\n        /* \"@openzeppelin/contracts-upgradeable/access/AccessControlUpgradeable.sol\":7270:7657  function _grantRole(bytes32 role, address account) internal virtual returns (bool) {... */\n    tag_326:\n      swap3\n      swap2\n      pop\n      pop\n      jump\t// out\n        /* \"@openzeppelin/contracts-upgradeable/utils/ContextUpgradeable.sol\":887:983  function _msgSender() internal view virtual returns (address) {... */\n    tag_167:\n        /* \"@openzeppelin/contracts-upgradeable/utils/ContextUpgradeable.sol\":940:947  address */\n      0x00\n        /* \"@openzeppelin/contracts-upgradeable/utils/ContextUpgradeable.sol\":966:976  msg.sender */\n      caller\n        /* \"@openzeppelin/contracts-upgradeable/utils/ContextUpgradeable.sol\":959:976  return msg.sender */\n      swap1\n      pop\n        /* \"@openzeppelin/contracts-upgradeable/utils/ContextUpgradeable.sol\":887:983  function _msgSender() internal view virtual returns (address) {... */\n      swap1\n      jump\t// out\n        /* \"@openzeppelin/contracts-upgradeable/access/AccessControlUpgradeable.sol\":7892:8280  function _revokeRole(bytes32 role, address account) internal virtual returns (bool) {... */\n    tag_170:\n        /* \"@openzeppelin/contracts-upgradeable/access/AccessControlUpgradeable.sol\":7970:7974  bool */\n      0x00\n        /* \"@openzeppelin/contracts-upgradeable/access/AccessControlUpgradeable.sol\":7986:8016  AccessControlStorage storage $ */\n      dup1\n        /* \"@openzeppelin/contracts-upgradeable/access/AccessControlUpgradeable.sol\":8019:8045  _getAccessControlStorage() */\n      tag_334\n        /* \"@openzeppelin/contracts-upgradeable/access/AccessControlUpgradeable.sol\":8019:8043  _getAccessControlStorage */\n      tag_157\n        /* \"@openzeppelin/contracts-upgradeable/access/AccessControlUpgradeable.sol\":8019:8045  _getAccessControlStorage() */\n      jump\t// in\n    tag_334:\n        /* \"@openzeppelin/contracts-upgradeable/access/AccessControlUpgradeable.sol\":7986:8045  AccessControlStorage storage $ = _getAccessControlStorage() */\n      swap1\n      pop\n        /* \"@openzeppelin/contracts-upgradeable/access/AccessControlUpgradeable.sol\":8059:8081  hasRole(role, account) */\n      tag_335\n        /* \"@openzeppelin/contracts-upgradeable/access/AccessControlUpgradeable.sol\":8067:8071  role */\n      dup5\n        /* \"@openzeppelin/contracts-upgradeable/access/AccessControlUpgradeable.sol\":8073:8080  account */\n      dup5\n        /* \"@openzeppelin/contracts-upgradeable/access/AccessControlUpgradeable.sol\":8059:8066  hasRole */\n      tag_111\n        /* \"@openzeppelin/contracts-upgradeable/access/AccessControlUpgradeable.sol\":8059:8081  hasRole(role, account) */\n      jump\t// in\n    tag_335:\n        /* \"@openzeppelin/contracts-upgradeable/access/AccessControlUpgradeable.sol\":8055:8274  if (hasRole(role, account)) {... */\n      iszero\n      tag_336\n      jumpi\n        /* \"@openzeppelin/contracts-upgradeable/access/AccessControlUpgradeable.sol\":8131:8136  false */\n      0x00\n        /* \"@openzeppelin/contracts-upgradeable/access/AccessControlUpgradeable.sol\":8097:8098  $ */\n      dup2\n        /* \"@openzeppelin/contracts-upgradeable/access/AccessControlUpgradeable.sol\":8097:8105  $._roles */\n      0x00\n      add\n        /* \"@openzeppelin/contracts-upgradeable/access/AccessControlUpgradeable.sol\":8097:8111  $._roles[role] */\n      0x00\n        /* \"@openzeppelin/contracts-upgradeable/access/AccessControlUpgradeable.sol\":8106:8110  role */\n      dup7\n        /* \"@openzeppelin/contracts-upgradeable/access/AccessControlUpgradeable.sol\":8097:8111  $._roles[role] */\n      dup2\n      mstore\n      0x20\n      add\n      swap1\n      dup2\n      mstore\n      0x20\n      add\n      0x00\n      keccak256\n        /* \"@openzeppelin/contracts-upgradeable/access/AccessControlUpgradeable.sol\":8097:8119  $._roles[role].hasRole */\n      0x00\n      add\n        /* \"@openzeppelin/contracts-upgradeable/access/AccessControlUpgradeable.sol\":8097:8128  $._roles[role].hasRole[account] */\n      0x00\n        /* \"@openzeppelin/contracts-upgradeable/access/AccessControlUpgradeable.sol\":8120:8127  account */\n      dup6\n        /* \"@openzeppelin/contracts-upgradeable/access/AccessControlUpgradeable.sol\":8097:8128  $._roles[role].hasRole[account] */\n      0xffffffffffffffffffffffffffffffffffffffff\n      and\n      0xffffffffffffffffffffffffffffffffffffffff\n      and\n      dup2\n      mstore\n      0x20\n      add\n      swap1\n      dup2\n      mstore\n      0x20\n      add\n      0x00\n      keccak256\n      0x00\n        /* \"@openzeppelin/contracts-upgradeable/access/AccessControlUpgradeable.sol\":8097:8136  $._roles[role].hasRole[account] = false */\n      0x0100\n      exp\n      dup2\n      sload\n      dup2\n      0xff\n      mul\n      not\n      and\n      swap1\n      dup4\n      iszero\n      iszero\n      mul\n      or\n      swap1\n      sstore\n      pop\n        /* \"@openzeppelin/contracts-upgradeable/access/AccessControlUpgradeable.sol\":8182:8194  _msgSender() */\n      tag_337\n        /* \"@openzeppelin/contracts-upgradeable/access/AccessControlUpgradeable.sol\":8182:8192  _msgSender */\n      tag_167\n        /* \"@openzeppelin/contracts-upgradeable/access/AccessControlUpgradeable.sol\":8182:8194  _msgSender() */\n      jump\t// in\n    tag_337:\n        /* \"@openzeppelin/contracts-upgradeable/access/AccessControlUpgradeable.sol\":8155:8195  RoleRevoked(role, account, _msgSender()) */\n      0xffffffffffffffffffffffffffffffffffffffff\n      and\n        /* \"@openzeppelin/contracts-upgradeable/access/AccessControlUpgradeable.sol\":8173:8180  account */\n      dup4\n        /* \"@openzeppelin/contracts-upgradeable/access/AccessControlUpgradeable.sol\":8155:8195  RoleRevoked(role, account, _msgSender()) */\n      0xffffffffffffffffffffffffffffffffffffffff\n      and\n        /* \"@openzeppelin/contracts-upgradeable/access/AccessControlUpgradeable.sol\":8167:8171  role */\n      dup6\n        /* \"@openzeppelin/contracts-upgradeable/access/AccessControlUpgradeable.sol\":8155:8195  RoleRevoked(role, account, _msgSender()) */\n      0xf6391f5c32d9c69d2a47ea670b442974b53935d1edc7fd64eb21e047a839171b\n      mload(0x40)\n      mload(0x40)\n      dup1\n      swap2\n      sub\n      swap1\n      log4\n        /* \"@openzeppelin/contracts-upgradeable/access/AccessControlUpgradeable.sol\":8216:8220  true */\n      0x01\n        /* \"@openzeppelin/contracts-upgradeable/access/AccessControlUpgradeable.sol\":8209:8220  return true */\n      swap2\n      pop\n      pop\n      jump(tag_333)\n        /* \"@openzeppelin/contracts-upgradeable/access/AccessControlUpgradeable.sol\":8055:8274  if (hasRole(role, account)) {... */\n    tag_336:\n        /* \"@openzeppelin/contracts-upgradeable/access/AccessControlUpgradeable.sol\":8258:8263  false */\n      0x00\n        /* \"@openzeppelin/contracts-upgradeable/access/AccessControlUpgradeable.sol\":8251:8263  return false */\n      swap2\n      pop\n      pop\n        /* \"@openzeppelin/contracts-upgradeable/access/AccessControlUpgradeable.sol\":7892:8280  function _revokeRole(bytes32 role, address account) internal virtual returns (bool) {... */\n    tag_333:\n      swap3\n      swap2\n      pop\n      pop\n      jump\t// out\n        /* \"@openzeppelin/contracts-upgradeable/utils/PausableUpgradeable.sol\":3674:3852  function _unpause() internal virtual whenPaused {... */\n    tag_175:\n        /* \"@openzeppelin/contracts-upgradeable/utils/PausableUpgradeable.sol\":2563:2579  _requirePaused() */\n      tag_340\n        /* \"@openzeppelin/contracts-upgradeable/utils/PausableUpgradeable.sol\":2563:2577  _requirePaused */\n      tag_341\n        /* \"@openzeppelin/contracts-upgradeable/utils/PausableUpgradeable.sol\":2563:2579  _requirePaused() */\n      jump\t// in\n    tag_340:\n        /* \"@openzeppelin/contracts-upgradeable/utils/PausableUpgradeable.sol\":3732:3757  PausableStorage storage $ */\n      0x00\n        /* \"@openzeppelin/contracts-upgradeable/utils/PausableUpgradeable.sol\":3760:3781  _getPausableStorage() */\n      tag_343\n        /* \"@openzeppelin/contracts-upgradeable/utils/PausableUpgradeable.sol\":3760:3779  _getPausableStorage */\n      tag_201\n        /* \"@openzeppelin/contracts-upgradeable/utils/PausableUpgradeable.sol\":3760:3781  _getPausableStorage() */\n      jump\t// in\n    tag_343:\n        /* \"@openzeppelin/contracts-upgradeable/utils/PausableUpgradeable.sol\":3732:3781  PausableStorage storage $ = _getPausableStorage() */\n      swap1\n      pop\n        /* \"@openzeppelin/contracts-upgradeable/utils/PausableUpgradeable.sol\":3803:3808  false */\n      0x00\n        /* \"@openzeppelin/contracts-upgradeable/utils/PausableUpgradeable.sol\":3791:3792  $ */\n      dup2\n        /* \"@openzeppelin/contracts-upgradeable/utils/PausableUpgradeable.sol\":3791:3800  $._paused */\n      0x00\n      add\n      0x00\n        /* \"@openzeppelin/contracts-upgradeable/utils/PausableUpgradeable.sol\":3791:3808  $._paused = false */\n      0x0100\n      exp\n      dup2\n      sload\n      dup2\n      0xff\n      mul\n      not\n      and\n      swap1\n      dup4\n      iszero\n      iszero\n      mul\n      or\n      swap1\n      sstore\n      pop\n        /* \"@openzeppelin/contracts-upgradeable/utils/PausableUpgradeable.sol\":3823:3845  Unpaused(_msgSender()) */\n      0x5db9ee0a495bf2e6ff9c91a7834c1ba4fdd244a5e8aa4e537bd38aeae4b073aa\n        /* \"@openzeppelin/contracts-upgradeable/utils/PausableUpgradeable.sol\":3832:3844  _msgSender() */\n      tag_344\n        /* \"@openzeppelin/contracts-upgradeable/utils/PausableUpgradeable.sol\":3832:3842  _msgSender */\n      tag_167\n        /* \"@openzeppelin/contracts-upgradeable/utils/PausableUpgradeable.sol\":3832:3844  _msgSender() */\n      jump\t// in\n    tag_344:\n        /* \"@openzeppelin/contracts-upgradeable/utils/PausableUpgradeable.sol\":3823:3845  Unpaused(_msgSender()) */\n      mload(0x40)\n      tag_345\n      swap2\n      swap1\n      tag_346\n      jump\t// in\n    tag_345:\n      mload(0x40)\n      dup1\n      swap2\n      sub\n      swap1\n      log1\n        /* \"@openzeppelin/contracts-upgradeable/utils/PausableUpgradeable.sol\":3722:3852  {... */\n      pop\n        /* \"@openzeppelin/contracts-upgradeable/utils/PausableUpgradeable.sol\":3674:3852  function _unpause() internal virtual whenPaused {... */\n      jump\t// out\n        /* \"@openzeppelin/contracts-upgradeable/proxy/utils/UUPSUpgradeable.sol\":4599:4911  function _checkProxy() internal view virtual {... */\n    tag_189:\n        /* \"@openzeppelin/contracts-upgradeable/proxy/utils/UUPSUpgradeable.sol\":4688:4694  __self */\n      immutable(\"0x3b04ad91523c4dcf551e081621e633b9099d51bf9c5461e58c3bc7354a578b27\")\n        /* \"@openzeppelin/contracts-upgradeable/proxy/utils/UUPSUpgradeable.sol\":4671:4694  address(this) == __self */\n      0xffffffffffffffffffffffffffffffffffffffff\n      and\n        /* \"@openzeppelin/contracts-upgradeable/proxy/utils/UUPSUpgradeable.sol\":4679:4683  this */\n      address\n        /* \"@openzeppelin/contracts-upgradeable/proxy/utils/UUPSUpgradeable.sol\":4671:4694  address(this) == __self */\n      0xffffffffffffffffffffffffffffffffffffffff\n      and\n      eq\n        /* \"@openzeppelin/contracts-upgradeable/proxy/utils/UUPSUpgradeable.sol\":4671:4791  address(this) == __self || // Must be called through delegatecall... */\n      dup1\n      tag_348\n      jumpi\n      pop\n        /* \"@openzeppelin/contracts-upgradeable/proxy/utils/UUPSUpgradeable.sol\":4785:4791  __self */\n      immutable(\"0x3b04ad91523c4dcf551e081621e633b9099d51bf9c5461e58c3bc7354a578b27\")\n        /* \"@openzeppelin/contracts-upgradeable/proxy/utils/UUPSUpgradeable.sol\":4749:4791  ERC1967Utils.getImplementation() != __self */\n      0xffffffffffffffffffffffffffffffffffffffff\n      and\n        /* \"@openzeppelin/contracts-upgradeable/proxy/utils/UUPSUpgradeable.sol\":4749:4781  ERC1967Utils.getImplementation() */\n      tag_349\n        /* \"@openzeppelin/contracts-upgradeable/proxy/utils/UUPSUpgradeable.sol\":4749:4779  ERC1967Utils.getImplementation */\n      tag_350\n        /* \"@openzeppelin/contracts-upgradeable/proxy/utils/UUPSUpgradeable.sol\":4749:4781  ERC1967Utils.getImplementation() */\n      jump\t// in\n    tag_349:\n        /* \"@openzeppelin/contracts-upgradeable/proxy/utils/UUPSUpgradeable.sol\":4749:4791  ERC1967Utils.getImplementation() != __self */\n      0xffffffffffffffffffffffffffffffffffffffff\n      and\n      eq\n      iszero\n        /* \"@openzeppelin/contracts-upgradeable/proxy/utils/UUPSUpgradeable.sol\":4671:4791  address(this) == __self || // Must be called through delegatecall... */\n    tag_348:\n        /* \"@openzeppelin/contracts-upgradeable/proxy/utils/UUPSUpgradeable.sol\":4654:4905  if (... */\n      iszero\n      tag_351\n      jumpi\n        /* \"@openzeppelin/contracts-upgradeable/proxy/utils/UUPSUpgradeable.sol\":4865:4894  UUPSUnauthorizedCallContext() */\n      mload(0x40)\n      0xe07c8dba00000000000000000000000000000000000000000000000000000000\n      dup2\n      mstore\n      0x04\n      add\n      mload(0x40)\n      dup1\n      swap2\n      sub\n      swap1\n      revert\n        /* \"@openzeppelin/contracts-upgradeable/proxy/utils/UUPSUpgradeable.sol\":4654:4905  if (... */\n    tag_351:\n        /* \"@openzeppelin/contracts-upgradeable/proxy/utils/UUPSUpgradeable.sol\":4599:4911  function _checkProxy() internal view virtual {... */\n      jump\t// out\n        /* \"contracts/Bond3.sol\":5446:5576  function _authorizeUpgrade(address newImplementation)... */\n    tag_192:\n        /* \"contracts/Bond3.sol\":1048:1074  keccak256(\"UPGRADER_ROLE\") */\n      0x189ab7a9244df0848122154315af71fe140f3db0fe014031783b0946b8c9d2e3\n        /* \"@openzeppelin/contracts-upgradeable/access/AccessControlUpgradeable.sol\":3191:3207  _checkRole(role) */\n      tag_353\n        /* \"@openzeppelin/contracts-upgradeable/access/AccessControlUpgradeable.sol\":3202:3206  role */\n      dup2\n        /* \"@openzeppelin/contracts-upgradeable/access/AccessControlUpgradeable.sol\":3191:3201  _checkRole */\n      tag_161\n        /* \"@openzeppelin/contracts-upgradeable/access/AccessControlUpgradeable.sol\":3191:3207  _checkRole(role) */\n      jump\t// in\n    tag_353:\n        /* \"contracts/Bond3.sol\":5446:5576  function _authorizeUpgrade(address newImplementation)... */\n      pop\n      pop\n      jump\t// out\n        /* \"@openzeppelin/contracts-upgradeable/proxy/utils/UUPSUpgradeable.sol\":6052:6590  function _upgradeToAndCallUUPS(address newImplementation, bytes memory data) private {... */\n    tag_194:\n        /* \"@openzeppelin/contracts-upgradeable/proxy/utils/UUPSUpgradeable.sol\":6169:6186  newImplementation */\n      dup2\n        /* \"@openzeppelin/contracts-upgradeable/proxy/utils/UUPSUpgradeable.sol\":6151:6201  IERC1822Proxiable(newImplementation).proxiableUUID */\n      0xffffffffffffffffffffffffffffffffffffffff\n      and\n      0x52d1902d\n        /* \"@openzeppelin/contracts-upgradeable/proxy/utils/UUPSUpgradeable.sol\":6151:6203  IERC1822Proxiable(newImplementation).proxiableUUID() */\n      mload(0x40)\n      dup2\n      0xffffffff\n      and\n      0xe0\n      shl\n      dup2\n      mstore\n      0x04\n      add\n      0x20\n      mload(0x40)\n      dup1\n      dup4\n      sub\n      dup2\n      dup7\n      gas\n      staticcall\n      swap3\n      pop\n      pop\n      pop\n      dup1\n      iszero\n      tag_356\n      jumpi\n      pop\n      mload(0x40)\n      returndatasize\n      not(0x1f)\n      0x1f\n      dup3\n      add\n      and\n      dup3\n      add\n      dup1\n      0x40\n      mstore\n      pop\n      dup2\n      add\n      swap1\n      tag_357\n      swap2\n      swap1\n      tag_358\n      jump\t// in\n    tag_357:\n      0x01\n    tag_356:\n        /* \"@openzeppelin/contracts-upgradeable/proxy/utils/UUPSUpgradeable.sol\":6147:6584  try IERC1822Proxiable(newImplementation).proxiableUUID() returns (bytes32 slot) {... */\n      tag_359\n      jumpi\n        /* \"@openzeppelin/contracts-upgradeable/proxy/utils/UUPSUpgradeable.sol\":6555:6572  newImplementation */\n      dup2\n        /* \"@openzeppelin/contracts-upgradeable/proxy/utils/UUPSUpgradeable.sol\":6513:6573  ERC1967Utils.ERC1967InvalidImplementation(newImplementation) */\n      mload(0x40)\n      0x4c9c8ce300000000000000000000000000000000000000000000000000000000\n      dup2\n      mstore\n      0x04\n      add\n      tag_363\n      swap2\n      swap1\n      tag_346\n      jump\t// in\n    tag_363:\n      mload(0x40)\n      dup1\n      swap2\n      sub\n      swap1\n      revert\n        /* \"@openzeppelin/contracts-upgradeable/proxy/utils/UUPSUpgradeable.sol\":6147:6584  try IERC1822Proxiable(newImplementation).proxiableUUID() returns (bytes32 slot) {... */\n    tag_359:\n        /* \"@openzeppelin/contracts/proxy/ERC1967/ERC1967Utils.sol\":1327:1393  0x360894a13ba1a3210667c828492db98dca3e2076cc3735a920a3ca505d382bbc */\n      0x360894a13ba1a3210667c828492db98dca3e2076cc3735a920a3ca505d382bbc\n        /* \"@openzeppelin/contracts-upgradeable/proxy/utils/UUPSUpgradeable.sol\":6253:6285  ERC1967Utils.IMPLEMENTATION_SLOT */\n      0x00\n      shl\n        /* \"@openzeppelin/contracts-upgradeable/proxy/utils/UUPSUpgradeable.sol\":6245:6249  slot */\n      dup2\n        /* \"@openzeppelin/contracts-upgradeable/proxy/utils/UUPSUpgradeable.sol\":6245:6285  slot != ERC1967Utils.IMPLEMENTATION_SLOT */\n      eq\n        /* \"@openzeppelin/contracts-upgradeable/proxy/utils/UUPSUpgradeable.sol\":6241:6361  if (slot != ERC1967Utils.IMPLEMENTATION_SLOT) {... */\n      tag_365\n      jumpi\n        /* \"@openzeppelin/contracts-upgradeable/proxy/utils/UUPSUpgradeable.sol\":6341:6345  slot */\n      dup1\n        /* \"@openzeppelin/contracts-upgradeable/proxy/utils/UUPSUpgradeable.sol\":6312:6346  UUPSUnsupportedProxiableUUID(slot) */\n      mload(0x40)\n      0xaa1d49a400000000000000000000000000000000000000000000000000000000\n      dup2\n      mstore\n      0x04\n      add\n      tag_366\n      swap2\n      swap1\n      tag_46\n      jump\t// in\n    tag_366:\n      mload(0x40)\n      dup1\n      swap2\n      sub\n      swap1\n      revert\n        /* \"@openzeppelin/contracts-upgradeable/proxy/utils/UUPSUpgradeable.sol\":6241:6361  if (slot != ERC1967Utils.IMPLEMENTATION_SLOT) {... */\n    tag_365:\n        /* \"@openzeppelin/contracts-upgradeable/proxy/utils/UUPSUpgradeable.sol\":6374:6428  ERC1967Utils.upgradeToAndCall(newImplementation, data) */\n      tag_367\n        /* \"@openzeppelin/contracts-upgradeable/proxy/utils/UUPSUpgradeable.sol\":6404:6421  newImplementation */\n      dup4\n        /* \"@openzeppelin/contracts-upgradeable/proxy/utils/UUPSUpgradeable.sol\":6423:6427  data */\n      dup4\n        /* \"@openzeppelin/contracts-upgradeable/proxy/utils/UUPSUpgradeable.sol\":6374:6403  ERC1967Utils.upgradeToAndCall */\n      tag_368\n        /* \"@openzeppelin/contracts-upgradeable/proxy/utils/UUPSUpgradeable.sol\":6374:6428  ERC1967Utils.upgradeToAndCall(newImplementation, data) */\n      jump\t// in\n    tag_367:\n        /* \"@openzeppelin/contracts-upgradeable/proxy/utils/UUPSUpgradeable.sol\":6204:6439  returns (bytes32 slot) {... */\n      pop\n        /* \"@openzeppelin/contracts-upgradeable/proxy/utils/UUPSUpgradeable.sol\":6052:6590  function _upgradeToAndCallUUPS(address newImplementation, bytes memory data) private {... */\n      pop\n      pop\n      jump\t// out\n        /* \"@openzeppelin/contracts-upgradeable/proxy/utils/UUPSUpgradeable.sol\":5028:5241  function _checkNotDelegated() internal view virtual {... */\n    tag_197:\n        /* \"@openzeppelin/contracts-upgradeable/proxy/utils/UUPSUpgradeable.sol\":5111:5117  __self */\n      immutable(\"0x3b04ad91523c4dcf551e081621e633b9099d51bf9c5461e58c3bc7354a578b27\")\n        /* \"@openzeppelin/contracts-upgradeable/proxy/utils/UUPSUpgradeable.sol\":5094:5117  address(this) != __self */\n      0xffffffffffffffffffffffffffffffffffffffff\n      and\n        /* \"@openzeppelin/contracts-upgradeable/proxy/utils/UUPSUpgradeable.sol\":5102:5106  this */\n      address\n        /* \"@openzeppelin/contracts-upgradeable/proxy/utils/UUPSUpgradeable.sol\":5094:5117  address(this) != __self */\n      0xffffffffffffffffffffffffffffffffffffffff\n      and\n      eq\n        /* \"@openzeppelin/contracts-upgradeable/proxy/utils/UUPSUpgradeable.sol\":5090:5235  if (address(this) != __self) {... */\n      tag_370\n      jumpi\n        /* \"@openzeppelin/contracts-upgradeable/proxy/utils/UUPSUpgradeable.sol\":5195:5224  UUPSUnauthorizedCallContext() */\n      mload(0x40)\n      0xe07c8dba00000000000000000000000000000000000000000000000000000000\n      dup2\n      mstore\n      0x04\n      add\n      mload(0x40)\n      dup1\n      swap2\n      sub\n      swap1\n      revert\n        /* \"@openzeppelin/contracts-upgradeable/proxy/utils/UUPSUpgradeable.sol\":5090:5235  if (address(this) != __self) {... */\n    tag_370:\n        /* \"@openzeppelin/contracts-upgradeable/proxy/utils/UUPSUpgradeable.sol\":5028:5241  function _checkNotDelegated() internal view virtual {... */\n      jump\t// out\n        /* \"@openzeppelin/contracts-upgradeable/utils/PausableUpgradeable.sol\":1147:1309  function _getPausableStorage() private pure returns (PausableStorage storage $) {... */\n    tag_201:\n        /* \"@openzeppelin/contracts-upgradeable/utils/PausableUpgradeable.sol\":1200:1225  PausableStorage storage $ */\n      0x00\n        /* \"@openzeppelin/contracts-upgradeable/utils/PausableUpgradeable.sol\":1270:1293  PausableStorageLocation */\n      0xcd5ed15c6e187e77e9aee88184c21f4f2182ab5827cb3b7e07fbedcd63f03300\n        /* \"@openzeppelin/contracts-upgradeable/utils/PausableUpgradeable.sol\":1260:1293  $.slot := PausableStorageLocation */\n      swap1\n      pop\n        /* \"@openzeppelin/contracts-upgradeable/utils/PausableUpgradeable.sol\":1147:1309  function _getPausableStorage() private pure returns (PausableStorage storage $) {... */\n      swap1\n      jump\t// out\n        /* \"@openzeppelin/contracts-upgradeable/proxy/utils/Initializable.sol\":8737:8907  function _getInitializableStorage() private pure returns (InitializableStorage storage $) {... */\n    tag_243:\n        /* \"@openzeppelin/contracts-upgradeable/proxy/utils/Initializable.sol\":8795:8825  InitializableStorage storage $ */\n      0x00\n        /* \"@openzeppelin/contracts-upgradeable/proxy/utils/Initializable.sol\":8870:8891  INITIALIZABLE_STORAGE */\n      0xf0c57e16840df040f15088dc2f81fe391c3923bec73e23a9662efc9c229c6a00\n        /* \"@openzeppelin/contracts-upgradeable/proxy/utils/Initializable.sol\":8860:8891  $.slot := INITIALIZABLE_STORAGE */\n      swap1\n      pop\n        /* \"@openzeppelin/contracts-upgradeable/proxy/utils/Initializable.sol\":8737:8907  function _getInitializableStorage() private pure returns (InitializableStorage storage $) {... */\n      swap1\n      jump\t// out\n        /* \"@openzeppelin/contracts-upgradeable/utils/PausableUpgradeable.sol\":1836:1933  function __Pausable_init() internal onlyInitializing {... */\n    tag_251:\n        /* \"@openzeppelin/contracts-upgradeable/proxy/utils/Initializable.sol\":6931:6951  _checkInitializing() */\n      tag_374\n        /* \"@openzeppelin/contracts-upgradeable/proxy/utils/Initializable.sol\":6931:6949  _checkInitializing */\n      tag_375\n        /* \"@openzeppelin/contracts-upgradeable/proxy/utils/Initializable.sol\":6931:6951  _checkInitializing() */\n      jump\t// in\n    tag_374:\n        /* \"@openzeppelin/contracts-upgradeable/utils/PausableUpgradeable.sol\":1899:1926  __Pausable_init_unchained() */\n      tag_377\n        /* \"@openzeppelin/contracts-upgradeable/utils/PausableUpgradeable.sol\":1899:1924  __Pausable_init_unchained */\n      tag_378\n        /* \"@openzeppelin/contracts-upgradeable/utils/PausableUpgradeable.sol\":1899:1926  __Pausable_init_unchained() */\n      jump\t// in\n    tag_377:\n        /* \"@openzeppelin/contracts-upgradeable/utils/PausableUpgradeable.sol\":1836:1933  function __Pausable_init() internal onlyInitializing {... */\n      jump\t// out\n        /* \"@openzeppelin/contracts-upgradeable/access/AccessControlUpgradeable.sol\":3231:3296  function __AccessControl_init() internal onlyInitializing {... */\n    tag_253:\n        /* \"@openzeppelin/contracts-upgradeable/proxy/utils/Initializable.sol\":6931:6951  _checkInitializing() */\n      tag_380\n        /* \"@openzeppelin/contracts-upgradeable/proxy/utils/Initializable.sol\":6931:6949  _checkInitializing */\n      tag_375\n        /* \"@openzeppelin/contracts-upgradeable/proxy/utils/Initializable.sol\":6931:6951  _checkInitializing() */\n      jump\t// in\n    tag_380:\n        /* \"@openzeppelin/contracts-upgradeable/access/AccessControlUpgradeable.sol\":3231:3296  function __AccessControl_init() internal onlyInitializing {... */\n      jump\t// out\n        /* \"@openzeppelin/contracts-upgradeable/proxy/utils/UUPSUpgradeable.sol\":2968:3035  function __UUPSUpgradeable_init() internal onlyInitializing {... */\n    tag_255:\n        /* \"@openzeppelin/contracts-upgradeable/proxy/utils/Initializable.sol\":6931:6951  _checkInitializing() */\n      tag_383\n        /* \"@openzeppelin/contracts-upgradeable/proxy/utils/Initializable.sol\":6931:6949  _checkInitializing */\n      tag_375\n        /* \"@openzeppelin/contracts-upgradeable/proxy/utils/Initializable.sol\":6931:6951  _checkInitializing() */\n      jump\t// in\n    tag_383:\n        /* \"@openzeppelin/contracts-upgradeable/proxy/utils/UUPSUpgradeable.sol\":2968:3035  function __UUPSUpgradeable_init() internal onlyInitializing {... */\n      jump\t// out\n        /* \"@openzeppelin/contracts-upgradeable/utils/PausableUpgradeable.sol\":3366:3542  function _pause() internal virtual whenNotPaused {... */\n    tag_266:\n        /* \"@openzeppelin/contracts-upgradeable/utils/PausableUpgradeable.sol\":2316:2335  _requireNotPaused() */\n      tag_386\n        /* \"@openzeppelin/contracts-upgradeable/utils/PausableUpgradeable.sol\":2316:2333  _requireNotPaused */\n      tag_387\n        /* \"@openzeppelin/contracts-upgradeable/utils/PausableUpgradeable.sol\":2316:2335  _requireNotPaused() */\n      jump\t// in\n    tag_386:\n        /* \"@openzeppelin/contracts-upgradeable/utils/PausableUpgradeable.sol\":3425:3450  PausableStorage storage $ */\n      0x00\n        /* \"@openzeppelin/contracts-upgradeable/utils/PausableUpgradeable.sol\":3453:3474  _getPausableStorage() */\n      tag_389\n        /* \"@openzeppelin/contracts-upgradeable/utils/PausableUpgradeable.sol\":3453:3472  _getPausableStorage */\n      tag_201\n        /* \"@openzeppelin/contracts-upgradeable/utils/PausableUpgradeable.sol\":3453:3474  _getPausableStorage() */\n      jump\t// in\n    tag_389:\n        /* \"@openzeppelin/contracts-upgradeable/utils/PausableUpgradeable.sol\":3425:3474  PausableStorage storage $ = _getPausableStorage() */\n      swap1\n      pop\n        /* \"@openzeppelin/contracts-upgradeable/utils/PausableUpgradeable.sol\":3496:3500  true */\n      0x01\n        /* \"@openzeppelin/contracts-upgradeable/utils/PausableUpgradeable.sol\":3484:3485  $ */\n      dup2\n        /* \"@openzeppelin/contracts-upgradeable/utils/PausableUpgradeable.sol\":3484:3493  $._paused */\n      0x00\n      add\n      0x00\n        /* \"@openzeppelin/contracts-upgradeable/utils/PausableUpgradeable.sol\":3484:3500  $._paused = true */\n      0x0100\n      exp\n      dup2\n      sload\n      dup2\n      0xff\n      mul\n      not\n      and\n      swap1\n      dup4\n      iszero\n      iszero\n      mul\n      or\n      swap1\n      sstore\n      pop\n        /* \"@openzeppelin/contracts-upgradeable/utils/PausableUpgradeable.sol\":3515:3535  Paused(_msgSender()) */\n      0x62e78cea01bee320cd4e420270b5ea74000d11b0c9f74754ebdbfc544b05a258\n        /* \"@openzeppelin/contracts-upgradeable/utils/PausableUpgradeable.sol\":3522:3534  _msgSender() */\n      tag_390\n        /* \"@openzeppelin/contracts-upgradeable/utils/PausableUpgradeable.sol\":3522:3532  _msgSender */\n      tag_167\n        /* \"@openzeppelin/contracts-upgradeable/utils/PausableUpgradeable.sol\":3522:3534  _msgSender() */\n      jump\t// in\n    tag_390:\n        /* \"@openzeppelin/contracts-upgradeable/utils/PausableUpgradeable.sol\":3515:3535  Paused(_msgSender()) */\n      mload(0x40)\n      tag_391\n      swap2\n      swap1\n      tag_346\n      jump\t// in\n    tag_391:\n      mload(0x40)\n      dup1\n      swap2\n      sub\n      swap1\n      log1\n        /* \"@openzeppelin/contracts-upgradeable/utils/PausableUpgradeable.sol\":3415:3542  {... */\n      pop\n        /* \"@openzeppelin/contracts-upgradeable/utils/PausableUpgradeable.sol\":3366:3542  function _pause() internal virtual whenNotPaused {... */\n      jump\t// out\n        /* \"@openzeppelin/contracts-upgradeable/access/AccessControlUpgradeable.sol\":4381:4578  function _checkRole(bytes32 role, address account) internal view virtual {... */\n    tag_325:\n        /* \"@openzeppelin/contracts-upgradeable/access/AccessControlUpgradeable.sol\":4469:4491  hasRole(role, account) */\n      tag_393\n        /* \"@openzeppelin/contracts-upgradeable/access/AccessControlUpgradeable.sol\":4477:4481  role */\n      dup3\n        /* \"@openzeppelin/contracts-upgradeable/access/AccessControlUpgradeable.sol\":4483:4490  account */\n      dup3\n        /* \"@openzeppelin/contracts-upgradeable/access/AccessControlUpgradeable.sol\":4469:4476  hasRole */\n      tag_111\n        /* \"@openzeppelin/contracts-upgradeable/access/AccessControlUpgradeable.sol\":4469:4491  hasRole(role, account) */\n      jump\t// in\n    tag_393:\n        /* \"@openzeppelin/contracts-upgradeable/access/AccessControlUpgradeable.sol\":4464:4572  if (!hasRole(role, account)) {... */\n      tag_394\n      jumpi\n        /* \"@openzeppelin/contracts-upgradeable/access/AccessControlUpgradeable.sol\":4547:4554  account */\n      dup1\n        /* \"@openzeppelin/contracts-upgradeable/access/AccessControlUpgradeable.sol\":4556:4560  role */\n      dup3\n        /* \"@openzeppelin/contracts-upgradeable/access/AccessControlUpgradeable.sol\":4514:4561  AccessControlUnauthorizedAccount(account, role) */\n      mload(0x40)\n      0xe2517d3f00000000000000000000000000000000000000000000000000000000\n      dup2\n      mstore\n      0x04\n      add\n      tag_395\n      swap3\n      swap2\n      swap1\n      tag_396\n      jump\t// in\n    tag_395:\n      mload(0x40)\n      dup1\n      swap2\n      sub\n      swap1\n      revert\n        /* \"@openzeppelin/contracts-upgradeable/access/AccessControlUpgradeable.sol\":4464:4572  if (!hasRole(role, account)) {... */\n    tag_394:\n        /* \"@openzeppelin/contracts-upgradeable/access/AccessControlUpgradeable.sol\":4381:4578  function _checkRole(bytes32 role, address account) internal view virtual {... */\n      pop\n      pop\n      jump\t// out\n        /* \"@openzeppelin/contracts-upgradeable/utils/PausableUpgradeable.sol\":3105:3231  function _requirePaused() internal view virtual {... */\n    tag_341:\n        /* \"@openzeppelin/contracts-upgradeable/utils/PausableUpgradeable.sol\":3168:3176  paused() */\n      tag_398\n        /* \"@openzeppelin/contracts-upgradeable/utils/PausableUpgradeable.sol\":3168:3174  paused */\n      tag_76\n        /* \"@openzeppelin/contracts-upgradeable/utils/PausableUpgradeable.sol\":3168:3176  paused() */\n      jump\t// in\n    tag_398:\n        /* \"@openzeppelin/contracts-upgradeable/utils/PausableUpgradeable.sol\":3163:3225  if (!paused()) {... */\n      tag_399\n      jumpi\n        /* \"@openzeppelin/contracts-upgradeable/utils/PausableUpgradeable.sol\":3199:3214  ExpectedPause() */\n      mload(0x40)\n      0x8dfc202b00000000000000000000000000000000000000000000000000000000\n      dup2\n      mstore\n      0x04\n      add\n      mload(0x40)\n      dup1\n      swap2\n      sub\n      swap1\n      revert\n        /* \"@openzeppelin/contracts-upgradeable/utils/PausableUpgradeable.sol\":3163:3225  if (!paused()) {... */\n    tag_399:\n        /* \"@openzeppelin/contracts-upgradeable/utils/PausableUpgradeable.sol\":3105:3231  function _requirePaused() internal view virtual {... */\n      jump\t// out\n        /* \"@openzeppelin/contracts/proxy/ERC1967/ERC1967Utils.sol\":1957:2095  function getImplementation() internal view returns (address) {... */\n    tag_350:\n        /* \"@openzeppelin/contracts/proxy/ERC1967/ERC1967Utils.sol\":2009:2016  address */\n      0x00\n        /* \"@openzeppelin/contracts/proxy/ERC1967/ERC1967Utils.sol\":2035:2082  StorageSlot.getAddressSlot(IMPLEMENTATION_SLOT) */\n      tag_401\n        /* \"@openzeppelin/contracts/proxy/ERC1967/ERC1967Utils.sol\":1327:1393  0x360894a13ba1a3210667c828492db98dca3e2076cc3735a920a3ca505d382bbc */\n      0x360894a13ba1a3210667c828492db98dca3e2076cc3735a920a3ca505d382bbc\n        /* \"@openzeppelin/contracts/proxy/ERC1967/ERC1967Utils.sol\":2062:2081  IMPLEMENTATION_SLOT */\n      0x00\n      shl\n        /* \"@openzeppelin/contracts/proxy/ERC1967/ERC1967Utils.sol\":2035:2061  StorageSlot.getAddressSlot */\n      tag_402\n        /* \"@openzeppelin/contracts/proxy/ERC1967/ERC1967Utils.sol\":2035:2082  StorageSlot.getAddressSlot(IMPLEMENTATION_SLOT) */\n      jump\t// in\n    tag_401:\n        /* \"@openzeppelin/contracts/proxy/ERC1967/ERC1967Utils.sol\":2035:2088  StorageSlot.getAddressSlot(IMPLEMENTATION_SLOT).value */\n      0x00\n      add\n      0x00\n      swap1\n      sload\n      swap1\n      0x0100\n      exp\n      swap1\n      div\n      0xffffffffffffffffffffffffffffffffffffffff\n      and\n        /* \"@openzeppelin/contracts/proxy/ERC1967/ERC1967Utils.sol\":2028:2088  return StorageSlot.getAddressSlot(IMPLEMENTATION_SLOT).value */\n      swap1\n      pop\n        /* \"@openzeppelin/contracts/proxy/ERC1967/ERC1967Utils.sol\":1957:2095  function getImplementation() internal view returns (address) {... */\n      swap1\n      jump\t// out\n        /* \"@openzeppelin/contracts/proxy/ERC1967/ERC1967Utils.sol\":2779:3114  function upgradeToAndCall(address newImplementation, bytes memory data) internal {... */\n    tag_368:\n        /* \"@openzeppelin/contracts/proxy/ERC1967/ERC1967Utils.sol\":2870:2907  _setImplementation(newImplementation) */\n      tag_404\n        /* \"@openzeppelin/contracts/proxy/ERC1967/ERC1967Utils.sol\":2889:2906  newImplementation */\n      dup3\n        /* \"@openzeppelin/contracts/proxy/ERC1967/ERC1967Utils.sol\":2870:2888  _setImplementation */\n      tag_405\n        /* \"@openzeppelin/contracts/proxy/ERC1967/ERC1967Utils.sol\":2870:2907  _setImplementation(newImplementation) */\n      jump\t// in\n    tag_404:\n        /* \"@openzeppelin/contracts/proxy/ERC1967/ERC1967Utils.sol\":2931:2948  newImplementation */\n      dup2\n        /* \"@openzeppelin/contracts/proxy/ERC1967/ERC1967Utils.sol\":2922:2949  Upgraded(newImplementation) */\n      0xffffffffffffffffffffffffffffffffffffffff\n      and\n      0xbc7cd75a20ee27fd9adebab32041f755214dbc6bffa90cc0225b39da2e5c2d3b\n      mload(0x40)\n      mload(0x40)\n      dup1\n      swap2\n      sub\n      swap1\n      log2\n        /* \"@openzeppelin/contracts/proxy/ERC1967/ERC1967Utils.sol\":2978:2979  0 */\n      0x00\n        /* \"@openzeppelin/contracts/proxy/ERC1967/ERC1967Utils.sol\":2964:2968  data */\n      dup2\n        /* \"@openzeppelin/contracts/proxy/ERC1967/ERC1967Utils.sol\":2964:2975  data.length */\n      mload\n        /* \"@openzeppelin/contracts/proxy/ERC1967/ERC1967Utils.sol\":2964:2979  data.length > 0 */\n      gt\n        /* \"@openzeppelin/contracts/proxy/ERC1967/ERC1967Utils.sol\":2960:3108  if (data.length > 0) {... */\n      iszero\n      tag_406\n      jumpi\n        /* \"@openzeppelin/contracts/proxy/ERC1967/ERC1967Utils.sol\":2995:3048  Address.functionDelegateCall(newImplementation, data) */\n      tag_407\n        /* \"@openzeppelin/contracts/proxy/ERC1967/ERC1967Utils.sol\":3024:3041  newImplementation */\n      dup3\n        /* \"@openzeppelin/contracts/proxy/ERC1967/ERC1967Utils.sol\":3043:3047  data */\n      dup3\n        /* \"@openzeppelin/contracts/proxy/ERC1967/ERC1967Utils.sol\":2995:3023  Address.functionDelegateCall */\n      tag_408\n        /* \"@openzeppelin/contracts/proxy/ERC1967/ERC1967Utils.sol\":2995:3048  Address.functionDelegateCall(newImplementation, data) */\n      jump\t// in\n    tag_407:\n      pop\n        /* \"@openzeppelin/contracts/proxy/ERC1967/ERC1967Utils.sol\":2960:3108  if (data.length > 0) {... */\n      jump(tag_409)\n    tag_406:\n        /* \"@openzeppelin/contracts/proxy/ERC1967/ERC1967Utils.sol\":3079:3097  _checkNonPayable() */\n      tag_410\n        /* \"@openzeppelin/contracts/proxy/ERC1967/ERC1967Utils.sol\":3079:3095  _checkNonPayable */\n      tag_411\n        /* \"@openzeppelin/contracts/proxy/ERC1967/ERC1967Utils.sol\":3079:3097  _checkNonPayable() */\n      jump\t// in\n    tag_410:\n        /* \"@openzeppelin/contracts/proxy/ERC1967/ERC1967Utils.sol\":2960:3108  if (data.length > 0) {... */\n    tag_409:\n        /* \"@openzeppelin/contracts/proxy/ERC1967/ERC1967Utils.sol\":2779:3114  function upgradeToAndCall(address newImplementation, bytes memory data) internal {... */\n      pop\n      pop\n      jump\t// out\n        /* \"@openzeppelin/contracts-upgradeable/proxy/utils/Initializable.sol\":7084:7225  function _checkInitializing() internal view virtual {... */\n    tag_375:\n        /* \"@openzeppelin/contracts-upgradeable/proxy/utils/Initializable.sol\":7151:7168  _isInitializing() */\n      tag_413\n        /* \"@openzeppelin/contracts-upgradeable/proxy/utils/Initializable.sol\":7151:7166  _isInitializing */\n      tag_414\n        /* \"@openzeppelin/contracts-upgradeable/proxy/utils/Initializable.sol\":7151:7168  _isInitializing() */\n      jump\t// in\n    tag_413:\n        /* \"@openzeppelin/contracts-upgradeable/proxy/utils/Initializable.sol\":7146:7219  if (!_isInitializing()) {... */\n      tag_415\n      jumpi\n        /* \"@openzeppelin/contracts-upgradeable/proxy/utils/Initializable.sol\":7191:7208  NotInitializing() */\n      mload(0x40)\n      0xd7e6bcf800000000000000000000000000000000000000000000000000000000\n      dup2\n      mstore\n      0x04\n      add\n      mload(0x40)\n      dup1\n      swap2\n      sub\n      swap1\n      revert\n        /* \"@openzeppelin/contracts-upgradeable/proxy/utils/Initializable.sol\":7146:7219  if (!_isInitializing()) {... */\n    tag_415:\n        /* \"@openzeppelin/contracts-upgradeable/proxy/utils/Initializable.sol\":7084:7225  function _checkInitializing() internal view virtual {... */\n      jump\t// out\n        /* \"@openzeppelin/contracts-upgradeable/utils/PausableUpgradeable.sol\":1939:2095  function __Pausable_init_unchained() internal onlyInitializing {... */\n    tag_378:\n        /* \"@openzeppelin/contracts-upgradeable/proxy/utils/Initializable.sol\":6931:6951  _checkInitializing() */\n      tag_417\n        /* \"@openzeppelin/contracts-upgradeable/proxy/utils/Initializable.sol\":6931:6949  _checkInitializing */\n      tag_375\n        /* \"@openzeppelin/contracts-upgradeable/proxy/utils/Initializable.sol\":6931:6951  _checkInitializing() */\n      jump\t// in\n    tag_417:\n        /* \"@openzeppelin/contracts-upgradeable/utils/PausableUpgradeable.sol\":2012:2037  PausableStorage storage $ */\n      0x00\n        /* \"@openzeppelin/contracts-upgradeable/utils/PausableUpgradeable.sol\":2040:2061  _getPausableStorage() */\n      tag_419\n        /* \"@openzeppelin/contracts-upgradeable/utils/PausableUpgradeable.sol\":2040:2059  _getPausableStorage */\n      tag_201\n        /* \"@openzeppelin/contracts-upgradeable/utils/PausableUpgradeable.sol\":2040:2061  _getPausableStorage() */\n      jump\t// in\n    tag_419:\n        /* \"@openzeppelin/contracts-upgradeable/utils/PausableUpgradeable.sol\":2012:2061  PausableStorage storage $ = _getPausableStorage() */\n      swap1\n      pop\n        /* \"@openzeppelin/contracts-upgradeable/utils/PausableUpgradeable.sol\":2083:2088  false */\n      0x00\n        /* \"@openzeppelin/contracts-upgradeable/utils/PausableUpgradeable.sol\":2071:2072  $ */\n      dup2\n        /* \"@openzeppelin/contracts-upgradeable/utils/PausableUpgradeable.sol\":2071:2080  $._paused */\n      0x00\n      add\n      0x00\n        /* \"@openzeppelin/contracts-upgradeable/utils/PausableUpgradeable.sol\":2071:2088  $._paused = false */\n      0x0100\n      exp\n      dup2\n      sload\n      dup2\n      0xff\n      mul\n      not\n      and\n      swap1\n      dup4\n      iszero\n      iszero\n      mul\n      or\n      swap1\n      sstore\n      pop\n        /* \"@openzeppelin/contracts-upgradeable/utils/PausableUpgradeable.sol\":2002:2095  {... */\n      pop\n        /* \"@openzeppelin/contracts-upgradeable/utils/PausableUpgradeable.sol\":1939:2095  function __Pausable_init_unchained() internal onlyInitializing {... */\n      jump\t// out\n        /* \"@openzeppelin/contracts-upgradeable/utils/PausableUpgradeable.sol\":2905:3033  function _requireNotPaused() internal view virtual {... */\n    tag_387:\n        /* \"@openzeppelin/contracts-upgradeable/utils/PausableUpgradeable.sol\":2970:2978  paused() */\n      tag_421\n        /* \"@openzeppelin/contracts-upgradeable/utils/PausableUpgradeable.sol\":2970:2976  paused */\n      tag_76\n        /* \"@openzeppelin/contracts-upgradeable/utils/PausableUpgradeable.sol\":2970:2978  paused() */\n      jump\t// in\n    tag_421:\n        /* \"@openzeppelin/contracts-upgradeable/utils/PausableUpgradeable.sol\":2966:3027  if (paused()) {... */\n      iszero\n      tag_422\n      jumpi\n        /* \"@openzeppelin/contracts-upgradeable/utils/PausableUpgradeable.sol\":3001:3016  EnforcedPause() */\n      mload(0x40)\n      0xd93c066500000000000000000000000000000000000000000000000000000000\n      dup2\n      mstore\n      0x04\n      add\n      mload(0x40)\n      dup1\n      swap2\n      sub\n      swap1\n      revert\n        /* \"@openzeppelin/contracts-upgradeable/utils/PausableUpgradeable.sol\":2966:3027  if (paused()) {... */\n    tag_422:\n        /* \"@openzeppelin/contracts-upgradeable/utils/PausableUpgradeable.sol\":2905:3033  function _requireNotPaused() internal view virtual {... */\n      jump\t// out\n        /* \"@openzeppelin/contracts/utils/StorageSlot.sol\":1684:1874  function getAddressSlot(bytes32 slot) internal pure returns (AddressSlot storage r) {... */\n    tag_402:\n        /* \"@openzeppelin/contracts/utils/StorageSlot.sol\":1745:1766  AddressSlot storage r */\n      0x00\n        /* \"@openzeppelin/contracts/utils/StorageSlot.sol\":1854:1858  slot */\n      dup2\n        /* \"@openzeppelin/contracts/utils/StorageSlot.sol\":1844:1858  r.slot := slot */\n      swap1\n      pop\n        /* \"@openzeppelin/contracts/utils/StorageSlot.sol\":1684:1874  function getAddressSlot(bytes32 slot) internal pure returns (AddressSlot storage r) {... */\n      swap2\n      swap1\n      pop\n      jump\t// out\n        /* \"@openzeppelin/contracts/proxy/ERC1967/ERC1967Utils.sol\":2186:2467  function _setImplementation(address newImplementation) private {... */\n    tag_405:\n        /* \"@openzeppelin/contracts/proxy/ERC1967/ERC1967Utils.sol\":2296:2297  0 */\n      0x00\n        /* \"@openzeppelin/contracts/proxy/ERC1967/ERC1967Utils.sol\":2263:2280  newImplementation */\n      dup2\n        /* \"@openzeppelin/contracts/proxy/ERC1967/ERC1967Utils.sol\":2263:2292  newImplementation.code.length */\n      0xffffffffffffffffffffffffffffffffffffffff\n      and\n      extcodesize\n        /* \"@openzeppelin/contracts/proxy/ERC1967/ERC1967Utils.sol\":2263:2297  newImplementation.code.length == 0 */\n      sub\n        /* \"@openzeppelin/contracts/proxy/ERC1967/ERC1967Utils.sol\":2259:2378  if (newImplementation.code.length == 0) {... */\n      tag_425\n      jumpi\n        /* \"@openzeppelin/contracts/proxy/ERC1967/ERC1967Utils.sol\":2349:2366  newImplementation */\n      dup1\n        /* \"@openzeppelin/contracts/proxy/ERC1967/ERC1967Utils.sol\":2320:2367  ERC1967InvalidImplementation(newImplementation) */\n      mload(0x40)\n      0x4c9c8ce300000000000000000000000000000000000000000000000000000000\n      dup2\n      mstore\n      0x04\n      add\n      tag_426\n      swap2\n      swap1\n      tag_346\n      jump\t// in\n    tag_426:\n      mload(0x40)\n      dup1\n      swap2\n      sub\n      swap1\n      revert\n        /* \"@openzeppelin/contracts/proxy/ERC1967/ERC1967Utils.sol\":2259:2378  if (newImplementation.code.length == 0) {... */\n    tag_425:\n        /* \"@openzeppelin/contracts/proxy/ERC1967/ERC1967Utils.sol\":2443:2460  newImplementation */\n      dup1\n        /* \"@openzeppelin/contracts/proxy/ERC1967/ERC1967Utils.sol\":2387:2434  StorageSlot.getAddressSlot(IMPLEMENTATION_SLOT) */\n      tag_427\n        /* \"@openzeppelin/contracts/proxy/ERC1967/ERC1967Utils.sol\":1327:1393  0x360894a13ba1a3210667c828492db98dca3e2076cc3735a920a3ca505d382bbc */\n      0x360894a13ba1a3210667c828492db98dca3e2076cc3735a920a3ca505d382bbc\n        /* \"@openzeppelin/contracts/proxy/ERC1967/ERC1967Utils.sol\":2414:2433  IMPLEMENTATION_SLOT */\n      0x00\n      shl\n        /* \"@openzeppelin/contracts/proxy/ERC1967/ERC1967Utils.sol\":2387:2413  StorageSlot.getAddressSlot */\n      tag_402\n        /* \"@openzeppelin/contracts/proxy/ERC1967/ERC1967Utils.sol\":2387:2434  StorageSlot.getAddressSlot(IMPLEMENTATION_SLOT) */\n      jump\t// in\n    tag_427:\n        /* \"@openzeppelin/contracts/proxy/ERC1967/ERC1967Utils.sol\":2387:2440  StorageSlot.getAddressSlot(IMPLEMENTATION_SLOT).value */\n      0x00\n      add\n      0x00\n        /* \"@openzeppelin/contracts/proxy/ERC1967/ERC1967Utils.sol\":2387:2460  StorageSlot.getAddressSlot(IMPLEMENTATION_SLOT).value = newImplementation */\n      0x0100\n      exp\n      dup2\n      sload\n      dup2\n      0xffffffffffffffffffffffffffffffffffffffff\n      mul\n      not\n      and\n      swap1\n      dup4\n      0xffffffffffffffffffffffffffffffffffffffff\n      and\n      mul\n      or\n      swap1\n      sstore\n      pop\n        /* \"@openzeppelin/contracts/proxy/ERC1967/ERC1967Utils.sol\":2186:2467  function _setImplementation(address newImplementation) private {... */\n      pop\n      jump\t// out\n        /* \"@openzeppelin/contracts/utils/Address.sol\":4106:4359  function functionDelegateCall(address target, bytes memory data) internal returns (bytes memory) {... */\n    tag_408:\n        /* \"@openzeppelin/contracts/utils/Address.sol\":4189:4201  bytes memory */\n      0x60\n        /* \"@openzeppelin/contracts/utils/Address.sol\":4214:4226  bool success */\n      0x00\n        /* \"@openzeppelin/contracts/utils/Address.sol\":4228:4251  bytes memory returndata */\n      dup1\n        /* \"@openzeppelin/contracts/utils/Address.sol\":4255:4261  target */\n      dup5\n        /* \"@openzeppelin/contracts/utils/Address.sol\":4255:4274  target.delegatecall */\n      0xffffffffffffffffffffffffffffffffffffffff\n      and\n        /* \"@openzeppelin/contracts/utils/Address.sol\":4275:4279  data */\n      dup5\n        /* \"@openzeppelin/contracts/utils/Address.sol\":4255:4280  target.delegatecall(data) */\n      mload(0x40)\n      tag_429\n      swap2\n      swap1\n      tag_430\n      jump\t// in\n    tag_429:\n      0x00\n      mload(0x40)\n      dup1\n      dup4\n      sub\n      dup2\n      dup6\n      gas\n      delegatecall\n      swap2\n      pop\n      pop\n      returndatasize\n      dup1\n      0x00\n      dup2\n      eq\n      tag_433\n      jumpi\n      mload(0x40)\n      swap2\n      pop\n      and(add(returndatasize, 0x3f), not(0x1f))\n      dup3\n      add\n      0x40\n      mstore\n      returndatasize\n      dup3\n      mstore\n      returndatasize\n      0x00\n      0x20\n      dup5\n      add\n      returndatacopy\n      jump(tag_432)\n    tag_433:\n      0x60\n      swap2\n      pop\n    tag_432:\n      pop\n        /* \"@openzeppelin/contracts/utils/Address.sol\":4213:4280  (bool success, bytes memory returndata) = target.delegatecall(data) */\n      swap2\n      pop\n      swap2\n      pop\n        /* \"@openzeppelin/contracts/utils/Address.sol\":4297:4352  verifyCallResultFromTarget(target, success, returndata) */\n      tag_434\n        /* \"@openzeppelin/contracts/utils/Address.sol\":4324:4330  target */\n      dup6\n        /* \"@openzeppelin/contracts/utils/Address.sol\":4332:4339  success */\n      dup4\n        /* \"@openzeppelin/contracts/utils/Address.sol\":4341:4351  returndata */\n      dup4\n        /* \"@openzeppelin/contracts/utils/Address.sol\":4297:4323  verifyCallResultFromTarget */\n      tag_435\n        /* \"@openzeppelin/contracts/utils/Address.sol\":4297:4352  verifyCallResultFromTarget(target, success, returndata) */\n      jump\t// in\n    tag_434:\n        /* \"@openzeppelin/contracts/utils/Address.sol\":4290:4352  return verifyCallResultFromTarget(target, success, returndata) */\n      swap3\n      pop\n      pop\n      pop\n        /* \"@openzeppelin/contracts/utils/Address.sol\":4106:4359  function functionDelegateCall(address target, bytes memory data) internal returns (bytes memory) {... */\n      swap3\n      swap2\n      pop\n      pop\n      jump\t// out\n        /* \"@openzeppelin/contracts/proxy/ERC1967/ERC1967Utils.sol\":6598:6720  function _checkNonPayable() private {... */\n    tag_411:\n        /* \"@openzeppelin/contracts/proxy/ERC1967/ERC1967Utils.sol\":6660:6661  0 */\n      0x00\n        /* \"@openzeppelin/contracts/proxy/ERC1967/ERC1967Utils.sol\":6648:6657  msg.value */\n      callvalue\n        /* \"@openzeppelin/contracts/proxy/ERC1967/ERC1967Utils.sol\":6648:6661  msg.value > 0 */\n      gt\n        /* \"@openzeppelin/contracts/proxy/ERC1967/ERC1967Utils.sol\":6644:6714  if (msg.value > 0) {... */\n      iszero\n      tag_437\n      jumpi\n        /* \"@openzeppelin/contracts/proxy/ERC1967/ERC1967Utils.sol\":6684:6703  ERC1967NonPayable() */\n      mload(0x40)\n      0xb398979f00000000000000000000000000000000000000000000000000000000\n      dup2\n      mstore\n      0x04\n      add\n      mload(0x40)\n      dup1\n      swap2\n      sub\n      swap1\n      revert\n        /* \"@openzeppelin/contracts/proxy/ERC1967/ERC1967Utils.sol\":6644:6714  if (msg.value > 0) {... */\n    tag_437:\n        /* \"@openzeppelin/contracts/proxy/ERC1967/ERC1967Utils.sol\":6598:6720  function _checkNonPayable() private {... */\n      jump\t// out\n        /* \"@openzeppelin/contracts-upgradeable/proxy/utils/Initializable.sol\":8487:8607  function _isInitializing() internal view returns (bool) {... */\n    tag_414:\n        /* \"@openzeppelin/contracts-upgradeable/proxy/utils/Initializable.sol\":8537:8541  bool */\n      0x00\n        /* \"@openzeppelin/contracts-upgradeable/proxy/utils/Initializable.sol\":8560:8586  _getInitializableStorage() */\n      tag_439\n        /* \"@openzeppelin/contracts-upgradeable/proxy/utils/Initializable.sol\":8560:8584  _getInitializableStorage */\n      tag_243\n        /* \"@openzeppelin/contracts-upgradeable/proxy/utils/Initializable.sol\":8560:8586  _getInitializableStorage() */\n      jump\t// in\n    tag_439:\n        /* \"@openzeppelin/contracts-upgradeable/proxy/utils/Initializable.sol\":8560:8600  _getInitializableStorage()._initializing */\n      0x00\n      add\n      0x08\n      swap1\n      sload\n      swap1\n      0x0100\n      exp\n      swap1\n      div\n      0xff\n      and\n        /* \"@openzeppelin/contracts-upgradeable/proxy/utils/Initializable.sol\":8553:8600  return _getInitializableStorage()._initializing */\n      swap1\n      pop\n        /* \"@openzeppelin/contracts-upgradeable/proxy/utils/Initializable.sol\":8487:8607  function _isInitializing() internal view returns (bool) {... */\n      swap1\n      jump\t// out\n        /* \"@openzeppelin/contracts/utils/Address.sol\":4625:5207  function verifyCallResultFromTarget(... */\n    tag_435:\n        /* \"@openzeppelin/contracts/utils/Address.sol\":4769:4781  bytes memory */\n      0x60\n        /* \"@openzeppelin/contracts/utils/Address.sol\":4798:4805  success */\n      dup3\n        /* \"@openzeppelin/contracts/utils/Address.sol\":4793:5201  if (!success) {... */\n      tag_441\n      jumpi\n        /* \"@openzeppelin/contracts/utils/Address.sol\":4821:4840  _revert(returndata) */\n      tag_442\n        /* \"@openzeppelin/contracts/utils/Address.sol\":4829:4839  returndata */\n      dup3\n        /* \"@openzeppelin/contracts/utils/Address.sol\":4821:4828  _revert */\n      tag_443\n        /* \"@openzeppelin/contracts/utils/Address.sol\":4821:4840  _revert(returndata) */\n      jump\t// in\n    tag_442:\n        /* \"@openzeppelin/contracts/utils/Address.sol\":4793:5201  if (!success) {... */\n      jump(tag_444)\n    tag_441:\n        /* \"@openzeppelin/contracts/utils/Address.sol\":5066:5067  0 */\n      0x00\n        /* \"@openzeppelin/contracts/utils/Address.sol\":5045:5055  returndata */\n      dup3\n        /* \"@openzeppelin/contracts/utils/Address.sol\":5045:5062  returndata.length */\n      mload\n        /* \"@openzeppelin/contracts/utils/Address.sol\":5045:5067  returndata.length == 0 */\n      eq\n        /* \"@openzeppelin/contracts/utils/Address.sol\":5045:5094  returndata.length == 0 && target.code.length == 0 */\n      dup1\n      iszero\n      tag_445\n      jumpi\n      pop\n        /* \"@openzeppelin/contracts/utils/Address.sol\":5093:5094  0 */\n      0x00\n        /* \"@openzeppelin/contracts/utils/Address.sol\":5071:5077  target */\n      dup5\n        /* \"@openzeppelin/contracts/utils/Address.sol\":5071:5089  target.code.length */\n      0xffffffffffffffffffffffffffffffffffffffff\n      and\n      extcodesize\n        /* \"@openzeppelin/contracts/utils/Address.sol\":5071:5094  target.code.length == 0 */\n      eq\n        /* \"@openzeppelin/contracts/utils/Address.sol\":5045:5094  returndata.length == 0 && target.code.length == 0 */\n    tag_445:\n        /* \"@openzeppelin/contracts/utils/Address.sol\":5041:5160  if (returndata.length == 0 && target.code.length == 0) {... */\n      iszero\n      tag_446\n      jumpi\n        /* \"@openzeppelin/contracts/utils/Address.sol\":5138:5144  target */\n      dup4\n        /* \"@openzeppelin/contracts/utils/Address.sol\":5121:5145  AddressEmptyCode(target) */\n      mload(0x40)\n      0x9996b31500000000000000000000000000000000000000000000000000000000\n      dup2\n      mstore\n      0x04\n      add\n      tag_447\n      swap2\n      swap1\n      tag_346\n      jump\t// in\n    tag_447:\n      mload(0x40)\n      dup1\n      swap2\n      sub\n      swap1\n      revert\n        /* \"@openzeppelin/contracts/utils/Address.sol\":5041:5160  if (returndata.length == 0 && target.code.length == 0) {... */\n    tag_446:\n        /* \"@openzeppelin/contracts/utils/Address.sol\":5180:5190  returndata */\n      dup2\n        /* \"@openzeppelin/contracts/utils/Address.sol\":5173:5190  return returndata */\n      swap1\n      pop\n      jump(tag_440)\n        /* \"@openzeppelin/contracts/utils/Address.sol\":4793:5201  if (!success) {... */\n    tag_444:\n        /* \"@openzeppelin/contracts/utils/Address.sol\":4625:5207  function verifyCallResultFromTarget(... */\n    tag_440:\n      swap4\n      swap3\n      pop\n      pop\n      pop\n      jump\t// out\n        /* \"@openzeppelin/contracts/utils/Address.sol\":5743:6259  function _revert(bytes memory returndata) private pure {... */\n    tag_443:\n        /* \"@openzeppelin/contracts/utils/Address.sol\":5894:5895  0 */\n      0x00\n        /* \"@openzeppelin/contracts/utils/Address.sol\":5874:5884  returndata */\n      dup2\n        /* \"@openzeppelin/contracts/utils/Address.sol\":5874:5891  returndata.length */\n      mload\n        /* \"@openzeppelin/contracts/utils/Address.sol\":5874:5895  returndata.length > 0 */\n      gt\n        /* \"@openzeppelin/contracts/utils/Address.sol\":5870:6253  if (returndata.length > 0) {... */\n      iszero\n      tag_449\n      jumpi\n        /* \"@openzeppelin/contracts/utils/Address.sol\":6102:6112  returndata */\n      dup1\n        /* \"@openzeppelin/contracts/utils/Address.sol\":6096:6113  mload(returndata) */\n      mload\n        /* \"@openzeppelin/contracts/utils/Address.sol\":6158:6173  returndata_size */\n      dup1\n        /* \"@openzeppelin/contracts/utils/Address.sol\":6145:6155  returndata */\n      dup3\n        /* \"@openzeppelin/contracts/utils/Address.sol\":6141:6143  32 */\n      0x20\n        /* \"@openzeppelin/contracts/utils/Address.sol\":6137:6156  add(32, returndata) */\n      add\n        /* \"@openzeppelin/contracts/utils/Address.sol\":6130:6174  revert(add(32, returndata), returndata_size) */\n      revert\n        /* \"@openzeppelin/contracts/utils/Address.sol\":5870:6253  if (returndata.length > 0) {... */\n    tag_449:\n        /* \"@openzeppelin/contracts/utils/Address.sol\":6225:6242  FailedInnerCall() */\n      mload(0x40)\n      0x1425ea4200000000000000000000000000000000000000000000000000000000\n      dup2\n      mstore\n      0x04\n      add\n      mload(0x40)\n      dup1\n      swap2\n      sub\n      swap1\n      revert\n        /* \"#utility.yul\":7:82   */\n    tag_451:\n        /* \"#utility.yul\":40:46   */\n      0x00\n        /* \"#utility.yul\":73:75   */\n      0x40\n        /* \"#utility.yul\":67:76   */\n      mload\n        /* \"#utility.yul\":57:76   */\n      swap1\n      pop\n        /* \"#utility.yul\":7:82   */\n      swap1\n      jump\t// out\n        /* \"#utility.yul\":88:205   */\n    tag_452:\n        /* \"#utility.yul\":197:198   */\n      0x00\n        /* \"#utility.yul\":194:195   */\n      dup1\n        /* \"#utility.yul\":187:199   */\n      revert\n        /* \"#utility.yul\":211:328   */\n    tag_453:\n        /* \"#utility.yul\":320:321   */\n      0x00\n        /* \"#utility.yul\":317:318   */\n      dup1\n        /* \"#utility.yul\":310:322   */\n      revert\n        /* \"#utility.yul\":334:483   */\n    tag_454:\n        /* \"#utility.yul\":370:377   */\n      0x00\n        /* \"#utility.yul\":410:476   */\n      0xffffffff00000000000000000000000000000000000000000000000000000000\n        /* \"#utility.yul\":403:408   */\n      dup3\n        /* \"#utility.yul\":399:477   */\n      and\n        /* \"#utility.yul\":388:477   */\n      swap1\n      pop\n        /* \"#utility.yul\":334:483   */\n      swap2\n      swap1\n      pop\n      jump\t// out\n        /* \"#utility.yul\":489:609   */\n    tag_455:\n        /* \"#utility.yul\":561:584   */\n      tag_541\n        /* \"#utility.yul\":578:583   */\n      dup2\n        /* \"#utility.yul\":561:584   */\n      tag_454\n      jump\t// in\n    tag_541:\n        /* \"#utility.yul\":554:559   */\n      dup2\n        /* \"#utility.yul\":551:585   */\n      eq\n        /* \"#utility.yul\":541:603   */\n      tag_542\n      jumpi\n        /* \"#utility.yul\":599:600   */\n      0x00\n        /* \"#utility.yul\":596:597   */\n      dup1\n        /* \"#utility.yul\":589:601   */\n      revert\n        /* \"#utility.yul\":541:603   */\n    tag_542:\n        /* \"#utility.yul\":489:609   */\n      pop\n      jump\t// out\n        /* \"#utility.yul\":615:752   */\n    tag_456:\n        /* \"#utility.yul\":660:665   */\n      0x00\n        /* \"#utility.yul\":698:704   */\n      dup2\n        /* \"#utility.yul\":685:705   */\n      calldataload\n        /* \"#utility.yul\":676:705   */\n      swap1\n      pop\n        /* \"#utility.yul\":714:746   */\n      tag_544\n        /* \"#utility.yul\":740:745   */\n      dup2\n        /* \"#utility.yul\":714:746   */\n      tag_455\n      jump\t// in\n    tag_544:\n        /* \"#utility.yul\":615:752   */\n      swap3\n      swap2\n      pop\n      pop\n      jump\t// out\n        /* \"#utility.yul\":758:1085   */\n    tag_36:\n        /* \"#utility.yul\":816:822   */\n      0x00\n        /* \"#utility.yul\":865:867   */\n      0x20\n        /* \"#utility.yul\":853:862   */\n      dup3\n        /* \"#utility.yul\":844:851   */\n      dup5\n        /* \"#utility.yul\":840:863   */\n      sub\n        /* \"#utility.yul\":836:868   */\n      slt\n        /* \"#utility.yul\":833:952   */\n      iszero\n      tag_546\n      jumpi\n        /* \"#utility.yul\":871:950   */\n      tag_547\n      tag_452\n      jump\t// in\n    tag_547:\n        /* \"#utility.yul\":833:952   */\n    tag_546:\n        /* \"#utility.yul\":991:992   */\n      0x00\n        /* \"#utility.yul\":1016:1068   */\n      tag_548\n        /* \"#utility.yul\":1060:1067   */\n      dup5\n        /* \"#utility.yul\":1051:1057   */\n      dup3\n        /* \"#utility.yul\":1040:1049   */\n      dup6\n        /* \"#utility.yul\":1036:1058   */\n      add\n        /* \"#utility.yul\":1016:1068   */\n      tag_456\n      jump\t// in\n    tag_548:\n        /* \"#utility.yul\":1006:1068   */\n      swap2\n      pop\n        /* \"#utility.yul\":962:1078   */\n      pop\n        /* \"#utility.yul\":758:1085   */\n      swap3\n      swap2\n      pop\n      pop\n      jump\t// out\n        /* \"#utility.yul\":1091:1181   */\n    tag_457:\n        /* \"#utility.yul\":1125:1132   */\n      0x00\n        /* \"#utility.yul\":1168:1173   */\n      dup2\n        /* \"#utility.yul\":1161:1174   */\n      iszero\n        /* \"#utility.yul\":1154:1175   */\n      iszero\n        /* \"#utility.yul\":1143:1175   */\n      swap1\n      pop\n        /* \"#utility.yul\":1091:1181   */\n      swap2\n      swap1\n      pop\n      jump\t// out\n        /* \"#utility.yul\":1187:1296   */\n    tag_458:\n        /* \"#utility.yul\":1268:1289   */\n      tag_551\n        /* \"#utility.yul\":1283:1288   */\n      dup2\n        /* \"#utility.yul\":1268:1289   */\n      tag_457\n      jump\t// in\n    tag_551:\n        /* \"#utility.yul\":1263:1266   */\n      dup3\n        /* \"#utility.yul\":1256:1290   */\n      mstore\n        /* \"#utility.yul\":1187:1296   */\n      pop\n      pop\n      jump\t// out\n        /* \"#utility.yul\":1302:1512   */\n    tag_39:\n        /* \"#utility.yul\":1389:1393   */\n      0x00\n        /* \"#utility.yul\":1427:1429   */\n      0x20\n        /* \"#utility.yul\":1416:1425   */\n      dup3\n        /* \"#utility.yul\":1412:1430   */\n      add\n        /* \"#utility.yul\":1404:1430   */\n      swap1\n      pop\n        /* \"#utility.yul\":1440:1505   */\n      tag_553\n        /* \"#utility.yul\":1502:1503   */\n      0x00\n        /* \"#utility.yul\":1491:1500   */\n      dup4\n        /* \"#utility.yul\":1487:1504   */\n      add\n        /* \"#utility.yul\":1478:1484   */\n      dup5\n        /* \"#utility.yul\":1440:1505   */\n      tag_458\n      jump\t// in\n    tag_553:\n        /* \"#utility.yul\":1302:1512   */\n      swap3\n      swap2\n      pop\n      pop\n      jump\t// out\n        /* \"#utility.yul\":1518:1595   */\n    tag_459:\n        /* \"#utility.yul\":1555:1562   */\n      0x00\n        /* \"#utility.yul\":1584:1589   */\n      dup2\n        /* \"#utility.yul\":1573:1589   */\n      swap1\n      pop\n        /* \"#utility.yul\":1518:1595   */\n      swap2\n      swap1\n      pop\n      jump\t// out\n        /* \"#utility.yul\":1601:1723   */\n    tag_460:\n        /* \"#utility.yul\":1674:1698   */\n      tag_556\n        /* \"#utility.yul\":1692:1697   */\n      dup2\n        /* \"#utility.yul\":1674:1698   */\n      tag_459\n      jump\t// in\n    tag_556:\n        /* \"#utility.yul\":1667:1672   */\n      dup2\n        /* \"#utility.yul\":1664:1699   */\n      eq\n        /* \"#utility.yul\":1654:1717   */\n      tag_557\n      jumpi\n        /* \"#utility.yul\":1713:1714   */\n      0x00\n        /* \"#utility.yul\":1710:1711   */\n      dup1\n        /* \"#utility.yul\":1703:1715   */\n      revert\n        /* \"#utility.yul\":1654:1717   */\n    tag_557:\n        /* \"#utility.yul\":1601:1723   */\n      pop\n      jump\t// out\n        /* \"#utility.yul\":1729:1868   */\n    tag_461:\n        /* \"#utility.yul\":1775:1780   */\n      0x00\n        /* \"#utility.yul\":1813:1819   */\n      dup2\n        /* \"#utility.yul\":1800:1820   */\n      calldataload\n        /* \"#utility.yul\":1791:1820   */\n      swap1\n      pop\n        /* \"#utility.yul\":1829:1862   */\n      tag_559\n        /* \"#utility.yul\":1856:1861   */\n      dup2\n        /* \"#utility.yul\":1829:1862   */\n      tag_460\n      jump\t// in\n    tag_559:\n        /* \"#utility.yul\":1729:1868   */\n      swap3\n      swap2\n      pop\n      pop\n      jump\t// out\n        /* \"#utility.yul\":1874:2203   */\n    tag_43:\n        /* \"#utility.yul\":1933:1939   */\n      0x00\n        /* \"#utility.yul\":1982:1984   */\n      0x20\n        /* \"#utility.yul\":1970:1979   */\n      dup3\n        /* \"#utility.yul\":1961:1968   */\n      dup5\n        /* \"#utility.yul\":1957:1980   */\n      sub\n        /* \"#utility.yul\":1953:1985   */\n      slt\n        /* \"#utility.yul\":1950:2069   */\n      iszero\n      tag_561\n      jumpi\n        /* \"#utility.yul\":1988:2067   */\n      tag_562\n      tag_452\n      jump\t// in\n    tag_562:\n        /* \"#utility.yul\":1950:2069   */\n    tag_561:\n        /* \"#utility.yul\":2108:2109   */\n      0x00\n        /* \"#utility.yul\":2133:2186   */\n      tag_563\n        /* \"#utility.yul\":2178:2185   */\n      dup5\n        /* \"#utility.yul\":2169:2175   */\n      dup3\n        /* \"#utility.yul\":2158:2167   */\n      dup6\n        /* \"#utility.yul\":2154:2176   */\n      add\n        /* \"#utility.yul\":2133:2186   */\n      tag_461\n      jump\t// in\n    tag_563:\n        /* \"#utility.yul\":2123:2186   */\n      swap2\n      pop\n        /* \"#utility.yul\":2079:2196   */\n      pop\n        /* \"#utility.yul\":1874:2203   */\n      swap3\n      swap2\n      pop\n      pop\n      jump\t// out\n        /* \"#utility.yul\":2209:2327   */\n    tag_462:\n        /* \"#utility.yul\":2296:2320   */\n      tag_565\n        /* \"#utility.yul\":2314:2319   */\n      dup2\n        /* \"#utility.yul\":2296:2320   */\n      tag_459\n      jump\t// in\n    tag_565:\n        /* \"#utility.yul\":2291:2294   */\n      dup3\n        /* \"#utility.yul\":2284:2321   */\n      mstore\n        /* \"#utility.yul\":2209:2327   */\n      pop\n      pop\n      jump\t// out\n        /* \"#utility.yul\":2333:2555   */\n    tag_46:\n        /* \"#utility.yul\":2426:2430   */\n      0x00\n        /* \"#utility.yul\":2464:2466   */\n      0x20\n        /* \"#utility.yul\":2453:2462   */\n      dup3\n        /* \"#utility.yul\":2449:2467   */\n      add\n        /* \"#utility.yul\":2441:2467   */\n      swap1\n      pop\n        /* \"#utility.yul\":2477:2548   */\n      tag_567\n        /* \"#utility.yul\":2545:2546   */\n      0x00\n        /* \"#utility.yul\":2534:2543   */\n      dup4\n        /* \"#utility.yul\":2530:2547   */\n      add\n        /* \"#utility.yul\":2521:2527   */\n      dup5\n        /* \"#utility.yul\":2477:2548   */\n      tag_462\n      jump\t// in\n    tag_567:\n        /* \"#utility.yul\":2333:2555   */\n      swap3\n      swap2\n      pop\n      pop\n      jump\t// out\n        /* \"#utility.yul\":2561:2687   */\n    tag_463:\n        /* \"#utility.yul\":2598:2605   */\n      0x00\n        /* \"#utility.yul\":2638:2680   */\n      0xffffffffffffffffffffffffffffffffffffffff\n        /* \"#utility.yul\":2631:2636   */\n      dup3\n        /* \"#utility.yul\":2627:2681   */\n      and\n        /* \"#utility.yul\":2616:2681   */\n      swap1\n      pop\n        /* \"#utility.yul\":2561:2687   */\n      swap2\n      swap1\n      pop\n      jump\t// out\n        /* \"#utility.yul\":2693:2789   */\n    tag_464:\n        /* \"#utility.yul\":2730:2737   */\n      0x00\n        /* \"#utility.yul\":2759:2783   */\n      tag_570\n        /* \"#utility.yul\":2777:2782   */\n      dup3\n        /* \"#utility.yul\":2759:2783   */\n      tag_463\n      jump\t// in\n    tag_570:\n        /* \"#utility.yul\":2748:2783   */\n      swap1\n      pop\n        /* \"#utility.yul\":2693:2789   */\n      swap2\n      swap1\n      pop\n      jump\t// out\n        /* \"#utility.yul\":2795:2917   */\n    tag_465:\n        /* \"#utility.yul\":2868:2892   */\n      tag_572\n        /* \"#utility.yul\":2886:2891   */\n      dup2\n        /* \"#utility.yul\":2868:2892   */\n      tag_464\n      jump\t// in\n    tag_572:\n        /* \"#utility.yul\":2861:2866   */\n      dup2\n        /* \"#utility.yul\":2858:2893   */\n      eq\n        /* \"#utility.yul\":2848:2911   */\n      tag_573\n      jumpi\n        /* \"#utility.yul\":2907:2908   */\n      0x00\n        /* \"#utility.yul\":2904:2905   */\n      dup1\n        /* \"#utility.yul\":2897:2909   */\n      revert\n        /* \"#utility.yul\":2848:2911   */\n    tag_573:\n        /* \"#utility.yul\":2795:2917   */\n      pop\n      jump\t// out\n        /* \"#utility.yul\":2923:3062   */\n    tag_466:\n        /* \"#utility.yul\":2969:2974   */\n      0x00\n        /* \"#utility.yul\":3007:3013   */\n      dup2\n        /* \"#utility.yul\":2994:3014   */\n      calldataload\n        /* \"#utility.yul\":2985:3014   */\n      swap1\n      pop\n        /* \"#utility.yul\":3023:3056   */\n      tag_575\n        /* \"#utility.yul\":3050:3055   */\n      dup2\n        /* \"#utility.yul\":3023:3056   */\n      tag_465\n      jump\t// in\n    tag_575:\n        /* \"#utility.yul\":2923:3062   */\n      swap3\n      swap2\n      pop\n      pop\n      jump\t// out\n        /* \"#utility.yul\":3068:3542   */\n    tag_50:\n        /* \"#utility.yul\":3136:3142   */\n      0x00\n        /* \"#utility.yul\":3144:3150   */\n      dup1\n        /* \"#utility.yul\":3193:3195   */\n      0x40\n        /* \"#utility.yul\":3181:3190   */\n      dup4\n        /* \"#utility.yul\":3172:3179   */\n      dup6\n        /* \"#utility.yul\":3168:3191   */\n      sub\n        /* \"#utility.yul\":3164:3196   */\n      slt\n        /* \"#utility.yul\":3161:3280   */\n      iszero\n      tag_577\n      jumpi\n        /* \"#utility.yul\":3199:3278   */\n      tag_578\n      tag_452\n      jump\t// in\n    tag_578:\n        /* \"#utility.yul\":3161:3280   */\n    tag_577:\n        /* \"#utility.yul\":3319:3320   */\n      0x00\n        /* \"#utility.yul\":3344:3397   */\n      tag_579\n        /* \"#utility.yul\":3389:3396   */\n      dup6\n        /* \"#utility.yul\":3380:3386   */\n      dup3\n        /* \"#utility.yul\":3369:3378   */\n      dup7\n        /* \"#utility.yul\":3365:3387   */\n      add\n        /* \"#utility.yul\":3344:3397   */\n      tag_461\n      jump\t// in\n    tag_579:\n        /* \"#utility.yul\":3334:3397   */\n      swap3\n      pop\n        /* \"#utility.yul\":3290:3407   */\n      pop\n        /* \"#utility.yul\":3446:3448   */\n      0x20\n        /* \"#utility.yul\":3472:3525   */\n      tag_580\n        /* \"#utility.yul\":3517:3524   */\n      dup6\n        /* \"#utility.yul\":3508:3514   */\n      dup3\n        /* \"#utility.yul\":3497:3506   */\n      dup7\n        /* \"#utility.yul\":3493:3515   */\n      add\n        /* \"#utility.yul\":3472:3525   */\n      tag_466\n      jump\t// in\n    tag_580:\n        /* \"#utility.yul\":3462:3525   */\n      swap2\n      pop\n        /* \"#utility.yul\":3417:3535   */\n      pop\n        /* \"#utility.yul\":3068:3542   */\n      swap3\n      pop\n      swap3\n      swap1\n      pop\n      jump\t// out\n        /* \"#utility.yul\":3548:3665   */\n    tag_467:\n        /* \"#utility.yul\":3657:3658   */\n      0x00\n        /* \"#utility.yul\":3654:3655   */\n      dup1\n        /* \"#utility.yul\":3647:3659   */\n      revert\n        /* \"#utility.yul\":3671:3788   */\n    tag_468:\n        /* \"#utility.yul\":3780:3781   */\n      0x00\n        /* \"#utility.yul\":3777:3778   */\n      dup1\n        /* \"#utility.yul\":3770:3782   */\n      revert\n        /* \"#utility.yul\":3794:3896   */\n    tag_469:\n        /* \"#utility.yul\":3835:3841   */\n      0x00\n        /* \"#utility.yul\":3886:3888   */\n      0x1f\n        /* \"#utility.yul\":3882:3889   */\n      not\n        /* \"#utility.yul\":3877:3879   */\n      0x1f\n        /* \"#utility.yul\":3870:3875   */\n      dup4\n        /* \"#utility.yul\":3866:3880   */\n      add\n        /* \"#utility.yul\":3862:3890   */\n      and\n        /* \"#utility.yul\":3852:3890   */\n      swap1\n      pop\n        /* \"#utility.yul\":3794:3896   */\n      swap2\n      swap1\n      pop\n      jump\t// out\n        /* \"#utility.yul\":3902:4082   */\n    tag_470:\n        /* \"#utility.yul\":3950:4027   */\n      0x4e487b7100000000000000000000000000000000000000000000000000000000\n        /* \"#utility.yul\":3947:3948   */\n      0x00\n        /* \"#utility.yul\":3940:4028   */\n      mstore\n        /* \"#utility.yul\":4047:4051   */\n      0x41\n        /* \"#utility.yul\":4044:4045   */\n      0x04\n        /* \"#utility.yul\":4037:4052   */\n      mstore\n        /* \"#utility.yul\":4071:4075   */\n      0x24\n        /* \"#utility.yul\":4068:4069   */\n      0x00\n        /* \"#utility.yul\":4061:4076   */\n      revert\n        /* \"#utility.yul\":4088:4369   */\n    tag_471:\n        /* \"#utility.yul\":4171:4198   */\n      tag_586\n        /* \"#utility.yul\":4193:4197   */\n      dup3\n        /* \"#utility.yul\":4171:4198   */\n      tag_469\n      jump\t// in\n    tag_586:\n        /* \"#utility.yul\":4163:4169   */\n      dup2\n        /* \"#utility.yul\":4159:4199   */\n      add\n        /* \"#utility.yul\":4301:4307   */\n      dup2\n        /* \"#utility.yul\":4289:4299   */\n      dup2\n        /* \"#utility.yul\":4286:4308   */\n      lt\n        /* \"#utility.yul\":4265:4283   */\n      0xffffffffffffffff\n        /* \"#utility.yul\":4253:4263   */\n      dup3\n        /* \"#utility.yul\":4250:4284   */\n      gt\n        /* \"#utility.yul\":4247:4309   */\n      or\n        /* \"#utility.yul\":4244:4332   */\n      iszero\n      tag_587\n      jumpi\n        /* \"#utility.yul\":4312:4330   */\n      tag_588\n      tag_470\n      jump\t// in\n    tag_588:\n        /* \"#utility.yul\":4244:4332   */\n    tag_587:\n        /* \"#utility.yul\":4352:4362   */\n      dup1\n        /* \"#utility.yul\":4348:4350   */\n      0x40\n        /* \"#utility.yul\":4341:4363   */\n      mstore\n        /* \"#utility.yul\":4131:4369   */\n      pop\n        /* \"#utility.yul\":4088:4369   */\n      pop\n      pop\n      jump\t// out\n        /* \"#utility.yul\":4375:4504   */\n    tag_472:\n        /* \"#utility.yul\":4409:4415   */\n      0x00\n        /* \"#utility.yul\":4436:4456   */\n      tag_590\n      tag_451\n      jump\t// in\n    tag_590:\n        /* \"#utility.yul\":4426:4456   */\n      swap1\n      pop\n        /* \"#utility.yul\":4465:4498   */\n      tag_591\n        /* \"#utility.yul\":4493:4497   */\n      dup3\n        /* \"#utility.yul\":4485:4491   */\n      dup3\n        /* \"#utility.yul\":4465:4498   */\n      tag_471\n      jump\t// in\n    tag_591:\n        /* \"#utility.yul\":4375:4504   */\n      swap2\n      swap1\n      pop\n      jump\t// out\n        /* \"#utility.yul\":4510:4818   */\n    tag_473:\n        /* \"#utility.yul\":4572:4576   */\n      0x00\n        /* \"#utility.yul\":4662:4680   */\n      0xffffffffffffffff\n        /* \"#utility.yul\":4654:4660   */\n      dup3\n        /* \"#utility.yul\":4651:4681   */\n      gt\n        /* \"#utility.yul\":4648:4704   */\n      iszero\n      tag_593\n      jumpi\n        /* \"#utility.yul\":4684:4702   */\n      tag_594\n      tag_470\n      jump\t// in\n    tag_594:\n        /* \"#utility.yul\":4648:4704   */\n    tag_593:\n        /* \"#utility.yul\":4722:4751   */\n      tag_595\n        /* \"#utility.yul\":4744:4750   */\n      dup3\n        /* \"#utility.yul\":4722:4751   */\n      tag_469\n      jump\t// in\n    tag_595:\n        /* \"#utility.yul\":4714:4751   */\n      swap1\n      pop\n        /* \"#utility.yul\":4806:4810   */\n      0x20\n        /* \"#utility.yul\":4800:4804   */\n      dup2\n        /* \"#utility.yul\":4796:4811   */\n      add\n        /* \"#utility.yul\":4788:4811   */\n      swap1\n      pop\n        /* \"#utility.yul\":4510:4818   */\n      swap2\n      swap1\n      pop\n      jump\t// out\n        /* \"#utility.yul\":4824:4970   */\n    tag_474:\n        /* \"#utility.yul\":4921:4927   */\n      dup3\n        /* \"#utility.yul\":4916:4919   */\n      dup2\n        /* \"#utility.yul\":4911:4914   */\n      dup4\n        /* \"#utility.yul\":4898:4928   */\n      calldatacopy\n        /* \"#utility.yul\":4962:4963   */\n      0x00\n        /* \"#utility.yul\":4953:4959   */\n      dup4\n        /* \"#utility.yul\":4948:4951   */\n      dup4\n        /* \"#utility.yul\":4944:4960   */\n      add\n        /* \"#utility.yul\":4937:4964   */\n      mstore\n        /* \"#utility.yul\":4824:4970   */\n      pop\n      pop\n      pop\n      jump\t// out\n        /* \"#utility.yul\":4976:5401   */\n    tag_475:\n        /* \"#utility.yul\":5054:5059   */\n      0x00\n        /* \"#utility.yul\":5079:5145   */\n      tag_598\n        /* \"#utility.yul\":5095:5144   */\n      tag_599\n        /* \"#utility.yul\":5137:5143   */\n      dup5\n        /* \"#utility.yul\":5095:5144   */\n      tag_473\n      jump\t// in\n    tag_599:\n        /* \"#utility.yul\":5079:5145   */\n      tag_472\n      jump\t// in\n    tag_598:\n        /* \"#utility.yul\":5070:5145   */\n      swap1\n      pop\n        /* \"#utility.yul\":5168:5174   */\n      dup3\n        /* \"#utility.yul\":5161:5166   */\n      dup2\n        /* \"#utility.yul\":5154:5175   */\n      mstore\n        /* \"#utility.yul\":5206:5210   */\n      0x20\n        /* \"#utility.yul\":5199:5204   */\n      dup2\n        /* \"#utility.yul\":5195:5211   */\n      add\n        /* \"#utility.yul\":5244:5247   */\n      dup5\n        /* \"#utility.yul\":5235:5241   */\n      dup5\n        /* \"#utility.yul\":5230:5233   */\n      dup5\n        /* \"#utility.yul\":5226:5242   */\n      add\n        /* \"#utility.yul\":5223:5248   */\n      gt\n        /* \"#utility.yul\":5220:5332   */\n      iszero\n      tag_600\n      jumpi\n        /* \"#utility.yul\":5251:5330   */\n      tag_601\n      tag_468\n      jump\t// in\n    tag_601:\n        /* \"#utility.yul\":5220:5332   */\n    tag_600:\n        /* \"#utility.yul\":5341:5395   */\n      tag_602\n        /* \"#utility.yul\":5388:5394   */\n      dup5\n        /* \"#utility.yul\":5383:5386   */\n      dup3\n        /* \"#utility.yul\":5378:5381   */\n      dup6\n        /* \"#utility.yul\":5341:5395   */\n      tag_474\n      jump\t// in\n    tag_602:\n        /* \"#utility.yul\":5060:5401   */\n      pop\n        /* \"#utility.yul\":4976:5401   */\n      swap4\n      swap3\n      pop\n      pop\n      pop\n      jump\t// out\n        /* \"#utility.yul\":5421:5761   */\n    tag_476:\n        /* \"#utility.yul\":5477:5482   */\n      0x00\n        /* \"#utility.yul\":5526:5529   */\n      dup3\n        /* \"#utility.yul\":5519:5523   */\n      0x1f\n        /* \"#utility.yul\":5511:5517   */\n      dup4\n        /* \"#utility.yul\":5507:5524   */\n      add\n        /* \"#utility.yul\":5503:5530   */\n      slt\n        /* \"#utility.yul\":5493:5615   */\n      tag_604\n      jumpi\n        /* \"#utility.yul\":5534:5613   */\n      tag_605\n      tag_467\n      jump\t// in\n    tag_605:\n        /* \"#utility.yul\":5493:5615   */\n    tag_604:\n        /* \"#utility.yul\":5651:5657   */\n      dup2\n        /* \"#utility.yul\":5638:5658   */\n      calldataload\n        /* \"#utility.yul\":5676:5755   */\n      tag_606\n        /* \"#utility.yul\":5751:5754   */\n      dup5\n        /* \"#utility.yul\":5743:5749   */\n      dup3\n        /* \"#utility.yul\":5736:5740   */\n      0x20\n        /* \"#utility.yul\":5728:5734   */\n      dup7\n        /* \"#utility.yul\":5724:5741   */\n      add\n        /* \"#utility.yul\":5676:5755   */\n      tag_475\n      jump\t// in\n    tag_606:\n        /* \"#utility.yul\":5667:5755   */\n      swap2\n      pop\n        /* \"#utility.yul\":5483:5761   */\n      pop\n        /* \"#utility.yul\":5421:5761   */\n      swap3\n      swap2\n      pop\n      pop\n      jump\t// out\n        /* \"#utility.yul\":5767:6276   */\n    tag_62:\n        /* \"#utility.yul\":5836:5842   */\n      0x00\n        /* \"#utility.yul\":5885:5887   */\n      0x20\n        /* \"#utility.yul\":5873:5882   */\n      dup3\n        /* \"#utility.yul\":5864:5871   */\n      dup5\n        /* \"#utility.yul\":5860:5883   */\n      sub\n        /* \"#utility.yul\":5856:5888   */\n      slt\n        /* \"#utility.yul\":5853:5972   */\n      iszero\n      tag_608\n      jumpi\n        /* \"#utility.yul\":5891:5970   */\n      tag_609\n      tag_452\n      jump\t// in\n    tag_609:\n        /* \"#utility.yul\":5853:5972   */\n    tag_608:\n        /* \"#utility.yul\":6039:6040   */\n      0x00\n        /* \"#utility.yul\":6028:6037   */\n      dup3\n        /* \"#utility.yul\":6024:6041   */\n      add\n        /* \"#utility.yul\":6011:6042   */\n      calldataload\n        /* \"#utility.yul\":6069:6087   */\n      0xffffffffffffffff\n        /* \"#utility.yul\":6061:6067   */\n      dup2\n        /* \"#utility.yul\":6058:6088   */\n      gt\n        /* \"#utility.yul\":6055:6172   */\n      iszero\n      tag_610\n      jumpi\n        /* \"#utility.yul\":6091:6170   */\n      tag_611\n      tag_453\n      jump\t// in\n    tag_611:\n        /* \"#utility.yul\":6055:6172   */\n    tag_610:\n        /* \"#utility.yul\":6196:6259   */\n      tag_612\n        /* \"#utility.yul\":6251:6258   */\n      dup5\n        /* \"#utility.yul\":6242:6248   */\n      dup3\n        /* \"#utility.yul\":6231:6240   */\n      dup6\n        /* \"#utility.yul\":6227:6249   */\n      add\n        /* \"#utility.yul\":6196:6259   */\n      tag_476\n      jump\t// in\n    tag_612:\n        /* \"#utility.yul\":6186:6259   */\n      swap2\n      pop\n        /* \"#utility.yul\":5982:6269   */\n      pop\n        /* \"#utility.yul\":5767:6276   */\n      swap3\n      swap2\n      pop\n      pop\n      jump\t// out\n        /* \"#utility.yul\":6282:6400   */\n    tag_477:\n        /* \"#utility.yul\":6369:6393   */\n      tag_614\n        /* \"#utility.yul\":6387:6392   */\n      dup2\n        /* \"#utility.yul\":6369:6393   */\n      tag_464\n      jump\t// in\n    tag_614:\n        /* \"#utility.yul\":6364:6367   */\n      dup3\n        /* \"#utility.yul\":6357:6394   */\n      mstore\n        /* \"#utility.yul\":6282:6400   */\n      pop\n      pop\n      jump\t// out\n        /* \"#utility.yul\":6406:6505   */\n    tag_478:\n        /* \"#utility.yul\":6458:6464   */\n      0x00\n        /* \"#utility.yul\":6492:6497   */\n      dup2\n        /* \"#utility.yul\":6486:6498   */\n      mload\n        /* \"#utility.yul\":6476:6498   */\n      swap1\n      pop\n        /* \"#utility.yul\":6406:6505   */\n      swap2\n      swap1\n      pop\n      jump\t// out\n        /* \"#utility.yul\":6511:6680   */\n    tag_479:\n        /* \"#utility.yul\":6595:6606   */\n      0x00\n        /* \"#utility.yul\":6629:6635   */\n      dup3\n        /* \"#utility.yul\":6624:6627   */\n      dup3\n        /* \"#utility.yul\":6617:6636   */\n      mstore\n        /* \"#utility.yul\":6669:6673   */\n      0x20\n        /* \"#utility.yul\":6664:6667   */\n      dup3\n        /* \"#utility.yul\":6660:6674   */\n      add\n        /* \"#utility.yul\":6645:6674   */\n      swap1\n      pop\n        /* \"#utility.yul\":6511:6680   */\n      swap3\n      swap2\n      pop\n      pop\n      jump\t// out\n        /* \"#utility.yul\":6686:6932   */\n    tag_480:\n        /* \"#utility.yul\":6767:6768   */\n      0x00\n        /* \"#utility.yul\":6777:6890   */\n    tag_618:\n        /* \"#utility.yul\":6791:6797   */\n      dup4\n        /* \"#utility.yul\":6788:6789   */\n      dup2\n        /* \"#utility.yul\":6785:6798   */\n      lt\n        /* \"#utility.yul\":6777:6890   */\n      iszero\n      tag_620\n      jumpi\n        /* \"#utility.yul\":6876:6877   */\n      dup1\n        /* \"#utility.yul\":6871:6874   */\n      dup3\n        /* \"#utility.yul\":6867:6878   */\n      add\n        /* \"#utility.yul\":6861:6879   */\n      mload\n        /* \"#utility.yul\":6857:6858   */\n      dup2\n        /* \"#utility.yul\":6852:6855   */\n      dup5\n        /* \"#utility.yul\":6848:6859   */\n      add\n        /* \"#utility.yul\":6841:6880   */\n      mstore\n        /* \"#utility.yul\":6813:6815   */\n      0x20\n        /* \"#utility.yul\":6810:6811   */\n      dup2\n        /* \"#utility.yul\":6806:6816   */\n      add\n        /* \"#utility.yul\":6801:6816   */\n      swap1\n      pop\n        /* \"#utility.yul\":6777:6890   */\n      jump(tag_618)\n    tag_620:\n        /* \"#utility.yul\":6924:6925   */\n      0x00\n        /* \"#utility.yul\":6915:6921   */\n      dup5\n        /* \"#utility.yul\":6910:6913   */\n      dup5\n        /* \"#utility.yul\":6906:6922   */\n      add\n        /* \"#utility.yul\":6899:6926   */\n      mstore\n        /* \"#utility.yul\":6748:6932   */\n      pop\n        /* \"#utility.yul\":6686:6932   */\n      pop\n      pop\n      pop\n      jump\t// out\n        /* \"#utility.yul\":6938:7315   */\n    tag_481:\n        /* \"#utility.yul\":7026:7029   */\n      0x00\n        /* \"#utility.yul\":7054:7093   */\n      tag_622\n        /* \"#utility.yul\":7087:7092   */\n      dup3\n        /* \"#utility.yul\":7054:7093   */\n      tag_478\n      jump\t// in\n    tag_622:\n        /* \"#utility.yul\":7109:7180   */\n      tag_623\n        /* \"#utility.yul\":7173:7179   */\n      dup2\n        /* \"#utility.yul\":7168:7171   */\n      dup6\n        /* \"#utility.yul\":7109:7180   */\n      tag_479\n      jump\t// in\n    tag_623:\n        /* \"#utility.yul\":7102:7180   */\n      swap4\n      pop\n        /* \"#utility.yul\":7189:7254   */\n      tag_624\n        /* \"#utility.yul\":7247:7253   */\n      dup2\n        /* \"#utility.yul\":7242:7245   */\n      dup6\n        /* \"#utility.yul\":7235:7239   */\n      0x20\n        /* \"#utility.yul\":7228:7233   */\n      dup7\n        /* \"#utility.yul\":7224:7240   */\n      add\n        /* \"#utility.yul\":7189:7254   */\n      tag_480\n      jump\t// in\n    tag_624:\n        /* \"#utility.yul\":7279:7308   */\n      tag_625\n        /* \"#utility.yul\":7301:7307   */\n      dup2\n        /* \"#utility.yul\":7279:7308   */\n      tag_469\n      jump\t// in\n    tag_625:\n        /* \"#utility.yul\":7274:7277   */\n      dup5\n        /* \"#utility.yul\":7270:7309   */\n      add\n        /* \"#utility.yul\":7263:7309   */\n      swap2\n      pop\n        /* \"#utility.yul\":7030:7315   */\n      pop\n        /* \"#utility.yul\":6938:7315   */\n      swap3\n      swap2\n      pop\n      pop\n      jump\t// out\n        /* \"#utility.yul\":7321:7397   */\n    tag_482:\n        /* \"#utility.yul\":7357:7364   */\n      0x00\n        /* \"#utility.yul\":7386:7391   */\n      dup2\n        /* \"#utility.yul\":7375:7391   */\n      swap1\n      pop\n        /* \"#utility.yul\":7321:7397   */\n      swap2\n      swap1\n      pop\n      jump\t// out\n        /* \"#utility.yul\":7403:7518   */\n    tag_483:\n        /* \"#utility.yul\":7488:7511   */\n      tag_628\n        /* \"#utility.yul\":7505:7510   */\n      dup2\n        /* \"#utility.yul\":7488:7511   */\n      tag_482\n      jump\t// in\n    tag_628:\n        /* \"#utility.yul\":7483:7486   */\n      dup3\n        /* \"#utility.yul\":7476:7512   */\n      mstore\n        /* \"#utility.yul\":7403:7518   */\n      pop\n      pop\n      jump\t// out\n        /* \"#utility.yul\":7524:8671   */\n    tag_65:\n        /* \"#utility.yul\":7837:7841   */\n      0x00\n        /* \"#utility.yul\":7875:7878   */\n      0x0100\n        /* \"#utility.yul\":7864:7873   */\n      dup3\n        /* \"#utility.yul\":7860:7879   */\n      add\n        /* \"#utility.yul\":7852:7879   */\n      swap1\n      pop\n        /* \"#utility.yul\":7889:7960   */\n      tag_630\n        /* \"#utility.yul\":7957:7958   */\n      0x00\n        /* \"#utility.yul\":7946:7955   */\n      dup4\n        /* \"#utility.yul\":7942:7959   */\n      add\n        /* \"#utility.yul\":7933:7939   */\n      dup12\n        /* \"#utility.yul\":7889:7960   */\n      tag_477\n      jump\t// in\n    tag_630:\n        /* \"#utility.yul\":7970:8042   */\n      tag_631\n        /* \"#utility.yul\":8038:8040   */\n      0x20\n        /* \"#utility.yul\":8027:8036   */\n      dup4\n        /* \"#utility.yul\":8023:8041   */\n      add\n        /* \"#utility.yul\":8014:8020   */\n      dup11\n        /* \"#utility.yul\":7970:8042   */\n      tag_477\n      jump\t// in\n    tag_631:\n        /* \"#utility.yul\":8089:8098   */\n      dup2\n        /* \"#utility.yul\":8083:8087   */\n      dup2\n        /* \"#utility.yul\":8079:8099   */\n      sub\n        /* \"#utility.yul\":8074:8076   */\n      0x40\n        /* \"#utility.yul\":8063:8072   */\n      dup4\n        /* \"#utility.yul\":8059:8077   */\n      add\n        /* \"#utility.yul\":8052:8100   */\n      mstore\n        /* \"#utility.yul\":8117:8195   */\n      tag_632\n        /* \"#utility.yul\":8190:8194   */\n      dup2\n        /* \"#utility.yul\":8181:8187   */\n      dup10\n        /* \"#utility.yul\":8117:8195   */\n      tag_481\n      jump\t// in\n    tag_632:\n        /* \"#utility.yul\":8109:8195   */\n      swap1\n      pop\n        /* \"#utility.yul\":8205:8275   */\n      tag_633\n        /* \"#utility.yul\":8271:8273   */\n      0x60\n        /* \"#utility.yul\":8260:8269   */\n      dup4\n        /* \"#utility.yul\":8256:8274   */\n      add\n        /* \"#utility.yul\":8247:8253   */\n      dup9\n        /* \"#utility.yul\":8205:8275   */\n      tag_483\n      jump\t// in\n    tag_633:\n        /* \"#utility.yul\":8285:8356   */\n      tag_634\n        /* \"#utility.yul\":8351:8354   */\n      0x80\n        /* \"#utility.yul\":8340:8349   */\n      dup4\n        /* \"#utility.yul\":8336:8355   */\n      add\n        /* \"#utility.yul\":8327:8333   */\n      dup8\n        /* \"#utility.yul\":8285:8356   */\n      tag_483\n      jump\t// in\n    tag_634:\n        /* \"#utility.yul\":8404:8413   */\n      dup2\n        /* \"#utility.yul\":8398:8402   */\n      dup2\n        /* \"#utility.yul\":8394:8414   */\n      sub\n        /* \"#utility.yul\":8388:8391   */\n      0xa0\n        /* \"#utility.yul\":8377:8386   */\n      dup4\n        /* \"#utility.yul\":8373:8392   */\n      add\n        /* \"#utility.yul\":8366:8415   */\n      mstore\n        /* \"#utility.yul\":8432:8510   */\n      tag_635\n        /* \"#utility.yul\":8505:8509   */\n      dup2\n        /* \"#utility.yul\":8496:8502   */\n      dup7\n        /* \"#utility.yul\":8432:8510   */\n      tag_481\n      jump\t// in\n    tag_635:\n        /* \"#utility.yul\":8424:8510   */\n      swap1\n      pop\n        /* \"#utility.yul\":8520:8587   */\n      tag_636\n        /* \"#utility.yul\":8582:8585   */\n      0xc0\n        /* \"#utility.yul\":8571:8580   */\n      dup4\n        /* \"#utility.yul\":8567:8586   */\n      add\n        /* \"#utility.yul\":8558:8564   */\n      dup6\n        /* \"#utility.yul\":8520:8587   */\n      tag_458\n      jump\t// in\n    tag_636:\n        /* \"#utility.yul\":8597:8664   */\n      tag_637\n        /* \"#utility.yul\":8659:8662   */\n      0xe0\n        /* \"#utility.yul\":8648:8657   */\n      dup4\n        /* \"#utility.yul\":8644:8663   */\n      add\n        /* \"#utility.yul\":8635:8641   */\n      dup5\n        /* \"#utility.yul\":8597:8664   */\n      tag_458\n      jump\t// in\n    tag_637:\n        /* \"#utility.yul\":7524:8671   */\n      swap10\n      swap9\n      pop\n      pop\n      pop\n      pop\n      pop\n      pop\n      pop\n      pop\n      pop\n      jump\t// out\n        /* \"#utility.yul\":8677:8984   */\n    tag_484:\n        /* \"#utility.yul\":8738:8742   */\n      0x00\n        /* \"#utility.yul\":8828:8846   */\n      0xffffffffffffffff\n        /* \"#utility.yul\":8820:8826   */\n      dup3\n        /* \"#utility.yul\":8817:8847   */\n      gt\n        /* \"#utility.yul\":8814:8870   */\n      iszero\n      tag_639\n      jumpi\n        /* \"#utility.yul\":8850:8868   */\n      tag_640\n      tag_470\n      jump\t// in\n    tag_640:\n        /* \"#utility.yul\":8814:8870   */\n    tag_639:\n        /* \"#utility.yul\":8888:8917   */\n      tag_641\n        /* \"#utility.yul\":8910:8916   */\n      dup3\n        /* \"#utility.yul\":8888:8917   */\n      tag_469\n      jump\t// in\n    tag_641:\n        /* \"#utility.yul\":8880:8917   */\n      swap1\n      pop\n        /* \"#utility.yul\":8972:8976   */\n      0x20\n        /* \"#utility.yul\":8966:8970   */\n      dup2\n        /* \"#utility.yul\":8962:8977   */\n      add\n        /* \"#utility.yul\":8954:8977   */\n      swap1\n      pop\n        /* \"#utility.yul\":8677:8984   */\n      swap2\n      swap1\n      pop\n      jump\t// out\n        /* \"#utility.yul\":8990:9413   */\n    tag_485:\n        /* \"#utility.yul\":9067:9072   */\n      0x00\n        /* \"#utility.yul\":9092:9157   */\n      tag_643\n        /* \"#utility.yul\":9108:9156   */\n      tag_644\n        /* \"#utility.yul\":9149:9155   */\n      dup5\n        /* \"#utility.yul\":9108:9156   */\n      tag_484\n      jump\t// in\n    tag_644:\n        /* \"#utility.yul\":9092:9157   */\n      tag_472\n      jump\t// in\n    tag_643:\n        /* \"#utility.yul\":9083:9157   */\n      swap1\n      pop\n        /* \"#utility.yul\":9180:9186   */\n      dup3\n        /* \"#utility.yul\":9173:9178   */\n      dup2\n        /* \"#utility.yul\":9166:9187   */\n      mstore\n        /* \"#utility.yul\":9218:9222   */\n      0x20\n        /* \"#utility.yul\":9211:9216   */\n      dup2\n        /* \"#utility.yul\":9207:9223   */\n      add\n        /* \"#utility.yul\":9256:9259   */\n      dup5\n        /* \"#utility.yul\":9247:9253   */\n      dup5\n        /* \"#utility.yul\":9242:9245   */\n      dup5\n        /* \"#utility.yul\":9238:9254   */\n      add\n        /* \"#utility.yul\":9235:9260   */\n      gt\n        /* \"#utility.yul\":9232:9344   */\n      iszero\n      tag_645\n      jumpi\n        /* \"#utility.yul\":9263:9342   */\n      tag_646\n      tag_468\n      jump\t// in\n    tag_646:\n        /* \"#utility.yul\":9232:9344   */\n    tag_645:\n        /* \"#utility.yul\":9353:9407   */\n      tag_647\n        /* \"#utility.yul\":9400:9406   */\n      dup5\n        /* \"#utility.yul\":9395:9398   */\n      dup3\n        /* \"#utility.yul\":9390:9393   */\n      dup6\n        /* \"#utility.yul\":9353:9407   */\n      tag_474\n      jump\t// in\n    tag_647:\n        /* \"#utility.yul\":9073:9413   */\n      pop\n        /* \"#utility.yul\":8990:9413   */\n      swap4\n      swap3\n      pop\n      pop\n      pop\n      jump\t// out\n        /* \"#utility.yul\":9432:9770   */\n    tag_486:\n        /* \"#utility.yul\":9487:9492   */\n      0x00\n        /* \"#utility.yul\":9536:9539   */\n      dup3\n        /* \"#utility.yul\":9529:9533   */\n      0x1f\n        /* \"#utility.yul\":9521:9527   */\n      dup4\n        /* \"#utility.yul\":9517:9534   */\n      add\n        /* \"#utility.yul\":9513:9540   */\n      slt\n        /* \"#utility.yul\":9503:9625   */\n      tag_649\n      jumpi\n        /* \"#utility.yul\":9544:9623   */\n      tag_650\n      tag_467\n      jump\t// in\n    tag_650:\n        /* \"#utility.yul\":9503:9625   */\n    tag_649:\n        /* \"#utility.yul\":9661:9667   */\n      dup2\n        /* \"#utility.yul\":9648:9668   */\n      calldataload\n        /* \"#utility.yul\":9686:9764   */\n      tag_651\n        /* \"#utility.yul\":9760:9763   */\n      dup5\n        /* \"#utility.yul\":9752:9758   */\n      dup3\n        /* \"#utility.yul\":9745:9749   */\n      0x20\n        /* \"#utility.yul\":9737:9743   */\n      dup7\n        /* \"#utility.yul\":9733:9750   */\n      add\n        /* \"#utility.yul\":9686:9764   */\n      tag_485\n      jump\t// in\n    tag_651:\n        /* \"#utility.yul\":9677:9764   */\n      swap2\n      pop\n        /* \"#utility.yul\":9493:9770   */\n      pop\n        /* \"#utility.yul\":9432:9770   */\n      swap3\n      swap2\n      pop\n      pop\n      jump\t// out\n        /* \"#utility.yul\":9776:10428   */\n    tag_68:\n        /* \"#utility.yul\":9853:9859   */\n      0x00\n        /* \"#utility.yul\":9861:9867   */\n      dup1\n        /* \"#utility.yul\":9910:9912   */\n      0x40\n        /* \"#utility.yul\":9898:9907   */\n      dup4\n        /* \"#utility.yul\":9889:9896   */\n      dup6\n        /* \"#utility.yul\":9885:9908   */\n      sub\n        /* \"#utility.yul\":9881:9913   */\n      slt\n        /* \"#utility.yul\":9878:9997   */\n      iszero\n      tag_653\n      jumpi\n        /* \"#utility.yul\":9916:9995   */\n      tag_654\n      tag_452\n      jump\t// in\n    tag_654:\n        /* \"#utility.yul\":9878:9997   */\n    tag_653:\n        /* \"#utility.yul\":10036:10037   */\n      0x00\n        /* \"#utility.yul\":10061:10114   */\n      tag_655\n        /* \"#utility.yul\":10106:10113   */\n      dup6\n        /* \"#utility.yul\":10097:10103   */\n      dup3\n        /* \"#utility.yul\":10086:10095   */\n      dup7\n        /* \"#utility.yul\":10082:10104   */\n      add\n        /* \"#utility.yul\":10061:10114   */\n      tag_466\n      jump\t// in\n    tag_655:\n        /* \"#utility.yul\":10051:10114   */\n      swap3\n      pop\n        /* \"#utility.yul\":10007:10124   */\n      pop\n        /* \"#utility.yul\":10191:10193   */\n      0x20\n        /* \"#utility.yul\":10180:10189   */\n      dup4\n        /* \"#utility.yul\":10176:10194   */\n      add\n        /* \"#utility.yul\":10163:10195   */\n      calldataload\n        /* \"#utility.yul\":10222:10240   */\n      0xffffffffffffffff\n        /* \"#utility.yul\":10214:10220   */\n      dup2\n        /* \"#utility.yul\":10211:10241   */\n      gt\n        /* \"#utility.yul\":10208:10325   */\n      iszero\n      tag_656\n      jumpi\n        /* \"#utility.yul\":10244:10323   */\n      tag_657\n      tag_453\n      jump\t// in\n    tag_657:\n        /* \"#utility.yul\":10208:10325   */\n    tag_656:\n        /* \"#utility.yul\":10349:10411   */\n      tag_658\n        /* \"#utility.yul\":10403:10410   */\n      dup6\n        /* \"#utility.yul\":10394:10400   */\n      dup3\n        /* \"#utility.yul\":10383:10392   */\n      dup7\n        /* \"#utility.yul\":10379:10401   */\n      add\n        /* \"#utility.yul\":10349:10411   */\n      tag_486\n      jump\t// in\n    tag_658:\n        /* \"#utility.yul\":10339:10411   */\n      swap2\n      pop\n        /* \"#utility.yul\":10134:10421   */\n      pop\n        /* \"#utility.yul\":9776:10428   */\n      swap3\n      pop\n      swap3\n      swap1\n      pop\n      jump\t// out\n        /* \"#utility.yul\":10434:10511   */\n    tag_487:\n        /* \"#utility.yul\":10471:10478   */\n      0x00\n        /* \"#utility.yul\":10500:10505   */\n      dup2\n        /* \"#utility.yul\":10489:10505   */\n      swap1\n      pop\n        /* \"#utility.yul\":10434:10511   */\n      swap2\n      swap1\n      pop\n      jump\t// out\n        /* \"#utility.yul\":10517:10639   */\n    tag_488:\n        /* \"#utility.yul\":10590:10614   */\n      tag_661\n        /* \"#utility.yul\":10608:10613   */\n      dup2\n        /* \"#utility.yul\":10590:10614   */\n      tag_487\n      jump\t// in\n    tag_661:\n        /* \"#utility.yul\":10583:10588   */\n      dup2\n        /* \"#utility.yul\":10580:10615   */\n      eq\n        /* \"#utility.yul\":10570:10633   */\n      tag_662\n      jumpi\n        /* \"#utility.yul\":10629:10630   */\n      0x00\n        /* \"#utility.yul\":10626:10627   */\n      dup1\n        /* \"#utility.yul\":10619:10631   */\n      revert\n        /* \"#utility.yul\":10570:10633   */\n    tag_662:\n        /* \"#utility.yul\":10517:10639   */\n      pop\n      jump\t// out\n        /* \"#utility.yul\":10645:10784   */\n    tag_489:\n        /* \"#utility.yul\":10691:10696   */\n      0x00\n        /* \"#utility.yul\":10729:10735   */\n      dup2\n        /* \"#utility.yul\":10716:10736   */\n      calldataload\n        /* \"#utility.yul\":10707:10736   */\n      swap1\n      pop\n        /* \"#utility.yul\":10745:10778   */\n      tag_664\n        /* \"#utility.yul\":10772:10777   */\n      dup2\n        /* \"#utility.yul\":10745:10778   */\n      tag_488\n      jump\t// in\n    tag_664:\n        /* \"#utility.yul\":10645:10784   */\n      swap3\n      swap2\n      pop\n      pop\n      jump\t// out\n        /* \"#utility.yul\":10790:11119   */\n    tag_81:\n        /* \"#utility.yul\":10849:10855   */\n      0x00\n        /* \"#utility.yul\":10898:10900   */\n      0x20\n        /* \"#utility.yul\":10886:10895   */\n      dup3\n        /* \"#utility.yul\":10877:10884   */\n      dup5\n        /* \"#utility.yul\":10873:10896   */\n      sub\n        /* \"#utility.yul\":10869:10901   */\n      slt\n        /* \"#utility.yul\":10866:10985   */\n      iszero\n      tag_666\n      jumpi\n        /* \"#utility.yul\":10904:10983   */\n      tag_667\n      tag_452\n      jump\t// in\n    tag_667:\n        /* \"#utility.yul\":10866:10985   */\n    tag_666:\n        /* \"#utility.yul\":11024:11025   */\n      0x00\n        /* \"#utility.yul\":11049:11102   */\n      tag_668\n        /* \"#utility.yul\":11094:11101   */\n      dup5\n        /* \"#utility.yul\":11085:11091   */\n      dup3\n        /* \"#utility.yul\":11074:11083   */\n      dup6\n        /* \"#utility.yul\":11070:11092   */\n      add\n        /* \"#utility.yul\":11049:11102   */\n      tag_489\n      jump\t// in\n    tag_668:\n        /* \"#utility.yul\":11039:11102   */\n      swap2\n      pop\n        /* \"#utility.yul\":10995:11112   */\n      pop\n        /* \"#utility.yul\":10790:11119   */\n      swap3\n      swap2\n      pop\n      pop\n      jump\t// out\n        /* \"#utility.yul\":11125:11245   */\n    tag_490:\n        /* \"#utility.yul\":11197:11220   */\n      tag_670\n        /* \"#utility.yul\":11214:11219   */\n      dup2\n        /* \"#utility.yul\":11197:11220   */\n      tag_482\n      jump\t// in\n    tag_670:\n        /* \"#utility.yul\":11190:11195   */\n      dup2\n        /* \"#utility.yul\":11187:11221   */\n      eq\n        /* \"#utility.yul\":11177:11239   */\n      tag_671\n      jumpi\n        /* \"#utility.yul\":11235:11236   */\n      0x00\n        /* \"#utility.yul\":11232:11233   */\n      dup1\n        /* \"#utility.yul\":11225:11237   */\n      revert\n        /* \"#utility.yul\":11177:11239   */\n    tag_671:\n        /* \"#utility.yul\":11125:11245   */\n      pop\n      jump\t// out\n        /* \"#utility.yul\":11251:11388   */\n    tag_491:\n        /* \"#utility.yul\":11296:11301   */\n      0x00\n        /* \"#utility.yul\":11334:11340   */\n      dup2\n        /* \"#utility.yul\":11321:11341   */\n      calldataload\n        /* \"#utility.yul\":11312:11341   */\n      swap1\n      pop\n        /* \"#utility.yul\":11350:11382   */\n      tag_673\n        /* \"#utility.yul\":11376:11381   */\n      dup2\n        /* \"#utility.yul\":11350:11382   */\n      tag_490\n      jump\t// in\n    tag_673:\n        /* \"#utility.yul\":11251:11388   */\n      swap3\n      swap2\n      pop\n      pop\n      jump\t// out\n        /* \"#utility.yul\":11394:12046   */\n    tag_86:\n        /* \"#utility.yul\":11471:11477   */\n      0x00\n        /* \"#utility.yul\":11479:11485   */\n      dup1\n        /* \"#utility.yul\":11528:11530   */\n      0x40\n        /* \"#utility.yul\":11516:11525   */\n      dup4\n        /* \"#utility.yul\":11507:11514   */\n      dup6\n        /* \"#utility.yul\":11503:11526   */\n      sub\n        /* \"#utility.yul\":11499:11531   */\n      slt\n        /* \"#utility.yul\":11496:11615   */\n      iszero\n      tag_675\n      jumpi\n        /* \"#utility.yul\":11534:11613   */\n      tag_676\n      tag_452\n      jump\t// in\n    tag_676:\n        /* \"#utility.yul\":11496:11615   */\n    tag_675:\n        /* \"#utility.yul\":11654:11655   */\n      0x00\n        /* \"#utility.yul\":11679:11731   */\n      tag_677\n        /* \"#utility.yul\":11723:11730   */\n      dup6\n        /* \"#utility.yul\":11714:11720   */\n      dup3\n        /* \"#utility.yul\":11703:11712   */\n      dup7\n        /* \"#utility.yul\":11699:11721   */\n      add\n        /* \"#utility.yul\":11679:11731   */\n      tag_491\n      jump\t// in\n    tag_677:\n        /* \"#utility.yul\":11669:11731   */\n      swap3\n      pop\n        /* \"#utility.yul\":11625:11741   */\n      pop\n        /* \"#utility.yul\":11808:11810   */\n      0x20\n        /* \"#utility.yul\":11797:11806   */\n      dup4\n        /* \"#utility.yul\":11793:11811   */\n      add\n        /* \"#utility.yul\":11780:11812   */\n      calldataload\n        /* \"#utility.yul\":11839:11857   */\n      0xffffffffffffffff\n        /* \"#utility.yul\":11831:11837   */\n      dup2\n        /* \"#utility.yul\":11828:11858   */\n      gt\n        /* \"#utility.yul\":11825:11942   */\n      iszero\n      tag_678\n      jumpi\n        /* \"#utility.yul\":11861:11940   */\n      tag_679\n      tag_453\n      jump\t// in\n    tag_679:\n        /* \"#utility.yul\":11825:11942   */\n    tag_678:\n        /* \"#utility.yul\":11966:12029   */\n      tag_680\n        /* \"#utility.yul\":12021:12028   */\n      dup6\n        /* \"#utility.yul\":12012:12018   */\n      dup3\n        /* \"#utility.yul\":12001:12010   */\n      dup7\n        /* \"#utility.yul\":11997:12019   */\n      add\n        /* \"#utility.yul\":11966:12029   */\n      tag_476\n      jump\t// in\n    tag_680:\n        /* \"#utility.yul\":11956:12029   */\n      swap2\n      pop\n        /* \"#utility.yul\":11751:12039   */\n      pop\n        /* \"#utility.yul\":11394:12046   */\n      swap3\n      pop\n      swap3\n      swap1\n      pop\n      jump\t// out\n        /* \"#utility.yul\":12052:12704   */\n    tag_91:\n        /* \"#utility.yul\":12129:12135   */\n      0x00\n        /* \"#utility.yul\":12137:12143   */\n      dup1\n        /* \"#utility.yul\":12186:12188   */\n      0x40\n        /* \"#utility.yul\":12174:12183   */\n      dup4\n        /* \"#utility.yul\":12165:12172   */\n      dup6\n        /* \"#utility.yul\":12161:12184   */\n      sub\n        /* \"#utility.yul\":12157:12189   */\n      slt\n        /* \"#utility.yul\":12154:12273   */\n      iszero\n      tag_682\n      jumpi\n        /* \"#utility.yul\":12192:12271   */\n      tag_683\n      tag_452\n      jump\t// in\n    tag_683:\n        /* \"#utility.yul\":12154:12273   */\n    tag_682:\n        /* \"#utility.yul\":12340:12341   */\n      0x00\n        /* \"#utility.yul\":12329:12338   */\n      dup4\n        /* \"#utility.yul\":12325:12342   */\n      add\n        /* \"#utility.yul\":12312:12343   */\n      calldataload\n        /* \"#utility.yul\":12370:12388   */\n      0xffffffffffffffff\n        /* \"#utility.yul\":12362:12368   */\n      dup2\n        /* \"#utility.yul\":12359:12389   */\n      gt\n        /* \"#utility.yul\":12356:12473   */\n      iszero\n      tag_684\n      jumpi\n        /* \"#utility.yul\":12392:12471   */\n      tag_685\n      tag_453\n      jump\t// in\n    tag_685:\n        /* \"#utility.yul\":12356:12473   */\n    tag_684:\n        /* \"#utility.yul\":12497:12560   */\n      tag_686\n        /* \"#utility.yul\":12552:12559   */\n      dup6\n        /* \"#utility.yul\":12543:12549   */\n      dup3\n        /* \"#utility.yul\":12532:12541   */\n      dup7\n        /* \"#utility.yul\":12528:12550   */\n      add\n        /* \"#utility.yul\":12497:12560   */\n      tag_476\n      jump\t// in\n    tag_686:\n        /* \"#utility.yul\":12487:12560   */\n      swap3\n      pop\n        /* \"#utility.yul\":12283:12570   */\n      pop\n        /* \"#utility.yul\":12609:12611   */\n      0x20\n        /* \"#utility.yul\":12635:12687   */\n      tag_687\n        /* \"#utility.yul\":12679:12686   */\n      dup6\n        /* \"#utility.yul\":12670:12676   */\n      dup3\n        /* \"#utility.yul\":12659:12668   */\n      dup7\n        /* \"#utility.yul\":12655:12677   */\n      add\n        /* \"#utility.yul\":12635:12687   */\n      tag_491\n      jump\t// in\n    tag_687:\n        /* \"#utility.yul\":12625:12687   */\n      swap2\n      pop\n        /* \"#utility.yul\":12580:12697   */\n      pop\n        /* \"#utility.yul\":12052:12704   */\n      swap3\n      pop\n      swap3\n      swap1\n      pop\n      jump\t// out\n        /* \"#utility.yul\":12710:13977   */\n    tag_106:\n        /* \"#utility.yul\":12823:12829   */\n      0x00\n        /* \"#utility.yul\":12831:12837   */\n      dup1\n        /* \"#utility.yul\":12839:12845   */\n      0x00\n        /* \"#utility.yul\":12847:12853   */\n      dup1\n        /* \"#utility.yul\":12855:12861   */\n      0x00\n        /* \"#utility.yul\":12904:12907   */\n      0xa0\n        /* \"#utility.yul\":12892:12901   */\n      dup7\n        /* \"#utility.yul\":12883:12890   */\n      dup9\n        /* \"#utility.yul\":12879:12902   */\n      sub\n        /* \"#utility.yul\":12875:12908   */\n      slt\n        /* \"#utility.yul\":12872:12992   */\n      iszero\n      tag_689\n      jumpi\n        /* \"#utility.yul\":12911:12990   */\n      tag_690\n      tag_452\n      jump\t// in\n    tag_690:\n        /* \"#utility.yul\":12872:12992   */\n    tag_689:\n        /* \"#utility.yul\":13031:13032   */\n      0x00\n        /* \"#utility.yul\":13056:13109   */\n      tag_691\n        /* \"#utility.yul\":13101:13108   */\n      dup9\n        /* \"#utility.yul\":13092:13098   */\n      dup3\n        /* \"#utility.yul\":13081:13090   */\n      dup10\n        /* \"#utility.yul\":13077:13099   */\n      add\n        /* \"#utility.yul\":13056:13109   */\n      tag_466\n      jump\t// in\n    tag_691:\n        /* \"#utility.yul\":13046:13109   */\n      swap6\n      pop\n        /* \"#utility.yul\":13002:13119   */\n      pop\n        /* \"#utility.yul\":13186:13188   */\n      0x20\n        /* \"#utility.yul\":13175:13184   */\n      dup7\n        /* \"#utility.yul\":13171:13189   */\n      add\n        /* \"#utility.yul\":13158:13190   */\n      calldataload\n        /* \"#utility.yul\":13217:13235   */\n      0xffffffffffffffff\n        /* \"#utility.yul\":13209:13215   */\n      dup2\n        /* \"#utility.yul\":13206:13236   */\n      gt\n        /* \"#utility.yul\":13203:13320   */\n      iszero\n      tag_692\n      jumpi\n        /* \"#utility.yul\":13239:13318   */\n      tag_693\n      tag_453\n      jump\t// in\n    tag_693:\n        /* \"#utility.yul\":13203:13320   */\n    tag_692:\n        /* \"#utility.yul\":13344:13407   */\n      tag_694\n        /* \"#utility.yul\":13399:13406   */\n      dup9\n        /* \"#utility.yul\":13390:13396   */\n      dup3\n        /* \"#utility.yul\":13379:13388   */\n      dup10\n        /* \"#utility.yul\":13375:13397   */\n      add\n        /* \"#utility.yul\":13344:13407   */\n      tag_476\n      jump\t// in\n    tag_694:\n        /* \"#utility.yul\":13334:13407   */\n      swap5\n      pop\n        /* \"#utility.yul\":13129:13417   */\n      pop\n        /* \"#utility.yul\":13456:13458   */\n      0x40\n        /* \"#utility.yul\":13482:13534   */\n      tag_695\n        /* \"#utility.yul\":13526:13533   */\n      dup9\n        /* \"#utility.yul\":13517:13523   */\n      dup3\n        /* \"#utility.yul\":13506:13515   */\n      dup10\n        /* \"#utility.yul\":13502:13524   */\n      add\n        /* \"#utility.yul\":13482:13534   */\n      tag_491\n      jump\t// in\n    tag_695:\n        /* \"#utility.yul\":13472:13534   */\n      swap4\n      pop\n        /* \"#utility.yul\":13427:13544   */\n      pop\n        /* \"#utility.yul\":13583:13585   */\n      0x60\n        /* \"#utility.yul\":13609:13661   */\n      tag_696\n        /* \"#utility.yul\":13653:13660   */\n      dup9\n        /* \"#utility.yul\":13644:13650   */\n      dup3\n        /* \"#utility.yul\":13633:13642   */\n      dup10\n        /* \"#utility.yul\":13629:13651   */\n      add\n        /* \"#utility.yul\":13609:13661   */\n      tag_491\n      jump\t// in\n    tag_696:\n        /* \"#utility.yul\":13599:13661   */\n      swap3\n      pop\n        /* \"#utility.yul\":13554:13671   */\n      pop\n        /* \"#utility.yul\":13738:13741   */\n      0x80\n        /* \"#utility.yul\":13727:13736   */\n      dup7\n        /* \"#utility.yul\":13723:13742   */\n      add\n        /* \"#utility.yul\":13710:13743   */\n      calldataload\n        /* \"#utility.yul\":13770:13788   */\n      0xffffffffffffffff\n        /* \"#utility.yul\":13762:13768   */\n      dup2\n        /* \"#utility.yul\":13759:13789   */\n      gt\n        /* \"#utility.yul\":13756:13873   */\n      iszero\n      tag_697\n      jumpi\n        /* \"#utility.yul\":13792:13871   */\n      tag_698\n      tag_453\n      jump\t// in\n    tag_698:\n        /* \"#utility.yul\":13756:13873   */\n    tag_697:\n        /* \"#utility.yul\":13897:13960   */\n      tag_699\n        /* \"#utility.yul\":13952:13959   */\n      dup9\n        /* \"#utility.yul\":13943:13949   */\n      dup3\n        /* \"#utility.yul\":13932:13941   */\n      dup10\n        /* \"#utility.yul\":13928:13950   */\n      add\n        /* \"#utility.yul\":13897:13960   */\n      tag_476\n      jump\t// in\n    tag_699:\n        /* \"#utility.yul\":13887:13960   */\n      swap2\n      pop\n        /* \"#utility.yul\":13681:13970   */\n      pop\n        /* \"#utility.yul\":12710:13977   */\n      swap3\n      swap6\n      pop\n      swap3\n      swap6\n      swap1\n      swap4\n      pop\n      jump\t// out\n        /* \"#utility.yul\":13983:14296   */\n    tag_121:\n        /* \"#utility.yul\":14096:14100   */\n      0x00\n        /* \"#utility.yul\":14134:14136   */\n      0x20\n        /* \"#utility.yul\":14123:14132   */\n      dup3\n        /* \"#utility.yul\":14119:14137   */\n      add\n        /* \"#utility.yul\":14111:14137   */\n      swap1\n      pop\n        /* \"#utility.yul\":14183:14192   */\n      dup2\n        /* \"#utility.yul\":14177:14181   */\n      dup2\n        /* \"#utility.yul\":14173:14193   */\n      sub\n        /* \"#utility.yul\":14169:14170   */\n      0x00\n        /* \"#utility.yul\":14158:14167   */\n      dup4\n        /* \"#utility.yul\":14154:14171   */\n      add\n        /* \"#utility.yul\":14147:14194   */\n      mstore\n        /* \"#utility.yul\":14211:14289   */\n      tag_701\n        /* \"#utility.yul\":14284:14288   */\n      dup2\n        /* \"#utility.yul\":14275:14281   */\n      dup5\n        /* \"#utility.yul\":14211:14289   */\n      tag_481\n      jump\t// in\n    tag_701:\n        /* \"#utility.yul\":14203:14289   */\n      swap1\n      pop\n        /* \"#utility.yul\":13983:14296   */\n      swap3\n      swap2\n      pop\n      pop\n      jump\t// out\n        /* \"#utility.yul\":14302:14418   */\n    tag_492:\n        /* \"#utility.yul\":14372:14393   */\n      tag_703\n        /* \"#utility.yul\":14387:14392   */\n      dup2\n        /* \"#utility.yul\":14372:14393   */\n      tag_457\n      jump\t// in\n    tag_703:\n        /* \"#utility.yul\":14365:14370   */\n      dup2\n        /* \"#utility.yul\":14362:14394   */\n      eq\n        /* \"#utility.yul\":14352:14412   */\n      tag_704\n      jumpi\n        /* \"#utility.yul\":14408:14409   */\n      0x00\n        /* \"#utility.yul\":14405:14406   */\n      dup1\n        /* \"#utility.yul\":14398:14410   */\n      revert\n        /* \"#utility.yul\":14352:14412   */\n    tag_704:\n        /* \"#utility.yul\":14302:14418   */\n      pop\n      jump\t// out\n        /* \"#utility.yul\":14424:14557   */\n    tag_493:\n        /* \"#utility.yul\":14467:14472   */\n      0x00\n        /* \"#utility.yul\":14505:14511   */\n      dup2\n        /* \"#utility.yul\":14492:14512   */\n      calldataload\n        /* \"#utility.yul\":14483:14512   */\n      swap1\n      pop\n        /* \"#utility.yul\":14521:14551   */\n      tag_706\n        /* \"#utility.yul\":14545:14550   */\n      dup2\n        /* \"#utility.yul\":14521:14551   */\n      tag_492\n      jump\t// in\n    tag_706:\n        /* \"#utility.yul\":14424:14557   */\n      swap3\n      swap2\n      pop\n      pop\n      jump\t// out\n        /* \"#utility.yul\":14563:15031   */\n    tag_132:\n        /* \"#utility.yul\":14628:14634   */\n      0x00\n        /* \"#utility.yul\":14636:14642   */\n      dup1\n        /* \"#utility.yul\":14685:14687   */\n      0x40\n        /* \"#utility.yul\":14673:14682   */\n      dup4\n        /* \"#utility.yul\":14664:14671   */\n      dup6\n        /* \"#utility.yul\":14660:14683   */\n      sub\n        /* \"#utility.yul\":14656:14688   */\n      slt\n        /* \"#utility.yul\":14653:14772   */\n      iszero\n      tag_708\n      jumpi\n        /* \"#utility.yul\":14691:14770   */\n      tag_709\n      tag_452\n      jump\t// in\n    tag_709:\n        /* \"#utility.yul\":14653:14772   */\n    tag_708:\n        /* \"#utility.yul\":14811:14812   */\n      0x00\n        /* \"#utility.yul\":14836:14889   */\n      tag_710\n        /* \"#utility.yul\":14881:14888   */\n      dup6\n        /* \"#utility.yul\":14872:14878   */\n      dup3\n        /* \"#utility.yul\":14861:14870   */\n      dup7\n        /* \"#utility.yul\":14857:14879   */\n      add\n        /* \"#utility.yul\":14836:14889   */\n      tag_489\n      jump\t// in\n    tag_710:\n        /* \"#utility.yul\":14826:14889   */\n      swap3\n      pop\n        /* \"#utility.yul\":14782:14899   */\n      pop\n        /* \"#utility.yul\":14938:14940   */\n      0x20\n        /* \"#utility.yul\":14964:15014   */\n      tag_711\n        /* \"#utility.yul\":15006:15013   */\n      dup6\n        /* \"#utility.yul\":14997:15003   */\n      dup3\n        /* \"#utility.yul\":14986:14995   */\n      dup7\n        /* \"#utility.yul\":14982:15004   */\n      add\n        /* \"#utility.yul\":14964:15014   */\n      tag_493\n      jump\t// in\n    tag_711:\n        /* \"#utility.yul\":14954:15014   */\n      swap2\n      pop\n        /* \"#utility.yul\":14909:15024   */\n      pop\n        /* \"#utility.yul\":14563:15031   */\n      swap3\n      pop\n      swap3\n      swap1\n      pop\n      jump\t// out\n        /* \"#utility.yul\":15037:15217   */\n    tag_494:\n        /* \"#utility.yul\":15085:15162   */\n      0x4e487b7100000000000000000000000000000000000000000000000000000000\n        /* \"#utility.yul\":15082:15083   */\n      0x00\n        /* \"#utility.yul\":15075:15163   */\n      mstore\n        /* \"#utility.yul\":15182:15186   */\n      0x22\n        /* \"#utility.yul\":15179:15180   */\n      0x04\n        /* \"#utility.yul\":15172:15187   */\n      mstore\n        /* \"#utility.yul\":15206:15210   */\n      0x24\n        /* \"#utility.yul\":15203:15204   */\n      0x00\n        /* \"#utility.yul\":15196:15211   */\n      revert\n        /* \"#utility.yul\":15223:15543   */\n    tag_177:\n        /* \"#utility.yul\":15267:15273   */\n      0x00\n        /* \"#utility.yul\":15304:15305   */\n      0x02\n        /* \"#utility.yul\":15298:15302   */\n      dup3\n        /* \"#utility.yul\":15294:15306   */\n      div\n        /* \"#utility.yul\":15284:15306   */\n      swap1\n      pop\n        /* \"#utility.yul\":15351:15352   */\n      0x01\n        /* \"#utility.yul\":15345:15349   */\n      dup3\n        /* \"#utility.yul\":15341:15353   */\n      and\n        /* \"#utility.yul\":15372:15390   */\n      dup1\n        /* \"#utility.yul\":15362:15443   */\n      tag_714\n      jumpi\n        /* \"#utility.yul\":15428:15432   */\n      0x7f\n        /* \"#utility.yul\":15420:15426   */\n      dup3\n        /* \"#utility.yul\":15416:15433   */\n      and\n        /* \"#utility.yul\":15406:15433   */\n      swap2\n      pop\n        /* \"#utility.yul\":15362:15443   */\n    tag_714:\n        /* \"#utility.yul\":15490:15492   */\n      0x20\n        /* \"#utility.yul\":15482:15488   */\n      dup3\n        /* \"#utility.yul\":15479:15493   */\n      lt\n        /* \"#utility.yul\":15459:15477   */\n      dup2\n        /* \"#utility.yul\":15456:15494   */\n      sub\n        /* \"#utility.yul\":15453:15537   */\n      tag_715\n      jumpi\n        /* \"#utility.yul\":15509:15527   */\n      tag_716\n      tag_494\n      jump\t// in\n    tag_716:\n        /* \"#utility.yul\":15453:15537   */\n    tag_715:\n        /* \"#utility.yul\":15274:15543   */\n      pop\n        /* \"#utility.yul\":15223:15543   */\n      swap2\n      swap1\n      pop\n      jump\t// out\n        /* \"#utility.yul\":15549:15667   */\n    tag_495:\n        /* \"#utility.yul\":15636:15660   */\n      tag_718\n        /* \"#utility.yul\":15654:15659   */\n      dup2\n        /* \"#utility.yul\":15636:15660   */\n      tag_487\n      jump\t// in\n    tag_718:\n        /* \"#utility.yul\":15631:15634   */\n      dup3\n        /* \"#utility.yul\":15624:15661   */\n      mstore\n        /* \"#utility.yul\":15549:15667   */\n      pop\n      pop\n      jump\t// out\n        /* \"#utility.yul\":15673:15895   */\n    tag_204:\n        /* \"#utility.yul\":15766:15770   */\n      0x00\n        /* \"#utility.yul\":15804:15806   */\n      0x20\n        /* \"#utility.yul\":15793:15802   */\n      dup3\n        /* \"#utility.yul\":15789:15807   */\n      add\n        /* \"#utility.yul\":15781:15807   */\n      swap1\n      pop\n        /* \"#utility.yul\":15817:15888   */\n      tag_720\n        /* \"#utility.yul\":15885:15886   */\n      0x00\n        /* \"#utility.yul\":15874:15883   */\n      dup4\n        /* \"#utility.yul\":15870:15887   */\n      add\n        /* \"#utility.yul\":15861:15867   */\n      dup5\n        /* \"#utility.yul\":15817:15888   */\n      tag_495\n      jump\t// in\n    tag_720:\n        /* \"#utility.yul\":15673:15895   */\n      swap3\n      swap2\n      pop\n      pop\n      jump\t// out\n        /* \"#utility.yul\":15901:16070   */\n    tag_496:\n        /* \"#utility.yul\":16041:16062   */\n      0x4e6f2074726164657320617661696c61626c6500000000000000000000000000\n        /* \"#utility.yul\":16037:16038   */\n      0x00\n        /* \"#utility.yul\":16029:16035   */\n      dup3\n        /* \"#utility.yul\":16025:16039   */\n      add\n        /* \"#utility.yul\":16018:16063   */\n      mstore\n        /* \"#utility.yul\":15901:16070   */\n      pop\n      jump\t// out\n        /* \"#utility.yul\":16076:16442   */\n    tag_497:\n        /* \"#utility.yul\":16218:16221   */\n      0x00\n        /* \"#utility.yul\":16239:16306   */\n      tag_723\n        /* \"#utility.yul\":16303:16305   */\n      0x13\n        /* \"#utility.yul\":16298:16301   */\n      dup4\n        /* \"#utility.yul\":16239:16306   */\n      tag_479\n      jump\t// in\n    tag_723:\n        /* \"#utility.yul\":16232:16306   */\n      swap2\n      pop\n        /* \"#utility.yul\":16315:16408   */\n      tag_724\n        /* \"#utility.yul\":16404:16407   */\n      dup3\n        /* \"#utility.yul\":16315:16408   */\n      tag_496\n      jump\t// in\n    tag_724:\n        /* \"#utility.yul\":16433:16435   */\n      0x20\n        /* \"#utility.yul\":16428:16431   */\n      dup3\n        /* \"#utility.yul\":16424:16436   */\n      add\n        /* \"#utility.yul\":16417:16436   */\n      swap1\n      pop\n        /* \"#utility.yul\":16076:16442   */\n      swap2\n      swap1\n      pop\n      jump\t// out\n        /* \"#utility.yul\":16448:16867   */\n    tag_208:\n        /* \"#utility.yul\":16614:16618   */\n      0x00\n        /* \"#utility.yul\":16652:16654   */\n      0x20\n        /* \"#utility.yul\":16641:16650   */\n      dup3\n        /* \"#utility.yul\":16637:16655   */\n      add\n        /* \"#utility.yul\":16629:16655   */\n      swap1\n      pop\n        /* \"#utility.yul\":16701:16710   */\n      dup2\n        /* \"#utility.yul\":16695:16699   */\n      dup2\n        /* \"#utility.yul\":16691:16711   */\n      sub\n        /* \"#utility.yul\":16687:16688   */\n      0x00\n        /* \"#utility.yul\":16676:16685   */\n      dup4\n        /* \"#utility.yul\":16672:16689   */\n      add\n        /* \"#utility.yul\":16665:16712   */\n      mstore\n        /* \"#utility.yul\":16729:16860   */\n      tag_726\n        /* \"#utility.yul\":16855:16859   */\n      dup2\n        /* \"#utility.yul\":16729:16860   */\n      tag_497\n      jump\t// in\n    tag_726:\n        /* \"#utility.yul\":16721:16860   */\n      swap1\n      pop\n        /* \"#utility.yul\":16448:16867   */\n      swap2\n      swap1\n      pop\n      jump\t// out\n        /* \"#utility.yul\":16873:17053   */\n    tag_498:\n        /* \"#utility.yul\":16921:16998   */\n      0x4e487b7100000000000000000000000000000000000000000000000000000000\n        /* \"#utility.yul\":16918:16919   */\n      0x00\n        /* \"#utility.yul\":16911:16999   */\n      mstore\n        /* \"#utility.yul\":17018:17022   */\n      0x11\n        /* \"#utility.yul\":17015:17016   */\n      0x04\n        /* \"#utility.yul\":17008:17023   */\n      mstore\n        /* \"#utility.yul\":17042:17046   */\n      0x24\n        /* \"#utility.yul\":17039:17040   */\n      0x00\n        /* \"#utility.yul\":17032:17047   */\n      revert\n        /* \"#utility.yul\":17059:17253   */\n    tag_210:\n        /* \"#utility.yul\":17099:17103   */\n      0x00\n        /* \"#utility.yul\":17119:17139   */\n      tag_729\n        /* \"#utility.yul\":17137:17138   */\n      dup3\n        /* \"#utility.yul\":17119:17139   */\n      tag_487\n      jump\t// in\n    tag_729:\n        /* \"#utility.yul\":17114:17139   */\n      swap2\n      pop\n        /* \"#utility.yul\":17153:17173   */\n      tag_730\n        /* \"#utility.yul\":17171:17172   */\n      dup4\n        /* \"#utility.yul\":17153:17173   */\n      tag_487\n      jump\t// in\n    tag_730:\n        /* \"#utility.yul\":17148:17173   */\n      swap3\n      pop\n        /* \"#utility.yul\":17197:17198   */\n      dup3\n        /* \"#utility.yul\":17194:17195   */\n      dup3\n        /* \"#utility.yul\":17190:17199   */\n      sub\n        /* \"#utility.yul\":17182:17199   */\n      swap1\n      pop\n        /* \"#utility.yul\":17221:17222   */\n      dup2\n        /* \"#utility.yul\":17215:17219   */\n      dup2\n        /* \"#utility.yul\":17212:17223   */\n      gt\n        /* \"#utility.yul\":17209:17246   */\n      iszero\n      tag_731\n      jumpi\n        /* \"#utility.yul\":17226:17244   */\n      tag_732\n      tag_498\n      jump\t// in\n    tag_732:\n        /* \"#utility.yul\":17209:17246   */\n    tag_731:\n        /* \"#utility.yul\":17059:17253   */\n      swap3\n      swap2\n      pop\n      pop\n      jump\t// out\n        /* \"#utility.yul\":17259:17439   */\n    tag_213:\n        /* \"#utility.yul\":17307:17384   */\n      0x4e487b7100000000000000000000000000000000000000000000000000000000\n        /* \"#utility.yul\":17304:17305   */\n      0x00\n        /* \"#utility.yul\":17297:17385   */\n      mstore\n        /* \"#utility.yul\":17404:17408   */\n      0x32\n        /* \"#utility.yul\":17401:17402   */\n      0x04\n        /* \"#utility.yul\":17394:17409   */\n      mstore\n        /* \"#utility.yul\":17428:17432   */\n      0x24\n        /* \"#utility.yul\":17425:17426   */\n      0x00\n        /* \"#utility.yul\":17418:17433   */\n      revert\n        /* \"#utility.yul\":17445:17593   */\n    tag_499:\n        /* \"#utility.yul\":17547:17558   */\n      0x00\n        /* \"#utility.yul\":17584:17587   */\n      dup2\n        /* \"#utility.yul\":17569:17587   */\n      swap1\n      pop\n        /* \"#utility.yul\":17445:17593   */\n      swap3\n      swap2\n      pop\n      pop\n      jump\t// out\n        /* \"#utility.yul\":17599:17989   */\n    tag_500:\n        /* \"#utility.yul\":17705:17708   */\n      0x00\n        /* \"#utility.yul\":17733:17772   */\n      tag_736\n        /* \"#utility.yul\":17766:17771   */\n      dup3\n        /* \"#utility.yul\":17733:17772   */\n      tag_478\n      jump\t// in\n    tag_736:\n        /* \"#utility.yul\":17788:17877   */\n      tag_737\n        /* \"#utility.yul\":17870:17876   */\n      dup2\n        /* \"#utility.yul\":17865:17868   */\n      dup6\n        /* \"#utility.yul\":17788:17877   */\n      tag_499\n      jump\t// in\n    tag_737:\n        /* \"#utility.yul\":17781:17877   */\n      swap4\n      pop\n        /* \"#utility.yul\":17886:17951   */\n      tag_738\n        /* \"#utility.yul\":17944:17950   */\n      dup2\n        /* \"#utility.yul\":17939:17942   */\n      dup6\n        /* \"#utility.yul\":17932:17936   */\n      0x20\n        /* \"#utility.yul\":17925:17930   */\n      dup7\n        /* \"#utility.yul\":17921:17937   */\n      add\n        /* \"#utility.yul\":17886:17951   */\n      tag_480\n      jump\t// in\n    tag_738:\n        /* \"#utility.yul\":17976:17982   */\n      dup1\n        /* \"#utility.yul\":17971:17974   */\n      dup5\n        /* \"#utility.yul\":17967:17983   */\n      add\n        /* \"#utility.yul\":17960:17983   */\n      swap2\n      pop\n        /* \"#utility.yul\":17709:17989   */\n      pop\n        /* \"#utility.yul\":17599:17989   */\n      swap3\n      swap2\n      pop\n      pop\n      jump\t// out\n        /* \"#utility.yul\":17995:18270   */\n    tag_221:\n        /* \"#utility.yul\":18127:18130   */\n      0x00\n        /* \"#utility.yul\":18149:18244   */\n      tag_740\n        /* \"#utility.yul\":18240:18243   */\n      dup3\n        /* \"#utility.yul\":18231:18237   */\n      dup5\n        /* \"#utility.yul\":18149:18244   */\n      tag_500\n      jump\t// in\n    tag_740:\n        /* \"#utility.yul\":18142:18244   */\n      swap2\n      pop\n        /* \"#utility.yul\":18261:18264   */\n      dup2\n        /* \"#utility.yul\":18254:18264   */\n      swap1\n      pop\n        /* \"#utility.yul\":17995:18270   */\n      swap3\n      swap2\n      pop\n      pop\n      jump\t// out\n        /* \"#utility.yul\":18276:18445   */\n    tag_501:\n        /* \"#utility.yul\":18416:18437   */\n      0x5472616465206e6f7420636f6e6669726d656400000000000000000000000000\n        /* \"#utility.yul\":18412:18413   */\n      0x00\n        /* \"#utility.yul\":18404:18410   */\n      dup3\n        /* \"#utility.yul\":18400:18414   */\n      add\n        /* \"#utility.yul\":18393:18438   */\n      mstore\n        /* \"#utility.yul\":18276:18445   */\n      pop\n      jump\t// out\n        /* \"#utility.yul\":18451:18817   */\n    tag_502:\n        /* \"#utility.yul\":18593:18596   */\n      0x00\n        /* \"#utility.yul\":18614:18681   */\n      tag_743\n        /* \"#utility.yul\":18678:18680   */\n      0x13\n        /* \"#utility.yul\":18673:18676   */\n      dup4\n        /* \"#utility.yul\":18614:18681   */\n      tag_479\n      jump\t// in\n    tag_743:\n        /* \"#utility.yul\":18607:18681   */\n      swap2\n      pop\n        /* \"#utility.yul\":18690:18783   */\n      tag_744\n        /* \"#utility.yul\":18779:18782   */\n      dup3\n        /* \"#utility.yul\":18690:18783   */\n      tag_501\n      jump\t// in\n    tag_744:\n        /* \"#utility.yul\":18808:18810   */\n      0x20\n        /* \"#utility.yul\":18803:18806   */\n      dup3\n        /* \"#utility.yul\":18799:18811   */\n      add\n        /* \"#utility.yul\":18792:18811   */\n      swap1\n      pop\n        /* \"#utility.yul\":18451:18817   */\n      swap2\n      swap1\n      pop\n      jump\t// out\n        /* \"#utility.yul\":18823:19242   */\n    tag_224:\n        /* \"#utility.yul\":18989:18993   */\n      0x00\n        /* \"#utility.yul\":19027:19029   */\n      0x20\n        /* \"#utility.yul\":19016:19025   */\n      dup3\n        /* \"#utility.yul\":19012:19030   */\n      add\n        /* \"#utility.yul\":19004:19030   */\n      swap1\n      pop\n        /* \"#utility.yul\":19076:19085   */\n      dup2\n        /* \"#utility.yul\":19070:19074   */\n      dup2\n        /* \"#utility.yul\":19066:19086   */\n      sub\n        /* \"#utility.yul\":19062:19063   */\n      0x00\n        /* \"#utility.yul\":19051:19060   */\n      dup4\n        /* \"#utility.yul\":19047:19064   */\n      add\n        /* \"#utility.yul\":19040:19087   */\n      mstore\n        /* \"#utility.yul\":19104:19235   */\n      tag_746\n        /* \"#utility.yul\":19230:19234   */\n      dup2\n        /* \"#utility.yul\":19104:19235   */\n      tag_502\n      jump\t// in\n    tag_746:\n        /* \"#utility.yul\":19096:19235   */\n      swap1\n      pop\n        /* \"#utility.yul\":18823:19242   */\n      swap2\n      swap1\n      pop\n      jump\t// out\n        /* \"#utility.yul\":19248:19415   */\n    tag_503:\n        /* \"#utility.yul\":19388:19407   */\n      0x4e6f742074686520696e69746961746f72000000000000000000000000000000\n        /* \"#utility.yul\":19384:19385   */\n      0x00\n        /* \"#utility.yul\":19376:19382   */\n      dup3\n        /* \"#utility.yul\":19372:19386   */\n      add\n        /* \"#utility.yul\":19365:19408   */\n      mstore\n        /* \"#utility.yul\":19248:19415   */\n      pop\n      jump\t// out\n        /* \"#utility.yul\":19421:19787   */\n    tag_504:\n        /* \"#utility.yul\":19563:19566   */\n      0x00\n        /* \"#utility.yul\":19584:19651   */\n      tag_749\n        /* \"#utility.yul\":19648:19650   */\n      0x11\n        /* \"#utility.yul\":19643:19646   */\n      dup4\n        /* \"#utility.yul\":19584:19651   */\n      tag_479\n      jump\t// in\n    tag_749:\n        /* \"#utility.yul\":19577:19651   */\n      swap2\n      pop\n        /* \"#utility.yul\":19660:19753   */\n      tag_750\n        /* \"#utility.yul\":19749:19752   */\n      dup3\n        /* \"#utility.yul\":19660:19753   */\n      tag_503\n      jump\t// in\n    tag_750:\n        /* \"#utility.yul\":19778:19780   */\n      0x20\n        /* \"#utility.yul\":19773:19776   */\n      dup3\n        /* \"#utility.yul\":19769:19781   */\n      add\n        /* \"#utility.yul\":19762:19781   */\n      swap1\n      pop\n        /* \"#utility.yul\":19421:19787   */\n      swap2\n      swap1\n      pop\n      jump\t// out\n        /* \"#utility.yul\":19793:20212   */\n    tag_231:\n        /* \"#utility.yul\":19959:19963   */\n      0x00\n        /* \"#utility.yul\":19997:19999   */\n      0x20\n        /* \"#utility.yul\":19986:19995   */\n      dup3\n        /* \"#utility.yul\":19982:20000   */\n      add\n        /* \"#utility.yul\":19974:20000   */\n      swap1\n      pop\n        /* \"#utility.yul\":20046:20055   */\n      dup2\n        /* \"#utility.yul\":20040:20044   */\n      dup2\n        /* \"#utility.yul\":20036:20056   */\n      sub\n        /* \"#utility.yul\":20032:20033   */\n      0x00\n        /* \"#utility.yul\":20021:20030   */\n      dup4\n        /* \"#utility.yul\":20017:20034   */\n      add\n        /* \"#utility.yul\":20010:20057   */\n      mstore\n        /* \"#utility.yul\":20074:20205   */\n      tag_752\n        /* \"#utility.yul\":20200:20204   */\n      dup2\n        /* \"#utility.yul\":20074:20205   */\n      tag_504\n      jump\t// in\n    tag_752:\n        /* \"#utility.yul\":20066:20205   */\n      swap1\n      pop\n        /* \"#utility.yul\":19793:20212   */\n      swap2\n      swap1\n      pop\n      jump\t// out\n        /* \"#utility.yul\":20218:20388   */\n    tag_505:\n        /* \"#utility.yul\":20358:20380   */\n      0x4e6f742074686520636f756e7465727061727479000000000000000000000000\n        /* \"#utility.yul\":20354:20355   */\n      0x00\n        /* \"#utility.yul\":20346:20352   */\n      dup3\n        /* \"#utility.yul\":20342:20356   */\n      add\n        /* \"#utility.yul\":20335:20381   */\n      mstore\n        /* \"#utility.yul\":20218:20388   */\n      pop\n      jump\t// out\n        /* \"#utility.yul\":20394:20760   */\n    tag_506:\n        /* \"#utility.yul\":20536:20539   */\n      0x00\n        /* \"#utility.yul\":20557:20624   */\n      tag_755\n        /* \"#utility.yul\":20621:20623   */\n      0x14\n        /* \"#utility.yul\":20616:20619   */\n      dup4\n        /* \"#utility.yul\":20557:20624   */\n      tag_479\n      jump\t// in\n    tag_755:\n        /* \"#utility.yul\":20550:20624   */\n      swap2\n      pop\n        /* \"#utility.yul\":20633:20726   */\n      tag_756\n        /* \"#utility.yul\":20722:20725   */\n      dup3\n        /* \"#utility.yul\":20633:20726   */\n      tag_505\n      jump\t// in\n    tag_756:\n        /* \"#utility.yul\":20751:20753   */\n      0x20\n        /* \"#utility.yul\":20746:20749   */\n      dup3\n        /* \"#utility.yul\":20742:20754   */\n      add\n        /* \"#utility.yul\":20735:20754   */\n      swap1\n      pop\n        /* \"#utility.yul\":20394:20760   */\n      swap2\n      swap1\n      pop\n      jump\t// out\n        /* \"#utility.yul\":20766:21185   */\n    tag_238:\n        /* \"#utility.yul\":20932:20936   */\n      0x00\n        /* \"#utility.yul\":20970:20972   */\n      0x20\n        /* \"#utility.yul\":20959:20968   */\n      dup3\n        /* \"#utility.yul\":20955:20973   */\n      add\n        /* \"#utility.yul\":20947:20973   */\n      swap1\n      pop\n        /* \"#utility.yul\":21019:21028   */\n      dup2\n        /* \"#utility.yul\":21013:21017   */\n      dup2\n        /* \"#utility.yul\":21009:21029   */\n      sub\n        /* \"#utility.yul\":21005:21006   */\n      0x00\n        /* \"#utility.yul\":20994:21003   */\n      dup4\n        /* \"#utility.yul\":20990:21007   */\n      add\n        /* \"#utility.yul\":20983:21030   */\n      mstore\n        /* \"#utility.yul\":21047:21178   */\n      tag_758\n        /* \"#utility.yul\":21173:21177   */\n      dup2\n        /* \"#utility.yul\":21047:21178   */\n      tag_506\n      jump\t// in\n    tag_758:\n        /* \"#utility.yul\":21039:21178   */\n      swap1\n      pop\n        /* \"#utility.yul\":20766:21185   */\n      swap2\n      swap1\n      pop\n      jump\t// out\n        /* \"#utility.yul\":21191:21276   */\n    tag_507:\n        /* \"#utility.yul\":21236:21243   */\n      0x00\n        /* \"#utility.yul\":21265:21270   */\n      dup2\n        /* \"#utility.yul\":21254:21270   */\n      swap1\n      pop\n        /* \"#utility.yul\":21191:21276   */\n      swap2\n      swap1\n      pop\n      jump\t// out\n        /* \"#utility.yul\":21282:21383   */\n    tag_508:\n        /* \"#utility.yul\":21318:21325   */\n      0x00\n        /* \"#utility.yul\":21358:21376   */\n      0xffffffffffffffff\n        /* \"#utility.yul\":21351:21356   */\n      dup3\n        /* \"#utility.yul\":21347:21377   */\n      and\n        /* \"#utility.yul\":21336:21377   */\n      swap1\n      pop\n        /* \"#utility.yul\":21282:21383   */\n      swap2\n      swap1\n      pop\n      jump\t// out\n        /* \"#utility.yul\":21389:21449   */\n    tag_509:\n        /* \"#utility.yul\":21417:21420   */\n      0x00\n        /* \"#utility.yul\":21438:21443   */\n      dup2\n        /* \"#utility.yul\":21431:21443   */\n      swap1\n      pop\n        /* \"#utility.yul\":21389:21449   */\n      swap2\n      swap1\n      pop\n      jump\t// out\n        /* \"#utility.yul\":21455:21611   */\n    tag_510:\n        /* \"#utility.yul\":21512:21521   */\n      0x00\n        /* \"#utility.yul\":21545:21605   */\n      tag_763\n        /* \"#utility.yul\":21562:21604   */\n      tag_764\n        /* \"#utility.yul\":21571:21603   */\n      tag_765\n        /* \"#utility.yul\":21597:21602   */\n      dup5\n        /* \"#utility.yul\":21571:21603   */\n      tag_507\n      jump\t// in\n    tag_765:\n        /* \"#utility.yul\":21562:21604   */\n      tag_509\n      jump\t// in\n    tag_764:\n        /* \"#utility.yul\":21545:21605   */\n      tag_508\n      jump\t// in\n    tag_763:\n        /* \"#utility.yul\":21532:21605   */\n      swap1\n      pop\n        /* \"#utility.yul\":21455:21611   */\n      swap2\n      swap1\n      pop\n      jump\t// out\n        /* \"#utility.yul\":21617:21762   */\n    tag_511:\n        /* \"#utility.yul\":21711:21755   */\n      tag_767\n        /* \"#utility.yul\":21749:21754   */\n      dup2\n        /* \"#utility.yul\":21711:21755   */\n      tag_510\n      jump\t// in\n    tag_767:\n        /* \"#utility.yul\":21706:21709   */\n      dup3\n        /* \"#utility.yul\":21699:21756   */\n      mstore\n        /* \"#utility.yul\":21617:21762   */\n      pop\n      pop\n      jump\t// out\n        /* \"#utility.yul\":21768:22004   */\n    tag_261:\n        /* \"#utility.yul\":21868:21872   */\n      0x00\n        /* \"#utility.yul\":21906:21908   */\n      0x20\n        /* \"#utility.yul\":21895:21904   */\n      dup3\n        /* \"#utility.yul\":21891:21909   */\n      add\n        /* \"#utility.yul\":21883:21909   */\n      swap1\n      pop\n        /* \"#utility.yul\":21919:21997   */\n      tag_769\n        /* \"#utility.yul\":21994:21995   */\n      0x00\n        /* \"#utility.yul\":21983:21992   */\n      dup4\n        /* \"#utility.yul\":21979:21996   */\n      add\n        /* \"#utility.yul\":21970:21976   */\n      dup5\n        /* \"#utility.yul\":21919:21997   */\n      tag_511\n      jump\t// in\n    tag_769:\n        /* \"#utility.yul\":21768:22004   */\n      swap3\n      swap2\n      pop\n      pop\n      jump\t// out\n        /* \"#utility.yul\":22010:22088   */\n    tag_512:\n        /* \"#utility.yul\":22048:22055   */\n      0x00\n        /* \"#utility.yul\":22077:22082   */\n      dup2\n        /* \"#utility.yul\":22066:22082   */\n      swap1\n      pop\n        /* \"#utility.yul\":22010:22088   */\n      swap2\n      swap1\n      pop\n      jump\t// out\n        /* \"#utility.yul\":22094:22247   */\n    tag_513:\n        /* \"#utility.yul\":22197:22240   */\n      tag_772\n        /* \"#utility.yul\":22216:22239   */\n      tag_773\n        /* \"#utility.yul\":22233:22238   */\n      dup3\n        /* \"#utility.yul\":22216:22239   */\n      tag_482\n      jump\t// in\n    tag_773:\n        /* \"#utility.yul\":22197:22240   */\n      tag_512\n      jump\t// in\n    tag_772:\n        /* \"#utility.yul\":22192:22195   */\n      dup3\n        /* \"#utility.yul\":22185:22241   */\n      mstore\n        /* \"#utility.yul\":22094:22247   */\n      pop\n      pop\n      jump\t// out\n        /* \"#utility.yul\":22253:22332   */\n    tag_514:\n        /* \"#utility.yul\":22292:22299   */\n      0x00\n        /* \"#utility.yul\":22321:22326   */\n      dup2\n        /* \"#utility.yul\":22310:22326   */\n      swap1\n      pop\n        /* \"#utility.yul\":22253:22332   */\n      swap2\n      swap1\n      pop\n      jump\t// out\n        /* \"#utility.yul\":22338:22495   */\n    tag_515:\n        /* \"#utility.yul\":22443:22488   */\n      tag_776\n        /* \"#utility.yul\":22463:22487   */\n      tag_777\n        /* \"#utility.yul\":22481:22486   */\n      dup3\n        /* \"#utility.yul\":22463:22487   */\n      tag_487\n      jump\t// in\n    tag_777:\n        /* \"#utility.yul\":22443:22488   */\n      tag_514\n      jump\t// in\n    tag_776:\n        /* \"#utility.yul\":22438:22441   */\n      dup3\n        /* \"#utility.yul\":22431:22489   */\n      mstore\n        /* \"#utility.yul\":22338:22495   */\n      pop\n      pop\n      jump\t// out\n        /* \"#utility.yul\":22501:23054   */\n    tag_269:\n        /* \"#utility.yul\":22687:22690   */\n      0x00\n        /* \"#utility.yul\":22709:22804   */\n      tag_779\n        /* \"#utility.yul\":22800:22803   */\n      dup3\n        /* \"#utility.yul\":22791:22797   */\n      dup7\n        /* \"#utility.yul\":22709:22804   */\n      tag_500\n      jump\t// in\n    tag_779:\n        /* \"#utility.yul\":22702:22804   */\n      swap2\n      pop\n        /* \"#utility.yul\":22814:22887   */\n      tag_780\n        /* \"#utility.yul\":22883:22886   */\n      dup3\n        /* \"#utility.yul\":22874:22880   */\n      dup6\n        /* \"#utility.yul\":22814:22887   */\n      tag_513\n      jump\t// in\n    tag_780:\n        /* \"#utility.yul\":22912:22914   */\n      0x20\n        /* \"#utility.yul\":22907:22910   */\n      dup3\n        /* \"#utility.yul\":22903:22915   */\n      add\n        /* \"#utility.yul\":22896:22915   */\n      swap2\n      pop\n        /* \"#utility.yul\":22925:23000   */\n      tag_781\n        /* \"#utility.yul\":22996:22999   */\n      dup3\n        /* \"#utility.yul\":22987:22993   */\n      dup5\n        /* \"#utility.yul\":22925:23000   */\n      tag_515\n      jump\t// in\n    tag_781:\n        /* \"#utility.yul\":23025:23027   */\n      0x20\n        /* \"#utility.yul\":23020:23023   */\n      dup3\n        /* \"#utility.yul\":23016:23028   */\n      add\n        /* \"#utility.yul\":23009:23028   */\n      swap2\n      pop\n        /* \"#utility.yul\":23045:23048   */\n      dup2\n        /* \"#utility.yul\":23038:23048   */\n      swap1\n      pop\n        /* \"#utility.yul\":22501:23054   */\n      swap5\n      swap4\n      pop\n      pop\n      pop\n      pop\n      jump\t// out\n        /* \"#utility.yul\":23060:23483   */\n    tag_275:\n        /* \"#utility.yul\":23201:23205   */\n      0x00\n        /* \"#utility.yul\":23239:23241   */\n      0x40\n        /* \"#utility.yul\":23228:23237   */\n      dup3\n        /* \"#utility.yul\":23224:23242   */\n      add\n        /* \"#utility.yul\":23216:23242   */\n      swap1\n      pop\n        /* \"#utility.yul\":23252:23323   */\n      tag_783\n        /* \"#utility.yul\":23320:23321   */\n      0x00\n        /* \"#utility.yul\":23309:23318   */\n      dup4\n        /* \"#utility.yul\":23305:23322   */\n      add\n        /* \"#utility.yul\":23296:23302   */\n      dup6\n        /* \"#utility.yul\":23252:23323   */\n      tag_477\n      jump\t// in\n    tag_783:\n        /* \"#utility.yul\":23370:23379   */\n      dup2\n        /* \"#utility.yul\":23364:23368   */\n      dup2\n        /* \"#utility.yul\":23360:23380   */\n      sub\n        /* \"#utility.yul\":23355:23357   */\n      0x20\n        /* \"#utility.yul\":23344:23353   */\n      dup4\n        /* \"#utility.yul\":23340:23358   */\n      add\n        /* \"#utility.yul\":23333:23381   */\n      mstore\n        /* \"#utility.yul\":23398:23476   */\n      tag_784\n        /* \"#utility.yul\":23471:23475   */\n      dup2\n        /* \"#utility.yul\":23462:23468   */\n      dup5\n        /* \"#utility.yul\":23398:23476   */\n      tag_481\n      jump\t// in\n    tag_784:\n        /* \"#utility.yul\":23390:23476   */\n      swap1\n      pop\n        /* \"#utility.yul\":23060:23483   */\n      swap4\n      swap3\n      pop\n      pop\n      pop\n      jump\t// out\n        /* \"#utility.yul\":23489:23630   */\n    tag_516:\n        /* \"#utility.yul\":23538:23542   */\n      0x00\n        /* \"#utility.yul\":23561:23564   */\n      dup2\n        /* \"#utility.yul\":23553:23564   */\n      swap1\n      pop\n        /* \"#utility.yul\":23584:23587   */\n      dup2\n        /* \"#utility.yul\":23581:23582   */\n      0x00\n        /* \"#utility.yul\":23574:23588   */\n      mstore\n        /* \"#utility.yul\":23618:23622   */\n      0x20\n        /* \"#utility.yul\":23615:23616   */\n      0x00\n        /* \"#utility.yul\":23605:23623   */\n      keccak256\n        /* \"#utility.yul\":23597:23623   */\n      swap1\n      pop\n        /* \"#utility.yul\":23489:23630   */\n      swap2\n      swap1\n      pop\n      jump\t// out\n        /* \"#utility.yul\":23660:24491   */\n    tag_517:\n        /* \"#utility.yul\":23745:23748   */\n      0x00\n        /* \"#utility.yul\":23782:23787   */\n      dup2\n        /* \"#utility.yul\":23776:23788   */\n      sload\n        /* \"#utility.yul\":23811:23847   */\n      tag_787\n        /* \"#utility.yul\":23837:23846   */\n      dup2\n        /* \"#utility.yul\":23811:23847   */\n      tag_177\n      jump\t// in\n    tag_787:\n        /* \"#utility.yul\":23863:23934   */\n      tag_788\n        /* \"#utility.yul\":23927:23933   */\n      dup2\n        /* \"#utility.yul\":23922:23925   */\n      dup7\n        /* \"#utility.yul\":23863:23934   */\n      tag_479\n      jump\t// in\n    tag_788:\n        /* \"#utility.yul\":23856:23934   */\n      swap5\n      pop\n        /* \"#utility.yul\":23965:23966   */\n      0x01\n        /* \"#utility.yul\":23954:23963   */\n      dup3\n        /* \"#utility.yul\":23950:23967   */\n      and\n        /* \"#utility.yul\":23981:23982   */\n      0x00\n        /* \"#utility.yul\":23976:24140   */\n      dup2\n      eq\n      tag_790\n      jumpi\n        /* \"#utility.yul\":24154:24155   */\n      0x01\n        /* \"#utility.yul\":24149:24485   */\n      dup2\n      eq\n      tag_791\n      jumpi\n        /* \"#utility.yul\":23943:24485   */\n      jump(tag_789)\n        /* \"#utility.yul\":23976:24140   */\n    tag_790:\n        /* \"#utility.yul\":24060:24064   */\n      0xff\n        /* \"#utility.yul\":24056:24065   */\n      not\n        /* \"#utility.yul\":24045:24054   */\n      dup4\n        /* \"#utility.yul\":24041:24066   */\n      and\n        /* \"#utility.yul\":24036:24039   */\n      dup7\n        /* \"#utility.yul\":24029:24067   */\n      mstore\n        /* \"#utility.yul\":24120:24126   */\n      dup2\n        /* \"#utility.yul\":24113:24127   */\n      iszero\n        /* \"#utility.yul\":24106:24128   */\n      iszero\n        /* \"#utility.yul\":24100:24104   */\n      0x20\n        /* \"#utility.yul\":24096:24129   */\n      mul\n        /* \"#utility.yul\":24091:24094   */\n      dup7\n        /* \"#utility.yul\":24087:24130   */\n      add\n        /* \"#utility.yul\":24080:24130   */\n      swap4\n      pop\n        /* \"#utility.yul\":23976:24140   */\n      jump(tag_789)\n        /* \"#utility.yul\":24149:24485   */\n    tag_791:\n        /* \"#utility.yul\":24216:24254   */\n      tag_792\n        /* \"#utility.yul\":24248:24253   */\n      dup6\n        /* \"#utility.yul\":24216:24254   */\n      tag_516\n      jump\t// in\n    tag_792:\n        /* \"#utility.yul\":24276:24277   */\n      0x00\n        /* \"#utility.yul\":24290:24444   */\n    tag_793:\n        /* \"#utility.yul\":24304:24310   */\n      dup4\n        /* \"#utility.yul\":24301:24302   */\n      dup2\n        /* \"#utility.yul\":24298:24311   */\n      lt\n        /* \"#utility.yul\":24290:24444   */\n      iszero\n      tag_795\n      jumpi\n        /* \"#utility.yul\":24378:24385   */\n      dup2\n        /* \"#utility.yul\":24372:24386   */\n      sload\n        /* \"#utility.yul\":24368:24369   */\n      dup2\n        /* \"#utility.yul\":24363:24366   */\n      dup10\n        /* \"#utility.yul\":24359:24370   */\n      add\n        /* \"#utility.yul\":24352:24387   */\n      mstore\n        /* \"#utility.yul\":24428:24429   */\n      0x01\n        /* \"#utility.yul\":24419:24426   */\n      dup3\n        /* \"#utility.yul\":24415:24430   */\n      add\n        /* \"#utility.yul\":24404:24430   */\n      swap2\n      pop\n        /* \"#utility.yul\":24326:24330   */\n      0x20\n        /* \"#utility.yul\":24323:24324   */\n      dup2\n        /* \"#utility.yul\":24319:24331   */\n      add\n        /* \"#utility.yul\":24314:24331   */\n      swap1\n      pop\n        /* \"#utility.yul\":24290:24444   */\n      jump(tag_793)\n    tag_795:\n        /* \"#utility.yul\":24473:24474   */\n      dup1\n        /* \"#utility.yul\":24468:24471   */\n      dup9\n        /* \"#utility.yul\":24464:24475   */\n      add\n        /* \"#utility.yul\":24457:24475   */\n      swap6\n      pop\n        /* \"#utility.yul\":24156:24485   */\n      pop\n      pop\n        /* \"#utility.yul\":23943:24485   */\n    tag_789:\n      pop\n        /* \"#utility.yul\":23749:24491   */\n      pop\n      pop\n        /* \"#utility.yul\":23660:24491   */\n      swap3\n      swap2\n      pop\n      pop\n      jump\t// out\n        /* \"#utility.yul\":24497:24999   */\n    tag_296:\n        /* \"#utility.yul\":24652:24656   */\n      0x00\n        /* \"#utility.yul\":24690:24692   */\n      0x40\n        /* \"#utility.yul\":24679:24688   */\n      dup3\n        /* \"#utility.yul\":24675:24693   */\n      add\n        /* \"#utility.yul\":24667:24693   */\n      swap1\n      pop\n        /* \"#utility.yul\":24739:24748   */\n      dup2\n        /* \"#utility.yul\":24733:24737   */\n      dup2\n        /* \"#utility.yul\":24729:24749   */\n      sub\n        /* \"#utility.yul\":24725:24726   */\n      0x00\n        /* \"#utility.yul\":24714:24723   */\n      dup4\n        /* \"#utility.yul\":24710:24727   */\n      add\n        /* \"#utility.yul\":24703:24750   */\n      mstore\n        /* \"#utility.yul\":24767:24842   */\n      tag_797\n        /* \"#utility.yul\":24837:24841   */\n      dup2\n        /* \"#utility.yul\":24828:24834   */\n      dup6\n        /* \"#utility.yul\":24767:24842   */\n      tag_517\n      jump\t// in\n    tag_797:\n        /* \"#utility.yul\":24759:24842   */\n      swap1\n      pop\n        /* \"#utility.yul\":24889:24898   */\n      dup2\n        /* \"#utility.yul\":24883:24887   */\n      dup2\n        /* \"#utility.yul\":24879:24899   */\n      sub\n        /* \"#utility.yul\":24874:24876   */\n      0x20\n        /* \"#utility.yul\":24863:24872   */\n      dup4\n        /* \"#utility.yul\":24859:24877   */\n      add\n        /* \"#utility.yul\":24852:24900   */\n      mstore\n        /* \"#utility.yul\":24917:24992   */\n      tag_798\n        /* \"#utility.yul\":24987:24991   */\n      dup2\n        /* \"#utility.yul\":24978:24984   */\n      dup5\n        /* \"#utility.yul\":24917:24992   */\n      tag_517\n      jump\t// in\n    tag_798:\n        /* \"#utility.yul\":24909:24992   */\n      swap1\n      pop\n        /* \"#utility.yul\":24497:24999   */\n      swap4\n      swap3\n      pop\n      pop\n      pop\n      jump\t// out\n        /* \"#utility.yul\":25005:25098   */\n    tag_518:\n        /* \"#utility.yul\":25042:25048   */\n      0x00\n        /* \"#utility.yul\":25089:25091   */\n      0x20\n        /* \"#utility.yul\":25084:25086   */\n      0x1f\n        /* \"#utility.yul\":25077:25082   */\n      dup4\n        /* \"#utility.yul\":25073:25087   */\n      add\n        /* \"#utility.yul\":25069:25092   */\n      div\n        /* \"#utility.yul\":25059:25092   */\n      swap1\n      pop\n        /* \"#utility.yul\":25005:25098   */\n      swap2\n      swap1\n      pop\n      jump\t// out\n        /* \"#utility.yul\":25104:25211   */\n    tag_519:\n        /* \"#utility.yul\":25148:25156   */\n      0x00\n        /* \"#utility.yul\":25198:25203   */\n      dup3\n        /* \"#utility.yul\":25192:25196   */\n      dup3\n        /* \"#utility.yul\":25188:25204   */\n      shl\n        /* \"#utility.yul\":25167:25204   */\n      swap1\n      pop\n        /* \"#utility.yul\":25104:25211   */\n      swap3\n      swap2\n      pop\n      pop\n      jump\t// out\n        /* \"#utility.yul\":25217:25610   */\n    tag_520:\n        /* \"#utility.yul\":25286:25292   */\n      0x00\n        /* \"#utility.yul\":25336:25337   */\n      0x08\n        /* \"#utility.yul\":25324:25334   */\n      dup4\n        /* \"#utility.yul\":25320:25338   */\n      mul\n        /* \"#utility.yul\":25359:25456   */\n      tag_802\n        /* \"#utility.yul\":25389:25455   */\n      0xffffffffffffffffffffffffffffffffffffffffffffffffffffffffffffffff\n        /* \"#utility.yul\":25378:25387   */\n      dup3\n        /* \"#utility.yul\":25359:25456   */\n      tag_519\n      jump\t// in\n    tag_802:\n        /* \"#utility.yul\":25477:25516   */\n      tag_803\n        /* \"#utility.yul\":25507:25515   */\n      dup7\n        /* \"#utility.yul\":25496:25505   */\n      dup4\n        /* \"#utility.yul\":25477:25516   */\n      tag_519\n      jump\t// in\n    tag_803:\n        /* \"#utility.yul\":25465:25516   */\n      swap6\n      pop\n        /* \"#utility.yul\":25549:25553   */\n      dup1\n        /* \"#utility.yul\":25545:25554   */\n      not\n        /* \"#utility.yul\":25538:25543   */\n      dup5\n        /* \"#utility.yul\":25534:25555   */\n      and\n        /* \"#utility.yul\":25525:25555   */\n      swap4\n      pop\n        /* \"#utility.yul\":25598:25602   */\n      dup1\n        /* \"#utility.yul\":25588:25596   */\n      dup7\n        /* \"#utility.yul\":25584:25603   */\n      and\n        /* \"#utility.yul\":25577:25582   */\n      dup5\n        /* \"#utility.yul\":25574:25604   */\n      or\n        /* \"#utility.yul\":25564:25604   */\n      swap3\n      pop\n        /* \"#utility.yul\":25293:25610   */\n      pop\n      pop\n        /* \"#utility.yul\":25217:25610   */\n      swap4\n      swap3\n      pop\n      pop\n      pop\n      jump\t// out\n        /* \"#utility.yul\":25616:25758   */\n    tag_521:\n        /* \"#utility.yul\":25666:25675   */\n      0x00\n        /* \"#utility.yul\":25699:25752   */\n      tag_805\n        /* \"#utility.yul\":25717:25751   */\n      tag_806\n        /* \"#utility.yul\":25726:25750   */\n      tag_807\n        /* \"#utility.yul\":25744:25749   */\n      dup5\n        /* \"#utility.yul\":25726:25750   */\n      tag_487\n      jump\t// in\n    tag_807:\n        /* \"#utility.yul\":25717:25751   */\n      tag_509\n      jump\t// in\n    tag_806:\n        /* \"#utility.yul\":25699:25752   */\n      tag_487\n      jump\t// in\n    tag_805:\n        /* \"#utility.yul\":25686:25752   */\n      swap1\n      pop\n        /* \"#utility.yul\":25616:25758   */\n      swap2\n      swap1\n      pop\n      jump\t// out\n        /* \"#utility.yul\":25764:25839   */\n    tag_522:\n        /* \"#utility.yul\":25807:25810   */\n      0x00\n        /* \"#utility.yul\":25828:25833   */\n      dup2\n        /* \"#utility.yul\":25821:25833   */\n      swap1\n      pop\n        /* \"#utility.yul\":25764:25839   */\n      swap2\n      swap1\n      pop\n      jump\t// out\n        /* \"#utility.yul\":25845:26114   */\n    tag_523:\n        /* \"#utility.yul\":25955:25994   */\n      tag_810\n        /* \"#utility.yul\":25986:25993   */\n      dup4\n        /* \"#utility.yul\":25955:25994   */\n      tag_521\n      jump\t// in\n    tag_810:\n        /* \"#utility.yul\":26016:26107   */\n      tag_811\n        /* \"#utility.yul\":26065:26106   */\n      tag_812\n        /* \"#utility.yul\":26089:26105   */\n      dup3\n        /* \"#utility.yul\":26065:26106   */\n      tag_522\n      jump\t// in\n    tag_812:\n        /* \"#utility.yul\":26057:26063   */\n      dup5\n        /* \"#utility.yul\":26050:26054   */\n      dup5\n        /* \"#utility.yul\":26044:26055   */\n      sload\n        /* \"#utility.yul\":26016:26107   */\n      tag_520\n      jump\t// in\n    tag_811:\n        /* \"#utility.yul\":26010:26014   */\n      dup3\n        /* \"#utility.yul\":26003:26108   */\n      sstore\n        /* \"#utility.yul\":25921:26114   */\n      pop\n        /* \"#utility.yul\":25845:26114   */\n      pop\n      pop\n      pop\n      jump\t// out\n        /* \"#utility.yul\":26120:26193   */\n    tag_524:\n        /* \"#utility.yul\":26165:26168   */\n      0x00\n        /* \"#utility.yul\":26120:26193   */\n      swap1\n      jump\t// out\n        /* \"#utility.yul\":26199:26388   */\n    tag_525:\n        /* \"#utility.yul\":26276:26308   */\n      tag_815\n      tag_524\n      jump\t// in\n    tag_815:\n        /* \"#utility.yul\":26317:26382   */\n      tag_816\n        /* \"#utility.yul\":26375:26381   */\n      dup2\n        /* \"#utility.yul\":26367:26373   */\n      dup5\n        /* \"#utility.yul\":26361:26365   */\n      dup5\n        /* \"#utility.yul\":26317:26382   */\n      tag_523\n      jump\t// in\n    tag_816:\n        /* \"#utility.yul\":26252:26388   */\n      pop\n        /* \"#utility.yul\":26199:26388   */\n      pop\n      pop\n      jump\t// out\n        /* \"#utility.yul\":26394:26580   */\n    tag_526:\n        /* \"#utility.yul\":26454:26574   */\n    tag_818:\n        /* \"#utility.yul\":26471:26474   */\n      dup2\n        /* \"#utility.yul\":26464:26469   */\n      dup2\n        /* \"#utility.yul\":26461:26475   */\n      lt\n        /* \"#utility.yul\":26454:26574   */\n      iszero\n      tag_820\n      jumpi\n        /* \"#utility.yul\":26525:26564   */\n      tag_821\n        /* \"#utility.yul\":26562:26563   */\n      0x00\n        /* \"#utility.yul\":26555:26560   */\n      dup3\n        /* \"#utility.yul\":26525:26564   */\n      tag_525\n      jump\t// in\n    tag_821:\n        /* \"#utility.yul\":26498:26499   */\n      0x01\n        /* \"#utility.yul\":26491:26496   */\n      dup2\n        /* \"#utility.yul\":26487:26500   */\n      add\n        /* \"#utility.yul\":26478:26500   */\n      swap1\n      pop\n        /* \"#utility.yul\":26454:26574   */\n      jump(tag_818)\n    tag_820:\n        /* \"#utility.yul\":26394:26580   */\n      pop\n      pop\n      jump\t// out\n        /* \"#utility.yul\":26586:27129   */\n    tag_527:\n        /* \"#utility.yul\":26687:26689   */\n      0x1f\n        /* \"#utility.yul\":26682:26685   */\n      dup3\n        /* \"#utility.yul\":26679:26690   */\n      gt\n        /* \"#utility.yul\":26676:27122   */\n      iszero\n      tag_823\n      jumpi\n        /* \"#utility.yul\":26721:26759   */\n      tag_824\n        /* \"#utility.yul\":26753:26758   */\n      dup2\n        /* \"#utility.yul\":26721:26759   */\n      tag_516\n      jump\t// in\n    tag_824:\n        /* \"#utility.yul\":26805:26834   */\n      tag_825\n        /* \"#utility.yul\":26823:26833   */\n      dup5\n        /* \"#utility.yul\":26805:26834   */\n      tag_518\n      jump\t// in\n    tag_825:\n        /* \"#utility.yul\":26795:26803   */\n      dup2\n        /* \"#utility.yul\":26791:26835   */\n      add\n        /* \"#utility.yul\":26988:26990   */\n      0x20\n        /* \"#utility.yul\":26976:26986   */\n      dup6\n        /* \"#utility.yul\":26973:26991   */\n      lt\n        /* \"#utility.yul\":26970:27019   */\n      iszero\n      tag_826\n      jumpi\n        /* \"#utility.yul\":27009:27017   */\n      dup2\n        /* \"#utility.yul\":26994:27017   */\n      swap1\n      pop\n        /* \"#utility.yul\":26970:27019   */\n    tag_826:\n        /* \"#utility.yul\":27032:27112   */\n      tag_827\n        /* \"#utility.yul\":27088:27110   */\n      tag_828\n        /* \"#utility.yul\":27106:27109   */\n      dup6\n        /* \"#utility.yul\":27088:27110   */\n      tag_518\n      jump\t// in\n    tag_828:\n        /* \"#utility.yul\":27078:27086   */\n      dup4\n        /* \"#utility.yul\":27074:27111   */\n      add\n        /* \"#utility.yul\":27061:27072   */\n      dup3\n        /* \"#utility.yul\":27032:27112   */\n      tag_526\n      jump\t// in\n    tag_827:\n        /* \"#utility.yul\":26691:27122   */\n      pop\n      pop\n        /* \"#utility.yul\":26676:27122   */\n    tag_823:\n        /* \"#utility.yul\":26586:27129   */\n      pop\n      pop\n      pop\n      jump\t// out\n        /* \"#utility.yul\":27135:27252   */\n    tag_528:\n        /* \"#utility.yul\":27189:27197   */\n      0x00\n        /* \"#utility.yul\":27239:27244   */\n      dup3\n        /* \"#utility.yul\":27233:27237   */\n      dup3\n        /* \"#utility.yul\":27229:27245   */\n      shr\n        /* \"#utility.yul\":27208:27245   */\n      swap1\n      pop\n        /* \"#utility.yul\":27135:27252   */\n      swap3\n      swap2\n      pop\n      pop\n      jump\t// out\n        /* \"#utility.yul\":27258:27427   */\n    tag_529:\n        /* \"#utility.yul\":27302:27308   */\n      0x00\n        /* \"#utility.yul\":27335:27386   */\n      tag_831\n        /* \"#utility.yul\":27383:27384   */\n      0x00\n        /* \"#utility.yul\":27379:27385   */\n      not\n        /* \"#utility.yul\":27371:27376   */\n      dup5\n        /* \"#utility.yul\":27368:27369   */\n      0x08\n        /* \"#utility.yul\":27364:27377   */\n      mul\n        /* \"#utility.yul\":27335:27386   */\n      tag_528\n      jump\t// in\n    tag_831:\n        /* \"#utility.yul\":27331:27387   */\n      not\n        /* \"#utility.yul\":27416:27420   */\n      dup1\n        /* \"#utility.yul\":27410:27414   */\n      dup4\n        /* \"#utility.yul\":27406:27421   */\n      and\n        /* \"#utility.yul\":27396:27421   */\n      swap2\n      pop\n        /* \"#utility.yul\":27309:27427   */\n      pop\n        /* \"#utility.yul\":27258:27427   */\n      swap3\n      swap2\n      pop\n      pop\n      jump\t// out\n        /* \"#utility.yul\":27432:27727   */\n    tag_530:\n        /* \"#utility.yul\":27508:27512   */\n      0x00\n        /* \"#utility.yul\":27654:27683   */\n      tag_833\n        /* \"#utility.yul\":27679:27682   */\n      dup4\n        /* \"#utility.yul\":27673:27677   */\n      dup4\n        /* \"#utility.yul\":27654:27683   */\n      tag_529\n      jump\t// in\n    tag_833:\n        /* \"#utility.yul\":27646:27683   */\n      swap2\n      pop\n        /* \"#utility.yul\":27716:27719   */\n      dup3\n        /* \"#utility.yul\":27713:27714   */\n      0x02\n        /* \"#utility.yul\":27709:27720   */\n      mul\n        /* \"#utility.yul\":27703:27707   */\n      dup3\n        /* \"#utility.yul\":27700:27721   */\n      or\n        /* \"#utility.yul\":27692:27721   */\n      swap1\n      pop\n        /* \"#utility.yul\":27432:27727   */\n      swap3\n      swap2\n      pop\n      pop\n      jump\t// out\n        /* \"#utility.yul\":27732:29127   */\n    tag_307:\n        /* \"#utility.yul\":27849:27886   */\n      tag_835\n        /* \"#utility.yul\":27882:27885   */\n      dup3\n        /* \"#utility.yul\":27849:27886   */\n      tag_478\n      jump\t// in\n    tag_835:\n        /* \"#utility.yul\":27951:27969   */\n      0xffffffffffffffff\n        /* \"#utility.yul\":27943:27949   */\n      dup2\n        /* \"#utility.yul\":27940:27970   */\n      gt\n        /* \"#utility.yul\":27937:27993   */\n      iszero\n      tag_836\n      jumpi\n        /* \"#utility.yul\":27973:27991   */\n      tag_837\n      tag_470\n      jump\t// in\n    tag_837:\n        /* \"#utility.yul\":27937:27993   */\n    tag_836:\n        /* \"#utility.yul\":28017:28055   */\n      tag_838\n        /* \"#utility.yul\":28049:28053   */\n      dup3\n        /* \"#utility.yul\":28043:28054   */\n      sload\n        /* \"#utility.yul\":28017:28055   */\n      tag_177\n      jump\t// in\n    tag_838:\n        /* \"#utility.yul\":28102:28169   */\n      tag_839\n        /* \"#utility.yul\":28162:28168   */\n      dup3\n        /* \"#utility.yul\":28154:28160   */\n      dup3\n        /* \"#utility.yul\":28148:28152   */\n      dup6\n        /* \"#utility.yul\":28102:28169   */\n      tag_527\n      jump\t// in\n    tag_839:\n        /* \"#utility.yul\":28196:28197   */\n      0x00\n        /* \"#utility.yul\":28220:28224   */\n      0x20\n        /* \"#utility.yul\":28207:28224   */\n      swap1\n      pop\n        /* \"#utility.yul\":28252:28254   */\n      0x1f\n        /* \"#utility.yul\":28244:28250   */\n      dup4\n        /* \"#utility.yul\":28241:28255   */\n      gt\n        /* \"#utility.yul\":28269:28270   */\n      0x01\n        /* \"#utility.yul\":28264:28882   */\n      dup2\n      eq\n      tag_841\n      jumpi\n        /* \"#utility.yul\":28926:28927   */\n      0x00\n        /* \"#utility.yul\":28943:28949   */\n      dup5\n        /* \"#utility.yul\":28940:29017   */\n      iszero\n      tag_842\n      jumpi\n        /* \"#utility.yul\":28992:29001   */\n      dup3\n        /* \"#utility.yul\":28987:28990   */\n      dup8\n        /* \"#utility.yul\":28983:29002   */\n      add\n        /* \"#utility.yul\":28977:29003   */\n      mload\n        /* \"#utility.yul\":28968:29003   */\n      swap1\n      pop\n        /* \"#utility.yul\":28940:29017   */\n    tag_842:\n        /* \"#utility.yul\":29043:29110   */\n      tag_843\n        /* \"#utility.yul\":29103:29109   */\n      dup6\n        /* \"#utility.yul\":29096:29101   */\n      dup3\n        /* \"#utility.yul\":29043:29110   */\n      tag_530\n      jump\t// in\n    tag_843:\n        /* \"#utility.yul\":29037:29041   */\n      dup7\n        /* \"#utility.yul\":29030:29111   */\n      sstore\n        /* \"#utility.yul\":28899:29121   */\n      pop\n        /* \"#utility.yul\":28234:29121   */\n      jump(tag_840)\n        /* \"#utility.yul\":28264:28882   */\n    tag_841:\n        /* \"#utility.yul\":28316:28320   */\n      0x1f\n        /* \"#utility.yul\":28312:28321   */\n      not\n        /* \"#utility.yul\":28304:28310   */\n      dup5\n        /* \"#utility.yul\":28300:28322   */\n      and\n        /* \"#utility.yul\":28350:28387   */\n      tag_844\n        /* \"#utility.yul\":28382:28386   */\n      dup7\n        /* \"#utility.yul\":28350:28387   */\n      tag_516\n      jump\t// in\n    tag_844:\n        /* \"#utility.yul\":28409:28410   */\n      0x00\n        /* \"#utility.yul\":28423:28631   */\n    tag_845:\n        /* \"#utility.yul\":28437:28444   */\n      dup3\n        /* \"#utility.yul\":28434:28435   */\n      dup2\n        /* \"#utility.yul\":28431:28445   */\n      lt\n        /* \"#utility.yul\":28423:28631   */\n      iszero\n      tag_847\n      jumpi\n        /* \"#utility.yul\":28516:28525   */\n      dup5\n        /* \"#utility.yul\":28511:28514   */\n      dup10\n        /* \"#utility.yul\":28507:28526   */\n      add\n        /* \"#utility.yul\":28501:28527   */\n      mload\n        /* \"#utility.yul\":28493:28499   */\n      dup3\n        /* \"#utility.yul\":28486:28528   */\n      sstore\n        /* \"#utility.yul\":28567:28568   */\n      0x01\n        /* \"#utility.yul\":28559:28565   */\n      dup3\n        /* \"#utility.yul\":28555:28569   */\n      add\n        /* \"#utility.yul\":28545:28569   */\n      swap2\n      pop\n        /* \"#utility.yul\":28614:28616   */\n      0x20\n        /* \"#utility.yul\":28603:28612   */\n      dup6\n        /* \"#utility.yul\":28599:28617   */\n      add\n        /* \"#utility.yul\":28586:28617   */\n      swap5\n      pop\n        /* \"#utility.yul\":28460:28464   */\n      0x20\n        /* \"#utility.yul\":28457:28458   */\n      dup2\n        /* \"#utility.yul\":28453:28465   */\n      add\n        /* \"#utility.yul\":28448:28465   */\n      swap1\n      pop\n        /* \"#utility.yul\":28423:28631   */\n      jump(tag_845)\n    tag_847:\n        /* \"#utility.yul\":28659:28665   */\n      dup7\n        /* \"#utility.yul\":28650:28657   */\n      dup4\n        /* \"#utility.yul\":28647:28666   */\n      lt\n        /* \"#utility.yul\":28644:28823   */\n      iszero\n      tag_848\n      jumpi\n        /* \"#utility.yul\":28717:28726   */\n      dup5\n        /* \"#utility.yul\":28712:28715   */\n      dup10\n        /* \"#utility.yul\":28708:28727   */\n      add\n        /* \"#utility.yul\":28702:28728   */\n      mload\n        /* \"#utility.yul\":28760:28808   */\n      tag_849\n        /* \"#utility.yul\":28802:28806   */\n      0x1f\n        /* \"#utility.yul\":28794:28800   */\n      dup10\n        /* \"#utility.yul\":28790:28807   */\n      and\n        /* \"#utility.yul\":28779:28788   */\n      dup3\n        /* \"#utility.yul\":28760:28808   */\n      tag_529\n      jump\t// in\n    tag_849:\n        /* \"#utility.yul\":28752:28758   */\n      dup4\n        /* \"#utility.yul\":28745:28809   */\n      sstore\n        /* \"#utility.yul\":28667:28823   */\n      pop\n        /* \"#utility.yul\":28644:28823   */\n    tag_848:\n        /* \"#utility.yul\":28869:28870   */\n      0x01\n        /* \"#utility.yul\":28865:28866   */\n      0x02\n        /* \"#utility.yul\":28857:28863   */\n      dup9\n        /* \"#utility.yul\":28853:28867   */\n      mul\n        /* \"#utility.yul\":28849:28871   */\n      add\n        /* \"#utility.yul\":28843:28847   */\n      dup9\n        /* \"#utility.yul\":28836:28872   */\n      sstore\n        /* \"#utility.yul\":28271:28882   */\n      pop\n      pop\n      pop\n        /* \"#utility.yul\":28234:29121   */\n    tag_840:\n      pop\n        /* \"#utility.yul\":27824:29127   */\n      pop\n      pop\n      pop\n        /* \"#utility.yul\":27732:29127   */\n      pop\n      pop\n      jump\t// out\n        /* \"#utility.yul\":29133:29757   */\n    tag_312:\n        /* \"#utility.yul\":29322:29326   */\n      0x00\n        /* \"#utility.yul\":29360:29362   */\n      0x60\n        /* \"#utility.yul\":29349:29358   */\n      dup3\n        /* \"#utility.yul\":29345:29363   */\n      add\n        /* \"#utility.yul\":29337:29363   */\n      swap1\n      pop\n        /* \"#utility.yul\":29373:29444   */\n      tag_851\n        /* \"#utility.yul\":29441:29442   */\n      0x00\n        /* \"#utility.yul\":29430:29439   */\n      dup4\n        /* \"#utility.yul\":29426:29443   */\n      add\n        /* \"#utility.yul\":29417:29423   */\n      dup7\n        /* \"#utility.yul\":29373:29444   */\n      tag_477\n      jump\t// in\n    tag_851:\n        /* \"#utility.yul\":29491:29500   */\n      dup2\n        /* \"#utility.yul\":29485:29489   */\n      dup2\n        /* \"#utility.yul\":29481:29501   */\n      sub\n        /* \"#utility.yul\":29476:29478   */\n      0x20\n        /* \"#utility.yul\":29465:29474   */\n      dup4\n        /* \"#utility.yul\":29461:29479   */\n      add\n        /* \"#utility.yul\":29454:29502   */\n      mstore\n        /* \"#utility.yul\":29519:29597   */\n      tag_852\n        /* \"#utility.yul\":29592:29596   */\n      dup2\n        /* \"#utility.yul\":29583:29589   */\n      dup6\n        /* \"#utility.yul\":29519:29597   */\n      tag_481\n      jump\t// in\n    tag_852:\n        /* \"#utility.yul\":29511:29597   */\n      swap1\n      pop\n        /* \"#utility.yul\":29644:29653   */\n      dup2\n        /* \"#utility.yul\":29638:29642   */\n      dup2\n        /* \"#utility.yul\":29634:29654   */\n      sub\n        /* \"#utility.yul\":29629:29631   */\n      0x40\n        /* \"#utility.yul\":29618:29627   */\n      dup4\n        /* \"#utility.yul\":29614:29632   */\n      add\n        /* \"#utility.yul\":29607:29655   */\n      mstore\n        /* \"#utility.yul\":29672:29750   */\n      tag_853\n        /* \"#utility.yul\":29745:29749   */\n      dup2\n        /* \"#utility.yul\":29736:29742   */\n      dup5\n        /* \"#utility.yul\":29672:29750   */\n      tag_481\n      jump\t// in\n    tag_853:\n        /* \"#utility.yul\":29664:29750   */\n      swap1\n      pop\n        /* \"#utility.yul\":29133:29757   */\n      swap5\n      swap4\n      pop\n      pop\n      pop\n      pop\n      jump\t// out\n        /* \"#utility.yul\":29763:29985   */\n    tag_346:\n        /* \"#utility.yul\":29856:29860   */\n      0x00\n        /* \"#utility.yul\":29894:29896   */\n      0x20\n        /* \"#utility.yul\":29883:29892   */\n      dup3\n        /* \"#utility.yul\":29879:29897   */\n      add\n        /* \"#utility.yul\":29871:29897   */\n      swap1\n      pop\n        /* \"#utility.yul\":29907:29978   */\n      tag_855\n        /* \"#utility.yul\":29975:29976   */\n      0x00\n        /* \"#utility.yul\":29964:29973   */\n      dup4\n        /* \"#utility.yul\":29960:29977   */\n      add\n        /* \"#utility.yul\":29951:29957   */\n      dup5\n        /* \"#utility.yul\":29907:29978   */\n      tag_477\n      jump\t// in\n    tag_855:\n        /* \"#utility.yul\":29763:29985   */\n      swap3\n      swap2\n      pop\n      pop\n      jump\t// out\n        /* \"#utility.yul\":29991:30134   */\n    tag_531:\n        /* \"#utility.yul\":30048:30053   */\n      0x00\n        /* \"#utility.yul\":30079:30085   */\n      dup2\n        /* \"#utility.yul\":30073:30086   */\n      mload\n        /* \"#utility.yul\":30064:30086   */\n      swap1\n      pop\n        /* \"#utility.yul\":30095:30128   */\n      tag_857\n        /* \"#utility.yul\":30122:30127   */\n      dup2\n        /* \"#utility.yul\":30095:30128   */\n      tag_460\n      jump\t// in\n    tag_857:\n        /* \"#utility.yul\":29991:30134   */\n      swap3\n      swap2\n      pop\n      pop\n      jump\t// out\n        /* \"#utility.yul\":30140:30491   */\n    tag_358:\n        /* \"#utility.yul\":30210:30216   */\n      0x00\n        /* \"#utility.yul\":30259:30261   */\n      0x20\n        /* \"#utility.yul\":30247:30256   */\n      dup3\n        /* \"#utility.yul\":30238:30245   */\n      dup5\n        /* \"#utility.yul\":30234:30257   */\n      sub\n        /* \"#utility.yul\":30230:30262   */\n      slt\n        /* \"#utility.yul\":30227:30346   */\n      iszero\n      tag_859\n      jumpi\n        /* \"#utility.yul\":30265:30344   */\n      tag_860\n      tag_452\n      jump\t// in\n    tag_860:\n        /* \"#utility.yul\":30227:30346   */\n    tag_859:\n        /* \"#utility.yul\":30385:30386   */\n      0x00\n        /* \"#utility.yul\":30410:30474   */\n      tag_861\n        /* \"#utility.yul\":30466:30473   */\n      dup5\n        /* \"#utility.yul\":30457:30463   */\n      dup3\n        /* \"#utility.yul\":30446:30455   */\n      dup6\n        /* \"#utility.yul\":30442:30464   */\n      add\n        /* \"#utility.yul\":30410:30474   */\n      tag_531\n      jump\t// in\n    tag_861:\n        /* \"#utility.yul\":30400:30474   */\n      swap2\n      pop\n        /* \"#utility.yul\":30356:30484   */\n      pop\n        /* \"#utility.yul\":30140:30491   */\n      swap3\n      swap2\n      pop\n      pop\n      jump\t// out\n        /* \"#utility.yul\":30497:30829   */\n    tag_396:\n        /* \"#utility.yul\":30618:30622   */\n      0x00\n        /* \"#utility.yul\":30656:30658   */\n      0x40\n        /* \"#utility.yul\":30645:30654   */\n      dup3\n        /* \"#utility.yul\":30641:30659   */\n      add\n        /* \"#utility.yul\":30633:30659   */\n      swap1\n      pop\n        /* \"#utility.yul\":30669:30740   */\n      tag_863\n        /* \"#utility.yul\":30737:30738   */\n      0x00\n        /* \"#utility.yul\":30726:30735   */\n      dup4\n        /* \"#utility.yul\":30722:30739   */\n      add\n        /* \"#utility.yul\":30713:30719   */\n      dup6\n        /* \"#utility.yul\":30669:30740   */\n      tag_477\n      jump\t// in\n    tag_863:\n        /* \"#utility.yul\":30750:30822   */\n      tag_864\n        /* \"#utility.yul\":30818:30820   */\n      0x20\n        /* \"#utility.yul\":30807:30816   */\n      dup4\n        /* \"#utility.yul\":30803:30821   */\n      add\n        /* \"#utility.yul\":30794:30800   */\n      dup5\n        /* \"#utility.yul\":30750:30822   */\n      tag_462\n      jump\t// in\n    tag_864:\n        /* \"#utility.yul\":30497:30829   */\n      swap4\n      swap3\n      pop\n      pop\n      pop\n      jump\t// out\n        /* \"#utility.yul\":30835:30933   */\n    tag_532:\n        /* \"#utility.yul\":30886:30892   */\n      0x00\n        /* \"#utility.yul\":30920:30925   */\n      dup2\n        /* \"#utility.yul\":30914:30926   */\n      mload\n        /* \"#utility.yul\":30904:30926   */\n      swap1\n      pop\n        /* \"#utility.yul\":30835:30933   */\n      swap2\n      swap1\n      pop\n      jump\t// out\n        /* \"#utility.yul\":30939:31086   */\n    tag_533:\n        /* \"#utility.yul\":31040:31051   */\n      0x00\n        /* \"#utility.yul\":31077:31080   */\n      dup2\n        /* \"#utility.yul\":31062:31080   */\n      swap1\n      pop\n        /* \"#utility.yul\":30939:31086   */\n      swap3\n      swap2\n      pop\n      pop\n      jump\t// out\n        /* \"#utility.yul\":31092:31478   */\n    tag_534:\n        /* \"#utility.yul\":31196:31199   */\n      0x00\n        /* \"#utility.yul\":31224:31262   */\n      tag_868\n        /* \"#utility.yul\":31256:31261   */\n      dup3\n        /* \"#utility.yul\":31224:31262   */\n      tag_532\n      jump\t// in\n    tag_868:\n        /* \"#utility.yul\":31278:31366   */\n      tag_869\n        /* \"#utility.yul\":31359:31365   */\n      dup2\n        /* \"#utility.yul\":31354:31357   */\n      dup6\n        /* \"#utility.yul\":31278:31366   */\n      tag_533\n      jump\t// in\n    tag_869:\n        /* \"#utility.yul\":31271:31366   */\n      swap4\n      pop\n        /* \"#utility.yul\":31375:31440   */\n      tag_870\n        /* \"#utility.yul\":31433:31439   */\n      dup2\n        /* \"#utility.yul\":31428:31431   */\n      dup6\n        /* \"#utility.yul\":31421:31425   */\n      0x20\n        /* \"#utility.yul\":31414:31419   */\n      dup7\n        /* \"#utility.yul\":31410:31426   */\n      add\n        /* \"#utility.yul\":31375:31440   */\n      tag_480\n      jump\t// in\n    tag_870:\n        /* \"#utility.yul\":31465:31471   */\n      dup1\n        /* \"#utility.yul\":31460:31463   */\n      dup5\n        /* \"#utility.yul\":31456:31472   */\n      add\n        /* \"#utility.yul\":31449:31472   */\n      swap2\n      pop\n        /* \"#utility.yul\":31200:31478   */\n      pop\n        /* \"#utility.yul\":31092:31478   */\n      swap3\n      swap2\n      pop\n      pop\n      jump\t// out\n        /* \"#utility.yul\":31484:31755   */\n    tag_430:\n        /* \"#utility.yul\":31614:31617   */\n      0x00\n        /* \"#utility.yul\":31636:31729   */\n      tag_872\n        /* \"#utility.yul\":31725:31728   */\n      dup3\n        /* \"#utility.yul\":31716:31722   */\n      dup5\n        /* \"#utility.yul\":31636:31729   */\n      tag_534\n      jump\t// in\n    tag_872:\n        /* \"#utility.yul\":31629:31729   */\n      swap2\n      pop\n        /* \"#utility.yul\":31746:31749   */\n      dup2\n        /* \"#utility.yul\":31739:31749   */\n      swap1\n      pop\n        /* \"#utility.yul\":31484:31755   */\n      swap3\n      swap2\n      pop\n      pop\n      jump\t// out\n\n    auxdata: 0xa264697066735822122059927d5dcca2d2c82c6dbd86e0396a6cdae4a59c3d9cb9260a7bcf8cd597876a64736f6c63430008180033\n}\n",
				"bytecode": {
					"linkReferences": {},
					"object": "60a06040523073ffffffffffffffffffffffffffffffffffffffff1660809073ffffffffffffffffffffffffffffffffffffffff16815250348015610042575f80fd5b506080516133076100695f395f8181611a6d01528181611ac20152611c9f01526133075ff3fe608060405260043610610180575f3560e01c80638129fc1c116100d0578063c78b432e11610089578063e63ab1e911610063578063e63ab1e9146104ff578063ec11c4e914610529578063f72c0d8b14610551578063ff52c4841461057b57610180565b8063c78b432e14610499578063d547741f146104af578063df2d0728146104d757610180565b80638129fc1c146103b55780638456cb59146103cb578063858f0e93146103e157806391d1485414610409578063a217fddf14610445578063ad3cb1cc1461046f57610180565b80634f1ef2861161013d5780636861c20c116101175780636861c20c146103155780636ba639561461033d578063729d581c1461036557806379648ed31461038d57610180565b80634f1ef286146102a557806352d1902d146102c15780635c975abb146102eb57610180565b806301ffc9a714610184578063248a9ca3146101c05780632f2ff15d146101fc57806336568abe146102245780633f4ba83a1461024c57806347a0410014610262575b5f80fd5b34801561018f575f80fd5b506101aa60048036038101906101a591906122f1565b6105b7565b6040516101b79190612336565b60405180910390f35b3480156101cb575f80fd5b506101e660048036038101906101e19190612382565b610630565b6040516101f391906123bc565b60405180910390f35b348015610207575f80fd5b50610222600480360381019061021d919061242f565b61065a565b005b34801561022f575f80fd5b5061024a6004803603810190610245919061242f565b61067c565b005b348015610257575f80fd5b506102606106f7565b005b34801561026d575f80fd5b50610288600480360381019061028391906125a9565b61072c565b60405161029c989796959493929190612691565b60405180910390f35b6102bf60048036038101906102ba91906127b9565b6108ea565b005b3480156102cc575f80fd5b506102d5610909565b6040516102e291906123bc565b60405180910390f35b3480156102f6575f80fd5b506102ff61093a565b60405161030c9190612336565b60405180910390f35b348015610320575f80fd5b5061033b60048036038101906103369190612846565b61095c565b005b348015610348575f80fd5b50610363600480360381019061035e919061289b565b6109ad565b005b348015610370575f80fd5b5061038b600480360381019061038691906128f5565b610ba4565b005b348015610398575f80fd5b506103b360048036038101906103ae91906128f5565b610cde565b005b3480156103c0575f80fd5b506103c9610e19565b005b3480156103d6575f80fd5b506103df61100b565b005b3480156103ec575f80fd5b506104076004803603810190610402919061294f565b611040565b005b348015610414575f80fd5b5061042f600480360381019061042a919061242f565b61118d565b60405161043c9190612336565b60405180910390f35b348015610450575f80fd5b506104596111fe565b60405161046691906123bc565b60405180910390f35b34801561047a575f80fd5b50610483611204565b60405161049091906129fe565b60405180910390f35b3480156104a4575f80fd5b506104ad61123d565b005b3480156104ba575f80fd5b506104d560048036038101906104d0919061242f565b61141f565b005b3480156104e2575f80fd5b506104fd60048036038101906104f89190612a48565b611441565b005b34801561050a575f80fd5b50610513611445565b60405161052091906123bc565b60405180910390f35b348015610534575f80fd5b5061054f600480360381019061054a919061294f565b611469565b005b34801561055c575f80fd5b50610565611698565b60405161057291906123bc565b60405180910390f35b348015610586575f80fd5b506105a1600480360381019061059c9190612846565b6116bc565b6040516105ae91906129fe565b60405180910390f35b5f7f7965db0b000000000000000000000000000000000000000000000000000000007bffffffffffffffffffffffffffffffffffffffffffffffffffffffff1916827bffffffffffffffffffffffffffffffffffffffffffffffffffffffff19161480610629575061062882611762565b5b9050919050565b5f8061063a6117cb565b9050805f015f8481526020019081526020015f2060010154915050919050565b61066382610630565b61066c816117f2565b6106768383611806565b50505050565b6106846118fe565b73ffffffffffffffffffffffffffffffffffffffff168173ffffffffffffffffffffffffffffffffffffffff16146106e8576040517f6697b23200000000000000000000000000000000000000000000000000000000815260040160405180910390fd5b6106f28282611905565b505050565b7f65d7a28e3265b37a6474929f336521b332c1681b933f6cb9f3376673440d862a610721816117f2565b6107296119fd565b50565b5f818051602081018201805184825260208301602085012081835280955050505050505f91509050805f015f9054906101000a900473ffffffffffffffffffffffffffffffffffffffff1690806001015f9054906101000a900473ffffffffffffffffffffffffffffffffffffffff16908060020180546107ac90612ab3565b80601f01602080910402602001604051908101604052809291908181526020018280546107d890612ab3565b80156108235780601f106107fa57610100808354040283529160200191610823565b820191905f5260205f20905b81548152906001019060200180831161080657829003601f168201915b50505050509080600301549080600401549080600501805461084490612ab3565b80601f016020809104026020016040519081016040528092919081815260200182805461087090612ab3565b80156108bb5780601f10610892576101008083540402835291602001916108bb565b820191905f5260205f20905b81548152906001019060200180831161089e57829003601f168201915b505050505090806006015f9054906101000a900460ff16908060060160019054906101000a900460ff16905088565b6108f2611a6b565b6108fb82611b51565b6109058282611b7f565b5050565b5f610912611c9d565b7f360894a13ba1a3210667c828492db98dca3e2076cc3735a920a3ca505d382bbc5f1b905090565b5f80610944611d24565b9050805f015f9054906101000a900460ff1691505090565b3373ffffffffffffffffffffffffffffffffffffffff167f0c27e43af6588b65dccc4465720ef720b7cf45f5fba352df8607ae1cfea9089b826040516109a29190612af2565b60405180910390a250565b5f600180549050116109f4576040517f08c379a00000000000000000000000000000000000000000000000000000000081526004016109eb90612b55565b60405180910390fd5b5f6001808080549050610a079190612ba0565b81548110610a1857610a17612bd3565b5b905f5260205f20018054610a2b90612ab3565b80601f0160208091040260200160405190810160405280929190818152602001828054610a5790612ab3565b8015610aa25780601f10610a7957610100808354040283529160200191610aa2565b820191905f5260205f20905b815481529060010190602001808311610a8557829003601f168201915b505050505090505f81604051610ab89190612c3a565b90815260200160405180910390206006015f9054906101000a900460ff16610b15576040517f08c379a0000000000000000000000000000000000000000000000000000000008152600401610b0c90612c9a565b60405180910390fd5b60015f82604051610b269190612c3a565b908152602001604051809103902060060160016101000a81548160ff021916908315150217905550825f82604051610b5e9190612c3a565b9081526020016040518091039020600401819055507f4145167a2ecc3424513c83e72c2d0e4a94f423754b82af0bdeaf9fd0f7a174b760405160405180910390a1505050565b3373ffffffffffffffffffffffffffffffffffffffff165f83604051610bca9190612c3a565b90815260200160405180910390205f015f9054906101000a900473ffffffffffffffffffffffffffffffffffffffff1673ffffffffffffffffffffffffffffffffffffffff1614610c50576040517f08c379a0000000000000000000000000000000000000000000000000000000008152600401610c4790612d02565b60405180910390fd5b60015f83604051610c619190612c3a565b908152602001604051809103902060060160016101000a81548160ff021916908315150217905550805f83604051610c999190612c3a565b9081526020016040518091039020600401819055507f4145167a2ecc3424513c83e72c2d0e4a94f423754b82af0bdeaf9fd0f7a174b760405160405180910390a15050565b3373ffffffffffffffffffffffffffffffffffffffff165f83604051610d049190612c3a565b90815260200160405180910390206001015f9054906101000a900473ffffffffffffffffffffffffffffffffffffffff1673ffffffffffffffffffffffffffffffffffffffff1614610d8b576040517f08c379a0000000000000000000000000000000000000000000000000000000008152600401610d8290612d6a565b60405180910390fd5b60015f83604051610d9c9190612c3a565b908152602001604051809103902060060160016101000a81548160ff021916908315150217905550805f83604051610dd49190612c3a565b9081526020016040518091039020600401819055507f4145167a2ecc3424513c83e72c2d0e4a94f423754b82af0bdeaf9fd0f7a174b760405160405180910390a15050565b5f610e22611d4b565b90505f815f0160089054906101000a900460ff161590505f825f015f9054906101000a900467ffffffffffffffff1690505f808267ffffffffffffffff16148015610e6a5750825b90505f60018367ffffffffffffffff16148015610e9d57505f3073ffffffffffffffffffffffffffffffffffffffff163b145b905081158015610eab575080155b15610ee2576040517ff92ee8a900000000000000000000000000000000000000000000000000000000815260040160405180910390fd5b6001855f015f6101000a81548167ffffffffffffffff021916908367ffffffffffffffff1602179055508315610f2f576001855f0160086101000a81548160ff0219169083151502179055505b610f37611d72565b610f3f611d84565b610f47611d8e565b610f535f801b33611806565b50610f7e7f65d7a28e3265b37a6474929f336521b332c1681b933f6cb9f3376673440d862a33611806565b50610fa97f189ab7a9244df0848122154315af71fe140f3db0fe014031783b0946b8c9d2e333611806565b508315611004575f855f0160086101000a81548160ff0219169083151502179055507fc7f505b2f371ae2175ee4913f4499e1f2633a7b5936321eed1cdaeb6115181d26001604051610ffb9190612ddd565b60405180910390a15b5050505050565b7f65d7a28e3265b37a6474929f336521b332c1681b933f6cb9f3376673440d862a611035816117f2565b61103d611d98565b50565b5f84844260405160200161105693929190612e36565b60405160208183030381529060405290503373ffffffffffffffffffffffffffffffffffffffff165f8260405161108d9190612c3a565b90815260200160405180910390206001015f9054906101000a900473ffffffffffffffffffffffffffffffffffffffff1673ffffffffffffffffffffffffffffffffffffffff1614611114576040517f08c379a000000000000000000000000000000000000000000000000000000000815260040161110b90612d6a565b60405180910390fd5b60015f826040516111259190612c3a565b90815260200160405180910390206006015f6101000a81548160ff0219169083151502179055507f02f9110550f3374364c85539074b740b7bfed285798d152502c5f2dfd745cf00338260405161117d929190612e6e565b60405180910390a1505050505050565b5f806111976117cb565b9050805f015f8581526020019081526020015f205f015f8473ffffffffffffffffffffffffffffffffffffffff1673ffffffffffffffffffffffffffffffffffffffff1681526020019081526020015f205f9054906101000a900460ff1691505092915050565b5f801b81565b6040518060400160405280600581526020017f352e302e3000000000000000000000000000000000000000000000000000000081525081565b5f60018054905011611284576040517f08c379a000000000000000000000000000000000000000000000000000000000815260040161127b90612b55565b60405180910390fd5b5f60018080805490506112979190612ba0565b815481106112a8576112a7612bd3565b5b905f5260205f200180546112bb90612ab3565b80601f01602080910402602001604051908101604052809291908181526020018280546112e790612ab3565b80156113325780601f1061130957610100808354040283529160200191611332565b820191905f5260205f20905b81548152906001019060200180831161131557829003601f168201915b505050505090505f816040516113489190612c3a565b90815260200160405180910390206006015f9054906101000a900460ff166113a5576040517f08c379a000000000000000000000000000000000000000000000000000000000815260040161139c90612c9a565b60405180910390fd5b7ff31a94b3b4c854e5a4adea9f6082ab58856d3750c9a0182c2d9641bda7c09fc55f826040516113d59190612c3a565b90815260200160405180910390206002015f836040516113f59190612c3a565b9081526020016040518091039020600501604051611414929190612f2f565b60405180910390a150565b61142882610630565b611431816117f2565b61143b8383611905565b50505050565b5050565b7f65d7a28e3265b37a6474929f336521b332c1681b933f6cb9f3376673440d862a81565b5f84844260405160200161147f93929190612e36565b60405160208183030381529060405290506040518061010001604052803373ffffffffffffffffffffffffffffffffffffffff1681526020018773ffffffffffffffffffffffffffffffffffffffff1681526020018681526020018581526020018481526020018381526020015f151581526020015f15158152505f826040516115099190612c3a565b90815260200160405180910390205f820151815f015f6101000a81548173ffffffffffffffffffffffffffffffffffffffff021916908373ffffffffffffffffffffffffffffffffffffffff1602179055506020820151816001015f6101000a81548173ffffffffffffffffffffffffffffffffffffffff021916908373ffffffffffffffffffffffffffffffffffffffff16021790555060408201518160020190816115b691906130e6565b50606082015181600301556080820151816004015560a08201518160050190816115e091906130e6565b5060c0820151816006015f6101000a81548160ff02191690831515021790555060e08201518160060160016101000a81548160ff021916908315150217905550905050600181908060018154018082558091505060019003905f5260205f20015f90919091909150908161165491906130e6565b507f7511eeca77b6245674aa0ed9cfc29c93005ca6c461f25ca4dcbb0fdb80e003c9338287604051611688939291906131b5565b60405180910390a1505050505050565b7f189ab7a9244df0848122154315af71fe140f3db0fe014031783b0946b8c9d2e381565b600181815481106116cb575f80fd5b905f5260205f20015f9150905080546116e390612ab3565b80601f016020809104026020016040519081016040528092919081815260200182805461170f90612ab3565b801561175a5780601f106117315761010080835404028352916020019161175a565b820191905f5260205f20905b81548152906001019060200180831161173d57829003601f168201915b505050505081565b5f7f01ffc9a7000000000000000000000000000000000000000000000000000000007bffffffffffffffffffffffffffffffffffffffffffffffffffffffff1916827bffffffffffffffffffffffffffffffffffffffffffffffffffffffff1916149050919050565b5f7f02dd7bc7dec4dceedda775e58dd541e08a116c6c53815c0bd028192f7b626800905090565b611803816117fe6118fe565b611e07565b50565b5f806118106117cb565b905061181c848461118d565b6118f3576001815f015f8681526020019081526020015f205f015f8573ffffffffffffffffffffffffffffffffffffffff1673ffffffffffffffffffffffffffffffffffffffff1681526020019081526020015f205f6101000a81548160ff02191690831515021790555061188f6118fe565b73ffffffffffffffffffffffffffffffffffffffff168373ffffffffffffffffffffffffffffffffffffffff16857f2f8788117e7eff1d82e926ec794901d17c78024a50270940304540a733656f0d60405160405180910390a460019150506118f8565b5f9150505b92915050565b5f33905090565b5f8061190f6117cb565b905061191b848461118d565b156119f2575f815f015f8681526020019081526020015f205f015f8573ffffffffffffffffffffffffffffffffffffffff1673ffffffffffffffffffffffffffffffffffffffff1681526020019081526020015f205f6101000a81548160ff02191690831515021790555061198e6118fe565b73ffffffffffffffffffffffffffffffffffffffff168373ffffffffffffffffffffffffffffffffffffffff16857ff6391f5c32d9c69d2a47ea670b442974b53935d1edc7fd64eb21e047a839171b60405160405180910390a460019150506119f7565b5f9150505b92915050565b611a05611e58565b5f611a0e611d24565b90505f815f015f6101000a81548160ff0219169083151502179055507f5db9ee0a495bf2e6ff9c91a7834c1ba4fdd244a5e8aa4e537bd38aeae4b073aa611a536118fe565b604051611a6091906131f8565b60405180910390a150565b7f000000000000000000000000000000000000000000000000000000000000000073ffffffffffffffffffffffffffffffffffffffff163073ffffffffffffffffffffffffffffffffffffffff161480611b1857507f000000000000000000000000000000000000000000000000000000000000000073ffffffffffffffffffffffffffffffffffffffff16611aff611e98565b73ffffffffffffffffffffffffffffffffffffffff1614155b15611b4f576040517fe07c8dba00000000000000000000000000000000000000000000000000000000815260040160405180910390fd5b565b7f189ab7a9244df0848122154315af71fe140f3db0fe014031783b0946b8c9d2e3611b7b816117f2565b5050565b8173ffffffffffffffffffffffffffffffffffffffff166352d1902d6040518163ffffffff1660e01b8152600401602060405180830381865afa925050508015611be757506040513d601f19601f82011682018060405250810190611be49190613225565b60015b611c2857816040517f4c9c8ce3000000000000000000000000000000000000000000000000000000008152600401611c1f91906131f8565b60405180910390fd5b7f360894a13ba1a3210667c828492db98dca3e2076cc3735a920a3ca505d382bbc5f1b8114611c8e57806040517faa1d49a4000000000000000000000000000000000000000000000000000000008152600401611c8591906123bc565b60405180910390fd5b611c988383611eeb565b505050565b7f000000000000000000000000000000000000000000000000000000000000000073ffffffffffffffffffffffffffffffffffffffff163073ffffffffffffffffffffffffffffffffffffffff1614611d22576040517fe07c8dba00000000000000000000000000000000000000000000000000000000815260040160405180910390fd5b565b5f7fcd5ed15c6e187e77e9aee88184c21f4f2182ab5827cb3b7e07fbedcd63f03300905090565b5f7ff0c57e16840df040f15088dc2f81fe391c3923bec73e23a9662efc9c229c6a00905090565b611d7a611f5d565b611d82611f9d565b565b611d8c611f5d565b565b611d96611f5d565b565b611da0611fcd565b5f611da9611d24565b90506001815f015f6101000a81548160ff0219169083151502179055507f62e78cea01bee320cd4e420270b5ea74000d11b0c9f74754ebdbfc544b05a258611def6118fe565b604051611dfc91906131f8565b60405180910390a150565b611e11828261118d565b611e545780826040517fe2517d3f000000000000000000000000000000000000000000000000000000008152600401611e4b929190613250565b60405180910390fd5b5050565b611e6061093a565b611e96576040517f8dfc202b00000000000000000000000000000000000000000000000000000000815260040160405180910390fd5b565b5f611ec47f360894a13ba1a3210667c828492db98dca3e2076cc3735a920a3ca505d382bbc5f1b61200e565b5f015f9054906101000a900473ffffffffffffffffffffffffffffffffffffffff16905090565b611ef482612017565b8173ffffffffffffffffffffffffffffffffffffffff167fbc7cd75a20ee27fd9adebab32041f755214dbc6bffa90cc0225b39da2e5c2d3b60405160405180910390a25f81511115611f5057611f4a82826120e0565b50611f59565b611f58612160565b5b5050565b611f6561219c565b611f9b576040517fd7e6bcf800000000000000000000000000000000000000000000000000000000815260040160405180910390fd5b565b611fa5611f5d565b5f611fae611d24565b90505f815f015f6101000a81548160ff02191690831515021790555050565b611fd561093a565b1561200c576040517fd93c066500000000000000000000000000000000000000000000000000000000815260040160405180910390fd5b565b5f819050919050565b5f8173ffffffffffffffffffffffffffffffffffffffff163b0361207257806040517f4c9c8ce300000000000000000000000000000000000000000000000000000000815260040161206991906131f8565b60405180910390fd5b8061209e7f360894a13ba1a3210667c828492db98dca3e2076cc3735a920a3ca505d382bbc5f1b61200e565b5f015f6101000a81548173ffffffffffffffffffffffffffffffffffffffff021916908373ffffffffffffffffffffffffffffffffffffffff16021790555050565b60605f808473ffffffffffffffffffffffffffffffffffffffff168460405161210991906132bb565b5f60405180830381855af49150503d805f8114612141576040519150601f19603f3d011682016040523d82523d5f602084013e612146565b606091505b50915091506121568583836121ba565b9250505092915050565b5f34111561219a576040517fb398979f00000000000000000000000000000000000000000000000000000000815260040160405180910390fd5b565b5f6121a5611d4b565b5f0160089054906101000a900460ff16905090565b6060826121cf576121ca82612247565b61223f565b5f82511480156121f557505f8473ffffffffffffffffffffffffffffffffffffffff163b145b1561223757836040517f9996b31500000000000000000000000000000000000000000000000000000000815260040161222e91906131f8565b60405180910390fd5b819050612240565b5b9392505050565b5f815111156122595780518082602001fd5b6040517f1425ea4200000000000000000000000000000000000000000000000000000000815260040160405180910390fd5b5f604051905090565b5f80fd5b5f80fd5b5f7fffffffff0000000000000000000000000000000000000000000000000000000082169050919050565b6122d08161229c565b81146122da575f80fd5b50565b5f813590506122eb816122c7565b92915050565b5f6020828403121561230657612305612294565b5b5f612313848285016122dd565b91505092915050565b5f8115159050919050565b6123308161231c565b82525050565b5f6020820190506123495f830184612327565b92915050565b5f819050919050565b6123618161234f565b811461236b575f80fd5b50565b5f8135905061237c81612358565b92915050565b5f6020828403121561239757612396612294565b5b5f6123a48482850161236e565b91505092915050565b6123b68161234f565b82525050565b5f6020820190506123cf5f8301846123ad565b92915050565b5f73ffffffffffffffffffffffffffffffffffffffff82169050919050565b5f6123fe826123d5565b9050919050565b61240e816123f4565b8114612418575f80fd5b50565b5f8135905061242981612405565b92915050565b5f806040838503121561244557612444612294565b5b5f6124528582860161236e565b92505060206124638582860161241b565b9150509250929050565b5f80fd5b5f80fd5b5f601f19601f8301169050919050565b7f4e487b71000000000000000000000000000000000000000000000000000000005f52604160045260245ffd5b6124bb82612475565b810181811067ffffffffffffffff821117156124da576124d9612485565b5b80604052505050565b5f6124ec61228b565b90506124f882826124b2565b919050565b5f67ffffffffffffffff82111561251757612516612485565b5b61252082612475565b9050602081019050919050565b828183375f83830152505050565b5f61254d612548846124fd565b6124e3565b90508281526020810184848401111561256957612568612471565b5b61257484828561252d565b509392505050565b5f82601f8301126125905761258f61246d565b5b81356125a084826020860161253b565b91505092915050565b5f602082840312156125be576125bd612294565b5b5f82013567ffffffffffffffff8111156125db576125da612298565b5b6125e78482850161257c565b91505092915050565b6125f9816123f4565b82525050565b5f81519050919050565b5f82825260208201905092915050565b5f5b8381101561263657808201518184015260208101905061261b565b5f8484015250505050565b5f61264b826125ff565b6126558185612609565b9350612665818560208601612619565b61266e81612475565b840191505092915050565b5f819050919050565b61268b81612679565b82525050565b5f610100820190506126a55f83018b6125f0565b6126b2602083018a6125f0565b81810360408301526126c48189612641565b90506126d36060830188612682565b6126e06080830187612682565b81810360a08301526126f28186612641565b905061270160c0830185612327565b61270e60e0830184612327565b9998505050505050505050565b5f67ffffffffffffffff82111561273557612734612485565b5b61273e82612475565b9050602081019050919050565b5f61275d6127588461271b565b6124e3565b90508281526020810184848401111561277957612778612471565b5b61278484828561252d565b509392505050565b5f82601f8301126127a05761279f61246d565b5b81356127b084826020860161274b565b91505092915050565b5f80604083850312156127cf576127ce612294565b5b5f6127dc8582860161241b565b925050602083013567ffffffffffffffff8111156127fd576127fc612298565b5b6128098582860161278c565b9150509250929050565b5f819050919050565b61282581612813565b811461282f575f80fd5b50565b5f813590506128408161281c565b92915050565b5f6020828403121561285b5761285a612294565b5b5f61286884828501612832565b91505092915050565b61287a81612679565b8114612884575f80fd5b50565b5f8135905061289581612871565b92915050565b5f80604083850312156128b1576128b0612294565b5b5f6128be85828601612887565b925050602083013567ffffffffffffffff8111156128df576128de612298565b5b6128eb8582860161257c565b9150509250929050565b5f806040838503121561290b5761290a612294565b5b5f83013567ffffffffffffffff81111561292857612927612298565b5b6129348582860161257c565b925050602061294585828601612887565b9150509250929050565b5f805f805f60a0868803121561296857612967612294565b5b5f6129758882890161241b565b955050602086013567ffffffffffffffff81111561299657612995612298565b5b6129a28882890161257c565b94505060406129b388828901612887565b93505060606129c488828901612887565b925050608086013567ffffffffffffffff8111156129e5576129e4612298565b5b6129f18882890161257c565b9150509295509295909350565b5f6020820190508181035f830152612a168184612641565b905092915050565b612a278161231c565b8114612a31575f80fd5b50565b5f81359050612a4281612a1e565b92915050565b5f8060408385031215612a5e57612a5d612294565b5b5f612a6b85828601612832565b9250506020612a7c85828601612a34565b9150509250929050565b7f4e487b71000000000000000000000000000000000000000000000000000000005f52602260045260245ffd5b5f6002820490506001821680612aca57607f821691505b602082108103612add57612adc612a86565b5b50919050565b612aec81612813565b82525050565b5f602082019050612b055f830184612ae3565b92915050565b7f4e6f2074726164657320617661696c61626c65000000000000000000000000005f82015250565b5f612b3f601383612609565b9150612b4a82612b0b565b602082019050919050565b5f6020820190508181035f830152612b6c81612b33565b9050919050565b7f4e487b71000000000000000000000000000000000000000000000000000000005f52601160045260245ffd5b5f612baa82612813565b9150612bb583612813565b9250828203905081811115612bcd57612bcc612b73565b5b92915050565b7f4e487b71000000000000000000000000000000000000000000000000000000005f52603260045260245ffd5b5f81905092915050565b5f612c14826125ff565b612c1e8185612c00565b9350612c2e818560208601612619565b80840191505092915050565b5f612c458284612c0a565b915081905092915050565b7f5472616465206e6f7420636f6e6669726d6564000000000000000000000000005f82015250565b5f612c84601383612609565b9150612c8f82612c50565b602082019050919050565b5f6020820190508181035f830152612cb181612c78565b9050919050565b7f4e6f742074686520696e69746961746f720000000000000000000000000000005f82015250565b5f612cec601183612609565b9150612cf782612cb8565b602082019050919050565b5f6020820190508181035f830152612d1981612ce0565b9050919050565b7f4e6f742074686520636f756e74657270617274790000000000000000000000005f82015250565b5f612d54601483612609565b9150612d5f82612d20565b602082019050919050565b5f6020820190508181035f830152612d8181612d48565b9050919050565b5f819050919050565b5f67ffffffffffffffff82169050919050565b5f819050919050565b5f612dc7612dc2612dbd84612d88565b612da4565b612d91565b9050919050565b612dd781612dad565b82525050565b5f602082019050612df05f830184612dce565b92915050565b5f819050919050565b612e10612e0b82612679565b612df6565b82525050565b5f819050919050565b612e30612e2b82612813565b612e16565b82525050565b5f612e418286612c0a565b9150612e4d8285612dff565b602082019150612e5d8284612e1f565b602082019150819050949350505050565b5f604082019050612e815f8301856125f0565b8181036020830152612e938184612641565b90509392505050565b5f819050815f5260205f209050919050565b5f8154612eba81612ab3565b612ec48186612609565b9450600182165f8114612ede5760018114612ef457612f26565b60ff198316865281151560200286019350612f26565b612efd85612e9c565b5f5b83811015612f1e57815481890152600182019150602081019050612eff565b808801955050505b50505092915050565b5f6040820190508181035f830152612f478185612eae565b90508181036020830152612f5b8184612eae565b90509392505050565b5f6020601f8301049050919050565b5f82821b905092915050565b5f60088302612fae7fffffffffffffffffffffffffffffffffffffffffffffffffffffffffffffffff82612f73565b612fb88683612f73565b95508019841693508086168417925050509392505050565b5f612fea612fe5612fe084612813565b612da4565b612813565b9050919050565b5f819050919050565b61300383612fd0565b61301761300f82612ff1565b848454612f7f565b825550505050565b5f90565b61302b61301f565b613036818484612ffa565b505050565b5b818110156130595761304e5f82613023565b60018101905061303c565b5050565b601f82111561309e5761306f81612e9c565b61307884612f64565b81016020851015613087578190505b61309b61309385612f64565b83018261303b565b50505b505050565b5f82821c905092915050565b5f6130be5f19846008026130a3565b1980831691505092915050565b5f6130d683836130af565b9150826002028217905092915050565b6130ef826125ff565b67ffffffffffffffff81111561310857613107612485565b5b6131128254612ab3565b61311d82828561305d565b5f60209050601f83116001811461314e575f841561313c578287015190505b61314685826130cb565b8655506131ad565b601f19841661315c86612e9c565b5f5b828110156131835784890151825560018201915060208501945060208101905061315e565b868310156131a0578489015161319c601f8916826130af565b8355505b6001600288020188555050505b505050505050565b5f6060820190506131c85f8301866125f0565b81810360208301526131da8185612641565b905081810360408301526131ee8184612641565b9050949350505050565b5f60208201905061320b5f8301846125f0565b92915050565b5f8151905061321f81612358565b92915050565b5f6020828403121561323a57613239612294565b5b5f61324784828501613211565b91505092915050565b5f6040820190506132635f8301856125f0565b61327060208301846123ad565b9392505050565b5f81519050919050565b5f81905092915050565b5f61329582613277565b61329f8185613281565b93506132af818560208601612619565b80840191505092915050565b5f6132c6828461328b565b91508190509291505056fea264697066735822122059927d5dcca2d2c82c6dbd86e0396a6cdae4a59c3d9cb9260a7bcf8cd597876a64736f6c63430008180033",
					"opcodes": "PUSH1 0xA0 PUSH1 0x40 MSTORE ADDRESS PUSH20 0xFFFFFFFFFFFFFFFFFFFFFFFFFFFFFFFFFFFFFFFF AND PUSH1 0x80 SWAP1 PUSH20 0xFFFFFFFFFFFFFFFFFFFFFFFFFFFFFFFFFFFFFFFF AND DUP2 MSTORE POP CALLVALUE DUP1 ISZERO PUSH2 0x42 JUMPI PUSH0 DUP1 REVERT JUMPDEST POP PUSH1 0x80 MLOAD PUSH2 0x3307 PUSH2 0x69 PUSH0 CODECOPY PUSH0 DUP2 DUP2 PUSH2 0x1A6D ADD MSTORE DUP2 DUP2 PUSH2 0x1AC2 ADD MSTORE PUSH2 0x1C9F ADD MSTORE PUSH2 0x3307 PUSH0 RETURN INVALID PUSH1 0x80 PUSH1 0x40 MSTORE PUSH1 0x4 CALLDATASIZE LT PUSH2 0x180 JUMPI PUSH0 CALLDATALOAD PUSH1 0xE0 SHR DUP1 PUSH4 0x8129FC1C GT PUSH2 0xD0 JUMPI DUP1 PUSH4 0xC78B432E GT PUSH2 0x89 JUMPI DUP1 PUSH4 0xE63AB1E9 GT PUSH2 0x63 JUMPI DUP1 PUSH4 0xE63AB1E9 EQ PUSH2 0x4FF JUMPI DUP1 PUSH4 0xEC11C4E9 EQ PUSH2 0x529 JUMPI DUP1 PUSH4 0xF72C0D8B EQ PUSH2 0x551 JUMPI DUP1 PUSH4 0xFF52C484 EQ PUSH2 0x57B JUMPI PUSH2 0x180 JUMP JUMPDEST DUP1 PUSH4 0xC78B432E EQ PUSH2 0x499 JUMPI DUP1 PUSH4 0xD547741F EQ PUSH2 0x4AF JUMPI DUP1 PUSH4 0xDF2D0728 EQ PUSH2 0x4D7 JUMPI PUSH2 0x180 JUMP JUMPDEST DUP1 PUSH4 0x8129FC1C EQ PUSH2 0x3B5 JUMPI DUP1 PUSH4 0x8456CB59 EQ PUSH2 0x3CB JUMPI DUP1 PUSH4 0x858F0E93 EQ PUSH2 0x3E1 JUMPI DUP1 PUSH4 0x91D14854 EQ PUSH2 0x409 JUMPI DUP1 PUSH4 0xA217FDDF EQ PUSH2 0x445 JUMPI DUP1 PUSH4 0xAD3CB1CC EQ PUSH2 0x46F JUMPI PUSH2 0x180 JUMP JUMPDEST DUP1 PUSH4 0x4F1EF286 GT PUSH2 0x13D JUMPI DUP1 PUSH4 0x6861C20C GT PUSH2 0x117 JUMPI DUP1 PUSH4 0x6861C20C EQ PUSH2 0x315 JUMPI DUP1 PUSH4 0x6BA63956 EQ PUSH2 0x33D JUMPI DUP1 PUSH4 0x729D581C EQ PUSH2 0x365 JUMPI DUP1 PUSH4 0x79648ED3 EQ PUSH2 0x38D JUMPI PUSH2 0x180 JUMP JUMPDEST DUP1 PUSH4 0x4F1EF286 EQ PUSH2 0x2A5 JUMPI DUP1 PUSH4 0x52D1902D EQ PUSH2 0x2C1 JUMPI DUP1 PUSH4 0x5C975ABB EQ PUSH2 0x2EB JUMPI PUSH2 0x180 JUMP JUMPDEST DUP1 PUSH4 0x1FFC9A7 EQ PUSH2 0x184 JUMPI DUP1 PUSH4 0x248A9CA3 EQ PUSH2 0x1C0 JUMPI DUP1 PUSH4 0x2F2FF15D EQ PUSH2 0x1FC JUMPI DUP1 PUSH4 0x36568ABE EQ PUSH2 0x224 JUMPI DUP1 PUSH4 0x3F4BA83A EQ PUSH2 0x24C JUMPI DUP1 PUSH4 0x47A04100 EQ PUSH2 0x262 JUMPI JUMPDEST PUSH0 DUP1 REVERT JUMPDEST CALLVALUE DUP1 ISZERO PUSH2 0x18F JUMPI PUSH0 DUP1 REVERT JUMPDEST POP PUSH2 0x1AA PUSH1 0x4 DUP1 CALLDATASIZE SUB DUP2 ADD SWAP1 PUSH2 0x1A5 SWAP2 SWAP1 PUSH2 0x22F1 JUMP JUMPDEST PUSH2 0x5B7 JUMP JUMPDEST PUSH1 0x40 MLOAD PUSH2 0x1B7 SWAP2 SWAP1 PUSH2 0x2336 JUMP JUMPDEST PUSH1 0x40 MLOAD DUP1 SWAP2 SUB SWAP1 RETURN JUMPDEST CALLVALUE DUP1 ISZERO PUSH2 0x1CB JUMPI PUSH0 DUP1 REVERT JUMPDEST POP PUSH2 0x1E6 PUSH1 0x4 DUP1 CALLDATASIZE SUB DUP2 ADD SWAP1 PUSH2 0x1E1 SWAP2 SWAP1 PUSH2 0x2382 JUMP JUMPDEST PUSH2 0x630 JUMP JUMPDEST PUSH1 0x40 MLOAD PUSH2 0x1F3 SWAP2 SWAP1 PUSH2 0x23BC JUMP JUMPDEST PUSH1 0x40 MLOAD DUP1 SWAP2 SUB SWAP1 RETURN JUMPDEST CALLVALUE DUP1 ISZERO PUSH2 0x207 JUMPI PUSH0 DUP1 REVERT JUMPDEST POP PUSH2 0x222 PUSH1 0x4 DUP1 CALLDATASIZE SUB DUP2 ADD SWAP1 PUSH2 0x21D SWAP2 SWAP1 PUSH2 0x242F JUMP JUMPDEST PUSH2 0x65A JUMP JUMPDEST STOP JUMPDEST CALLVALUE DUP1 ISZERO PUSH2 0x22F JUMPI PUSH0 DUP1 REVERT JUMPDEST POP PUSH2 0x24A PUSH1 0x4 DUP1 CALLDATASIZE SUB DUP2 ADD SWAP1 PUSH2 0x245 SWAP2 SWAP1 PUSH2 0x242F JUMP JUMPDEST PUSH2 0x67C JUMP JUMPDEST STOP JUMPDEST CALLVALUE DUP1 ISZERO PUSH2 0x257 JUMPI PUSH0 DUP1 REVERT JUMPDEST POP PUSH2 0x260 PUSH2 0x6F7 JUMP JUMPDEST STOP JUMPDEST CALLVALUE DUP1 ISZERO PUSH2 0x26D JUMPI PUSH0 DUP1 REVERT JUMPDEST POP PUSH2 0x288 PUSH1 0x4 DUP1 CALLDATASIZE SUB DUP2 ADD SWAP1 PUSH2 0x283 SWAP2 SWAP1 PUSH2 0x25A9 JUMP JUMPDEST PUSH2 0x72C JUMP JUMPDEST PUSH1 0x40 MLOAD PUSH2 0x29C SWAP9 SWAP8 SWAP7 SWAP6 SWAP5 SWAP4 SWAP3 SWAP2 SWAP1 PUSH2 0x2691 JUMP JUMPDEST PUSH1 0x40 MLOAD DUP1 SWAP2 SUB SWAP1 RETURN JUMPDEST PUSH2 0x2BF PUSH1 0x4 DUP1 CALLDATASIZE SUB DUP2 ADD SWAP1 PUSH2 0x2BA SWAP2 SWAP1 PUSH2 0x27B9 JUMP JUMPDEST PUSH2 0x8EA JUMP JUMPDEST STOP JUMPDEST CALLVALUE DUP1 ISZERO PUSH2 0x2CC JUMPI PUSH0 DUP1 REVERT JUMPDEST POP PUSH2 0x2D5 PUSH2 0x909 JUMP JUMPDEST PUSH1 0x40 MLOAD PUSH2 0x2E2 SWAP2 SWAP1 PUSH2 0x23BC JUMP JUMPDEST PUSH1 0x40 MLOAD DUP1 SWAP2 SUB SWAP1 RETURN JUMPDEST CALLVALUE DUP1 ISZERO PUSH2 0x2F6 JUMPI PUSH0 DUP1 REVERT JUMPDEST POP PUSH2 0x2FF PUSH2 0x93A JUMP JUMPDEST PUSH1 0x40 MLOAD PUSH2 0x30C SWAP2 SWAP1 PUSH2 0x2336 JUMP JUMPDEST PUSH1 0x40 MLOAD DUP1 SWAP2 SUB SWAP1 RETURN JUMPDEST CALLVALUE DUP1 ISZERO PUSH2 0x320 JUMPI PUSH0 DUP1 REVERT JUMPDEST POP PUSH2 0x33B PUSH1 0x4 DUP1 CALLDATASIZE SUB DUP2 ADD SWAP1 PUSH2 0x336 SWAP2 SWAP1 PUSH2 0x2846 JUMP JUMPDEST PUSH2 0x95C JUMP JUMPDEST STOP JUMPDEST CALLVALUE DUP1 ISZERO PUSH2 0x348 JUMPI PUSH0 DUP1 REVERT JUMPDEST POP PUSH2 0x363 PUSH1 0x4 DUP1 CALLDATASIZE SUB DUP2 ADD SWAP1 PUSH2 0x35E SWAP2 SWAP1 PUSH2 0x289B JUMP JUMPDEST PUSH2 0x9AD JUMP JUMPDEST STOP JUMPDEST CALLVALUE DUP1 ISZERO PUSH2 0x370 JUMPI PUSH0 DUP1 REVERT JUMPDEST POP PUSH2 0x38B PUSH1 0x4 DUP1 CALLDATASIZE SUB DUP2 ADD SWAP1 PUSH2 0x386 SWAP2 SWAP1 PUSH2 0x28F5 JUMP JUMPDEST PUSH2 0xBA4 JUMP JUMPDEST STOP JUMPDEST CALLVALUE DUP1 ISZERO PUSH2 0x398 JUMPI PUSH0 DUP1 REVERT JUMPDEST POP PUSH2 0x3B3 PUSH1 0x4 DUP1 CALLDATASIZE SUB DUP2 ADD SWAP1 PUSH2 0x3AE SWAP2 SWAP1 PUSH2 0x28F5 JUMP JUMPDEST PUSH2 0xCDE JUMP JUMPDEST STOP JUMPDEST CALLVALUE DUP1 ISZERO PUSH2 0x3C0 JUMPI PUSH0 DUP1 REVERT JUMPDEST POP PUSH2 0x3C9 PUSH2 0xE19 JUMP JUMPDEST STOP JUMPDEST CALLVALUE DUP1 ISZERO PUSH2 0x3D6 JUMPI PUSH0 DUP1 REVERT JUMPDEST POP PUSH2 0x3DF PUSH2 0x100B JUMP JUMPDEST STOP JUMPDEST CALLVALUE DUP1 ISZERO PUSH2 0x3EC JUMPI PUSH0 DUP1 REVERT JUMPDEST POP PUSH2 0x407 PUSH1 0x4 DUP1 CALLDATASIZE SUB DUP2 ADD SWAP1 PUSH2 0x402 SWAP2 SWAP1 PUSH2 0x294F JUMP JUMPDEST PUSH2 0x1040 JUMP JUMPDEST STOP JUMPDEST CALLVALUE DUP1 ISZERO PUSH2 0x414 JUMPI PUSH0 DUP1 REVERT JUMPDEST POP PUSH2 0x42F PUSH1 0x4 DUP1 CALLDATASIZE SUB DUP2 ADD SWAP1 PUSH2 0x42A SWAP2 SWAP1 PUSH2 0x242F JUMP JUMPDEST PUSH2 0x118D JUMP JUMPDEST PUSH1 0x40 MLOAD PUSH2 0x43C SWAP2 SWAP1 PUSH2 0x2336 JUMP JUMPDEST PUSH1 0x40 MLOAD DUP1 SWAP2 SUB SWAP1 RETURN JUMPDEST CALLVALUE DUP1 ISZERO PUSH2 0x450 JUMPI PUSH0 DUP1 REVERT JUMPDEST POP PUSH2 0x459 PUSH2 0x11FE JUMP JUMPDEST PUSH1 0x40 MLOAD PUSH2 0x466 SWAP2 SWAP1 PUSH2 0x23BC JUMP JUMPDEST PUSH1 0x40 MLOAD DUP1 SWAP2 SUB SWAP1 RETURN JUMPDEST CALLVALUE DUP1 ISZERO PUSH2 0x47A JUMPI PUSH0 DUP1 REVERT JUMPDEST POP PUSH2 0x483 PUSH2 0x1204 JUMP JUMPDEST PUSH1 0x40 MLOAD PUSH2 0x490 SWAP2 SWAP1 PUSH2 0x29FE JUMP JUMPDEST PUSH1 0x40 MLOAD DUP1 SWAP2 SUB SWAP1 RETURN JUMPDEST CALLVALUE DUP1 ISZERO PUSH2 0x4A4 JUMPI PUSH0 DUP1 REVERT JUMPDEST POP PUSH2 0x4AD PUSH2 0x123D JUMP JUMPDEST STOP JUMPDEST CALLVALUE DUP1 ISZERO PUSH2 0x4BA JUMPI PUSH0 DUP1 REVERT JUMPDEST POP PUSH2 0x4D5 PUSH1 0x4 DUP1 CALLDATASIZE SUB DUP2 ADD SWAP1 PUSH2 0x4D0 SWAP2 SWAP1 PUSH2 0x242F JUMP JUMPDEST PUSH2 0x141F JUMP JUMPDEST STOP JUMPDEST CALLVALUE DUP1 ISZERO PUSH2 0x4E2 JUMPI PUSH0 DUP1 REVERT JUMPDEST POP PUSH2 0x4FD PUSH1 0x4 DUP1 CALLDATASIZE SUB DUP2 ADD SWAP1 PUSH2 0x4F8 SWAP2 SWAP1 PUSH2 0x2A48 JUMP JUMPDEST PUSH2 0x1441 JUMP JUMPDEST STOP JUMPDEST CALLVALUE DUP1 ISZERO PUSH2 0x50A JUMPI PUSH0 DUP1 REVERT JUMPDEST POP PUSH2 0x513 PUSH2 0x1445 JUMP JUMPDEST PUSH1 0x40 MLOAD PUSH2 0x520 SWAP2 SWAP1 PUSH2 0x23BC JUMP JUMPDEST PUSH1 0x40 MLOAD DUP1 SWAP2 SUB SWAP1 RETURN JUMPDEST CALLVALUE DUP1 ISZERO PUSH2 0x534 JUMPI PUSH0 DUP1 REVERT JUMPDEST POP PUSH2 0x54F PUSH1 0x4 DUP1 CALLDATASIZE SUB DUP2 ADD SWAP1 PUSH2 0x54A SWAP2 SWAP1 PUSH2 0x294F JUMP JUMPDEST PUSH2 0x1469 JUMP JUMPDEST STOP JUMPDEST CALLVALUE DUP1 ISZERO PUSH2 0x55C JUMPI PUSH0 DUP1 REVERT JUMPDEST POP PUSH2 0x565 PUSH2 0x1698 JUMP JUMPDEST PUSH1 0x40 MLOAD PUSH2 0x572 SWAP2 SWAP1 PUSH2 0x23BC JUMP JUMPDEST PUSH1 0x40 MLOAD DUP1 SWAP2 SUB SWAP1 RETURN JUMPDEST CALLVALUE DUP1 ISZERO PUSH2 0x586 JUMPI PUSH0 DUP1 REVERT JUMPDEST POP PUSH2 0x5A1 PUSH1 0x4 DUP1 CALLDATASIZE SUB DUP2 ADD SWAP1 PUSH2 0x59C SWAP2 SWAP1 PUSH2 0x2846 JUMP JUMPDEST PUSH2 0x16BC JUMP JUMPDEST PUSH1 0x40 MLOAD PUSH2 0x5AE SWAP2 SWAP1 PUSH2 0x29FE JUMP JUMPDEST PUSH1 0x40 MLOAD DUP1 SWAP2 SUB SWAP1 RETURN JUMPDEST PUSH0 PUSH32 0x7965DB0B00000000000000000000000000000000000000000000000000000000 PUSH28 0xFFFFFFFFFFFFFFFFFFFFFFFFFFFFFFFFFFFFFFFFFFFFFFFFFFFFFFFF NOT AND DUP3 PUSH28 0xFFFFFFFFFFFFFFFFFFFFFFFFFFFFFFFFFFFFFFFFFFFFFFFFFFFFFFFF NOT AND EQ DUP1 PUSH2 0x629 JUMPI POP PUSH2 0x628 DUP3 PUSH2 0x1762 JUMP JUMPDEST JUMPDEST SWAP1 POP SWAP2 SWAP1 POP JUMP JUMPDEST PUSH0 DUP1 PUSH2 0x63A PUSH2 0x17CB JUMP JUMPDEST SWAP1 POP DUP1 PUSH0 ADD PUSH0 DUP5 DUP2 MSTORE PUSH1 0x20 ADD SWAP1 DUP2 MSTORE PUSH1 0x20 ADD PUSH0 KECCAK256 PUSH1 0x1 ADD SLOAD SWAP2 POP POP SWAP2 SWAP1 POP JUMP JUMPDEST PUSH2 0x663 DUP3 PUSH2 0x630 JUMP JUMPDEST PUSH2 0x66C DUP2 PUSH2 0x17F2 JUMP JUMPDEST PUSH2 0x676 DUP4 DUP4 PUSH2 0x1806 JUMP JUMPDEST POP POP POP POP JUMP JUMPDEST PUSH2 0x684 PUSH2 0x18FE JUMP JUMPDEST PUSH20 0xFFFFFFFFFFFFFFFFFFFFFFFFFFFFFFFFFFFFFFFF AND DUP2 PUSH20 0xFFFFFFFFFFFFFFFFFFFFFFFFFFFFFFFFFFFFFFFF AND EQ PUSH2 0x6E8 JUMPI PUSH1 0x40 MLOAD PUSH32 0x6697B23200000000000000000000000000000000000000000000000000000000 DUP2 MSTORE PUSH1 0x4 ADD PUSH1 0x40 MLOAD DUP1 SWAP2 SUB SWAP1 REVERT JUMPDEST PUSH2 0x6F2 DUP3 DUP3 PUSH2 0x1905 JUMP JUMPDEST POP POP POP JUMP JUMPDEST PUSH32 0x65D7A28E3265B37A6474929F336521B332C1681B933F6CB9F3376673440D862A PUSH2 0x721 DUP2 PUSH2 0x17F2 JUMP JUMPDEST PUSH2 0x729 PUSH2 0x19FD JUMP JUMPDEST POP JUMP JUMPDEST PUSH0 DUP2 DUP1 MLOAD PUSH1 0x20 DUP2 ADD DUP3 ADD DUP1 MLOAD DUP5 DUP3 MSTORE PUSH1 0x20 DUP4 ADD PUSH1 0x20 DUP6 ADD KECCAK256 DUP2 DUP4 MSTORE DUP1 SWAP6 POP POP POP POP POP POP PUSH0 SWAP2 POP SWAP1 POP DUP1 PUSH0 ADD PUSH0 SWAP1 SLOAD SWAP1 PUSH2 0x100 EXP SWAP1 DIV PUSH20 0xFFFFFFFFFFFFFFFFFFFFFFFFFFFFFFFFFFFFFFFF AND SWAP1 DUP1 PUSH1 0x1 ADD PUSH0 SWAP1 SLOAD SWAP1 PUSH2 0x100 EXP SWAP1 DIV PUSH20 0xFFFFFFFFFFFFFFFFFFFFFFFFFFFFFFFFFFFFFFFF AND SWAP1 DUP1 PUSH1 0x2 ADD DUP1 SLOAD PUSH2 0x7AC SWAP1 PUSH2 0x2AB3 JUMP JUMPDEST DUP1 PUSH1 0x1F ADD PUSH1 0x20 DUP1 SWAP2 DIV MUL PUSH1 0x20 ADD PUSH1 0x40 MLOAD SWAP1 DUP2 ADD PUSH1 0x40 MSTORE DUP1 SWAP3 SWAP2 SWAP1 DUP2 DUP2 MSTORE PUSH1 0x20 ADD DUP3 DUP1 SLOAD PUSH2 0x7D8 SWAP1 PUSH2 0x2AB3 JUMP JUMPDEST DUP1 ISZERO PUSH2 0x823 JUMPI DUP1 PUSH1 0x1F LT PUSH2 0x7FA JUMPI PUSH2 0x100 DUP1 DUP4 SLOAD DIV MUL DUP4 MSTORE SWAP2 PUSH1 0x20 ADD SWAP2 PUSH2 0x823 JUMP JUMPDEST DUP3 ADD SWAP2 SWAP1 PUSH0 MSTORE PUSH1 0x20 PUSH0 KECCAK256 SWAP1 JUMPDEST DUP2 SLOAD DUP2 MSTORE SWAP1 PUSH1 0x1 ADD SWAP1 PUSH1 0x20 ADD DUP1 DUP4 GT PUSH2 0x806 JUMPI DUP3 SWAP1 SUB PUSH1 0x1F AND DUP3 ADD SWAP2 JUMPDEST POP POP POP POP POP SWAP1 DUP1 PUSH1 0x3 ADD SLOAD SWAP1 DUP1 PUSH1 0x4 ADD SLOAD SWAP1 DUP1 PUSH1 0x5 ADD DUP1 SLOAD PUSH2 0x844 SWAP1 PUSH2 0x2AB3 JUMP JUMPDEST DUP1 PUSH1 0x1F ADD PUSH1 0x20 DUP1 SWAP2 DIV MUL PUSH1 0x20 ADD PUSH1 0x40 MLOAD SWAP1 DUP2 ADD PUSH1 0x40 MSTORE DUP1 SWAP3 SWAP2 SWAP1 DUP2 DUP2 MSTORE PUSH1 0x20 ADD DUP3 DUP1 SLOAD PUSH2 0x870 SWAP1 PUSH2 0x2AB3 JUMP JUMPDEST DUP1 ISZERO PUSH2 0x8BB JUMPI DUP1 PUSH1 0x1F LT PUSH2 0x892 JUMPI PUSH2 0x100 DUP1 DUP4 SLOAD DIV MUL DUP4 MSTORE SWAP2 PUSH1 0x20 ADD SWAP2 PUSH2 0x8BB JUMP JUMPDEST DUP3 ADD SWAP2 SWAP1 PUSH0 MSTORE PUSH1 0x20 PUSH0 KECCAK256 SWAP1 JUMPDEST DUP2 SLOAD DUP2 MSTORE SWAP1 PUSH1 0x1 ADD SWAP1 PUSH1 0x20 ADD DUP1 DUP4 GT PUSH2 0x89E JUMPI DUP3 SWAP1 SUB PUSH1 0x1F AND DUP3 ADD SWAP2 JUMPDEST POP POP POP POP POP SWAP1 DUP1 PUSH1 0x6 ADD PUSH0 SWAP1 SLOAD SWAP1 PUSH2 0x100 EXP SWAP1 DIV PUSH1 0xFF AND SWAP1 DUP1 PUSH1 0x6 ADD PUSH1 0x1 SWAP1 SLOAD SWAP1 PUSH2 0x100 EXP SWAP1 DIV PUSH1 0xFF AND SWAP1 POP DUP9 JUMP JUMPDEST PUSH2 0x8F2 PUSH2 0x1A6B JUMP JUMPDEST PUSH2 0x8FB DUP3 PUSH2 0x1B51 JUMP JUMPDEST PUSH2 0x905 DUP3 DUP3 PUSH2 0x1B7F JUMP JUMPDEST POP POP JUMP JUMPDEST PUSH0 PUSH2 0x912 PUSH2 0x1C9D JUMP JUMPDEST PUSH32 0x360894A13BA1A3210667C828492DB98DCA3E2076CC3735A920A3CA505D382BBC PUSH0 SHL SWAP1 POP SWAP1 JUMP JUMPDEST PUSH0 DUP1 PUSH2 0x944 PUSH2 0x1D24 JUMP JUMPDEST SWAP1 POP DUP1 PUSH0 ADD PUSH0 SWAP1 SLOAD SWAP1 PUSH2 0x100 EXP SWAP1 DIV PUSH1 0xFF AND SWAP2 POP POP SWAP1 JUMP JUMPDEST CALLER PUSH20 0xFFFFFFFFFFFFFFFFFFFFFFFFFFFFFFFFFFFFFFFF AND PUSH32 0xC27E43AF6588B65DCCC4465720EF720B7CF45F5FBA352DF8607AE1CFEA9089B DUP3 PUSH1 0x40 MLOAD PUSH2 0x9A2 SWAP2 SWAP1 PUSH2 0x2AF2 JUMP JUMPDEST PUSH1 0x40 MLOAD DUP1 SWAP2 SUB SWAP1 LOG2 POP JUMP JUMPDEST PUSH0 PUSH1 0x1 DUP1 SLOAD SWAP1 POP GT PUSH2 0x9F4 JUMPI PUSH1 0x40 MLOAD PUSH32 0x8C379A000000000000000000000000000000000000000000000000000000000 DUP2 MSTORE PUSH1 0x4 ADD PUSH2 0x9EB SWAP1 PUSH2 0x2B55 JUMP JUMPDEST PUSH1 0x40 MLOAD DUP1 SWAP2 SUB SWAP1 REVERT JUMPDEST PUSH0 PUSH1 0x1 DUP1 DUP1 DUP1 SLOAD SWAP1 POP PUSH2 0xA07 SWAP2 SWAP1 PUSH2 0x2BA0 JUMP JUMPDEST DUP2 SLOAD DUP2 LT PUSH2 0xA18 JUMPI PUSH2 0xA17 PUSH2 0x2BD3 JUMP JUMPDEST JUMPDEST SWAP1 PUSH0 MSTORE PUSH1 0x20 PUSH0 KECCAK256 ADD DUP1 SLOAD PUSH2 0xA2B SWAP1 PUSH2 0x2AB3 JUMP JUMPDEST DUP1 PUSH1 0x1F ADD PUSH1 0x20 DUP1 SWAP2 DIV MUL PUSH1 0x20 ADD PUSH1 0x40 MLOAD SWAP1 DUP2 ADD PUSH1 0x40 MSTORE DUP1 SWAP3 SWAP2 SWAP1 DUP2 DUP2 MSTORE PUSH1 0x20 ADD DUP3 DUP1 SLOAD PUSH2 0xA57 SWAP1 PUSH2 0x2AB3 JUMP JUMPDEST DUP1 ISZERO PUSH2 0xAA2 JUMPI DUP1 PUSH1 0x1F LT PUSH2 0xA79 JUMPI PUSH2 0x100 DUP1 DUP4 SLOAD DIV MUL DUP4 MSTORE SWAP2 PUSH1 0x20 ADD SWAP2 PUSH2 0xAA2 JUMP JUMPDEST DUP3 ADD SWAP2 SWAP1 PUSH0 MSTORE PUSH1 0x20 PUSH0 KECCAK256 SWAP1 JUMPDEST DUP2 SLOAD DUP2 MSTORE SWAP1 PUSH1 0x1 ADD SWAP1 PUSH1 0x20 ADD DUP1 DUP4 GT PUSH2 0xA85 JUMPI DUP3 SWAP1 SUB PUSH1 0x1F AND DUP3 ADD SWAP2 JUMPDEST POP POP POP POP POP SWAP1 POP PUSH0 DUP2 PUSH1 0x40 MLOAD PUSH2 0xAB8 SWAP2 SWAP1 PUSH2 0x2C3A JUMP JUMPDEST SWAP1 DUP2 MSTORE PUSH1 0x20 ADD PUSH1 0x40 MLOAD DUP1 SWAP2 SUB SWAP1 KECCAK256 PUSH1 0x6 ADD PUSH0 SWAP1 SLOAD SWAP1 PUSH2 0x100 EXP SWAP1 DIV PUSH1 0xFF AND PUSH2 0xB15 JUMPI PUSH1 0x40 MLOAD PUSH32 0x8C379A000000000000000000000000000000000000000000000000000000000 DUP2 MSTORE PUSH1 0x4 ADD PUSH2 0xB0C SWAP1 PUSH2 0x2C9A JUMP JUMPDEST PUSH1 0x40 MLOAD DUP1 SWAP2 SUB SWAP1 REVERT JUMPDEST PUSH1 0x1 PUSH0 DUP3 PUSH1 0x40 MLOAD PUSH2 0xB26 SWAP2 SWAP1 PUSH2 0x2C3A JUMP JUMPDEST SWAP1 DUP2 MSTORE PUSH1 0x20 ADD PUSH1 0x40 MLOAD DUP1 SWAP2 SUB SWAP1 KECCAK256 PUSH1 0x6 ADD PUSH1 0x1 PUSH2 0x100 EXP DUP2 SLOAD DUP2 PUSH1 0xFF MUL NOT AND SWAP1 DUP4 ISZERO ISZERO MUL OR SWAP1 SSTORE POP DUP3 PUSH0 DUP3 PUSH1 0x40 MLOAD PUSH2 0xB5E SWAP2 SWAP1 PUSH2 0x2C3A JUMP JUMPDEST SWAP1 DUP2 MSTORE PUSH1 0x20 ADD PUSH1 0x40 MLOAD DUP1 SWAP2 SUB SWAP1 KECCAK256 PUSH1 0x4 ADD DUP2 SWAP1 SSTORE POP PUSH32 0x4145167A2ECC3424513C83E72C2D0E4A94F423754B82AF0BDEAF9FD0F7A174B7 PUSH1 0x40 MLOAD PUSH1 0x40 MLOAD DUP1 SWAP2 SUB SWAP1 LOG1 POP POP POP JUMP JUMPDEST CALLER PUSH20 0xFFFFFFFFFFFFFFFFFFFFFFFFFFFFFFFFFFFFFFFF AND PUSH0 DUP4 PUSH1 0x40 MLOAD PUSH2 0xBCA SWAP2 SWAP1 PUSH2 0x2C3A JUMP JUMPDEST SWAP1 DUP2 MSTORE PUSH1 0x20 ADD PUSH1 0x40 MLOAD DUP1 SWAP2 SUB SWAP1 KECCAK256 PUSH0 ADD PUSH0 SWAP1 SLOAD SWAP1 PUSH2 0x100 EXP SWAP1 DIV PUSH20 0xFFFFFFFFFFFFFFFFFFFFFFFFFFFFFFFFFFFFFFFF AND PUSH20 0xFFFFFFFFFFFFFFFFFFFFFFFFFFFFFFFFFFFFFFFF AND EQ PUSH2 0xC50 JUMPI PUSH1 0x40 MLOAD PUSH32 0x8C379A000000000000000000000000000000000000000000000000000000000 DUP2 MSTORE PUSH1 0x4 ADD PUSH2 0xC47 SWAP1 PUSH2 0x2D02 JUMP JUMPDEST PUSH1 0x40 MLOAD DUP1 SWAP2 SUB SWAP1 REVERT JUMPDEST PUSH1 0x1 PUSH0 DUP4 PUSH1 0x40 MLOAD PUSH2 0xC61 SWAP2 SWAP1 PUSH2 0x2C3A JUMP JUMPDEST SWAP1 DUP2 MSTORE PUSH1 0x20 ADD PUSH1 0x40 MLOAD DUP1 SWAP2 SUB SWAP1 KECCAK256 PUSH1 0x6 ADD PUSH1 0x1 PUSH2 0x100 EXP DUP2 SLOAD DUP2 PUSH1 0xFF MUL NOT AND SWAP1 DUP4 ISZERO ISZERO MUL OR SWAP1 SSTORE POP DUP1 PUSH0 DUP4 PUSH1 0x40 MLOAD PUSH2 0xC99 SWAP2 SWAP1 PUSH2 0x2C3A JUMP JUMPDEST SWAP1 DUP2 MSTORE PUSH1 0x20 ADD PUSH1 0x40 MLOAD DUP1 SWAP2 SUB SWAP1 KECCAK256 PUSH1 0x4 ADD DUP2 SWAP1 SSTORE POP PUSH32 0x4145167A2ECC3424513C83E72C2D0E4A94F423754B82AF0BDEAF9FD0F7A174B7 PUSH1 0x40 MLOAD PUSH1 0x40 MLOAD DUP1 SWAP2 SUB SWAP1 LOG1 POP POP JUMP JUMPDEST CALLER PUSH20 0xFFFFFFFFFFFFFFFFFFFFFFFFFFFFFFFFFFFFFFFF AND PUSH0 DUP4 PUSH1 0x40 MLOAD PUSH2 0xD04 SWAP2 SWAP1 PUSH2 0x2C3A JUMP JUMPDEST SWAP1 DUP2 MSTORE PUSH1 0x20 ADD PUSH1 0x40 MLOAD DUP1 SWAP2 SUB SWAP1 KECCAK256 PUSH1 0x1 ADD PUSH0 SWAP1 SLOAD SWAP1 PUSH2 0x100 EXP SWAP1 DIV PUSH20 0xFFFFFFFFFFFFFFFFFFFFFFFFFFFFFFFFFFFFFFFF AND PUSH20 0xFFFFFFFFFFFFFFFFFFFFFFFFFFFFFFFFFFFFFFFF AND EQ PUSH2 0xD8B JUMPI PUSH1 0x40 MLOAD PUSH32 0x8C379A000000000000000000000000000000000000000000000000000000000 DUP2 MSTORE PUSH1 0x4 ADD PUSH2 0xD82 SWAP1 PUSH2 0x2D6A JUMP JUMPDEST PUSH1 0x40 MLOAD DUP1 SWAP2 SUB SWAP1 REVERT JUMPDEST PUSH1 0x1 PUSH0 DUP4 PUSH1 0x40 MLOAD PUSH2 0xD9C SWAP2 SWAP1 PUSH2 0x2C3A JUMP JUMPDEST SWAP1 DUP2 MSTORE PUSH1 0x20 ADD PUSH1 0x40 MLOAD DUP1 SWAP2 SUB SWAP1 KECCAK256 PUSH1 0x6 ADD PUSH1 0x1 PUSH2 0x100 EXP DUP2 SLOAD DUP2 PUSH1 0xFF MUL NOT AND SWAP1 DUP4 ISZERO ISZERO MUL OR SWAP1 SSTORE POP DUP1 PUSH0 DUP4 PUSH1 0x40 MLOAD PUSH2 0xDD4 SWAP2 SWAP1 PUSH2 0x2C3A JUMP JUMPDEST SWAP1 DUP2 MSTORE PUSH1 0x20 ADD PUSH1 0x40 MLOAD DUP1 SWAP2 SUB SWAP1 KECCAK256 PUSH1 0x4 ADD DUP2 SWAP1 SSTORE POP PUSH32 0x4145167A2ECC3424513C83E72C2D0E4A94F423754B82AF0BDEAF9FD0F7A174B7 PUSH1 0x40 MLOAD PUSH1 0x40 MLOAD DUP1 SWAP2 SUB SWAP1 LOG1 POP POP JUMP JUMPDEST PUSH0 PUSH2 0xE22 PUSH2 0x1D4B JUMP JUMPDEST SWAP1 POP PUSH0 DUP2 PUSH0 ADD PUSH1 0x8 SWAP1 SLOAD SWAP1 PUSH2 0x100 EXP SWAP1 DIV PUSH1 0xFF AND ISZERO SWAP1 POP PUSH0 DUP3 PUSH0 ADD PUSH0 SWAP1 SLOAD SWAP1 PUSH2 0x100 EXP SWAP1 DIV PUSH8 0xFFFFFFFFFFFFFFFF AND SWAP1 POP PUSH0 DUP1 DUP3 PUSH8 0xFFFFFFFFFFFFFFFF AND EQ DUP1 ISZERO PUSH2 0xE6A JUMPI POP DUP3 JUMPDEST SWAP1 POP PUSH0 PUSH1 0x1 DUP4 PUSH8 0xFFFFFFFFFFFFFFFF AND EQ DUP1 ISZERO PUSH2 0xE9D JUMPI POP PUSH0 ADDRESS PUSH20 0xFFFFFFFFFFFFFFFFFFFFFFFFFFFFFFFFFFFFFFFF AND EXTCODESIZE EQ JUMPDEST SWAP1 POP DUP2 ISZERO DUP1 ISZERO PUSH2 0xEAB JUMPI POP DUP1 ISZERO JUMPDEST ISZERO PUSH2 0xEE2 JUMPI PUSH1 0x40 MLOAD PUSH32 0xF92EE8A900000000000000000000000000000000000000000000000000000000 DUP2 MSTORE PUSH1 0x4 ADD PUSH1 0x40 MLOAD DUP1 SWAP2 SUB SWAP1 REVERT JUMPDEST PUSH1 0x1 DUP6 PUSH0 ADD PUSH0 PUSH2 0x100 EXP DUP2 SLOAD DUP2 PUSH8 0xFFFFFFFFFFFFFFFF MUL NOT AND SWAP1 DUP4 PUSH8 0xFFFFFFFFFFFFFFFF AND MUL OR SWAP1 SSTORE POP DUP4 ISZERO PUSH2 0xF2F JUMPI PUSH1 0x1 DUP6 PUSH0 ADD PUSH1 0x8 PUSH2 0x100 EXP DUP2 SLOAD DUP2 PUSH1 0xFF MUL NOT AND SWAP1 DUP4 ISZERO ISZERO MUL OR SWAP1 SSTORE POP JUMPDEST PUSH2 0xF37 PUSH2 0x1D72 JUMP JUMPDEST PUSH2 0xF3F PUSH2 0x1D84 JUMP JUMPDEST PUSH2 0xF47 PUSH2 0x1D8E JUMP JUMPDEST PUSH2 0xF53 PUSH0 DUP1 SHL CALLER PUSH2 0x1806 JUMP JUMPDEST POP PUSH2 0xF7E PUSH32 0x65D7A28E3265B37A6474929F336521B332C1681B933F6CB9F3376673440D862A CALLER PUSH2 0x1806 JUMP JUMPDEST POP PUSH2 0xFA9 PUSH32 0x189AB7A9244DF0848122154315AF71FE140F3DB0FE014031783B0946B8C9D2E3 CALLER PUSH2 0x1806 JUMP JUMPDEST POP DUP4 ISZERO PUSH2 0x1004 JUMPI PUSH0 DUP6 PUSH0 ADD PUSH1 0x8 PUSH2 0x100 EXP DUP2 SLOAD DUP2 PUSH1 0xFF MUL NOT AND SWAP1 DUP4 ISZERO ISZERO MUL OR SWAP1 SSTORE POP PUSH32 0xC7F505B2F371AE2175EE4913F4499E1F2633A7B5936321EED1CDAEB6115181D2 PUSH1 0x1 PUSH1 0x40 MLOAD PUSH2 0xFFB SWAP2 SWAP1 PUSH2 0x2DDD JUMP JUMPDEST PUSH1 0x40 MLOAD DUP1 SWAP2 SUB SWAP1 LOG1 JUMPDEST POP POP POP POP POP JUMP JUMPDEST PUSH32 0x65D7A28E3265B37A6474929F336521B332C1681B933F6CB9F3376673440D862A PUSH2 0x1035 DUP2 PUSH2 0x17F2 JUMP JUMPDEST PUSH2 0x103D PUSH2 0x1D98 JUMP JUMPDEST POP JUMP JUMPDEST PUSH0 DUP5 DUP5 TIMESTAMP PUSH1 0x40 MLOAD PUSH1 0x20 ADD PUSH2 0x1056 SWAP4 SWAP3 SWAP2 SWAP1 PUSH2 0x2E36 JUMP JUMPDEST PUSH1 0x40 MLOAD PUSH1 0x20 DUP2 DUP4 SUB SUB DUP2 MSTORE SWAP1 PUSH1 0x40 MSTORE SWAP1 POP CALLER PUSH20 0xFFFFFFFFFFFFFFFFFFFFFFFFFFFFFFFFFFFFFFFF AND PUSH0 DUP3 PUSH1 0x40 MLOAD PUSH2 0x108D SWAP2 SWAP1 PUSH2 0x2C3A JUMP JUMPDEST SWAP1 DUP2 MSTORE PUSH1 0x20 ADD PUSH1 0x40 MLOAD DUP1 SWAP2 SUB SWAP1 KECCAK256 PUSH1 0x1 ADD PUSH0 SWAP1 SLOAD SWAP1 PUSH2 0x100 EXP SWAP1 DIV PUSH20 0xFFFFFFFFFFFFFFFFFFFFFFFFFFFFFFFFFFFFFFFF AND PUSH20 0xFFFFFFFFFFFFFFFFFFFFFFFFFFFFFFFFFFFFFFFF AND EQ PUSH2 0x1114 JUMPI PUSH1 0x40 MLOAD PUSH32 0x8C379A000000000000000000000000000000000000000000000000000000000 DUP2 MSTORE PUSH1 0x4 ADD PUSH2 0x110B SWAP1 PUSH2 0x2D6A JUMP JUMPDEST PUSH1 0x40 MLOAD DUP1 SWAP2 SUB SWAP1 REVERT JUMPDEST PUSH1 0x1 PUSH0 DUP3 PUSH1 0x40 MLOAD PUSH2 0x1125 SWAP2 SWAP1 PUSH2 0x2C3A JUMP JUMPDEST SWAP1 DUP2 MSTORE PUSH1 0x20 ADD PUSH1 0x40 MLOAD DUP1 SWAP2 SUB SWAP1 KECCAK256 PUSH1 0x6 ADD PUSH0 PUSH2 0x100 EXP DUP2 SLOAD DUP2 PUSH1 0xFF MUL NOT AND SWAP1 DUP4 ISZERO ISZERO MUL OR SWAP1 SSTORE POP PUSH32 0x2F9110550F3374364C85539074B740B7BFED285798D152502C5F2DFD745CF00 CALLER DUP3 PUSH1 0x40 MLOAD PUSH2 0x117D SWAP3 SWAP2 SWAP1 PUSH2 0x2E6E JUMP JUMPDEST PUSH1 0x40 MLOAD DUP1 SWAP2 SUB SWAP1 LOG1 POP POP POP POP POP POP JUMP JUMPDEST PUSH0 DUP1 PUSH2 0x1197 PUSH2 0x17CB JUMP JUMPDEST SWAP1 POP DUP1 PUSH0 ADD PUSH0 DUP6 DUP2 MSTORE PUSH1 0x20 ADD SWAP1 DUP2 MSTORE PUSH1 0x20 ADD PUSH0 KECCAK256 PUSH0 ADD PUSH0 DUP5 PUSH20 0xFFFFFFFFFFFFFFFFFFFFFFFFFFFFFFFFFFFFFFFF AND PUSH20 0xFFFFFFFFFFFFFFFFFFFFFFFFFFFFFFFFFFFFFFFF AND DUP2 MSTORE PUSH1 0x20 ADD SWAP1 DUP2 MSTORE PUSH1 0x20 ADD PUSH0 KECCAK256 PUSH0 SWAP1 SLOAD SWAP1 PUSH2 0x100 EXP SWAP1 DIV PUSH1 0xFF AND SWAP2 POP POP SWAP3 SWAP2 POP POP JUMP JUMPDEST PUSH0 DUP1 SHL DUP2 JUMP JUMPDEST PUSH1 0x40 MLOAD DUP1 PUSH1 0x40 ADD PUSH1 0x40 MSTORE DUP1 PUSH1 0x5 DUP2 MSTORE PUSH1 0x20 ADD PUSH32 0x352E302E30000000000000000000000000000000000000000000000000000000 DUP2 MSTORE POP DUP2 JUMP JUMPDEST PUSH0 PUSH1 0x1 DUP1 SLOAD SWAP1 POP GT PUSH2 0x1284 JUMPI PUSH1 0x40 MLOAD PUSH32 0x8C379A000000000000000000000000000000000000000000000000000000000 DUP2 MSTORE PUSH1 0x4 ADD PUSH2 0x127B SWAP1 PUSH2 0x2B55 JUMP JUMPDEST PUSH1 0x40 MLOAD DUP1 SWAP2 SUB SWAP1 REVERT JUMPDEST PUSH0 PUSH1 0x1 DUP1 DUP1 DUP1 SLOAD SWAP1 POP PUSH2 0x1297 SWAP2 SWAP1 PUSH2 0x2BA0 JUMP JUMPDEST DUP2 SLOAD DUP2 LT PUSH2 0x12A8 JUMPI PUSH2 0x12A7 PUSH2 0x2BD3 JUMP JUMPDEST JUMPDEST SWAP1 PUSH0 MSTORE PUSH1 0x20 PUSH0 KECCAK256 ADD DUP1 SLOAD PUSH2 0x12BB SWAP1 PUSH2 0x2AB3 JUMP JUMPDEST DUP1 PUSH1 0x1F ADD PUSH1 0x20 DUP1 SWAP2 DIV MUL PUSH1 0x20 ADD PUSH1 0x40 MLOAD SWAP1 DUP2 ADD PUSH1 0x40 MSTORE DUP1 SWAP3 SWAP2 SWAP1 DUP2 DUP2 MSTORE PUSH1 0x20 ADD DUP3 DUP1 SLOAD PUSH2 0x12E7 SWAP1 PUSH2 0x2AB3 JUMP JUMPDEST DUP1 ISZERO PUSH2 0x1332 JUMPI DUP1 PUSH1 0x1F LT PUSH2 0x1309 JUMPI PUSH2 0x100 DUP1 DUP4 SLOAD DIV MUL DUP4 MSTORE SWAP2 PUSH1 0x20 ADD SWAP2 PUSH2 0x1332 JUMP JUMPDEST DUP3 ADD SWAP2 SWAP1 PUSH0 MSTORE PUSH1 0x20 PUSH0 KECCAK256 SWAP1 JUMPDEST DUP2 SLOAD DUP2 MSTORE SWAP1 PUSH1 0x1 ADD SWAP1 PUSH1 0x20 ADD DUP1 DUP4 GT PUSH2 0x1315 JUMPI DUP3 SWAP1 SUB PUSH1 0x1F AND DUP3 ADD SWAP2 JUMPDEST POP POP POP POP POP SWAP1 POP PUSH0 DUP2 PUSH1 0x40 MLOAD PUSH2 0x1348 SWAP2 SWAP1 PUSH2 0x2C3A JUMP JUMPDEST SWAP1 DUP2 MSTORE PUSH1 0x20 ADD PUSH1 0x40 MLOAD DUP1 SWAP2 SUB SWAP1 KECCAK256 PUSH1 0x6 ADD PUSH0 SWAP1 SLOAD SWAP1 PUSH2 0x100 EXP SWAP1 DIV PUSH1 0xFF AND PUSH2 0x13A5 JUMPI PUSH1 0x40 MLOAD PUSH32 0x8C379A000000000000000000000000000000000000000000000000000000000 DUP2 MSTORE PUSH1 0x4 ADD PUSH2 0x139C SWAP1 PUSH2 0x2C9A JUMP JUMPDEST PUSH1 0x40 MLOAD DUP1 SWAP2 SUB SWAP1 REVERT JUMPDEST PUSH32 0xF31A94B3B4C854E5A4ADEA9F6082AB58856D3750C9A0182C2D9641BDA7C09FC5 PUSH0 DUP3 PUSH1 0x40 MLOAD PUSH2 0x13D5 SWAP2 SWAP1 PUSH2 0x2C3A JUMP JUMPDEST SWAP1 DUP2 MSTORE PUSH1 0x20 ADD PUSH1 0x40 MLOAD DUP1 SWAP2 SUB SWAP1 KECCAK256 PUSH1 0x2 ADD PUSH0 DUP4 PUSH1 0x40 MLOAD PUSH2 0x13F5 SWAP2 SWAP1 PUSH2 0x2C3A JUMP JUMPDEST SWAP1 DUP2 MSTORE PUSH1 0x20 ADD PUSH1 0x40 MLOAD DUP1 SWAP2 SUB SWAP1 KECCAK256 PUSH1 0x5 ADD PUSH1 0x40 MLOAD PUSH2 0x1414 SWAP3 SWAP2 SWAP1 PUSH2 0x2F2F JUMP JUMPDEST PUSH1 0x40 MLOAD DUP1 SWAP2 SUB SWAP1 LOG1 POP JUMP JUMPDEST PUSH2 0x1428 DUP3 PUSH2 0x630 JUMP JUMPDEST PUSH2 0x1431 DUP2 PUSH2 0x17F2 JUMP JUMPDEST PUSH2 0x143B DUP4 DUP4 PUSH2 0x1905 JUMP JUMPDEST POP POP POP POP JUMP JUMPDEST POP POP JUMP JUMPDEST PUSH32 0x65D7A28E3265B37A6474929F336521B332C1681B933F6CB9F3376673440D862A DUP2 JUMP JUMPDEST PUSH0 DUP5 DUP5 TIMESTAMP PUSH1 0x40 MLOAD PUSH1 0x20 ADD PUSH2 0x147F SWAP4 SWAP3 SWAP2 SWAP1 PUSH2 0x2E36 JUMP JUMPDEST PUSH1 0x40 MLOAD PUSH1 0x20 DUP2 DUP4 SUB SUB DUP2 MSTORE SWAP1 PUSH1 0x40 MSTORE SWAP1 POP PUSH1 0x40 MLOAD DUP1 PUSH2 0x100 ADD PUSH1 0x40 MSTORE DUP1 CALLER PUSH20 0xFFFFFFFFFFFFFFFFFFFFFFFFFFFFFFFFFFFFFFFF AND DUP2 MSTORE PUSH1 0x20 ADD DUP8 PUSH20 0xFFFFFFFFFFFFFFFFFFFFFFFFFFFFFFFFFFFFFFFF AND DUP2 MSTORE PUSH1 0x20 ADD DUP7 DUP2 MSTORE PUSH1 0x20 ADD DUP6 DUP2 MSTORE PUSH1 0x20 ADD DUP5 DUP2 MSTORE PUSH1 0x20 ADD DUP4 DUP2 MSTORE PUSH1 0x20 ADD PUSH0 ISZERO ISZERO DUP2 MSTORE PUSH1 0x20 ADD PUSH0 ISZERO ISZERO DUP2 MSTORE POP PUSH0 DUP3 PUSH1 0x40 MLOAD PUSH2 0x1509 SWAP2 SWAP1 PUSH2 0x2C3A JUMP JUMPDEST SWAP1 DUP2 MSTORE PUSH1 0x20 ADD PUSH1 0x40 MLOAD DUP1 SWAP2 SUB SWAP1 KECCAK256 PUSH0 DUP3 ADD MLOAD DUP2 PUSH0 ADD PUSH0 PUSH2 0x100 EXP DUP2 SLOAD DUP2 PUSH20 0xFFFFFFFFFFFFFFFFFFFFFFFFFFFFFFFFFFFFFFFF MUL NOT AND SWAP1 DUP4 PUSH20 0xFFFFFFFFFFFFFFFFFFFFFFFFFFFFFFFFFFFFFFFF AND MUL OR SWAP1 SSTORE POP PUSH1 0x20 DUP3 ADD MLOAD DUP2 PUSH1 0x1 ADD PUSH0 PUSH2 0x100 EXP DUP2 SLOAD DUP2 PUSH20 0xFFFFFFFFFFFFFFFFFFFFFFFFFFFFFFFFFFFFFFFF MUL NOT AND SWAP1 DUP4 PUSH20 0xFFFFFFFFFFFFFFFFFFFFFFFFFFFFFFFFFFFFFFFF AND MUL OR SWAP1 SSTORE POP PUSH1 0x40 DUP3 ADD MLOAD DUP2 PUSH1 0x2 ADD SWAP1 DUP2 PUSH2 0x15B6 SWAP2 SWAP1 PUSH2 0x30E6 JUMP JUMPDEST POP PUSH1 0x60 DUP3 ADD MLOAD DUP2 PUSH1 0x3 ADD SSTORE PUSH1 0x80 DUP3 ADD MLOAD DUP2 PUSH1 0x4 ADD SSTORE PUSH1 0xA0 DUP3 ADD MLOAD DUP2 PUSH1 0x5 ADD SWAP1 DUP2 PUSH2 0x15E0 SWAP2 SWAP1 PUSH2 0x30E6 JUMP JUMPDEST POP PUSH1 0xC0 DUP3 ADD MLOAD DUP2 PUSH1 0x6 ADD PUSH0 PUSH2 0x100 EXP DUP2 SLOAD DUP2 PUSH1 0xFF MUL NOT AND SWAP1 DUP4 ISZERO ISZERO MUL OR SWAP1 SSTORE POP PUSH1 0xE0 DUP3 ADD MLOAD DUP2 PUSH1 0x6 ADD PUSH1 0x1 PUSH2 0x100 EXP DUP2 SLOAD DUP2 PUSH1 0xFF MUL NOT AND SWAP1 DUP4 ISZERO ISZERO MUL OR SWAP1 SSTORE POP SWAP1 POP POP PUSH1 0x1 DUP2 SWAP1 DUP1 PUSH1 0x1 DUP2 SLOAD ADD DUP1 DUP3 SSTORE DUP1 SWAP2 POP POP PUSH1 0x1 SWAP1 SUB SWAP1 PUSH0 MSTORE PUSH1 0x20 PUSH0 KECCAK256 ADD PUSH0 SWAP1 SWAP2 SWAP1 SWAP2 SWAP1 SWAP2 POP SWAP1 DUP2 PUSH2 0x1654 SWAP2 SWAP1 PUSH2 0x30E6 JUMP JUMPDEST POP PUSH32 0x7511EECA77B6245674AA0ED9CFC29C93005CA6C461F25CA4DCBB0FDB80E003C9 CALLER DUP3 DUP8 PUSH1 0x40 MLOAD PUSH2 0x1688 SWAP4 SWAP3 SWAP2 SWAP1 PUSH2 0x31B5 JUMP JUMPDEST PUSH1 0x40 MLOAD DUP1 SWAP2 SUB SWAP1 LOG1 POP POP POP POP POP POP JUMP JUMPDEST PUSH32 0x189AB7A9244DF0848122154315AF71FE140F3DB0FE014031783B0946B8C9D2E3 DUP2 JUMP JUMPDEST PUSH1 0x1 DUP2 DUP2 SLOAD DUP2 LT PUSH2 0x16CB JUMPI PUSH0 DUP1 REVERT JUMPDEST SWAP1 PUSH0 MSTORE PUSH1 0x20 PUSH0 KECCAK256 ADD PUSH0 SWAP2 POP SWAP1 POP DUP1 SLOAD PUSH2 0x16E3 SWAP1 PUSH2 0x2AB3 JUMP JUMPDEST DUP1 PUSH1 0x1F ADD PUSH1 0x20 DUP1 SWAP2 DIV MUL PUSH1 0x20 ADD PUSH1 0x40 MLOAD SWAP1 DUP2 ADD PUSH1 0x40 MSTORE DUP1 SWAP3 SWAP2 SWAP1 DUP2 DUP2 MSTORE PUSH1 0x20 ADD DUP3 DUP1 SLOAD PUSH2 0x170F SWAP1 PUSH2 0x2AB3 JUMP JUMPDEST DUP1 ISZERO PUSH2 0x175A JUMPI DUP1 PUSH1 0x1F LT PUSH2 0x1731 JUMPI PUSH2 0x100 DUP1 DUP4 SLOAD DIV MUL DUP4 MSTORE SWAP2 PUSH1 0x20 ADD SWAP2 PUSH2 0x175A JUMP JUMPDEST DUP3 ADD SWAP2 SWAP1 PUSH0 MSTORE PUSH1 0x20 PUSH0 KECCAK256 SWAP1 JUMPDEST DUP2 SLOAD DUP2 MSTORE SWAP1 PUSH1 0x1 ADD SWAP1 PUSH1 0x20 ADD DUP1 DUP4 GT PUSH2 0x173D JUMPI DUP3 SWAP1 SUB PUSH1 0x1F AND DUP3 ADD SWAP2 JUMPDEST POP POP POP POP POP DUP2 JUMP JUMPDEST PUSH0 PUSH32 0x1FFC9A700000000000000000000000000000000000000000000000000000000 PUSH28 0xFFFFFFFFFFFFFFFFFFFFFFFFFFFFFFFFFFFFFFFFFFFFFFFFFFFFFFFF NOT AND DUP3 PUSH28 0xFFFFFFFFFFFFFFFFFFFFFFFFFFFFFFFFFFFFFFFFFFFFFFFFFFFFFFFF NOT AND EQ SWAP1 POP SWAP2 SWAP1 POP JUMP JUMPDEST PUSH0 PUSH32 0x2DD7BC7DEC4DCEEDDA775E58DD541E08A116C6C53815C0BD028192F7B626800 SWAP1 POP SWAP1 JUMP JUMPDEST PUSH2 0x1803 DUP2 PUSH2 0x17FE PUSH2 0x18FE JUMP JUMPDEST PUSH2 0x1E07 JUMP JUMPDEST POP JUMP JUMPDEST PUSH0 DUP1 PUSH2 0x1810 PUSH2 0x17CB JUMP JUMPDEST SWAP1 POP PUSH2 0x181C DUP5 DUP5 PUSH2 0x118D JUMP JUMPDEST PUSH2 0x18F3 JUMPI PUSH1 0x1 DUP2 PUSH0 ADD PUSH0 DUP7 DUP2 MSTORE PUSH1 0x20 ADD SWAP1 DUP2 MSTORE PUSH1 0x20 ADD PUSH0 KECCAK256 PUSH0 ADD PUSH0 DUP6 PUSH20 0xFFFFFFFFFFFFFFFFFFFFFFFFFFFFFFFFFFFFFFFF AND PUSH20 0xFFFFFFFFFFFFFFFFFFFFFFFFFFFFFFFFFFFFFFFF AND DUP2 MSTORE PUSH1 0x20 ADD SWAP1 DUP2 MSTORE PUSH1 0x20 ADD PUSH0 KECCAK256 PUSH0 PUSH2 0x100 EXP DUP2 SLOAD DUP2 PUSH1 0xFF MUL NOT AND SWAP1 DUP4 ISZERO ISZERO MUL OR SWAP1 SSTORE POP PUSH2 0x188F PUSH2 0x18FE JUMP JUMPDEST PUSH20 0xFFFFFFFFFFFFFFFFFFFFFFFFFFFFFFFFFFFFFFFF AND DUP4 PUSH20 0xFFFFFFFFFFFFFFFFFFFFFFFFFFFFFFFFFFFFFFFF AND DUP6 PUSH32 0x2F8788117E7EFF1D82E926EC794901D17C78024A50270940304540A733656F0D PUSH1 0x40 MLOAD PUSH1 0x40 MLOAD DUP1 SWAP2 SUB SWAP1 LOG4 PUSH1 0x1 SWAP2 POP POP PUSH2 0x18F8 JUMP JUMPDEST PUSH0 SWAP2 POP POP JUMPDEST SWAP3 SWAP2 POP POP JUMP JUMPDEST PUSH0 CALLER SWAP1 POP SWAP1 JUMP JUMPDEST PUSH0 DUP1 PUSH2 0x190F PUSH2 0x17CB JUMP JUMPDEST SWAP1 POP PUSH2 0x191B DUP5 DUP5 PUSH2 0x118D JUMP JUMPDEST ISZERO PUSH2 0x19F2 JUMPI PUSH0 DUP2 PUSH0 ADD PUSH0 DUP7 DUP2 MSTORE PUSH1 0x20 ADD SWAP1 DUP2 MSTORE PUSH1 0x20 ADD PUSH0 KECCAK256 PUSH0 ADD PUSH0 DUP6 PUSH20 0xFFFFFFFFFFFFFFFFFFFFFFFFFFFFFFFFFFFFFFFF AND PUSH20 0xFFFFFFFFFFFFFFFFFFFFFFFFFFFFFFFFFFFFFFFF AND DUP2 MSTORE PUSH1 0x20 ADD SWAP1 DUP2 MSTORE PUSH1 0x20 ADD PUSH0 KECCAK256 PUSH0 PUSH2 0x100 EXP DUP2 SLOAD DUP2 PUSH1 0xFF MUL NOT AND SWAP1 DUP4 ISZERO ISZERO MUL OR SWAP1 SSTORE POP PUSH2 0x198E PUSH2 0x18FE JUMP JUMPDEST PUSH20 0xFFFFFFFFFFFFFFFFFFFFFFFFFFFFFFFFFFFFFFFF AND DUP4 PUSH20 0xFFFFFFFFFFFFFFFFFFFFFFFFFFFFFFFFFFFFFFFF AND DUP6 PUSH32 0xF6391F5C32D9C69D2A47EA670B442974B53935D1EDC7FD64EB21E047A839171B PUSH1 0x40 MLOAD PUSH1 0x40 MLOAD DUP1 SWAP2 SUB SWAP1 LOG4 PUSH1 0x1 SWAP2 POP POP PUSH2 0x19F7 JUMP JUMPDEST PUSH0 SWAP2 POP POP JUMPDEST SWAP3 SWAP2 POP POP JUMP JUMPDEST PUSH2 0x1A05 PUSH2 0x1E58 JUMP JUMPDEST PUSH0 PUSH2 0x1A0E PUSH2 0x1D24 JUMP JUMPDEST SWAP1 POP PUSH0 DUP2 PUSH0 ADD PUSH0 PUSH2 0x100 EXP DUP2 SLOAD DUP2 PUSH1 0xFF MUL NOT AND SWAP1 DUP4 ISZERO ISZERO MUL OR SWAP1 SSTORE POP PUSH32 0x5DB9EE0A495BF2E6FF9C91A7834C1BA4FDD244A5E8AA4E537BD38AEAE4B073AA PUSH2 0x1A53 PUSH2 0x18FE JUMP JUMPDEST PUSH1 0x40 MLOAD PUSH2 0x1A60 SWAP2 SWAP1 PUSH2 0x31F8 JUMP JUMPDEST PUSH1 0x40 MLOAD DUP1 SWAP2 SUB SWAP1 LOG1 POP JUMP JUMPDEST PUSH32 0x0 PUSH20 0xFFFFFFFFFFFFFFFFFFFFFFFFFFFFFFFFFFFFFFFF AND ADDRESS PUSH20 0xFFFFFFFFFFFFFFFFFFFFFFFFFFFFFFFFFFFFFFFF AND EQ DUP1 PUSH2 0x1B18 JUMPI POP PUSH32 0x0 PUSH20 0xFFFFFFFFFFFFFFFFFFFFFFFFFFFFFFFFFFFFFFFF AND PUSH2 0x1AFF PUSH2 0x1E98 JUMP JUMPDEST PUSH20 0xFFFFFFFFFFFFFFFFFFFFFFFFFFFFFFFFFFFFFFFF AND EQ ISZERO JUMPDEST ISZERO PUSH2 0x1B4F JUMPI PUSH1 0x40 MLOAD PUSH32 0xE07C8DBA00000000000000000000000000000000000000000000000000000000 DUP2 MSTORE PUSH1 0x4 ADD PUSH1 0x40 MLOAD DUP1 SWAP2 SUB SWAP1 REVERT JUMPDEST JUMP JUMPDEST PUSH32 0x189AB7A9244DF0848122154315AF71FE140F3DB0FE014031783B0946B8C9D2E3 PUSH2 0x1B7B DUP2 PUSH2 0x17F2 JUMP JUMPDEST POP POP JUMP JUMPDEST DUP2 PUSH20 0xFFFFFFFFFFFFFFFFFFFFFFFFFFFFFFFFFFFFFFFF AND PUSH4 0x52D1902D PUSH1 0x40 MLOAD DUP2 PUSH4 0xFFFFFFFF AND PUSH1 0xE0 SHL DUP2 MSTORE PUSH1 0x4 ADD PUSH1 0x20 PUSH1 0x40 MLOAD DUP1 DUP4 SUB DUP2 DUP7 GAS STATICCALL SWAP3 POP POP POP DUP1 ISZERO PUSH2 0x1BE7 JUMPI POP PUSH1 0x40 MLOAD RETURNDATASIZE PUSH1 0x1F NOT PUSH1 0x1F DUP3 ADD AND DUP3 ADD DUP1 PUSH1 0x40 MSTORE POP DUP2 ADD SWAP1 PUSH2 0x1BE4 SWAP2 SWAP1 PUSH2 0x3225 JUMP JUMPDEST PUSH1 0x1 JUMPDEST PUSH2 0x1C28 JUMPI DUP2 PUSH1 0x40 MLOAD PUSH32 0x4C9C8CE300000000000000000000000000000000000000000000000000000000 DUP2 MSTORE PUSH1 0x4 ADD PUSH2 0x1C1F SWAP2 SWAP1 PUSH2 0x31F8 JUMP JUMPDEST PUSH1 0x40 MLOAD DUP1 SWAP2 SUB SWAP1 REVERT JUMPDEST PUSH32 0x360894A13BA1A3210667C828492DB98DCA3E2076CC3735A920A3CA505D382BBC PUSH0 SHL DUP2 EQ PUSH2 0x1C8E JUMPI DUP1 PUSH1 0x40 MLOAD PUSH32 0xAA1D49A400000000000000000000000000000000000000000000000000000000 DUP2 MSTORE PUSH1 0x4 ADD PUSH2 0x1C85 SWAP2 SWAP1 PUSH2 0x23BC JUMP JUMPDEST PUSH1 0x40 MLOAD DUP1 SWAP2 SUB SWAP1 REVERT JUMPDEST PUSH2 0x1C98 DUP4 DUP4 PUSH2 0x1EEB JUMP JUMPDEST POP POP POP JUMP JUMPDEST PUSH32 0x0 PUSH20 0xFFFFFFFFFFFFFFFFFFFFFFFFFFFFFFFFFFFFFFFF AND ADDRESS PUSH20 0xFFFFFFFFFFFFFFFFFFFFFFFFFFFFFFFFFFFFFFFF AND EQ PUSH2 0x1D22 JUMPI PUSH1 0x40 MLOAD PUSH32 0xE07C8DBA00000000000000000000000000000000000000000000000000000000 DUP2 MSTORE PUSH1 0x4 ADD PUSH1 0x40 MLOAD DUP1 SWAP2 SUB SWAP1 REVERT JUMPDEST JUMP JUMPDEST PUSH0 PUSH32 0xCD5ED15C6E187E77E9AEE88184C21F4F2182AB5827CB3B7E07FBEDCD63F03300 SWAP1 POP SWAP1 JUMP JUMPDEST PUSH0 PUSH32 0xF0C57E16840DF040F15088DC2F81FE391C3923BEC73E23A9662EFC9C229C6A00 SWAP1 POP SWAP1 JUMP JUMPDEST PUSH2 0x1D7A PUSH2 0x1F5D JUMP JUMPDEST PUSH2 0x1D82 PUSH2 0x1F9D JUMP JUMPDEST JUMP JUMPDEST PUSH2 0x1D8C PUSH2 0x1F5D JUMP JUMPDEST JUMP JUMPDEST PUSH2 0x1D96 PUSH2 0x1F5D JUMP JUMPDEST JUMP JUMPDEST PUSH2 0x1DA0 PUSH2 0x1FCD JUMP JUMPDEST PUSH0 PUSH2 0x1DA9 PUSH2 0x1D24 JUMP JUMPDEST SWAP1 POP PUSH1 0x1 DUP2 PUSH0 ADD PUSH0 PUSH2 0x100 EXP DUP2 SLOAD DUP2 PUSH1 0xFF MUL NOT AND SWAP1 DUP4 ISZERO ISZERO MUL OR SWAP1 SSTORE POP PUSH32 0x62E78CEA01BEE320CD4E420270B5EA74000D11B0C9F74754EBDBFC544B05A258 PUSH2 0x1DEF PUSH2 0x18FE JUMP JUMPDEST PUSH1 0x40 MLOAD PUSH2 0x1DFC SWAP2 SWAP1 PUSH2 0x31F8 JUMP JUMPDEST PUSH1 0x40 MLOAD DUP1 SWAP2 SUB SWAP1 LOG1 POP JUMP JUMPDEST PUSH2 0x1E11 DUP3 DUP3 PUSH2 0x118D JUMP JUMPDEST PUSH2 0x1E54 JUMPI DUP1 DUP3 PUSH1 0x40 MLOAD PUSH32 0xE2517D3F00000000000000000000000000000000000000000000000000000000 DUP2 MSTORE PUSH1 0x4 ADD PUSH2 0x1E4B SWAP3 SWAP2 SWAP1 PUSH2 0x3250 JUMP JUMPDEST PUSH1 0x40 MLOAD DUP1 SWAP2 SUB SWAP1 REVERT JUMPDEST POP POP JUMP JUMPDEST PUSH2 0x1E60 PUSH2 0x93A JUMP JUMPDEST PUSH2 0x1E96 JUMPI PUSH1 0x40 MLOAD PUSH32 0x8DFC202B00000000000000000000000000000000000000000000000000000000 DUP2 MSTORE PUSH1 0x4 ADD PUSH1 0x40 MLOAD DUP1 SWAP2 SUB SWAP1 REVERT JUMPDEST JUMP JUMPDEST PUSH0 PUSH2 0x1EC4 PUSH32 0x360894A13BA1A3210667C828492DB98DCA3E2076CC3735A920A3CA505D382BBC PUSH0 SHL PUSH2 0x200E JUMP JUMPDEST PUSH0 ADD PUSH0 SWAP1 SLOAD SWAP1 PUSH2 0x100 EXP SWAP1 DIV PUSH20 0xFFFFFFFFFFFFFFFFFFFFFFFFFFFFFFFFFFFFFFFF AND SWAP1 POP SWAP1 JUMP JUMPDEST PUSH2 0x1EF4 DUP3 PUSH2 0x2017 JUMP JUMPDEST DUP2 PUSH20 0xFFFFFFFFFFFFFFFFFFFFFFFFFFFFFFFFFFFFFFFF AND PUSH32 0xBC7CD75A20EE27FD9ADEBAB32041F755214DBC6BFFA90CC0225B39DA2E5C2D3B PUSH1 0x40 MLOAD PUSH1 0x40 MLOAD DUP1 SWAP2 SUB SWAP1 LOG2 PUSH0 DUP2 MLOAD GT ISZERO PUSH2 0x1F50 JUMPI PUSH2 0x1F4A DUP3 DUP3 PUSH2 0x20E0 JUMP JUMPDEST POP PUSH2 0x1F59 JUMP JUMPDEST PUSH2 0x1F58 PUSH2 0x2160 JUMP JUMPDEST JUMPDEST POP POP JUMP JUMPDEST PUSH2 0x1F65 PUSH2 0x219C JUMP JUMPDEST PUSH2 0x1F9B JUMPI PUSH1 0x40 MLOAD PUSH32 0xD7E6BCF800000000000000000000000000000000000000000000000000000000 DUP2 MSTORE PUSH1 0x4 ADD PUSH1 0x40 MLOAD DUP1 SWAP2 SUB SWAP1 REVERT JUMPDEST JUMP JUMPDEST PUSH2 0x1FA5 PUSH2 0x1F5D JUMP JUMPDEST PUSH0 PUSH2 0x1FAE PUSH2 0x1D24 JUMP JUMPDEST SWAP1 POP PUSH0 DUP2 PUSH0 ADD PUSH0 PUSH2 0x100 EXP DUP2 SLOAD DUP2 PUSH1 0xFF MUL NOT AND SWAP1 DUP4 ISZERO ISZERO MUL OR SWAP1 SSTORE POP POP JUMP JUMPDEST PUSH2 0x1FD5 PUSH2 0x93A JUMP JUMPDEST ISZERO PUSH2 0x200C JUMPI PUSH1 0x40 MLOAD PUSH32 0xD93C066500000000000000000000000000000000000000000000000000000000 DUP2 MSTORE PUSH1 0x4 ADD PUSH1 0x40 MLOAD DUP1 SWAP2 SUB SWAP1 REVERT JUMPDEST JUMP JUMPDEST PUSH0 DUP2 SWAP1 POP SWAP2 SWAP1 POP JUMP JUMPDEST PUSH0 DUP2 PUSH20 0xFFFFFFFFFFFFFFFFFFFFFFFFFFFFFFFFFFFFFFFF AND EXTCODESIZE SUB PUSH2 0x2072 JUMPI DUP1 PUSH1 0x40 MLOAD PUSH32 0x4C9C8CE300000000000000000000000000000000000000000000000000000000 DUP2 MSTORE PUSH1 0x4 ADD PUSH2 0x2069 SWAP2 SWAP1 PUSH2 0x31F8 JUMP JUMPDEST PUSH1 0x40 MLOAD DUP1 SWAP2 SUB SWAP1 REVERT JUMPDEST DUP1 PUSH2 0x209E PUSH32 0x360894A13BA1A3210667C828492DB98DCA3E2076CC3735A920A3CA505D382BBC PUSH0 SHL PUSH2 0x200E JUMP JUMPDEST PUSH0 ADD PUSH0 PUSH2 0x100 EXP DUP2 SLOAD DUP2 PUSH20 0xFFFFFFFFFFFFFFFFFFFFFFFFFFFFFFFFFFFFFFFF MUL NOT AND SWAP1 DUP4 PUSH20 0xFFFFFFFFFFFFFFFFFFFFFFFFFFFFFFFFFFFFFFFF AND MUL OR SWAP1 SSTORE POP POP JUMP JUMPDEST PUSH1 0x60 PUSH0 DUP1 DUP5 PUSH20 0xFFFFFFFFFFFFFFFFFFFFFFFFFFFFFFFFFFFFFFFF AND DUP5 PUSH1 0x40 MLOAD PUSH2 0x2109 SWAP2 SWAP1 PUSH2 0x32BB JUMP JUMPDEST PUSH0 PUSH1 0x40 MLOAD DUP1 DUP4 SUB DUP2 DUP6 GAS DELEGATECALL SWAP2 POP POP RETURNDATASIZE DUP1 PUSH0 DUP2 EQ PUSH2 0x2141 JUMPI PUSH1 0x40 MLOAD SWAP2 POP PUSH1 0x1F NOT PUSH1 0x3F RETURNDATASIZE ADD AND DUP3 ADD PUSH1 0x40 MSTORE RETURNDATASIZE DUP3 MSTORE RETURNDATASIZE PUSH0 PUSH1 0x20 DUP5 ADD RETURNDATACOPY PUSH2 0x2146 JUMP JUMPDEST PUSH1 0x60 SWAP2 POP JUMPDEST POP SWAP2 POP SWAP2 POP PUSH2 0x2156 DUP6 DUP4 DUP4 PUSH2 0x21BA JUMP JUMPDEST SWAP3 POP POP POP SWAP3 SWAP2 POP POP JUMP JUMPDEST PUSH0 CALLVALUE GT ISZERO PUSH2 0x219A JUMPI PUSH1 0x40 MLOAD PUSH32 0xB398979F00000000000000000000000000000000000000000000000000000000 DUP2 MSTORE PUSH1 0x4 ADD PUSH1 0x40 MLOAD DUP1 SWAP2 SUB SWAP1 REVERT JUMPDEST JUMP JUMPDEST PUSH0 PUSH2 0x21A5 PUSH2 0x1D4B JUMP JUMPDEST PUSH0 ADD PUSH1 0x8 SWAP1 SLOAD SWAP1 PUSH2 0x100 EXP SWAP1 DIV PUSH1 0xFF AND SWAP1 POP SWAP1 JUMP JUMPDEST PUSH1 0x60 DUP3 PUSH2 0x21CF JUMPI PUSH2 0x21CA DUP3 PUSH2 0x2247 JUMP JUMPDEST PUSH2 0x223F JUMP JUMPDEST PUSH0 DUP3 MLOAD EQ DUP1 ISZERO PUSH2 0x21F5 JUMPI POP PUSH0 DUP5 PUSH20 0xFFFFFFFFFFFFFFFFFFFFFFFFFFFFFFFFFFFFFFFF AND EXTCODESIZE EQ JUMPDEST ISZERO PUSH2 0x2237 JUMPI DUP4 PUSH1 0x40 MLOAD PUSH32 0x9996B31500000000000000000000000000000000000000000000000000000000 DUP2 MSTORE PUSH1 0x4 ADD PUSH2 0x222E SWAP2 SWAP1 PUSH2 0x31F8 JUMP JUMPDEST PUSH1 0x40 MLOAD DUP1 SWAP2 SUB SWAP1 REVERT JUMPDEST DUP2 SWAP1 POP PUSH2 0x2240 JUMP JUMPDEST JUMPDEST SWAP4 SWAP3 POP POP POP JUMP JUMPDEST PUSH0 DUP2 MLOAD GT ISZERO PUSH2 0x2259 JUMPI DUP1 MLOAD DUP1 DUP3 PUSH1 0x20 ADD REVERT JUMPDEST PUSH1 0x40 MLOAD PUSH32 0x1425EA4200000000000000000000000000000000000000000000000000000000 DUP2 MSTORE PUSH1 0x4 ADD PUSH1 0x40 MLOAD DUP1 SWAP2 SUB SWAP1 REVERT JUMPDEST PUSH0 PUSH1 0x40 MLOAD SWAP1 POP SWAP1 JUMP JUMPDEST PUSH0 DUP1 REVERT JUMPDEST PUSH0 DUP1 REVERT JUMPDEST PUSH0 PUSH32 0xFFFFFFFF00000000000000000000000000000000000000000000000000000000 DUP3 AND SWAP1 POP SWAP2 SWAP1 POP JUMP JUMPDEST PUSH2 0x22D0 DUP2 PUSH2 0x229C JUMP JUMPDEST DUP2 EQ PUSH2 0x22DA JUMPI PUSH0 DUP1 REVERT JUMPDEST POP JUMP JUMPDEST PUSH0 DUP2 CALLDATALOAD SWAP1 POP PUSH2 0x22EB DUP2 PUSH2 0x22C7 JUMP JUMPDEST SWAP3 SWAP2 POP POP JUMP JUMPDEST PUSH0 PUSH1 0x20 DUP3 DUP5 SUB SLT ISZERO PUSH2 0x2306 JUMPI PUSH2 0x2305 PUSH2 0x2294 JUMP JUMPDEST JUMPDEST PUSH0 PUSH2 0x2313 DUP5 DUP3 DUP6 ADD PUSH2 0x22DD JUMP JUMPDEST SWAP2 POP POP SWAP3 SWAP2 POP POP JUMP JUMPDEST PUSH0 DUP2 ISZERO ISZERO SWAP1 POP SWAP2 SWAP1 POP JUMP JUMPDEST PUSH2 0x2330 DUP2 PUSH2 0x231C JUMP JUMPDEST DUP3 MSTORE POP POP JUMP JUMPDEST PUSH0 PUSH1 0x20 DUP3 ADD SWAP1 POP PUSH2 0x2349 PUSH0 DUP4 ADD DUP5 PUSH2 0x2327 JUMP JUMPDEST SWAP3 SWAP2 POP POP JUMP JUMPDEST PUSH0 DUP2 SWAP1 POP SWAP2 SWAP1 POP JUMP JUMPDEST PUSH2 0x2361 DUP2 PUSH2 0x234F JUMP JUMPDEST DUP2 EQ PUSH2 0x236B JUMPI PUSH0 DUP1 REVERT JUMPDEST POP JUMP JUMPDEST PUSH0 DUP2 CALLDATALOAD SWAP1 POP PUSH2 0x237C DUP2 PUSH2 0x2358 JUMP JUMPDEST SWAP3 SWAP2 POP POP JUMP JUMPDEST PUSH0 PUSH1 0x20 DUP3 DUP5 SUB SLT ISZERO PUSH2 0x2397 JUMPI PUSH2 0x2396 PUSH2 0x2294 JUMP JUMPDEST JUMPDEST PUSH0 PUSH2 0x23A4 DUP5 DUP3 DUP6 ADD PUSH2 0x236E JUMP JUMPDEST SWAP2 POP POP SWAP3 SWAP2 POP POP JUMP JUMPDEST PUSH2 0x23B6 DUP2 PUSH2 0x234F JUMP JUMPDEST DUP3 MSTORE POP POP JUMP JUMPDEST PUSH0 PUSH1 0x20 DUP3 ADD SWAP1 POP PUSH2 0x23CF PUSH0 DUP4 ADD DUP5 PUSH2 0x23AD JUMP JUMPDEST SWAP3 SWAP2 POP POP JUMP JUMPDEST PUSH0 PUSH20 0xFFFFFFFFFFFFFFFFFFFFFFFFFFFFFFFFFFFFFFFF DUP3 AND SWAP1 POP SWAP2 SWAP1 POP JUMP JUMPDEST PUSH0 PUSH2 0x23FE DUP3 PUSH2 0x23D5 JUMP JUMPDEST SWAP1 POP SWAP2 SWAP1 POP JUMP JUMPDEST PUSH2 0x240E DUP2 PUSH2 0x23F4 JUMP JUMPDEST DUP2 EQ PUSH2 0x2418 JUMPI PUSH0 DUP1 REVERT JUMPDEST POP JUMP JUMPDEST PUSH0 DUP2 CALLDATALOAD SWAP1 POP PUSH2 0x2429 DUP2 PUSH2 0x2405 JUMP JUMPDEST SWAP3 SWAP2 POP POP JUMP JUMPDEST PUSH0 DUP1 PUSH1 0x40 DUP4 DUP6 SUB SLT ISZERO PUSH2 0x2445 JUMPI PUSH2 0x2444 PUSH2 0x2294 JUMP JUMPDEST JUMPDEST PUSH0 PUSH2 0x2452 DUP6 DUP3 DUP7 ADD PUSH2 0x236E JUMP JUMPDEST SWAP3 POP POP PUSH1 0x20 PUSH2 0x2463 DUP6 DUP3 DUP7 ADD PUSH2 0x241B JUMP JUMPDEST SWAP2 POP POP SWAP3 POP SWAP3 SWAP1 POP JUMP JUMPDEST PUSH0 DUP1 REVERT JUMPDEST PUSH0 DUP1 REVERT JUMPDEST PUSH0 PUSH1 0x1F NOT PUSH1 0x1F DUP4 ADD AND SWAP1 POP SWAP2 SWAP1 POP JUMP JUMPDEST PUSH32 0x4E487B7100000000000000000000000000000000000000000000000000000000 PUSH0 MSTORE PUSH1 0x41 PUSH1 0x4 MSTORE PUSH1 0x24 PUSH0 REVERT JUMPDEST PUSH2 0x24BB DUP3 PUSH2 0x2475 JUMP JUMPDEST DUP2 ADD DUP2 DUP2 LT PUSH8 0xFFFFFFFFFFFFFFFF DUP3 GT OR ISZERO PUSH2 0x24DA JUMPI PUSH2 0x24D9 PUSH2 0x2485 JUMP JUMPDEST JUMPDEST DUP1 PUSH1 0x40 MSTORE POP POP POP JUMP JUMPDEST PUSH0 PUSH2 0x24EC PUSH2 0x228B JUMP JUMPDEST SWAP1 POP PUSH2 0x24F8 DUP3 DUP3 PUSH2 0x24B2 JUMP JUMPDEST SWAP2 SWAP1 POP JUMP JUMPDEST PUSH0 PUSH8 0xFFFFFFFFFFFFFFFF DUP3 GT ISZERO PUSH2 0x2517 JUMPI PUSH2 0x2516 PUSH2 0x2485 JUMP JUMPDEST JUMPDEST PUSH2 0x2520 DUP3 PUSH2 0x2475 JUMP JUMPDEST SWAP1 POP PUSH1 0x20 DUP2 ADD SWAP1 POP SWAP2 SWAP1 POP JUMP JUMPDEST DUP3 DUP2 DUP4 CALLDATACOPY PUSH0 DUP4 DUP4 ADD MSTORE POP POP POP JUMP JUMPDEST PUSH0 PUSH2 0x254D PUSH2 0x2548 DUP5 PUSH2 0x24FD JUMP JUMPDEST PUSH2 0x24E3 JUMP JUMPDEST SWAP1 POP DUP3 DUP2 MSTORE PUSH1 0x20 DUP2 ADD DUP5 DUP5 DUP5 ADD GT ISZERO PUSH2 0x2569 JUMPI PUSH2 0x2568 PUSH2 0x2471 JUMP JUMPDEST JUMPDEST PUSH2 0x2574 DUP5 DUP3 DUP6 PUSH2 0x252D JUMP JUMPDEST POP SWAP4 SWAP3 POP POP POP JUMP JUMPDEST PUSH0 DUP3 PUSH1 0x1F DUP4 ADD SLT PUSH2 0x2590 JUMPI PUSH2 0x258F PUSH2 0x246D JUMP JUMPDEST JUMPDEST DUP2 CALLDATALOAD PUSH2 0x25A0 DUP5 DUP3 PUSH1 0x20 DUP7 ADD PUSH2 0x253B JUMP JUMPDEST SWAP2 POP POP SWAP3 SWAP2 POP POP JUMP JUMPDEST PUSH0 PUSH1 0x20 DUP3 DUP5 SUB SLT ISZERO PUSH2 0x25BE JUMPI PUSH2 0x25BD PUSH2 0x2294 JUMP JUMPDEST JUMPDEST PUSH0 DUP3 ADD CALLDATALOAD PUSH8 0xFFFFFFFFFFFFFFFF DUP2 GT ISZERO PUSH2 0x25DB JUMPI PUSH2 0x25DA PUSH2 0x2298 JUMP JUMPDEST JUMPDEST PUSH2 0x25E7 DUP5 DUP3 DUP6 ADD PUSH2 0x257C JUMP JUMPDEST SWAP2 POP POP SWAP3 SWAP2 POP POP JUMP JUMPDEST PUSH2 0x25F9 DUP2 PUSH2 0x23F4 JUMP JUMPDEST DUP3 MSTORE POP POP JUMP JUMPDEST PUSH0 DUP2 MLOAD SWAP1 POP SWAP2 SWAP1 POP JUMP JUMPDEST PUSH0 DUP3 DUP3 MSTORE PUSH1 0x20 DUP3 ADD SWAP1 POP SWAP3 SWAP2 POP POP JUMP JUMPDEST PUSH0 JUMPDEST DUP4 DUP2 LT ISZERO PUSH2 0x2636 JUMPI DUP1 DUP3 ADD MLOAD DUP2 DUP5 ADD MSTORE PUSH1 0x20 DUP2 ADD SWAP1 POP PUSH2 0x261B JUMP JUMPDEST PUSH0 DUP5 DUP5 ADD MSTORE POP POP POP POP JUMP JUMPDEST PUSH0 PUSH2 0x264B DUP3 PUSH2 0x25FF JUMP JUMPDEST PUSH2 0x2655 DUP2 DUP6 PUSH2 0x2609 JUMP JUMPDEST SWAP4 POP PUSH2 0x2665 DUP2 DUP6 PUSH1 0x20 DUP7 ADD PUSH2 0x2619 JUMP JUMPDEST PUSH2 0x266E DUP2 PUSH2 0x2475 JUMP JUMPDEST DUP5 ADD SWAP2 POP POP SWAP3 SWAP2 POP POP JUMP JUMPDEST PUSH0 DUP2 SWAP1 POP SWAP2 SWAP1 POP JUMP JUMPDEST PUSH2 0x268B DUP2 PUSH2 0x2679 JUMP JUMPDEST DUP3 MSTORE POP POP JUMP JUMPDEST PUSH0 PUSH2 0x100 DUP3 ADD SWAP1 POP PUSH2 0x26A5 PUSH0 DUP4 ADD DUP12 PUSH2 0x25F0 JUMP JUMPDEST PUSH2 0x26B2 PUSH1 0x20 DUP4 ADD DUP11 PUSH2 0x25F0 JUMP JUMPDEST DUP2 DUP2 SUB PUSH1 0x40 DUP4 ADD MSTORE PUSH2 0x26C4 DUP2 DUP10 PUSH2 0x2641 JUMP JUMPDEST SWAP1 POP PUSH2 0x26D3 PUSH1 0x60 DUP4 ADD DUP9 PUSH2 0x2682 JUMP JUMPDEST PUSH2 0x26E0 PUSH1 0x80 DUP4 ADD DUP8 PUSH2 0x2682 JUMP JUMPDEST DUP2 DUP2 SUB PUSH1 0xA0 DUP4 ADD MSTORE PUSH2 0x26F2 DUP2 DUP7 PUSH2 0x2641 JUMP JUMPDEST SWAP1 POP PUSH2 0x2701 PUSH1 0xC0 DUP4 ADD DUP6 PUSH2 0x2327 JUMP JUMPDEST PUSH2 0x270E PUSH1 0xE0 DUP4 ADD DUP5 PUSH2 0x2327 JUMP JUMPDEST SWAP10 SWAP9 POP POP POP POP POP POP POP POP POP JUMP JUMPDEST PUSH0 PUSH8 0xFFFFFFFFFFFFFFFF DUP3 GT ISZERO PUSH2 0x2735 JUMPI PUSH2 0x2734 PUSH2 0x2485 JUMP JUMPDEST JUMPDEST PUSH2 0x273E DUP3 PUSH2 0x2475 JUMP JUMPDEST SWAP1 POP PUSH1 0x20 DUP2 ADD SWAP1 POP SWAP2 SWAP1 POP JUMP JUMPDEST PUSH0 PUSH2 0x275D PUSH2 0x2758 DUP5 PUSH2 0x271B JUMP JUMPDEST PUSH2 0x24E3 JUMP JUMPDEST SWAP1 POP DUP3 DUP2 MSTORE PUSH1 0x20 DUP2 ADD DUP5 DUP5 DUP5 ADD GT ISZERO PUSH2 0x2779 JUMPI PUSH2 0x2778 PUSH2 0x2471 JUMP JUMPDEST JUMPDEST PUSH2 0x2784 DUP5 DUP3 DUP6 PUSH2 0x252D JUMP JUMPDEST POP SWAP4 SWAP3 POP POP POP JUMP JUMPDEST PUSH0 DUP3 PUSH1 0x1F DUP4 ADD SLT PUSH2 0x27A0 JUMPI PUSH2 0x279F PUSH2 0x246D JUMP JUMPDEST JUMPDEST DUP2 CALLDATALOAD PUSH2 0x27B0 DUP5 DUP3 PUSH1 0x20 DUP7 ADD PUSH2 0x274B JUMP JUMPDEST SWAP2 POP POP SWAP3 SWAP2 POP POP JUMP JUMPDEST PUSH0 DUP1 PUSH1 0x40 DUP4 DUP6 SUB SLT ISZERO PUSH2 0x27CF JUMPI PUSH2 0x27CE PUSH2 0x2294 JUMP JUMPDEST JUMPDEST PUSH0 PUSH2 0x27DC DUP6 DUP3 DUP7 ADD PUSH2 0x241B JUMP JUMPDEST SWAP3 POP POP PUSH1 0x20 DUP4 ADD CALLDATALOAD PUSH8 0xFFFFFFFFFFFFFFFF DUP2 GT ISZERO PUSH2 0x27FD JUMPI PUSH2 0x27FC PUSH2 0x2298 JUMP JUMPDEST JUMPDEST PUSH2 0x2809 DUP6 DUP3 DUP7 ADD PUSH2 0x278C JUMP JUMPDEST SWAP2 POP POP SWAP3 POP SWAP3 SWAP1 POP JUMP JUMPDEST PUSH0 DUP2 SWAP1 POP SWAP2 SWAP1 POP JUMP JUMPDEST PUSH2 0x2825 DUP2 PUSH2 0x2813 JUMP JUMPDEST DUP2 EQ PUSH2 0x282F JUMPI PUSH0 DUP1 REVERT JUMPDEST POP JUMP JUMPDEST PUSH0 DUP2 CALLDATALOAD SWAP1 POP PUSH2 0x2840 DUP2 PUSH2 0x281C JUMP JUMPDEST SWAP3 SWAP2 POP POP JUMP JUMPDEST PUSH0 PUSH1 0x20 DUP3 DUP5 SUB SLT ISZERO PUSH2 0x285B JUMPI PUSH2 0x285A PUSH2 0x2294 JUMP JUMPDEST JUMPDEST PUSH0 PUSH2 0x2868 DUP5 DUP3 DUP6 ADD PUSH2 0x2832 JUMP JUMPDEST SWAP2 POP POP SWAP3 SWAP2 POP POP JUMP JUMPDEST PUSH2 0x287A DUP2 PUSH2 0x2679 JUMP JUMPDEST DUP2 EQ PUSH2 0x2884 JUMPI PUSH0 DUP1 REVERT JUMPDEST POP JUMP JUMPDEST PUSH0 DUP2 CALLDATALOAD SWAP1 POP PUSH2 0x2895 DUP2 PUSH2 0x2871 JUMP JUMPDEST SWAP3 SWAP2 POP POP JUMP JUMPDEST PUSH0 DUP1 PUSH1 0x40 DUP4 DUP6 SUB SLT ISZERO PUSH2 0x28B1 JUMPI PUSH2 0x28B0 PUSH2 0x2294 JUMP JUMPDEST JUMPDEST PUSH0 PUSH2 0x28BE DUP6 DUP3 DUP7 ADD PUSH2 0x2887 JUMP JUMPDEST SWAP3 POP POP PUSH1 0x20 DUP4 ADD CALLDATALOAD PUSH8 0xFFFFFFFFFFFFFFFF DUP2 GT ISZERO PUSH2 0x28DF JUMPI PUSH2 0x28DE PUSH2 0x2298 JUMP JUMPDEST JUMPDEST PUSH2 0x28EB DUP6 DUP3 DUP7 ADD PUSH2 0x257C JUMP JUMPDEST SWAP2 POP POP SWAP3 POP SWAP3 SWAP1 POP JUMP JUMPDEST PUSH0 DUP1 PUSH1 0x40 DUP4 DUP6 SUB SLT ISZERO PUSH2 0x290B JUMPI PUSH2 0x290A PUSH2 0x2294 JUMP JUMPDEST JUMPDEST PUSH0 DUP4 ADD CALLDATALOAD PUSH8 0xFFFFFFFFFFFFFFFF DUP2 GT ISZERO PUSH2 0x2928 JUMPI PUSH2 0x2927 PUSH2 0x2298 JUMP JUMPDEST JUMPDEST PUSH2 0x2934 DUP6 DUP3 DUP7 ADD PUSH2 0x257C JUMP JUMPDEST SWAP3 POP POP PUSH1 0x20 PUSH2 0x2945 DUP6 DUP3 DUP7 ADD PUSH2 0x2887 JUMP JUMPDEST SWAP2 POP POP SWAP3 POP SWAP3 SWAP1 POP JUMP JUMPDEST PUSH0 DUP1 PUSH0 DUP1 PUSH0 PUSH1 0xA0 DUP7 DUP9 SUB SLT ISZERO PUSH2 0x2968 JUMPI PUSH2 0x2967 PUSH2 0x2294 JUMP JUMPDEST JUMPDEST PUSH0 PUSH2 0x2975 DUP9 DUP3 DUP10 ADD PUSH2 0x241B JUMP JUMPDEST SWAP6 POP POP PUSH1 0x20 DUP7 ADD CALLDATALOAD PUSH8 0xFFFFFFFFFFFFFFFF DUP2 GT ISZERO PUSH2 0x2996 JUMPI PUSH2 0x2995 PUSH2 0x2298 JUMP JUMPDEST JUMPDEST PUSH2 0x29A2 DUP9 DUP3 DUP10 ADD PUSH2 0x257C JUMP JUMPDEST SWAP5 POP POP PUSH1 0x40 PUSH2 0x29B3 DUP9 DUP3 DUP10 ADD PUSH2 0x2887 JUMP JUMPDEST SWAP4 POP POP PUSH1 0x60 PUSH2 0x29C4 DUP9 DUP3 DUP10 ADD PUSH2 0x2887 JUMP JUMPDEST SWAP3 POP POP PUSH1 0x80 DUP7 ADD CALLDATALOAD PUSH8 0xFFFFFFFFFFFFFFFF DUP2 GT ISZERO PUSH2 0x29E5 JUMPI PUSH2 0x29E4 PUSH2 0x2298 JUMP JUMPDEST JUMPDEST PUSH2 0x29F1 DUP9 DUP3 DUP10 ADD PUSH2 0x257C JUMP JUMPDEST SWAP2 POP POP SWAP3 SWAP6 POP SWAP3 SWAP6 SWAP1 SWAP4 POP JUMP JUMPDEST PUSH0 PUSH1 0x20 DUP3 ADD SWAP1 POP DUP2 DUP2 SUB PUSH0 DUP4 ADD MSTORE PUSH2 0x2A16 DUP2 DUP5 PUSH2 0x2641 JUMP JUMPDEST SWAP1 POP SWAP3 SWAP2 POP POP JUMP JUMPDEST PUSH2 0x2A27 DUP2 PUSH2 0x231C JUMP JUMPDEST DUP2 EQ PUSH2 0x2A31 JUMPI PUSH0 DUP1 REVERT JUMPDEST POP JUMP JUMPDEST PUSH0 DUP2 CALLDATALOAD SWAP1 POP PUSH2 0x2A42 DUP2 PUSH2 0x2A1E JUMP JUMPDEST SWAP3 SWAP2 POP POP JUMP JUMPDEST PUSH0 DUP1 PUSH1 0x40 DUP4 DUP6 SUB SLT ISZERO PUSH2 0x2A5E JUMPI PUSH2 0x2A5D PUSH2 0x2294 JUMP JUMPDEST JUMPDEST PUSH0 PUSH2 0x2A6B DUP6 DUP3 DUP7 ADD PUSH2 0x2832 JUMP JUMPDEST SWAP3 POP POP PUSH1 0x20 PUSH2 0x2A7C DUP6 DUP3 DUP7 ADD PUSH2 0x2A34 JUMP JUMPDEST SWAP2 POP POP SWAP3 POP SWAP3 SWAP1 POP JUMP JUMPDEST PUSH32 0x4E487B7100000000000000000000000000000000000000000000000000000000 PUSH0 MSTORE PUSH1 0x22 PUSH1 0x4 MSTORE PUSH1 0x24 PUSH0 REVERT JUMPDEST PUSH0 PUSH1 0x2 DUP3 DIV SWAP1 POP PUSH1 0x1 DUP3 AND DUP1 PUSH2 0x2ACA JUMPI PUSH1 0x7F DUP3 AND SWAP2 POP JUMPDEST PUSH1 0x20 DUP3 LT DUP2 SUB PUSH2 0x2ADD JUMPI PUSH2 0x2ADC PUSH2 0x2A86 JUMP JUMPDEST JUMPDEST POP SWAP2 SWAP1 POP JUMP JUMPDEST PUSH2 0x2AEC DUP2 PUSH2 0x2813 JUMP JUMPDEST DUP3 MSTORE POP POP JUMP JUMPDEST PUSH0 PUSH1 0x20 DUP3 ADD SWAP1 POP PUSH2 0x2B05 PUSH0 DUP4 ADD DUP5 PUSH2 0x2AE3 JUMP JUMPDEST SWAP3 SWAP2 POP POP JUMP JUMPDEST PUSH32 0x4E6F2074726164657320617661696C61626C6500000000000000000000000000 PUSH0 DUP3 ADD MSTORE POP JUMP JUMPDEST PUSH0 PUSH2 0x2B3F PUSH1 0x13 DUP4 PUSH2 0x2609 JUMP JUMPDEST SWAP2 POP PUSH2 0x2B4A DUP3 PUSH2 0x2B0B JUMP JUMPDEST PUSH1 0x20 DUP3 ADD SWAP1 POP SWAP2 SWAP1 POP JUMP JUMPDEST PUSH0 PUSH1 0x20 DUP3 ADD SWAP1 POP DUP2 DUP2 SUB PUSH0 DUP4 ADD MSTORE PUSH2 0x2B6C DUP2 PUSH2 0x2B33 JUMP JUMPDEST SWAP1 POP SWAP2 SWAP1 POP JUMP JUMPDEST PUSH32 0x4E487B7100000000000000000000000000000000000000000000000000000000 PUSH0 MSTORE PUSH1 0x11 PUSH1 0x4 MSTORE PUSH1 0x24 PUSH0 REVERT JUMPDEST PUSH0 PUSH2 0x2BAA DUP3 PUSH2 0x2813 JUMP JUMPDEST SWAP2 POP PUSH2 0x2BB5 DUP4 PUSH2 0x2813 JUMP JUMPDEST SWAP3 POP DUP3 DUP3 SUB SWAP1 POP DUP2 DUP2 GT ISZERO PUSH2 0x2BCD JUMPI PUSH2 0x2BCC PUSH2 0x2B73 JUMP JUMPDEST JUMPDEST SWAP3 SWAP2 POP POP JUMP JUMPDEST PUSH32 0x4E487B7100000000000000000000000000000000000000000000000000000000 PUSH0 MSTORE PUSH1 0x32 PUSH1 0x4 MSTORE PUSH1 0x24 PUSH0 REVERT JUMPDEST PUSH0 DUP2 SWAP1 POP SWAP3 SWAP2 POP POP JUMP JUMPDEST PUSH0 PUSH2 0x2C14 DUP3 PUSH2 0x25FF JUMP JUMPDEST PUSH2 0x2C1E DUP2 DUP6 PUSH2 0x2C00 JUMP JUMPDEST SWAP4 POP PUSH2 0x2C2E DUP2 DUP6 PUSH1 0x20 DUP7 ADD PUSH2 0x2619 JUMP JUMPDEST DUP1 DUP5 ADD SWAP2 POP POP SWAP3 SWAP2 POP POP JUMP JUMPDEST PUSH0 PUSH2 0x2C45 DUP3 DUP5 PUSH2 0x2C0A JUMP JUMPDEST SWAP2 POP DUP2 SWAP1 POP SWAP3 SWAP2 POP POP JUMP JUMPDEST PUSH32 0x5472616465206E6F7420636F6E6669726D656400000000000000000000000000 PUSH0 DUP3 ADD MSTORE POP JUMP JUMPDEST PUSH0 PUSH2 0x2C84 PUSH1 0x13 DUP4 PUSH2 0x2609 JUMP JUMPDEST SWAP2 POP PUSH2 0x2C8F DUP3 PUSH2 0x2C50 JUMP JUMPDEST PUSH1 0x20 DUP3 ADD SWAP1 POP SWAP2 SWAP1 POP JUMP JUMPDEST PUSH0 PUSH1 0x20 DUP3 ADD SWAP1 POP DUP2 DUP2 SUB PUSH0 DUP4 ADD MSTORE PUSH2 0x2CB1 DUP2 PUSH2 0x2C78 JUMP JUMPDEST SWAP1 POP SWAP2 SWAP1 POP JUMP JUMPDEST PUSH32 0x4E6F742074686520696E69746961746F72000000000000000000000000000000 PUSH0 DUP3 ADD MSTORE POP JUMP JUMPDEST PUSH0 PUSH2 0x2CEC PUSH1 0x11 DUP4 PUSH2 0x2609 JUMP JUMPDEST SWAP2 POP PUSH2 0x2CF7 DUP3 PUSH2 0x2CB8 JUMP JUMPDEST PUSH1 0x20 DUP3 ADD SWAP1 POP SWAP2 SWAP1 POP JUMP JUMPDEST PUSH0 PUSH1 0x20 DUP3 ADD SWAP1 POP DUP2 DUP2 SUB PUSH0 DUP4 ADD MSTORE PUSH2 0x2D19 DUP2 PUSH2 0x2CE0 JUMP JUMPDEST SWAP1 POP SWAP2 SWAP1 POP JUMP JUMPDEST PUSH32 0x4E6F742074686520636F756E7465727061727479000000000000000000000000 PUSH0 DUP3 ADD MSTORE POP JUMP JUMPDEST PUSH0 PUSH2 0x2D54 PUSH1 0x14 DUP4 PUSH2 0x2609 JUMP JUMPDEST SWAP2 POP PUSH2 0x2D5F DUP3 PUSH2 0x2D20 JUMP JUMPDEST PUSH1 0x20 DUP3 ADD SWAP1 POP SWAP2 SWAP1 POP JUMP JUMPDEST PUSH0 PUSH1 0x20 DUP3 ADD SWAP1 POP DUP2 DUP2 SUB PUSH0 DUP4 ADD MSTORE PUSH2 0x2D81 DUP2 PUSH2 0x2D48 JUMP JUMPDEST SWAP1 POP SWAP2 SWAP1 POP JUMP JUMPDEST PUSH0 DUP2 SWAP1 POP SWAP2 SWAP1 POP JUMP JUMPDEST PUSH0 PUSH8 0xFFFFFFFFFFFFFFFF DUP3 AND SWAP1 POP SWAP2 SWAP1 POP JUMP JUMPDEST PUSH0 DUP2 SWAP1 POP SWAP2 SWAP1 POP JUMP JUMPDEST PUSH0 PUSH2 0x2DC7 PUSH2 0x2DC2 PUSH2 0x2DBD DUP5 PUSH2 0x2D88 JUMP JUMPDEST PUSH2 0x2DA4 JUMP JUMPDEST PUSH2 0x2D91 JUMP JUMPDEST SWAP1 POP SWAP2 SWAP1 POP JUMP JUMPDEST PUSH2 0x2DD7 DUP2 PUSH2 0x2DAD JUMP JUMPDEST DUP3 MSTORE POP POP JUMP JUMPDEST PUSH0 PUSH1 0x20 DUP3 ADD SWAP1 POP PUSH2 0x2DF0 PUSH0 DUP4 ADD DUP5 PUSH2 0x2DCE JUMP JUMPDEST SWAP3 SWAP2 POP POP JUMP JUMPDEST PUSH0 DUP2 SWAP1 POP SWAP2 SWAP1 POP JUMP JUMPDEST PUSH2 0x2E10 PUSH2 0x2E0B DUP3 PUSH2 0x2679 JUMP JUMPDEST PUSH2 0x2DF6 JUMP JUMPDEST DUP3 MSTORE POP POP JUMP JUMPDEST PUSH0 DUP2 SWAP1 POP SWAP2 SWAP1 POP JUMP JUMPDEST PUSH2 0x2E30 PUSH2 0x2E2B DUP3 PUSH2 0x2813 JUMP JUMPDEST PUSH2 0x2E16 JUMP JUMPDEST DUP3 MSTORE POP POP JUMP JUMPDEST PUSH0 PUSH2 0x2E41 DUP3 DUP7 PUSH2 0x2C0A JUMP JUMPDEST SWAP2 POP PUSH2 0x2E4D DUP3 DUP6 PUSH2 0x2DFF JUMP JUMPDEST PUSH1 0x20 DUP3 ADD SWAP2 POP PUSH2 0x2E5D DUP3 DUP5 PUSH2 0x2E1F JUMP JUMPDEST PUSH1 0x20 DUP3 ADD SWAP2 POP DUP2 SWAP1 POP SWAP5 SWAP4 POP POP POP POP JUMP JUMPDEST PUSH0 PUSH1 0x40 DUP3 ADD SWAP1 POP PUSH2 0x2E81 PUSH0 DUP4 ADD DUP6 PUSH2 0x25F0 JUMP JUMPDEST DUP2 DUP2 SUB PUSH1 0x20 DUP4 ADD MSTORE PUSH2 0x2E93 DUP2 DUP5 PUSH2 0x2641 JUMP JUMPDEST SWAP1 POP SWAP4 SWAP3 POP POP POP JUMP JUMPDEST PUSH0 DUP2 SWAP1 POP DUP2 PUSH0 MSTORE PUSH1 0x20 PUSH0 KECCAK256 SWAP1 POP SWAP2 SWAP1 POP JUMP JUMPDEST PUSH0 DUP2 SLOAD PUSH2 0x2EBA DUP2 PUSH2 0x2AB3 JUMP JUMPDEST PUSH2 0x2EC4 DUP2 DUP7 PUSH2 0x2609 JUMP JUMPDEST SWAP5 POP PUSH1 0x1 DUP3 AND PUSH0 DUP2 EQ PUSH2 0x2EDE JUMPI PUSH1 0x1 DUP2 EQ PUSH2 0x2EF4 JUMPI PUSH2 0x2F26 JUMP JUMPDEST PUSH1 0xFF NOT DUP4 AND DUP7 MSTORE DUP2 ISZERO ISZERO PUSH1 0x20 MUL DUP7 ADD SWAP4 POP PUSH2 0x2F26 JUMP JUMPDEST PUSH2 0x2EFD DUP6 PUSH2 0x2E9C JUMP JUMPDEST PUSH0 JUMPDEST DUP4 DUP2 LT ISZERO PUSH2 0x2F1E JUMPI DUP2 SLOAD DUP2 DUP10 ADD MSTORE PUSH1 0x1 DUP3 ADD SWAP2 POP PUSH1 0x20 DUP2 ADD SWAP1 POP PUSH2 0x2EFF JUMP JUMPDEST DUP1 DUP9 ADD SWAP6 POP POP POP JUMPDEST POP POP POP SWAP3 SWAP2 POP POP JUMP JUMPDEST PUSH0 PUSH1 0x40 DUP3 ADD SWAP1 POP DUP2 DUP2 SUB PUSH0 DUP4 ADD MSTORE PUSH2 0x2F47 DUP2 DUP6 PUSH2 0x2EAE JUMP JUMPDEST SWAP1 POP DUP2 DUP2 SUB PUSH1 0x20 DUP4 ADD MSTORE PUSH2 0x2F5B DUP2 DUP5 PUSH2 0x2EAE JUMP JUMPDEST SWAP1 POP SWAP4 SWAP3 POP POP POP JUMP JUMPDEST PUSH0 PUSH1 0x20 PUSH1 0x1F DUP4 ADD DIV SWAP1 POP SWAP2 SWAP1 POP JUMP JUMPDEST PUSH0 DUP3 DUP3 SHL SWAP1 POP SWAP3 SWAP2 POP POP JUMP JUMPDEST PUSH0 PUSH1 0x8 DUP4 MUL PUSH2 0x2FAE PUSH32 0xFFFFFFFFFFFFFFFFFFFFFFFFFFFFFFFFFFFFFFFFFFFFFFFFFFFFFFFFFFFFFFFF DUP3 PUSH2 0x2F73 JUMP JUMPDEST PUSH2 0x2FB8 DUP7 DUP4 PUSH2 0x2F73 JUMP JUMPDEST SWAP6 POP DUP1 NOT DUP5 AND SWAP4 POP DUP1 DUP7 AND DUP5 OR SWAP3 POP POP POP SWAP4 SWAP3 POP POP POP JUMP JUMPDEST PUSH0 PUSH2 0x2FEA PUSH2 0x2FE5 PUSH2 0x2FE0 DUP5 PUSH2 0x2813 JUMP JUMPDEST PUSH2 0x2DA4 JUMP JUMPDEST PUSH2 0x2813 JUMP JUMPDEST SWAP1 POP SWAP2 SWAP1 POP JUMP JUMPDEST PUSH0 DUP2 SWAP1 POP SWAP2 SWAP1 POP JUMP JUMPDEST PUSH2 0x3003 DUP4 PUSH2 0x2FD0 JUMP JUMPDEST PUSH2 0x3017 PUSH2 0x300F DUP3 PUSH2 0x2FF1 JUMP JUMPDEST DUP5 DUP5 SLOAD PUSH2 0x2F7F JUMP JUMPDEST DUP3 SSTORE POP POP POP POP JUMP JUMPDEST PUSH0 SWAP1 JUMP JUMPDEST PUSH2 0x302B PUSH2 0x301F JUMP JUMPDEST PUSH2 0x3036 DUP2 DUP5 DUP5 PUSH2 0x2FFA JUMP JUMPDEST POP POP POP JUMP JUMPDEST JUMPDEST DUP2 DUP2 LT ISZERO PUSH2 0x3059 JUMPI PUSH2 0x304E PUSH0 DUP3 PUSH2 0x3023 JUMP JUMPDEST PUSH1 0x1 DUP2 ADD SWAP1 POP PUSH2 0x303C JUMP JUMPDEST POP POP JUMP JUMPDEST PUSH1 0x1F DUP3 GT ISZERO PUSH2 0x309E JUMPI PUSH2 0x306F DUP2 PUSH2 0x2E9C JUMP JUMPDEST PUSH2 0x3078 DUP5 PUSH2 0x2F64 JUMP JUMPDEST DUP2 ADD PUSH1 0x20 DUP6 LT ISZERO PUSH2 0x3087 JUMPI DUP2 SWAP1 POP JUMPDEST PUSH2 0x309B PUSH2 0x3093 DUP6 PUSH2 0x2F64 JUMP JUMPDEST DUP4 ADD DUP3 PUSH2 0x303B JUMP JUMPDEST POP POP JUMPDEST POP POP POP JUMP JUMPDEST PUSH0 DUP3 DUP3 SHR SWAP1 POP SWAP3 SWAP2 POP POP JUMP JUMPDEST PUSH0 PUSH2 0x30BE PUSH0 NOT DUP5 PUSH1 0x8 MUL PUSH2 0x30A3 JUMP JUMPDEST NOT DUP1 DUP4 AND SWAP2 POP POP SWAP3 SWAP2 POP POP JUMP JUMPDEST PUSH0 PUSH2 0x30D6 DUP4 DUP4 PUSH2 0x30AF JUMP JUMPDEST SWAP2 POP DUP3 PUSH1 0x2 MUL DUP3 OR SWAP1 POP SWAP3 SWAP2 POP POP JUMP JUMPDEST PUSH2 0x30EF DUP3 PUSH2 0x25FF JUMP JUMPDEST PUSH8 0xFFFFFFFFFFFFFFFF DUP2 GT ISZERO PUSH2 0x3108 JUMPI PUSH2 0x3107 PUSH2 0x2485 JUMP JUMPDEST JUMPDEST PUSH2 0x3112 DUP3 SLOAD PUSH2 0x2AB3 JUMP JUMPDEST PUSH2 0x311D DUP3 DUP3 DUP6 PUSH2 0x305D JUMP JUMPDEST PUSH0 PUSH1 0x20 SWAP1 POP PUSH1 0x1F DUP4 GT PUSH1 0x1 DUP2 EQ PUSH2 0x314E JUMPI PUSH0 DUP5 ISZERO PUSH2 0x313C JUMPI DUP3 DUP8 ADD MLOAD SWAP1 POP JUMPDEST PUSH2 0x3146 DUP6 DUP3 PUSH2 0x30CB JUMP JUMPDEST DUP7 SSTORE POP PUSH2 0x31AD JUMP JUMPDEST PUSH1 0x1F NOT DUP5 AND PUSH2 0x315C DUP7 PUSH2 0x2E9C JUMP JUMPDEST PUSH0 JUMPDEST DUP3 DUP2 LT ISZERO PUSH2 0x3183 JUMPI DUP5 DUP10 ADD MLOAD DUP3 SSTORE PUSH1 0x1 DUP3 ADD SWAP2 POP PUSH1 0x20 DUP6 ADD SWAP5 POP PUSH1 0x20 DUP2 ADD SWAP1 POP PUSH2 0x315E JUMP JUMPDEST DUP7 DUP4 LT ISZERO PUSH2 0x31A0 JUMPI DUP5 DUP10 ADD MLOAD PUSH2 0x319C PUSH1 0x1F DUP10 AND DUP3 PUSH2 0x30AF JUMP JUMPDEST DUP4 SSTORE POP JUMPDEST PUSH1 0x1 PUSH1 0x2 DUP9 MUL ADD DUP9 SSTORE POP POP POP JUMPDEST POP POP POP POP POP POP JUMP JUMPDEST PUSH0 PUSH1 0x60 DUP3 ADD SWAP1 POP PUSH2 0x31C8 PUSH0 DUP4 ADD DUP7 PUSH2 0x25F0 JUMP JUMPDEST DUP2 DUP2 SUB PUSH1 0x20 DUP4 ADD MSTORE PUSH2 0x31DA DUP2 DUP6 PUSH2 0x2641 JUMP JUMPDEST SWAP1 POP DUP2 DUP2 SUB PUSH1 0x40 DUP4 ADD MSTORE PUSH2 0x31EE DUP2 DUP5 PUSH2 0x2641 JUMP JUMPDEST SWAP1 POP SWAP5 SWAP4 POP POP POP POP JUMP JUMPDEST PUSH0 PUSH1 0x20 DUP3 ADD SWAP1 POP PUSH2 0x320B PUSH0 DUP4 ADD DUP5 PUSH2 0x25F0 JUMP JUMPDEST SWAP3 SWAP2 POP POP JUMP JUMPDEST PUSH0 DUP2 MLOAD SWAP1 POP PUSH2 0x321F DUP2 PUSH2 0x2358 JUMP JUMPDEST SWAP3 SWAP2 POP POP JUMP JUMPDEST PUSH0 PUSH1 0x20 DUP3 DUP5 SUB SLT ISZERO PUSH2 0x323A JUMPI PUSH2 0x3239 PUSH2 0x2294 JUMP JUMPDEST JUMPDEST PUSH0 PUSH2 0x3247 DUP5 DUP3 DUP6 ADD PUSH2 0x3211 JUMP JUMPDEST SWAP2 POP POP SWAP3 SWAP2 POP POP JUMP JUMPDEST PUSH0 PUSH1 0x40 DUP3 ADD SWAP1 POP PUSH2 0x3263 PUSH0 DUP4 ADD DUP6 PUSH2 0x25F0 JUMP JUMPDEST PUSH2 0x3270 PUSH1 0x20 DUP4 ADD DUP5 PUSH2 0x23AD JUMP JUMPDEST SWAP4 SWAP3 POP POP POP JUMP JUMPDEST PUSH0 DUP2 MLOAD SWAP1 POP SWAP2 SWAP1 POP JUMP JUMPDEST PUSH0 DUP2 SWAP1 POP SWAP3 SWAP2 POP POP JUMP JUMPDEST PUSH0 PUSH2 0x3295 DUP3 PUSH2 0x3277 JUMP JUMPDEST PUSH2 0x329F DUP2 DUP6 PUSH2 0x3281 JUMP JUMPDEST SWAP4 POP PUSH2 0x32AF DUP2 DUP6 PUSH1 0x20 DUP7 ADD PUSH2 0x2619 JUMP JUMPDEST DUP1 DUP5 ADD SWAP2 POP POP SWAP3 SWAP2 POP POP JUMP JUMPDEST PUSH0 PUSH2 0x32C6 DUP3 DUP5 PUSH2 0x328B JUMP JUMPDEST SWAP2 POP DUP2 SWAP1 POP SWAP3 SWAP2 POP POP JUMP INVALID LOG2 PUSH5 0x6970667358 0x22 SLT KECCAK256 MSIZE SWAP3 PUSH30 0x5DCCA2D2C82C6DBD86E0396A6CDAE4A59C3D9CB9260A7BCF8CD597876A64 PUSH20 0x6F6C634300081800330000000000000000000000 "
				},
				"gasEstimates": {
					"creation": {
						"codeDepositCost": "2612600",
						"executionCost": "infinite",
						"totalCost": "infinite"
					},
					"external": {
						"DEFAULT_ADMIN_ROLE()": "441",
						"PAUSER_ROLE()": "369",
						"UPGRADER_ROLE()": "413",
						"UPGRADE_INTERFACE_VERSION()": "infinite",
						"afterTransfer(uint256,bool)": "667",
						"confirmTrade(address,string,int256,int256,string)": "infinite",
						"confirmTradeTermination(string,int256)": "infinite",
						"getRoleAdmin(bytes32)": "infinite",
						"grantRole(bytes32,address)": "infinite",
						"hasRole(bytes32,address)": "3263",
						"inceptTrade(address,string,int256,int256,string)": "infinite",
						"initialize()": "infinite",
						"initiateSettlement()": "infinite",
						"pause()": "infinite",
						"paused()": "2615",
						"performSettlement(int256,string)": "infinite",
						"proxiableUUID()": "infinite",
						"renounceRole(bytes32,address)": "infinite",
						"requestTradeTermination(string,int256)": "infinite",
						"revokeRole(bytes32,address)": "infinite",
						"supportsInterface(bytes4)": "741",
						"testSendFunds(uint256)": "infinite",
						"tradeIds(uint256)": "infinite",
						"trades(string)": "infinite",
						"unpause()": "infinite",
						"upgradeToAndCall(address,bytes)": "infinite"
					},
					"internal": {
						"_authorizeUpgrade(address)": "infinite"
					}
				},
				"methodIdentifiers": {
					"DEFAULT_ADMIN_ROLE()": "a217fddf",
					"PAUSER_ROLE()": "e63ab1e9",
					"UPGRADER_ROLE()": "f72c0d8b",
					"UPGRADE_INTERFACE_VERSION()": "ad3cb1cc",
					"afterTransfer(uint256,bool)": "df2d0728",
					"confirmTrade(address,string,int256,int256,string)": "858f0e93",
					"confirmTradeTermination(string,int256)": "79648ed3",
					"getRoleAdmin(bytes32)": "248a9ca3",
					"grantRole(bytes32,address)": "2f2ff15d",
					"hasRole(bytes32,address)": "91d14854",
					"inceptTrade(address,string,int256,int256,string)": "ec11c4e9",
					"initialize()": "8129fc1c",
					"initiateSettlement()": "c78b432e",
					"pause()": "8456cb59",
					"paused()": "5c975abb",
					"performSettlement(int256,string)": "6ba63956",
					"proxiableUUID()": "52d1902d",
					"renounceRole(bytes32,address)": "36568abe",
					"requestTradeTermination(string,int256)": "729d581c",
					"revokeRole(bytes32,address)": "d547741f",
					"supportsInterface(bytes4)": "01ffc9a7",
					"testSendFunds(uint256)": "6861c20c",
					"tradeIds(uint256)": "ff52c484",
					"trades(string)": "47a04100",
					"unpause()": "3f4ba83a",
					"upgradeToAndCall(address,bytes)": "4f1ef286"
				}
			},
			"storageLayout": {
				"storage": [
					{
						"astId": 1880,
						"contract": "contracts/Bond3.sol:Bond3",
						"label": "trades",
						"offset": 0,
						"slot": "0",
						"type": "t_mapping(t_string_memory_ptr,t_struct(Trade)1875_storage)"
					},
					{
						"astId": 1883,
						"contract": "contracts/Bond3.sol:Bond3",
						"label": "tradeIds",
						"offset": 0,
						"slot": "1",
						"type": "t_array(t_string_storage)dyn_storage"
					}
				],
				"types": {
					"t_address": {
						"encoding": "inplace",
						"label": "address",
						"numberOfBytes": "20"
					},
					"t_array(t_string_storage)dyn_storage": {
						"base": "t_string_storage",
						"encoding": "dynamic_array",
						"label": "string[]",
						"numberOfBytes": "32"
					},
					"t_bool": {
						"encoding": "inplace",
						"label": "bool",
						"numberOfBytes": "1"
					},
					"t_int256": {
						"encoding": "inplace",
						"label": "int256",
						"numberOfBytes": "32"
					},
					"t_mapping(t_string_memory_ptr,t_struct(Trade)1875_storage)": {
						"encoding": "mapping",
						"key": "t_string_memory_ptr",
						"label": "mapping(string => struct Bond3.Trade)",
						"numberOfBytes": "32",
						"value": "t_struct(Trade)1875_storage"
					},
					"t_string_memory_ptr": {
						"encoding": "bytes",
						"label": "string",
						"numberOfBytes": "32"
					},
					"t_string_storage": {
						"encoding": "bytes",
						"label": "string",
						"numberOfBytes": "32"
					},
					"t_struct(Trade)1875_storage": {
						"encoding": "inplace",
						"label": "struct Bond3.Trade",
						"members": [
							{
								"astId": 1860,
								"contract": "contracts/Bond3.sol:Bond3",
								"label": "initiator",
								"offset": 0,
								"slot": "0",
								"type": "t_address"
							},
							{
								"astId": 1862,
								"contract": "contracts/Bond3.sol:Bond3",
								"label": "counterparty",
								"offset": 0,
								"slot": "1",
								"type": "t_address"
							},
							{
								"astId": 1864,
								"contract": "contracts/Bond3.sol:Bond3",
								"label": "tradeData",
								"offset": 0,
								"slot": "2",
								"type": "t_string_storage"
							},
							{
								"astId": 1866,
								"contract": "contracts/Bond3.sol:Bond3",
								"label": "position",
								"offset": 0,
								"slot": "3",
								"type": "t_int256"
							},
							{
								"astId": 1868,
								"contract": "contracts/Bond3.sol:Bond3",
								"label": "paymentAmount",
								"offset": 0,
								"slot": "4",
								"type": "t_int256"
							},
							{
								"astId": 1870,
								"contract": "contracts/Bond3.sol:Bond3",
								"label": "initialSettlementData",
								"offset": 0,
								"slot": "5",
								"type": "t_string_storage"
							},
							{
								"astId": 1872,
								"contract": "contracts/Bond3.sol:Bond3",
								"label": "confirmed",
								"offset": 0,
								"slot": "6",
								"type": "t_bool"
							},
							{
								"astId": 1874,
								"contract": "contracts/Bond3.sol:Bond3",
								"label": "settled",
								"offset": 1,
								"slot": "6",
								"type": "t_bool"
							}
						],
						"numberOfBytes": "224"
					}
				}
			},
			"userdoc": {
				"kind": "user",
				"methods": {},
				"version": 1
			}
		}
	}
}