{
	"contracts/Bond1.sol": {
		"Bond1": {
			"abi": [
				{
					"inputs": [],
					"stateMutability": "nonpayable",
					"type": "constructor"
				},
				{
					"inputs": [],
					"name": "AccessControlBadConfirmation",
					"type": "error"
				},
				{
					"inputs": [
						{
							"internalType": "address",
							"name": "account",
							"type": "address"
						},
						{
							"internalType": "bytes32",
							"name": "neededRole",
							"type": "bytes32"
						}
					],
					"name": "AccessControlUnauthorizedAccount",
					"type": "error"
				},
				{
					"inputs": [
						{
							"internalType": "address",
							"name": "target",
							"type": "address"
						}
					],
					"name": "AddressEmptyCode",
					"type": "error"
				},
				{
					"inputs": [
						{
							"internalType": "address",
							"name": "implementation",
							"type": "address"
						}
					],
					"name": "ERC1967InvalidImplementation",
					"type": "error"
				},
				{
					"inputs": [],
					"name": "ERC1967NonPayable",
					"type": "error"
				},
				{
					"inputs": [],
					"name": "EnforcedPause",
					"type": "error"
				},
				{
					"inputs": [],
					"name": "ExpectedPause",
					"type": "error"
				},
				{
					"inputs": [],
					"name": "FailedInnerCall",
					"type": "error"
				},
				{
					"inputs": [],
					"name": "InvalidInitialization",
					"type": "error"
				},
				{
					"inputs": [],
					"name": "NotInitializing",
					"type": "error"
				},
				{
					"inputs": [],
					"name": "UUPSUnauthorizedCallContext",
					"type": "error"
				},
				{
					"inputs": [
						{
							"internalType": "bytes32",
							"name": "slot",
							"type": "bytes32"
						}
					],
					"name": "UUPSUnsupportedProxiableUUID",
					"type": "error"
				},
				{
					"anonymous": false,
					"inputs": [
						{
							"indexed": false,
							"internalType": "uint64",
							"name": "version",
							"type": "uint64"
						}
					],
					"name": "Initialized",
					"type": "event"
				},
				{
					"anonymous": false,
					"inputs": [
						{
							"indexed": false,
							"internalType": "address",
							"name": "account",
							"type": "address"
						}
					],
					"name": "Paused",
					"type": "event"
				},
				{
					"anonymous": false,
					"inputs": [
						{
							"indexed": true,
							"internalType": "bytes32",
							"name": "role",
							"type": "bytes32"
						},
						{
							"indexed": true,
							"internalType": "bytes32",
							"name": "previousAdminRole",
							"type": "bytes32"
						},
						{
							"indexed": true,
							"internalType": "bytes32",
							"name": "newAdminRole",
							"type": "bytes32"
						}
					],
					"name": "RoleAdminChanged",
					"type": "event"
				},
				{
					"anonymous": false,
					"inputs": [
						{
							"indexed": true,
							"internalType": "bytes32",
							"name": "role",
							"type": "bytes32"
						},
						{
							"indexed": true,
							"internalType": "address",
							"name": "account",
							"type": "address"
						},
						{
							"indexed": true,
							"internalType": "address",
							"name": "sender",
							"type": "address"
						}
					],
					"name": "RoleGranted",
					"type": "event"
				},
				{
					"anonymous": false,
					"inputs": [
						{
							"indexed": true,
							"internalType": "bytes32",
							"name": "role",
							"type": "bytes32"
						},
						{
							"indexed": true,
							"internalType": "address",
							"name": "account",
							"type": "address"
						},
						{
							"indexed": true,
							"internalType": "address",
							"name": "sender",
							"type": "address"
						}
					],
					"name": "RoleRevoked",
					"type": "event"
				},
				{
					"anonymous": false,
					"inputs": [
						{
							"indexed": false,
							"internalType": "string",
							"name": "tradeId",
							"type": "string"
						}
					],
					"name": "TradeActivated",
					"type": "event"
				},
				{
					"anonymous": false,
					"inputs": [
						{
							"indexed": false,
							"internalType": "address",
							"name": "confirmer",
							"type": "address"
						},
						{
							"indexed": false,
							"internalType": "string",
							"name": "tradeId",
							"type": "string"
						}
					],
					"name": "TradeConfirmed",
					"type": "event"
				},
				{
					"anonymous": false,
					"inputs": [
						{
							"indexed": false,
							"internalType": "address",
							"name": "initiator",
							"type": "address"
						},
						{
							"indexed": false,
							"internalType": "string",
							"name": "tradeId",
							"type": "string"
						},
						{
							"indexed": false,
							"internalType": "string",
							"name": "tradeData",
							"type": "string"
						}
					],
					"name": "TradeIncepted",
					"type": "event"
				},
				{
					"anonymous": false,
					"inputs": [],
					"name": "TradeSettlementPhase",
					"type": "event"
				},
				{
					"anonymous": false,
					"inputs": [
						{
							"indexed": false,
							"internalType": "string",
							"name": "tradeData",
							"type": "string"
						},
						{
							"indexed": false,
							"internalType": "string",
							"name": "lastSettlementData",
							"type": "string"
						}
					],
					"name": "TradeSettlementRequest",
					"type": "event"
				},
				{
					"anonymous": false,
					"inputs": [
						{
							"indexed": false,
							"internalType": "address",
							"name": "account",
							"type": "address"
						}
					],
					"name": "Unpaused",
					"type": "event"
				},
				{
					"anonymous": false,
					"inputs": [
						{
							"indexed": true,
							"internalType": "address",
							"name": "implementation",
							"type": "address"
						}
					],
					"name": "Upgraded",
					"type": "event"
				},
				{
					"inputs": [],
					"name": "DEFAULT_ADMIN_ROLE",
					"outputs": [
						{
							"internalType": "bytes32",
							"name": "",
							"type": "bytes32"
						}
					],
					"stateMutability": "view",
					"type": "function"
				},
				{
					"inputs": [],
					"name": "PAUSER_ROLE",
					"outputs": [
						{
							"internalType": "bytes32",
							"name": "",
							"type": "bytes32"
						}
					],
					"stateMutability": "view",
					"type": "function"
				},
				{
					"inputs": [],
					"name": "UPGRADER_ROLE",
					"outputs": [
						{
							"internalType": "bytes32",
							"name": "",
							"type": "bytes32"
						}
					],
					"stateMutability": "view",
					"type": "function"
				},
				{
					"inputs": [],
					"name": "UPGRADE_INTERFACE_VERSION",
					"outputs": [
						{
							"internalType": "string",
							"name": "",
							"type": "string"
						}
					],
					"stateMutability": "view",
					"type": "function"
				},
				{
					"inputs": [
						{
							"internalType": "uint256",
							"name": "transactionHash",
							"type": "uint256"
						},
						{
							"internalType": "bool",
							"name": "success",
							"type": "bool"
						}
					],
					"name": "afterTransfer",
					"outputs": [],
					"stateMutability": "nonpayable",
					"type": "function"
				},
				{
					"inputs": [
						{
							"internalType": "address",
							"name": "_withParty",
							"type": "address"
						},
						{
							"internalType": "string",
							"name": "_tradeData",
							"type": "string"
						},
						{
							"internalType": "int256",
							"name": "_position",
							"type": "int256"
						},
						{
							"internalType": "int256",
							"name": "_paymentAmount",
							"type": "int256"
						},
						{
							"internalType": "string",
							"name": "_initialSettlementData",
							"type": "string"
						}
					],
					"name": "confirmTrade",
					"outputs": [],
					"stateMutability": "nonpayable",
					"type": "function"
				},
				{
					"inputs": [
						{
							"internalType": "string",
							"name": "tradeId",
							"type": "string"
						},
						{
							"internalType": "int256",
							"name": "_terminationPayment",
							"type": "int256"
						}
					],
					"name": "confirmTradeTermination",
					"outputs": [],
					"stateMutability": "nonpayable",
					"type": "function"
				},
				{
					"inputs": [
						{
							"internalType": "bytes32",
							"name": "role",
							"type": "bytes32"
						}
					],
					"name": "getRoleAdmin",
					"outputs": [
						{
							"internalType": "bytes32",
							"name": "",
							"type": "bytes32"
						}
					],
					"stateMutability": "view",
					"type": "function"
				},
				{
					"inputs": [
						{
							"internalType": "bytes32",
							"name": "role",
							"type": "bytes32"
						},
						{
							"internalType": "address",
							"name": "account",
							"type": "address"
						}
					],
					"name": "grantRole",
					"outputs": [],
					"stateMutability": "nonpayable",
					"type": "function"
				},
				{
					"inputs": [
						{
							"internalType": "bytes32",
							"name": "role",
							"type": "bytes32"
						},
						{
							"internalType": "address",
							"name": "account",
							"type": "address"
						}
					],
					"name": "hasRole",
					"outputs": [
						{
							"internalType": "bool",
							"name": "",
							"type": "bool"
						}
					],
					"stateMutability": "view",
					"type": "function"
				},
				{
					"inputs": [
						{
							"internalType": "address",
							"name": "_withParty",
							"type": "address"
						},
						{
							"internalType": "string",
							"name": "_tradeData",
							"type": "string"
						},
						{
							"internalType": "int256",
							"name": "_position",
							"type": "int256"
						},
						{
							"internalType": "int256",
							"name": "_paymentAmount",
							"type": "int256"
						},
						{
							"internalType": "string",
							"name": "_initialSettlementData",
							"type": "string"
						}
					],
					"name": "inceptTrade",
					"outputs": [],
					"stateMutability": "nonpayable",
					"type": "function"
				},
				{
					"inputs": [
						{
							"internalType": "address",
							"name": "defaultAdmin",
							"type": "address"
						},
						{
							"internalType": "address",
							"name": "pauser",
							"type": "address"
						},
						{
							"internalType": "address",
							"name": "upgrader",
							"type": "address"
						}
					],
					"name": "initialize",
					"outputs": [],
					"stateMutability": "nonpayable",
					"type": "function"
				},
				{
					"inputs": [],
					"name": "initiateSettlement",
					"outputs": [],
					"stateMutability": "nonpayable",
					"type": "function"
				},
				{
					"inputs": [],
					"name": "pause",
					"outputs": [],
					"stateMutability": "nonpayable",
					"type": "function"
				},
				{
					"inputs": [],
					"name": "paused",
					"outputs": [
						{
							"internalType": "bool",
							"name": "",
							"type": "bool"
						}
					],
					"stateMutability": "view",
					"type": "function"
				},
				{
					"inputs": [
						{
							"internalType": "int256",
							"name": "settlementAmount",
							"type": "int256"
						},
						{
							"internalType": "string",
							"name": "settlementData",
							"type": "string"
						}
					],
					"name": "performSettlement",
					"outputs": [],
					"stateMutability": "nonpayable",
					"type": "function"
				},
				{
					"inputs": [],
					"name": "proxiableUUID",
					"outputs": [
						{
							"internalType": "bytes32",
							"name": "",
							"type": "bytes32"
						}
					],
					"stateMutability": "view",
					"type": "function"
				},
				{
					"inputs": [
						{
							"internalType": "bytes32",
							"name": "role",
							"type": "bytes32"
						},
						{
							"internalType": "address",
							"name": "callerConfirmation",
							"type": "address"
						}
					],
					"name": "renounceRole",
					"outputs": [],
					"stateMutability": "nonpayable",
					"type": "function"
				},
				{
					"inputs": [
						{
							"internalType": "string",
							"name": "tradeId",
							"type": "string"
						},
						{
							"internalType": "int256",
							"name": "_terminationPayment",
							"type": "int256"
						}
					],
					"name": "requestTradeTermination",
					"outputs": [],
					"stateMutability": "nonpayable",
					"type": "function"
				},
				{
					"inputs": [
						{
							"internalType": "bytes32",
							"name": "role",
							"type": "bytes32"
						},
						{
							"internalType": "address",
							"name": "account",
							"type": "address"
						}
					],
					"name": "revokeRole",
					"outputs": [],
					"stateMutability": "nonpayable",
					"type": "function"
				},
				{
					"inputs": [
						{
							"internalType": "bytes4",
							"name": "interfaceId",
							"type": "bytes4"
						}
					],
					"name": "supportsInterface",
					"outputs": [
						{
							"internalType": "bool",
							"name": "",
							"type": "bool"
						}
					],
					"stateMutability": "view",
					"type": "function"
				},
				{
					"inputs": [
						{
							"internalType": "uint256",
							"name": "",
							"type": "uint256"
						}
					],
					"name": "tradeIds",
					"outputs": [
						{
							"internalType": "string",
							"name": "",
							"type": "string"
						}
					],
					"stateMutability": "view",
					"type": "function"
				},
				{
					"inputs": [
						{
							"internalType": "string",
							"name": "",
							"type": "string"
						}
					],
					"name": "trades",
					"outputs": [
						{
							"internalType": "address",
							"name": "initiator",
							"type": "address"
						},
						{
							"internalType": "address",
							"name": "counterparty",
							"type": "address"
						},
						{
							"internalType": "string",
							"name": "tradeData",
							"type": "string"
						},
						{
							"internalType": "int256",
							"name": "position",
							"type": "int256"
						},
						{
							"internalType": "int256",
							"name": "paymentAmount",
							"type": "int256"
						},
						{
							"internalType": "string",
							"name": "initialSettlementData",
							"type": "string"
						},
						{
							"internalType": "bool",
							"name": "confirmed",
							"type": "bool"
						},
						{
							"internalType": "bool",
							"name": "settled",
							"type": "bool"
						}
					],
					"stateMutability": "view",
					"type": "function"
				},
				{
					"inputs": [],
					"name": "unpause",
					"outputs": [],
					"stateMutability": "nonpayable",
					"type": "function"
				},
				{
					"inputs": [
						{
							"internalType": "address",
							"name": "newImplementation",
							"type": "address"
						},
						{
							"internalType": "bytes",
							"name": "data",
							"type": "bytes"
						}
					],
					"name": "upgradeToAndCall",
					"outputs": [],
					"stateMutability": "payable",
					"type": "function"
				}
			],
			"devdoc": {
				"errors": {
					"AccessControlBadConfirmation()": [
						{
							"details": "The caller of a function is not the expected one. NOTE: Don't confuse with {AccessControlUnauthorizedAccount}."
						}
					],
					"AccessControlUnauthorizedAccount(address,bytes32)": [
						{
							"details": "The `account` is missing a role."
						}
					],
					"AddressEmptyCode(address)": [
						{
							"details": "There's no code at `target` (it is not a contract)."
						}
					],
					"ERC1967InvalidImplementation(address)": [
						{
							"details": "The `implementation` of the proxy is invalid."
						}
					],
					"ERC1967NonPayable()": [
						{
							"details": "An upgrade function sees `msg.value > 0` that may be lost."
						}
					],
					"EnforcedPause()": [
						{
							"details": "The operation failed because the contract is paused."
						}
					],
					"ExpectedPause()": [
						{
							"details": "The operation failed because the contract is not paused."
						}
					],
					"FailedInnerCall()": [
						{
							"details": "A call to an address target failed. The target may have reverted."
						}
					],
					"InvalidInitialization()": [
						{
							"details": "The contract is already initialized."
						}
					],
					"NotInitializing()": [
						{
							"details": "The contract is not initializing."
						}
					],
					"UUPSUnauthorizedCallContext()": [
						{
							"details": "The call is from an unauthorized context."
						}
					],
					"UUPSUnsupportedProxiableUUID(bytes32)": [
						{
							"details": "The storage `slot` is unsupported as a UUID."
						}
					]
				},
				"events": {
					"Initialized(uint64)": {
						"details": "Triggered when the contract has been initialized or reinitialized."
					},
					"Paused(address)": {
						"details": "Emitted when the pause is triggered by `account`."
					},
					"RoleAdminChanged(bytes32,bytes32,bytes32)": {
						"details": "Emitted when `newAdminRole` is set as ``role``'s admin role, replacing `previousAdminRole` `DEFAULT_ADMIN_ROLE` is the starting admin for all roles, despite {RoleAdminChanged} not being emitted signaling this."
					},
					"RoleGranted(bytes32,address,address)": {
						"details": "Emitted when `account` is granted `role`. `sender` is the account that originated the contract call, an admin role bearer except when using {AccessControl-_setupRole}."
					},
					"RoleRevoked(bytes32,address,address)": {
						"details": "Emitted when `account` is revoked `role`. `sender` is the account that originated the contract call:   - if using `revokeRole`, it is the admin role bearer   - if using `renounceRole`, it is the role bearer (i.e. `account`)"
					},
					"Unpaused(address)": {
						"details": "Emitted when the pause is lifted by `account`."
					},
					"Upgraded(address)": {
						"details": "Emitted when the implementation is upgraded."
					}
				},
				"kind": "dev",
				"methods": {
					"constructor": {
						"custom:oz-upgrades-unsafe-allow": "constructor"
					},
					"getRoleAdmin(bytes32)": {
						"details": "Returns the admin role that controls `role`. See {grantRole} and {revokeRole}. To change a role's admin, use {_setRoleAdmin}."
					},
					"grantRole(bytes32,address)": {
						"details": "Grants `role` to `account`. If `account` had not been already granted `role`, emits a {RoleGranted} event. Requirements: - the caller must have ``role``'s admin role. May emit a {RoleGranted} event."
					},
					"hasRole(bytes32,address)": {
						"details": "Returns `true` if `account` has been granted `role`."
					},
					"paused()": {
						"details": "Returns true if the contract is paused, and false otherwise."
					},
					"proxiableUUID()": {
						"details": "Implementation of the ERC1822 {proxiableUUID} function. This returns the storage slot used by the implementation. It is used to validate the implementation's compatibility when performing an upgrade. IMPORTANT: A proxy pointing at a proxiable contract should not be considered proxiable itself, because this risks bricking a proxy that upgrades to it, by delegating to itself until out of gas. Thus it is critical that this function revert if invoked through a proxy. This is guaranteed by the `notDelegated` modifier."
					},
					"renounceRole(bytes32,address)": {
						"details": "Revokes `role` from the calling account. Roles are often managed via {grantRole} and {revokeRole}: this function's purpose is to provide a mechanism for accounts to lose their privileges if they are compromised (such as when a trusted device is misplaced). If the calling account had been revoked `role`, emits a {RoleRevoked} event. Requirements: - the caller must be `callerConfirmation`. May emit a {RoleRevoked} event."
					},
					"revokeRole(bytes32,address)": {
						"details": "Revokes `role` from `account`. If `account` had been granted `role`, emits a {RoleRevoked} event. Requirements: - the caller must have ``role``'s admin role. May emit a {RoleRevoked} event."
					},
					"supportsInterface(bytes4)": {
						"details": "See {IERC165-supportsInterface}."
					},
					"upgradeToAndCall(address,bytes)": {
						"custom:oz-upgrades-unsafe-allow-reachable": "delegatecall",
						"details": "Upgrade the implementation of the proxy to `newImplementation`, and subsequently execute the function call encoded in `data`. Calls {_authorizeUpgrade}. Emits an {Upgraded} event."
					}
				},
				"version": 1
			},
			"evm": {
				"assembly": "    /* \"contracts/Bond1.sol\":479:5014  contract Bond1 is Initializable, PausableUpgradeable, AccessControlUpgradeable, UUPSUpgradeable, ISmartDerivativeContract  {... */\n  mstore(0x40, 0xa0)\n    /* \"@openzeppelin/contracts-upgradeable/proxy/utils/UUPSUpgradeable.sol\":1171:1175  this */\n  address\n    /* \"@openzeppelin/contracts-upgradeable/proxy/utils/UUPSUpgradeable.sol\":1128:1176  address private immutable __self = address(this) */\n  0xffffffffffffffffffffffffffffffffffffffff\n  and\n  0x80\n  swap1\n  0xffffffffffffffffffffffffffffffffffffffff\n  and\n  dup2\n  mstore\n  pop\n    /* \"contracts/Bond1.sol\":1137:1192  constructor() {... */\n  callvalue\n  dup1\n  iszero\n  tag_1\n  jumpi\n  0x00\n  dup1\n  revert\ntag_1:\n  pop\n    /* \"contracts/Bond1.sol\":1162:1184  _disableInitializers() */\n  tag_4\n    /* \"contracts/Bond1.sol\":1162:1182  _disableInitializers */\n  shl(0x20, tag_5)\n    /* \"contracts/Bond1.sol\":1162:1184  _disableInitializers() */\n  0x20\n  shr\n  jump\t// in\ntag_4:\n    /* \"contracts/Bond1.sol\":479:5014  contract Bond1 is Initializable, PausableUpgradeable, AccessControlUpgradeable, UUPSUpgradeable, ISmartDerivativeContract  {... */\n  jump(tag_6)\n    /* \"@openzeppelin/contracts-upgradeable/proxy/utils/Initializable.sol\":7711:8133  function _disableInitializers() internal virtual {... */\ntag_5:\n    /* \"@openzeppelin/contracts-upgradeable/proxy/utils/Initializable.sol\":7826:7856  InitializableStorage storage $ */\n  0x00\n    /* \"@openzeppelin/contracts-upgradeable/proxy/utils/Initializable.sol\":7859:7885  _getInitializableStorage() */\n  tag_8\n    /* \"@openzeppelin/contracts-upgradeable/proxy/utils/Initializable.sol\":7859:7883  _getInitializableStorage */\n  shl(0x20, tag_9)\n    /* \"@openzeppelin/contracts-upgradeable/proxy/utils/Initializable.sol\":7859:7885  _getInitializableStorage() */\n  0x20\n  shr\n  jump\t// in\ntag_8:\n    /* \"@openzeppelin/contracts-upgradeable/proxy/utils/Initializable.sol\":7826:7885  InitializableStorage storage $ = _getInitializableStorage() */\n  swap1\n  pop\n    /* \"@openzeppelin/contracts-upgradeable/proxy/utils/Initializable.sol\":7900:7901  $ */\n  dup1\n    /* \"@openzeppelin/contracts-upgradeable/proxy/utils/Initializable.sol\":7900:7915  $._initializing */\n  0x00\n  add\n  0x08\n  swap1\n  sload\n  swap1\n  0x0100\n  exp\n  swap1\n  div\n  0xff\n  and\n    /* \"@openzeppelin/contracts-upgradeable/proxy/utils/Initializable.sol\":7896:7972  if ($._initializing) {... */\n  iszero\n  tag_10\n  jumpi\n    /* \"@openzeppelin/contracts-upgradeable/proxy/utils/Initializable.sol\":7938:7961  InvalidInitialization() */\n  mload(0x40)\n  0xf92ee8a900000000000000000000000000000000000000000000000000000000\n  dup2\n  mstore\n  0x04\n  add\n  mload(0x40)\n  dup1\n  swap2\n  sub\n  swap1\n  revert\n    /* \"@openzeppelin/contracts-upgradeable/proxy/utils/Initializable.sol\":7896:7972  if ($._initializing) {... */\ntag_10:\n    /* \"@openzeppelin/contracts-upgradeable/proxy/utils/Initializable.sol\":8003:8019  type(uint64).max */\n  0xffffffffffffffff\n    /* \"@openzeppelin/contracts-upgradeable/proxy/utils/Initializable.sol\":7985:8019  $._initialized != type(uint64).max */\n  dup1\n  and\n    /* \"@openzeppelin/contracts-upgradeable/proxy/utils/Initializable.sol\":7985:7986  $ */\n  dup2\n    /* \"@openzeppelin/contracts-upgradeable/proxy/utils/Initializable.sol\":7985:7999  $._initialized */\n  0x00\n  add\n  0x00\n  swap1\n  sload\n  swap1\n  0x0100\n  exp\n  swap1\n  div\n  0xffffffffffffffff\n  and\n    /* \"@openzeppelin/contracts-upgradeable/proxy/utils/Initializable.sol\":7985:8019  $._initialized != type(uint64).max */\n  0xffffffffffffffff\n  and\n  eq\n    /* \"@openzeppelin/contracts-upgradeable/proxy/utils/Initializable.sol\":7981:8127  if ($._initialized != type(uint64).max) {... */\n  tag_11\n  jumpi\n    /* \"@openzeppelin/contracts-upgradeable/proxy/utils/Initializable.sol\":8052:8068  type(uint64).max */\n  0xffffffffffffffff\n    /* \"@openzeppelin/contracts-upgradeable/proxy/utils/Initializable.sol\":8035:8036  $ */\n  dup2\n    /* \"@openzeppelin/contracts-upgradeable/proxy/utils/Initializable.sol\":8035:8049  $._initialized */\n  0x00\n  add\n  0x00\n    /* \"@openzeppelin/contracts-upgradeable/proxy/utils/Initializable.sol\":8035:8068  $._initialized = type(uint64).max */\n  0x0100\n  exp\n  dup2\n  sload\n  dup2\n  0xffffffffffffffff\n  mul\n  not\n  and\n  swap1\n  dup4\n  0xffffffffffffffff\n  and\n  mul\n  or\n  swap1\n  sstore\n  pop\n    /* \"@openzeppelin/contracts-upgradeable/proxy/utils/Initializable.sol\":8087:8116  Initialized(type(uint64).max) */\n  0xc7f505b2f371ae2175ee4913f4499e1f2633a7b5936321eed1cdaeb6115181d2\n    /* \"@openzeppelin/contracts-upgradeable/proxy/utils/Initializable.sol\":8099:8115  type(uint64).max */\n  0xffffffffffffffff\n    /* \"@openzeppelin/contracts-upgradeable/proxy/utils/Initializable.sol\":8087:8116  Initialized(type(uint64).max) */\n  mload(0x40)\n  tag_12\n  swap2\n  swap1\n  tag_13\n  jump\t// in\ntag_12:\n  mload(0x40)\n  dup1\n  swap2\n  sub\n  swap1\n  log1\n    /* \"@openzeppelin/contracts-upgradeable/proxy/utils/Initializable.sol\":7981:8127  if ($._initialized != type(uint64).max) {... */\ntag_11:\n    /* \"@openzeppelin/contracts-upgradeable/proxy/utils/Initializable.sol\":7760:8133  {... */\n  pop\n    /* \"@openzeppelin/contracts-upgradeable/proxy/utils/Initializable.sol\":7711:8133  function _disableInitializers() internal virtual {... */\n  jump\t// out\n    /* \"@openzeppelin/contracts-upgradeable/proxy/utils/Initializable.sol\":8737:8907  function _getInitializableStorage() private pure returns (InitializableStorage storage $) {... */\ntag_9:\n    /* \"@openzeppelin/contracts-upgradeable/proxy/utils/Initializable.sol\":8795:8825  InitializableStorage storage $ */\n  0x00\n    /* \"@openzeppelin/contracts-upgradeable/proxy/utils/Initializable.sol\":8870:8891  INITIALIZABLE_STORAGE */\n  0xf0c57e16840df040f15088dc2f81fe391c3923bec73e23a9662efc9c229c6a00\n    /* \"@openzeppelin/contracts-upgradeable/proxy/utils/Initializable.sol\":8860:8891  $.slot := INITIALIZABLE_STORAGE */\n  swap1\n  pop\n    /* \"@openzeppelin/contracts-upgradeable/proxy/utils/Initializable.sol\":8737:8907  function _getInitializableStorage() private pure returns (InitializableStorage storage $) {... */\n  swap1\n  jump\t// out\n    /* \"#utility.yul\":7:108   */\ntag_15:\n    /* \"#utility.yul\":43:50   */\n  0x00\n    /* \"#utility.yul\":83:101   */\n  0xffffffffffffffff\n    /* \"#utility.yul\":76:81   */\n  dup3\n    /* \"#utility.yul\":72:102   */\n  and\n    /* \"#utility.yul\":61:102   */\n  swap1\n  pop\n    /* \"#utility.yul\":7:108   */\n  swap2\n  swap1\n  pop\n  jump\t// out\n    /* \"#utility.yul\":114:229   */\ntag_16:\n    /* \"#utility.yul\":199:222   */\n  tag_20\n    /* \"#utility.yul\":216:221   */\n  dup2\n    /* \"#utility.yul\":199:222   */\n  tag_15\n  jump\t// in\ntag_20:\n    /* \"#utility.yul\":194:197   */\n  dup3\n    /* \"#utility.yul\":187:223   */\n  mstore\n    /* \"#utility.yul\":114:229   */\n  pop\n  pop\n  jump\t// out\n    /* \"#utility.yul\":235:453   */\ntag_13:\n    /* \"#utility.yul\":326:330   */\n  0x00\n    /* \"#utility.yul\":364:366   */\n  0x20\n    /* \"#utility.yul\":353:362   */\n  dup3\n    /* \"#utility.yul\":349:367   */\n  add\n    /* \"#utility.yul\":341:367   */\n  swap1\n  pop\n    /* \"#utility.yul\":377:446   */\n  tag_22\n    /* \"#utility.yul\":443:444   */\n  0x00\n    /* \"#utility.yul\":432:441   */\n  dup4\n    /* \"#utility.yul\":428:445   */\n  add\n    /* \"#utility.yul\":419:425   */\n  dup5\n    /* \"#utility.yul\":377:446   */\n  tag_16\n  jump\t// in\ntag_22:\n    /* \"#utility.yul\":235:453   */\n  swap3\n  swap2\n  pop\n  pop\n  jump\t// out\n    /* \"contracts/Bond1.sol\":479:5014  contract Bond1 is Initializable, PausableUpgradeable, AccessControlUpgradeable, UUPSUpgradeable, ISmartDerivativeContract  {... */\ntag_6:\n  mload(0x80)\n  codecopy(0x00, dataOffset(sub_0), dataSize(sub_0))\n  0x00\n  assignImmutable(\"0x3b04ad91523c4dcf551e081621e633b9099d51bf9c5461e58c3bc7354a578b27\")\n  return(0x00, dataSize(sub_0))\nstop\n\nsub_0: assembly {\n        /* \"contracts/Bond1.sol\":479:5014  contract Bond1 is Initializable, PausableUpgradeable, AccessControlUpgradeable, UUPSUpgradeable, ISmartDerivativeContract  {... */\n      mstore(0x40, 0x80)\n      jumpi(tag_1, lt(calldatasize, 0x04))\n      shr(0xe0, calldataload(0x00))\n      dup1\n      0x8456cb59\n      gt\n      tag_27\n      jumpi\n      dup1\n      0xc78b432e\n      gt\n      tag_28\n      jumpi\n      dup1\n      0xe63ab1e9\n      gt\n      tag_29\n      jumpi\n      dup1\n      0xe63ab1e9\n      eq\n      tag_23\n      jumpi\n      dup1\n      0xec11c4e9\n      eq\n      tag_24\n      jumpi\n      dup1\n      0xf72c0d8b\n      eq\n      tag_25\n      jumpi\n      dup1\n      0xff52c484\n      eq\n      tag_26\n      jumpi\n      jump(tag_1)\n    tag_29:\n      dup1\n      0xc78b432e\n      eq\n      tag_20\n      jumpi\n      dup1\n      0xd547741f\n      eq\n      tag_21\n      jumpi\n      dup1\n      0xdf2d0728\n      eq\n      tag_22\n      jumpi\n      jump(tag_1)\n    tag_28:\n      dup1\n      0x8456cb59\n      eq\n      tag_14\n      jumpi\n      dup1\n      0x858f0e93\n      eq\n      tag_15\n      jumpi\n      dup1\n      0x91d14854\n      eq\n      tag_16\n      jumpi\n      dup1\n      0xa217fddf\n      eq\n      tag_17\n      jumpi\n      dup1\n      0xad3cb1cc\n      eq\n      tag_18\n      jumpi\n      dup1\n      0xc0c53b8b\n      eq\n      tag_19\n      jumpi\n      jump(tag_1)\n    tag_27:\n      dup1\n      0x4f1ef286\n      gt\n      tag_30\n      jumpi\n      dup1\n      0x4f1ef286\n      eq\n      tag_8\n      jumpi\n      dup1\n      0x52d1902d\n      eq\n      tag_9\n      jumpi\n      dup1\n      0x5c975abb\n      eq\n      tag_10\n      jumpi\n      dup1\n      0x6ba63956\n      eq\n      tag_11\n      jumpi\n      dup1\n      0x729d581c\n      eq\n      tag_12\n      jumpi\n      dup1\n      0x79648ed3\n      eq\n      tag_13\n      jumpi\n      jump(tag_1)\n    tag_30:\n      dup1\n      0x01ffc9a7\n      eq\n      tag_2\n      jumpi\n      dup1\n      0x248a9ca3\n      eq\n      tag_3\n      jumpi\n      dup1\n      0x2f2ff15d\n      eq\n      tag_4\n      jumpi\n      dup1\n      0x36568abe\n      eq\n      tag_5\n      jumpi\n      dup1\n      0x3f4ba83a\n      eq\n      tag_6\n      jumpi\n      dup1\n      0x47a04100\n      eq\n      tag_7\n      jumpi\n    tag_1:\n      0x00\n      dup1\n      revert\n        /* \"@openzeppelin/contracts-upgradeable/access/AccessControlUpgradeable.sol\":3443:3645  function supportsInterface(bytes4 interfaceId) public view virtual override returns (bool) {... */\n    tag_2:\n      callvalue\n      dup1\n      iszero\n      tag_31\n      jumpi\n      0x00\n      dup1\n      revert\n    tag_31:\n      pop\n      tag_32\n      0x04\n      dup1\n      calldatasize\n      sub\n      dup2\n      add\n      swap1\n      tag_33\n      swap2\n      swap1\n      tag_34\n      jump\t// in\n    tag_33:\n      tag_35\n      jump\t// in\n    tag_32:\n      mload(0x40)\n      tag_36\n      swap2\n      swap1\n      tag_37\n      jump\t// in\n    tag_36:\n      mload(0x40)\n      dup1\n      swap2\n      sub\n      swap1\n      return\n        /* \"@openzeppelin/contracts-upgradeable/access/AccessControlUpgradeable.sol\":4759:4950  function getRoleAdmin(bytes32 role) public view virtual returns (bytes32) {... */\n    tag_3:\n      callvalue\n      dup1\n      iszero\n      tag_38\n      jumpi\n      0x00\n      dup1\n      revert\n    tag_38:\n      pop\n      tag_39\n      0x04\n      dup1\n      calldatasize\n      sub\n      dup2\n      add\n      swap1\n      tag_40\n      swap2\n      swap1\n      tag_41\n      jump\t// in\n    tag_40:\n      tag_42\n      jump\t// in\n    tag_39:\n      mload(0x40)\n      tag_43\n      swap2\n      swap1\n      tag_44\n      jump\t// in\n    tag_43:\n      mload(0x40)\n      dup1\n      swap2\n      sub\n      swap1\n      return\n        /* \"@openzeppelin/contracts-upgradeable/access/AccessControlUpgradeable.sol\":5246:5382  function grantRole(bytes32 role, address account) public virtual onlyRole(getRoleAdmin(role)) {... */\n    tag_4:\n      callvalue\n      dup1\n      iszero\n      tag_45\n      jumpi\n      0x00\n      dup1\n      revert\n    tag_45:\n      pop\n      tag_46\n      0x04\n      dup1\n      calldatasize\n      sub\n      dup2\n      add\n      swap1\n      tag_47\n      swap2\n      swap1\n      tag_48\n      jump\t// in\n    tag_47:\n      tag_49\n      jump\t// in\n    tag_46:\n      stop\n        /* \"@openzeppelin/contracts-upgradeable/access/AccessControlUpgradeable.sol\":6348:6593  function renounceRole(bytes32 role, address callerConfirmation) public virtual {... */\n    tag_5:\n      callvalue\n      dup1\n      iszero\n      tag_50\n      jumpi\n      0x00\n      dup1\n      revert\n    tag_50:\n      pop\n      tag_51\n      0x04\n      dup1\n      calldatasize\n      sub\n      dup2\n      add\n      swap1\n      tag_52\n      swap2\n      swap1\n      tag_48\n      jump\t// in\n    tag_52:\n      tag_53\n      jump\t// in\n    tag_51:\n      stop\n        /* \"contracts/Bond1.sol\":1647:1724  function unpause() public onlyRole(PAUSER_ROLE) {... */\n    tag_6:\n      callvalue\n      dup1\n      iszero\n      tag_54\n      jumpi\n      0x00\n      dup1\n      revert\n    tag_54:\n      pop\n      tag_55\n      tag_56\n      jump\t// in\n    tag_55:\n      stop\n        /* \"contracts/Bond1.sol\":863:901  mapping(string => Trade) public trades */\n    tag_7:\n      callvalue\n      dup1\n      iszero\n      tag_57\n      jumpi\n      0x00\n      dup1\n      revert\n    tag_57:\n      pop\n      tag_58\n      0x04\n      dup1\n      calldatasize\n      sub\n      dup2\n      add\n      swap1\n      tag_59\n      swap2\n      swap1\n      tag_60\n      jump\t// in\n    tag_59:\n      tag_61\n      jump\t// in\n    tag_58:\n      mload(0x40)\n      tag_62\n      swap9\n      swap8\n      swap7\n      swap6\n      swap5\n      swap4\n      swap3\n      swap2\n      swap1\n      tag_63\n      jump\t// in\n    tag_62:\n      mload(0x40)\n      dup1\n      swap2\n      sub\n      swap1\n      return\n        /* \"@openzeppelin/contracts-upgradeable/proxy/utils/UUPSUpgradeable.sol\":4158:4372  function upgradeToAndCall(address newImplementation, bytes memory data) public payable virtual onlyProxy {... */\n    tag_8:\n      tag_64\n      0x04\n      dup1\n      calldatasize\n      sub\n      dup2\n      add\n      swap1\n      tag_65\n      swap2\n      swap1\n      tag_66\n      jump\t// in\n    tag_65:\n      tag_67\n      jump\t// in\n    tag_64:\n      stop\n        /* \"@openzeppelin/contracts-upgradeable/proxy/utils/UUPSUpgradeable.sol\":3705:3839  function proxiableUUID() external view virtual notDelegated returns (bytes32) {... */\n    tag_9:\n      callvalue\n      dup1\n      iszero\n      tag_68\n      jumpi\n      0x00\n      dup1\n      revert\n    tag_68:\n      pop\n      tag_69\n      tag_70\n      jump\t// in\n    tag_69:\n      mload(0x40)\n      tag_71\n      swap2\n      swap1\n      tag_44\n      jump\t// in\n    tag_71:\n      mload(0x40)\n      dup1\n      swap2\n      sub\n      swap1\n      return\n        /* \"@openzeppelin/contracts-upgradeable/utils/PausableUpgradeable.sol\":2692:2837  function paused() public view virtual returns (bool) {... */\n    tag_10:\n      callvalue\n      dup1\n      iszero\n      tag_72\n      jumpi\n      0x00\n      dup1\n      revert\n    tag_72:\n      pop\n      tag_73\n      tag_74\n      jump\t// in\n    tag_73:\n      mload(0x40)\n      tag_75\n      swap2\n      swap1\n      tag_37\n      jump\t// in\n    tag_75:\n      mload(0x40)\n      dup1\n      swap2\n      sub\n      swap1\n      return\n        /* \"contracts/Bond1.sol\":3482:3948  function performSettlement(... */\n    tag_11:\n      callvalue\n      dup1\n      iszero\n      tag_76\n      jumpi\n      0x00\n      dup1\n      revert\n    tag_76:\n      pop\n      tag_77\n      0x04\n      dup1\n      calldatasize\n      sub\n      dup2\n      add\n      swap1\n      tag_78\n      swap2\n      swap1\n      tag_79\n      jump\t// in\n    tag_78:\n      tag_80\n      jump\t// in\n    tag_77:\n      stop\n        /* \"contracts/Bond1.sol\":4141:4498  function requestTradeTermination(... */\n    tag_12:\n      callvalue\n      dup1\n      iszero\n      tag_81\n      jumpi\n      0x00\n      dup1\n      revert\n    tag_81:\n      pop\n      tag_82\n      0x04\n      dup1\n      calldatasize\n      sub\n      dup2\n      add\n      swap1\n      tag_83\n      swap2\n      swap1\n      tag_84\n      jump\t// in\n    tag_83:\n      tag_85\n      jump\t// in\n    tag_82:\n      stop\n        /* \"contracts/Bond1.sol\":4510:4873  function confirmTradeTermination(... */\n    tag_13:\n      callvalue\n      dup1\n      iszero\n      tag_86\n      jumpi\n      0x00\n      dup1\n      revert\n    tag_86:\n      pop\n      tag_87\n      0x04\n      dup1\n      calldatasize\n      sub\n      dup2\n      add\n      swap1\n      tag_88\n      swap2\n      swap1\n      tag_84\n      jump\t// in\n    tag_88:\n      tag_89\n      jump\t// in\n    tag_87:\n      stop\n        /* \"contracts/Bond1.sol\":1566:1639  function pause() public onlyRole(PAUSER_ROLE) {... */\n    tag_14:\n      callvalue\n      dup1\n      iszero\n      tag_90\n      jumpi\n      0x00\n      dup1\n      revert\n    tag_90:\n      pop\n      tag_91\n      tag_92\n      jump\t// in\n    tag_91:\n      stop\n        /* \"contracts/Bond1.sol\":2519:3024  function confirmTrade(... */\n    tag_15:\n      callvalue\n      dup1\n      iszero\n      tag_93\n      jumpi\n      0x00\n      dup1\n      revert\n    tag_93:\n      pop\n      tag_94\n      0x04\n      dup1\n      calldatasize\n      sub\n      dup2\n      add\n      swap1\n      tag_95\n      swap2\n      swap1\n      tag_96\n      jump\t// in\n    tag_95:\n      tag_97\n      jump\t// in\n    tag_94:\n      stop\n        /* \"@openzeppelin/contracts-upgradeable/access/AccessControlUpgradeable.sol\":3732:3939  function hasRole(bytes32 role, address account) public view virtual returns (bool) {... */\n    tag_16:\n      callvalue\n      dup1\n      iszero\n      tag_98\n      jumpi\n      0x00\n      dup1\n      revert\n    tag_98:\n      pop\n      tag_99\n      0x04\n      dup1\n      calldatasize\n      sub\n      dup2\n      add\n      swap1\n      tag_100\n      swap2\n      swap1\n      tag_48\n      jump\t// in\n    tag_100:\n      tag_101\n      jump\t// in\n    tag_99:\n      mload(0x40)\n      tag_102\n      swap2\n      swap1\n      tag_37\n      jump\t// in\n    tag_102:\n      mload(0x40)\n      dup1\n      swap2\n      sub\n      swap1\n      return\n        /* \"@openzeppelin/contracts-upgradeable/access/AccessControlUpgradeable.sol\":2317:2366  bytes32 public constant DEFAULT_ADMIN_ROLE = 0x00 */\n    tag_17:\n      callvalue\n      dup1\n      iszero\n      tag_103\n      jumpi\n      0x00\n      dup1\n      revert\n    tag_103:\n      pop\n      tag_104\n      tag_105\n      jump\t// in\n    tag_104:\n      mload(0x40)\n      tag_106\n      swap2\n      swap1\n      tag_44\n      jump\t// in\n    tag_106:\n      mload(0x40)\n      dup1\n      swap2\n      sub\n      swap1\n      return\n        /* \"@openzeppelin/contracts-upgradeable/proxy/utils/UUPSUpgradeable.sol\":1819:1877  string public constant UPGRADE_INTERFACE_VERSION = \"5.0.0\" */\n    tag_18:\n      callvalue\n      dup1\n      iszero\n      tag_107\n      jumpi\n      0x00\n      dup1\n      revert\n    tag_107:\n      pop\n      tag_108\n      tag_109\n      jump\t// in\n    tag_108:\n      mload(0x40)\n      tag_110\n      swap2\n      swap1\n      tag_111\n      jump\t// in\n    tag_110:\n      mload(0x40)\n      dup1\n      swap2\n      sub\n      swap1\n      return\n        /* \"contracts/Bond1.sol\":1200:1558  function initialize(address defaultAdmin, address pauser, address upgrader)... */\n    tag_19:\n      callvalue\n      dup1\n      iszero\n      tag_112\n      jumpi\n      0x00\n      dup1\n      revert\n    tag_112:\n      pop\n      tag_113\n      0x04\n      dup1\n      calldatasize\n      sub\n      dup2\n      add\n      swap1\n      tag_114\n      swap2\n      swap1\n      tag_115\n      jump\t// in\n    tag_114:\n      tag_116\n      jump\t// in\n    tag_113:\n      stop\n        /* \"contracts/Bond1.sol\":3036:3470  function initiateSettlement() external override {... */\n    tag_20:\n      callvalue\n      dup1\n      iszero\n      tag_117\n      jumpi\n      0x00\n      dup1\n      revert\n    tag_117:\n      pop\n      tag_118\n      tag_119\n      jump\t// in\n    tag_118:\n      stop\n        /* \"@openzeppelin/contracts-upgradeable/access/AccessControlUpgradeable.sol\":5662:5800  function revokeRole(bytes32 role, address account) public virtual onlyRole(getRoleAdmin(role)) {... */\n    tag_21:\n      callvalue\n      dup1\n      iszero\n      tag_120\n      jumpi\n      0x00\n      dup1\n      revert\n    tag_120:\n      pop\n      tag_121\n      0x04\n      dup1\n      calldatasize\n      sub\n      dup2\n      add\n      swap1\n      tag_122\n      swap2\n      swap1\n      tag_48\n      jump\t// in\n    tag_122:\n      tag_123\n      jump\t// in\n    tag_121:\n      stop\n        /* \"contracts/Bond1.sol\":3960:4129  function afterTransfer(... */\n    tag_22:\n      callvalue\n      dup1\n      iszero\n      tag_124\n      jumpi\n      0x00\n      dup1\n      revert\n    tag_124:\n      pop\n      tag_125\n      0x04\n      dup1\n      calldatasize\n      sub\n      dup2\n      add\n      swap1\n      tag_126\n      swap2\n      swap1\n      tag_127\n      jump\t// in\n    tag_126:\n      tag_128\n      jump\t// in\n    tag_125:\n      stop\n        /* \"contracts/Bond1.sol\":939:1001  bytes32 public constant PAUSER_ROLE = keccak256(\"PAUSER_ROLE\") */\n    tag_23:\n      callvalue\n      dup1\n      iszero\n      tag_129\n      jumpi\n      0x00\n      dup1\n      revert\n    tag_129:\n      pop\n      tag_130\n      tag_131\n      jump\t// in\n    tag_130:\n      mload(0x40)\n      tag_132\n      swap2\n      swap1\n      tag_44\n      jump\t// in\n    tag_132:\n      mload(0x40)\n      dup1\n      swap2\n      sub\n      swap1\n      return\n        /* \"contracts/Bond1.sol\":1732:2507  function inceptTrade(... */\n    tag_24:\n      callvalue\n      dup1\n      iszero\n      tag_133\n      jumpi\n      0x00\n      dup1\n      revert\n    tag_133:\n      pop\n      tag_134\n      0x04\n      dup1\n      calldatasize\n      sub\n      dup2\n      add\n      swap1\n      tag_135\n      swap2\n      swap1\n      tag_96\n      jump\t// in\n    tag_135:\n      tag_136\n      jump\t// in\n    tag_134:\n      stop\n        /* \"contracts/Bond1.sol\":1008:1074  bytes32 public constant UPGRADER_ROLE = keccak256(\"UPGRADER_ROLE\") */\n    tag_25:\n      callvalue\n      dup1\n      iszero\n      tag_137\n      jumpi\n      0x00\n      dup1\n      revert\n    tag_137:\n      pop\n      tag_138\n      tag_139\n      jump\t// in\n    tag_138:\n      mload(0x40)\n      tag_140\n      swap2\n      swap1\n      tag_44\n      jump\t// in\n    tag_140:\n      mload(0x40)\n      dup1\n      swap2\n      sub\n      swap1\n      return\n        /* \"contracts/Bond1.sol\":908:932  string[] public tradeIds */\n    tag_26:\n      callvalue\n      dup1\n      iszero\n      tag_141\n      jumpi\n      0x00\n      dup1\n      revert\n    tag_141:\n      pop\n      tag_142\n      0x04\n      dup1\n      calldatasize\n      sub\n      dup2\n      add\n      swap1\n      tag_143\n      swap2\n      swap1\n      tag_144\n      jump\t// in\n    tag_143:\n      tag_145\n      jump\t// in\n    tag_142:\n      mload(0x40)\n      tag_146\n      swap2\n      swap1\n      tag_111\n      jump\t// in\n    tag_146:\n      mload(0x40)\n      dup1\n      swap2\n      sub\n      swap1\n      return\n        /* \"@openzeppelin/contracts-upgradeable/access/AccessControlUpgradeable.sol\":3443:3645  function supportsInterface(bytes4 interfaceId) public view virtual override returns (bool) {... */\n    tag_35:\n        /* \"@openzeppelin/contracts-upgradeable/access/AccessControlUpgradeable.sol\":3528:3532  bool */\n      0x00\n        /* \"@openzeppelin/contracts-upgradeable/access/AccessControlUpgradeable.sol\":3566:3598  type(IAccessControl).interfaceId */\n      0x7965db0b00000000000000000000000000000000000000000000000000000000\n        /* \"@openzeppelin/contracts-upgradeable/access/AccessControlUpgradeable.sol\":3551:3598  interfaceId == type(IAccessControl).interfaceId */\n      not(0xffffffffffffffffffffffffffffffffffffffffffffffffffffffff)\n      and\n        /* \"@openzeppelin/contracts-upgradeable/access/AccessControlUpgradeable.sol\":3551:3562  interfaceId */\n      dup3\n        /* \"@openzeppelin/contracts-upgradeable/access/AccessControlUpgradeable.sol\":3551:3598  interfaceId == type(IAccessControl).interfaceId */\n      not(0xffffffffffffffffffffffffffffffffffffffffffffffffffffffff)\n      and\n      eq\n        /* \"@openzeppelin/contracts-upgradeable/access/AccessControlUpgradeable.sol\":3551:3638  interfaceId == type(IAccessControl).interfaceId || super.supportsInterface(interfaceId) */\n      dup1\n      tag_148\n      jumpi\n      pop\n        /* \"@openzeppelin/contracts-upgradeable/access/AccessControlUpgradeable.sol\":3602:3638  super.supportsInterface(interfaceId) */\n      tag_149\n        /* \"@openzeppelin/contracts-upgradeable/access/AccessControlUpgradeable.sol\":3626:3637  interfaceId */\n      dup3\n        /* \"@openzeppelin/contracts-upgradeable/access/AccessControlUpgradeable.sol\":3602:3625  super.supportsInterface */\n      tag_150\n        /* \"@openzeppelin/contracts-upgradeable/access/AccessControlUpgradeable.sol\":3602:3638  super.supportsInterface(interfaceId) */\n      jump\t// in\n    tag_149:\n        /* \"@openzeppelin/contracts-upgradeable/access/AccessControlUpgradeable.sol\":3551:3638  interfaceId == type(IAccessControl).interfaceId || super.supportsInterface(interfaceId) */\n    tag_148:\n        /* \"@openzeppelin/contracts-upgradeable/access/AccessControlUpgradeable.sol\":3544:3638  return interfaceId == type(IAccessControl).interfaceId || super.supportsInterface(interfaceId) */\n      swap1\n      pop\n        /* \"@openzeppelin/contracts-upgradeable/access/AccessControlUpgradeable.sol\":3443:3645  function supportsInterface(bytes4 interfaceId) public view virtual override returns (bool) {... */\n      swap2\n      swap1\n      pop\n      jump\t// out\n        /* \"@openzeppelin/contracts-upgradeable/access/AccessControlUpgradeable.sol\":4759:4950  function getRoleAdmin(bytes32 role) public view virtual returns (bytes32) {... */\n    tag_42:\n        /* \"@openzeppelin/contracts-upgradeable/access/AccessControlUpgradeable.sol\":4824:4831  bytes32 */\n      0x00\n        /* \"@openzeppelin/contracts-upgradeable/access/AccessControlUpgradeable.sol\":4843:4873  AccessControlStorage storage $ */\n      dup1\n        /* \"@openzeppelin/contracts-upgradeable/access/AccessControlUpgradeable.sol\":4876:4902  _getAccessControlStorage() */\n      tag_152\n        /* \"@openzeppelin/contracts-upgradeable/access/AccessControlUpgradeable.sol\":4876:4900  _getAccessControlStorage */\n      tag_153\n        /* \"@openzeppelin/contracts-upgradeable/access/AccessControlUpgradeable.sol\":4876:4902  _getAccessControlStorage() */\n      jump\t// in\n    tag_152:\n        /* \"@openzeppelin/contracts-upgradeable/access/AccessControlUpgradeable.sol\":4843:4902  AccessControlStorage storage $ = _getAccessControlStorage() */\n      swap1\n      pop\n        /* \"@openzeppelin/contracts-upgradeable/access/AccessControlUpgradeable.sol\":4919:4920  $ */\n      dup1\n        /* \"@openzeppelin/contracts-upgradeable/access/AccessControlUpgradeable.sol\":4919:4927  $._roles */\n      0x00\n      add\n        /* \"@openzeppelin/contracts-upgradeable/access/AccessControlUpgradeable.sol\":4919:4933  $._roles[role] */\n      0x00\n        /* \"@openzeppelin/contracts-upgradeable/access/AccessControlUpgradeable.sol\":4928:4932  role */\n      dup5\n        /* \"@openzeppelin/contracts-upgradeable/access/AccessControlUpgradeable.sol\":4919:4933  $._roles[role] */\n      dup2\n      mstore\n      0x20\n      add\n      swap1\n      dup2\n      mstore\n      0x20\n      add\n      0x00\n      keccak256\n        /* \"@openzeppelin/contracts-upgradeable/access/AccessControlUpgradeable.sol\":4919:4943  $._roles[role].adminRole */\n      0x01\n      add\n      sload\n        /* \"@openzeppelin/contracts-upgradeable/access/AccessControlUpgradeable.sol\":4912:4943  return $._roles[role].adminRole */\n      swap2\n      pop\n      pop\n        /* \"@openzeppelin/contracts-upgradeable/access/AccessControlUpgradeable.sol\":4759:4950  function getRoleAdmin(bytes32 role) public view virtual returns (bytes32) {... */\n      swap2\n      swap1\n      pop\n      jump\t// out\n        /* \"@openzeppelin/contracts-upgradeable/access/AccessControlUpgradeable.sol\":5246:5382  function grantRole(bytes32 role, address account) public virtual onlyRole(getRoleAdmin(role)) {... */\n    tag_49:\n        /* \"@openzeppelin/contracts-upgradeable/access/AccessControlUpgradeable.sol\":5320:5338  getRoleAdmin(role) */\n      tag_154\n        /* \"@openzeppelin/contracts-upgradeable/access/AccessControlUpgradeable.sol\":5333:5337  role */\n      dup3\n        /* \"@openzeppelin/contracts-upgradeable/access/AccessControlUpgradeable.sol\":5320:5332  getRoleAdmin */\n      tag_42\n        /* \"@openzeppelin/contracts-upgradeable/access/AccessControlUpgradeable.sol\":5320:5338  getRoleAdmin(role) */\n      jump\t// in\n    tag_154:\n        /* \"@openzeppelin/contracts-upgradeable/access/AccessControlUpgradeable.sol\":3191:3207  _checkRole(role) */\n      tag_156\n        /* \"@openzeppelin/contracts-upgradeable/access/AccessControlUpgradeable.sol\":3202:3206  role */\n      dup2\n        /* \"@openzeppelin/contracts-upgradeable/access/AccessControlUpgradeable.sol\":3191:3201  _checkRole */\n      tag_157\n        /* \"@openzeppelin/contracts-upgradeable/access/AccessControlUpgradeable.sol\":3191:3207  _checkRole(role) */\n      jump\t// in\n    tag_156:\n        /* \"@openzeppelin/contracts-upgradeable/access/AccessControlUpgradeable.sol\":5350:5375  _grantRole(role, account) */\n      tag_159\n        /* \"@openzeppelin/contracts-upgradeable/access/AccessControlUpgradeable.sol\":5361:5365  role */\n      dup4\n        /* \"@openzeppelin/contracts-upgradeable/access/AccessControlUpgradeable.sol\":5367:5374  account */\n      dup4\n        /* \"@openzeppelin/contracts-upgradeable/access/AccessControlUpgradeable.sol\":5350:5360  _grantRole */\n      tag_160\n        /* \"@openzeppelin/contracts-upgradeable/access/AccessControlUpgradeable.sol\":5350:5375  _grantRole(role, account) */\n      jump\t// in\n    tag_159:\n      pop\n        /* \"@openzeppelin/contracts-upgradeable/access/AccessControlUpgradeable.sol\":5246:5382  function grantRole(bytes32 role, address account) public virtual onlyRole(getRoleAdmin(role)) {... */\n      pop\n      pop\n      pop\n      jump\t// out\n        /* \"@openzeppelin/contracts-upgradeable/access/AccessControlUpgradeable.sol\":6348:6593  function renounceRole(bytes32 role, address callerConfirmation) public virtual {... */\n    tag_53:\n        /* \"@openzeppelin/contracts-upgradeable/access/AccessControlUpgradeable.sol\":6463:6475  _msgSender() */\n      tag_162\n        /* \"@openzeppelin/contracts-upgradeable/access/AccessControlUpgradeable.sol\":6463:6473  _msgSender */\n      tag_163\n        /* \"@openzeppelin/contracts-upgradeable/access/AccessControlUpgradeable.sol\":6463:6475  _msgSender() */\n      jump\t// in\n    tag_162:\n        /* \"@openzeppelin/contracts-upgradeable/access/AccessControlUpgradeable.sol\":6441:6475  callerConfirmation != _msgSender() */\n      0xffffffffffffffffffffffffffffffffffffffff\n      and\n        /* \"@openzeppelin/contracts-upgradeable/access/AccessControlUpgradeable.sol\":6441:6459  callerConfirmation */\n      dup2\n        /* \"@openzeppelin/contracts-upgradeable/access/AccessControlUpgradeable.sol\":6441:6475  callerConfirmation != _msgSender() */\n      0xffffffffffffffffffffffffffffffffffffffff\n      and\n      eq\n        /* \"@openzeppelin/contracts-upgradeable/access/AccessControlUpgradeable.sol\":6437:6539  if (callerConfirmation != _msgSender()) {... */\n      tag_164\n      jumpi\n        /* \"@openzeppelin/contracts-upgradeable/access/AccessControlUpgradeable.sol\":6498:6528  AccessControlBadConfirmation() */\n      mload(0x40)\n      0x6697b23200000000000000000000000000000000000000000000000000000000\n      dup2\n      mstore\n      0x04\n      add\n      mload(0x40)\n      dup1\n      swap2\n      sub\n      swap1\n      revert\n        /* \"@openzeppelin/contracts-upgradeable/access/AccessControlUpgradeable.sol\":6437:6539  if (callerConfirmation != _msgSender()) {... */\n    tag_164:\n        /* \"@openzeppelin/contracts-upgradeable/access/AccessControlUpgradeable.sol\":6549:6586  _revokeRole(role, callerConfirmation) */\n      tag_165\n        /* \"@openzeppelin/contracts-upgradeable/access/AccessControlUpgradeable.sol\":6561:6565  role */\n      dup3\n        /* \"@openzeppelin/contracts-upgradeable/access/AccessControlUpgradeable.sol\":6567:6585  callerConfirmation */\n      dup3\n        /* \"@openzeppelin/contracts-upgradeable/access/AccessControlUpgradeable.sol\":6549:6560  _revokeRole */\n      tag_166\n        /* \"@openzeppelin/contracts-upgradeable/access/AccessControlUpgradeable.sol\":6549:6586  _revokeRole(role, callerConfirmation) */\n      jump\t// in\n    tag_165:\n      pop\n        /* \"@openzeppelin/contracts-upgradeable/access/AccessControlUpgradeable.sol\":6348:6593  function renounceRole(bytes32 role, address callerConfirmation) public virtual {... */\n      pop\n      pop\n      jump\t// out\n        /* \"contracts/Bond1.sol\":1647:1724  function unpause() public onlyRole(PAUSER_ROLE) {... */\n    tag_56:\n        /* \"contracts/Bond1.sol\":977:1001  keccak256(\"PAUSER_ROLE\") */\n      0x65d7a28e3265b37a6474929f336521b332c1681b933f6cb9f3376673440d862a\n        /* \"@openzeppelin/contracts-upgradeable/access/AccessControlUpgradeable.sol\":3191:3207  _checkRole(role) */\n      tag_168\n        /* \"@openzeppelin/contracts-upgradeable/access/AccessControlUpgradeable.sol\":3202:3206  role */\n      dup2\n        /* \"@openzeppelin/contracts-upgradeable/access/AccessControlUpgradeable.sol\":3191:3201  _checkRole */\n      tag_157\n        /* \"@openzeppelin/contracts-upgradeable/access/AccessControlUpgradeable.sol\":3191:3207  _checkRole(role) */\n      jump\t// in\n    tag_168:\n        /* \"contracts/Bond1.sol\":1706:1716  _unpause() */\n      tag_170\n        /* \"contracts/Bond1.sol\":1706:1714  _unpause */\n      tag_171\n        /* \"contracts/Bond1.sol\":1706:1716  _unpause() */\n      jump\t// in\n    tag_170:\n        /* \"contracts/Bond1.sol\":1647:1724  function unpause() public onlyRole(PAUSER_ROLE) {... */\n      pop\n      jump\t// out\n        /* \"contracts/Bond1.sol\":863:901  mapping(string => Trade) public trades */\n    tag_61:\n      0x00\n      dup2\n      dup1\n      mload\n      0x20\n      dup2\n      add\n      dup3\n      add\n      dup1\n      mload\n      dup5\n      dup3\n      mstore\n      0x20\n      dup4\n      add\n      0x20\n      dup6\n      add\n      keccak256\n      dup2\n      dup4\n      mstore\n      dup1\n      swap6\n      pop\n      pop\n      pop\n      pop\n      pop\n      pop\n      0x00\n      swap2\n      pop\n      swap1\n      pop\n      dup1\n      0x00\n      add\n      0x00\n      swap1\n      sload\n      swap1\n      0x0100\n      exp\n      swap1\n      div\n      0xffffffffffffffffffffffffffffffffffffffff\n      and\n      swap1\n      dup1\n      0x01\n      add\n      0x00\n      swap1\n      sload\n      swap1\n      0x0100\n      exp\n      swap1\n      div\n      0xffffffffffffffffffffffffffffffffffffffff\n      and\n      swap1\n      dup1\n      0x02\n      add\n      dup1\n      sload\n      tag_172\n      swap1\n      tag_173\n      jump\t// in\n    tag_172:\n      dup1\n      0x1f\n      add\n      0x20\n      dup1\n      swap2\n      div\n      mul\n      0x20\n      add\n      mload(0x40)\n      swap1\n      dup2\n      add\n      0x40\n      mstore\n      dup1\n      swap3\n      swap2\n      swap1\n      dup2\n      dup2\n      mstore\n      0x20\n      add\n      dup3\n      dup1\n      sload\n      tag_174\n      swap1\n      tag_173\n      jump\t// in\n    tag_174:\n      dup1\n      iszero\n      tag_175\n      jumpi\n      dup1\n      0x1f\n      lt\n      tag_176\n      jumpi\n      0x0100\n      dup1\n      dup4\n      sload\n      div\n      mul\n      dup4\n      mstore\n      swap2\n      0x20\n      add\n      swap2\n      jump(tag_175)\n    tag_176:\n      dup3\n      add\n      swap2\n      swap1\n      0x00\n      mstore\n      keccak256(0x00, 0x20)\n      swap1\n    tag_177:\n      dup2\n      sload\n      dup2\n      mstore\n      swap1\n      0x01\n      add\n      swap1\n      0x20\n      add\n      dup1\n      dup4\n      gt\n      tag_177\n      jumpi\n      dup3\n      swap1\n      sub\n      0x1f\n      and\n      dup3\n      add\n      swap2\n    tag_175:\n      pop\n      pop\n      pop\n      pop\n      pop\n      swap1\n      dup1\n      0x03\n      add\n      sload\n      swap1\n      dup1\n      0x04\n      add\n      sload\n      swap1\n      dup1\n      0x05\n      add\n      dup1\n      sload\n      tag_178\n      swap1\n      tag_173\n      jump\t// in\n    tag_178:\n      dup1\n      0x1f\n      add\n      0x20\n      dup1\n      swap2\n      div\n      mul\n      0x20\n      add\n      mload(0x40)\n      swap1\n      dup2\n      add\n      0x40\n      mstore\n      dup1\n      swap3\n      swap2\n      swap1\n      dup2\n      dup2\n      mstore\n      0x20\n      add\n      dup3\n      dup1\n      sload\n      tag_179\n      swap1\n      tag_173\n      jump\t// in\n    tag_179:\n      dup1\n      iszero\n      tag_180\n      jumpi\n      dup1\n      0x1f\n      lt\n      tag_181\n      jumpi\n      0x0100\n      dup1\n      dup4\n      sload\n      div\n      mul\n      dup4\n      mstore\n      swap2\n      0x20\n      add\n      swap2\n      jump(tag_180)\n    tag_181:\n      dup3\n      add\n      swap2\n      swap1\n      0x00\n      mstore\n      keccak256(0x00, 0x20)\n      swap1\n    tag_182:\n      dup2\n      sload\n      dup2\n      mstore\n      swap1\n      0x01\n      add\n      swap1\n      0x20\n      add\n      dup1\n      dup4\n      gt\n      tag_182\n      jumpi\n      dup3\n      swap1\n      sub\n      0x1f\n      and\n      dup3\n      add\n      swap2\n    tag_180:\n      pop\n      pop\n      pop\n      pop\n      pop\n      swap1\n      dup1\n      0x06\n      add\n      0x00\n      swap1\n      sload\n      swap1\n      0x0100\n      exp\n      swap1\n      div\n      0xff\n      and\n      swap1\n      dup1\n      0x06\n      add\n      0x01\n      swap1\n      sload\n      swap1\n      0x0100\n      exp\n      swap1\n      div\n      0xff\n      and\n      swap1\n      pop\n      dup9\n      jump\t// out\n        /* \"@openzeppelin/contracts-upgradeable/proxy/utils/UUPSUpgradeable.sol\":4158:4372  function upgradeToAndCall(address newImplementation, bytes memory data) public payable virtual onlyProxy {... */\n    tag_67:\n        /* \"@openzeppelin/contracts-upgradeable/proxy/utils/UUPSUpgradeable.sol\":2653:2666  _checkProxy() */\n      tag_184\n        /* \"@openzeppelin/contracts-upgradeable/proxy/utils/UUPSUpgradeable.sol\":2653:2664  _checkProxy */\n      tag_185\n        /* \"@openzeppelin/contracts-upgradeable/proxy/utils/UUPSUpgradeable.sol\":2653:2666  _checkProxy() */\n      jump\t// in\n    tag_184:\n        /* \"@openzeppelin/contracts-upgradeable/proxy/utils/UUPSUpgradeable.sol\":4273:4309  _authorizeUpgrade(newImplementation) */\n      tag_187\n        /* \"@openzeppelin/contracts-upgradeable/proxy/utils/UUPSUpgradeable.sol\":4291:4308  newImplementation */\n      dup3\n        /* \"@openzeppelin/contracts-upgradeable/proxy/utils/UUPSUpgradeable.sol\":4273:4290  _authorizeUpgrade */\n      tag_188\n        /* \"@openzeppelin/contracts-upgradeable/proxy/utils/UUPSUpgradeable.sol\":4273:4309  _authorizeUpgrade(newImplementation) */\n      jump\t// in\n    tag_187:\n        /* \"@openzeppelin/contracts-upgradeable/proxy/utils/UUPSUpgradeable.sol\":4319:4365  _upgradeToAndCallUUPS(newImplementation, data) */\n      tag_189\n        /* \"@openzeppelin/contracts-upgradeable/proxy/utils/UUPSUpgradeable.sol\":4341:4358  newImplementation */\n      dup3\n        /* \"@openzeppelin/contracts-upgradeable/proxy/utils/UUPSUpgradeable.sol\":4360:4364  data */\n      dup3\n        /* \"@openzeppelin/contracts-upgradeable/proxy/utils/UUPSUpgradeable.sol\":4319:4340  _upgradeToAndCallUUPS */\n      tag_190\n        /* \"@openzeppelin/contracts-upgradeable/proxy/utils/UUPSUpgradeable.sol\":4319:4365  _upgradeToAndCallUUPS(newImplementation, data) */\n      jump\t// in\n    tag_189:\n        /* \"@openzeppelin/contracts-upgradeable/proxy/utils/UUPSUpgradeable.sol\":4158:4372  function upgradeToAndCall(address newImplementation, bytes memory data) public payable virtual onlyProxy {... */\n      pop\n      pop\n      jump\t// out\n        /* \"@openzeppelin/contracts-upgradeable/proxy/utils/UUPSUpgradeable.sol\":3705:3839  function proxiableUUID() external view virtual notDelegated returns (bytes32) {... */\n    tag_70:\n        /* \"@openzeppelin/contracts-upgradeable/proxy/utils/UUPSUpgradeable.sol\":3774:3781  bytes32 */\n      0x00\n        /* \"@openzeppelin/contracts-upgradeable/proxy/utils/UUPSUpgradeable.sol\":2924:2944  _checkNotDelegated() */\n      tag_192\n        /* \"@openzeppelin/contracts-upgradeable/proxy/utils/UUPSUpgradeable.sol\":2924:2942  _checkNotDelegated */\n      tag_193\n        /* \"@openzeppelin/contracts-upgradeable/proxy/utils/UUPSUpgradeable.sol\":2924:2944  _checkNotDelegated() */\n      jump\t// in\n    tag_192:\n        /* \"@openzeppelin/contracts/proxy/ERC1967/ERC1967Utils.sol\":1327:1393  0x360894a13ba1a3210667c828492db98dca3e2076cc3735a920a3ca505d382bbc */\n      0x360894a13ba1a3210667c828492db98dca3e2076cc3735a920a3ca505d382bbc\n        /* \"@openzeppelin/contracts-upgradeable/proxy/utils/UUPSUpgradeable.sol\":3800:3832  ERC1967Utils.IMPLEMENTATION_SLOT */\n      0x00\n      shl\n        /* \"@openzeppelin/contracts-upgradeable/proxy/utils/UUPSUpgradeable.sol\":3793:3832  return ERC1967Utils.IMPLEMENTATION_SLOT */\n      swap1\n      pop\n        /* \"@openzeppelin/contracts-upgradeable/proxy/utils/UUPSUpgradeable.sol\":3705:3839  function proxiableUUID() external view virtual notDelegated returns (bytes32) {... */\n      swap1\n      jump\t// out\n        /* \"@openzeppelin/contracts-upgradeable/utils/PausableUpgradeable.sol\":2692:2837  function paused() public view virtual returns (bool) {... */\n    tag_74:\n        /* \"@openzeppelin/contracts-upgradeable/utils/PausableUpgradeable.sol\":2739:2743  bool */\n      0x00\n        /* \"@openzeppelin/contracts-upgradeable/utils/PausableUpgradeable.sol\":2755:2780  PausableStorage storage $ */\n      dup1\n        /* \"@openzeppelin/contracts-upgradeable/utils/PausableUpgradeable.sol\":2783:2804  _getPausableStorage() */\n      tag_196\n        /* \"@openzeppelin/contracts-upgradeable/utils/PausableUpgradeable.sol\":2783:2802  _getPausableStorage */\n      tag_197\n        /* \"@openzeppelin/contracts-upgradeable/utils/PausableUpgradeable.sol\":2783:2804  _getPausableStorage() */\n      jump\t// in\n    tag_196:\n        /* \"@openzeppelin/contracts-upgradeable/utils/PausableUpgradeable.sol\":2755:2804  PausableStorage storage $ = _getPausableStorage() */\n      swap1\n      pop\n        /* \"@openzeppelin/contracts-upgradeable/utils/PausableUpgradeable.sol\":2821:2822  $ */\n      dup1\n        /* \"@openzeppelin/contracts-upgradeable/utils/PausableUpgradeable.sol\":2821:2830  $._paused */\n      0x00\n      add\n      0x00\n      swap1\n      sload\n      swap1\n      0x0100\n      exp\n      swap1\n      div\n      0xff\n      and\n        /* \"@openzeppelin/contracts-upgradeable/utils/PausableUpgradeable.sol\":2814:2830  return $._paused */\n      swap2\n      pop\n      pop\n        /* \"@openzeppelin/contracts-upgradeable/utils/PausableUpgradeable.sol\":2692:2837  function paused() public view virtual returns (bool) {... */\n      swap1\n      jump\t// out\n        /* \"contracts/Bond1.sol\":3482:3948  function performSettlement(... */\n    tag_80:\n        /* \"contracts/Bond1.sol\":3645:3646  0 */\n      0x00\n        /* \"contracts/Bond1.sol\":3627:3635  tradeIds */\n      0x01\n        /* \"contracts/Bond1.sol\":3627:3642  tradeIds.length */\n      dup1\n      sload\n      swap1\n      pop\n        /* \"contracts/Bond1.sol\":3627:3646  tradeIds.length > 0 */\n      gt\n        /* \"contracts/Bond1.sol\":3619:3670  require(tradeIds.length > 0, \"No trades available\") */\n      tag_199\n      jumpi\n      mload(0x40)\n      0x08c379a000000000000000000000000000000000000000000000000000000000\n      dup2\n      mstore\n      0x04\n      add\n      tag_200\n      swap1\n      tag_201\n      jump\t// in\n    tag_200:\n      mload(0x40)\n      dup1\n      swap2\n      sub\n      swap1\n      revert\n    tag_199:\n        /* \"contracts/Bond1.sol\":3681:3702  string memory tradeId */\n      0x00\n        /* \"contracts/Bond1.sol\":3705:3713  tradeIds */\n      0x01\n        /* \"contracts/Bond1.sol\":3732:3733  1 */\n      dup1\n        /* \"contracts/Bond1.sol\":3714:3722  tradeIds */\n      dup1\n        /* \"contracts/Bond1.sol\":3714:3729  tradeIds.length */\n      dup1\n      sload\n      swap1\n      pop\n        /* \"contracts/Bond1.sol\":3714:3733  tradeIds.length - 1 */\n      tag_202\n      swap2\n      swap1\n      tag_203\n      jump\t// in\n    tag_202:\n        /* \"contracts/Bond1.sol\":3705:3734  tradeIds[tradeIds.length - 1] */\n      dup2\n      sload\n      dup2\n      lt\n      tag_204\n      jumpi\n      tag_205\n      tag_206\n      jump\t// in\n    tag_205:\n    tag_204:\n      swap1\n      0x00\n      mstore\n      keccak256(0x00, 0x20)\n      add\n        /* \"contracts/Bond1.sol\":3681:3734  string memory tradeId = tradeIds[tradeIds.length - 1] */\n      dup1\n      sload\n      tag_208\n      swap1\n      tag_173\n      jump\t// in\n    tag_208:\n      dup1\n      0x1f\n      add\n      0x20\n      dup1\n      swap2\n      div\n      mul\n      0x20\n      add\n      mload(0x40)\n      swap1\n      dup2\n      add\n      0x40\n      mstore\n      dup1\n      swap3\n      swap2\n      swap1\n      dup2\n      dup2\n      mstore\n      0x20\n      add\n      dup3\n      dup1\n      sload\n      tag_209\n      swap1\n      tag_173\n      jump\t// in\n    tag_209:\n      dup1\n      iszero\n      tag_210\n      jumpi\n      dup1\n      0x1f\n      lt\n      tag_211\n      jumpi\n      0x0100\n      dup1\n      dup4\n      sload\n      div\n      mul\n      dup4\n      mstore\n      swap2\n      0x20\n      add\n      swap2\n      jump(tag_210)\n    tag_211:\n      dup3\n      add\n      swap2\n      swap1\n      0x00\n      mstore\n      keccak256(0x00, 0x20)\n      swap1\n    tag_212:\n      dup2\n      sload\n      dup2\n      mstore\n      swap1\n      0x01\n      add\n      swap1\n      0x20\n      add\n      dup1\n      dup4\n      gt\n      tag_212\n      jumpi\n      dup3\n      swap1\n      sub\n      0x1f\n      and\n      dup3\n      add\n      swap2\n    tag_210:\n      pop\n      pop\n      pop\n      pop\n      pop\n      swap1\n      pop\n        /* \"contracts/Bond1.sol\":3753:3759  trades */\n      0x00\n        /* \"contracts/Bond1.sol\":3760:3767  tradeId */\n      dup2\n        /* \"contracts/Bond1.sol\":3753:3768  trades[tradeId] */\n      mload(0x40)\n      tag_213\n      swap2\n      swap1\n      tag_214\n      jump\t// in\n    tag_213:\n      swap1\n      dup2\n      mstore\n      0x20\n      add\n      mload(0x40)\n      dup1\n      swap2\n      sub\n      swap1\n      keccak256\n        /* \"contracts/Bond1.sol\":3753:3778  trades[tradeId].confirmed */\n      0x06\n      add\n      0x00\n      swap1\n      sload\n      swap1\n      0x0100\n      exp\n      swap1\n      div\n      0xff\n      and\n        /* \"contracts/Bond1.sol\":3745:3802  require(trades[tradeId].confirmed, \"Trade not confirmed\") */\n      tag_215\n      jumpi\n      mload(0x40)\n      0x08c379a000000000000000000000000000000000000000000000000000000000\n      dup2\n      mstore\n      0x04\n      add\n      tag_216\n      swap1\n      tag_217\n      jump\t// in\n    tag_216:\n      mload(0x40)\n      dup1\n      swap2\n      sub\n      swap1\n      revert\n    tag_215:\n        /* \"contracts/Bond1.sol\":3839:3843  true */\n      0x01\n        /* \"contracts/Bond1.sol\":3813:3819  trades */\n      0x00\n        /* \"contracts/Bond1.sol\":3820:3827  tradeId */\n      dup3\n        /* \"contracts/Bond1.sol\":3813:3828  trades[tradeId] */\n      mload(0x40)\n      tag_218\n      swap2\n      swap1\n      tag_214\n      jump\t// in\n    tag_218:\n      swap1\n      dup2\n      mstore\n      0x20\n      add\n      mload(0x40)\n      dup1\n      swap2\n      sub\n      swap1\n      keccak256\n        /* \"contracts/Bond1.sol\":3813:3836  trades[tradeId].settled */\n      0x06\n      add\n      0x01\n        /* \"contracts/Bond1.sol\":3813:3843  trades[tradeId].settled = true */\n      0x0100\n      exp\n      dup2\n      sload\n      dup2\n      0xff\n      mul\n      not\n      and\n      swap1\n      dup4\n      iszero\n      iszero\n      mul\n      or\n      swap1\n      sstore\n      pop\n        /* \"contracts/Bond1.sol\":3886:3902  settlementAmount */\n      dup3\n        /* \"contracts/Bond1.sol\":3854:3860  trades */\n      0x00\n        /* \"contracts/Bond1.sol\":3861:3868  tradeId */\n      dup3\n        /* \"contracts/Bond1.sol\":3854:3869  trades[tradeId] */\n      mload(0x40)\n      tag_219\n      swap2\n      swap1\n      tag_214\n      jump\t// in\n    tag_219:\n      swap1\n      dup2\n      mstore\n      0x20\n      add\n      mload(0x40)\n      dup1\n      swap2\n      sub\n      swap1\n      keccak256\n        /* \"contracts/Bond1.sol\":3854:3883  trades[tradeId].paymentAmount */\n      0x04\n      add\n        /* \"contracts/Bond1.sol\":3854:3902  trades[tradeId].paymentAmount = settlementAmount */\n      dup2\n      swap1\n      sstore\n      pop\n        /* \"contracts/Bond1.sol\":3918:3940  TradeSettlementPhase() */\n      0x4145167a2ecc3424513c83e72c2d0e4a94f423754b82af0bdeaf9fd0f7a174b7\n      mload(0x40)\n      mload(0x40)\n      dup1\n      swap2\n      sub\n      swap1\n      log1\n        /* \"contracts/Bond1.sol\":3608:3948  {... */\n      pop\n        /* \"contracts/Bond1.sol\":3482:3948  function performSettlement(... */\n      pop\n      pop\n      jump\t// out\n        /* \"contracts/Bond1.sol\":4141:4498  function requestTradeTermination(... */\n    tag_85:\n        /* \"contracts/Bond1.sol\":4317:4327  msg.sender */\n      caller\n        /* \"contracts/Bond1.sol\":4288:4327  trades[tradeId].initiator == msg.sender */\n      0xffffffffffffffffffffffffffffffffffffffff\n      and\n        /* \"contracts/Bond1.sol\":4288:4294  trades */\n      0x00\n        /* \"contracts/Bond1.sol\":4295:4302  tradeId */\n      dup4\n        /* \"contracts/Bond1.sol\":4288:4303  trades[tradeId] */\n      mload(0x40)\n      tag_221\n      swap2\n      swap1\n      tag_214\n      jump\t// in\n    tag_221:\n      swap1\n      dup2\n      mstore\n      0x20\n      add\n      mload(0x40)\n      dup1\n      swap2\n      sub\n      swap1\n      keccak256\n        /* \"contracts/Bond1.sol\":4288:4313  trades[tradeId].initiator */\n      0x00\n      add\n      0x00\n      swap1\n      sload\n      swap1\n      0x0100\n      exp\n      swap1\n      div\n      0xffffffffffffffffffffffffffffffffffffffff\n      and\n        /* \"contracts/Bond1.sol\":4288:4327  trades[tradeId].initiator == msg.sender */\n      0xffffffffffffffffffffffffffffffffffffffff\n      and\n      eq\n        /* \"contracts/Bond1.sol\":4280:4349  require(trades[tradeId].initiator == msg.sender, \"Not the initiator\") */\n      tag_222\n      jumpi\n      mload(0x40)\n      0x08c379a000000000000000000000000000000000000000000000000000000000\n      dup2\n      mstore\n      0x04\n      add\n      tag_223\n      swap1\n      tag_224\n      jump\t// in\n    tag_223:\n      mload(0x40)\n      dup1\n      swap2\n      sub\n      swap1\n      revert\n    tag_222:\n        /* \"contracts/Bond1.sol\":4386:4390  true */\n      0x01\n        /* \"contracts/Bond1.sol\":4360:4366  trades */\n      0x00\n        /* \"contracts/Bond1.sol\":4367:4374  tradeId */\n      dup4\n        /* \"contracts/Bond1.sol\":4360:4375  trades[tradeId] */\n      mload(0x40)\n      tag_225\n      swap2\n      swap1\n      tag_214\n      jump\t// in\n    tag_225:\n      swap1\n      dup2\n      mstore\n      0x20\n      add\n      mload(0x40)\n      dup1\n      swap2\n      sub\n      swap1\n      keccak256\n        /* \"contracts/Bond1.sol\":4360:4383  trades[tradeId].settled */\n      0x06\n      add\n      0x01\n        /* \"contracts/Bond1.sol\":4360:4390  trades[tradeId].settled = true */\n      0x0100\n      exp\n      dup2\n      sload\n      dup2\n      0xff\n      mul\n      not\n      and\n      swap1\n      dup4\n      iszero\n      iszero\n      mul\n      or\n      swap1\n      sstore\n      pop\n        /* \"contracts/Bond1.sol\":4433:4452  _terminationPayment */\n      dup1\n        /* \"contracts/Bond1.sol\":4401:4407  trades */\n      0x00\n        /* \"contracts/Bond1.sol\":4408:4415  tradeId */\n      dup4\n        /* \"contracts/Bond1.sol\":4401:4416  trades[tradeId] */\n      mload(0x40)\n      tag_226\n      swap2\n      swap1\n      tag_214\n      jump\t// in\n    tag_226:\n      swap1\n      dup2\n      mstore\n      0x20\n      add\n      mload(0x40)\n      dup1\n      swap2\n      sub\n      swap1\n      keccak256\n        /* \"contracts/Bond1.sol\":4401:4430  trades[tradeId].paymentAmount */\n      0x04\n      add\n        /* \"contracts/Bond1.sol\":4401:4452  trades[tradeId].paymentAmount = _terminationPayment */\n      dup2\n      swap1\n      sstore\n      pop\n        /* \"contracts/Bond1.sol\":4468:4490  TradeSettlementPhase() */\n      0x4145167a2ecc3424513c83e72c2d0e4a94f423754b82af0bdeaf9fd0f7a174b7\n      mload(0x40)\n      mload(0x40)\n      dup1\n      swap2\n      sub\n      swap1\n      log1\n        /* \"contracts/Bond1.sol\":4141:4498  function requestTradeTermination(... */\n      pop\n      pop\n      jump\t// out\n        /* \"contracts/Bond1.sol\":4510:4873  function confirmTradeTermination(... */\n    tag_89:\n        /* \"contracts/Bond1.sol\":4689:4699  msg.sender */\n      caller\n        /* \"contracts/Bond1.sol\":4657:4699  trades[tradeId].counterparty == msg.sender */\n      0xffffffffffffffffffffffffffffffffffffffff\n      and\n        /* \"contracts/Bond1.sol\":4657:4663  trades */\n      0x00\n        /* \"contracts/Bond1.sol\":4664:4671  tradeId */\n      dup4\n        /* \"contracts/Bond1.sol\":4657:4672  trades[tradeId] */\n      mload(0x40)\n      tag_228\n      swap2\n      swap1\n      tag_214\n      jump\t// in\n    tag_228:\n      swap1\n      dup2\n      mstore\n      0x20\n      add\n      mload(0x40)\n      dup1\n      swap2\n      sub\n      swap1\n      keccak256\n        /* \"contracts/Bond1.sol\":4657:4685  trades[tradeId].counterparty */\n      0x01\n      add\n      0x00\n      swap1\n      sload\n      swap1\n      0x0100\n      exp\n      swap1\n      div\n      0xffffffffffffffffffffffffffffffffffffffff\n      and\n        /* \"contracts/Bond1.sol\":4657:4699  trades[tradeId].counterparty == msg.sender */\n      0xffffffffffffffffffffffffffffffffffffffff\n      and\n      eq\n        /* \"contracts/Bond1.sol\":4649:4724  require(trades[tradeId].counterparty == msg.sender, \"Not the counterparty\") */\n      tag_229\n      jumpi\n      mload(0x40)\n      0x08c379a000000000000000000000000000000000000000000000000000000000\n      dup2\n      mstore\n      0x04\n      add\n      tag_230\n      swap1\n      tag_231\n      jump\t// in\n    tag_230:\n      mload(0x40)\n      dup1\n      swap2\n      sub\n      swap1\n      revert\n    tag_229:\n        /* \"contracts/Bond1.sol\":4761:4765  true */\n      0x01\n        /* \"contracts/Bond1.sol\":4735:4741  trades */\n      0x00\n        /* \"contracts/Bond1.sol\":4742:4749  tradeId */\n      dup4\n        /* \"contracts/Bond1.sol\":4735:4750  trades[tradeId] */\n      mload(0x40)\n      tag_232\n      swap2\n      swap1\n      tag_214\n      jump\t// in\n    tag_232:\n      swap1\n      dup2\n      mstore\n      0x20\n      add\n      mload(0x40)\n      dup1\n      swap2\n      sub\n      swap1\n      keccak256\n        /* \"contracts/Bond1.sol\":4735:4758  trades[tradeId].settled */\n      0x06\n      add\n      0x01\n        /* \"contracts/Bond1.sol\":4735:4765  trades[tradeId].settled = true */\n      0x0100\n      exp\n      dup2\n      sload\n      dup2\n      0xff\n      mul\n      not\n      and\n      swap1\n      dup4\n      iszero\n      iszero\n      mul\n      or\n      swap1\n      sstore\n      pop\n        /* \"contracts/Bond1.sol\":4808:4827  _terminationPayment */\n      dup1\n        /* \"contracts/Bond1.sol\":4776:4782  trades */\n      0x00\n        /* \"contracts/Bond1.sol\":4783:4790  tradeId */\n      dup4\n        /* \"contracts/Bond1.sol\":4776:4791  trades[tradeId] */\n      mload(0x40)\n      tag_233\n      swap2\n      swap1\n      tag_214\n      jump\t// in\n    tag_233:\n      swap1\n      dup2\n      mstore\n      0x20\n      add\n      mload(0x40)\n      dup1\n      swap2\n      sub\n      swap1\n      keccak256\n        /* \"contracts/Bond1.sol\":4776:4805  trades[tradeId].paymentAmount */\n      0x04\n      add\n        /* \"contracts/Bond1.sol\":4776:4827  trades[tradeId].paymentAmount = _terminationPayment */\n      dup2\n      swap1\n      sstore\n      pop\n        /* \"contracts/Bond1.sol\":4843:4865  TradeSettlementPhase() */\n      0x4145167a2ecc3424513c83e72c2d0e4a94f423754b82af0bdeaf9fd0f7a174b7\n      mload(0x40)\n      mload(0x40)\n      dup1\n      swap2\n      sub\n      swap1\n      log1\n        /* \"contracts/Bond1.sol\":4510:4873  function confirmTradeTermination(... */\n      pop\n      pop\n      jump\t// out\n        /* \"contracts/Bond1.sol\":1566:1639  function pause() public onlyRole(PAUSER_ROLE) {... */\n    tag_92:\n        /* \"contracts/Bond1.sol\":977:1001  keccak256(\"PAUSER_ROLE\") */\n      0x65d7a28e3265b37a6474929f336521b332c1681b933f6cb9f3376673440d862a\n        /* \"@openzeppelin/contracts-upgradeable/access/AccessControlUpgradeable.sol\":3191:3207  _checkRole(role) */\n      tag_235\n        /* \"@openzeppelin/contracts-upgradeable/access/AccessControlUpgradeable.sol\":3202:3206  role */\n      dup2\n        /* \"@openzeppelin/contracts-upgradeable/access/AccessControlUpgradeable.sol\":3191:3201  _checkRole */\n      tag_157\n        /* \"@openzeppelin/contracts-upgradeable/access/AccessControlUpgradeable.sol\":3191:3207  _checkRole(role) */\n      jump\t// in\n    tag_235:\n        /* \"contracts/Bond1.sol\":1623:1631  _pause() */\n      tag_237\n        /* \"contracts/Bond1.sol\":1623:1629  _pause */\n      tag_238\n        /* \"contracts/Bond1.sol\":1623:1631  _pause() */\n      jump\t// in\n    tag_237:\n        /* \"contracts/Bond1.sol\":1566:1639  function pause() public onlyRole(PAUSER_ROLE) {... */\n      pop\n      jump\t// out\n        /* \"contracts/Bond1.sol\":2519:3024  function confirmTrade(... */\n    tag_97:\n        /* \"contracts/Bond1.sol\":2748:2769  string memory tradeId */\n      0x00\n        /* \"contracts/Bond1.sol\":2796:2806  _tradeData */\n      dup5\n        /* \"contracts/Bond1.sol\":2808:2817  _position */\n      dup5\n        /* \"contracts/Bond1.sol\":2819:2834  block.timestamp */\n      timestamp\n        /* \"contracts/Bond1.sol\":2779:2835  abi.encodePacked(_tradeData, _position, block.timestamp) */\n      add(0x20, mload(0x40))\n      tag_240\n      swap4\n      swap3\n      swap2\n      swap1\n      tag_241\n      jump\t// in\n    tag_240:\n      mload(0x40)\n      0x20\n      dup2\n      dup4\n      sub\n      sub\n      dup2\n      mstore\n      swap1\n      0x40\n      mstore\n        /* \"contracts/Bond1.sol\":2748:2836  string memory tradeId = string(abi.encodePacked(_tradeData, _position, block.timestamp)) */\n      swap1\n      pop\n        /* \"contracts/Bond1.sol\":2887:2897  msg.sender */\n      caller\n        /* \"contracts/Bond1.sol\":2855:2897  trades[tradeId].counterparty == msg.sender */\n      0xffffffffffffffffffffffffffffffffffffffff\n      and\n        /* \"contracts/Bond1.sol\":2855:2861  trades */\n      0x00\n        /* \"contracts/Bond1.sol\":2862:2869  tradeId */\n      dup3\n        /* \"contracts/Bond1.sol\":2855:2870  trades[tradeId] */\n      mload(0x40)\n      tag_242\n      swap2\n      swap1\n      tag_214\n      jump\t// in\n    tag_242:\n      swap1\n      dup2\n      mstore\n      0x20\n      add\n      mload(0x40)\n      dup1\n      swap2\n      sub\n      swap1\n      keccak256\n        /* \"contracts/Bond1.sol\":2855:2883  trades[tradeId].counterparty */\n      0x01\n      add\n      0x00\n      swap1\n      sload\n      swap1\n      0x0100\n      exp\n      swap1\n      div\n      0xffffffffffffffffffffffffffffffffffffffff\n      and\n        /* \"contracts/Bond1.sol\":2855:2897  trades[tradeId].counterparty == msg.sender */\n      0xffffffffffffffffffffffffffffffffffffffff\n      and\n      eq\n        /* \"contracts/Bond1.sol\":2847:2922  require(trades[tradeId].counterparty == msg.sender, \"Not the counterparty\") */\n      tag_243\n      jumpi\n      mload(0x40)\n      0x08c379a000000000000000000000000000000000000000000000000000000000\n      dup2\n      mstore\n      0x04\n      add\n      tag_244\n      swap1\n      tag_231\n      jump\t// in\n    tag_244:\n      mload(0x40)\n      dup1\n      swap2\n      sub\n      swap1\n      revert\n    tag_243:\n        /* \"contracts/Bond1.sol\":2961:2965  true */\n      0x01\n        /* \"contracts/Bond1.sol\":2933:2939  trades */\n      0x00\n        /* \"contracts/Bond1.sol\":2940:2947  tradeId */\n      dup3\n        /* \"contracts/Bond1.sol\":2933:2948  trades[tradeId] */\n      mload(0x40)\n      tag_245\n      swap2\n      swap1\n      tag_214\n      jump\t// in\n    tag_245:\n      swap1\n      dup2\n      mstore\n      0x20\n      add\n      mload(0x40)\n      dup1\n      swap2\n      sub\n      swap1\n      keccak256\n        /* \"contracts/Bond1.sol\":2933:2958  trades[tradeId].confirmed */\n      0x06\n      add\n      0x00\n        /* \"contracts/Bond1.sol\":2933:2965  trades[tradeId].confirmed = true */\n      0x0100\n      exp\n      dup2\n      sload\n      dup2\n      0xff\n      mul\n      not\n      and\n      swap1\n      dup4\n      iszero\n      iszero\n      mul\n      or\n      swap1\n      sstore\n      pop\n        /* \"contracts/Bond1.sol\":2981:3016  TradeConfirmed(msg.sender, tradeId) */\n      0x02f9110550f3374364c85539074b740b7bfed285798d152502c5f2dfd745cf00\n        /* \"contracts/Bond1.sol\":2996:3006  msg.sender */\n      caller\n        /* \"contracts/Bond1.sol\":3008:3015  tradeId */\n      dup3\n        /* \"contracts/Bond1.sol\":2981:3016  TradeConfirmed(msg.sender, tradeId) */\n      mload(0x40)\n      tag_246\n      swap3\n      swap2\n      swap1\n      tag_247\n      jump\t// in\n    tag_246:\n      mload(0x40)\n      dup1\n      swap2\n      sub\n      swap1\n      log1\n        /* \"contracts/Bond1.sol\":2737:3024  {... */\n      pop\n        /* \"contracts/Bond1.sol\":2519:3024  function confirmTrade(... */\n      pop\n      pop\n      pop\n      pop\n      pop\n      jump\t// out\n        /* \"@openzeppelin/contracts-upgradeable/access/AccessControlUpgradeable.sol\":3732:3939  function hasRole(bytes32 role, address account) public view virtual returns (bool) {... */\n    tag_101:\n        /* \"@openzeppelin/contracts-upgradeable/access/AccessControlUpgradeable.sol\":3809:3813  bool */\n      0x00\n        /* \"@openzeppelin/contracts-upgradeable/access/AccessControlUpgradeable.sol\":3825:3855  AccessControlStorage storage $ */\n      dup1\n        /* \"@openzeppelin/contracts-upgradeable/access/AccessControlUpgradeable.sol\":3858:3884  _getAccessControlStorage() */\n      tag_249\n        /* \"@openzeppelin/contracts-upgradeable/access/AccessControlUpgradeable.sol\":3858:3882  _getAccessControlStorage */\n      tag_153\n        /* \"@openzeppelin/contracts-upgradeable/access/AccessControlUpgradeable.sol\":3858:3884  _getAccessControlStorage() */\n      jump\t// in\n    tag_249:\n        /* \"@openzeppelin/contracts-upgradeable/access/AccessControlUpgradeable.sol\":3825:3884  AccessControlStorage storage $ = _getAccessControlStorage() */\n      swap1\n      pop\n        /* \"@openzeppelin/contracts-upgradeable/access/AccessControlUpgradeable.sol\":3901:3902  $ */\n      dup1\n        /* \"@openzeppelin/contracts-upgradeable/access/AccessControlUpgradeable.sol\":3901:3909  $._roles */\n      0x00\n      add\n        /* \"@openzeppelin/contracts-upgradeable/access/AccessControlUpgradeable.sol\":3901:3915  $._roles[role] */\n      0x00\n        /* \"@openzeppelin/contracts-upgradeable/access/AccessControlUpgradeable.sol\":3910:3914  role */\n      dup6\n        /* \"@openzeppelin/contracts-upgradeable/access/AccessControlUpgradeable.sol\":3901:3915  $._roles[role] */\n      dup2\n      mstore\n      0x20\n      add\n      swap1\n      dup2\n      mstore\n      0x20\n      add\n      0x00\n      keccak256\n        /* \"@openzeppelin/contracts-upgradeable/access/AccessControlUpgradeable.sol\":3901:3923  $._roles[role].hasRole */\n      0x00\n      add\n        /* \"@openzeppelin/contracts-upgradeable/access/AccessControlUpgradeable.sol\":3901:3932  $._roles[role].hasRole[account] */\n      0x00\n        /* \"@openzeppelin/contracts-upgradeable/access/AccessControlUpgradeable.sol\":3924:3931  account */\n      dup5\n        /* \"@openzeppelin/contracts-upgradeable/access/AccessControlUpgradeable.sol\":3901:3932  $._roles[role].hasRole[account] */\n      0xffffffffffffffffffffffffffffffffffffffff\n      and\n      0xffffffffffffffffffffffffffffffffffffffff\n      and\n      dup2\n      mstore\n      0x20\n      add\n      swap1\n      dup2\n      mstore\n      0x20\n      add\n      0x00\n      keccak256\n      0x00\n      swap1\n      sload\n      swap1\n      0x0100\n      exp\n      swap1\n      div\n      0xff\n      and\n        /* \"@openzeppelin/contracts-upgradeable/access/AccessControlUpgradeable.sol\":3894:3932  return $._roles[role].hasRole[account] */\n      swap2\n      pop\n      pop\n        /* \"@openzeppelin/contracts-upgradeable/access/AccessControlUpgradeable.sol\":3732:3939  function hasRole(bytes32 role, address account) public view virtual returns (bool) {... */\n      swap3\n      swap2\n      pop\n      pop\n      jump\t// out\n        /* \"@openzeppelin/contracts-upgradeable/access/AccessControlUpgradeable.sol\":2317:2366  bytes32 public constant DEFAULT_ADMIN_ROLE = 0x00 */\n    tag_105:\n        /* \"@openzeppelin/contracts-upgradeable/access/AccessControlUpgradeable.sol\":2362:2366  0x00 */\n      0x00\n        /* \"@openzeppelin/contracts-upgradeable/access/AccessControlUpgradeable.sol\":2317:2366  bytes32 public constant DEFAULT_ADMIN_ROLE = 0x00 */\n      dup1\n      shl\n      dup2\n      jump\t// out\n        /* \"@openzeppelin/contracts-upgradeable/proxy/utils/UUPSUpgradeable.sol\":1819:1877  string public constant UPGRADE_INTERFACE_VERSION = \"5.0.0\" */\n    tag_109:\n      mload(0x40)\n      dup1\n      0x40\n      add\n      0x40\n      mstore\n      dup1\n      0x05\n      dup2\n      mstore\n      0x20\n      add\n      0x352e302e30000000000000000000000000000000000000000000000000000000\n      dup2\n      mstore\n      pop\n      dup2\n      jump\t// out\n        /* \"contracts/Bond1.sol\":1200:1558  function initialize(address defaultAdmin, address pauser, address upgrader)... */\n    tag_116:\n        /* \"@openzeppelin/contracts-upgradeable/proxy/utils/Initializable.sol\":4158:4188  InitializableStorage storage $ */\n      0x00\n        /* \"@openzeppelin/contracts-upgradeable/proxy/utils/Initializable.sol\":4191:4217  _getInitializableStorage() */\n      tag_251\n        /* \"@openzeppelin/contracts-upgradeable/proxy/utils/Initializable.sol\":4191:4215  _getInitializableStorage */\n      tag_252\n        /* \"@openzeppelin/contracts-upgradeable/proxy/utils/Initializable.sol\":4191:4217  _getInitializableStorage() */\n      jump\t// in\n    tag_251:\n        /* \"@openzeppelin/contracts-upgradeable/proxy/utils/Initializable.sol\":4158:4217  InitializableStorage storage $ = _getInitializableStorage() */\n      swap1\n      pop\n        /* \"@openzeppelin/contracts-upgradeable/proxy/utils/Initializable.sol\":4279:4298  bool isTopLevelCall */\n      0x00\n        /* \"@openzeppelin/contracts-upgradeable/proxy/utils/Initializable.sol\":4302:4303  $ */\n      dup2\n        /* \"@openzeppelin/contracts-upgradeable/proxy/utils/Initializable.sol\":4302:4317  $._initializing */\n      0x00\n      add\n      0x08\n      swap1\n      sload\n      swap1\n      0x0100\n      exp\n      swap1\n      div\n      0xff\n      and\n        /* \"@openzeppelin/contracts-upgradeable/proxy/utils/Initializable.sol\":4301:4317  !$._initializing */\n      iszero\n        /* \"@openzeppelin/contracts-upgradeable/proxy/utils/Initializable.sol\":4279:4317  bool isTopLevelCall = !$._initializing */\n      swap1\n      pop\n        /* \"@openzeppelin/contracts-upgradeable/proxy/utils/Initializable.sol\":4327:4345  uint64 initialized */\n      0x00\n        /* \"@openzeppelin/contracts-upgradeable/proxy/utils/Initializable.sol\":4348:4349  $ */\n      dup3\n        /* \"@openzeppelin/contracts-upgradeable/proxy/utils/Initializable.sol\":4348:4362  $._initialized */\n      0x00\n      add\n      0x00\n      swap1\n      sload\n      swap1\n      0x0100\n      exp\n      swap1\n      div\n      0xffffffffffffffff\n      and\n        /* \"@openzeppelin/contracts-upgradeable/proxy/utils/Initializable.sol\":4327:4362  uint64 initialized = $._initialized */\n      swap1\n      pop\n        /* \"@openzeppelin/contracts-upgradeable/proxy/utils/Initializable.sol\":4706:4723  bool initialSetup */\n      0x00\n        /* \"@openzeppelin/contracts-upgradeable/proxy/utils/Initializable.sol\":4741:4742  0 */\n      dup1\n        /* \"@openzeppelin/contracts-upgradeable/proxy/utils/Initializable.sol\":4726:4737  initialized */\n      dup3\n        /* \"@openzeppelin/contracts-upgradeable/proxy/utils/Initializable.sol\":4726:4742  initialized == 0 */\n      0xffffffffffffffff\n      and\n      eq\n        /* \"@openzeppelin/contracts-upgradeable/proxy/utils/Initializable.sol\":4726:4760  initialized == 0 && isTopLevelCall */\n      dup1\n      iszero\n      tag_253\n      jumpi\n      pop\n        /* \"@openzeppelin/contracts-upgradeable/proxy/utils/Initializable.sol\":4746:4760  isTopLevelCall */\n      dup3\n        /* \"@openzeppelin/contracts-upgradeable/proxy/utils/Initializable.sol\":4726:4760  initialized == 0 && isTopLevelCall */\n    tag_253:\n        /* \"@openzeppelin/contracts-upgradeable/proxy/utils/Initializable.sol\":4706:4760  bool initialSetup = initialized == 0 && isTopLevelCall */\n      swap1\n      pop\n        /* \"@openzeppelin/contracts-upgradeable/proxy/utils/Initializable.sol\":4770:4787  bool construction */\n      0x00\n        /* \"@openzeppelin/contracts-upgradeable/proxy/utils/Initializable.sol\":4805:4806  1 */\n      0x01\n        /* \"@openzeppelin/contracts-upgradeable/proxy/utils/Initializable.sol\":4790:4801  initialized */\n      dup4\n        /* \"@openzeppelin/contracts-upgradeable/proxy/utils/Initializable.sol\":4790:4806  initialized == 1 */\n      0xffffffffffffffff\n      and\n      eq\n        /* \"@openzeppelin/contracts-upgradeable/proxy/utils/Initializable.sol\":4790:4840  initialized == 1 && address(this).code.length == 0 */\n      dup1\n      iszero\n      tag_254\n      jumpi\n      pop\n        /* \"@openzeppelin/contracts-upgradeable/proxy/utils/Initializable.sol\":4839:4840  0 */\n      0x00\n        /* \"@openzeppelin/contracts-upgradeable/proxy/utils/Initializable.sol\":4818:4822  this */\n      address\n        /* \"@openzeppelin/contracts-upgradeable/proxy/utils/Initializable.sol\":4810:4835  address(this).code.length */\n      0xffffffffffffffffffffffffffffffffffffffff\n      and\n      extcodesize\n        /* \"@openzeppelin/contracts-upgradeable/proxy/utils/Initializable.sol\":4810:4840  address(this).code.length == 0 */\n      eq\n        /* \"@openzeppelin/contracts-upgradeable/proxy/utils/Initializable.sol\":4790:4840  initialized == 1 && address(this).code.length == 0 */\n    tag_254:\n        /* \"@openzeppelin/contracts-upgradeable/proxy/utils/Initializable.sol\":4770:4840  bool construction = initialized == 1 && address(this).code.length == 0 */\n      swap1\n      pop\n        /* \"@openzeppelin/contracts-upgradeable/proxy/utils/Initializable.sol\":4856:4868  initialSetup */\n      dup2\n        /* \"@openzeppelin/contracts-upgradeable/proxy/utils/Initializable.sol\":4855:4868  !initialSetup */\n      iszero\n        /* \"@openzeppelin/contracts-upgradeable/proxy/utils/Initializable.sol\":4855:4885  !initialSetup && !construction */\n      dup1\n      iszero\n      tag_255\n      jumpi\n      pop\n        /* \"@openzeppelin/contracts-upgradeable/proxy/utils/Initializable.sol\":4873:4885  construction */\n      dup1\n        /* \"@openzeppelin/contracts-upgradeable/proxy/utils/Initializable.sol\":4872:4885  !construction */\n      iszero\n        /* \"@openzeppelin/contracts-upgradeable/proxy/utils/Initializable.sol\":4855:4885  !initialSetup && !construction */\n    tag_255:\n        /* \"@openzeppelin/contracts-upgradeable/proxy/utils/Initializable.sol\":4851:4942  if (!initialSetup && !construction) {... */\n      iszero\n      tag_256\n      jumpi\n        /* \"@openzeppelin/contracts-upgradeable/proxy/utils/Initializable.sol\":4908:4931  InvalidInitialization() */\n      mload(0x40)\n      0xf92ee8a900000000000000000000000000000000000000000000000000000000\n      dup2\n      mstore\n      0x04\n      add\n      mload(0x40)\n      dup1\n      swap2\n      sub\n      swap1\n      revert\n        /* \"@openzeppelin/contracts-upgradeable/proxy/utils/Initializable.sol\":4851:4942  if (!initialSetup && !construction) {... */\n    tag_256:\n        /* \"@openzeppelin/contracts-upgradeable/proxy/utils/Initializable.sol\":4968:4969  1 */\n      0x01\n        /* \"@openzeppelin/contracts-upgradeable/proxy/utils/Initializable.sol\":4951:4952  $ */\n      dup6\n        /* \"@openzeppelin/contracts-upgradeable/proxy/utils/Initializable.sol\":4951:4965  $._initialized */\n      0x00\n      add\n      0x00\n        /* \"@openzeppelin/contracts-upgradeable/proxy/utils/Initializable.sol\":4951:4969  $._initialized = 1 */\n      0x0100\n      exp\n      dup2\n      sload\n      dup2\n      0xffffffffffffffff\n      mul\n      not\n      and\n      swap1\n      dup4\n      0xffffffffffffffff\n      and\n      mul\n      or\n      swap1\n      sstore\n      pop\n        /* \"@openzeppelin/contracts-upgradeable/proxy/utils/Initializable.sol\":4983:4997  isTopLevelCall */\n      dup4\n        /* \"@openzeppelin/contracts-upgradeable/proxy/utils/Initializable.sol\":4979:5046  if (isTopLevelCall) {... */\n      iszero\n      tag_257\n      jumpi\n        /* \"@openzeppelin/contracts-upgradeable/proxy/utils/Initializable.sol\":5031:5035  true */\n      0x01\n        /* \"@openzeppelin/contracts-upgradeable/proxy/utils/Initializable.sol\":5013:5014  $ */\n      dup6\n        /* \"@openzeppelin/contracts-upgradeable/proxy/utils/Initializable.sol\":5013:5028  $._initializing */\n      0x00\n      add\n      0x08\n        /* \"@openzeppelin/contracts-upgradeable/proxy/utils/Initializable.sol\":5013:5035  $._initializing = true */\n      0x0100\n      exp\n      dup2\n      sload\n      dup2\n      0xff\n      mul\n      not\n      and\n      swap1\n      dup4\n      iszero\n      iszero\n      mul\n      or\n      swap1\n      sstore\n      pop\n        /* \"@openzeppelin/contracts-upgradeable/proxy/utils/Initializable.sol\":4979:5046  if (isTopLevelCall) {... */\n    tag_257:\n        /* \"contracts/Bond1.sol\":1320:1337  __Pausable_init() */\n      tag_259\n        /* \"contracts/Bond1.sol\":1320:1335  __Pausable_init */\n      tag_260\n        /* \"contracts/Bond1.sol\":1320:1337  __Pausable_init() */\n      jump\t// in\n    tag_259:\n        /* \"contracts/Bond1.sol\":1348:1370  __AccessControl_init() */\n      tag_261\n        /* \"contracts/Bond1.sol\":1348:1368  __AccessControl_init */\n      tag_262\n        /* \"contracts/Bond1.sol\":1348:1370  __AccessControl_init() */\n      jump\t// in\n    tag_261:\n        /* \"contracts/Bond1.sol\":1381:1405  __UUPSUpgradeable_init() */\n      tag_263\n        /* \"contracts/Bond1.sol\":1381:1403  __UUPSUpgradeable_init */\n      tag_264\n        /* \"contracts/Bond1.sol\":1381:1405  __UUPSUpgradeable_init() */\n      jump\t// in\n    tag_263:\n        /* \"contracts/Bond1.sol\":1418:1462  _grantRole(DEFAULT_ADMIN_ROLE, defaultAdmin) */\n      tag_265\n        /* \"@openzeppelin/contracts-upgradeable/access/AccessControlUpgradeable.sol\":2362:2366  0x00 */\n      0x00\n        /* \"contracts/Bond1.sol\":1429:1447  DEFAULT_ADMIN_ROLE */\n      dup1\n      shl\n        /* \"contracts/Bond1.sol\":1449:1461  defaultAdmin */\n      dup10\n        /* \"contracts/Bond1.sol\":1418:1428  _grantRole */\n      tag_160\n        /* \"contracts/Bond1.sol\":1418:1462  _grantRole(DEFAULT_ADMIN_ROLE, defaultAdmin) */\n      jump\t// in\n    tag_265:\n      pop\n        /* \"contracts/Bond1.sol\":1473:1504  _grantRole(PAUSER_ROLE, pauser) */\n      tag_266\n        /* \"contracts/Bond1.sol\":977:1001  keccak256(\"PAUSER_ROLE\") */\n      0x65d7a28e3265b37a6474929f336521b332c1681b933f6cb9f3376673440d862a\n        /* \"contracts/Bond1.sol\":1497:1503  pauser */\n      dup9\n        /* \"contracts/Bond1.sol\":1473:1483  _grantRole */\n      tag_160\n        /* \"contracts/Bond1.sol\":1473:1504  _grantRole(PAUSER_ROLE, pauser) */\n      jump\t// in\n    tag_266:\n      pop\n        /* \"contracts/Bond1.sol\":1515:1550  _grantRole(UPGRADER_ROLE, upgrader) */\n      tag_267\n        /* \"contracts/Bond1.sol\":1048:1074  keccak256(\"UPGRADER_ROLE\") */\n      0x189ab7a9244df0848122154315af71fe140f3db0fe014031783b0946b8c9d2e3\n        /* \"contracts/Bond1.sol\":1541:1549  upgrader */\n      dup8\n        /* \"contracts/Bond1.sol\":1515:1525  _grantRole */\n      tag_160\n        /* \"contracts/Bond1.sol\":1515:1550  _grantRole(UPGRADER_ROLE, upgrader) */\n      jump\t// in\n    tag_267:\n      pop\n        /* \"@openzeppelin/contracts-upgradeable/proxy/utils/Initializable.sol\":5070:5084  isTopLevelCall */\n      dup4\n        /* \"@openzeppelin/contracts-upgradeable/proxy/utils/Initializable.sol\":5066:5167  if (isTopLevelCall) {... */\n      iszero\n      tag_268\n      jumpi\n        /* \"@openzeppelin/contracts-upgradeable/proxy/utils/Initializable.sol\":5118:5123  false */\n      0x00\n        /* \"@openzeppelin/contracts-upgradeable/proxy/utils/Initializable.sol\":5100:5101  $ */\n      dup6\n        /* \"@openzeppelin/contracts-upgradeable/proxy/utils/Initializable.sol\":5100:5115  $._initializing */\n      0x00\n      add\n      0x08\n        /* \"@openzeppelin/contracts-upgradeable/proxy/utils/Initializable.sol\":5100:5123  $._initializing = false */\n      0x0100\n      exp\n      dup2\n      sload\n      dup2\n      0xff\n      mul\n      not\n      and\n      swap1\n      dup4\n      iszero\n      iszero\n      mul\n      or\n      swap1\n      sstore\n      pop\n        /* \"@openzeppelin/contracts-upgradeable/proxy/utils/Initializable.sol\":5142:5156  Initialized(1) */\n      0xc7f505b2f371ae2175ee4913f4499e1f2633a7b5936321eed1cdaeb6115181d2\n        /* \"@openzeppelin/contracts-upgradeable/proxy/utils/Initializable.sol\":5154:5155  1 */\n      0x01\n        /* \"@openzeppelin/contracts-upgradeable/proxy/utils/Initializable.sol\":5142:5156  Initialized(1) */\n      mload(0x40)\n      tag_269\n      swap2\n      swap1\n      tag_270\n      jump\t// in\n    tag_269:\n      mload(0x40)\n      dup1\n      swap2\n      sub\n      swap1\n      log1\n        /* \"@openzeppelin/contracts-upgradeable/proxy/utils/Initializable.sol\":5066:5167  if (isTopLevelCall) {... */\n    tag_268:\n        /* \"@openzeppelin/contracts-upgradeable/proxy/utils/Initializable.sol\":4092:5173  {... */\n      pop\n      pop\n      pop\n      pop\n      pop\n        /* \"contracts/Bond1.sol\":1200:1558  function initialize(address defaultAdmin, address pauser, address upgrader)... */\n      pop\n      pop\n      pop\n      jump\t// out\n        /* \"contracts/Bond1.sol\":3036:3470  function initiateSettlement() external override {... */\n    tag_119:\n        /* \"contracts/Bond1.sol\":3201:3202  0 */\n      0x00\n        /* \"contracts/Bond1.sol\":3183:3191  tradeIds */\n      0x01\n        /* \"contracts/Bond1.sol\":3183:3198  tradeIds.length */\n      dup1\n      sload\n      swap1\n      pop\n        /* \"contracts/Bond1.sol\":3183:3202  tradeIds.length > 0 */\n      gt\n        /* \"contracts/Bond1.sol\":3175:3226  require(tradeIds.length > 0, \"No trades available\") */\n      tag_272\n      jumpi\n      mload(0x40)\n      0x08c379a000000000000000000000000000000000000000000000000000000000\n      dup2\n      mstore\n      0x04\n      add\n      tag_273\n      swap1\n      tag_201\n      jump\t// in\n    tag_273:\n      mload(0x40)\n      dup1\n      swap2\n      sub\n      swap1\n      revert\n    tag_272:\n        /* \"contracts/Bond1.sol\":3237:3258  string memory tradeId */\n      0x00\n        /* \"contracts/Bond1.sol\":3261:3269  tradeIds */\n      0x01\n        /* \"contracts/Bond1.sol\":3288:3289  1 */\n      dup1\n        /* \"contracts/Bond1.sol\":3270:3278  tradeIds */\n      dup1\n        /* \"contracts/Bond1.sol\":3270:3285  tradeIds.length */\n      dup1\n      sload\n      swap1\n      pop\n        /* \"contracts/Bond1.sol\":3270:3289  tradeIds.length - 1 */\n      tag_274\n      swap2\n      swap1\n      tag_203\n      jump\t// in\n    tag_274:\n        /* \"contracts/Bond1.sol\":3261:3290  tradeIds[tradeIds.length - 1] */\n      dup2\n      sload\n      dup2\n      lt\n      tag_275\n      jumpi\n      tag_276\n      tag_206\n      jump\t// in\n    tag_276:\n    tag_275:\n      swap1\n      0x00\n      mstore\n      keccak256(0x00, 0x20)\n      add\n        /* \"contracts/Bond1.sol\":3237:3290  string memory tradeId = tradeIds[tradeIds.length - 1] */\n      dup1\n      sload\n      tag_278\n      swap1\n      tag_173\n      jump\t// in\n    tag_278:\n      dup1\n      0x1f\n      add\n      0x20\n      dup1\n      swap2\n      div\n      mul\n      0x20\n      add\n      mload(0x40)\n      swap1\n      dup2\n      add\n      0x40\n      mstore\n      dup1\n      swap3\n      swap2\n      swap1\n      dup2\n      dup2\n      mstore\n      0x20\n      add\n      dup3\n      dup1\n      sload\n      tag_279\n      swap1\n      tag_173\n      jump\t// in\n    tag_279:\n      dup1\n      iszero\n      tag_280\n      jumpi\n      dup1\n      0x1f\n      lt\n      tag_281\n      jumpi\n      0x0100\n      dup1\n      dup4\n      sload\n      div\n      mul\n      dup4\n      mstore\n      swap2\n      0x20\n      add\n      swap2\n      jump(tag_280)\n    tag_281:\n      dup3\n      add\n      swap2\n      swap1\n      0x00\n      mstore\n      keccak256(0x00, 0x20)\n      swap1\n    tag_282:\n      dup2\n      sload\n      dup2\n      mstore\n      swap1\n      0x01\n      add\n      swap1\n      0x20\n      add\n      dup1\n      dup4\n      gt\n      tag_282\n      jumpi\n      dup3\n      swap1\n      sub\n      0x1f\n      and\n      dup3\n      add\n      swap2\n    tag_280:\n      pop\n      pop\n      pop\n      pop\n      pop\n      swap1\n      pop\n        /* \"contracts/Bond1.sol\":3309:3315  trades */\n      0x00\n        /* \"contracts/Bond1.sol\":3316:3323  tradeId */\n      dup2\n        /* \"contracts/Bond1.sol\":3309:3324  trades[tradeId] */\n      mload(0x40)\n      tag_283\n      swap2\n      swap1\n      tag_214\n      jump\t// in\n    tag_283:\n      swap1\n      dup2\n      mstore\n      0x20\n      add\n      mload(0x40)\n      dup1\n      swap2\n      sub\n      swap1\n      keccak256\n        /* \"contracts/Bond1.sol\":3309:3334  trades[tradeId].confirmed */\n      0x06\n      add\n      0x00\n      swap1\n      sload\n      swap1\n      0x0100\n      exp\n      swap1\n      div\n      0xff\n      and\n        /* \"contracts/Bond1.sol\":3301:3358  require(trades[tradeId].confirmed, \"Trade not confirmed\") */\n      tag_284\n      jumpi\n      mload(0x40)\n      0x08c379a000000000000000000000000000000000000000000000000000000000\n      dup2\n      mstore\n      0x04\n      add\n      tag_285\n      swap1\n      tag_217\n      jump\t// in\n    tag_285:\n      mload(0x40)\n      dup1\n      swap2\n      sub\n      swap1\n      revert\n    tag_284:\n        /* \"contracts/Bond1.sol\":3374:3462  TradeSettlementRequest(trades[tradeId].tradeData, trades[tradeId].initialSettlementData) */\n      0xf31a94b3b4c854e5a4adea9f6082ab58856d3750c9a0182c2d9641bda7c09fc5\n        /* \"contracts/Bond1.sol\":3397:3403  trades */\n      0x00\n        /* \"contracts/Bond1.sol\":3404:3411  tradeId */\n      dup3\n        /* \"contracts/Bond1.sol\":3397:3412  trades[tradeId] */\n      mload(0x40)\n      tag_286\n      swap2\n      swap1\n      tag_214\n      jump\t// in\n    tag_286:\n      swap1\n      dup2\n      mstore\n      0x20\n      add\n      mload(0x40)\n      dup1\n      swap2\n      sub\n      swap1\n      keccak256\n        /* \"contracts/Bond1.sol\":3397:3422  trades[tradeId].tradeData */\n      0x02\n      add\n        /* \"contracts/Bond1.sol\":3424:3430  trades */\n      0x00\n        /* \"contracts/Bond1.sol\":3431:3438  tradeId */\n      dup4\n        /* \"contracts/Bond1.sol\":3424:3439  trades[tradeId] */\n      mload(0x40)\n      tag_287\n      swap2\n      swap1\n      tag_214\n      jump\t// in\n    tag_287:\n      swap1\n      dup2\n      mstore\n      0x20\n      add\n      mload(0x40)\n      dup1\n      swap2\n      sub\n      swap1\n      keccak256\n        /* \"contracts/Bond1.sol\":3424:3461  trades[tradeId].initialSettlementData */\n      0x05\n      add\n        /* \"contracts/Bond1.sol\":3374:3462  TradeSettlementRequest(trades[tradeId].tradeData, trades[tradeId].initialSettlementData) */\n      mload(0x40)\n      tag_288\n      swap3\n      swap2\n      swap1\n      tag_289\n      jump\t// in\n    tag_288:\n      mload(0x40)\n      dup1\n      swap2\n      sub\n      swap1\n      log1\n        /* \"contracts/Bond1.sol\":3084:3470  {... */\n      pop\n        /* \"contracts/Bond1.sol\":3036:3470  function initiateSettlement() external override {... */\n      jump\t// out\n        /* \"@openzeppelin/contracts-upgradeable/access/AccessControlUpgradeable.sol\":5662:5800  function revokeRole(bytes32 role, address account) public virtual onlyRole(getRoleAdmin(role)) {... */\n    tag_123:\n        /* \"@openzeppelin/contracts-upgradeable/access/AccessControlUpgradeable.sol\":5737:5755  getRoleAdmin(role) */\n      tag_290\n        /* \"@openzeppelin/contracts-upgradeable/access/AccessControlUpgradeable.sol\":5750:5754  role */\n      dup3\n        /* \"@openzeppelin/contracts-upgradeable/access/AccessControlUpgradeable.sol\":5737:5749  getRoleAdmin */\n      tag_42\n        /* \"@openzeppelin/contracts-upgradeable/access/AccessControlUpgradeable.sol\":5737:5755  getRoleAdmin(role) */\n      jump\t// in\n    tag_290:\n        /* \"@openzeppelin/contracts-upgradeable/access/AccessControlUpgradeable.sol\":3191:3207  _checkRole(role) */\n      tag_292\n        /* \"@openzeppelin/contracts-upgradeable/access/AccessControlUpgradeable.sol\":3202:3206  role */\n      dup2\n        /* \"@openzeppelin/contracts-upgradeable/access/AccessControlUpgradeable.sol\":3191:3201  _checkRole */\n      tag_157\n        /* \"@openzeppelin/contracts-upgradeable/access/AccessControlUpgradeable.sol\":3191:3207  _checkRole(role) */\n      jump\t// in\n    tag_292:\n        /* \"@openzeppelin/contracts-upgradeable/access/AccessControlUpgradeable.sol\":5767:5793  _revokeRole(role, account) */\n      tag_294\n        /* \"@openzeppelin/contracts-upgradeable/access/AccessControlUpgradeable.sol\":5779:5783  role */\n      dup4\n        /* \"@openzeppelin/contracts-upgradeable/access/AccessControlUpgradeable.sol\":5785:5792  account */\n      dup4\n        /* \"@openzeppelin/contracts-upgradeable/access/AccessControlUpgradeable.sol\":5767:5778  _revokeRole */\n      tag_166\n        /* \"@openzeppelin/contracts-upgradeable/access/AccessControlUpgradeable.sol\":5767:5793  _revokeRole(role, account) */\n      jump\t// in\n    tag_294:\n      pop\n        /* \"@openzeppelin/contracts-upgradeable/access/AccessControlUpgradeable.sol\":5662:5800  function revokeRole(bytes32 role, address account) public virtual onlyRole(getRoleAdmin(role)) {... */\n      pop\n      pop\n      pop\n      jump\t// out\n        /* \"contracts/Bond1.sol\":3960:4129  function afterTransfer(... */\n    tag_128:\n      pop\n      pop\n      jump\t// out\n        /* \"contracts/Bond1.sol\":939:1001  bytes32 public constant PAUSER_ROLE = keccak256(\"PAUSER_ROLE\") */\n    tag_131:\n        /* \"contracts/Bond1.sol\":977:1001  keccak256(\"PAUSER_ROLE\") */\n      0x65d7a28e3265b37a6474929f336521b332c1681b933f6cb9f3376673440d862a\n        /* \"contracts/Bond1.sol\":939:1001  bytes32 public constant PAUSER_ROLE = keccak256(\"PAUSER_ROLE\") */\n      dup2\n      jump\t// out\n        /* \"contracts/Bond1.sol\":1732:2507  function inceptTrade(... */\n    tag_136:\n        /* \"contracts/Bond1.sol\":1960:1981  string memory tradeId */\n      0x00\n        /* \"contracts/Bond1.sol\":2008:2018  _tradeData */\n      dup5\n        /* \"contracts/Bond1.sol\":2020:2029  _position */\n      dup5\n        /* \"contracts/Bond1.sol\":2031:2046  block.timestamp */\n      timestamp\n        /* \"contracts/Bond1.sol\":1991:2047  abi.encodePacked(_tradeData, _position, block.timestamp) */\n      add(0x20, mload(0x40))\n      tag_297\n      swap4\n      swap3\n      swap2\n      swap1\n      tag_241\n      jump\t// in\n    tag_297:\n      mload(0x40)\n      0x20\n      dup2\n      dup4\n      sub\n      sub\n      dup2\n      mstore\n      swap1\n      0x40\n      mstore\n        /* \"contracts/Bond1.sol\":1960:2048  string memory tradeId = string(abi.encodePacked(_tradeData, _position, block.timestamp)) */\n      swap1\n      pop\n        /* \"contracts/Bond1.sol\":2077:2404  Trade({... */\n      mload(0x40)\n      dup1\n      0x0100\n      add\n      0x40\n      mstore\n      dup1\n        /* \"contracts/Bond1.sol\":2109:2119  msg.sender */\n      caller\n        /* \"contracts/Bond1.sol\":2077:2404  Trade({... */\n      0xffffffffffffffffffffffffffffffffffffffff\n      and\n      dup2\n      mstore\n      0x20\n      add\n        /* \"contracts/Bond1.sol\":2148:2158  _withParty */\n      dup8\n        /* \"contracts/Bond1.sol\":2077:2404  Trade({... */\n      0xffffffffffffffffffffffffffffffffffffffff\n      and\n      dup2\n      mstore\n      0x20\n      add\n        /* \"contracts/Bond1.sol\":2184:2194  _tradeData */\n      dup7\n        /* \"contracts/Bond1.sol\":2077:2404  Trade({... */\n      dup2\n      mstore\n      0x20\n      add\n        /* \"contracts/Bond1.sol\":2219:2228  _position */\n      dup6\n        /* \"contracts/Bond1.sol\":2077:2404  Trade({... */\n      dup2\n      mstore\n      0x20\n      add\n        /* \"contracts/Bond1.sol\":2258:2272  _paymentAmount */\n      dup5\n        /* \"contracts/Bond1.sol\":2077:2404  Trade({... */\n      dup2\n      mstore\n      0x20\n      add\n        /* \"contracts/Bond1.sol\":2310:2332  _initialSettlementData */\n      dup4\n        /* \"contracts/Bond1.sol\":2077:2404  Trade({... */\n      dup2\n      mstore\n      0x20\n      add\n        /* \"contracts/Bond1.sol\":2358:2363  false */\n      0x00\n        /* \"contracts/Bond1.sol\":2077:2404  Trade({... */\n      iszero\n      iszero\n      dup2\n      mstore\n      0x20\n      add\n        /* \"contracts/Bond1.sol\":2387:2392  false */\n      0x00\n        /* \"contracts/Bond1.sol\":2077:2404  Trade({... */\n      iszero\n      iszero\n      dup2\n      mstore\n      pop\n        /* \"contracts/Bond1.sol\":2059:2065  trades */\n      0x00\n        /* \"contracts/Bond1.sol\":2066:2073  tradeId */\n      dup3\n        /* \"contracts/Bond1.sol\":2059:2074  trades[tradeId] */\n      mload(0x40)\n      tag_298\n      swap2\n      swap1\n      tag_214\n      jump\t// in\n    tag_298:\n      swap1\n      dup2\n      mstore\n      0x20\n      add\n      mload(0x40)\n      dup1\n      swap2\n      sub\n      swap1\n      keccak256\n        /* \"contracts/Bond1.sol\":2059:2404  trades[tradeId] = Trade({... */\n      0x00\n      dup3\n      add\n      mload\n      dup2\n      0x00\n      add\n      exp(0x0100, 0x00)\n      dup2\n      sload\n      dup2\n      0xffffffffffffffffffffffffffffffffffffffff\n      mul\n      not\n      and\n      swap1\n      dup4\n      0xffffffffffffffffffffffffffffffffffffffff\n      and\n      mul\n      or\n      swap1\n      sstore\n      pop\n      0x20\n      dup3\n      add\n      mload\n      dup2\n      0x01\n      add\n      exp(0x0100, 0x00)\n      dup2\n      sload\n      dup2\n      0xffffffffffffffffffffffffffffffffffffffff\n      mul\n      not\n      and\n      swap1\n      dup4\n      0xffffffffffffffffffffffffffffffffffffffff\n      and\n      mul\n      or\n      swap1\n      sstore\n      pop\n      0x40\n      dup3\n      add\n      mload\n      dup2\n      0x02\n      add\n      swap1\n      dup2\n      tag_299\n      swap2\n      swap1\n      tag_300\n      jump\t// in\n    tag_299:\n      pop\n      0x60\n      dup3\n      add\n      mload\n      dup2\n      0x03\n      add\n      sstore\n      0x80\n      dup3\n      add\n      mload\n      dup2\n      0x04\n      add\n      sstore\n      0xa0\n      dup3\n      add\n      mload\n      dup2\n      0x05\n      add\n      swap1\n      dup2\n      tag_301\n      swap2\n      swap1\n      tag_300\n      jump\t// in\n    tag_301:\n      pop\n      0xc0\n      dup3\n      add\n      mload\n      dup2\n      0x06\n      add\n      exp(0x0100, 0x00)\n      dup2\n      sload\n      dup2\n      0xff\n      mul\n      not\n      and\n      swap1\n      dup4\n      iszero\n      iszero\n      mul\n      or\n      swap1\n      sstore\n      pop\n      0xe0\n      dup3\n      add\n      mload\n      dup2\n      0x06\n      add\n      exp(0x0100, 0x01)\n      dup2\n      sload\n      dup2\n      0xff\n      mul\n      not\n      and\n      swap1\n      dup4\n      iszero\n      iszero\n      mul\n      or\n      swap1\n      sstore\n      pop\n      swap1\n      pop\n      pop\n        /* \"contracts/Bond1.sol\":2415:2423  tradeIds */\n      0x01\n        /* \"contracts/Bond1.sol\":2429:2436  tradeId */\n      dup2\n        /* \"contracts/Bond1.sol\":2415:2437  tradeIds.push(tradeId) */\n      swap1\n      dup1\n      0x01\n      dup2\n      sload\n      add\n      dup1\n      dup3\n      sstore\n      dup1\n      swap2\n      pop\n      pop\n      0x01\n      swap1\n      sub\n      swap1\n      0x00\n      mstore\n      keccak256(0x00, 0x20)\n      add\n      0x00\n      swap1\n      swap2\n      swap1\n      swap2\n      swap1\n      swap2\n      pop\n      swap1\n      dup2\n      tag_303\n      swap2\n      swap1\n      tag_300\n      jump\t// in\n    tag_303:\n      pop\n        /* \"contracts/Bond1.sol\":2453:2499  TradeIncepted(msg.sender, tradeId, _tradeData) */\n      0x7511eeca77b6245674aa0ed9cfc29c93005ca6c461f25ca4dcbb0fdb80e003c9\n        /* \"contracts/Bond1.sol\":2467:2477  msg.sender */\n      caller\n        /* \"contracts/Bond1.sol\":2479:2486  tradeId */\n      dup3\n        /* \"contracts/Bond1.sol\":2488:2498  _tradeData */\n      dup8\n        /* \"contracts/Bond1.sol\":2453:2499  TradeIncepted(msg.sender, tradeId, _tradeData) */\n      mload(0x40)\n      tag_304\n      swap4\n      swap3\n      swap2\n      swap1\n      tag_305\n      jump\t// in\n    tag_304:\n      mload(0x40)\n      dup1\n      swap2\n      sub\n      swap1\n      log1\n        /* \"contracts/Bond1.sol\":1949:2507  {... */\n      pop\n        /* \"contracts/Bond1.sol\":1732:2507  function inceptTrade(... */\n      pop\n      pop\n      pop\n      pop\n      pop\n      jump\t// out\n        /* \"contracts/Bond1.sol\":1008:1074  bytes32 public constant UPGRADER_ROLE = keccak256(\"UPGRADER_ROLE\") */\n    tag_139:\n        /* \"contracts/Bond1.sol\":1048:1074  keccak256(\"UPGRADER_ROLE\") */\n      0x189ab7a9244df0848122154315af71fe140f3db0fe014031783b0946b8c9d2e3\n        /* \"contracts/Bond1.sol\":1008:1074  bytes32 public constant UPGRADER_ROLE = keccak256(\"UPGRADER_ROLE\") */\n      dup2\n      jump\t// out\n        /* \"contracts/Bond1.sol\":908:932  string[] public tradeIds */\n    tag_145:\n      0x01\n      dup2\n      dup2\n      sload\n      dup2\n      lt\n      tag_306\n      jumpi\n      0x00\n      dup1\n      revert\n    tag_306:\n      swap1\n      0x00\n      mstore\n      keccak256(0x00, 0x20)\n      add\n      0x00\n      swap2\n      pop\n      swap1\n      pop\n      dup1\n      sload\n      tag_308\n      swap1\n      tag_173\n      jump\t// in\n    tag_308:\n      dup1\n      0x1f\n      add\n      0x20\n      dup1\n      swap2\n      div\n      mul\n      0x20\n      add\n      mload(0x40)\n      swap1\n      dup2\n      add\n      0x40\n      mstore\n      dup1\n      swap3\n      swap2\n      swap1\n      dup2\n      dup2\n      mstore\n      0x20\n      add\n      dup3\n      dup1\n      sload\n      tag_309\n      swap1\n      tag_173\n      jump\t// in\n    tag_309:\n      dup1\n      iszero\n      tag_310\n      jumpi\n      dup1\n      0x1f\n      lt\n      tag_311\n      jumpi\n      0x0100\n      dup1\n      dup4\n      sload\n      div\n      mul\n      dup4\n      mstore\n      swap2\n      0x20\n      add\n      swap2\n      jump(tag_310)\n    tag_311:\n      dup3\n      add\n      swap2\n      swap1\n      0x00\n      mstore\n      keccak256(0x00, 0x20)\n      swap1\n    tag_312:\n      dup2\n      sload\n      dup2\n      mstore\n      swap1\n      0x01\n      add\n      swap1\n      0x20\n      add\n      dup1\n      dup4\n      gt\n      tag_312\n      jumpi\n      dup3\n      swap1\n      sub\n      0x1f\n      and\n      dup3\n      add\n      swap2\n    tag_310:\n      pop\n      pop\n      pop\n      pop\n      pop\n      dup2\n      jump\t// out\n        /* \"@openzeppelin/contracts-upgradeable/utils/introspection/ERC165Upgradeable.sol\":1034:1180  function supportsInterface(bytes4 interfaceId) public view virtual returns (bool) {... */\n    tag_150:\n        /* \"@openzeppelin/contracts-upgradeable/utils/introspection/ERC165Upgradeable.sol\":1110:1114  bool */\n      0x00\n        /* \"@openzeppelin/contracts-upgradeable/utils/introspection/ERC165Upgradeable.sol\":1148:1173  type(IERC165).interfaceId */\n      0x01ffc9a700000000000000000000000000000000000000000000000000000000\n        /* \"@openzeppelin/contracts-upgradeable/utils/introspection/ERC165Upgradeable.sol\":1133:1173  interfaceId == type(IERC165).interfaceId */\n      not(0xffffffffffffffffffffffffffffffffffffffffffffffffffffffff)\n      and\n        /* \"@openzeppelin/contracts-upgradeable/utils/introspection/ERC165Upgradeable.sol\":1133:1144  interfaceId */\n      dup3\n        /* \"@openzeppelin/contracts-upgradeable/utils/introspection/ERC165Upgradeable.sol\":1133:1173  interfaceId == type(IERC165).interfaceId */\n      not(0xffffffffffffffffffffffffffffffffffffffffffffffffffffffff)\n      and\n      eq\n        /* \"@openzeppelin/contracts-upgradeable/utils/introspection/ERC165Upgradeable.sol\":1126:1173  return interfaceId == type(IERC165).interfaceId */\n      swap1\n      pop\n        /* \"@openzeppelin/contracts-upgradeable/utils/introspection/ERC165Upgradeable.sol\":1034:1180  function supportsInterface(bytes4 interfaceId) public view virtual returns (bool) {... */\n      swap2\n      swap1\n      pop\n      jump\t// out\n        /* \"@openzeppelin/contracts-upgradeable/access/AccessControlUpgradeable.sol\":2787:2964  function _getAccessControlStorage() private pure returns (AccessControlStorage storage $) {... */\n    tag_153:\n        /* \"@openzeppelin/contracts-upgradeable/access/AccessControlUpgradeable.sol\":2845:2875  AccessControlStorage storage $ */\n      0x00\n        /* \"@openzeppelin/contracts-upgradeable/access/AccessControlUpgradeable.sol\":2920:2948  AccessControlStorageLocation */\n      0x02dd7bc7dec4dceedda775e58dd541e08a116c6c53815c0bd028192f7b626800\n        /* \"@openzeppelin/contracts-upgradeable/access/AccessControlUpgradeable.sol\":2910:2948  $.slot := AccessControlStorageLocation */\n      swap1\n      pop\n        /* \"@openzeppelin/contracts-upgradeable/access/AccessControlUpgradeable.sol\":2787:2964  function _getAccessControlStorage() private pure returns (AccessControlStorage storage $) {... */\n      swap1\n      jump\t// out\n        /* \"@openzeppelin/contracts-upgradeable/access/AccessControlUpgradeable.sol\":4148:4251  function _checkRole(bytes32 role) internal view virtual {... */\n    tag_157:\n        /* \"@openzeppelin/contracts-upgradeable/access/AccessControlUpgradeable.sol\":4214:4244  _checkRole(role, _msgSender()) */\n      tag_316\n        /* \"@openzeppelin/contracts-upgradeable/access/AccessControlUpgradeable.sol\":4225:4229  role */\n      dup2\n        /* \"@openzeppelin/contracts-upgradeable/access/AccessControlUpgradeable.sol\":4231:4243  _msgSender() */\n      tag_317\n        /* \"@openzeppelin/contracts-upgradeable/access/AccessControlUpgradeable.sol\":4231:4241  _msgSender */\n      tag_163\n        /* \"@openzeppelin/contracts-upgradeable/access/AccessControlUpgradeable.sol\":4231:4243  _msgSender() */\n      jump\t// in\n    tag_317:\n        /* \"@openzeppelin/contracts-upgradeable/access/AccessControlUpgradeable.sol\":4214:4224  _checkRole */\n      tag_318\n        /* \"@openzeppelin/contracts-upgradeable/access/AccessControlUpgradeable.sol\":4214:4244  _checkRole(role, _msgSender()) */\n      jump\t// in\n    tag_316:\n        /* \"@openzeppelin/contracts-upgradeable/access/AccessControlUpgradeable.sol\":4148:4251  function _checkRole(bytes32 role) internal view virtual {... */\n      pop\n      jump\t// out\n        /* \"@openzeppelin/contracts-upgradeable/access/AccessControlUpgradeable.sol\":7270:7657  function _grantRole(bytes32 role, address account) internal virtual returns (bool) {... */\n    tag_160:\n        /* \"@openzeppelin/contracts-upgradeable/access/AccessControlUpgradeable.sol\":7347:7351  bool */\n      0x00\n        /* \"@openzeppelin/contracts-upgradeable/access/AccessControlUpgradeable.sol\":7363:7393  AccessControlStorage storage $ */\n      dup1\n        /* \"@openzeppelin/contracts-upgradeable/access/AccessControlUpgradeable.sol\":7396:7422  _getAccessControlStorage() */\n      tag_320\n        /* \"@openzeppelin/contracts-upgradeable/access/AccessControlUpgradeable.sol\":7396:7420  _getAccessControlStorage */\n      tag_153\n        /* \"@openzeppelin/contracts-upgradeable/access/AccessControlUpgradeable.sol\":7396:7422  _getAccessControlStorage() */\n      jump\t// in\n    tag_320:\n        /* \"@openzeppelin/contracts-upgradeable/access/AccessControlUpgradeable.sol\":7363:7422  AccessControlStorage storage $ = _getAccessControlStorage() */\n      swap1\n      pop\n        /* \"@openzeppelin/contracts-upgradeable/access/AccessControlUpgradeable.sol\":7437:7459  hasRole(role, account) */\n      tag_321\n        /* \"@openzeppelin/contracts-upgradeable/access/AccessControlUpgradeable.sol\":7445:7449  role */\n      dup5\n        /* \"@openzeppelin/contracts-upgradeable/access/AccessControlUpgradeable.sol\":7451:7458  account */\n      dup5\n        /* \"@openzeppelin/contracts-upgradeable/access/AccessControlUpgradeable.sol\":7437:7444  hasRole */\n      tag_101\n        /* \"@openzeppelin/contracts-upgradeable/access/AccessControlUpgradeable.sol\":7437:7459  hasRole(role, account) */\n      jump\t// in\n    tag_321:\n        /* \"@openzeppelin/contracts-upgradeable/access/AccessControlUpgradeable.sol\":7432:7651  if (!hasRole(role, account)) {... */\n      tag_322\n      jumpi\n        /* \"@openzeppelin/contracts-upgradeable/access/AccessControlUpgradeable.sol\":7509:7513  true */\n      0x01\n        /* \"@openzeppelin/contracts-upgradeable/access/AccessControlUpgradeable.sol\":7475:7476  $ */\n      dup2\n        /* \"@openzeppelin/contracts-upgradeable/access/AccessControlUpgradeable.sol\":7475:7483  $._roles */\n      0x00\n      add\n        /* \"@openzeppelin/contracts-upgradeable/access/AccessControlUpgradeable.sol\":7475:7489  $._roles[role] */\n      0x00\n        /* \"@openzeppelin/contracts-upgradeable/access/AccessControlUpgradeable.sol\":7484:7488  role */\n      dup7\n        /* \"@openzeppelin/contracts-upgradeable/access/AccessControlUpgradeable.sol\":7475:7489  $._roles[role] */\n      dup2\n      mstore\n      0x20\n      add\n      swap1\n      dup2\n      mstore\n      0x20\n      add\n      0x00\n      keccak256\n        /* \"@openzeppelin/contracts-upgradeable/access/AccessControlUpgradeable.sol\":7475:7497  $._roles[role].hasRole */\n      0x00\n      add\n        /* \"@openzeppelin/contracts-upgradeable/access/AccessControlUpgradeable.sol\":7475:7506  $._roles[role].hasRole[account] */\n      0x00\n        /* \"@openzeppelin/contracts-upgradeable/access/AccessControlUpgradeable.sol\":7498:7505  account */\n      dup6\n        /* \"@openzeppelin/contracts-upgradeable/access/AccessControlUpgradeable.sol\":7475:7506  $._roles[role].hasRole[account] */\n      0xffffffffffffffffffffffffffffffffffffffff\n      and\n      0xffffffffffffffffffffffffffffffffffffffff\n      and\n      dup2\n      mstore\n      0x20\n      add\n      swap1\n      dup2\n      mstore\n      0x20\n      add\n      0x00\n      keccak256\n      0x00\n        /* \"@openzeppelin/contracts-upgradeable/access/AccessControlUpgradeable.sol\":7475:7513  $._roles[role].hasRole[account] = true */\n      0x0100\n      exp\n      dup2\n      sload\n      dup2\n      0xff\n      mul\n      not\n      and\n      swap1\n      dup4\n      iszero\n      iszero\n      mul\n      or\n      swap1\n      sstore\n      pop\n        /* \"@openzeppelin/contracts-upgradeable/access/AccessControlUpgradeable.sol\":7559:7571  _msgSender() */\n      tag_323\n        /* \"@openzeppelin/contracts-upgradeable/access/AccessControlUpgradeable.sol\":7559:7569  _msgSender */\n      tag_163\n        /* \"@openzeppelin/contracts-upgradeable/access/AccessControlUpgradeable.sol\":7559:7571  _msgSender() */\n      jump\t// in\n    tag_323:\n        /* \"@openzeppelin/contracts-upgradeable/access/AccessControlUpgradeable.sol\":7532:7572  RoleGranted(role, account, _msgSender()) */\n      0xffffffffffffffffffffffffffffffffffffffff\n      and\n        /* \"@openzeppelin/contracts-upgradeable/access/AccessControlUpgradeable.sol\":7550:7557  account */\n      dup4\n        /* \"@openzeppelin/contracts-upgradeable/access/AccessControlUpgradeable.sol\":7532:7572  RoleGranted(role, account, _msgSender()) */\n      0xffffffffffffffffffffffffffffffffffffffff\n      and\n        /* \"@openzeppelin/contracts-upgradeable/access/AccessControlUpgradeable.sol\":7544:7548  role */\n      dup6\n        /* \"@openzeppelin/contracts-upgradeable/access/AccessControlUpgradeable.sol\":7532:7572  RoleGranted(role, account, _msgSender()) */\n      0x2f8788117e7eff1d82e926ec794901d17c78024a50270940304540a733656f0d\n      mload(0x40)\n      mload(0x40)\n      dup1\n      swap2\n      sub\n      swap1\n      log4\n        /* \"@openzeppelin/contracts-upgradeable/access/AccessControlUpgradeable.sol\":7593:7597  true */\n      0x01\n        /* \"@openzeppelin/contracts-upgradeable/access/AccessControlUpgradeable.sol\":7586:7597  return true */\n      swap2\n      pop\n      pop\n      jump(tag_319)\n        /* \"@openzeppelin/contracts-upgradeable/access/AccessControlUpgradeable.sol\":7432:7651  if (!hasRole(role, account)) {... */\n    tag_322:\n        /* \"@openzeppelin/contracts-upgradeable/access/AccessControlUpgradeable.sol\":7635:7640  false */\n      0x00\n        /* \"@openzeppelin/contracts-upgradeable/access/AccessControlUpgradeable.sol\":7628:7640  return false */\n      swap2\n      pop\n      pop\n        /* \"@openzeppelin/contracts-upgradeable/access/AccessControlUpgradeable.sol\":7270:7657  function _grantRole(bytes32 role, address account) internal virtual returns (bool) {... */\n    tag_319:\n      swap3\n      swap2\n      pop\n      pop\n      jump\t// out\n        /* \"@openzeppelin/contracts-upgradeable/utils/ContextUpgradeable.sol\":887:983  function _msgSender() internal view virtual returns (address) {... */\n    tag_163:\n        /* \"@openzeppelin/contracts-upgradeable/utils/ContextUpgradeable.sol\":940:947  address */\n      0x00\n        /* \"@openzeppelin/contracts-upgradeable/utils/ContextUpgradeable.sol\":966:976  msg.sender */\n      caller\n        /* \"@openzeppelin/contracts-upgradeable/utils/ContextUpgradeable.sol\":959:976  return msg.sender */\n      swap1\n      pop\n        /* \"@openzeppelin/contracts-upgradeable/utils/ContextUpgradeable.sol\":887:983  function _msgSender() internal view virtual returns (address) {... */\n      swap1\n      jump\t// out\n        /* \"@openzeppelin/contracts-upgradeable/access/AccessControlUpgradeable.sol\":7892:8280  function _revokeRole(bytes32 role, address account) internal virtual returns (bool) {... */\n    tag_166:\n        /* \"@openzeppelin/contracts-upgradeable/access/AccessControlUpgradeable.sol\":7970:7974  bool */\n      0x00\n        /* \"@openzeppelin/contracts-upgradeable/access/AccessControlUpgradeable.sol\":7986:8016  AccessControlStorage storage $ */\n      dup1\n        /* \"@openzeppelin/contracts-upgradeable/access/AccessControlUpgradeable.sol\":8019:8045  _getAccessControlStorage() */\n      tag_327\n        /* \"@openzeppelin/contracts-upgradeable/access/AccessControlUpgradeable.sol\":8019:8043  _getAccessControlStorage */\n      tag_153\n        /* \"@openzeppelin/contracts-upgradeable/access/AccessControlUpgradeable.sol\":8019:8045  _getAccessControlStorage() */\n      jump\t// in\n    tag_327:\n        /* \"@openzeppelin/contracts-upgradeable/access/AccessControlUpgradeable.sol\":7986:8045  AccessControlStorage storage $ = _getAccessControlStorage() */\n      swap1\n      pop\n        /* \"@openzeppelin/contracts-upgradeable/access/AccessControlUpgradeable.sol\":8059:8081  hasRole(role, account) */\n      tag_328\n        /* \"@openzeppelin/contracts-upgradeable/access/AccessControlUpgradeable.sol\":8067:8071  role */\n      dup5\n        /* \"@openzeppelin/contracts-upgradeable/access/AccessControlUpgradeable.sol\":8073:8080  account */\n      dup5\n        /* \"@openzeppelin/contracts-upgradeable/access/AccessControlUpgradeable.sol\":8059:8066  hasRole */\n      tag_101\n        /* \"@openzeppelin/contracts-upgradeable/access/AccessControlUpgradeable.sol\":8059:8081  hasRole(role, account) */\n      jump\t// in\n    tag_328:\n        /* \"@openzeppelin/contracts-upgradeable/access/AccessControlUpgradeable.sol\":8055:8274  if (hasRole(role, account)) {... */\n      iszero\n      tag_329\n      jumpi\n        /* \"@openzeppelin/contracts-upgradeable/access/AccessControlUpgradeable.sol\":8131:8136  false */\n      0x00\n        /* \"@openzeppelin/contracts-upgradeable/access/AccessControlUpgradeable.sol\":8097:8098  $ */\n      dup2\n        /* \"@openzeppelin/contracts-upgradeable/access/AccessControlUpgradeable.sol\":8097:8105  $._roles */\n      0x00\n      add\n        /* \"@openzeppelin/contracts-upgradeable/access/AccessControlUpgradeable.sol\":8097:8111  $._roles[role] */\n      0x00\n        /* \"@openzeppelin/contracts-upgradeable/access/AccessControlUpgradeable.sol\":8106:8110  role */\n      dup7\n        /* \"@openzeppelin/contracts-upgradeable/access/AccessControlUpgradeable.sol\":8097:8111  $._roles[role] */\n      dup2\n      mstore\n      0x20\n      add\n      swap1\n      dup2\n      mstore\n      0x20\n      add\n      0x00\n      keccak256\n        /* \"@openzeppelin/contracts-upgradeable/access/AccessControlUpgradeable.sol\":8097:8119  $._roles[role].hasRole */\n      0x00\n      add\n        /* \"@openzeppelin/contracts-upgradeable/access/AccessControlUpgradeable.sol\":8097:8128  $._roles[role].hasRole[account] */\n      0x00\n        /* \"@openzeppelin/contracts-upgradeable/access/AccessControlUpgradeable.sol\":8120:8127  account */\n      dup6\n        /* \"@openzeppelin/contracts-upgradeable/access/AccessControlUpgradeable.sol\":8097:8128  $._roles[role].hasRole[account] */\n      0xffffffffffffffffffffffffffffffffffffffff\n      and\n      0xffffffffffffffffffffffffffffffffffffffff\n      and\n      dup2\n      mstore\n      0x20\n      add\n      swap1\n      dup2\n      mstore\n      0x20\n      add\n      0x00\n      keccak256\n      0x00\n        /* \"@openzeppelin/contracts-upgradeable/access/AccessControlUpgradeable.sol\":8097:8136  $._roles[role].hasRole[account] = false */\n      0x0100\n      exp\n      dup2\n      sload\n      dup2\n      0xff\n      mul\n      not\n      and\n      swap1\n      dup4\n      iszero\n      iszero\n      mul\n      or\n      swap1\n      sstore\n      pop\n        /* \"@openzeppelin/contracts-upgradeable/access/AccessControlUpgradeable.sol\":8182:8194  _msgSender() */\n      tag_330\n        /* \"@openzeppelin/contracts-upgradeable/access/AccessControlUpgradeable.sol\":8182:8192  _msgSender */\n      tag_163\n        /* \"@openzeppelin/contracts-upgradeable/access/AccessControlUpgradeable.sol\":8182:8194  _msgSender() */\n      jump\t// in\n    tag_330:\n        /* \"@openzeppelin/contracts-upgradeable/access/AccessControlUpgradeable.sol\":8155:8195  RoleRevoked(role, account, _msgSender()) */\n      0xffffffffffffffffffffffffffffffffffffffff\n      and\n        /* \"@openzeppelin/contracts-upgradeable/access/AccessControlUpgradeable.sol\":8173:8180  account */\n      dup4\n        /* \"@openzeppelin/contracts-upgradeable/access/AccessControlUpgradeable.sol\":8155:8195  RoleRevoked(role, account, _msgSender()) */\n      0xffffffffffffffffffffffffffffffffffffffff\n      and\n        /* \"@openzeppelin/contracts-upgradeable/access/AccessControlUpgradeable.sol\":8167:8171  role */\n      dup6\n        /* \"@openzeppelin/contracts-upgradeable/access/AccessControlUpgradeable.sol\":8155:8195  RoleRevoked(role, account, _msgSender()) */\n      0xf6391f5c32d9c69d2a47ea670b442974b53935d1edc7fd64eb21e047a839171b\n      mload(0x40)\n      mload(0x40)\n      dup1\n      swap2\n      sub\n      swap1\n      log4\n        /* \"@openzeppelin/contracts-upgradeable/access/AccessControlUpgradeable.sol\":8216:8220  true */\n      0x01\n        /* \"@openzeppelin/contracts-upgradeable/access/AccessControlUpgradeable.sol\":8209:8220  return true */\n      swap2\n      pop\n      pop\n      jump(tag_326)\n        /* \"@openzeppelin/contracts-upgradeable/access/AccessControlUpgradeable.sol\":8055:8274  if (hasRole(role, account)) {... */\n    tag_329:\n        /* \"@openzeppelin/contracts-upgradeable/access/AccessControlUpgradeable.sol\":8258:8263  false */\n      0x00\n        /* \"@openzeppelin/contracts-upgradeable/access/AccessControlUpgradeable.sol\":8251:8263  return false */\n      swap2\n      pop\n      pop\n        /* \"@openzeppelin/contracts-upgradeable/access/AccessControlUpgradeable.sol\":7892:8280  function _revokeRole(bytes32 role, address account) internal virtual returns (bool) {... */\n    tag_326:\n      swap3\n      swap2\n      pop\n      pop\n      jump\t// out\n        /* \"@openzeppelin/contracts-upgradeable/utils/PausableUpgradeable.sol\":3674:3852  function _unpause() internal virtual whenPaused {... */\n    tag_171:\n        /* \"@openzeppelin/contracts-upgradeable/utils/PausableUpgradeable.sol\":2563:2579  _requirePaused() */\n      tag_333\n        /* \"@openzeppelin/contracts-upgradeable/utils/PausableUpgradeable.sol\":2563:2577  _requirePaused */\n      tag_334\n        /* \"@openzeppelin/contracts-upgradeable/utils/PausableUpgradeable.sol\":2563:2579  _requirePaused() */\n      jump\t// in\n    tag_333:\n        /* \"@openzeppelin/contracts-upgradeable/utils/PausableUpgradeable.sol\":3732:3757  PausableStorage storage $ */\n      0x00\n        /* \"@openzeppelin/contracts-upgradeable/utils/PausableUpgradeable.sol\":3760:3781  _getPausableStorage() */\n      tag_336\n        /* \"@openzeppelin/contracts-upgradeable/utils/PausableUpgradeable.sol\":3760:3779  _getPausableStorage */\n      tag_197\n        /* \"@openzeppelin/contracts-upgradeable/utils/PausableUpgradeable.sol\":3760:3781  _getPausableStorage() */\n      jump\t// in\n    tag_336:\n        /* \"@openzeppelin/contracts-upgradeable/utils/PausableUpgradeable.sol\":3732:3781  PausableStorage storage $ = _getPausableStorage() */\n      swap1\n      pop\n        /* \"@openzeppelin/contracts-upgradeable/utils/PausableUpgradeable.sol\":3803:3808  false */\n      0x00\n        /* \"@openzeppelin/contracts-upgradeable/utils/PausableUpgradeable.sol\":3791:3792  $ */\n      dup2\n        /* \"@openzeppelin/contracts-upgradeable/utils/PausableUpgradeable.sol\":3791:3800  $._paused */\n      0x00\n      add\n      0x00\n        /* \"@openzeppelin/contracts-upgradeable/utils/PausableUpgradeable.sol\":3791:3808  $._paused = false */\n      0x0100\n      exp\n      dup2\n      sload\n      dup2\n      0xff\n      mul\n      not\n      and\n      swap1\n      dup4\n      iszero\n      iszero\n      mul\n      or\n      swap1\n      sstore\n      pop\n        /* \"@openzeppelin/contracts-upgradeable/utils/PausableUpgradeable.sol\":3823:3845  Unpaused(_msgSender()) */\n      0x5db9ee0a495bf2e6ff9c91a7834c1ba4fdd244a5e8aa4e537bd38aeae4b073aa\n        /* \"@openzeppelin/contracts-upgradeable/utils/PausableUpgradeable.sol\":3832:3844  _msgSender() */\n      tag_337\n        /* \"@openzeppelin/contracts-upgradeable/utils/PausableUpgradeable.sol\":3832:3842  _msgSender */\n      tag_163\n        /* \"@openzeppelin/contracts-upgradeable/utils/PausableUpgradeable.sol\":3832:3844  _msgSender() */\n      jump\t// in\n    tag_337:\n        /* \"@openzeppelin/contracts-upgradeable/utils/PausableUpgradeable.sol\":3823:3845  Unpaused(_msgSender()) */\n      mload(0x40)\n      tag_338\n      swap2\n      swap1\n      tag_339\n      jump\t// in\n    tag_338:\n      mload(0x40)\n      dup1\n      swap2\n      sub\n      swap1\n      log1\n        /* \"@openzeppelin/contracts-upgradeable/utils/PausableUpgradeable.sol\":3722:3852  {... */\n      pop\n        /* \"@openzeppelin/contracts-upgradeable/utils/PausableUpgradeable.sol\":3674:3852  function _unpause() internal virtual whenPaused {... */\n      jump\t// out\n        /* \"@openzeppelin/contracts-upgradeable/proxy/utils/UUPSUpgradeable.sol\":4599:4911  function _checkProxy() internal view virtual {... */\n    tag_185:\n        /* \"@openzeppelin/contracts-upgradeable/proxy/utils/UUPSUpgradeable.sol\":4688:4694  __self */\n      immutable(\"0x3b04ad91523c4dcf551e081621e633b9099d51bf9c5461e58c3bc7354a578b27\")\n        /* \"@openzeppelin/contracts-upgradeable/proxy/utils/UUPSUpgradeable.sol\":4671:4694  address(this) == __self */\n      0xffffffffffffffffffffffffffffffffffffffff\n      and\n        /* \"@openzeppelin/contracts-upgradeable/proxy/utils/UUPSUpgradeable.sol\":4679:4683  this */\n      address\n        /* \"@openzeppelin/contracts-upgradeable/proxy/utils/UUPSUpgradeable.sol\":4671:4694  address(this) == __self */\n      0xffffffffffffffffffffffffffffffffffffffff\n      and\n      eq\n        /* \"@openzeppelin/contracts-upgradeable/proxy/utils/UUPSUpgradeable.sol\":4671:4791  address(this) == __self || // Must be called through delegatecall... */\n      dup1\n      tag_341\n      jumpi\n      pop\n        /* \"@openzeppelin/contracts-upgradeable/proxy/utils/UUPSUpgradeable.sol\":4785:4791  __self */\n      immutable(\"0x3b04ad91523c4dcf551e081621e633b9099d51bf9c5461e58c3bc7354a578b27\")\n        /* \"@openzeppelin/contracts-upgradeable/proxy/utils/UUPSUpgradeable.sol\":4749:4791  ERC1967Utils.getImplementation() != __self */\n      0xffffffffffffffffffffffffffffffffffffffff\n      and\n        /* \"@openzeppelin/contracts-upgradeable/proxy/utils/UUPSUpgradeable.sol\":4749:4781  ERC1967Utils.getImplementation() */\n      tag_342\n        /* \"@openzeppelin/contracts-upgradeable/proxy/utils/UUPSUpgradeable.sol\":4749:4779  ERC1967Utils.getImplementation */\n      tag_343\n        /* \"@openzeppelin/contracts-upgradeable/proxy/utils/UUPSUpgradeable.sol\":4749:4781  ERC1967Utils.getImplementation() */\n      jump\t// in\n    tag_342:\n        /* \"@openzeppelin/contracts-upgradeable/proxy/utils/UUPSUpgradeable.sol\":4749:4791  ERC1967Utils.getImplementation() != __self */\n      0xffffffffffffffffffffffffffffffffffffffff\n      and\n      eq\n      iszero\n        /* \"@openzeppelin/contracts-upgradeable/proxy/utils/UUPSUpgradeable.sol\":4671:4791  address(this) == __self || // Must be called through delegatecall... */\n    tag_341:\n        /* \"@openzeppelin/contracts-upgradeable/proxy/utils/UUPSUpgradeable.sol\":4654:4905  if (... */\n      iszero\n      tag_344\n      jumpi\n        /* \"@openzeppelin/contracts-upgradeable/proxy/utils/UUPSUpgradeable.sol\":4865:4894  UUPSUnauthorizedCallContext() */\n      mload(0x40)\n      0xe07c8dba00000000000000000000000000000000000000000000000000000000\n      dup2\n      mstore\n      0x04\n      add\n      mload(0x40)\n      dup1\n      swap2\n      sub\n      swap1\n      revert\n        /* \"@openzeppelin/contracts-upgradeable/proxy/utils/UUPSUpgradeable.sol\":4654:4905  if (... */\n    tag_344:\n        /* \"@openzeppelin/contracts-upgradeable/proxy/utils/UUPSUpgradeable.sol\":4599:4911  function _checkProxy() internal view virtual {... */\n      jump\t// out\n        /* \"contracts/Bond1.sol\":4881:5011  function _authorizeUpgrade(address newImplementation)... */\n    tag_188:\n        /* \"contracts/Bond1.sol\":1048:1074  keccak256(\"UPGRADER_ROLE\") */\n      0x189ab7a9244df0848122154315af71fe140f3db0fe014031783b0946b8c9d2e3\n        /* \"@openzeppelin/contracts-upgradeable/access/AccessControlUpgradeable.sol\":3191:3207  _checkRole(role) */\n      tag_346\n        /* \"@openzeppelin/contracts-upgradeable/access/AccessControlUpgradeable.sol\":3202:3206  role */\n      dup2\n        /* \"@openzeppelin/contracts-upgradeable/access/AccessControlUpgradeable.sol\":3191:3201  _checkRole */\n      tag_157\n        /* \"@openzeppelin/contracts-upgradeable/access/AccessControlUpgradeable.sol\":3191:3207  _checkRole(role) */\n      jump\t// in\n    tag_346:\n        /* \"contracts/Bond1.sol\":4881:5011  function _authorizeUpgrade(address newImplementation)... */\n      pop\n      pop\n      jump\t// out\n        /* \"@openzeppelin/contracts-upgradeable/proxy/utils/UUPSUpgradeable.sol\":6052:6590  function _upgradeToAndCallUUPS(address newImplementation, bytes memory data) private {... */\n    tag_190:\n        /* \"@openzeppelin/contracts-upgradeable/proxy/utils/UUPSUpgradeable.sol\":6169:6186  newImplementation */\n      dup2\n        /* \"@openzeppelin/contracts-upgradeable/proxy/utils/UUPSUpgradeable.sol\":6151:6201  IERC1822Proxiable(newImplementation).proxiableUUID */\n      0xffffffffffffffffffffffffffffffffffffffff\n      and\n      0x52d1902d\n        /* \"@openzeppelin/contracts-upgradeable/proxy/utils/UUPSUpgradeable.sol\":6151:6203  IERC1822Proxiable(newImplementation).proxiableUUID() */\n      mload(0x40)\n      dup2\n      0xffffffff\n      and\n      0xe0\n      shl\n      dup2\n      mstore\n      0x04\n      add\n      0x20\n      mload(0x40)\n      dup1\n      dup4\n      sub\n      dup2\n      dup7\n      gas\n      staticcall\n      swap3\n      pop\n      pop\n      pop\n      dup1\n      iszero\n      tag_349\n      jumpi\n      pop\n      mload(0x40)\n      returndatasize\n      not(0x1f)\n      0x1f\n      dup3\n      add\n      and\n      dup3\n      add\n      dup1\n      0x40\n      mstore\n      pop\n      dup2\n      add\n      swap1\n      tag_350\n      swap2\n      swap1\n      tag_351\n      jump\t// in\n    tag_350:\n      0x01\n    tag_349:\n        /* \"@openzeppelin/contracts-upgradeable/proxy/utils/UUPSUpgradeable.sol\":6147:6584  try IERC1822Proxiable(newImplementation).proxiableUUID() returns (bytes32 slot) {... */\n      tag_352\n      jumpi\n        /* \"@openzeppelin/contracts-upgradeable/proxy/utils/UUPSUpgradeable.sol\":6555:6572  newImplementation */\n      dup2\n        /* \"@openzeppelin/contracts-upgradeable/proxy/utils/UUPSUpgradeable.sol\":6513:6573  ERC1967Utils.ERC1967InvalidImplementation(newImplementation) */\n      mload(0x40)\n      0x4c9c8ce300000000000000000000000000000000000000000000000000000000\n      dup2\n      mstore\n      0x04\n      add\n      tag_356\n      swap2\n      swap1\n      tag_339\n      jump\t// in\n    tag_356:\n      mload(0x40)\n      dup1\n      swap2\n      sub\n      swap1\n      revert\n        /* \"@openzeppelin/contracts-upgradeable/proxy/utils/UUPSUpgradeable.sol\":6147:6584  try IERC1822Proxiable(newImplementation).proxiableUUID() returns (bytes32 slot) {... */\n    tag_352:\n        /* \"@openzeppelin/contracts/proxy/ERC1967/ERC1967Utils.sol\":1327:1393  0x360894a13ba1a3210667c828492db98dca3e2076cc3735a920a3ca505d382bbc */\n      0x360894a13ba1a3210667c828492db98dca3e2076cc3735a920a3ca505d382bbc\n        /* \"@openzeppelin/contracts-upgradeable/proxy/utils/UUPSUpgradeable.sol\":6253:6285  ERC1967Utils.IMPLEMENTATION_SLOT */\n      0x00\n      shl\n        /* \"@openzeppelin/contracts-upgradeable/proxy/utils/UUPSUpgradeable.sol\":6245:6249  slot */\n      dup2\n        /* \"@openzeppelin/contracts-upgradeable/proxy/utils/UUPSUpgradeable.sol\":6245:6285  slot != ERC1967Utils.IMPLEMENTATION_SLOT */\n      eq\n        /* \"@openzeppelin/contracts-upgradeable/proxy/utils/UUPSUpgradeable.sol\":6241:6361  if (slot != ERC1967Utils.IMPLEMENTATION_SLOT) {... */\n      tag_358\n      jumpi\n        /* \"@openzeppelin/contracts-upgradeable/proxy/utils/UUPSUpgradeable.sol\":6341:6345  slot */\n      dup1\n        /* \"@openzeppelin/contracts-upgradeable/proxy/utils/UUPSUpgradeable.sol\":6312:6346  UUPSUnsupportedProxiableUUID(slot) */\n      mload(0x40)\n      0xaa1d49a400000000000000000000000000000000000000000000000000000000\n      dup2\n      mstore\n      0x04\n      add\n      tag_359\n      swap2\n      swap1\n      tag_44\n      jump\t// in\n    tag_359:\n      mload(0x40)\n      dup1\n      swap2\n      sub\n      swap1\n      revert\n        /* \"@openzeppelin/contracts-upgradeable/proxy/utils/UUPSUpgradeable.sol\":6241:6361  if (slot != ERC1967Utils.IMPLEMENTATION_SLOT) {... */\n    tag_358:\n        /* \"@openzeppelin/contracts-upgradeable/proxy/utils/UUPSUpgradeable.sol\":6374:6428  ERC1967Utils.upgradeToAndCall(newImplementation, data) */\n      tag_360\n        /* \"@openzeppelin/contracts-upgradeable/proxy/utils/UUPSUpgradeable.sol\":6404:6421  newImplementation */\n      dup4\n        /* \"@openzeppelin/contracts-upgradeable/proxy/utils/UUPSUpgradeable.sol\":6423:6427  data */\n      dup4\n        /* \"@openzeppelin/contracts-upgradeable/proxy/utils/UUPSUpgradeable.sol\":6374:6403  ERC1967Utils.upgradeToAndCall */\n      tag_361\n        /* \"@openzeppelin/contracts-upgradeable/proxy/utils/UUPSUpgradeable.sol\":6374:6428  ERC1967Utils.upgradeToAndCall(newImplementation, data) */\n      jump\t// in\n    tag_360:\n        /* \"@openzeppelin/contracts-upgradeable/proxy/utils/UUPSUpgradeable.sol\":6204:6439  returns (bytes32 slot) {... */\n      pop\n        /* \"@openzeppelin/contracts-upgradeable/proxy/utils/UUPSUpgradeable.sol\":6052:6590  function _upgradeToAndCallUUPS(address newImplementation, bytes memory data) private {... */\n      pop\n      pop\n      jump\t// out\n        /* \"@openzeppelin/contracts-upgradeable/proxy/utils/UUPSUpgradeable.sol\":5028:5241  function _checkNotDelegated() internal view virtual {... */\n    tag_193:\n        /* \"@openzeppelin/contracts-upgradeable/proxy/utils/UUPSUpgradeable.sol\":5111:5117  __self */\n      immutable(\"0x3b04ad91523c4dcf551e081621e633b9099d51bf9c5461e58c3bc7354a578b27\")\n        /* \"@openzeppelin/contracts-upgradeable/proxy/utils/UUPSUpgradeable.sol\":5094:5117  address(this) != __self */\n      0xffffffffffffffffffffffffffffffffffffffff\n      and\n        /* \"@openzeppelin/contracts-upgradeable/proxy/utils/UUPSUpgradeable.sol\":5102:5106  this */\n      address\n        /* \"@openzeppelin/contracts-upgradeable/proxy/utils/UUPSUpgradeable.sol\":5094:5117  address(this) != __self */\n      0xffffffffffffffffffffffffffffffffffffffff\n      and\n      eq\n        /* \"@openzeppelin/contracts-upgradeable/proxy/utils/UUPSUpgradeable.sol\":5090:5235  if (address(this) != __self) {... */\n      tag_363\n      jumpi\n        /* \"@openzeppelin/contracts-upgradeable/proxy/utils/UUPSUpgradeable.sol\":5195:5224  UUPSUnauthorizedCallContext() */\n      mload(0x40)\n      0xe07c8dba00000000000000000000000000000000000000000000000000000000\n      dup2\n      mstore\n      0x04\n      add\n      mload(0x40)\n      dup1\n      swap2\n      sub\n      swap1\n      revert\n        /* \"@openzeppelin/contracts-upgradeable/proxy/utils/UUPSUpgradeable.sol\":5090:5235  if (address(this) != __self) {... */\n    tag_363:\n        /* \"@openzeppelin/contracts-upgradeable/proxy/utils/UUPSUpgradeable.sol\":5028:5241  function _checkNotDelegated() internal view virtual {... */\n      jump\t// out\n        /* \"@openzeppelin/contracts-upgradeable/utils/PausableUpgradeable.sol\":1147:1309  function _getPausableStorage() private pure returns (PausableStorage storage $) {... */\n    tag_197:\n        /* \"@openzeppelin/contracts-upgradeable/utils/PausableUpgradeable.sol\":1200:1225  PausableStorage storage $ */\n      0x00\n        /* \"@openzeppelin/contracts-upgradeable/utils/PausableUpgradeable.sol\":1270:1293  PausableStorageLocation */\n      0xcd5ed15c6e187e77e9aee88184c21f4f2182ab5827cb3b7e07fbedcd63f03300\n        /* \"@openzeppelin/contracts-upgradeable/utils/PausableUpgradeable.sol\":1260:1293  $.slot := PausableStorageLocation */\n      swap1\n      pop\n        /* \"@openzeppelin/contracts-upgradeable/utils/PausableUpgradeable.sol\":1147:1309  function _getPausableStorage() private pure returns (PausableStorage storage $) {... */\n      swap1\n      jump\t// out\n        /* \"@openzeppelin/contracts-upgradeable/utils/PausableUpgradeable.sol\":3366:3542  function _pause() internal virtual whenNotPaused {... */\n    tag_238:\n        /* \"@openzeppelin/contracts-upgradeable/utils/PausableUpgradeable.sol\":2316:2335  _requireNotPaused() */\n      tag_366\n        /* \"@openzeppelin/contracts-upgradeable/utils/PausableUpgradeable.sol\":2316:2333  _requireNotPaused */\n      tag_367\n        /* \"@openzeppelin/contracts-upgradeable/utils/PausableUpgradeable.sol\":2316:2335  _requireNotPaused() */\n      jump\t// in\n    tag_366:\n        /* \"@openzeppelin/contracts-upgradeable/utils/PausableUpgradeable.sol\":3425:3450  PausableStorage storage $ */\n      0x00\n        /* \"@openzeppelin/contracts-upgradeable/utils/PausableUpgradeable.sol\":3453:3474  _getPausableStorage() */\n      tag_369\n        /* \"@openzeppelin/contracts-upgradeable/utils/PausableUpgradeable.sol\":3453:3472  _getPausableStorage */\n      tag_197\n        /* \"@openzeppelin/contracts-upgradeable/utils/PausableUpgradeable.sol\":3453:3474  _getPausableStorage() */\n      jump\t// in\n    tag_369:\n        /* \"@openzeppelin/contracts-upgradeable/utils/PausableUpgradeable.sol\":3425:3474  PausableStorage storage $ = _getPausableStorage() */\n      swap1\n      pop\n        /* \"@openzeppelin/contracts-upgradeable/utils/PausableUpgradeable.sol\":3496:3500  true */\n      0x01\n        /* \"@openzeppelin/contracts-upgradeable/utils/PausableUpgradeable.sol\":3484:3485  $ */\n      dup2\n        /* \"@openzeppelin/contracts-upgradeable/utils/PausableUpgradeable.sol\":3484:3493  $._paused */\n      0x00\n      add\n      0x00\n        /* \"@openzeppelin/contracts-upgradeable/utils/PausableUpgradeable.sol\":3484:3500  $._paused = true */\n      0x0100\n      exp\n      dup2\n      sload\n      dup2\n      0xff\n      mul\n      not\n      and\n      swap1\n      dup4\n      iszero\n      iszero\n      mul\n      or\n      swap1\n      sstore\n      pop\n        /* \"@openzeppelin/contracts-upgradeable/utils/PausableUpgradeable.sol\":3515:3535  Paused(_msgSender()) */\n      0x62e78cea01bee320cd4e420270b5ea74000d11b0c9f74754ebdbfc544b05a258\n        /* \"@openzeppelin/contracts-upgradeable/utils/PausableUpgradeable.sol\":3522:3534  _msgSender() */\n      tag_370\n        /* \"@openzeppelin/contracts-upgradeable/utils/PausableUpgradeable.sol\":3522:3532  _msgSender */\n      tag_163\n        /* \"@openzeppelin/contracts-upgradeable/utils/PausableUpgradeable.sol\":3522:3534  _msgSender() */\n      jump\t// in\n    tag_370:\n        /* \"@openzeppelin/contracts-upgradeable/utils/PausableUpgradeable.sol\":3515:3535  Paused(_msgSender()) */\n      mload(0x40)\n      tag_371\n      swap2\n      swap1\n      tag_339\n      jump\t// in\n    tag_371:\n      mload(0x40)\n      dup1\n      swap2\n      sub\n      swap1\n      log1\n        /* \"@openzeppelin/contracts-upgradeable/utils/PausableUpgradeable.sol\":3415:3542  {... */\n      pop\n        /* \"@openzeppelin/contracts-upgradeable/utils/PausableUpgradeable.sol\":3366:3542  function _pause() internal virtual whenNotPaused {... */\n      jump\t// out\n        /* \"@openzeppelin/contracts-upgradeable/proxy/utils/Initializable.sol\":8737:8907  function _getInitializableStorage() private pure returns (InitializableStorage storage $) {... */\n    tag_252:\n        /* \"@openzeppelin/contracts-upgradeable/proxy/utils/Initializable.sol\":8795:8825  InitializableStorage storage $ */\n      0x00\n        /* \"@openzeppelin/contracts-upgradeable/proxy/utils/Initializable.sol\":8870:8891  INITIALIZABLE_STORAGE */\n      0xf0c57e16840df040f15088dc2f81fe391c3923bec73e23a9662efc9c229c6a00\n        /* \"@openzeppelin/contracts-upgradeable/proxy/utils/Initializable.sol\":8860:8891  $.slot := INITIALIZABLE_STORAGE */\n      swap1\n      pop\n        /* \"@openzeppelin/contracts-upgradeable/proxy/utils/Initializable.sol\":8737:8907  function _getInitializableStorage() private pure returns (InitializableStorage storage $) {... */\n      swap1\n      jump\t// out\n        /* \"@openzeppelin/contracts-upgradeable/utils/PausableUpgradeable.sol\":1836:1933  function __Pausable_init() internal onlyInitializing {... */\n    tag_260:\n        /* \"@openzeppelin/contracts-upgradeable/proxy/utils/Initializable.sol\":6931:6951  _checkInitializing() */\n      tag_374\n        /* \"@openzeppelin/contracts-upgradeable/proxy/utils/Initializable.sol\":6931:6949  _checkInitializing */\n      tag_375\n        /* \"@openzeppelin/contracts-upgradeable/proxy/utils/Initializable.sol\":6931:6951  _checkInitializing() */\n      jump\t// in\n    tag_374:\n        /* \"@openzeppelin/contracts-upgradeable/utils/PausableUpgradeable.sol\":1899:1926  __Pausable_init_unchained() */\n      tag_377\n        /* \"@openzeppelin/contracts-upgradeable/utils/PausableUpgradeable.sol\":1899:1924  __Pausable_init_unchained */\n      tag_378\n        /* \"@openzeppelin/contracts-upgradeable/utils/PausableUpgradeable.sol\":1899:1926  __Pausable_init_unchained() */\n      jump\t// in\n    tag_377:\n        /* \"@openzeppelin/contracts-upgradeable/utils/PausableUpgradeable.sol\":1836:1933  function __Pausable_init() internal onlyInitializing {... */\n      jump\t// out\n        /* \"@openzeppelin/contracts-upgradeable/access/AccessControlUpgradeable.sol\":3231:3296  function __AccessControl_init() internal onlyInitializing {... */\n    tag_262:\n        /* \"@openzeppelin/contracts-upgradeable/proxy/utils/Initializable.sol\":6931:6951  _checkInitializing() */\n      tag_380\n        /* \"@openzeppelin/contracts-upgradeable/proxy/utils/Initializable.sol\":6931:6949  _checkInitializing */\n      tag_375\n        /* \"@openzeppelin/contracts-upgradeable/proxy/utils/Initializable.sol\":6931:6951  _checkInitializing() */\n      jump\t// in\n    tag_380:\n        /* \"@openzeppelin/contracts-upgradeable/access/AccessControlUpgradeable.sol\":3231:3296  function __AccessControl_init() internal onlyInitializing {... */\n      jump\t// out\n        /* \"@openzeppelin/contracts-upgradeable/proxy/utils/UUPSUpgradeable.sol\":2968:3035  function __UUPSUpgradeable_init() internal onlyInitializing {... */\n    tag_264:\n        /* \"@openzeppelin/contracts-upgradeable/proxy/utils/Initializable.sol\":6931:6951  _checkInitializing() */\n      tag_383\n        /* \"@openzeppelin/contracts-upgradeable/proxy/utils/Initializable.sol\":6931:6949  _checkInitializing */\n      tag_375\n        /* \"@openzeppelin/contracts-upgradeable/proxy/utils/Initializable.sol\":6931:6951  _checkInitializing() */\n      jump\t// in\n    tag_383:\n        /* \"@openzeppelin/contracts-upgradeable/proxy/utils/UUPSUpgradeable.sol\":2968:3035  function __UUPSUpgradeable_init() internal onlyInitializing {... */\n      jump\t// out\n        /* \"@openzeppelin/contracts-upgradeable/access/AccessControlUpgradeable.sol\":4381:4578  function _checkRole(bytes32 role, address account) internal view virtual {... */\n    tag_318:\n        /* \"@openzeppelin/contracts-upgradeable/access/AccessControlUpgradeable.sol\":4469:4491  hasRole(role, account) */\n      tag_386\n        /* \"@openzeppelin/contracts-upgradeable/access/AccessControlUpgradeable.sol\":4477:4481  role */\n      dup3\n        /* \"@openzeppelin/contracts-upgradeable/access/AccessControlUpgradeable.sol\":4483:4490  account */\n      dup3\n        /* \"@openzeppelin/contracts-upgradeable/access/AccessControlUpgradeable.sol\":4469:4476  hasRole */\n      tag_101\n        /* \"@openzeppelin/contracts-upgradeable/access/AccessControlUpgradeable.sol\":4469:4491  hasRole(role, account) */\n      jump\t// in\n    tag_386:\n        /* \"@openzeppelin/contracts-upgradeable/access/AccessControlUpgradeable.sol\":4464:4572  if (!hasRole(role, account)) {... */\n      tag_387\n      jumpi\n        /* \"@openzeppelin/contracts-upgradeable/access/AccessControlUpgradeable.sol\":4547:4554  account */\n      dup1\n        /* \"@openzeppelin/contracts-upgradeable/access/AccessControlUpgradeable.sol\":4556:4560  role */\n      dup3\n        /* \"@openzeppelin/contracts-upgradeable/access/AccessControlUpgradeable.sol\":4514:4561  AccessControlUnauthorizedAccount(account, role) */\n      mload(0x40)\n      0xe2517d3f00000000000000000000000000000000000000000000000000000000\n      dup2\n      mstore\n      0x04\n      add\n      tag_388\n      swap3\n      swap2\n      swap1\n      tag_389\n      jump\t// in\n    tag_388:\n      mload(0x40)\n      dup1\n      swap2\n      sub\n      swap1\n      revert\n        /* \"@openzeppelin/contracts-upgradeable/access/AccessControlUpgradeable.sol\":4464:4572  if (!hasRole(role, account)) {... */\n    tag_387:\n        /* \"@openzeppelin/contracts-upgradeable/access/AccessControlUpgradeable.sol\":4381:4578  function _checkRole(bytes32 role, address account) internal view virtual {... */\n      pop\n      pop\n      jump\t// out\n        /* \"@openzeppelin/contracts-upgradeable/utils/PausableUpgradeable.sol\":3105:3231  function _requirePaused() internal view virtual {... */\n    tag_334:\n        /* \"@openzeppelin/contracts-upgradeable/utils/PausableUpgradeable.sol\":3168:3176  paused() */\n      tag_391\n        /* \"@openzeppelin/contracts-upgradeable/utils/PausableUpgradeable.sol\":3168:3174  paused */\n      tag_74\n        /* \"@openzeppelin/contracts-upgradeable/utils/PausableUpgradeable.sol\":3168:3176  paused() */\n      jump\t// in\n    tag_391:\n        /* \"@openzeppelin/contracts-upgradeable/utils/PausableUpgradeable.sol\":3163:3225  if (!paused()) {... */\n      tag_392\n      jumpi\n        /* \"@openzeppelin/contracts-upgradeable/utils/PausableUpgradeable.sol\":3199:3214  ExpectedPause() */\n      mload(0x40)\n      0x8dfc202b00000000000000000000000000000000000000000000000000000000\n      dup2\n      mstore\n      0x04\n      add\n      mload(0x40)\n      dup1\n      swap2\n      sub\n      swap1\n      revert\n        /* \"@openzeppelin/contracts-upgradeable/utils/PausableUpgradeable.sol\":3163:3225  if (!paused()) {... */\n    tag_392:\n        /* \"@openzeppelin/contracts-upgradeable/utils/PausableUpgradeable.sol\":3105:3231  function _requirePaused() internal view virtual {... */\n      jump\t// out\n        /* \"@openzeppelin/contracts/proxy/ERC1967/ERC1967Utils.sol\":1957:2095  function getImplementation() internal view returns (address) {... */\n    tag_343:\n        /* \"@openzeppelin/contracts/proxy/ERC1967/ERC1967Utils.sol\":2009:2016  address */\n      0x00\n        /* \"@openzeppelin/contracts/proxy/ERC1967/ERC1967Utils.sol\":2035:2082  StorageSlot.getAddressSlot(IMPLEMENTATION_SLOT) */\n      tag_394\n        /* \"@openzeppelin/contracts/proxy/ERC1967/ERC1967Utils.sol\":1327:1393  0x360894a13ba1a3210667c828492db98dca3e2076cc3735a920a3ca505d382bbc */\n      0x360894a13ba1a3210667c828492db98dca3e2076cc3735a920a3ca505d382bbc\n        /* \"@openzeppelin/contracts/proxy/ERC1967/ERC1967Utils.sol\":2062:2081  IMPLEMENTATION_SLOT */\n      0x00\n      shl\n        /* \"@openzeppelin/contracts/proxy/ERC1967/ERC1967Utils.sol\":2035:2061  StorageSlot.getAddressSlot */\n      tag_395\n        /* \"@openzeppelin/contracts/proxy/ERC1967/ERC1967Utils.sol\":2035:2082  StorageSlot.getAddressSlot(IMPLEMENTATION_SLOT) */\n      jump\t// in\n    tag_394:\n        /* \"@openzeppelin/contracts/proxy/ERC1967/ERC1967Utils.sol\":2035:2088  StorageSlot.getAddressSlot(IMPLEMENTATION_SLOT).value */\n      0x00\n      add\n      0x00\n      swap1\n      sload\n      swap1\n      0x0100\n      exp\n      swap1\n      div\n      0xffffffffffffffffffffffffffffffffffffffff\n      and\n        /* \"@openzeppelin/contracts/proxy/ERC1967/ERC1967Utils.sol\":2028:2088  return StorageSlot.getAddressSlot(IMPLEMENTATION_SLOT).value */\n      swap1\n      pop\n        /* \"@openzeppelin/contracts/proxy/ERC1967/ERC1967Utils.sol\":1957:2095  function getImplementation() internal view returns (address) {... */\n      swap1\n      jump\t// out\n        /* \"@openzeppelin/contracts/proxy/ERC1967/ERC1967Utils.sol\":2779:3114  function upgradeToAndCall(address newImplementation, bytes memory data) internal {... */\n    tag_361:\n        /* \"@openzeppelin/contracts/proxy/ERC1967/ERC1967Utils.sol\":2870:2907  _setImplementation(newImplementation) */\n      tag_397\n        /* \"@openzeppelin/contracts/proxy/ERC1967/ERC1967Utils.sol\":2889:2906  newImplementation */\n      dup3\n        /* \"@openzeppelin/contracts/proxy/ERC1967/ERC1967Utils.sol\":2870:2888  _setImplementation */\n      tag_398\n        /* \"@openzeppelin/contracts/proxy/ERC1967/ERC1967Utils.sol\":2870:2907  _setImplementation(newImplementation) */\n      jump\t// in\n    tag_397:\n        /* \"@openzeppelin/contracts/proxy/ERC1967/ERC1967Utils.sol\":2931:2948  newImplementation */\n      dup2\n        /* \"@openzeppelin/contracts/proxy/ERC1967/ERC1967Utils.sol\":2922:2949  Upgraded(newImplementation) */\n      0xffffffffffffffffffffffffffffffffffffffff\n      and\n      0xbc7cd75a20ee27fd9adebab32041f755214dbc6bffa90cc0225b39da2e5c2d3b\n      mload(0x40)\n      mload(0x40)\n      dup1\n      swap2\n      sub\n      swap1\n      log2\n        /* \"@openzeppelin/contracts/proxy/ERC1967/ERC1967Utils.sol\":2978:2979  0 */\n      0x00\n        /* \"@openzeppelin/contracts/proxy/ERC1967/ERC1967Utils.sol\":2964:2968  data */\n      dup2\n        /* \"@openzeppelin/contracts/proxy/ERC1967/ERC1967Utils.sol\":2964:2975  data.length */\n      mload\n        /* \"@openzeppelin/contracts/proxy/ERC1967/ERC1967Utils.sol\":2964:2979  data.length > 0 */\n      gt\n        /* \"@openzeppelin/contracts/proxy/ERC1967/ERC1967Utils.sol\":2960:3108  if (data.length > 0) {... */\n      iszero\n      tag_399\n      jumpi\n        /* \"@openzeppelin/contracts/proxy/ERC1967/ERC1967Utils.sol\":2995:3048  Address.functionDelegateCall(newImplementation, data) */\n      tag_400\n        /* \"@openzeppelin/contracts/proxy/ERC1967/ERC1967Utils.sol\":3024:3041  newImplementation */\n      dup3\n        /* \"@openzeppelin/contracts/proxy/ERC1967/ERC1967Utils.sol\":3043:3047  data */\n      dup3\n        /* \"@openzeppelin/contracts/proxy/ERC1967/ERC1967Utils.sol\":2995:3023  Address.functionDelegateCall */\n      tag_401\n        /* \"@openzeppelin/contracts/proxy/ERC1967/ERC1967Utils.sol\":2995:3048  Address.functionDelegateCall(newImplementation, data) */\n      jump\t// in\n    tag_400:\n      pop\n        /* \"@openzeppelin/contracts/proxy/ERC1967/ERC1967Utils.sol\":2960:3108  if (data.length > 0) {... */\n      jump(tag_402)\n    tag_399:\n        /* \"@openzeppelin/contracts/proxy/ERC1967/ERC1967Utils.sol\":3079:3097  _checkNonPayable() */\n      tag_403\n        /* \"@openzeppelin/contracts/proxy/ERC1967/ERC1967Utils.sol\":3079:3095  _checkNonPayable */\n      tag_404\n        /* \"@openzeppelin/contracts/proxy/ERC1967/ERC1967Utils.sol\":3079:3097  _checkNonPayable() */\n      jump\t// in\n    tag_403:\n        /* \"@openzeppelin/contracts/proxy/ERC1967/ERC1967Utils.sol\":2960:3108  if (data.length > 0) {... */\n    tag_402:\n        /* \"@openzeppelin/contracts/proxy/ERC1967/ERC1967Utils.sol\":2779:3114  function upgradeToAndCall(address newImplementation, bytes memory data) internal {... */\n      pop\n      pop\n      jump\t// out\n        /* \"@openzeppelin/contracts-upgradeable/utils/PausableUpgradeable.sol\":2905:3033  function _requireNotPaused() internal view virtual {... */\n    tag_367:\n        /* \"@openzeppelin/contracts-upgradeable/utils/PausableUpgradeable.sol\":2970:2978  paused() */\n      tag_406\n        /* \"@openzeppelin/contracts-upgradeable/utils/PausableUpgradeable.sol\":2970:2976  paused */\n      tag_74\n        /* \"@openzeppelin/contracts-upgradeable/utils/PausableUpgradeable.sol\":2970:2978  paused() */\n      jump\t// in\n    tag_406:\n        /* \"@openzeppelin/contracts-upgradeable/utils/PausableUpgradeable.sol\":2966:3027  if (paused()) {... */\n      iszero\n      tag_407\n      jumpi\n        /* \"@openzeppelin/contracts-upgradeable/utils/PausableUpgradeable.sol\":3001:3016  EnforcedPause() */\n      mload(0x40)\n      0xd93c066500000000000000000000000000000000000000000000000000000000\n      dup2\n      mstore\n      0x04\n      add\n      mload(0x40)\n      dup1\n      swap2\n      sub\n      swap1\n      revert\n        /* \"@openzeppelin/contracts-upgradeable/utils/PausableUpgradeable.sol\":2966:3027  if (paused()) {... */\n    tag_407:\n        /* \"@openzeppelin/contracts-upgradeable/utils/PausableUpgradeable.sol\":2905:3033  function _requireNotPaused() internal view virtual {... */\n      jump\t// out\n        /* \"@openzeppelin/contracts-upgradeable/proxy/utils/Initializable.sol\":7084:7225  function _checkInitializing() internal view virtual {... */\n    tag_375:\n        /* \"@openzeppelin/contracts-upgradeable/proxy/utils/Initializable.sol\":7151:7168  _isInitializing() */\n      tag_409\n        /* \"@openzeppelin/contracts-upgradeable/proxy/utils/Initializable.sol\":7151:7166  _isInitializing */\n      tag_410\n        /* \"@openzeppelin/contracts-upgradeable/proxy/utils/Initializable.sol\":7151:7168  _isInitializing() */\n      jump\t// in\n    tag_409:\n        /* \"@openzeppelin/contracts-upgradeable/proxy/utils/Initializable.sol\":7146:7219  if (!_isInitializing()) {... */\n      tag_411\n      jumpi\n        /* \"@openzeppelin/contracts-upgradeable/proxy/utils/Initializable.sol\":7191:7208  NotInitializing() */\n      mload(0x40)\n      0xd7e6bcf800000000000000000000000000000000000000000000000000000000\n      dup2\n      mstore\n      0x04\n      add\n      mload(0x40)\n      dup1\n      swap2\n      sub\n      swap1\n      revert\n        /* \"@openzeppelin/contracts-upgradeable/proxy/utils/Initializable.sol\":7146:7219  if (!_isInitializing()) {... */\n    tag_411:\n        /* \"@openzeppelin/contracts-upgradeable/proxy/utils/Initializable.sol\":7084:7225  function _checkInitializing() internal view virtual {... */\n      jump\t// out\n        /* \"@openzeppelin/contracts-upgradeable/utils/PausableUpgradeable.sol\":1939:2095  function __Pausable_init_unchained() internal onlyInitializing {... */\n    tag_378:\n        /* \"@openzeppelin/contracts-upgradeable/proxy/utils/Initializable.sol\":6931:6951  _checkInitializing() */\n      tag_413\n        /* \"@openzeppelin/contracts-upgradeable/proxy/utils/Initializable.sol\":6931:6949  _checkInitializing */\n      tag_375\n        /* \"@openzeppelin/contracts-upgradeable/proxy/utils/Initializable.sol\":6931:6951  _checkInitializing() */\n      jump\t// in\n    tag_413:\n        /* \"@openzeppelin/contracts-upgradeable/utils/PausableUpgradeable.sol\":2012:2037  PausableStorage storage $ */\n      0x00\n        /* \"@openzeppelin/contracts-upgradeable/utils/PausableUpgradeable.sol\":2040:2061  _getPausableStorage() */\n      tag_415\n        /* \"@openzeppelin/contracts-upgradeable/utils/PausableUpgradeable.sol\":2040:2059  _getPausableStorage */\n      tag_197\n        /* \"@openzeppelin/contracts-upgradeable/utils/PausableUpgradeable.sol\":2040:2061  _getPausableStorage() */\n      jump\t// in\n    tag_415:\n        /* \"@openzeppelin/contracts-upgradeable/utils/PausableUpgradeable.sol\":2012:2061  PausableStorage storage $ = _getPausableStorage() */\n      swap1\n      pop\n        /* \"@openzeppelin/contracts-upgradeable/utils/PausableUpgradeable.sol\":2083:2088  false */\n      0x00\n        /* \"@openzeppelin/contracts-upgradeable/utils/PausableUpgradeable.sol\":2071:2072  $ */\n      dup2\n        /* \"@openzeppelin/contracts-upgradeable/utils/PausableUpgradeable.sol\":2071:2080  $._paused */\n      0x00\n      add\n      0x00\n        /* \"@openzeppelin/contracts-upgradeable/utils/PausableUpgradeable.sol\":2071:2088  $._paused = false */\n      0x0100\n      exp\n      dup2\n      sload\n      dup2\n      0xff\n      mul\n      not\n      and\n      swap1\n      dup4\n      iszero\n      iszero\n      mul\n      or\n      swap1\n      sstore\n      pop\n        /* \"@openzeppelin/contracts-upgradeable/utils/PausableUpgradeable.sol\":2002:2095  {... */\n      pop\n        /* \"@openzeppelin/contracts-upgradeable/utils/PausableUpgradeable.sol\":1939:2095  function __Pausable_init_unchained() internal onlyInitializing {... */\n      jump\t// out\n        /* \"@openzeppelin/contracts/utils/StorageSlot.sol\":1684:1874  function getAddressSlot(bytes32 slot) internal pure returns (AddressSlot storage r) {... */\n    tag_395:\n        /* \"@openzeppelin/contracts/utils/StorageSlot.sol\":1745:1766  AddressSlot storage r */\n      0x00\n        /* \"@openzeppelin/contracts/utils/StorageSlot.sol\":1854:1858  slot */\n      dup2\n        /* \"@openzeppelin/contracts/utils/StorageSlot.sol\":1844:1858  r.slot := slot */\n      swap1\n      pop\n        /* \"@openzeppelin/contracts/utils/StorageSlot.sol\":1684:1874  function getAddressSlot(bytes32 slot) internal pure returns (AddressSlot storage r) {... */\n      swap2\n      swap1\n      pop\n      jump\t// out\n        /* \"@openzeppelin/contracts/proxy/ERC1967/ERC1967Utils.sol\":2186:2467  function _setImplementation(address newImplementation) private {... */\n    tag_398:\n        /* \"@openzeppelin/contracts/proxy/ERC1967/ERC1967Utils.sol\":2296:2297  0 */\n      0x00\n        /* \"@openzeppelin/contracts/proxy/ERC1967/ERC1967Utils.sol\":2263:2280  newImplementation */\n      dup2\n        /* \"@openzeppelin/contracts/proxy/ERC1967/ERC1967Utils.sol\":2263:2292  newImplementation.code.length */\n      0xffffffffffffffffffffffffffffffffffffffff\n      and\n      extcodesize\n        /* \"@openzeppelin/contracts/proxy/ERC1967/ERC1967Utils.sol\":2263:2297  newImplementation.code.length == 0 */\n      sub\n        /* \"@openzeppelin/contracts/proxy/ERC1967/ERC1967Utils.sol\":2259:2378  if (newImplementation.code.length == 0) {... */\n      tag_418\n      jumpi\n        /* \"@openzeppelin/contracts/proxy/ERC1967/ERC1967Utils.sol\":2349:2366  newImplementation */\n      dup1\n        /* \"@openzeppelin/contracts/proxy/ERC1967/ERC1967Utils.sol\":2320:2367  ERC1967InvalidImplementation(newImplementation) */\n      mload(0x40)\n      0x4c9c8ce300000000000000000000000000000000000000000000000000000000\n      dup2\n      mstore\n      0x04\n      add\n      tag_419\n      swap2\n      swap1\n      tag_339\n      jump\t// in\n    tag_419:\n      mload(0x40)\n      dup1\n      swap2\n      sub\n      swap1\n      revert\n        /* \"@openzeppelin/contracts/proxy/ERC1967/ERC1967Utils.sol\":2259:2378  if (newImplementation.code.length == 0) {... */\n    tag_418:\n        /* \"@openzeppelin/contracts/proxy/ERC1967/ERC1967Utils.sol\":2443:2460  newImplementation */\n      dup1\n        /* \"@openzeppelin/contracts/proxy/ERC1967/ERC1967Utils.sol\":2387:2434  StorageSlot.getAddressSlot(IMPLEMENTATION_SLOT) */\n      tag_420\n        /* \"@openzeppelin/contracts/proxy/ERC1967/ERC1967Utils.sol\":1327:1393  0x360894a13ba1a3210667c828492db98dca3e2076cc3735a920a3ca505d382bbc */\n      0x360894a13ba1a3210667c828492db98dca3e2076cc3735a920a3ca505d382bbc\n        /* \"@openzeppelin/contracts/proxy/ERC1967/ERC1967Utils.sol\":2414:2433  IMPLEMENTATION_SLOT */\n      0x00\n      shl\n        /* \"@openzeppelin/contracts/proxy/ERC1967/ERC1967Utils.sol\":2387:2413  StorageSlot.getAddressSlot */\n      tag_395\n        /* \"@openzeppelin/contracts/proxy/ERC1967/ERC1967Utils.sol\":2387:2434  StorageSlot.getAddressSlot(IMPLEMENTATION_SLOT) */\n      jump\t// in\n    tag_420:\n        /* \"@openzeppelin/contracts/proxy/ERC1967/ERC1967Utils.sol\":2387:2440  StorageSlot.getAddressSlot(IMPLEMENTATION_SLOT).value */\n      0x00\n      add\n      0x00\n        /* \"@openzeppelin/contracts/proxy/ERC1967/ERC1967Utils.sol\":2387:2460  StorageSlot.getAddressSlot(IMPLEMENTATION_SLOT).value = newImplementation */\n      0x0100\n      exp\n      dup2\n      sload\n      dup2\n      0xffffffffffffffffffffffffffffffffffffffff\n      mul\n      not\n      and\n      swap1\n      dup4\n      0xffffffffffffffffffffffffffffffffffffffff\n      and\n      mul\n      or\n      swap1\n      sstore\n      pop\n        /* \"@openzeppelin/contracts/proxy/ERC1967/ERC1967Utils.sol\":2186:2467  function _setImplementation(address newImplementation) private {... */\n      pop\n      jump\t// out\n        /* \"@openzeppelin/contracts/utils/Address.sol\":4106:4359  function functionDelegateCall(address target, bytes memory data) internal returns (bytes memory) {... */\n    tag_401:\n        /* \"@openzeppelin/contracts/utils/Address.sol\":4189:4201  bytes memory */\n      0x60\n        /* \"@openzeppelin/contracts/utils/Address.sol\":4214:4226  bool success */\n      0x00\n        /* \"@openzeppelin/contracts/utils/Address.sol\":4228:4251  bytes memory returndata */\n      dup1\n        /* \"@openzeppelin/contracts/utils/Address.sol\":4255:4261  target */\n      dup5\n        /* \"@openzeppelin/contracts/utils/Address.sol\":4255:4274  target.delegatecall */\n      0xffffffffffffffffffffffffffffffffffffffff\n      and\n        /* \"@openzeppelin/contracts/utils/Address.sol\":4275:4279  data */\n      dup5\n        /* \"@openzeppelin/contracts/utils/Address.sol\":4255:4280  target.delegatecall(data) */\n      mload(0x40)\n      tag_422\n      swap2\n      swap1\n      tag_423\n      jump\t// in\n    tag_422:\n      0x00\n      mload(0x40)\n      dup1\n      dup4\n      sub\n      dup2\n      dup6\n      gas\n      delegatecall\n      swap2\n      pop\n      pop\n      returndatasize\n      dup1\n      0x00\n      dup2\n      eq\n      tag_426\n      jumpi\n      mload(0x40)\n      swap2\n      pop\n      and(add(returndatasize, 0x3f), not(0x1f))\n      dup3\n      add\n      0x40\n      mstore\n      returndatasize\n      dup3\n      mstore\n      returndatasize\n      0x00\n      0x20\n      dup5\n      add\n      returndatacopy\n      jump(tag_425)\n    tag_426:\n      0x60\n      swap2\n      pop\n    tag_425:\n      pop\n        /* \"@openzeppelin/contracts/utils/Address.sol\":4213:4280  (bool success, bytes memory returndata) = target.delegatecall(data) */\n      swap2\n      pop\n      swap2\n      pop\n        /* \"@openzeppelin/contracts/utils/Address.sol\":4297:4352  verifyCallResultFromTarget(target, success, returndata) */\n      tag_427\n        /* \"@openzeppelin/contracts/utils/Address.sol\":4324:4330  target */\n      dup6\n        /* \"@openzeppelin/contracts/utils/Address.sol\":4332:4339  success */\n      dup4\n        /* \"@openzeppelin/contracts/utils/Address.sol\":4341:4351  returndata */\n      dup4\n        /* \"@openzeppelin/contracts/utils/Address.sol\":4297:4323  verifyCallResultFromTarget */\n      tag_428\n        /* \"@openzeppelin/contracts/utils/Address.sol\":4297:4352  verifyCallResultFromTarget(target, success, returndata) */\n      jump\t// in\n    tag_427:\n        /* \"@openzeppelin/contracts/utils/Address.sol\":4290:4352  return verifyCallResultFromTarget(target, success, returndata) */\n      swap3\n      pop\n      pop\n      pop\n        /* \"@openzeppelin/contracts/utils/Address.sol\":4106:4359  function functionDelegateCall(address target, bytes memory data) internal returns (bytes memory) {... */\n      swap3\n      swap2\n      pop\n      pop\n      jump\t// out\n        /* \"@openzeppelin/contracts/proxy/ERC1967/ERC1967Utils.sol\":6598:6720  function _checkNonPayable() private {... */\n    tag_404:\n        /* \"@openzeppelin/contracts/proxy/ERC1967/ERC1967Utils.sol\":6660:6661  0 */\n      0x00\n        /* \"@openzeppelin/contracts/proxy/ERC1967/ERC1967Utils.sol\":6648:6657  msg.value */\n      callvalue\n        /* \"@openzeppelin/contracts/proxy/ERC1967/ERC1967Utils.sol\":6648:6661  msg.value > 0 */\n      gt\n        /* \"@openzeppelin/contracts/proxy/ERC1967/ERC1967Utils.sol\":6644:6714  if (msg.value > 0) {... */\n      iszero\n      tag_430\n      jumpi\n        /* \"@openzeppelin/contracts/proxy/ERC1967/ERC1967Utils.sol\":6684:6703  ERC1967NonPayable() */\n      mload(0x40)\n      0xb398979f00000000000000000000000000000000000000000000000000000000\n      dup2\n      mstore\n      0x04\n      add\n      mload(0x40)\n      dup1\n      swap2\n      sub\n      swap1\n      revert\n        /* \"@openzeppelin/contracts/proxy/ERC1967/ERC1967Utils.sol\":6644:6714  if (msg.value > 0) {... */\n    tag_430:\n        /* \"@openzeppelin/contracts/proxy/ERC1967/ERC1967Utils.sol\":6598:6720  function _checkNonPayable() private {... */\n      jump\t// out\n        /* \"@openzeppelin/contracts-upgradeable/proxy/utils/Initializable.sol\":8487:8607  function _isInitializing() internal view returns (bool) {... */\n    tag_410:\n        /* \"@openzeppelin/contracts-upgradeable/proxy/utils/Initializable.sol\":8537:8541  bool */\n      0x00\n        /* \"@openzeppelin/contracts-upgradeable/proxy/utils/Initializable.sol\":8560:8586  _getInitializableStorage() */\n      tag_432\n        /* \"@openzeppelin/contracts-upgradeable/proxy/utils/Initializable.sol\":8560:8584  _getInitializableStorage */\n      tag_252\n        /* \"@openzeppelin/contracts-upgradeable/proxy/utils/Initializable.sol\":8560:8586  _getInitializableStorage() */\n      jump\t// in\n    tag_432:\n        /* \"@openzeppelin/contracts-upgradeable/proxy/utils/Initializable.sol\":8560:8600  _getInitializableStorage()._initializing */\n      0x00\n      add\n      0x08\n      swap1\n      sload\n      swap1\n      0x0100\n      exp\n      swap1\n      div\n      0xff\n      and\n        /* \"@openzeppelin/contracts-upgradeable/proxy/utils/Initializable.sol\":8553:8600  return _getInitializableStorage()._initializing */\n      swap1\n      pop\n        /* \"@openzeppelin/contracts-upgradeable/proxy/utils/Initializable.sol\":8487:8607  function _isInitializing() internal view returns (bool) {... */\n      swap1\n      jump\t// out\n        /* \"@openzeppelin/contracts/utils/Address.sol\":4625:5207  function verifyCallResultFromTarget(... */\n    tag_428:\n        /* \"@openzeppelin/contracts/utils/Address.sol\":4769:4781  bytes memory */\n      0x60\n        /* \"@openzeppelin/contracts/utils/Address.sol\":4798:4805  success */\n      dup3\n        /* \"@openzeppelin/contracts/utils/Address.sol\":4793:5201  if (!success) {... */\n      tag_434\n      jumpi\n        /* \"@openzeppelin/contracts/utils/Address.sol\":4821:4840  _revert(returndata) */\n      tag_435\n        /* \"@openzeppelin/contracts/utils/Address.sol\":4829:4839  returndata */\n      dup3\n        /* \"@openzeppelin/contracts/utils/Address.sol\":4821:4828  _revert */\n      tag_436\n        /* \"@openzeppelin/contracts/utils/Address.sol\":4821:4840  _revert(returndata) */\n      jump\t// in\n    tag_435:\n        /* \"@openzeppelin/contracts/utils/Address.sol\":4793:5201  if (!success) {... */\n      jump(tag_437)\n    tag_434:\n        /* \"@openzeppelin/contracts/utils/Address.sol\":5066:5067  0 */\n      0x00\n        /* \"@openzeppelin/contracts/utils/Address.sol\":5045:5055  returndata */\n      dup3\n        /* \"@openzeppelin/contracts/utils/Address.sol\":5045:5062  returndata.length */\n      mload\n        /* \"@openzeppelin/contracts/utils/Address.sol\":5045:5067  returndata.length == 0 */\n      eq\n        /* \"@openzeppelin/contracts/utils/Address.sol\":5045:5094  returndata.length == 0 && target.code.length == 0 */\n      dup1\n      iszero\n      tag_438\n      jumpi\n      pop\n        /* \"@openzeppelin/contracts/utils/Address.sol\":5093:5094  0 */\n      0x00\n        /* \"@openzeppelin/contracts/utils/Address.sol\":5071:5077  target */\n      dup5\n        /* \"@openzeppelin/contracts/utils/Address.sol\":5071:5089  target.code.length */\n      0xffffffffffffffffffffffffffffffffffffffff\n      and\n      extcodesize\n        /* \"@openzeppelin/contracts/utils/Address.sol\":5071:5094  target.code.length == 0 */\n      eq\n        /* \"@openzeppelin/contracts/utils/Address.sol\":5045:5094  returndata.length == 0 && target.code.length == 0 */\n    tag_438:\n        /* \"@openzeppelin/contracts/utils/Address.sol\":5041:5160  if (returndata.length == 0 && target.code.length == 0) {... */\n      iszero\n      tag_439\n      jumpi\n        /* \"@openzeppelin/contracts/utils/Address.sol\":5138:5144  target */\n      dup4\n        /* \"@openzeppelin/contracts/utils/Address.sol\":5121:5145  AddressEmptyCode(target) */\n      mload(0x40)\n      0x9996b31500000000000000000000000000000000000000000000000000000000\n      dup2\n      mstore\n      0x04\n      add\n      tag_440\n      swap2\n      swap1\n      tag_339\n      jump\t// in\n    tag_440:\n      mload(0x40)\n      dup1\n      swap2\n      sub\n      swap1\n      revert\n        /* \"@openzeppelin/contracts/utils/Address.sol\":5041:5160  if (returndata.length == 0 && target.code.length == 0) {... */\n    tag_439:\n        /* \"@openzeppelin/contracts/utils/Address.sol\":5180:5190  returndata */\n      dup2\n        /* \"@openzeppelin/contracts/utils/Address.sol\":5173:5190  return returndata */\n      swap1\n      pop\n      jump(tag_433)\n        /* \"@openzeppelin/contracts/utils/Address.sol\":4793:5201  if (!success) {... */\n    tag_437:\n        /* \"@openzeppelin/contracts/utils/Address.sol\":4625:5207  function verifyCallResultFromTarget(... */\n    tag_433:\n      swap4\n      swap3\n      pop\n      pop\n      pop\n      jump\t// out\n        /* \"@openzeppelin/contracts/utils/Address.sol\":5743:6259  function _revert(bytes memory returndata) private pure {... */\n    tag_436:\n        /* \"@openzeppelin/contracts/utils/Address.sol\":5894:5895  0 */\n      0x00\n        /* \"@openzeppelin/contracts/utils/Address.sol\":5874:5884  returndata */\n      dup2\n        /* \"@openzeppelin/contracts/utils/Address.sol\":5874:5891  returndata.length */\n      mload\n        /* \"@openzeppelin/contracts/utils/Address.sol\":5874:5895  returndata.length > 0 */\n      gt\n        /* \"@openzeppelin/contracts/utils/Address.sol\":5870:6253  if (returndata.length > 0) {... */\n      iszero\n      tag_442\n      jumpi\n        /* \"@openzeppelin/contracts/utils/Address.sol\":6102:6112  returndata */\n      dup1\n        /* \"@openzeppelin/contracts/utils/Address.sol\":6096:6113  mload(returndata) */\n      mload\n        /* \"@openzeppelin/contracts/utils/Address.sol\":6158:6173  returndata_size */\n      dup1\n        /* \"@openzeppelin/contracts/utils/Address.sol\":6145:6155  returndata */\n      dup3\n        /* \"@openzeppelin/contracts/utils/Address.sol\":6141:6143  32 */\n      0x20\n        /* \"@openzeppelin/contracts/utils/Address.sol\":6137:6156  add(32, returndata) */\n      add\n        /* \"@openzeppelin/contracts/utils/Address.sol\":6130:6174  revert(add(32, returndata), returndata_size) */\n      revert\n        /* \"@openzeppelin/contracts/utils/Address.sol\":5870:6253  if (returndata.length > 0) {... */\n    tag_442:\n        /* \"@openzeppelin/contracts/utils/Address.sol\":6225:6242  FailedInnerCall() */\n      mload(0x40)\n      0x1425ea4200000000000000000000000000000000000000000000000000000000\n      dup2\n      mstore\n      0x04\n      add\n      mload(0x40)\n      dup1\n      swap2\n      sub\n      swap1\n      revert\n        /* \"#utility.yul\":7:82   */\n    tag_444:\n        /* \"#utility.yul\":40:46   */\n      0x00\n        /* \"#utility.yul\":73:75   */\n      0x40\n        /* \"#utility.yul\":67:76   */\n      mload\n        /* \"#utility.yul\":57:76   */\n      swap1\n      pop\n        /* \"#utility.yul\":7:82   */\n      swap1\n      jump\t// out\n        /* \"#utility.yul\":88:205   */\n    tag_445:\n        /* \"#utility.yul\":197:198   */\n      0x00\n        /* \"#utility.yul\":194:195   */\n      dup1\n        /* \"#utility.yul\":187:199   */\n      revert\n        /* \"#utility.yul\":211:328   */\n    tag_446:\n        /* \"#utility.yul\":320:321   */\n      0x00\n        /* \"#utility.yul\":317:318   */\n      dup1\n        /* \"#utility.yul\":310:322   */\n      revert\n        /* \"#utility.yul\":334:483   */\n    tag_447:\n        /* \"#utility.yul\":370:377   */\n      0x00\n        /* \"#utility.yul\":410:476   */\n      0xffffffff00000000000000000000000000000000000000000000000000000000\n        /* \"#utility.yul\":403:408   */\n      dup3\n        /* \"#utility.yul\":399:477   */\n      and\n        /* \"#utility.yul\":388:477   */\n      swap1\n      pop\n        /* \"#utility.yul\":334:483   */\n      swap2\n      swap1\n      pop\n      jump\t// out\n        /* \"#utility.yul\":489:609   */\n    tag_448:\n        /* \"#utility.yul\":561:584   */\n      tag_533\n        /* \"#utility.yul\":578:583   */\n      dup2\n        /* \"#utility.yul\":561:584   */\n      tag_447\n      jump\t// in\n    tag_533:\n        /* \"#utility.yul\":554:559   */\n      dup2\n        /* \"#utility.yul\":551:585   */\n      eq\n        /* \"#utility.yul\":541:603   */\n      tag_534\n      jumpi\n        /* \"#utility.yul\":599:600   */\n      0x00\n        /* \"#utility.yul\":596:597   */\n      dup1\n        /* \"#utility.yul\":589:601   */\n      revert\n        /* \"#utility.yul\":541:603   */\n    tag_534:\n        /* \"#utility.yul\":489:609   */\n      pop\n      jump\t// out\n        /* \"#utility.yul\":615:752   */\n    tag_449:\n        /* \"#utility.yul\":660:665   */\n      0x00\n        /* \"#utility.yul\":698:704   */\n      dup2\n        /* \"#utility.yul\":685:705   */\n      calldataload\n        /* \"#utility.yul\":676:705   */\n      swap1\n      pop\n        /* \"#utility.yul\":714:746   */\n      tag_536\n        /* \"#utility.yul\":740:745   */\n      dup2\n        /* \"#utility.yul\":714:746   */\n      tag_448\n      jump\t// in\n    tag_536:\n        /* \"#utility.yul\":615:752   */\n      swap3\n      swap2\n      pop\n      pop\n      jump\t// out\n        /* \"#utility.yul\":758:1085   */\n    tag_34:\n        /* \"#utility.yul\":816:822   */\n      0x00\n        /* \"#utility.yul\":865:867   */\n      0x20\n        /* \"#utility.yul\":853:862   */\n      dup3\n        /* \"#utility.yul\":844:851   */\n      dup5\n        /* \"#utility.yul\":840:863   */\n      sub\n        /* \"#utility.yul\":836:868   */\n      slt\n        /* \"#utility.yul\":833:952   */\n      iszero\n      tag_538\n      jumpi\n        /* \"#utility.yul\":871:950   */\n      tag_539\n      tag_445\n      jump\t// in\n    tag_539:\n        /* \"#utility.yul\":833:952   */\n    tag_538:\n        /* \"#utility.yul\":991:992   */\n      0x00\n        /* \"#utility.yul\":1016:1068   */\n      tag_540\n        /* \"#utility.yul\":1060:1067   */\n      dup5\n        /* \"#utility.yul\":1051:1057   */\n      dup3\n        /* \"#utility.yul\":1040:1049   */\n      dup6\n        /* \"#utility.yul\":1036:1058   */\n      add\n        /* \"#utility.yul\":1016:1068   */\n      tag_449\n      jump\t// in\n    tag_540:\n        /* \"#utility.yul\":1006:1068   */\n      swap2\n      pop\n        /* \"#utility.yul\":962:1078   */\n      pop\n        /* \"#utility.yul\":758:1085   */\n      swap3\n      swap2\n      pop\n      pop\n      jump\t// out\n        /* \"#utility.yul\":1091:1181   */\n    tag_450:\n        /* \"#utility.yul\":1125:1132   */\n      0x00\n        /* \"#utility.yul\":1168:1173   */\n      dup2\n        /* \"#utility.yul\":1161:1174   */\n      iszero\n        /* \"#utility.yul\":1154:1175   */\n      iszero\n        /* \"#utility.yul\":1143:1175   */\n      swap1\n      pop\n        /* \"#utility.yul\":1091:1181   */\n      swap2\n      swap1\n      pop\n      jump\t// out\n        /* \"#utility.yul\":1187:1296   */\n    tag_451:\n        /* \"#utility.yul\":1268:1289   */\n      tag_543\n        /* \"#utility.yul\":1283:1288   */\n      dup2\n        /* \"#utility.yul\":1268:1289   */\n      tag_450\n      jump\t// in\n    tag_543:\n        /* \"#utility.yul\":1263:1266   */\n      dup3\n        /* \"#utility.yul\":1256:1290   */\n      mstore\n        /* \"#utility.yul\":1187:1296   */\n      pop\n      pop\n      jump\t// out\n        /* \"#utility.yul\":1302:1512   */\n    tag_37:\n        /* \"#utility.yul\":1389:1393   */\n      0x00\n        /* \"#utility.yul\":1427:1429   */\n      0x20\n        /* \"#utility.yul\":1416:1425   */\n      dup3\n        /* \"#utility.yul\":1412:1430   */\n      add\n        /* \"#utility.yul\":1404:1430   */\n      swap1\n      pop\n        /* \"#utility.yul\":1440:1505   */\n      tag_545\n        /* \"#utility.yul\":1502:1503   */\n      0x00\n        /* \"#utility.yul\":1491:1500   */\n      dup4\n        /* \"#utility.yul\":1487:1504   */\n      add\n        /* \"#utility.yul\":1478:1484   */\n      dup5\n        /* \"#utility.yul\":1440:1505   */\n      tag_451\n      jump\t// in\n    tag_545:\n        /* \"#utility.yul\":1302:1512   */\n      swap3\n      swap2\n      pop\n      pop\n      jump\t// out\n        /* \"#utility.yul\":1518:1595   */\n    tag_452:\n        /* \"#utility.yul\":1555:1562   */\n      0x00\n        /* \"#utility.yul\":1584:1589   */\n      dup2\n        /* \"#utility.yul\":1573:1589   */\n      swap1\n      pop\n        /* \"#utility.yul\":1518:1595   */\n      swap2\n      swap1\n      pop\n      jump\t// out\n        /* \"#utility.yul\":1601:1723   */\n    tag_453:\n        /* \"#utility.yul\":1674:1698   */\n      tag_548\n        /* \"#utility.yul\":1692:1697   */\n      dup2\n        /* \"#utility.yul\":1674:1698   */\n      tag_452\n      jump\t// in\n    tag_548:\n        /* \"#utility.yul\":1667:1672   */\n      dup2\n        /* \"#utility.yul\":1664:1699   */\n      eq\n        /* \"#utility.yul\":1654:1717   */\n      tag_549\n      jumpi\n        /* \"#utility.yul\":1713:1714   */\n      0x00\n        /* \"#utility.yul\":1710:1711   */\n      dup1\n        /* \"#utility.yul\":1703:1715   */\n      revert\n        /* \"#utility.yul\":1654:1717   */\n    tag_549:\n        /* \"#utility.yul\":1601:1723   */\n      pop\n      jump\t// out\n        /* \"#utility.yul\":1729:1868   */\n    tag_454:\n        /* \"#utility.yul\":1775:1780   */\n      0x00\n        /* \"#utility.yul\":1813:1819   */\n      dup2\n        /* \"#utility.yul\":1800:1820   */\n      calldataload\n        /* \"#utility.yul\":1791:1820   */\n      swap1\n      pop\n        /* \"#utility.yul\":1829:1862   */\n      tag_551\n        /* \"#utility.yul\":1856:1861   */\n      dup2\n        /* \"#utility.yul\":1829:1862   */\n      tag_453\n      jump\t// in\n    tag_551:\n        /* \"#utility.yul\":1729:1868   */\n      swap3\n      swap2\n      pop\n      pop\n      jump\t// out\n        /* \"#utility.yul\":1874:2203   */\n    tag_41:\n        /* \"#utility.yul\":1933:1939   */\n      0x00\n        /* \"#utility.yul\":1982:1984   */\n      0x20\n        /* \"#utility.yul\":1970:1979   */\n      dup3\n        /* \"#utility.yul\":1961:1968   */\n      dup5\n        /* \"#utility.yul\":1957:1980   */\n      sub\n        /* \"#utility.yul\":1953:1985   */\n      slt\n        /* \"#utility.yul\":1950:2069   */\n      iszero\n      tag_553\n      jumpi\n        /* \"#utility.yul\":1988:2067   */\n      tag_554\n      tag_445\n      jump\t// in\n    tag_554:\n        /* \"#utility.yul\":1950:2069   */\n    tag_553:\n        /* \"#utility.yul\":2108:2109   */\n      0x00\n        /* \"#utility.yul\":2133:2186   */\n      tag_555\n        /* \"#utility.yul\":2178:2185   */\n      dup5\n        /* \"#utility.yul\":2169:2175   */\n      dup3\n        /* \"#utility.yul\":2158:2167   */\n      dup6\n        /* \"#utility.yul\":2154:2176   */\n      add\n        /* \"#utility.yul\":2133:2186   */\n      tag_454\n      jump\t// in\n    tag_555:\n        /* \"#utility.yul\":2123:2186   */\n      swap2\n      pop\n        /* \"#utility.yul\":2079:2196   */\n      pop\n        /* \"#utility.yul\":1874:2203   */\n      swap3\n      swap2\n      pop\n      pop\n      jump\t// out\n        /* \"#utility.yul\":2209:2327   */\n    tag_455:\n        /* \"#utility.yul\":2296:2320   */\n      tag_557\n        /* \"#utility.yul\":2314:2319   */\n      dup2\n        /* \"#utility.yul\":2296:2320   */\n      tag_452\n      jump\t// in\n    tag_557:\n        /* \"#utility.yul\":2291:2294   */\n      dup3\n        /* \"#utility.yul\":2284:2321   */\n      mstore\n        /* \"#utility.yul\":2209:2327   */\n      pop\n      pop\n      jump\t// out\n        /* \"#utility.yul\":2333:2555   */\n    tag_44:\n        /* \"#utility.yul\":2426:2430   */\n      0x00\n        /* \"#utility.yul\":2464:2466   */\n      0x20\n        /* \"#utility.yul\":2453:2462   */\n      dup3\n        /* \"#utility.yul\":2449:2467   */\n      add\n        /* \"#utility.yul\":2441:2467   */\n      swap1\n      pop\n        /* \"#utility.yul\":2477:2548   */\n      tag_559\n        /* \"#utility.yul\":2545:2546   */\n      0x00\n        /* \"#utility.yul\":2534:2543   */\n      dup4\n        /* \"#utility.yul\":2530:2547   */\n      add\n        /* \"#utility.yul\":2521:2527   */\n      dup5\n        /* \"#utility.yul\":2477:2548   */\n      tag_455\n      jump\t// in\n    tag_559:\n        /* \"#utility.yul\":2333:2555   */\n      swap3\n      swap2\n      pop\n      pop\n      jump\t// out\n        /* \"#utility.yul\":2561:2687   */\n    tag_456:\n        /* \"#utility.yul\":2598:2605   */\n      0x00\n        /* \"#utility.yul\":2638:2680   */\n      0xffffffffffffffffffffffffffffffffffffffff\n        /* \"#utility.yul\":2631:2636   */\n      dup3\n        /* \"#utility.yul\":2627:2681   */\n      and\n        /* \"#utility.yul\":2616:2681   */\n      swap1\n      pop\n        /* \"#utility.yul\":2561:2687   */\n      swap2\n      swap1\n      pop\n      jump\t// out\n        /* \"#utility.yul\":2693:2789   */\n    tag_457:\n        /* \"#utility.yul\":2730:2737   */\n      0x00\n        /* \"#utility.yul\":2759:2783   */\n      tag_562\n        /* \"#utility.yul\":2777:2782   */\n      dup3\n        /* \"#utility.yul\":2759:2783   */\n      tag_456\n      jump\t// in\n    tag_562:\n        /* \"#utility.yul\":2748:2783   */\n      swap1\n      pop\n        /* \"#utility.yul\":2693:2789   */\n      swap2\n      swap1\n      pop\n      jump\t// out\n        /* \"#utility.yul\":2795:2917   */\n    tag_458:\n        /* \"#utility.yul\":2868:2892   */\n      tag_564\n        /* \"#utility.yul\":2886:2891   */\n      dup2\n        /* \"#utility.yul\":2868:2892   */\n      tag_457\n      jump\t// in\n    tag_564:\n        /* \"#utility.yul\":2861:2866   */\n      dup2\n        /* \"#utility.yul\":2858:2893   */\n      eq\n        /* \"#utility.yul\":2848:2911   */\n      tag_565\n      jumpi\n        /* \"#utility.yul\":2907:2908   */\n      0x00\n        /* \"#utility.yul\":2904:2905   */\n      dup1\n        /* \"#utility.yul\":2897:2909   */\n      revert\n        /* \"#utility.yul\":2848:2911   */\n    tag_565:\n        /* \"#utility.yul\":2795:2917   */\n      pop\n      jump\t// out\n        /* \"#utility.yul\":2923:3062   */\n    tag_459:\n        /* \"#utility.yul\":2969:2974   */\n      0x00\n        /* \"#utility.yul\":3007:3013   */\n      dup2\n        /* \"#utility.yul\":2994:3014   */\n      calldataload\n        /* \"#utility.yul\":2985:3014   */\n      swap1\n      pop\n        /* \"#utility.yul\":3023:3056   */\n      tag_567\n        /* \"#utility.yul\":3050:3055   */\n      dup2\n        /* \"#utility.yul\":3023:3056   */\n      tag_458\n      jump\t// in\n    tag_567:\n        /* \"#utility.yul\":2923:3062   */\n      swap3\n      swap2\n      pop\n      pop\n      jump\t// out\n        /* \"#utility.yul\":3068:3542   */\n    tag_48:\n        /* \"#utility.yul\":3136:3142   */\n      0x00\n        /* \"#utility.yul\":3144:3150   */\n      dup1\n        /* \"#utility.yul\":3193:3195   */\n      0x40\n        /* \"#utility.yul\":3181:3190   */\n      dup4\n        /* \"#utility.yul\":3172:3179   */\n      dup6\n        /* \"#utility.yul\":3168:3191   */\n      sub\n        /* \"#utility.yul\":3164:3196   */\n      slt\n        /* \"#utility.yul\":3161:3280   */\n      iszero\n      tag_569\n      jumpi\n        /* \"#utility.yul\":3199:3278   */\n      tag_570\n      tag_445\n      jump\t// in\n    tag_570:\n        /* \"#utility.yul\":3161:3280   */\n    tag_569:\n        /* \"#utility.yul\":3319:3320   */\n      0x00\n        /* \"#utility.yul\":3344:3397   */\n      tag_571\n        /* \"#utility.yul\":3389:3396   */\n      dup6\n        /* \"#utility.yul\":3380:3386   */\n      dup3\n        /* \"#utility.yul\":3369:3378   */\n      dup7\n        /* \"#utility.yul\":3365:3387   */\n      add\n        /* \"#utility.yul\":3344:3397   */\n      tag_454\n      jump\t// in\n    tag_571:\n        /* \"#utility.yul\":3334:3397   */\n      swap3\n      pop\n        /* \"#utility.yul\":3290:3407   */\n      pop\n        /* \"#utility.yul\":3446:3448   */\n      0x20\n        /* \"#utility.yul\":3472:3525   */\n      tag_572\n        /* \"#utility.yul\":3517:3524   */\n      dup6\n        /* \"#utility.yul\":3508:3514   */\n      dup3\n        /* \"#utility.yul\":3497:3506   */\n      dup7\n        /* \"#utility.yul\":3493:3515   */\n      add\n        /* \"#utility.yul\":3472:3525   */\n      tag_459\n      jump\t// in\n    tag_572:\n        /* \"#utility.yul\":3462:3525   */\n      swap2\n      pop\n        /* \"#utility.yul\":3417:3535   */\n      pop\n        /* \"#utility.yul\":3068:3542   */\n      swap3\n      pop\n      swap3\n      swap1\n      pop\n      jump\t// out\n        /* \"#utility.yul\":3548:3665   */\n    tag_460:\n        /* \"#utility.yul\":3657:3658   */\n      0x00\n        /* \"#utility.yul\":3654:3655   */\n      dup1\n        /* \"#utility.yul\":3647:3659   */\n      revert\n        /* \"#utility.yul\":3671:3788   */\n    tag_461:\n        /* \"#utility.yul\":3780:3781   */\n      0x00\n        /* \"#utility.yul\":3777:3778   */\n      dup1\n        /* \"#utility.yul\":3770:3782   */\n      revert\n        /* \"#utility.yul\":3794:3896   */\n    tag_462:\n        /* \"#utility.yul\":3835:3841   */\n      0x00\n        /* \"#utility.yul\":3886:3888   */\n      0x1f\n        /* \"#utility.yul\":3882:3889   */\n      not\n        /* \"#utility.yul\":3877:3879   */\n      0x1f\n        /* \"#utility.yul\":3870:3875   */\n      dup4\n        /* \"#utility.yul\":3866:3880   */\n      add\n        /* \"#utility.yul\":3862:3890   */\n      and\n        /* \"#utility.yul\":3852:3890   */\n      swap1\n      pop\n        /* \"#utility.yul\":3794:3896   */\n      swap2\n      swap1\n      pop\n      jump\t// out\n        /* \"#utility.yul\":3902:4082   */\n    tag_463:\n        /* \"#utility.yul\":3950:4027   */\n      0x4e487b7100000000000000000000000000000000000000000000000000000000\n        /* \"#utility.yul\":3947:3948   */\n      0x00\n        /* \"#utility.yul\":3940:4028   */\n      mstore\n        /* \"#utility.yul\":4047:4051   */\n      0x41\n        /* \"#utility.yul\":4044:4045   */\n      0x04\n        /* \"#utility.yul\":4037:4052   */\n      mstore\n        /* \"#utility.yul\":4071:4075   */\n      0x24\n        /* \"#utility.yul\":4068:4069   */\n      0x00\n        /* \"#utility.yul\":4061:4076   */\n      revert\n        /* \"#utility.yul\":4088:4369   */\n    tag_464:\n        /* \"#utility.yul\":4171:4198   */\n      tag_578\n        /* \"#utility.yul\":4193:4197   */\n      dup3\n        /* \"#utility.yul\":4171:4198   */\n      tag_462\n      jump\t// in\n    tag_578:\n        /* \"#utility.yul\":4163:4169   */\n      dup2\n        /* \"#utility.yul\":4159:4199   */\n      add\n        /* \"#utility.yul\":4301:4307   */\n      dup2\n        /* \"#utility.yul\":4289:4299   */\n      dup2\n        /* \"#utility.yul\":4286:4308   */\n      lt\n        /* \"#utility.yul\":4265:4283   */\n      0xffffffffffffffff\n        /* \"#utility.yul\":4253:4263   */\n      dup3\n        /* \"#utility.yul\":4250:4284   */\n      gt\n        /* \"#utility.yul\":4247:4309   */\n      or\n        /* \"#utility.yul\":4244:4332   */\n      iszero\n      tag_579\n      jumpi\n        /* \"#utility.yul\":4312:4330   */\n      tag_580\n      tag_463\n      jump\t// in\n    tag_580:\n        /* \"#utility.yul\":4244:4332   */\n    tag_579:\n        /* \"#utility.yul\":4352:4362   */\n      dup1\n        /* \"#utility.yul\":4348:4350   */\n      0x40\n        /* \"#utility.yul\":4341:4363   */\n      mstore\n        /* \"#utility.yul\":4131:4369   */\n      pop\n        /* \"#utility.yul\":4088:4369   */\n      pop\n      pop\n      jump\t// out\n        /* \"#utility.yul\":4375:4504   */\n    tag_465:\n        /* \"#utility.yul\":4409:4415   */\n      0x00\n        /* \"#utility.yul\":4436:4456   */\n      tag_582\n      tag_444\n      jump\t// in\n    tag_582:\n        /* \"#utility.yul\":4426:4456   */\n      swap1\n      pop\n        /* \"#utility.yul\":4465:4498   */\n      tag_583\n        /* \"#utility.yul\":4493:4497   */\n      dup3\n        /* \"#utility.yul\":4485:4491   */\n      dup3\n        /* \"#utility.yul\":4465:4498   */\n      tag_464\n      jump\t// in\n    tag_583:\n        /* \"#utility.yul\":4375:4504   */\n      swap2\n      swap1\n      pop\n      jump\t// out\n        /* \"#utility.yul\":4510:4818   */\n    tag_466:\n        /* \"#utility.yul\":4572:4576   */\n      0x00\n        /* \"#utility.yul\":4662:4680   */\n      0xffffffffffffffff\n        /* \"#utility.yul\":4654:4660   */\n      dup3\n        /* \"#utility.yul\":4651:4681   */\n      gt\n        /* \"#utility.yul\":4648:4704   */\n      iszero\n      tag_585\n      jumpi\n        /* \"#utility.yul\":4684:4702   */\n      tag_586\n      tag_463\n      jump\t// in\n    tag_586:\n        /* \"#utility.yul\":4648:4704   */\n    tag_585:\n        /* \"#utility.yul\":4722:4751   */\n      tag_587\n        /* \"#utility.yul\":4744:4750   */\n      dup3\n        /* \"#utility.yul\":4722:4751   */\n      tag_462\n      jump\t// in\n    tag_587:\n        /* \"#utility.yul\":4714:4751   */\n      swap1\n      pop\n        /* \"#utility.yul\":4806:4810   */\n      0x20\n        /* \"#utility.yul\":4800:4804   */\n      dup2\n        /* \"#utility.yul\":4796:4811   */\n      add\n        /* \"#utility.yul\":4788:4811   */\n      swap1\n      pop\n        /* \"#utility.yul\":4510:4818   */\n      swap2\n      swap1\n      pop\n      jump\t// out\n        /* \"#utility.yul\":4824:4970   */\n    tag_467:\n        /* \"#utility.yul\":4921:4927   */\n      dup3\n        /* \"#utility.yul\":4916:4919   */\n      dup2\n        /* \"#utility.yul\":4911:4914   */\n      dup4\n        /* \"#utility.yul\":4898:4928   */\n      calldatacopy\n        /* \"#utility.yul\":4962:4963   */\n      0x00\n        /* \"#utility.yul\":4953:4959   */\n      dup4\n        /* \"#utility.yul\":4948:4951   */\n      dup4\n        /* \"#utility.yul\":4944:4960   */\n      add\n        /* \"#utility.yul\":4937:4964   */\n      mstore\n        /* \"#utility.yul\":4824:4970   */\n      pop\n      pop\n      pop\n      jump\t// out\n        /* \"#utility.yul\":4976:5401   */\n    tag_468:\n        /* \"#utility.yul\":5054:5059   */\n      0x00\n        /* \"#utility.yul\":5079:5145   */\n      tag_590\n        /* \"#utility.yul\":5095:5144   */\n      tag_591\n        /* \"#utility.yul\":5137:5143   */\n      dup5\n        /* \"#utility.yul\":5095:5144   */\n      tag_466\n      jump\t// in\n    tag_591:\n        /* \"#utility.yul\":5079:5145   */\n      tag_465\n      jump\t// in\n    tag_590:\n        /* \"#utility.yul\":5070:5145   */\n      swap1\n      pop\n        /* \"#utility.yul\":5168:5174   */\n      dup3\n        /* \"#utility.yul\":5161:5166   */\n      dup2\n        /* \"#utility.yul\":5154:5175   */\n      mstore\n        /* \"#utility.yul\":5206:5210   */\n      0x20\n        /* \"#utility.yul\":5199:5204   */\n      dup2\n        /* \"#utility.yul\":5195:5211   */\n      add\n        /* \"#utility.yul\":5244:5247   */\n      dup5\n        /* \"#utility.yul\":5235:5241   */\n      dup5\n        /* \"#utility.yul\":5230:5233   */\n      dup5\n        /* \"#utility.yul\":5226:5242   */\n      add\n        /* \"#utility.yul\":5223:5248   */\n      gt\n        /* \"#utility.yul\":5220:5332   */\n      iszero\n      tag_592\n      jumpi\n        /* \"#utility.yul\":5251:5330   */\n      tag_593\n      tag_461\n      jump\t// in\n    tag_593:\n        /* \"#utility.yul\":5220:5332   */\n    tag_592:\n        /* \"#utility.yul\":5341:5395   */\n      tag_594\n        /* \"#utility.yul\":5388:5394   */\n      dup5\n        /* \"#utility.yul\":5383:5386   */\n      dup3\n        /* \"#utility.yul\":5378:5381   */\n      dup6\n        /* \"#utility.yul\":5341:5395   */\n      tag_467\n      jump\t// in\n    tag_594:\n        /* \"#utility.yul\":5060:5401   */\n      pop\n        /* \"#utility.yul\":4976:5401   */\n      swap4\n      swap3\n      pop\n      pop\n      pop\n      jump\t// out\n        /* \"#utility.yul\":5421:5761   */\n    tag_469:\n        /* \"#utility.yul\":5477:5482   */\n      0x00\n        /* \"#utility.yul\":5526:5529   */\n      dup3\n        /* \"#utility.yul\":5519:5523   */\n      0x1f\n        /* \"#utility.yul\":5511:5517   */\n      dup4\n        /* \"#utility.yul\":5507:5524   */\n      add\n        /* \"#utility.yul\":5503:5530   */\n      slt\n        /* \"#utility.yul\":5493:5615   */\n      tag_596\n      jumpi\n        /* \"#utility.yul\":5534:5613   */\n      tag_597\n      tag_460\n      jump\t// in\n    tag_597:\n        /* \"#utility.yul\":5493:5615   */\n    tag_596:\n        /* \"#utility.yul\":5651:5657   */\n      dup2\n        /* \"#utility.yul\":5638:5658   */\n      calldataload\n        /* \"#utility.yul\":5676:5755   */\n      tag_598\n        /* \"#utility.yul\":5751:5754   */\n      dup5\n        /* \"#utility.yul\":5743:5749   */\n      dup3\n        /* \"#utility.yul\":5736:5740   */\n      0x20\n        /* \"#utility.yul\":5728:5734   */\n      dup7\n        /* \"#utility.yul\":5724:5741   */\n      add\n        /* \"#utility.yul\":5676:5755   */\n      tag_468\n      jump\t// in\n    tag_598:\n        /* \"#utility.yul\":5667:5755   */\n      swap2\n      pop\n        /* \"#utility.yul\":5483:5761   */\n      pop\n        /* \"#utility.yul\":5421:5761   */\n      swap3\n      swap2\n      pop\n      pop\n      jump\t// out\n        /* \"#utility.yul\":5767:6276   */\n    tag_60:\n        /* \"#utility.yul\":5836:5842   */\n      0x00\n        /* \"#utility.yul\":5885:5887   */\n      0x20\n        /* \"#utility.yul\":5873:5882   */\n      dup3\n        /* \"#utility.yul\":5864:5871   */\n      dup5\n        /* \"#utility.yul\":5860:5883   */\n      sub\n        /* \"#utility.yul\":5856:5888   */\n      slt\n        /* \"#utility.yul\":5853:5972   */\n      iszero\n      tag_600\n      jumpi\n        /* \"#utility.yul\":5891:5970   */\n      tag_601\n      tag_445\n      jump\t// in\n    tag_601:\n        /* \"#utility.yul\":5853:5972   */\n    tag_600:\n        /* \"#utility.yul\":6039:6040   */\n      0x00\n        /* \"#utility.yul\":6028:6037   */\n      dup3\n        /* \"#utility.yul\":6024:6041   */\n      add\n        /* \"#utility.yul\":6011:6042   */\n      calldataload\n        /* \"#utility.yul\":6069:6087   */\n      0xffffffffffffffff\n        /* \"#utility.yul\":6061:6067   */\n      dup2\n        /* \"#utility.yul\":6058:6088   */\n      gt\n        /* \"#utility.yul\":6055:6172   */\n      iszero\n      tag_602\n      jumpi\n        /* \"#utility.yul\":6091:6170   */\n      tag_603\n      tag_446\n      jump\t// in\n    tag_603:\n        /* \"#utility.yul\":6055:6172   */\n    tag_602:\n        /* \"#utility.yul\":6196:6259   */\n      tag_604\n        /* \"#utility.yul\":6251:6258   */\n      dup5\n        /* \"#utility.yul\":6242:6248   */\n      dup3\n        /* \"#utility.yul\":6231:6240   */\n      dup6\n        /* \"#utility.yul\":6227:6249   */\n      add\n        /* \"#utility.yul\":6196:6259   */\n      tag_469\n      jump\t// in\n    tag_604:\n        /* \"#utility.yul\":6186:6259   */\n      swap2\n      pop\n        /* \"#utility.yul\":5982:6269   */\n      pop\n        /* \"#utility.yul\":5767:6276   */\n      swap3\n      swap2\n      pop\n      pop\n      jump\t// out\n        /* \"#utility.yul\":6282:6400   */\n    tag_470:\n        /* \"#utility.yul\":6369:6393   */\n      tag_606\n        /* \"#utility.yul\":6387:6392   */\n      dup2\n        /* \"#utility.yul\":6369:6393   */\n      tag_457\n      jump\t// in\n    tag_606:\n        /* \"#utility.yul\":6364:6367   */\n      dup3\n        /* \"#utility.yul\":6357:6394   */\n      mstore\n        /* \"#utility.yul\":6282:6400   */\n      pop\n      pop\n      jump\t// out\n        /* \"#utility.yul\":6406:6505   */\n    tag_471:\n        /* \"#utility.yul\":6458:6464   */\n      0x00\n        /* \"#utility.yul\":6492:6497   */\n      dup2\n        /* \"#utility.yul\":6486:6498   */\n      mload\n        /* \"#utility.yul\":6476:6498   */\n      swap1\n      pop\n        /* \"#utility.yul\":6406:6505   */\n      swap2\n      swap1\n      pop\n      jump\t// out\n        /* \"#utility.yul\":6511:6680   */\n    tag_472:\n        /* \"#utility.yul\":6595:6606   */\n      0x00\n        /* \"#utility.yul\":6629:6635   */\n      dup3\n        /* \"#utility.yul\":6624:6627   */\n      dup3\n        /* \"#utility.yul\":6617:6636   */\n      mstore\n        /* \"#utility.yul\":6669:6673   */\n      0x20\n        /* \"#utility.yul\":6664:6667   */\n      dup3\n        /* \"#utility.yul\":6660:6674   */\n      add\n        /* \"#utility.yul\":6645:6674   */\n      swap1\n      pop\n        /* \"#utility.yul\":6511:6680   */\n      swap3\n      swap2\n      pop\n      pop\n      jump\t// out\n        /* \"#utility.yul\":6686:6932   */\n    tag_473:\n        /* \"#utility.yul\":6767:6768   */\n      0x00\n        /* \"#utility.yul\":6777:6890   */\n    tag_610:\n        /* \"#utility.yul\":6791:6797   */\n      dup4\n        /* \"#utility.yul\":6788:6789   */\n      dup2\n        /* \"#utility.yul\":6785:6798   */\n      lt\n        /* \"#utility.yul\":6777:6890   */\n      iszero\n      tag_612\n      jumpi\n        /* \"#utility.yul\":6876:6877   */\n      dup1\n        /* \"#utility.yul\":6871:6874   */\n      dup3\n        /* \"#utility.yul\":6867:6878   */\n      add\n        /* \"#utility.yul\":6861:6879   */\n      mload\n        /* \"#utility.yul\":6857:6858   */\n      dup2\n        /* \"#utility.yul\":6852:6855   */\n      dup5\n        /* \"#utility.yul\":6848:6859   */\n      add\n        /* \"#utility.yul\":6841:6880   */\n      mstore\n        /* \"#utility.yul\":6813:6815   */\n      0x20\n        /* \"#utility.yul\":6810:6811   */\n      dup2\n        /* \"#utility.yul\":6806:6816   */\n      add\n        /* \"#utility.yul\":6801:6816   */\n      swap1\n      pop\n        /* \"#utility.yul\":6777:6890   */\n      jump(tag_610)\n    tag_612:\n        /* \"#utility.yul\":6924:6925   */\n      0x00\n        /* \"#utility.yul\":6915:6921   */\n      dup5\n        /* \"#utility.yul\":6910:6913   */\n      dup5\n        /* \"#utility.yul\":6906:6922   */\n      add\n        /* \"#utility.yul\":6899:6926   */\n      mstore\n        /* \"#utility.yul\":6748:6932   */\n      pop\n        /* \"#utility.yul\":6686:6932   */\n      pop\n      pop\n      pop\n      jump\t// out\n        /* \"#utility.yul\":6938:7315   */\n    tag_474:\n        /* \"#utility.yul\":7026:7029   */\n      0x00\n        /* \"#utility.yul\":7054:7093   */\n      tag_614\n        /* \"#utility.yul\":7087:7092   */\n      dup3\n        /* \"#utility.yul\":7054:7093   */\n      tag_471\n      jump\t// in\n    tag_614:\n        /* \"#utility.yul\":7109:7180   */\n      tag_615\n        /* \"#utility.yul\":7173:7179   */\n      dup2\n        /* \"#utility.yul\":7168:7171   */\n      dup6\n        /* \"#utility.yul\":7109:7180   */\n      tag_472\n      jump\t// in\n    tag_615:\n        /* \"#utility.yul\":7102:7180   */\n      swap4\n      pop\n        /* \"#utility.yul\":7189:7254   */\n      tag_616\n        /* \"#utility.yul\":7247:7253   */\n      dup2\n        /* \"#utility.yul\":7242:7245   */\n      dup6\n        /* \"#utility.yul\":7235:7239   */\n      0x20\n        /* \"#utility.yul\":7228:7233   */\n      dup7\n        /* \"#utility.yul\":7224:7240   */\n      add\n        /* \"#utility.yul\":7189:7254   */\n      tag_473\n      jump\t// in\n    tag_616:\n        /* \"#utility.yul\":7279:7308   */\n      tag_617\n        /* \"#utility.yul\":7301:7307   */\n      dup2\n        /* \"#utility.yul\":7279:7308   */\n      tag_462\n      jump\t// in\n    tag_617:\n        /* \"#utility.yul\":7274:7277   */\n      dup5\n        /* \"#utility.yul\":7270:7309   */\n      add\n        /* \"#utility.yul\":7263:7309   */\n      swap2\n      pop\n        /* \"#utility.yul\":7030:7315   */\n      pop\n        /* \"#utility.yul\":6938:7315   */\n      swap3\n      swap2\n      pop\n      pop\n      jump\t// out\n        /* \"#utility.yul\":7321:7397   */\n    tag_475:\n        /* \"#utility.yul\":7357:7364   */\n      0x00\n        /* \"#utility.yul\":7386:7391   */\n      dup2\n        /* \"#utility.yul\":7375:7391   */\n      swap1\n      pop\n        /* \"#utility.yul\":7321:7397   */\n      swap2\n      swap1\n      pop\n      jump\t// out\n        /* \"#utility.yul\":7403:7518   */\n    tag_476:\n        /* \"#utility.yul\":7488:7511   */\n      tag_620\n        /* \"#utility.yul\":7505:7510   */\n      dup2\n        /* \"#utility.yul\":7488:7511   */\n      tag_475\n      jump\t// in\n    tag_620:\n        /* \"#utility.yul\":7483:7486   */\n      dup3\n        /* \"#utility.yul\":7476:7512   */\n      mstore\n        /* \"#utility.yul\":7403:7518   */\n      pop\n      pop\n      jump\t// out\n        /* \"#utility.yul\":7524:8671   */\n    tag_63:\n        /* \"#utility.yul\":7837:7841   */\n      0x00\n        /* \"#utility.yul\":7875:7878   */\n      0x0100\n        /* \"#utility.yul\":7864:7873   */\n      dup3\n        /* \"#utility.yul\":7860:7879   */\n      add\n        /* \"#utility.yul\":7852:7879   */\n      swap1\n      pop\n        /* \"#utility.yul\":7889:7960   */\n      tag_622\n        /* \"#utility.yul\":7957:7958   */\n      0x00\n        /* \"#utility.yul\":7946:7955   */\n      dup4\n        /* \"#utility.yul\":7942:7959   */\n      add\n        /* \"#utility.yul\":7933:7939   */\n      dup12\n        /* \"#utility.yul\":7889:7960   */\n      tag_470\n      jump\t// in\n    tag_622:\n        /* \"#utility.yul\":7970:8042   */\n      tag_623\n        /* \"#utility.yul\":8038:8040   */\n      0x20\n        /* \"#utility.yul\":8027:8036   */\n      dup4\n        /* \"#utility.yul\":8023:8041   */\n      add\n        /* \"#utility.yul\":8014:8020   */\n      dup11\n        /* \"#utility.yul\":7970:8042   */\n      tag_470\n      jump\t// in\n    tag_623:\n        /* \"#utility.yul\":8089:8098   */\n      dup2\n        /* \"#utility.yul\":8083:8087   */\n      dup2\n        /* \"#utility.yul\":8079:8099   */\n      sub\n        /* \"#utility.yul\":8074:8076   */\n      0x40\n        /* \"#utility.yul\":8063:8072   */\n      dup4\n        /* \"#utility.yul\":8059:8077   */\n      add\n        /* \"#utility.yul\":8052:8100   */\n      mstore\n        /* \"#utility.yul\":8117:8195   */\n      tag_624\n        /* \"#utility.yul\":8190:8194   */\n      dup2\n        /* \"#utility.yul\":8181:8187   */\n      dup10\n        /* \"#utility.yul\":8117:8195   */\n      tag_474\n      jump\t// in\n    tag_624:\n        /* \"#utility.yul\":8109:8195   */\n      swap1\n      pop\n        /* \"#utility.yul\":8205:8275   */\n      tag_625\n        /* \"#utility.yul\":8271:8273   */\n      0x60\n        /* \"#utility.yul\":8260:8269   */\n      dup4\n        /* \"#utility.yul\":8256:8274   */\n      add\n        /* \"#utility.yul\":8247:8253   */\n      dup9\n        /* \"#utility.yul\":8205:8275   */\n      tag_476\n      jump\t// in\n    tag_625:\n        /* \"#utility.yul\":8285:8356   */\n      tag_626\n        /* \"#utility.yul\":8351:8354   */\n      0x80\n        /* \"#utility.yul\":8340:8349   */\n      dup4\n        /* \"#utility.yul\":8336:8355   */\n      add\n        /* \"#utility.yul\":8327:8333   */\n      dup8\n        /* \"#utility.yul\":8285:8356   */\n      tag_476\n      jump\t// in\n    tag_626:\n        /* \"#utility.yul\":8404:8413   */\n      dup2\n        /* \"#utility.yul\":8398:8402   */\n      dup2\n        /* \"#utility.yul\":8394:8414   */\n      sub\n        /* \"#utility.yul\":8388:8391   */\n      0xa0\n        /* \"#utility.yul\":8377:8386   */\n      dup4\n        /* \"#utility.yul\":8373:8392   */\n      add\n        /* \"#utility.yul\":8366:8415   */\n      mstore\n        /* \"#utility.yul\":8432:8510   */\n      tag_627\n        /* \"#utility.yul\":8505:8509   */\n      dup2\n        /* \"#utility.yul\":8496:8502   */\n      dup7\n        /* \"#utility.yul\":8432:8510   */\n      tag_474\n      jump\t// in\n    tag_627:\n        /* \"#utility.yul\":8424:8510   */\n      swap1\n      pop\n        /* \"#utility.yul\":8520:8587   */\n      tag_628\n        /* \"#utility.yul\":8582:8585   */\n      0xc0\n        /* \"#utility.yul\":8571:8580   */\n      dup4\n        /* \"#utility.yul\":8567:8586   */\n      add\n        /* \"#utility.yul\":8558:8564   */\n      dup6\n        /* \"#utility.yul\":8520:8587   */\n      tag_451\n      jump\t// in\n    tag_628:\n        /* \"#utility.yul\":8597:8664   */\n      tag_629\n        /* \"#utility.yul\":8659:8662   */\n      0xe0\n        /* \"#utility.yul\":8648:8657   */\n      dup4\n        /* \"#utility.yul\":8644:8663   */\n      add\n        /* \"#utility.yul\":8635:8641   */\n      dup5\n        /* \"#utility.yul\":8597:8664   */\n      tag_451\n      jump\t// in\n    tag_629:\n        /* \"#utility.yul\":7524:8671   */\n      swap10\n      swap9\n      pop\n      pop\n      pop\n      pop\n      pop\n      pop\n      pop\n      pop\n      pop\n      jump\t// out\n        /* \"#utility.yul\":8677:8984   */\n    tag_477:\n        /* \"#utility.yul\":8738:8742   */\n      0x00\n        /* \"#utility.yul\":8828:8846   */\n      0xffffffffffffffff\n        /* \"#utility.yul\":8820:8826   */\n      dup3\n        /* \"#utility.yul\":8817:8847   */\n      gt\n        /* \"#utility.yul\":8814:8870   */\n      iszero\n      tag_631\n      jumpi\n        /* \"#utility.yul\":8850:8868   */\n      tag_632\n      tag_463\n      jump\t// in\n    tag_632:\n        /* \"#utility.yul\":8814:8870   */\n    tag_631:\n        /* \"#utility.yul\":8888:8917   */\n      tag_633\n        /* \"#utility.yul\":8910:8916   */\n      dup3\n        /* \"#utility.yul\":8888:8917   */\n      tag_462\n      jump\t// in\n    tag_633:\n        /* \"#utility.yul\":8880:8917   */\n      swap1\n      pop\n        /* \"#utility.yul\":8972:8976   */\n      0x20\n        /* \"#utility.yul\":8966:8970   */\n      dup2\n        /* \"#utility.yul\":8962:8977   */\n      add\n        /* \"#utility.yul\":8954:8977   */\n      swap1\n      pop\n        /* \"#utility.yul\":8677:8984   */\n      swap2\n      swap1\n      pop\n      jump\t// out\n        /* \"#utility.yul\":8990:9413   */\n    tag_478:\n        /* \"#utility.yul\":9067:9072   */\n      0x00\n        /* \"#utility.yul\":9092:9157   */\n      tag_635\n        /* \"#utility.yul\":9108:9156   */\n      tag_636\n        /* \"#utility.yul\":9149:9155   */\n      dup5\n        /* \"#utility.yul\":9108:9156   */\n      tag_477\n      jump\t// in\n    tag_636:\n        /* \"#utility.yul\":9092:9157   */\n      tag_465\n      jump\t// in\n    tag_635:\n        /* \"#utility.yul\":9083:9157   */\n      swap1\n      pop\n        /* \"#utility.yul\":9180:9186   */\n      dup3\n        /* \"#utility.yul\":9173:9178   */\n      dup2\n        /* \"#utility.yul\":9166:9187   */\n      mstore\n        /* \"#utility.yul\":9218:9222   */\n      0x20\n        /* \"#utility.yul\":9211:9216   */\n      dup2\n        /* \"#utility.yul\":9207:9223   */\n      add\n        /* \"#utility.yul\":9256:9259   */\n      dup5\n        /* \"#utility.yul\":9247:9253   */\n      dup5\n        /* \"#utility.yul\":9242:9245   */\n      dup5\n        /* \"#utility.yul\":9238:9254   */\n      add\n        /* \"#utility.yul\":9235:9260   */\n      gt\n        /* \"#utility.yul\":9232:9344   */\n      iszero\n      tag_637\n      jumpi\n        /* \"#utility.yul\":9263:9342   */\n      tag_638\n      tag_461\n      jump\t// in\n    tag_638:\n        /* \"#utility.yul\":9232:9344   */\n    tag_637:\n        /* \"#utility.yul\":9353:9407   */\n      tag_639\n        /* \"#utility.yul\":9400:9406   */\n      dup5\n        /* \"#utility.yul\":9395:9398   */\n      dup3\n        /* \"#utility.yul\":9390:9393   */\n      dup6\n        /* \"#utility.yul\":9353:9407   */\n      tag_467\n      jump\t// in\n    tag_639:\n        /* \"#utility.yul\":9073:9413   */\n      pop\n        /* \"#utility.yul\":8990:9413   */\n      swap4\n      swap3\n      pop\n      pop\n      pop\n      jump\t// out\n        /* \"#utility.yul\":9432:9770   */\n    tag_479:\n        /* \"#utility.yul\":9487:9492   */\n      0x00\n        /* \"#utility.yul\":9536:9539   */\n      dup3\n        /* \"#utility.yul\":9529:9533   */\n      0x1f\n        /* \"#utility.yul\":9521:9527   */\n      dup4\n        /* \"#utility.yul\":9517:9534   */\n      add\n        /* \"#utility.yul\":9513:9540   */\n      slt\n        /* \"#utility.yul\":9503:9625   */\n      tag_641\n      jumpi\n        /* \"#utility.yul\":9544:9623   */\n      tag_642\n      tag_460\n      jump\t// in\n    tag_642:\n        /* \"#utility.yul\":9503:9625   */\n    tag_641:\n        /* \"#utility.yul\":9661:9667   */\n      dup2\n        /* \"#utility.yul\":9648:9668   */\n      calldataload\n        /* \"#utility.yul\":9686:9764   */\n      tag_643\n        /* \"#utility.yul\":9760:9763   */\n      dup5\n        /* \"#utility.yul\":9752:9758   */\n      dup3\n        /* \"#utility.yul\":9745:9749   */\n      0x20\n        /* \"#utility.yul\":9737:9743   */\n      dup7\n        /* \"#utility.yul\":9733:9750   */\n      add\n        /* \"#utility.yul\":9686:9764   */\n      tag_478\n      jump\t// in\n    tag_643:\n        /* \"#utility.yul\":9677:9764   */\n      swap2\n      pop\n        /* \"#utility.yul\":9493:9770   */\n      pop\n        /* \"#utility.yul\":9432:9770   */\n      swap3\n      swap2\n      pop\n      pop\n      jump\t// out\n        /* \"#utility.yul\":9776:10428   */\n    tag_66:\n        /* \"#utility.yul\":9853:9859   */\n      0x00\n        /* \"#utility.yul\":9861:9867   */\n      dup1\n        /* \"#utility.yul\":9910:9912   */\n      0x40\n        /* \"#utility.yul\":9898:9907   */\n      dup4\n        /* \"#utility.yul\":9889:9896   */\n      dup6\n        /* \"#utility.yul\":9885:9908   */\n      sub\n        /* \"#utility.yul\":9881:9913   */\n      slt\n        /* \"#utility.yul\":9878:9997   */\n      iszero\n      tag_645\n      jumpi\n        /* \"#utility.yul\":9916:9995   */\n      tag_646\n      tag_445\n      jump\t// in\n    tag_646:\n        /* \"#utility.yul\":9878:9997   */\n    tag_645:\n        /* \"#utility.yul\":10036:10037   */\n      0x00\n        /* \"#utility.yul\":10061:10114   */\n      tag_647\n        /* \"#utility.yul\":10106:10113   */\n      dup6\n        /* \"#utility.yul\":10097:10103   */\n      dup3\n        /* \"#utility.yul\":10086:10095   */\n      dup7\n        /* \"#utility.yul\":10082:10104   */\n      add\n        /* \"#utility.yul\":10061:10114   */\n      tag_459\n      jump\t// in\n    tag_647:\n        /* \"#utility.yul\":10051:10114   */\n      swap3\n      pop\n        /* \"#utility.yul\":10007:10124   */\n      pop\n        /* \"#utility.yul\":10191:10193   */\n      0x20\n        /* \"#utility.yul\":10180:10189   */\n      dup4\n        /* \"#utility.yul\":10176:10194   */\n      add\n        /* \"#utility.yul\":10163:10195   */\n      calldataload\n        /* \"#utility.yul\":10222:10240   */\n      0xffffffffffffffff\n        /* \"#utility.yul\":10214:10220   */\n      dup2\n        /* \"#utility.yul\":10211:10241   */\n      gt\n        /* \"#utility.yul\":10208:10325   */\n      iszero\n      tag_648\n      jumpi\n        /* \"#utility.yul\":10244:10323   */\n      tag_649\n      tag_446\n      jump\t// in\n    tag_649:\n        /* \"#utility.yul\":10208:10325   */\n    tag_648:\n        /* \"#utility.yul\":10349:10411   */\n      tag_650\n        /* \"#utility.yul\":10403:10410   */\n      dup6\n        /* \"#utility.yul\":10394:10400   */\n      dup3\n        /* \"#utility.yul\":10383:10392   */\n      dup7\n        /* \"#utility.yul\":10379:10401   */\n      add\n        /* \"#utility.yul\":10349:10411   */\n      tag_479\n      jump\t// in\n    tag_650:\n        /* \"#utility.yul\":10339:10411   */\n      swap2\n      pop\n        /* \"#utility.yul\":10134:10421   */\n      pop\n        /* \"#utility.yul\":9776:10428   */\n      swap3\n      pop\n      swap3\n      swap1\n      pop\n      jump\t// out\n        /* \"#utility.yul\":10434:10554   */\n    tag_480:\n        /* \"#utility.yul\":10506:10529   */\n      tag_652\n        /* \"#utility.yul\":10523:10528   */\n      dup2\n        /* \"#utility.yul\":10506:10529   */\n      tag_475\n      jump\t// in\n    tag_652:\n        /* \"#utility.yul\":10499:10504   */\n      dup2\n        /* \"#utility.yul\":10496:10530   */\n      eq\n        /* \"#utility.yul\":10486:10548   */\n      tag_653\n      jumpi\n        /* \"#utility.yul\":10544:10545   */\n      0x00\n        /* \"#utility.yul\":10541:10542   */\n      dup1\n        /* \"#utility.yul\":10534:10546   */\n      revert\n        /* \"#utility.yul\":10486:10548   */\n    tag_653:\n        /* \"#utility.yul\":10434:10554   */\n      pop\n      jump\t// out\n        /* \"#utility.yul\":10560:10697   */\n    tag_481:\n        /* \"#utility.yul\":10605:10610   */\n      0x00\n        /* \"#utility.yul\":10643:10649   */\n      dup2\n        /* \"#utility.yul\":10630:10650   */\n      calldataload\n        /* \"#utility.yul\":10621:10650   */\n      swap1\n      pop\n        /* \"#utility.yul\":10659:10691   */\n      tag_655\n        /* \"#utility.yul\":10685:10690   */\n      dup2\n        /* \"#utility.yul\":10659:10691   */\n      tag_480\n      jump\t// in\n    tag_655:\n        /* \"#utility.yul\":10560:10697   */\n      swap3\n      swap2\n      pop\n      pop\n      jump\t// out\n        /* \"#utility.yul\":10703:11355   */\n    tag_79:\n        /* \"#utility.yul\":10780:10786   */\n      0x00\n        /* \"#utility.yul\":10788:10794   */\n      dup1\n        /* \"#utility.yul\":10837:10839   */\n      0x40\n        /* \"#utility.yul\":10825:10834   */\n      dup4\n        /* \"#utility.yul\":10816:10823   */\n      dup6\n        /* \"#utility.yul\":10812:10835   */\n      sub\n        /* \"#utility.yul\":10808:10840   */\n      slt\n        /* \"#utility.yul\":10805:10924   */\n      iszero\n      tag_657\n      jumpi\n        /* \"#utility.yul\":10843:10922   */\n      tag_658\n      tag_445\n      jump\t// in\n    tag_658:\n        /* \"#utility.yul\":10805:10924   */\n    tag_657:\n        /* \"#utility.yul\":10963:10964   */\n      0x00\n        /* \"#utility.yul\":10988:11040   */\n      tag_659\n        /* \"#utility.yul\":11032:11039   */\n      dup6\n        /* \"#utility.yul\":11023:11029   */\n      dup3\n        /* \"#utility.yul\":11012:11021   */\n      dup7\n        /* \"#utility.yul\":11008:11030   */\n      add\n        /* \"#utility.yul\":10988:11040   */\n      tag_481\n      jump\t// in\n    tag_659:\n        /* \"#utility.yul\":10978:11040   */\n      swap3\n      pop\n        /* \"#utility.yul\":10934:11050   */\n      pop\n        /* \"#utility.yul\":11117:11119   */\n      0x20\n        /* \"#utility.yul\":11106:11115   */\n      dup4\n        /* \"#utility.yul\":11102:11120   */\n      add\n        /* \"#utility.yul\":11089:11121   */\n      calldataload\n        /* \"#utility.yul\":11148:11166   */\n      0xffffffffffffffff\n        /* \"#utility.yul\":11140:11146   */\n      dup2\n        /* \"#utility.yul\":11137:11167   */\n      gt\n        /* \"#utility.yul\":11134:11251   */\n      iszero\n      tag_660\n      jumpi\n        /* \"#utility.yul\":11170:11249   */\n      tag_661\n      tag_446\n      jump\t// in\n    tag_661:\n        /* \"#utility.yul\":11134:11251   */\n    tag_660:\n        /* \"#utility.yul\":11275:11338   */\n      tag_662\n        /* \"#utility.yul\":11330:11337   */\n      dup6\n        /* \"#utility.yul\":11321:11327   */\n      dup3\n        /* \"#utility.yul\":11310:11319   */\n      dup7\n        /* \"#utility.yul\":11306:11328   */\n      add\n        /* \"#utility.yul\":11275:11338   */\n      tag_469\n      jump\t// in\n    tag_662:\n        /* \"#utility.yul\":11265:11338   */\n      swap2\n      pop\n        /* \"#utility.yul\":11060:11348   */\n      pop\n        /* \"#utility.yul\":10703:11355   */\n      swap3\n      pop\n      swap3\n      swap1\n      pop\n      jump\t// out\n        /* \"#utility.yul\":11361:12013   */\n    tag_84:\n        /* \"#utility.yul\":11438:11444   */\n      0x00\n        /* \"#utility.yul\":11446:11452   */\n      dup1\n        /* \"#utility.yul\":11495:11497   */\n      0x40\n        /* \"#utility.yul\":11483:11492   */\n      dup4\n        /* \"#utility.yul\":11474:11481   */\n      dup6\n        /* \"#utility.yul\":11470:11493   */\n      sub\n        /* \"#utility.yul\":11466:11498   */\n      slt\n        /* \"#utility.yul\":11463:11582   */\n      iszero\n      tag_664\n      jumpi\n        /* \"#utility.yul\":11501:11580   */\n      tag_665\n      tag_445\n      jump\t// in\n    tag_665:\n        /* \"#utility.yul\":11463:11582   */\n    tag_664:\n        /* \"#utility.yul\":11649:11650   */\n      0x00\n        /* \"#utility.yul\":11638:11647   */\n      dup4\n        /* \"#utility.yul\":11634:11651   */\n      add\n        /* \"#utility.yul\":11621:11652   */\n      calldataload\n        /* \"#utility.yul\":11679:11697   */\n      0xffffffffffffffff\n        /* \"#utility.yul\":11671:11677   */\n      dup2\n        /* \"#utility.yul\":11668:11698   */\n      gt\n        /* \"#utility.yul\":11665:11782   */\n      iszero\n      tag_666\n      jumpi\n        /* \"#utility.yul\":11701:11780   */\n      tag_667\n      tag_446\n      jump\t// in\n    tag_667:\n        /* \"#utility.yul\":11665:11782   */\n    tag_666:\n        /* \"#utility.yul\":11806:11869   */\n      tag_668\n        /* \"#utility.yul\":11861:11868   */\n      dup6\n        /* \"#utility.yul\":11852:11858   */\n      dup3\n        /* \"#utility.yul\":11841:11850   */\n      dup7\n        /* \"#utility.yul\":11837:11859   */\n      add\n        /* \"#utility.yul\":11806:11869   */\n      tag_469\n      jump\t// in\n    tag_668:\n        /* \"#utility.yul\":11796:11869   */\n      swap3\n      pop\n        /* \"#utility.yul\":11592:11879   */\n      pop\n        /* \"#utility.yul\":11918:11920   */\n      0x20\n        /* \"#utility.yul\":11944:11996   */\n      tag_669\n        /* \"#utility.yul\":11988:11995   */\n      dup6\n        /* \"#utility.yul\":11979:11985   */\n      dup3\n        /* \"#utility.yul\":11968:11977   */\n      dup7\n        /* \"#utility.yul\":11964:11986   */\n      add\n        /* \"#utility.yul\":11944:11996   */\n      tag_481\n      jump\t// in\n    tag_669:\n        /* \"#utility.yul\":11934:11996   */\n      swap2\n      pop\n        /* \"#utility.yul\":11889:12006   */\n      pop\n        /* \"#utility.yul\":11361:12013   */\n      swap3\n      pop\n      swap3\n      swap1\n      pop\n      jump\t// out\n        /* \"#utility.yul\":12019:13286   */\n    tag_96:\n        /* \"#utility.yul\":12132:12138   */\n      0x00\n        /* \"#utility.yul\":12140:12146   */\n      dup1\n        /* \"#utility.yul\":12148:12154   */\n      0x00\n        /* \"#utility.yul\":12156:12162   */\n      dup1\n        /* \"#utility.yul\":12164:12170   */\n      0x00\n        /* \"#utility.yul\":12213:12216   */\n      0xa0\n        /* \"#utility.yul\":12201:12210   */\n      dup7\n        /* \"#utility.yul\":12192:12199   */\n      dup9\n        /* \"#utility.yul\":12188:12211   */\n      sub\n        /* \"#utility.yul\":12184:12217   */\n      slt\n        /* \"#utility.yul\":12181:12301   */\n      iszero\n      tag_671\n      jumpi\n        /* \"#utility.yul\":12220:12299   */\n      tag_672\n      tag_445\n      jump\t// in\n    tag_672:\n        /* \"#utility.yul\":12181:12301   */\n    tag_671:\n        /* \"#utility.yul\":12340:12341   */\n      0x00\n        /* \"#utility.yul\":12365:12418   */\n      tag_673\n        /* \"#utility.yul\":12410:12417   */\n      dup9\n        /* \"#utility.yul\":12401:12407   */\n      dup3\n        /* \"#utility.yul\":12390:12399   */\n      dup10\n        /* \"#utility.yul\":12386:12408   */\n      add\n        /* \"#utility.yul\":12365:12418   */\n      tag_459\n      jump\t// in\n    tag_673:\n        /* \"#utility.yul\":12355:12418   */\n      swap6\n      pop\n        /* \"#utility.yul\":12311:12428   */\n      pop\n        /* \"#utility.yul\":12495:12497   */\n      0x20\n        /* \"#utility.yul\":12484:12493   */\n      dup7\n        /* \"#utility.yul\":12480:12498   */\n      add\n        /* \"#utility.yul\":12467:12499   */\n      calldataload\n        /* \"#utility.yul\":12526:12544   */\n      0xffffffffffffffff\n        /* \"#utility.yul\":12518:12524   */\n      dup2\n        /* \"#utility.yul\":12515:12545   */\n      gt\n        /* \"#utility.yul\":12512:12629   */\n      iszero\n      tag_674\n      jumpi\n        /* \"#utility.yul\":12548:12627   */\n      tag_675\n      tag_446\n      jump\t// in\n    tag_675:\n        /* \"#utility.yul\":12512:12629   */\n    tag_674:\n        /* \"#utility.yul\":12653:12716   */\n      tag_676\n        /* \"#utility.yul\":12708:12715   */\n      dup9\n        /* \"#utility.yul\":12699:12705   */\n      dup3\n        /* \"#utility.yul\":12688:12697   */\n      dup10\n        /* \"#utility.yul\":12684:12706   */\n      add\n        /* \"#utility.yul\":12653:12716   */\n      tag_469\n      jump\t// in\n    tag_676:\n        /* \"#utility.yul\":12643:12716   */\n      swap5\n      pop\n        /* \"#utility.yul\":12438:12726   */\n      pop\n        /* \"#utility.yul\":12765:12767   */\n      0x40\n        /* \"#utility.yul\":12791:12843   */\n      tag_677\n        /* \"#utility.yul\":12835:12842   */\n      dup9\n        /* \"#utility.yul\":12826:12832   */\n      dup3\n        /* \"#utility.yul\":12815:12824   */\n      dup10\n        /* \"#utility.yul\":12811:12833   */\n      add\n        /* \"#utility.yul\":12791:12843   */\n      tag_481\n      jump\t// in\n    tag_677:\n        /* \"#utility.yul\":12781:12843   */\n      swap4\n      pop\n        /* \"#utility.yul\":12736:12853   */\n      pop\n        /* \"#utility.yul\":12892:12894   */\n      0x60\n        /* \"#utility.yul\":12918:12970   */\n      tag_678\n        /* \"#utility.yul\":12962:12969   */\n      dup9\n        /* \"#utility.yul\":12953:12959   */\n      dup3\n        /* \"#utility.yul\":12942:12951   */\n      dup10\n        /* \"#utility.yul\":12938:12960   */\n      add\n        /* \"#utility.yul\":12918:12970   */\n      tag_481\n      jump\t// in\n    tag_678:\n        /* \"#utility.yul\":12908:12970   */\n      swap3\n      pop\n        /* \"#utility.yul\":12863:12980   */\n      pop\n        /* \"#utility.yul\":13047:13050   */\n      0x80\n        /* \"#utility.yul\":13036:13045   */\n      dup7\n        /* \"#utility.yul\":13032:13051   */\n      add\n        /* \"#utility.yul\":13019:13052   */\n      calldataload\n        /* \"#utility.yul\":13079:13097   */\n      0xffffffffffffffff\n        /* \"#utility.yul\":13071:13077   */\n      dup2\n        /* \"#utility.yul\":13068:13098   */\n      gt\n        /* \"#utility.yul\":13065:13182   */\n      iszero\n      tag_679\n      jumpi\n        /* \"#utility.yul\":13101:13180   */\n      tag_680\n      tag_446\n      jump\t// in\n    tag_680:\n        /* \"#utility.yul\":13065:13182   */\n    tag_679:\n        /* \"#utility.yul\":13206:13269   */\n      tag_681\n        /* \"#utility.yul\":13261:13268   */\n      dup9\n        /* \"#utility.yul\":13252:13258   */\n      dup3\n        /* \"#utility.yul\":13241:13250   */\n      dup10\n        /* \"#utility.yul\":13237:13259   */\n      add\n        /* \"#utility.yul\":13206:13269   */\n      tag_469\n      jump\t// in\n    tag_681:\n        /* \"#utility.yul\":13196:13269   */\n      swap2\n      pop\n        /* \"#utility.yul\":12990:13279   */\n      pop\n        /* \"#utility.yul\":12019:13286   */\n      swap3\n      swap6\n      pop\n      swap3\n      swap6\n      swap1\n      swap4\n      pop\n      jump\t// out\n        /* \"#utility.yul\":13292:13605   */\n    tag_111:\n        /* \"#utility.yul\":13405:13409   */\n      0x00\n        /* \"#utility.yul\":13443:13445   */\n      0x20\n        /* \"#utility.yul\":13432:13441   */\n      dup3\n        /* \"#utility.yul\":13428:13446   */\n      add\n        /* \"#utility.yul\":13420:13446   */\n      swap1\n      pop\n        /* \"#utility.yul\":13492:13501   */\n      dup2\n        /* \"#utility.yul\":13486:13490   */\n      dup2\n        /* \"#utility.yul\":13482:13502   */\n      sub\n        /* \"#utility.yul\":13478:13479   */\n      0x00\n        /* \"#utility.yul\":13467:13476   */\n      dup4\n        /* \"#utility.yul\":13463:13480   */\n      add\n        /* \"#utility.yul\":13456:13503   */\n      mstore\n        /* \"#utility.yul\":13520:13598   */\n      tag_683\n        /* \"#utility.yul\":13593:13597   */\n      dup2\n        /* \"#utility.yul\":13584:13590   */\n      dup5\n        /* \"#utility.yul\":13520:13598   */\n      tag_474\n      jump\t// in\n    tag_683:\n        /* \"#utility.yul\":13512:13598   */\n      swap1\n      pop\n        /* \"#utility.yul\":13292:13605   */\n      swap3\n      swap2\n      pop\n      pop\n      jump\t// out\n        /* \"#utility.yul\":13611:14230   */\n    tag_115:\n        /* \"#utility.yul\":13688:13694   */\n      0x00\n        /* \"#utility.yul\":13696:13702   */\n      dup1\n        /* \"#utility.yul\":13704:13710   */\n      0x00\n        /* \"#utility.yul\":13753:13755   */\n      0x60\n        /* \"#utility.yul\":13741:13750   */\n      dup5\n        /* \"#utility.yul\":13732:13739   */\n      dup7\n        /* \"#utility.yul\":13728:13751   */\n      sub\n        /* \"#utility.yul\":13724:13756   */\n      slt\n        /* \"#utility.yul\":13721:13840   */\n      iszero\n      tag_685\n      jumpi\n        /* \"#utility.yul\":13759:13838   */\n      tag_686\n      tag_445\n      jump\t// in\n    tag_686:\n        /* \"#utility.yul\":13721:13840   */\n    tag_685:\n        /* \"#utility.yul\":13879:13880   */\n      0x00\n        /* \"#utility.yul\":13904:13957   */\n      tag_687\n        /* \"#utility.yul\":13949:13956   */\n      dup7\n        /* \"#utility.yul\":13940:13946   */\n      dup3\n        /* \"#utility.yul\":13929:13938   */\n      dup8\n        /* \"#utility.yul\":13925:13947   */\n      add\n        /* \"#utility.yul\":13904:13957   */\n      tag_459\n      jump\t// in\n    tag_687:\n        /* \"#utility.yul\":13894:13957   */\n      swap4\n      pop\n        /* \"#utility.yul\":13850:13967   */\n      pop\n        /* \"#utility.yul\":14006:14008   */\n      0x20\n        /* \"#utility.yul\":14032:14085   */\n      tag_688\n        /* \"#utility.yul\":14077:14084   */\n      dup7\n        /* \"#utility.yul\":14068:14074   */\n      dup3\n        /* \"#utility.yul\":14057:14066   */\n      dup8\n        /* \"#utility.yul\":14053:14075   */\n      add\n        /* \"#utility.yul\":14032:14085   */\n      tag_459\n      jump\t// in\n    tag_688:\n        /* \"#utility.yul\":14022:14085   */\n      swap3\n      pop\n        /* \"#utility.yul\":13977:14095   */\n      pop\n        /* \"#utility.yul\":14134:14136   */\n      0x40\n        /* \"#utility.yul\":14160:14213   */\n      tag_689\n        /* \"#utility.yul\":14205:14212   */\n      dup7\n        /* \"#utility.yul\":14196:14202   */\n      dup3\n        /* \"#utility.yul\":14185:14194   */\n      dup8\n        /* \"#utility.yul\":14181:14203   */\n      add\n        /* \"#utility.yul\":14160:14213   */\n      tag_459\n      jump\t// in\n    tag_689:\n        /* \"#utility.yul\":14150:14213   */\n      swap2\n      pop\n        /* \"#utility.yul\":14105:14223   */\n      pop\n        /* \"#utility.yul\":13611:14230   */\n      swap3\n      pop\n      swap3\n      pop\n      swap3\n      jump\t// out\n        /* \"#utility.yul\":14236:14313   */\n    tag_482:\n        /* \"#utility.yul\":14273:14280   */\n      0x00\n        /* \"#utility.yul\":14302:14307   */\n      dup2\n        /* \"#utility.yul\":14291:14307   */\n      swap1\n      pop\n        /* \"#utility.yul\":14236:14313   */\n      swap2\n      swap1\n      pop\n      jump\t// out\n        /* \"#utility.yul\":14319:14441   */\n    tag_483:\n        /* \"#utility.yul\":14392:14416   */\n      tag_692\n        /* \"#utility.yul\":14410:14415   */\n      dup2\n        /* \"#utility.yul\":14392:14416   */\n      tag_482\n      jump\t// in\n    tag_692:\n        /* \"#utility.yul\":14385:14390   */\n      dup2\n        /* \"#utility.yul\":14382:14417   */\n      eq\n        /* \"#utility.yul\":14372:14435   */\n      tag_693\n      jumpi\n        /* \"#utility.yul\":14431:14432   */\n      0x00\n        /* \"#utility.yul\":14428:14429   */\n      dup1\n        /* \"#utility.yul\":14421:14433   */\n      revert\n        /* \"#utility.yul\":14372:14435   */\n    tag_693:\n        /* \"#utility.yul\":14319:14441   */\n      pop\n      jump\t// out\n        /* \"#utility.yul\":14447:14586   */\n    tag_484:\n        /* \"#utility.yul\":14493:14498   */\n      0x00\n        /* \"#utility.yul\":14531:14537   */\n      dup2\n        /* \"#utility.yul\":14518:14538   */\n      calldataload\n        /* \"#utility.yul\":14509:14538   */\n      swap1\n      pop\n        /* \"#utility.yul\":14547:14580   */\n      tag_695\n        /* \"#utility.yul\":14574:14579   */\n      dup2\n        /* \"#utility.yul\":14547:14580   */\n      tag_483\n      jump\t// in\n    tag_695:\n        /* \"#utility.yul\":14447:14586   */\n      swap3\n      swap2\n      pop\n      pop\n      jump\t// out\n        /* \"#utility.yul\":14592:14708   */\n    tag_485:\n        /* \"#utility.yul\":14662:14683   */\n      tag_697\n        /* \"#utility.yul\":14677:14682   */\n      dup2\n        /* \"#utility.yul\":14662:14683   */\n      tag_450\n      jump\t// in\n    tag_697:\n        /* \"#utility.yul\":14655:14660   */\n      dup2\n        /* \"#utility.yul\":14652:14684   */\n      eq\n        /* \"#utility.yul\":14642:14702   */\n      tag_698\n      jumpi\n        /* \"#utility.yul\":14698:14699   */\n      0x00\n        /* \"#utility.yul\":14695:14696   */\n      dup1\n        /* \"#utility.yul\":14688:14700   */\n      revert\n        /* \"#utility.yul\":14642:14702   */\n    tag_698:\n        /* \"#utility.yul\":14592:14708   */\n      pop\n      jump\t// out\n        /* \"#utility.yul\":14714:14847   */\n    tag_486:\n        /* \"#utility.yul\":14757:14762   */\n      0x00\n        /* \"#utility.yul\":14795:14801   */\n      dup2\n        /* \"#utility.yul\":14782:14802   */\n      calldataload\n        /* \"#utility.yul\":14773:14802   */\n      swap1\n      pop\n        /* \"#utility.yul\":14811:14841   */\n      tag_700\n        /* \"#utility.yul\":14835:14840   */\n      dup2\n        /* \"#utility.yul\":14811:14841   */\n      tag_485\n      jump\t// in\n    tag_700:\n        /* \"#utility.yul\":14714:14847   */\n      swap3\n      swap2\n      pop\n      pop\n      jump\t// out\n        /* \"#utility.yul\":14853:15321   */\n    tag_127:\n        /* \"#utility.yul\":14918:14924   */\n      0x00\n        /* \"#utility.yul\":14926:14932   */\n      dup1\n        /* \"#utility.yul\":14975:14977   */\n      0x40\n        /* \"#utility.yul\":14963:14972   */\n      dup4\n        /* \"#utility.yul\":14954:14961   */\n      dup6\n        /* \"#utility.yul\":14950:14973   */\n      sub\n        /* \"#utility.yul\":14946:14978   */\n      slt\n        /* \"#utility.yul\":14943:15062   */\n      iszero\n      tag_702\n      jumpi\n        /* \"#utility.yul\":14981:15060   */\n      tag_703\n      tag_445\n      jump\t// in\n    tag_703:\n        /* \"#utility.yul\":14943:15062   */\n    tag_702:\n        /* \"#utility.yul\":15101:15102   */\n      0x00\n        /* \"#utility.yul\":15126:15179   */\n      tag_704\n        /* \"#utility.yul\":15171:15178   */\n      dup6\n        /* \"#utility.yul\":15162:15168   */\n      dup3\n        /* \"#utility.yul\":15151:15160   */\n      dup7\n        /* \"#utility.yul\":15147:15169   */\n      add\n        /* \"#utility.yul\":15126:15179   */\n      tag_484\n      jump\t// in\n    tag_704:\n        /* \"#utility.yul\":15116:15179   */\n      swap3\n      pop\n        /* \"#utility.yul\":15072:15189   */\n      pop\n        /* \"#utility.yul\":15228:15230   */\n      0x20\n        /* \"#utility.yul\":15254:15304   */\n      tag_705\n        /* \"#utility.yul\":15296:15303   */\n      dup6\n        /* \"#utility.yul\":15287:15293   */\n      dup3\n        /* \"#utility.yul\":15276:15285   */\n      dup7\n        /* \"#utility.yul\":15272:15294   */\n      add\n        /* \"#utility.yul\":15254:15304   */\n      tag_486\n      jump\t// in\n    tag_705:\n        /* \"#utility.yul\":15244:15304   */\n      swap2\n      pop\n        /* \"#utility.yul\":15199:15314   */\n      pop\n        /* \"#utility.yul\":14853:15321   */\n      swap3\n      pop\n      swap3\n      swap1\n      pop\n      jump\t// out\n        /* \"#utility.yul\":15327:15656   */\n    tag_144:\n        /* \"#utility.yul\":15386:15392   */\n      0x00\n        /* \"#utility.yul\":15435:15437   */\n      0x20\n        /* \"#utility.yul\":15423:15432   */\n      dup3\n        /* \"#utility.yul\":15414:15421   */\n      dup5\n        /* \"#utility.yul\":15410:15433   */\n      sub\n        /* \"#utility.yul\":15406:15438   */\n      slt\n        /* \"#utility.yul\":15403:15522   */\n      iszero\n      tag_707\n      jumpi\n        /* \"#utility.yul\":15441:15520   */\n      tag_708\n      tag_445\n      jump\t// in\n    tag_708:\n        /* \"#utility.yul\":15403:15522   */\n    tag_707:\n        /* \"#utility.yul\":15561:15562   */\n      0x00\n        /* \"#utility.yul\":15586:15639   */\n      tag_709\n        /* \"#utility.yul\":15631:15638   */\n      dup5\n        /* \"#utility.yul\":15622:15628   */\n      dup3\n        /* \"#utility.yul\":15611:15620   */\n      dup6\n        /* \"#utility.yul\":15607:15629   */\n      add\n        /* \"#utility.yul\":15586:15639   */\n      tag_484\n      jump\t// in\n    tag_709:\n        /* \"#utility.yul\":15576:15639   */\n      swap2\n      pop\n        /* \"#utility.yul\":15532:15649   */\n      pop\n        /* \"#utility.yul\":15327:15656   */\n      swap3\n      swap2\n      pop\n      pop\n      jump\t// out\n        /* \"#utility.yul\":15662:15842   */\n    tag_487:\n        /* \"#utility.yul\":15710:15787   */\n      0x4e487b7100000000000000000000000000000000000000000000000000000000\n        /* \"#utility.yul\":15707:15708   */\n      0x00\n        /* \"#utility.yul\":15700:15788   */\n      mstore\n        /* \"#utility.yul\":15807:15811   */\n      0x22\n        /* \"#utility.yul\":15804:15805   */\n      0x04\n        /* \"#utility.yul\":15797:15812   */\n      mstore\n        /* \"#utility.yul\":15831:15835   */\n      0x24\n        /* \"#utility.yul\":15828:15829   */\n      0x00\n        /* \"#utility.yul\":15821:15836   */\n      revert\n        /* \"#utility.yul\":15848:16168   */\n    tag_173:\n        /* \"#utility.yul\":15892:15898   */\n      0x00\n        /* \"#utility.yul\":15929:15930   */\n      0x02\n        /* \"#utility.yul\":15923:15927   */\n      dup3\n        /* \"#utility.yul\":15919:15931   */\n      div\n        /* \"#utility.yul\":15909:15931   */\n      swap1\n      pop\n        /* \"#utility.yul\":15976:15977   */\n      0x01\n        /* \"#utility.yul\":15970:15974   */\n      dup3\n        /* \"#utility.yul\":15966:15978   */\n      and\n        /* \"#utility.yul\":15997:16015   */\n      dup1\n        /* \"#utility.yul\":15987:16068   */\n      tag_712\n      jumpi\n        /* \"#utility.yul\":16053:16057   */\n      0x7f\n        /* \"#utility.yul\":16045:16051   */\n      dup3\n        /* \"#utility.yul\":16041:16058   */\n      and\n        /* \"#utility.yul\":16031:16058   */\n      swap2\n      pop\n        /* \"#utility.yul\":15987:16068   */\n    tag_712:\n        /* \"#utility.yul\":16115:16117   */\n      0x20\n        /* \"#utility.yul\":16107:16113   */\n      dup3\n        /* \"#utility.yul\":16104:16118   */\n      lt\n        /* \"#utility.yul\":16084:16102   */\n      dup2\n        /* \"#utility.yul\":16081:16119   */\n      sub\n        /* \"#utility.yul\":16078:16162   */\n      tag_713\n      jumpi\n        /* \"#utility.yul\":16134:16152   */\n      tag_714\n      tag_487\n      jump\t// in\n    tag_714:\n        /* \"#utility.yul\":16078:16162   */\n    tag_713:\n        /* \"#utility.yul\":15899:16168   */\n      pop\n        /* \"#utility.yul\":15848:16168   */\n      swap2\n      swap1\n      pop\n      jump\t// out\n        /* \"#utility.yul\":16174:16343   */\n    tag_488:\n        /* \"#utility.yul\":16314:16335   */\n      0x4e6f2074726164657320617661696c61626c6500000000000000000000000000\n        /* \"#utility.yul\":16310:16311   */\n      0x00\n        /* \"#utility.yul\":16302:16308   */\n      dup3\n        /* \"#utility.yul\":16298:16312   */\n      add\n        /* \"#utility.yul\":16291:16336   */\n      mstore\n        /* \"#utility.yul\":16174:16343   */\n      pop\n      jump\t// out\n        /* \"#utility.yul\":16349:16715   */\n    tag_489:\n        /* \"#utility.yul\":16491:16494   */\n      0x00\n        /* \"#utility.yul\":16512:16579   */\n      tag_717\n        /* \"#utility.yul\":16576:16578   */\n      0x13\n        /* \"#utility.yul\":16571:16574   */\n      dup4\n        /* \"#utility.yul\":16512:16579   */\n      tag_472\n      jump\t// in\n    tag_717:\n        /* \"#utility.yul\":16505:16579   */\n      swap2\n      pop\n        /* \"#utility.yul\":16588:16681   */\n      tag_718\n        /* \"#utility.yul\":16677:16680   */\n      dup3\n        /* \"#utility.yul\":16588:16681   */\n      tag_488\n      jump\t// in\n    tag_718:\n        /* \"#utility.yul\":16706:16708   */\n      0x20\n        /* \"#utility.yul\":16701:16704   */\n      dup3\n        /* \"#utility.yul\":16697:16709   */\n      add\n        /* \"#utility.yul\":16690:16709   */\n      swap1\n      pop\n        /* \"#utility.yul\":16349:16715   */\n      swap2\n      swap1\n      pop\n      jump\t// out\n        /* \"#utility.yul\":16721:17140   */\n    tag_201:\n        /* \"#utility.yul\":16887:16891   */\n      0x00\n        /* \"#utility.yul\":16925:16927   */\n      0x20\n        /* \"#utility.yul\":16914:16923   */\n      dup3\n        /* \"#utility.yul\":16910:16928   */\n      add\n        /* \"#utility.yul\":16902:16928   */\n      swap1\n      pop\n        /* \"#utility.yul\":16974:16983   */\n      dup2\n        /* \"#utility.yul\":16968:16972   */\n      dup2\n        /* \"#utility.yul\":16964:16984   */\n      sub\n        /* \"#utility.yul\":16960:16961   */\n      0x00\n        /* \"#utility.yul\":16949:16958   */\n      dup4\n        /* \"#utility.yul\":16945:16962   */\n      add\n        /* \"#utility.yul\":16938:16985   */\n      mstore\n        /* \"#utility.yul\":17002:17133   */\n      tag_720\n        /* \"#utility.yul\":17128:17132   */\n      dup2\n        /* \"#utility.yul\":17002:17133   */\n      tag_489\n      jump\t// in\n    tag_720:\n        /* \"#utility.yul\":16994:17133   */\n      swap1\n      pop\n        /* \"#utility.yul\":16721:17140   */\n      swap2\n      swap1\n      pop\n      jump\t// out\n        /* \"#utility.yul\":17146:17326   */\n    tag_490:\n        /* \"#utility.yul\":17194:17271   */\n      0x4e487b7100000000000000000000000000000000000000000000000000000000\n        /* \"#utility.yul\":17191:17192   */\n      0x00\n        /* \"#utility.yul\":17184:17272   */\n      mstore\n        /* \"#utility.yul\":17291:17295   */\n      0x11\n        /* \"#utility.yul\":17288:17289   */\n      0x04\n        /* \"#utility.yul\":17281:17296   */\n      mstore\n        /* \"#utility.yul\":17315:17319   */\n      0x24\n        /* \"#utility.yul\":17312:17313   */\n      0x00\n        /* \"#utility.yul\":17305:17320   */\n      revert\n        /* \"#utility.yul\":17332:17526   */\n    tag_203:\n        /* \"#utility.yul\":17372:17376   */\n      0x00\n        /* \"#utility.yul\":17392:17412   */\n      tag_723\n        /* \"#utility.yul\":17410:17411   */\n      dup3\n        /* \"#utility.yul\":17392:17412   */\n      tag_482\n      jump\t// in\n    tag_723:\n        /* \"#utility.yul\":17387:17412   */\n      swap2\n      pop\n        /* \"#utility.yul\":17426:17446   */\n      tag_724\n        /* \"#utility.yul\":17444:17445   */\n      dup4\n        /* \"#utility.yul\":17426:17446   */\n      tag_482\n      jump\t// in\n    tag_724:\n        /* \"#utility.yul\":17421:17446   */\n      swap3\n      pop\n        /* \"#utility.yul\":17470:17471   */\n      dup3\n        /* \"#utility.yul\":17467:17468   */\n      dup3\n        /* \"#utility.yul\":17463:17472   */\n      sub\n        /* \"#utility.yul\":17455:17472   */\n      swap1\n      pop\n        /* \"#utility.yul\":17494:17495   */\n      dup2\n        /* \"#utility.yul\":17488:17492   */\n      dup2\n        /* \"#utility.yul\":17485:17496   */\n      gt\n        /* \"#utility.yul\":17482:17519   */\n      iszero\n      tag_725\n      jumpi\n        /* \"#utility.yul\":17499:17517   */\n      tag_726\n      tag_490\n      jump\t// in\n    tag_726:\n        /* \"#utility.yul\":17482:17519   */\n    tag_725:\n        /* \"#utility.yul\":17332:17526   */\n      swap3\n      swap2\n      pop\n      pop\n      jump\t// out\n        /* \"#utility.yul\":17532:17712   */\n    tag_206:\n        /* \"#utility.yul\":17580:17657   */\n      0x4e487b7100000000000000000000000000000000000000000000000000000000\n        /* \"#utility.yul\":17577:17578   */\n      0x00\n        /* \"#utility.yul\":17570:17658   */\n      mstore\n        /* \"#utility.yul\":17677:17681   */\n      0x32\n        /* \"#utility.yul\":17674:17675   */\n      0x04\n        /* \"#utility.yul\":17667:17682   */\n      mstore\n        /* \"#utility.yul\":17701:17705   */\n      0x24\n        /* \"#utility.yul\":17698:17699   */\n      0x00\n        /* \"#utility.yul\":17691:17706   */\n      revert\n        /* \"#utility.yul\":17718:17866   */\n    tag_491:\n        /* \"#utility.yul\":17820:17831   */\n      0x00\n        /* \"#utility.yul\":17857:17860   */\n      dup2\n        /* \"#utility.yul\":17842:17860   */\n      swap1\n      pop\n        /* \"#utility.yul\":17718:17866   */\n      swap3\n      swap2\n      pop\n      pop\n      jump\t// out\n        /* \"#utility.yul\":17872:18262   */\n    tag_492:\n        /* \"#utility.yul\":17978:17981   */\n      0x00\n        /* \"#utility.yul\":18006:18045   */\n      tag_730\n        /* \"#utility.yul\":18039:18044   */\n      dup3\n        /* \"#utility.yul\":18006:18045   */\n      tag_471\n      jump\t// in\n    tag_730:\n        /* \"#utility.yul\":18061:18150   */\n      tag_731\n        /* \"#utility.yul\":18143:18149   */\n      dup2\n        /* \"#utility.yul\":18138:18141   */\n      dup6\n        /* \"#utility.yul\":18061:18150   */\n      tag_491\n      jump\t// in\n    tag_731:\n        /* \"#utility.yul\":18054:18150   */\n      swap4\n      pop\n        /* \"#utility.yul\":18159:18224   */\n      tag_732\n        /* \"#utility.yul\":18217:18223   */\n      dup2\n        /* \"#utility.yul\":18212:18215   */\n      dup6\n        /* \"#utility.yul\":18205:18209   */\n      0x20\n        /* \"#utility.yul\":18198:18203   */\n      dup7\n        /* \"#utility.yul\":18194:18210   */\n      add\n        /* \"#utility.yul\":18159:18224   */\n      tag_473\n      jump\t// in\n    tag_732:\n        /* \"#utility.yul\":18249:18255   */\n      dup1\n        /* \"#utility.yul\":18244:18247   */\n      dup5\n        /* \"#utility.yul\":18240:18256   */\n      add\n        /* \"#utility.yul\":18233:18256   */\n      swap2\n      pop\n        /* \"#utility.yul\":17982:18262   */\n      pop\n        /* \"#utility.yul\":17872:18262   */\n      swap3\n      swap2\n      pop\n      pop\n      jump\t// out\n        /* \"#utility.yul\":18268:18543   */\n    tag_214:\n        /* \"#utility.yul\":18400:18403   */\n      0x00\n        /* \"#utility.yul\":18422:18517   */\n      tag_734\n        /* \"#utility.yul\":18513:18516   */\n      dup3\n        /* \"#utility.yul\":18504:18510   */\n      dup5\n        /* \"#utility.yul\":18422:18517   */\n      tag_492\n      jump\t// in\n    tag_734:\n        /* \"#utility.yul\":18415:18517   */\n      swap2\n      pop\n        /* \"#utility.yul\":18534:18537   */\n      dup2\n        /* \"#utility.yul\":18527:18537   */\n      swap1\n      pop\n        /* \"#utility.yul\":18268:18543   */\n      swap3\n      swap2\n      pop\n      pop\n      jump\t// out\n        /* \"#utility.yul\":18549:18718   */\n    tag_493:\n        /* \"#utility.yul\":18689:18710   */\n      0x5472616465206e6f7420636f6e6669726d656400000000000000000000000000\n        /* \"#utility.yul\":18685:18686   */\n      0x00\n        /* \"#utility.yul\":18677:18683   */\n      dup3\n        /* \"#utility.yul\":18673:18687   */\n      add\n        /* \"#utility.yul\":18666:18711   */\n      mstore\n        /* \"#utility.yul\":18549:18718   */\n      pop\n      jump\t// out\n        /* \"#utility.yul\":18724:19090   */\n    tag_494:\n        /* \"#utility.yul\":18866:18869   */\n      0x00\n        /* \"#utility.yul\":18887:18954   */\n      tag_737\n        /* \"#utility.yul\":18951:18953   */\n      0x13\n        /* \"#utility.yul\":18946:18949   */\n      dup4\n        /* \"#utility.yul\":18887:18954   */\n      tag_472\n      jump\t// in\n    tag_737:\n        /* \"#utility.yul\":18880:18954   */\n      swap2\n      pop\n        /* \"#utility.yul\":18963:19056   */\n      tag_738\n        /* \"#utility.yul\":19052:19055   */\n      dup3\n        /* \"#utility.yul\":18963:19056   */\n      tag_493\n      jump\t// in\n    tag_738:\n        /* \"#utility.yul\":19081:19083   */\n      0x20\n        /* \"#utility.yul\":19076:19079   */\n      dup3\n        /* \"#utility.yul\":19072:19084   */\n      add\n        /* \"#utility.yul\":19065:19084   */\n      swap1\n      pop\n        /* \"#utility.yul\":18724:19090   */\n      swap2\n      swap1\n      pop\n      jump\t// out\n        /* \"#utility.yul\":19096:19515   */\n    tag_217:\n        /* \"#utility.yul\":19262:19266   */\n      0x00\n        /* \"#utility.yul\":19300:19302   */\n      0x20\n        /* \"#utility.yul\":19289:19298   */\n      dup3\n        /* \"#utility.yul\":19285:19303   */\n      add\n        /* \"#utility.yul\":19277:19303   */\n      swap1\n      pop\n        /* \"#utility.yul\":19349:19358   */\n      dup2\n        /* \"#utility.yul\":19343:19347   */\n      dup2\n        /* \"#utility.yul\":19339:19359   */\n      sub\n        /* \"#utility.yul\":19335:19336   */\n      0x00\n        /* \"#utility.yul\":19324:19333   */\n      dup4\n        /* \"#utility.yul\":19320:19337   */\n      add\n        /* \"#utility.yul\":19313:19360   */\n      mstore\n        /* \"#utility.yul\":19377:19508   */\n      tag_740\n        /* \"#utility.yul\":19503:19507   */\n      dup2\n        /* \"#utility.yul\":19377:19508   */\n      tag_494\n      jump\t// in\n    tag_740:\n        /* \"#utility.yul\":19369:19508   */\n      swap1\n      pop\n        /* \"#utility.yul\":19096:19515   */\n      swap2\n      swap1\n      pop\n      jump\t// out\n        /* \"#utility.yul\":19521:19688   */\n    tag_495:\n        /* \"#utility.yul\":19661:19680   */\n      0x4e6f742074686520696e69746961746f72000000000000000000000000000000\n        /* \"#utility.yul\":19657:19658   */\n      0x00\n        /* \"#utility.yul\":19649:19655   */\n      dup3\n        /* \"#utility.yul\":19645:19659   */\n      add\n        /* \"#utility.yul\":19638:19681   */\n      mstore\n        /* \"#utility.yul\":19521:19688   */\n      pop\n      jump\t// out\n        /* \"#utility.yul\":19694:20060   */\n    tag_496:\n        /* \"#utility.yul\":19836:19839   */\n      0x00\n        /* \"#utility.yul\":19857:19924   */\n      tag_743\n        /* \"#utility.yul\":19921:19923   */\n      0x11\n        /* \"#utility.yul\":19916:19919   */\n      dup4\n        /* \"#utility.yul\":19857:19924   */\n      tag_472\n      jump\t// in\n    tag_743:\n        /* \"#utility.yul\":19850:19924   */\n      swap2\n      pop\n        /* \"#utility.yul\":19933:20026   */\n      tag_744\n        /* \"#utility.yul\":20022:20025   */\n      dup3\n        /* \"#utility.yul\":19933:20026   */\n      tag_495\n      jump\t// in\n    tag_744:\n        /* \"#utility.yul\":20051:20053   */\n      0x20\n        /* \"#utility.yul\":20046:20049   */\n      dup3\n        /* \"#utility.yul\":20042:20054   */\n      add\n        /* \"#utility.yul\":20035:20054   */\n      swap1\n      pop\n        /* \"#utility.yul\":19694:20060   */\n      swap2\n      swap1\n      pop\n      jump\t// out\n        /* \"#utility.yul\":20066:20485   */\n    tag_224:\n        /* \"#utility.yul\":20232:20236   */\n      0x00\n        /* \"#utility.yul\":20270:20272   */\n      0x20\n        /* \"#utility.yul\":20259:20268   */\n      dup3\n        /* \"#utility.yul\":20255:20273   */\n      add\n        /* \"#utility.yul\":20247:20273   */\n      swap1\n      pop\n        /* \"#utility.yul\":20319:20328   */\n      dup2\n        /* \"#utility.yul\":20313:20317   */\n      dup2\n        /* \"#utility.yul\":20309:20329   */\n      sub\n        /* \"#utility.yul\":20305:20306   */\n      0x00\n        /* \"#utility.yul\":20294:20303   */\n      dup4\n        /* \"#utility.yul\":20290:20307   */\n      add\n        /* \"#utility.yul\":20283:20330   */\n      mstore\n        /* \"#utility.yul\":20347:20478   */\n      tag_746\n        /* \"#utility.yul\":20473:20477   */\n      dup2\n        /* \"#utility.yul\":20347:20478   */\n      tag_496\n      jump\t// in\n    tag_746:\n        /* \"#utility.yul\":20339:20478   */\n      swap1\n      pop\n        /* \"#utility.yul\":20066:20485   */\n      swap2\n      swap1\n      pop\n      jump\t// out\n        /* \"#utility.yul\":20491:20661   */\n    tag_497:\n        /* \"#utility.yul\":20631:20653   */\n      0x4e6f742074686520636f756e7465727061727479000000000000000000000000\n        /* \"#utility.yul\":20627:20628   */\n      0x00\n        /* \"#utility.yul\":20619:20625   */\n      dup3\n        /* \"#utility.yul\":20615:20629   */\n      add\n        /* \"#utility.yul\":20608:20654   */\n      mstore\n        /* \"#utility.yul\":20491:20661   */\n      pop\n      jump\t// out\n        /* \"#utility.yul\":20667:21033   */\n    tag_498:\n        /* \"#utility.yul\":20809:20812   */\n      0x00\n        /* \"#utility.yul\":20830:20897   */\n      tag_749\n        /* \"#utility.yul\":20894:20896   */\n      0x14\n        /* \"#utility.yul\":20889:20892   */\n      dup4\n        /* \"#utility.yul\":20830:20897   */\n      tag_472\n      jump\t// in\n    tag_749:\n        /* \"#utility.yul\":20823:20897   */\n      swap2\n      pop\n        /* \"#utility.yul\":20906:20999   */\n      tag_750\n        /* \"#utility.yul\":20995:20998   */\n      dup3\n        /* \"#utility.yul\":20906:20999   */\n      tag_497\n      jump\t// in\n    tag_750:\n        /* \"#utility.yul\":21024:21026   */\n      0x20\n        /* \"#utility.yul\":21019:21022   */\n      dup3\n        /* \"#utility.yul\":21015:21027   */\n      add\n        /* \"#utility.yul\":21008:21027   */\n      swap1\n      pop\n        /* \"#utility.yul\":20667:21033   */\n      swap2\n      swap1\n      pop\n      jump\t// out\n        /* \"#utility.yul\":21039:21458   */\n    tag_231:\n        /* \"#utility.yul\":21205:21209   */\n      0x00\n        /* \"#utility.yul\":21243:21245   */\n      0x20\n        /* \"#utility.yul\":21232:21241   */\n      dup3\n        /* \"#utility.yul\":21228:21246   */\n      add\n        /* \"#utility.yul\":21220:21246   */\n      swap1\n      pop\n        /* \"#utility.yul\":21292:21301   */\n      dup2\n        /* \"#utility.yul\":21286:21290   */\n      dup2\n        /* \"#utility.yul\":21282:21302   */\n      sub\n        /* \"#utility.yul\":21278:21279   */\n      0x00\n        /* \"#utility.yul\":21267:21276   */\n      dup4\n        /* \"#utility.yul\":21263:21280   */\n      add\n        /* \"#utility.yul\":21256:21303   */\n      mstore\n        /* \"#utility.yul\":21320:21451   */\n      tag_752\n        /* \"#utility.yul\":21446:21450   */\n      dup2\n        /* \"#utility.yul\":21320:21451   */\n      tag_498\n      jump\t// in\n    tag_752:\n        /* \"#utility.yul\":21312:21451   */\n      swap1\n      pop\n        /* \"#utility.yul\":21039:21458   */\n      swap2\n      swap1\n      pop\n      jump\t// out\n        /* \"#utility.yul\":21464:21542   */\n    tag_499:\n        /* \"#utility.yul\":21502:21509   */\n      0x00\n        /* \"#utility.yul\":21531:21536   */\n      dup2\n        /* \"#utility.yul\":21520:21536   */\n      swap1\n      pop\n        /* \"#utility.yul\":21464:21542   */\n      swap2\n      swap1\n      pop\n      jump\t// out\n        /* \"#utility.yul\":21548:21701   */\n    tag_500:\n        /* \"#utility.yul\":21651:21694   */\n      tag_755\n        /* \"#utility.yul\":21670:21693   */\n      tag_756\n        /* \"#utility.yul\":21687:21692   */\n      dup3\n        /* \"#utility.yul\":21670:21693   */\n      tag_475\n      jump\t// in\n    tag_756:\n        /* \"#utility.yul\":21651:21694   */\n      tag_499\n      jump\t// in\n    tag_755:\n        /* \"#utility.yul\":21646:21649   */\n      dup3\n        /* \"#utility.yul\":21639:21695   */\n      mstore\n        /* \"#utility.yul\":21548:21701   */\n      pop\n      pop\n      jump\t// out\n        /* \"#utility.yul\":21707:21786   */\n    tag_501:\n        /* \"#utility.yul\":21746:21753   */\n      0x00\n        /* \"#utility.yul\":21775:21780   */\n      dup2\n        /* \"#utility.yul\":21764:21780   */\n      swap1\n      pop\n        /* \"#utility.yul\":21707:21786   */\n      swap2\n      swap1\n      pop\n      jump\t// out\n        /* \"#utility.yul\":21792:21949   */\n    tag_502:\n        /* \"#utility.yul\":21897:21942   */\n      tag_759\n        /* \"#utility.yul\":21917:21941   */\n      tag_760\n        /* \"#utility.yul\":21935:21940   */\n      dup3\n        /* \"#utility.yul\":21917:21941   */\n      tag_482\n      jump\t// in\n    tag_760:\n        /* \"#utility.yul\":21897:21942   */\n      tag_501\n      jump\t// in\n    tag_759:\n        /* \"#utility.yul\":21892:21895   */\n      dup3\n        /* \"#utility.yul\":21885:21943   */\n      mstore\n        /* \"#utility.yul\":21792:21949   */\n      pop\n      pop\n      jump\t// out\n        /* \"#utility.yul\":21955:22508   */\n    tag_241:\n        /* \"#utility.yul\":22141:22144   */\n      0x00\n        /* \"#utility.yul\":22163:22258   */\n      tag_762\n        /* \"#utility.yul\":22254:22257   */\n      dup3\n        /* \"#utility.yul\":22245:22251   */\n      dup7\n        /* \"#utility.yul\":22163:22258   */\n      tag_492\n      jump\t// in\n    tag_762:\n        /* \"#utility.yul\":22156:22258   */\n      swap2\n      pop\n        /* \"#utility.yul\":22268:22341   */\n      tag_763\n        /* \"#utility.yul\":22337:22340   */\n      dup3\n        /* \"#utility.yul\":22328:22334   */\n      dup6\n        /* \"#utility.yul\":22268:22341   */\n      tag_500\n      jump\t// in\n    tag_763:\n        /* \"#utility.yul\":22366:22368   */\n      0x20\n        /* \"#utility.yul\":22361:22364   */\n      dup3\n        /* \"#utility.yul\":22357:22369   */\n      add\n        /* \"#utility.yul\":22350:22369   */\n      swap2\n      pop\n        /* \"#utility.yul\":22379:22454   */\n      tag_764\n        /* \"#utility.yul\":22450:22453   */\n      dup3\n        /* \"#utility.yul\":22441:22447   */\n      dup5\n        /* \"#utility.yul\":22379:22454   */\n      tag_502\n      jump\t// in\n    tag_764:\n        /* \"#utility.yul\":22479:22481   */\n      0x20\n        /* \"#utility.yul\":22474:22477   */\n      dup3\n        /* \"#utility.yul\":22470:22482   */\n      add\n        /* \"#utility.yul\":22463:22482   */\n      swap2\n      pop\n        /* \"#utility.yul\":22499:22502   */\n      dup2\n        /* \"#utility.yul\":22492:22502   */\n      swap1\n      pop\n        /* \"#utility.yul\":21955:22508   */\n      swap5\n      swap4\n      pop\n      pop\n      pop\n      pop\n      jump\t// out\n        /* \"#utility.yul\":22514:22937   */\n    tag_247:\n        /* \"#utility.yul\":22655:22659   */\n      0x00\n        /* \"#utility.yul\":22693:22695   */\n      0x40\n        /* \"#utility.yul\":22682:22691   */\n      dup3\n        /* \"#utility.yul\":22678:22696   */\n      add\n        /* \"#utility.yul\":22670:22696   */\n      swap1\n      pop\n        /* \"#utility.yul\":22706:22777   */\n      tag_766\n        /* \"#utility.yul\":22774:22775   */\n      0x00\n        /* \"#utility.yul\":22763:22772   */\n      dup4\n        /* \"#utility.yul\":22759:22776   */\n      add\n        /* \"#utility.yul\":22750:22756   */\n      dup6\n        /* \"#utility.yul\":22706:22777   */\n      tag_470\n      jump\t// in\n    tag_766:\n        /* \"#utility.yul\":22824:22833   */\n      dup2\n        /* \"#utility.yul\":22818:22822   */\n      dup2\n        /* \"#utility.yul\":22814:22834   */\n      sub\n        /* \"#utility.yul\":22809:22811   */\n      0x20\n        /* \"#utility.yul\":22798:22807   */\n      dup4\n        /* \"#utility.yul\":22794:22812   */\n      add\n        /* \"#utility.yul\":22787:22835   */\n      mstore\n        /* \"#utility.yul\":22852:22930   */\n      tag_767\n        /* \"#utility.yul\":22925:22929   */\n      dup2\n        /* \"#utility.yul\":22916:22922   */\n      dup5\n        /* \"#utility.yul\":22852:22930   */\n      tag_474\n      jump\t// in\n    tag_767:\n        /* \"#utility.yul\":22844:22930   */\n      swap1\n      pop\n        /* \"#utility.yul\":22514:22937   */\n      swap4\n      swap3\n      pop\n      pop\n      pop\n      jump\t// out\n        /* \"#utility.yul\":22943:23028   */\n    tag_503:\n        /* \"#utility.yul\":22988:22995   */\n      0x00\n        /* \"#utility.yul\":23017:23022   */\n      dup2\n        /* \"#utility.yul\":23006:23022   */\n      swap1\n      pop\n        /* \"#utility.yul\":22943:23028   */\n      swap2\n      swap1\n      pop\n      jump\t// out\n        /* \"#utility.yul\":23034:23135   */\n    tag_504:\n        /* \"#utility.yul\":23070:23077   */\n      0x00\n        /* \"#utility.yul\":23110:23128   */\n      0xffffffffffffffff\n        /* \"#utility.yul\":23103:23108   */\n      dup3\n        /* \"#utility.yul\":23099:23129   */\n      and\n        /* \"#utility.yul\":23088:23129   */\n      swap1\n      pop\n        /* \"#utility.yul\":23034:23135   */\n      swap2\n      swap1\n      pop\n      jump\t// out\n        /* \"#utility.yul\":23141:23201   */\n    tag_505:\n        /* \"#utility.yul\":23169:23172   */\n      0x00\n        /* \"#utility.yul\":23190:23195   */\n      dup2\n        /* \"#utility.yul\":23183:23195   */\n      swap1\n      pop\n        /* \"#utility.yul\":23141:23201   */\n      swap2\n      swap1\n      pop\n      jump\t// out\n        /* \"#utility.yul\":23207:23363   */\n    tag_506:\n        /* \"#utility.yul\":23264:23273   */\n      0x00\n        /* \"#utility.yul\":23297:23357   */\n      tag_772\n        /* \"#utility.yul\":23314:23356   */\n      tag_773\n        /* \"#utility.yul\":23323:23355   */\n      tag_774\n        /* \"#utility.yul\":23349:23354   */\n      dup5\n        /* \"#utility.yul\":23323:23355   */\n      tag_503\n      jump\t// in\n    tag_774:\n        /* \"#utility.yul\":23314:23356   */\n      tag_505\n      jump\t// in\n    tag_773:\n        /* \"#utility.yul\":23297:23357   */\n      tag_504\n      jump\t// in\n    tag_772:\n        /* \"#utility.yul\":23284:23357   */\n      swap1\n      pop\n        /* \"#utility.yul\":23207:23363   */\n      swap2\n      swap1\n      pop\n      jump\t// out\n        /* \"#utility.yul\":23369:23514   */\n    tag_507:\n        /* \"#utility.yul\":23463:23507   */\n      tag_776\n        /* \"#utility.yul\":23501:23506   */\n      dup2\n        /* \"#utility.yul\":23463:23507   */\n      tag_506\n      jump\t// in\n    tag_776:\n        /* \"#utility.yul\":23458:23461   */\n      dup3\n        /* \"#utility.yul\":23451:23508   */\n      mstore\n        /* \"#utility.yul\":23369:23514   */\n      pop\n      pop\n      jump\t// out\n        /* \"#utility.yul\":23520:23756   */\n    tag_270:\n        /* \"#utility.yul\":23620:23624   */\n      0x00\n        /* \"#utility.yul\":23658:23660   */\n      0x20\n        /* \"#utility.yul\":23647:23656   */\n      dup3\n        /* \"#utility.yul\":23643:23661   */\n      add\n        /* \"#utility.yul\":23635:23661   */\n      swap1\n      pop\n        /* \"#utility.yul\":23671:23749   */\n      tag_778\n        /* \"#utility.yul\":23746:23747   */\n      0x00\n        /* \"#utility.yul\":23735:23744   */\n      dup4\n        /* \"#utility.yul\":23731:23748   */\n      add\n        /* \"#utility.yul\":23722:23728   */\n      dup5\n        /* \"#utility.yul\":23671:23749   */\n      tag_507\n      jump\t// in\n    tag_778:\n        /* \"#utility.yul\":23520:23756   */\n      swap3\n      swap2\n      pop\n      pop\n      jump\t// out\n        /* \"#utility.yul\":23762:23903   */\n    tag_508:\n        /* \"#utility.yul\":23811:23815   */\n      0x00\n        /* \"#utility.yul\":23834:23837   */\n      dup2\n        /* \"#utility.yul\":23826:23837   */\n      swap1\n      pop\n        /* \"#utility.yul\":23857:23860   */\n      dup2\n        /* \"#utility.yul\":23854:23855   */\n      0x00\n        /* \"#utility.yul\":23847:23861   */\n      mstore\n        /* \"#utility.yul\":23891:23895   */\n      0x20\n        /* \"#utility.yul\":23888:23889   */\n      0x00\n        /* \"#utility.yul\":23878:23896   */\n      keccak256\n        /* \"#utility.yul\":23870:23896   */\n      swap1\n      pop\n        /* \"#utility.yul\":23762:23903   */\n      swap2\n      swap1\n      pop\n      jump\t// out\n        /* \"#utility.yul\":23933:24764   */\n    tag_509:\n        /* \"#utility.yul\":24018:24021   */\n      0x00\n        /* \"#utility.yul\":24055:24060   */\n      dup2\n        /* \"#utility.yul\":24049:24061   */\n      sload\n        /* \"#utility.yul\":24084:24120   */\n      tag_781\n        /* \"#utility.yul\":24110:24119   */\n      dup2\n        /* \"#utility.yul\":24084:24120   */\n      tag_173\n      jump\t// in\n    tag_781:\n        /* \"#utility.yul\":24136:24207   */\n      tag_782\n        /* \"#utility.yul\":24200:24206   */\n      dup2\n        /* \"#utility.yul\":24195:24198   */\n      dup7\n        /* \"#utility.yul\":24136:24207   */\n      tag_472\n      jump\t// in\n    tag_782:\n        /* \"#utility.yul\":24129:24207   */\n      swap5\n      pop\n        /* \"#utility.yul\":24238:24239   */\n      0x01\n        /* \"#utility.yul\":24227:24236   */\n      dup3\n        /* \"#utility.yul\":24223:24240   */\n      and\n        /* \"#utility.yul\":24254:24255   */\n      0x00\n        /* \"#utility.yul\":24249:24413   */\n      dup2\n      eq\n      tag_784\n      jumpi\n        /* \"#utility.yul\":24427:24428   */\n      0x01\n        /* \"#utility.yul\":24422:24758   */\n      dup2\n      eq\n      tag_785\n      jumpi\n        /* \"#utility.yul\":24216:24758   */\n      jump(tag_783)\n        /* \"#utility.yul\":24249:24413   */\n    tag_784:\n        /* \"#utility.yul\":24333:24337   */\n      0xff\n        /* \"#utility.yul\":24329:24338   */\n      not\n        /* \"#utility.yul\":24318:24327   */\n      dup4\n        /* \"#utility.yul\":24314:24339   */\n      and\n        /* \"#utility.yul\":24309:24312   */\n      dup7\n        /* \"#utility.yul\":24302:24340   */\n      mstore\n        /* \"#utility.yul\":24393:24399   */\n      dup2\n        /* \"#utility.yul\":24386:24400   */\n      iszero\n        /* \"#utility.yul\":24379:24401   */\n      iszero\n        /* \"#utility.yul\":24373:24377   */\n      0x20\n        /* \"#utility.yul\":24369:24402   */\n      mul\n        /* \"#utility.yul\":24364:24367   */\n      dup7\n        /* \"#utility.yul\":24360:24403   */\n      add\n        /* \"#utility.yul\":24353:24403   */\n      swap4\n      pop\n        /* \"#utility.yul\":24249:24413   */\n      jump(tag_783)\n        /* \"#utility.yul\":24422:24758   */\n    tag_785:\n        /* \"#utility.yul\":24489:24527   */\n      tag_786\n        /* \"#utility.yul\":24521:24526   */\n      dup6\n        /* \"#utility.yul\":24489:24527   */\n      tag_508\n      jump\t// in\n    tag_786:\n        /* \"#utility.yul\":24549:24550   */\n      0x00\n        /* \"#utility.yul\":24563:24717   */\n    tag_787:\n        /* \"#utility.yul\":24577:24583   */\n      dup4\n        /* \"#utility.yul\":24574:24575   */\n      dup2\n        /* \"#utility.yul\":24571:24584   */\n      lt\n        /* \"#utility.yul\":24563:24717   */\n      iszero\n      tag_789\n      jumpi\n        /* \"#utility.yul\":24651:24658   */\n      dup2\n        /* \"#utility.yul\":24645:24659   */\n      sload\n        /* \"#utility.yul\":24641:24642   */\n      dup2\n        /* \"#utility.yul\":24636:24639   */\n      dup10\n        /* \"#utility.yul\":24632:24643   */\n      add\n        /* \"#utility.yul\":24625:24660   */\n      mstore\n        /* \"#utility.yul\":24701:24702   */\n      0x01\n        /* \"#utility.yul\":24692:24699   */\n      dup3\n        /* \"#utility.yul\":24688:24703   */\n      add\n        /* \"#utility.yul\":24677:24703   */\n      swap2\n      pop\n        /* \"#utility.yul\":24599:24603   */\n      0x20\n        /* \"#utility.yul\":24596:24597   */\n      dup2\n        /* \"#utility.yul\":24592:24604   */\n      add\n        /* \"#utility.yul\":24587:24604   */\n      swap1\n      pop\n        /* \"#utility.yul\":24563:24717   */\n      jump(tag_787)\n    tag_789:\n        /* \"#utility.yul\":24746:24747   */\n      dup1\n        /* \"#utility.yul\":24741:24744   */\n      dup9\n        /* \"#utility.yul\":24737:24748   */\n      add\n        /* \"#utility.yul\":24730:24748   */\n      swap6\n      pop\n        /* \"#utility.yul\":24429:24758   */\n      pop\n      pop\n        /* \"#utility.yul\":24216:24758   */\n    tag_783:\n      pop\n        /* \"#utility.yul\":24022:24764   */\n      pop\n      pop\n        /* \"#utility.yul\":23933:24764   */\n      swap3\n      swap2\n      pop\n      pop\n      jump\t// out\n        /* \"#utility.yul\":24770:25272   */\n    tag_289:\n        /* \"#utility.yul\":24925:24929   */\n      0x00\n        /* \"#utility.yul\":24963:24965   */\n      0x40\n        /* \"#utility.yul\":24952:24961   */\n      dup3\n        /* \"#utility.yul\":24948:24966   */\n      add\n        /* \"#utility.yul\":24940:24966   */\n      swap1\n      pop\n        /* \"#utility.yul\":25012:25021   */\n      dup2\n        /* \"#utility.yul\":25006:25010   */\n      dup2\n        /* \"#utility.yul\":25002:25022   */\n      sub\n        /* \"#utility.yul\":24998:24999   */\n      0x00\n        /* \"#utility.yul\":24987:24996   */\n      dup4\n        /* \"#utility.yul\":24983:25000   */\n      add\n        /* \"#utility.yul\":24976:25023   */\n      mstore\n        /* \"#utility.yul\":25040:25115   */\n      tag_791\n        /* \"#utility.yul\":25110:25114   */\n      dup2\n        /* \"#utility.yul\":25101:25107   */\n      dup6\n        /* \"#utility.yul\":25040:25115   */\n      tag_509\n      jump\t// in\n    tag_791:\n        /* \"#utility.yul\":25032:25115   */\n      swap1\n      pop\n        /* \"#utility.yul\":25162:25171   */\n      dup2\n        /* \"#utility.yul\":25156:25160   */\n      dup2\n        /* \"#utility.yul\":25152:25172   */\n      sub\n        /* \"#utility.yul\":25147:25149   */\n      0x20\n        /* \"#utility.yul\":25136:25145   */\n      dup4\n        /* \"#utility.yul\":25132:25150   */\n      add\n        /* \"#utility.yul\":25125:25173   */\n      mstore\n        /* \"#utility.yul\":25190:25265   */\n      tag_792\n        /* \"#utility.yul\":25260:25264   */\n      dup2\n        /* \"#utility.yul\":25251:25257   */\n      dup5\n        /* \"#utility.yul\":25190:25265   */\n      tag_509\n      jump\t// in\n    tag_792:\n        /* \"#utility.yul\":25182:25265   */\n      swap1\n      pop\n        /* \"#utility.yul\":24770:25272   */\n      swap4\n      swap3\n      pop\n      pop\n      pop\n      jump\t// out\n        /* \"#utility.yul\":25278:25371   */\n    tag_510:\n        /* \"#utility.yul\":25315:25321   */\n      0x00\n        /* \"#utility.yul\":25362:25364   */\n      0x20\n        /* \"#utility.yul\":25357:25359   */\n      0x1f\n        /* \"#utility.yul\":25350:25355   */\n      dup4\n        /* \"#utility.yul\":25346:25360   */\n      add\n        /* \"#utility.yul\":25342:25365   */\n      div\n        /* \"#utility.yul\":25332:25365   */\n      swap1\n      pop\n        /* \"#utility.yul\":25278:25371   */\n      swap2\n      swap1\n      pop\n      jump\t// out\n        /* \"#utility.yul\":25377:25484   */\n    tag_511:\n        /* \"#utility.yul\":25421:25429   */\n      0x00\n        /* \"#utility.yul\":25471:25476   */\n      dup3\n        /* \"#utility.yul\":25465:25469   */\n      dup3\n        /* \"#utility.yul\":25461:25477   */\n      shl\n        /* \"#utility.yul\":25440:25477   */\n      swap1\n      pop\n        /* \"#utility.yul\":25377:25484   */\n      swap3\n      swap2\n      pop\n      pop\n      jump\t// out\n        /* \"#utility.yul\":25490:25883   */\n    tag_512:\n        /* \"#utility.yul\":25559:25565   */\n      0x00\n        /* \"#utility.yul\":25609:25610   */\n      0x08\n        /* \"#utility.yul\":25597:25607   */\n      dup4\n        /* \"#utility.yul\":25593:25611   */\n      mul\n        /* \"#utility.yul\":25632:25729   */\n      tag_796\n        /* \"#utility.yul\":25662:25728   */\n      0xffffffffffffffffffffffffffffffffffffffffffffffffffffffffffffffff\n        /* \"#utility.yul\":25651:25660   */\n      dup3\n        /* \"#utility.yul\":25632:25729   */\n      tag_511\n      jump\t// in\n    tag_796:\n        /* \"#utility.yul\":25750:25789   */\n      tag_797\n        /* \"#utility.yul\":25780:25788   */\n      dup7\n        /* \"#utility.yul\":25769:25778   */\n      dup4\n        /* \"#utility.yul\":25750:25789   */\n      tag_511\n      jump\t// in\n    tag_797:\n        /* \"#utility.yul\":25738:25789   */\n      swap6\n      pop\n        /* \"#utility.yul\":25822:25826   */\n      dup1\n        /* \"#utility.yul\":25818:25827   */\n      not\n        /* \"#utility.yul\":25811:25816   */\n      dup5\n        /* \"#utility.yul\":25807:25828   */\n      and\n        /* \"#utility.yul\":25798:25828   */\n      swap4\n      pop\n        /* \"#utility.yul\":25871:25875   */\n      dup1\n        /* \"#utility.yul\":25861:25869   */\n      dup7\n        /* \"#utility.yul\":25857:25876   */\n      and\n        /* \"#utility.yul\":25850:25855   */\n      dup5\n        /* \"#utility.yul\":25847:25877   */\n      or\n        /* \"#utility.yul\":25837:25877   */\n      swap3\n      pop\n        /* \"#utility.yul\":25566:25883   */\n      pop\n      pop\n        /* \"#utility.yul\":25490:25883   */\n      swap4\n      swap3\n      pop\n      pop\n      pop\n      jump\t// out\n        /* \"#utility.yul\":25889:26031   */\n    tag_513:\n        /* \"#utility.yul\":25939:25948   */\n      0x00\n        /* \"#utility.yul\":25972:26025   */\n      tag_799\n        /* \"#utility.yul\":25990:26024   */\n      tag_800\n        /* \"#utility.yul\":25999:26023   */\n      tag_801\n        /* \"#utility.yul\":26017:26022   */\n      dup5\n        /* \"#utility.yul\":25999:26023   */\n      tag_482\n      jump\t// in\n    tag_801:\n        /* \"#utility.yul\":25990:26024   */\n      tag_505\n      jump\t// in\n    tag_800:\n        /* \"#utility.yul\":25972:26025   */\n      tag_482\n      jump\t// in\n    tag_799:\n        /* \"#utility.yul\":25959:26025   */\n      swap1\n      pop\n        /* \"#utility.yul\":25889:26031   */\n      swap2\n      swap1\n      pop\n      jump\t// out\n        /* \"#utility.yul\":26037:26112   */\n    tag_514:\n        /* \"#utility.yul\":26080:26083   */\n      0x00\n        /* \"#utility.yul\":26101:26106   */\n      dup2\n        /* \"#utility.yul\":26094:26106   */\n      swap1\n      pop\n        /* \"#utility.yul\":26037:26112   */\n      swap2\n      swap1\n      pop\n      jump\t// out\n        /* \"#utility.yul\":26118:26387   */\n    tag_515:\n        /* \"#utility.yul\":26228:26267   */\n      tag_804\n        /* \"#utility.yul\":26259:26266   */\n      dup4\n        /* \"#utility.yul\":26228:26267   */\n      tag_513\n      jump\t// in\n    tag_804:\n        /* \"#utility.yul\":26289:26380   */\n      tag_805\n        /* \"#utility.yul\":26338:26379   */\n      tag_806\n        /* \"#utility.yul\":26362:26378   */\n      dup3\n        /* \"#utility.yul\":26338:26379   */\n      tag_514\n      jump\t// in\n    tag_806:\n        /* \"#utility.yul\":26330:26336   */\n      dup5\n        /* \"#utility.yul\":26323:26327   */\n      dup5\n        /* \"#utility.yul\":26317:26328   */\n      sload\n        /* \"#utility.yul\":26289:26380   */\n      tag_512\n      jump\t// in\n    tag_805:\n        /* \"#utility.yul\":26283:26287   */\n      dup3\n        /* \"#utility.yul\":26276:26381   */\n      sstore\n        /* \"#utility.yul\":26194:26387   */\n      pop\n        /* \"#utility.yul\":26118:26387   */\n      pop\n      pop\n      pop\n      jump\t// out\n        /* \"#utility.yul\":26393:26466   */\n    tag_516:\n        /* \"#utility.yul\":26438:26441   */\n      0x00\n        /* \"#utility.yul\":26393:26466   */\n      swap1\n      jump\t// out\n        /* \"#utility.yul\":26472:26661   */\n    tag_517:\n        /* \"#utility.yul\":26549:26581   */\n      tag_809\n      tag_516\n      jump\t// in\n    tag_809:\n        /* \"#utility.yul\":26590:26655   */\n      tag_810\n        /* \"#utility.yul\":26648:26654   */\n      dup2\n        /* \"#utility.yul\":26640:26646   */\n      dup5\n        /* \"#utility.yul\":26634:26638   */\n      dup5\n        /* \"#utility.yul\":26590:26655   */\n      tag_515\n      jump\t// in\n    tag_810:\n        /* \"#utility.yul\":26525:26661   */\n      pop\n        /* \"#utility.yul\":26472:26661   */\n      pop\n      pop\n      jump\t// out\n        /* \"#utility.yul\":26667:26853   */\n    tag_518:\n        /* \"#utility.yul\":26727:26847   */\n    tag_812:\n        /* \"#utility.yul\":26744:26747   */\n      dup2\n        /* \"#utility.yul\":26737:26742   */\n      dup2\n        /* \"#utility.yul\":26734:26748   */\n      lt\n        /* \"#utility.yul\":26727:26847   */\n      iszero\n      tag_814\n      jumpi\n        /* \"#utility.yul\":26798:26837   */\n      tag_815\n        /* \"#utility.yul\":26835:26836   */\n      0x00\n        /* \"#utility.yul\":26828:26833   */\n      dup3\n        /* \"#utility.yul\":26798:26837   */\n      tag_517\n      jump\t// in\n    tag_815:\n        /* \"#utility.yul\":26771:26772   */\n      0x01\n        /* \"#utility.yul\":26764:26769   */\n      dup2\n        /* \"#utility.yul\":26760:26773   */\n      add\n        /* \"#utility.yul\":26751:26773   */\n      swap1\n      pop\n        /* \"#utility.yul\":26727:26847   */\n      jump(tag_812)\n    tag_814:\n        /* \"#utility.yul\":26667:26853   */\n      pop\n      pop\n      jump\t// out\n        /* \"#utility.yul\":26859:27402   */\n    tag_519:\n        /* \"#utility.yul\":26960:26962   */\n      0x1f\n        /* \"#utility.yul\":26955:26958   */\n      dup3\n        /* \"#utility.yul\":26952:26963   */\n      gt\n        /* \"#utility.yul\":26949:27395   */\n      iszero\n      tag_817\n      jumpi\n        /* \"#utility.yul\":26994:27032   */\n      tag_818\n        /* \"#utility.yul\":27026:27031   */\n      dup2\n        /* \"#utility.yul\":26994:27032   */\n      tag_508\n      jump\t// in\n    tag_818:\n        /* \"#utility.yul\":27078:27107   */\n      tag_819\n        /* \"#utility.yul\":27096:27106   */\n      dup5\n        /* \"#utility.yul\":27078:27107   */\n      tag_510\n      jump\t// in\n    tag_819:\n        /* \"#utility.yul\":27068:27076   */\n      dup2\n        /* \"#utility.yul\":27064:27108   */\n      add\n        /* \"#utility.yul\":27261:27263   */\n      0x20\n        /* \"#utility.yul\":27249:27259   */\n      dup6\n        /* \"#utility.yul\":27246:27264   */\n      lt\n        /* \"#utility.yul\":27243:27292   */\n      iszero\n      tag_820\n      jumpi\n        /* \"#utility.yul\":27282:27290   */\n      dup2\n        /* \"#utility.yul\":27267:27290   */\n      swap1\n      pop\n        /* \"#utility.yul\":27243:27292   */\n    tag_820:\n        /* \"#utility.yul\":27305:27385   */\n      tag_821\n        /* \"#utility.yul\":27361:27383   */\n      tag_822\n        /* \"#utility.yul\":27379:27382   */\n      dup6\n        /* \"#utility.yul\":27361:27383   */\n      tag_510\n      jump\t// in\n    tag_822:\n        /* \"#utility.yul\":27351:27359   */\n      dup4\n        /* \"#utility.yul\":27347:27384   */\n      add\n        /* \"#utility.yul\":27334:27345   */\n      dup3\n        /* \"#utility.yul\":27305:27385   */\n      tag_518\n      jump\t// in\n    tag_821:\n        /* \"#utility.yul\":26964:27395   */\n      pop\n      pop\n        /* \"#utility.yul\":26949:27395   */\n    tag_817:\n        /* \"#utility.yul\":26859:27402   */\n      pop\n      pop\n      pop\n      jump\t// out\n        /* \"#utility.yul\":27408:27525   */\n    tag_520:\n        /* \"#utility.yul\":27462:27470   */\n      0x00\n        /* \"#utility.yul\":27512:27517   */\n      dup3\n        /* \"#utility.yul\":27506:27510   */\n      dup3\n        /* \"#utility.yul\":27502:27518   */\n      shr\n        /* \"#utility.yul\":27481:27518   */\n      swap1\n      pop\n        /* \"#utility.yul\":27408:27525   */\n      swap3\n      swap2\n      pop\n      pop\n      jump\t// out\n        /* \"#utility.yul\":27531:27700   */\n    tag_521:\n        /* \"#utility.yul\":27575:27581   */\n      0x00\n        /* \"#utility.yul\":27608:27659   */\n      tag_825\n        /* \"#utility.yul\":27656:27657   */\n      0x00\n        /* \"#utility.yul\":27652:27658   */\n      not\n        /* \"#utility.yul\":27644:27649   */\n      dup5\n        /* \"#utility.yul\":27641:27642   */\n      0x08\n        /* \"#utility.yul\":27637:27650   */\n      mul\n        /* \"#utility.yul\":27608:27659   */\n      tag_520\n      jump\t// in\n    tag_825:\n        /* \"#utility.yul\":27604:27660   */\n      not\n        /* \"#utility.yul\":27689:27693   */\n      dup1\n        /* \"#utility.yul\":27683:27687   */\n      dup4\n        /* \"#utility.yul\":27679:27694   */\n      and\n        /* \"#utility.yul\":27669:27694   */\n      swap2\n      pop\n        /* \"#utility.yul\":27582:27700   */\n      pop\n        /* \"#utility.yul\":27531:27700   */\n      swap3\n      swap2\n      pop\n      pop\n      jump\t// out\n        /* \"#utility.yul\":27705:28000   */\n    tag_522:\n        /* \"#utility.yul\":27781:27785   */\n      0x00\n        /* \"#utility.yul\":27927:27956   */\n      tag_827\n        /* \"#utility.yul\":27952:27955   */\n      dup4\n        /* \"#utility.yul\":27946:27950   */\n      dup4\n        /* \"#utility.yul\":27927:27956   */\n      tag_521\n      jump\t// in\n    tag_827:\n        /* \"#utility.yul\":27919:27956   */\n      swap2\n      pop\n        /* \"#utility.yul\":27989:27992   */\n      dup3\n        /* \"#utility.yul\":27986:27987   */\n      0x02\n        /* \"#utility.yul\":27982:27993   */\n      mul\n        /* \"#utility.yul\":27976:27980   */\n      dup3\n        /* \"#utility.yul\":27973:27994   */\n      or\n        /* \"#utility.yul\":27965:27994   */\n      swap1\n      pop\n        /* \"#utility.yul\":27705:28000   */\n      swap3\n      swap2\n      pop\n      pop\n      jump\t// out\n        /* \"#utility.yul\":28005:29400   */\n    tag_300:\n        /* \"#utility.yul\":28122:28159   */\n      tag_829\n        /* \"#utility.yul\":28155:28158   */\n      dup3\n        /* \"#utility.yul\":28122:28159   */\n      tag_471\n      jump\t// in\n    tag_829:\n        /* \"#utility.yul\":28224:28242   */\n      0xffffffffffffffff\n        /* \"#utility.yul\":28216:28222   */\n      dup2\n        /* \"#utility.yul\":28213:28243   */\n      gt\n        /* \"#utility.yul\":28210:28266   */\n      iszero\n      tag_830\n      jumpi\n        /* \"#utility.yul\":28246:28264   */\n      tag_831\n      tag_463\n      jump\t// in\n    tag_831:\n        /* \"#utility.yul\":28210:28266   */\n    tag_830:\n        /* \"#utility.yul\":28290:28328   */\n      tag_832\n        /* \"#utility.yul\":28322:28326   */\n      dup3\n        /* \"#utility.yul\":28316:28327   */\n      sload\n        /* \"#utility.yul\":28290:28328   */\n      tag_173\n      jump\t// in\n    tag_832:\n        /* \"#utility.yul\":28375:28442   */\n      tag_833\n        /* \"#utility.yul\":28435:28441   */\n      dup3\n        /* \"#utility.yul\":28427:28433   */\n      dup3\n        /* \"#utility.yul\":28421:28425   */\n      dup6\n        /* \"#utility.yul\":28375:28442   */\n      tag_519\n      jump\t// in\n    tag_833:\n        /* \"#utility.yul\":28469:28470   */\n      0x00\n        /* \"#utility.yul\":28493:28497   */\n      0x20\n        /* \"#utility.yul\":28480:28497   */\n      swap1\n      pop\n        /* \"#utility.yul\":28525:28527   */\n      0x1f\n        /* \"#utility.yul\":28517:28523   */\n      dup4\n        /* \"#utility.yul\":28514:28528   */\n      gt\n        /* \"#utility.yul\":28542:28543   */\n      0x01\n        /* \"#utility.yul\":28537:29155   */\n      dup2\n      eq\n      tag_835\n      jumpi\n        /* \"#utility.yul\":29199:29200   */\n      0x00\n        /* \"#utility.yul\":29216:29222   */\n      dup5\n        /* \"#utility.yul\":29213:29290   */\n      iszero\n      tag_836\n      jumpi\n        /* \"#utility.yul\":29265:29274   */\n      dup3\n        /* \"#utility.yul\":29260:29263   */\n      dup8\n        /* \"#utility.yul\":29256:29275   */\n      add\n        /* \"#utility.yul\":29250:29276   */\n      mload\n        /* \"#utility.yul\":29241:29276   */\n      swap1\n      pop\n        /* \"#utility.yul\":29213:29290   */\n    tag_836:\n        /* \"#utility.yul\":29316:29383   */\n      tag_837\n        /* \"#utility.yul\":29376:29382   */\n      dup6\n        /* \"#utility.yul\":29369:29374   */\n      dup3\n        /* \"#utility.yul\":29316:29383   */\n      tag_522\n      jump\t// in\n    tag_837:\n        /* \"#utility.yul\":29310:29314   */\n      dup7\n        /* \"#utility.yul\":29303:29384   */\n      sstore\n        /* \"#utility.yul\":29172:29394   */\n      pop\n        /* \"#utility.yul\":28507:29394   */\n      jump(tag_834)\n        /* \"#utility.yul\":28537:29155   */\n    tag_835:\n        /* \"#utility.yul\":28589:28593   */\n      0x1f\n        /* \"#utility.yul\":28585:28594   */\n      not\n        /* \"#utility.yul\":28577:28583   */\n      dup5\n        /* \"#utility.yul\":28573:28595   */\n      and\n        /* \"#utility.yul\":28623:28660   */\n      tag_838\n        /* \"#utility.yul\":28655:28659   */\n      dup7\n        /* \"#utility.yul\":28623:28660   */\n      tag_508\n      jump\t// in\n    tag_838:\n        /* \"#utility.yul\":28682:28683   */\n      0x00\n        /* \"#utility.yul\":28696:28904   */\n    tag_839:\n        /* \"#utility.yul\":28710:28717   */\n      dup3\n        /* \"#utility.yul\":28707:28708   */\n      dup2\n        /* \"#utility.yul\":28704:28718   */\n      lt\n        /* \"#utility.yul\":28696:28904   */\n      iszero\n      tag_841\n      jumpi\n        /* \"#utility.yul\":28789:28798   */\n      dup5\n        /* \"#utility.yul\":28784:28787   */\n      dup10\n        /* \"#utility.yul\":28780:28799   */\n      add\n        /* \"#utility.yul\":28774:28800   */\n      mload\n        /* \"#utility.yul\":28766:28772   */\n      dup3\n        /* \"#utility.yul\":28759:28801   */\n      sstore\n        /* \"#utility.yul\":28840:28841   */\n      0x01\n        /* \"#utility.yul\":28832:28838   */\n      dup3\n        /* \"#utility.yul\":28828:28842   */\n      add\n        /* \"#utility.yul\":28818:28842   */\n      swap2\n      pop\n        /* \"#utility.yul\":28887:28889   */\n      0x20\n        /* \"#utility.yul\":28876:28885   */\n      dup6\n        /* \"#utility.yul\":28872:28890   */\n      add\n        /* \"#utility.yul\":28859:28890   */\n      swap5\n      pop\n        /* \"#utility.yul\":28733:28737   */\n      0x20\n        /* \"#utility.yul\":28730:28731   */\n      dup2\n        /* \"#utility.yul\":28726:28738   */\n      add\n        /* \"#utility.yul\":28721:28738   */\n      swap1\n      pop\n        /* \"#utility.yul\":28696:28904   */\n      jump(tag_839)\n    tag_841:\n        /* \"#utility.yul\":28932:28938   */\n      dup7\n        /* \"#utility.yul\":28923:28930   */\n      dup4\n        /* \"#utility.yul\":28920:28939   */\n      lt\n        /* \"#utility.yul\":28917:29096   */\n      iszero\n      tag_842\n      jumpi\n        /* \"#utility.yul\":28990:28999   */\n      dup5\n        /* \"#utility.yul\":28985:28988   */\n      dup10\n        /* \"#utility.yul\":28981:29000   */\n      add\n        /* \"#utility.yul\":28975:29001   */\n      mload\n        /* \"#utility.yul\":29033:29081   */\n      tag_843\n        /* \"#utility.yul\":29075:29079   */\n      0x1f\n        /* \"#utility.yul\":29067:29073   */\n      dup10\n        /* \"#utility.yul\":29063:29080   */\n      and\n        /* \"#utility.yul\":29052:29061   */\n      dup3\n        /* \"#utility.yul\":29033:29081   */\n      tag_521\n      jump\t// in\n    tag_843:\n        /* \"#utility.yul\":29025:29031   */\n      dup4\n        /* \"#utility.yul\":29018:29082   */\n      sstore\n        /* \"#utility.yul\":28940:29096   */\n      pop\n        /* \"#utility.yul\":28917:29096   */\n    tag_842:\n        /* \"#utility.yul\":29142:29143   */\n      0x01\n        /* \"#utility.yul\":29138:29139   */\n      0x02\n        /* \"#utility.yul\":29130:29136   */\n      dup9\n        /* \"#utility.yul\":29126:29140   */\n      mul\n        /* \"#utility.yul\":29122:29144   */\n      add\n        /* \"#utility.yul\":29116:29120   */\n      dup9\n        /* \"#utility.yul\":29109:29145   */\n      sstore\n        /* \"#utility.yul\":28544:29155   */\n      pop\n      pop\n      pop\n        /* \"#utility.yul\":28507:29394   */\n    tag_834:\n      pop\n        /* \"#utility.yul\":28097:29400   */\n      pop\n      pop\n      pop\n        /* \"#utility.yul\":28005:29400   */\n      pop\n      pop\n      jump\t// out\n        /* \"#utility.yul\":29406:30030   */\n    tag_305:\n        /* \"#utility.yul\":29595:29599   */\n      0x00\n        /* \"#utility.yul\":29633:29635   */\n      0x60\n        /* \"#utility.yul\":29622:29631   */\n      dup3\n        /* \"#utility.yul\":29618:29636   */\n      add\n        /* \"#utility.yul\":29610:29636   */\n      swap1\n      pop\n        /* \"#utility.yul\":29646:29717   */\n      tag_845\n        /* \"#utility.yul\":29714:29715   */\n      0x00\n        /* \"#utility.yul\":29703:29712   */\n      dup4\n        /* \"#utility.yul\":29699:29716   */\n      add\n        /* \"#utility.yul\":29690:29696   */\n      dup7\n        /* \"#utility.yul\":29646:29717   */\n      tag_470\n      jump\t// in\n    tag_845:\n        /* \"#utility.yul\":29764:29773   */\n      dup2\n        /* \"#utility.yul\":29758:29762   */\n      dup2\n        /* \"#utility.yul\":29754:29774   */\n      sub\n        /* \"#utility.yul\":29749:29751   */\n      0x20\n        /* \"#utility.yul\":29738:29747   */\n      dup4\n        /* \"#utility.yul\":29734:29752   */\n      add\n        /* \"#utility.yul\":29727:29775   */\n      mstore\n        /* \"#utility.yul\":29792:29870   */\n      tag_846\n        /* \"#utility.yul\":29865:29869   */\n      dup2\n        /* \"#utility.yul\":29856:29862   */\n      dup6\n        /* \"#utility.yul\":29792:29870   */\n      tag_474\n      jump\t// in\n    tag_846:\n        /* \"#utility.yul\":29784:29870   */\n      swap1\n      pop\n        /* \"#utility.yul\":29917:29926   */\n      dup2\n        /* \"#utility.yul\":29911:29915   */\n      dup2\n        /* \"#utility.yul\":29907:29927   */\n      sub\n        /* \"#utility.yul\":29902:29904   */\n      0x40\n        /* \"#utility.yul\":29891:29900   */\n      dup4\n        /* \"#utility.yul\":29887:29905   */\n      add\n        /* \"#utility.yul\":29880:29928   */\n      mstore\n        /* \"#utility.yul\":29945:30023   */\n      tag_847\n        /* \"#utility.yul\":30018:30022   */\n      dup2\n        /* \"#utility.yul\":30009:30015   */\n      dup5\n        /* \"#utility.yul\":29945:30023   */\n      tag_474\n      jump\t// in\n    tag_847:\n        /* \"#utility.yul\":29937:30023   */\n      swap1\n      pop\n        /* \"#utility.yul\":29406:30030   */\n      swap5\n      swap4\n      pop\n      pop\n      pop\n      pop\n      jump\t// out\n        /* \"#utility.yul\":30036:30258   */\n    tag_339:\n        /* \"#utility.yul\":30129:30133   */\n      0x00\n        /* \"#utility.yul\":30167:30169   */\n      0x20\n        /* \"#utility.yul\":30156:30165   */\n      dup3\n        /* \"#utility.yul\":30152:30170   */\n      add\n        /* \"#utility.yul\":30144:30170   */\n      swap1\n      pop\n        /* \"#utility.yul\":30180:30251   */\n      tag_849\n        /* \"#utility.yul\":30248:30249   */\n      0x00\n        /* \"#utility.yul\":30237:30246   */\n      dup4\n        /* \"#utility.yul\":30233:30250   */\n      add\n        /* \"#utility.yul\":30224:30230   */\n      dup5\n        /* \"#utility.yul\":30180:30251   */\n      tag_470\n      jump\t// in\n    tag_849:\n        /* \"#utility.yul\":30036:30258   */\n      swap3\n      swap2\n      pop\n      pop\n      jump\t// out\n        /* \"#utility.yul\":30264:30407   */\n    tag_523:\n        /* \"#utility.yul\":30321:30326   */\n      0x00\n        /* \"#utility.yul\":30352:30358   */\n      dup2\n        /* \"#utility.yul\":30346:30359   */\n      mload\n        /* \"#utility.yul\":30337:30359   */\n      swap1\n      pop\n        /* \"#utility.yul\":30368:30401   */\n      tag_851\n        /* \"#utility.yul\":30395:30400   */\n      dup2\n        /* \"#utility.yul\":30368:30401   */\n      tag_453\n      jump\t// in\n    tag_851:\n        /* \"#utility.yul\":30264:30407   */\n      swap3\n      swap2\n      pop\n      pop\n      jump\t// out\n        /* \"#utility.yul\":30413:30764   */\n    tag_351:\n        /* \"#utility.yul\":30483:30489   */\n      0x00\n        /* \"#utility.yul\":30532:30534   */\n      0x20\n        /* \"#utility.yul\":30520:30529   */\n      dup3\n        /* \"#utility.yul\":30511:30518   */\n      dup5\n        /* \"#utility.yul\":30507:30530   */\n      sub\n        /* \"#utility.yul\":30503:30535   */\n      slt\n        /* \"#utility.yul\":30500:30619   */\n      iszero\n      tag_853\n      jumpi\n        /* \"#utility.yul\":30538:30617   */\n      tag_854\n      tag_445\n      jump\t// in\n    tag_854:\n        /* \"#utility.yul\":30500:30619   */\n    tag_853:\n        /* \"#utility.yul\":30658:30659   */\n      0x00\n        /* \"#utility.yul\":30683:30747   */\n      tag_855\n        /* \"#utility.yul\":30739:30746   */\n      dup5\n        /* \"#utility.yul\":30730:30736   */\n      dup3\n        /* \"#utility.yul\":30719:30728   */\n      dup6\n        /* \"#utility.yul\":30715:30737   */\n      add\n        /* \"#utility.yul\":30683:30747   */\n      tag_523\n      jump\t// in\n    tag_855:\n        /* \"#utility.yul\":30673:30747   */\n      swap2\n      pop\n        /* \"#utility.yul\":30629:30757   */\n      pop\n        /* \"#utility.yul\":30413:30764   */\n      swap3\n      swap2\n      pop\n      pop\n      jump\t// out\n        /* \"#utility.yul\":30770:31102   */\n    tag_389:\n        /* \"#utility.yul\":30891:30895   */\n      0x00\n        /* \"#utility.yul\":30929:30931   */\n      0x40\n        /* \"#utility.yul\":30918:30927   */\n      dup3\n        /* \"#utility.yul\":30914:30932   */\n      add\n        /* \"#utility.yul\":30906:30932   */\n      swap1\n      pop\n        /* \"#utility.yul\":30942:31013   */\n      tag_857\n        /* \"#utility.yul\":31010:31011   */\n      0x00\n        /* \"#utility.yul\":30999:31008   */\n      dup4\n        /* \"#utility.yul\":30995:31012   */\n      add\n        /* \"#utility.yul\":30986:30992   */\n      dup6\n        /* \"#utility.yul\":30942:31013   */\n      tag_470\n      jump\t// in\n    tag_857:\n        /* \"#utility.yul\":31023:31095   */\n      tag_858\n        /* \"#utility.yul\":31091:31093   */\n      0x20\n        /* \"#utility.yul\":31080:31089   */\n      dup4\n        /* \"#utility.yul\":31076:31094   */\n      add\n        /* \"#utility.yul\":31067:31073   */\n      dup5\n        /* \"#utility.yul\":31023:31095   */\n      tag_455\n      jump\t// in\n    tag_858:\n        /* \"#utility.yul\":30770:31102   */\n      swap4\n      swap3\n      pop\n      pop\n      pop\n      jump\t// out\n        /* \"#utility.yul\":31108:31206   */\n    tag_524:\n        /* \"#utility.yul\":31159:31165   */\n      0x00\n        /* \"#utility.yul\":31193:31198   */\n      dup2\n        /* \"#utility.yul\":31187:31199   */\n      mload\n        /* \"#utility.yul\":31177:31199   */\n      swap1\n      pop\n        /* \"#utility.yul\":31108:31206   */\n      swap2\n      swap1\n      pop\n      jump\t// out\n        /* \"#utility.yul\":31212:31359   */\n    tag_525:\n        /* \"#utility.yul\":31313:31324   */\n      0x00\n        /* \"#utility.yul\":31350:31353   */\n      dup2\n        /* \"#utility.yul\":31335:31353   */\n      swap1\n      pop\n        /* \"#utility.yul\":31212:31359   */\n      swap3\n      swap2\n      pop\n      pop\n      jump\t// out\n        /* \"#utility.yul\":31365:31751   */\n    tag_526:\n        /* \"#utility.yul\":31469:31472   */\n      0x00\n        /* \"#utility.yul\":31497:31535   */\n      tag_862\n        /* \"#utility.yul\":31529:31534   */\n      dup3\n        /* \"#utility.yul\":31497:31535   */\n      tag_524\n      jump\t// in\n    tag_862:\n        /* \"#utility.yul\":31551:31639   */\n      tag_863\n        /* \"#utility.yul\":31632:31638   */\n      dup2\n        /* \"#utility.yul\":31627:31630   */\n      dup6\n        /* \"#utility.yul\":31551:31639   */\n      tag_525\n      jump\t// in\n    tag_863:\n        /* \"#utility.yul\":31544:31639   */\n      swap4\n      pop\n        /* \"#utility.yul\":31648:31713   */\n      tag_864\n        /* \"#utility.yul\":31706:31712   */\n      dup2\n        /* \"#utility.yul\":31701:31704   */\n      dup6\n        /* \"#utility.yul\":31694:31698   */\n      0x20\n        /* \"#utility.yul\":31687:31692   */\n      dup7\n        /* \"#utility.yul\":31683:31699   */\n      add\n        /* \"#utility.yul\":31648:31713   */\n      tag_473\n      jump\t// in\n    tag_864:\n        /* \"#utility.yul\":31738:31744   */\n      dup1\n        /* \"#utility.yul\":31733:31736   */\n      dup5\n        /* \"#utility.yul\":31729:31745   */\n      add\n        /* \"#utility.yul\":31722:31745   */\n      swap2\n      pop\n        /* \"#utility.yul\":31473:31751   */\n      pop\n        /* \"#utility.yul\":31365:31751   */\n      swap3\n      swap2\n      pop\n      pop\n      jump\t// out\n        /* \"#utility.yul\":31757:32028   */\n    tag_423:\n        /* \"#utility.yul\":31887:31890   */\n      0x00\n        /* \"#utility.yul\":31909:32002   */\n      tag_866\n        /* \"#utility.yul\":31998:32001   */\n      dup3\n        /* \"#utility.yul\":31989:31995   */\n      dup5\n        /* \"#utility.yul\":31909:32002   */\n      tag_526\n      jump\t// in\n    tag_866:\n        /* \"#utility.yul\":31902:32002   */\n      swap2\n      pop\n        /* \"#utility.yul\":32019:32022   */\n      dup2\n        /* \"#utility.yul\":32012:32022   */\n      swap1\n      pop\n        /* \"#utility.yul\":31757:32028   */\n      swap3\n      swap2\n      pop\n      pop\n      jump\t// out\n\n    auxdata: 0xa26469706673582212206e58a25d3621642b7ae5b604f2cda4e990bf4c3aaf2923f7bb629189c96ccb3f64736f6c63430008180033\n}\n",
				"bytecode": {
					"linkReferences": {},
					"object": "60a06040523073ffffffffffffffffffffffffffffffffffffffff1660809073ffffffffffffffffffffffffffffffffffffffff1681525034801562000043575f80fd5b50620000546200005a60201b60201c565b620001c4565b5f6200006b6200015e60201b60201c565b9050805f0160089054906101000a900460ff1615620000b6576040517ff92ee8a900000000000000000000000000000000000000000000000000000000815260040160405180910390fd5b67ffffffffffffffff8016815f015f9054906101000a900467ffffffffffffffff1667ffffffffffffffff16146200015b5767ffffffffffffffff815f015f6101000a81548167ffffffffffffffff021916908367ffffffffffffffff1602179055507fc7f505b2f371ae2175ee4913f4499e1f2633a7b5936321eed1cdaeb6115181d267ffffffffffffffff604051620001529190620001a9565b60405180910390a15b50565b5f7ff0c57e16840df040f15088dc2f81fe391c3923bec73e23a9662efc9c229c6a00905090565b5f67ffffffffffffffff82169050919050565b620001a38162000185565b82525050565b5f602082019050620001be5f83018462000198565b92915050565b6080516132b0620001eb5f395f81816119ee01528181611a430152611c2001526132b05ff3fe608060405260043610610165575f3560e01c80638456cb59116100d0578063c78b432e11610089578063e63ab1e911610063578063e63ab1e9146104ce578063ec11c4e9146104f8578063f72c0d8b14610520578063ff52c4841461054a57610165565b8063c78b432e14610468578063d547741f1461047e578063df2d0728146104a657610165565b80638456cb5914610372578063858f0e931461038857806391d14854146103b0578063a217fddf146103ec578063ad3cb1cc14610416578063c0c53b8b1461044057610165565b80634f1ef286116101225780634f1ef2861461028a57806352d1902d146102a65780635c975abb146102d05780636ba63956146102fa578063729d581c1461032257806379648ed31461034a57610165565b806301ffc9a714610169578063248a9ca3146101a55780632f2ff15d146101e157806336568abe146102095780633f4ba83a1461023157806347a0410014610247575b5f80fd5b348015610174575f80fd5b5061018f600480360381019061018a9190612272565b610586565b60405161019c91906122b7565b60405180910390f35b3480156101b0575f80fd5b506101cb60048036038101906101c69190612303565b6105ff565b6040516101d8919061233d565b60405180910390f35b3480156101ec575f80fd5b50610207600480360381019061020291906123b0565b610629565b005b348015610214575f80fd5b5061022f600480360381019061022a91906123b0565b61064b565b005b34801561023c575f80fd5b506102456106c6565b005b348015610252575f80fd5b5061026d6004803603810190610268919061252a565b6106fb565b604051610281989796959493929190612612565b60405180910390f35b6102a4600480360381019061029f919061273a565b6108b9565b005b3480156102b1575f80fd5b506102ba6108d8565b6040516102c7919061233d565b60405180910390f35b3480156102db575f80fd5b506102e4610909565b6040516102f191906122b7565b60405180910390f35b348015610305575f80fd5b50610320600480360381019061031b91906127be565b61092b565b005b34801561032d575f80fd5b5061034860048036038101906103439190612818565b610b22565b005b348015610355575f80fd5b50610370600480360381019061036b9190612818565b610c5c565b005b34801561037d575f80fd5b50610386610d97565b005b348015610393575f80fd5b506103ae60048036038101906103a99190612872565b610dcc565b005b3480156103bb575f80fd5b506103d660048036038101906103d191906123b0565b610f19565b6040516103e391906122b7565b60405180910390f35b3480156103f7575f80fd5b50610400610f8a565b60405161040d919061233d565b60405180910390f35b348015610421575f80fd5b5061042a610f90565b6040516104379190612921565b60405180910390f35b34801561044b575f80fd5b5061046660048036038101906104619190612941565b610fc9565b005b348015610473575f80fd5b5061047c6111be565b005b348015610489575f80fd5b506104a4600480360381019061049f91906123b0565b6113a0565b005b3480156104b1575f80fd5b506104cc60048036038101906104c791906129ee565b6113c2565b005b3480156104d9575f80fd5b506104e26113c6565b6040516104ef919061233d565b60405180910390f35b348015610503575f80fd5b5061051e60048036038101906105199190612872565b6113ea565b005b34801561052b575f80fd5b50610534611619565b604051610541919061233d565b60405180910390f35b348015610555575f80fd5b50610570600480360381019061056b9190612a2c565b61163d565b60405161057d9190612921565b60405180910390f35b5f7f7965db0b000000000000000000000000000000000000000000000000000000007bffffffffffffffffffffffffffffffffffffffffffffffffffffffff1916827bffffffffffffffffffffffffffffffffffffffffffffffffffffffff191614806105f857506105f7826116e3565b5b9050919050565b5f8061060961174c565b9050805f015f8481526020019081526020015f2060010154915050919050565b610632826105ff565b61063b81611773565b6106458383611787565b50505050565b61065361187f565b73ffffffffffffffffffffffffffffffffffffffff168173ffffffffffffffffffffffffffffffffffffffff16146106b7576040517f6697b23200000000000000000000000000000000000000000000000000000000815260040160405180910390fd5b6106c18282611886565b505050565b7f65d7a28e3265b37a6474929f336521b332c1681b933f6cb9f3376673440d862a6106f081611773565b6106f861197e565b50565b5f818051602081018201805184825260208301602085012081835280955050505050505f91509050805f015f9054906101000a900473ffffffffffffffffffffffffffffffffffffffff1690806001015f9054906101000a900473ffffffffffffffffffffffffffffffffffffffff169080600201805461077b90612a84565b80601f01602080910402602001604051908101604052809291908181526020018280546107a790612a84565b80156107f25780601f106107c9576101008083540402835291602001916107f2565b820191905f5260205f20905b8154815290600101906020018083116107d557829003601f168201915b50505050509080600301549080600401549080600501805461081390612a84565b80601f016020809104026020016040519081016040528092919081815260200182805461083f90612a84565b801561088a5780601f106108615761010080835404028352916020019161088a565b820191905f5260205f20905b81548152906001019060200180831161086d57829003601f168201915b505050505090806006015f9054906101000a900460ff16908060060160019054906101000a900460ff16905088565b6108c16119ec565b6108ca82611ad2565b6108d48282611b00565b5050565b5f6108e1611c1e565b7f360894a13ba1a3210667c828492db98dca3e2076cc3735a920a3ca505d382bbc5f1b905090565b5f80610913611ca5565b9050805f015f9054906101000a900460ff1691505090565b5f60018054905011610972576040517f08c379a000000000000000000000000000000000000000000000000000000000815260040161096990612afe565b60405180910390fd5b5f60018080805490506109859190612b49565b8154811061099657610995612b7c565b5b905f5260205f200180546109a990612a84565b80601f01602080910402602001604051908101604052809291908181526020018280546109d590612a84565b8015610a205780601f106109f757610100808354040283529160200191610a20565b820191905f5260205f20905b815481529060010190602001808311610a0357829003601f168201915b505050505090505f81604051610a369190612be3565b90815260200160405180910390206006015f9054906101000a900460ff16610a93576040517f08c379a0000000000000000000000000000000000000000000000000000000008152600401610a8a90612c43565b60405180910390fd5b60015f82604051610aa49190612be3565b908152602001604051809103902060060160016101000a81548160ff021916908315150217905550825f82604051610adc9190612be3565b9081526020016040518091039020600401819055507f4145167a2ecc3424513c83e72c2d0e4a94f423754b82af0bdeaf9fd0f7a174b760405160405180910390a1505050565b3373ffffffffffffffffffffffffffffffffffffffff165f83604051610b489190612be3565b90815260200160405180910390205f015f9054906101000a900473ffffffffffffffffffffffffffffffffffffffff1673ffffffffffffffffffffffffffffffffffffffff1614610bce576040517f08c379a0000000000000000000000000000000000000000000000000000000008152600401610bc590612cab565b60405180910390fd5b60015f83604051610bdf9190612be3565b908152602001604051809103902060060160016101000a81548160ff021916908315150217905550805f83604051610c179190612be3565b9081526020016040518091039020600401819055507f4145167a2ecc3424513c83e72c2d0e4a94f423754b82af0bdeaf9fd0f7a174b760405160405180910390a15050565b3373ffffffffffffffffffffffffffffffffffffffff165f83604051610c829190612be3565b90815260200160405180910390206001015f9054906101000a900473ffffffffffffffffffffffffffffffffffffffff1673ffffffffffffffffffffffffffffffffffffffff1614610d09576040517f08c379a0000000000000000000000000000000000000000000000000000000008152600401610d0090612d13565b60405180910390fd5b60015f83604051610d1a9190612be3565b908152602001604051809103902060060160016101000a81548160ff021916908315150217905550805f83604051610d529190612be3565b9081526020016040518091039020600401819055507f4145167a2ecc3424513c83e72c2d0e4a94f423754b82af0bdeaf9fd0f7a174b760405160405180910390a15050565b7f65d7a28e3265b37a6474929f336521b332c1681b933f6cb9f3376673440d862a610dc181611773565b610dc9611ccc565b50565b5f848442604051602001610de293929190612d71565b60405160208183030381529060405290503373ffffffffffffffffffffffffffffffffffffffff165f82604051610e199190612be3565b90815260200160405180910390206001015f9054906101000a900473ffffffffffffffffffffffffffffffffffffffff1673ffffffffffffffffffffffffffffffffffffffff1614610ea0576040517f08c379a0000000000000000000000000000000000000000000000000000000008152600401610e9790612d13565b60405180910390fd5b60015f82604051610eb19190612be3565b90815260200160405180910390206006015f6101000a81548160ff0219169083151502179055507f02f9110550f3374364c85539074b740b7bfed285798d152502c5f2dfd745cf003382604051610f09929190612da9565b60405180910390a1505050505050565b5f80610f2361174c565b9050805f015f8581526020019081526020015f205f015f8473ffffffffffffffffffffffffffffffffffffffff1673ffffffffffffffffffffffffffffffffffffffff1681526020019081526020015f205f9054906101000a900460ff1691505092915050565b5f801b81565b6040518060400160405280600581526020017f352e302e3000000000000000000000000000000000000000000000000000000081525081565b5f610fd2611d3b565b90505f815f0160089054906101000a900460ff161590505f825f015f9054906101000a900467ffffffffffffffff1690505f808267ffffffffffffffff1614801561101a5750825b90505f60018367ffffffffffffffff1614801561104d57505f3073ffffffffffffffffffffffffffffffffffffffff163b145b90508115801561105b575080155b15611092576040517ff92ee8a900000000000000000000000000000000000000000000000000000000815260040160405180910390fd5b6001855f015f6101000a81548167ffffffffffffffff021916908367ffffffffffffffff16021790555083156110df576001855f0160086101000a81548160ff0219169083151502179055505b6110e7611d62565b6110ef611d74565b6110f7611d7e565b6111035f801b89611787565b5061112e7f65d7a28e3265b37a6474929f336521b332c1681b933f6cb9f3376673440d862a88611787565b506111597f189ab7a9244df0848122154315af71fe140f3db0fe014031783b0946b8c9d2e387611787565b5083156111b4575f855f0160086101000a81548160ff0219169083151502179055507fc7f505b2f371ae2175ee4913f4499e1f2633a7b5936321eed1cdaeb6115181d260016040516111ab9190612e2c565b60405180910390a15b5050505050505050565b5f60018054905011611205576040517f08c379a00000000000000000000000000000000000000000000000000000000081526004016111fc90612afe565b60405180910390fd5b5f60018080805490506112189190612b49565b8154811061122957611228612b7c565b5b905f5260205f2001805461123c90612a84565b80601f016020809104026020016040519081016040528092919081815260200182805461126890612a84565b80156112b35780601f1061128a576101008083540402835291602001916112b3565b820191905f5260205f20905b81548152906001019060200180831161129657829003601f168201915b505050505090505f816040516112c99190612be3565b90815260200160405180910390206006015f9054906101000a900460ff16611326576040517f08c379a000000000000000000000000000000000000000000000000000000000815260040161131d90612c43565b60405180910390fd5b7ff31a94b3b4c854e5a4adea9f6082ab58856d3750c9a0182c2d9641bda7c09fc55f826040516113569190612be3565b90815260200160405180910390206002015f836040516113769190612be3565b9081526020016040518091039020600501604051611395929190612ed8565b60405180910390a150565b6113a9826105ff565b6113b281611773565b6113bc8383611886565b50505050565b5050565b7f65d7a28e3265b37a6474929f336521b332c1681b933f6cb9f3376673440d862a81565b5f84844260405160200161140093929190612d71565b60405160208183030381529060405290506040518061010001604052803373ffffffffffffffffffffffffffffffffffffffff1681526020018773ffffffffffffffffffffffffffffffffffffffff1681526020018681526020018581526020018481526020018381526020015f151581526020015f15158152505f8260405161148a9190612be3565b90815260200160405180910390205f820151815f015f6101000a81548173ffffffffffffffffffffffffffffffffffffffff021916908373ffffffffffffffffffffffffffffffffffffffff1602179055506020820151816001015f6101000a81548173ffffffffffffffffffffffffffffffffffffffff021916908373ffffffffffffffffffffffffffffffffffffffff1602179055506040820151816002019081611537919061308f565b50606082015181600301556080820151816004015560a0820151816005019081611561919061308f565b5060c0820151816006015f6101000a81548160ff02191690831515021790555060e08201518160060160016101000a81548160ff021916908315150217905550905050600181908060018154018082558091505060019003905f5260205f20015f9091909190915090816115d5919061308f565b507f7511eeca77b6245674aa0ed9cfc29c93005ca6c461f25ca4dcbb0fdb80e003c93382876040516116099392919061315e565b60405180910390a1505050505050565b7f189ab7a9244df0848122154315af71fe140f3db0fe014031783b0946b8c9d2e381565b6001818154811061164c575f80fd5b905f5260205f20015f91509050805461166490612a84565b80601f016020809104026020016040519081016040528092919081815260200182805461169090612a84565b80156116db5780601f106116b2576101008083540402835291602001916116db565b820191905f5260205f20905b8154815290600101906020018083116116be57829003601f168201915b505050505081565b5f7f01ffc9a7000000000000000000000000000000000000000000000000000000007bffffffffffffffffffffffffffffffffffffffffffffffffffffffff1916827bffffffffffffffffffffffffffffffffffffffffffffffffffffffff1916149050919050565b5f7f02dd7bc7dec4dceedda775e58dd541e08a116c6c53815c0bd028192f7b626800905090565b6117848161177f61187f565b611d88565b50565b5f8061179161174c565b905061179d8484610f19565b611874576001815f015f8681526020019081526020015f205f015f8573ffffffffffffffffffffffffffffffffffffffff1673ffffffffffffffffffffffffffffffffffffffff1681526020019081526020015f205f6101000a81548160ff02191690831515021790555061181061187f565b73ffffffffffffffffffffffffffffffffffffffff168373ffffffffffffffffffffffffffffffffffffffff16857f2f8788117e7eff1d82e926ec794901d17c78024a50270940304540a733656f0d60405160405180910390a46001915050611879565b5f9150505b92915050565b5f33905090565b5f8061189061174c565b905061189c8484610f19565b15611973575f815f015f8681526020019081526020015f205f015f8573ffffffffffffffffffffffffffffffffffffffff1673ffffffffffffffffffffffffffffffffffffffff1681526020019081526020015f205f6101000a81548160ff02191690831515021790555061190f61187f565b73ffffffffffffffffffffffffffffffffffffffff168373ffffffffffffffffffffffffffffffffffffffff16857ff6391f5c32d9c69d2a47ea670b442974b53935d1edc7fd64eb21e047a839171b60405160405180910390a46001915050611978565b5f9150505b92915050565b611986611dd9565b5f61198f611ca5565b90505f815f015f6101000a81548160ff0219169083151502179055507f5db9ee0a495bf2e6ff9c91a7834c1ba4fdd244a5e8aa4e537bd38aeae4b073aa6119d461187f565b6040516119e191906131a1565b60405180910390a150565b7f000000000000000000000000000000000000000000000000000000000000000073ffffffffffffffffffffffffffffffffffffffff163073ffffffffffffffffffffffffffffffffffffffff161480611a9957507f000000000000000000000000000000000000000000000000000000000000000073ffffffffffffffffffffffffffffffffffffffff16611a80611e19565b73ffffffffffffffffffffffffffffffffffffffff1614155b15611ad0576040517fe07c8dba00000000000000000000000000000000000000000000000000000000815260040160405180910390fd5b565b7f189ab7a9244df0848122154315af71fe140f3db0fe014031783b0946b8c9d2e3611afc81611773565b5050565b8173ffffffffffffffffffffffffffffffffffffffff166352d1902d6040518163ffffffff1660e01b8152600401602060405180830381865afa925050508015611b6857506040513d601f19601f82011682018060405250810190611b6591906131ce565b60015b611ba957816040517f4c9c8ce3000000000000000000000000000000000000000000000000000000008152600401611ba091906131a1565b60405180910390fd5b7f360894a13ba1a3210667c828492db98dca3e2076cc3735a920a3ca505d382bbc5f1b8114611c0f57806040517faa1d49a4000000000000000000000000000000000000000000000000000000008152600401611c06919061233d565b60405180910390fd5b611c198383611e6c565b505050565b7f000000000000000000000000000000000000000000000000000000000000000073ffffffffffffffffffffffffffffffffffffffff163073ffffffffffffffffffffffffffffffffffffffff1614611ca3576040517fe07c8dba00000000000000000000000000000000000000000000000000000000815260040160405180910390fd5b565b5f7fcd5ed15c6e187e77e9aee88184c21f4f2182ab5827cb3b7e07fbedcd63f03300905090565b611cd4611ede565b5f611cdd611ca5565b90506001815f015f6101000a81548160ff0219169083151502179055507f62e78cea01bee320cd4e420270b5ea74000d11b0c9f74754ebdbfc544b05a258611d2361187f565b604051611d3091906131a1565b60405180910390a150565b5f7ff0c57e16840df040f15088dc2f81fe391c3923bec73e23a9662efc9c229c6a00905090565b611d6a611f1f565b611d72611f5f565b565b611d7c611f1f565b565b611d86611f1f565b565b611d928282610f19565b611dd55780826040517fe2517d3f000000000000000000000000000000000000000000000000000000008152600401611dcc9291906131f9565b60405180910390fd5b5050565b611de1610909565b611e17576040517f8dfc202b00000000000000000000000000000000000000000000000000000000815260040160405180910390fd5b565b5f611e457f360894a13ba1a3210667c828492db98dca3e2076cc3735a920a3ca505d382bbc5f1b611f8f565b5f015f9054906101000a900473ffffffffffffffffffffffffffffffffffffffff16905090565b611e7582611f98565b8173ffffffffffffffffffffffffffffffffffffffff167fbc7cd75a20ee27fd9adebab32041f755214dbc6bffa90cc0225b39da2e5c2d3b60405160405180910390a25f81511115611ed157611ecb8282612061565b50611eda565b611ed96120e1565b5b5050565b611ee6610909565b15611f1d576040517fd93c066500000000000000000000000000000000000000000000000000000000815260040160405180910390fd5b565b611f2761211d565b611f5d576040517fd7e6bcf800000000000000000000000000000000000000000000000000000000815260040160405180910390fd5b565b611f67611f1f565b5f611f70611ca5565b90505f815f015f6101000a81548160ff02191690831515021790555050565b5f819050919050565b5f8173ffffffffffffffffffffffffffffffffffffffff163b03611ff357806040517f4c9c8ce3000000000000000000000000000000000000000000000000000000008152600401611fea91906131a1565b60405180910390fd5b8061201f7f360894a13ba1a3210667c828492db98dca3e2076cc3735a920a3ca505d382bbc5f1b611f8f565b5f015f6101000a81548173ffffffffffffffffffffffffffffffffffffffff021916908373ffffffffffffffffffffffffffffffffffffffff16021790555050565b60605f808473ffffffffffffffffffffffffffffffffffffffff168460405161208a9190613264565b5f60405180830381855af49150503d805f81146120c2576040519150601f19603f3d011682016040523d82523d5f602084013e6120c7565b606091505b50915091506120d785838361213b565b9250505092915050565b5f34111561211b576040517fb398979f00000000000000000000000000000000000000000000000000000000815260040160405180910390fd5b565b5f612126611d3b565b5f0160089054906101000a900460ff16905090565b6060826121505761214b826121c8565b6121c0565b5f825114801561217657505f8473ffffffffffffffffffffffffffffffffffffffff163b145b156121b857836040517f9996b3150000000000000000000000000000000000000000000000000000000081526004016121af91906131a1565b60405180910390fd5b8190506121c1565b5b9392505050565b5f815111156121da5780518082602001fd5b6040517f1425ea4200000000000000000000000000000000000000000000000000000000815260040160405180910390fd5b5f604051905090565b5f80fd5b5f80fd5b5f7fffffffff0000000000000000000000000000000000000000000000000000000082169050919050565b6122518161221d565b811461225b575f80fd5b50565b5f8135905061226c81612248565b92915050565b5f6020828403121561228757612286612215565b5b5f6122948482850161225e565b91505092915050565b5f8115159050919050565b6122b18161229d565b82525050565b5f6020820190506122ca5f8301846122a8565b92915050565b5f819050919050565b6122e2816122d0565b81146122ec575f80fd5b50565b5f813590506122fd816122d9565b92915050565b5f6020828403121561231857612317612215565b5b5f612325848285016122ef565b91505092915050565b612337816122d0565b82525050565b5f6020820190506123505f83018461232e565b92915050565b5f73ffffffffffffffffffffffffffffffffffffffff82169050919050565b5f61237f82612356565b9050919050565b61238f81612375565b8114612399575f80fd5b50565b5f813590506123aa81612386565b92915050565b5f80604083850312156123c6576123c5612215565b5b5f6123d3858286016122ef565b92505060206123e48582860161239c565b9150509250929050565b5f80fd5b5f80fd5b5f601f19601f8301169050919050565b7f4e487b71000000000000000000000000000000000000000000000000000000005f52604160045260245ffd5b61243c826123f6565b810181811067ffffffffffffffff8211171561245b5761245a612406565b5b80604052505050565b5f61246d61220c565b90506124798282612433565b919050565b5f67ffffffffffffffff82111561249857612497612406565b5b6124a1826123f6565b9050602081019050919050565b828183375f83830152505050565b5f6124ce6124c98461247e565b612464565b9050828152602081018484840111156124ea576124e96123f2565b5b6124f58482856124ae565b509392505050565b5f82601f830112612511576125106123ee565b5b81356125218482602086016124bc565b91505092915050565b5f6020828403121561253f5761253e612215565b5b5f82013567ffffffffffffffff81111561255c5761255b612219565b5b612568848285016124fd565b91505092915050565b61257a81612375565b82525050565b5f81519050919050565b5f82825260208201905092915050565b5f5b838110156125b757808201518184015260208101905061259c565b5f8484015250505050565b5f6125cc82612580565b6125d6818561258a565b93506125e681856020860161259a565b6125ef816123f6565b840191505092915050565b5f819050919050565b61260c816125fa565b82525050565b5f610100820190506126265f83018b612571565b612633602083018a612571565b818103604083015261264581896125c2565b90506126546060830188612603565b6126616080830187612603565b81810360a083015261267381866125c2565b905061268260c08301856122a8565b61268f60e08301846122a8565b9998505050505050505050565b5f67ffffffffffffffff8211156126b6576126b5612406565b5b6126bf826123f6565b9050602081019050919050565b5f6126de6126d98461269c565b612464565b9050828152602081018484840111156126fa576126f96123f2565b5b6127058482856124ae565b509392505050565b5f82601f830112612721576127206123ee565b5b81356127318482602086016126cc565b91505092915050565b5f80604083850312156127505761274f612215565b5b5f61275d8582860161239c565b925050602083013567ffffffffffffffff81111561277e5761277d612219565b5b61278a8582860161270d565b9150509250929050565b61279d816125fa565b81146127a7575f80fd5b50565b5f813590506127b881612794565b92915050565b5f80604083850312156127d4576127d3612215565b5b5f6127e1858286016127aa565b925050602083013567ffffffffffffffff81111561280257612801612219565b5b61280e858286016124fd565b9150509250929050565b5f806040838503121561282e5761282d612215565b5b5f83013567ffffffffffffffff81111561284b5761284a612219565b5b612857858286016124fd565b9250506020612868858286016127aa565b9150509250929050565b5f805f805f60a0868803121561288b5761288a612215565b5b5f6128988882890161239c565b955050602086013567ffffffffffffffff8111156128b9576128b8612219565b5b6128c5888289016124fd565b94505060406128d6888289016127aa565b93505060606128e7888289016127aa565b925050608086013567ffffffffffffffff81111561290857612907612219565b5b612914888289016124fd565b9150509295509295909350565b5f6020820190508181035f83015261293981846125c2565b905092915050565b5f805f6060848603121561295857612957612215565b5b5f6129658682870161239c565b93505060206129768682870161239c565b92505060406129878682870161239c565b9150509250925092565b5f819050919050565b6129a381612991565b81146129ad575f80fd5b50565b5f813590506129be8161299a565b92915050565b6129cd8161229d565b81146129d7575f80fd5b50565b5f813590506129e8816129c4565b92915050565b5f8060408385031215612a0457612a03612215565b5b5f612a11858286016129b0565b9250506020612a22858286016129da565b9150509250929050565b5f60208284031215612a4157612a40612215565b5b5f612a4e848285016129b0565b91505092915050565b7f4e487b71000000000000000000000000000000000000000000000000000000005f52602260045260245ffd5b5f6002820490506001821680612a9b57607f821691505b602082108103612aae57612aad612a57565b5b50919050565b7f4e6f2074726164657320617661696c61626c65000000000000000000000000005f82015250565b5f612ae860138361258a565b9150612af382612ab4565b602082019050919050565b5f6020820190508181035f830152612b1581612adc565b9050919050565b7f4e487b71000000000000000000000000000000000000000000000000000000005f52601160045260245ffd5b5f612b5382612991565b9150612b5e83612991565b9250828203905081811115612b7657612b75612b1c565b5b92915050565b7f4e487b71000000000000000000000000000000000000000000000000000000005f52603260045260245ffd5b5f81905092915050565b5f612bbd82612580565b612bc78185612ba9565b9350612bd781856020860161259a565b80840191505092915050565b5f612bee8284612bb3565b915081905092915050565b7f5472616465206e6f7420636f6e6669726d6564000000000000000000000000005f82015250565b5f612c2d60138361258a565b9150612c3882612bf9565b602082019050919050565b5f6020820190508181035f830152612c5a81612c21565b9050919050565b7f4e6f742074686520696e69746961746f720000000000000000000000000000005f82015250565b5f612c9560118361258a565b9150612ca082612c61565b602082019050919050565b5f6020820190508181035f830152612cc281612c89565b9050919050565b7f4e6f742074686520636f756e74657270617274790000000000000000000000005f82015250565b5f612cfd60148361258a565b9150612d0882612cc9565b602082019050919050565b5f6020820190508181035f830152612d2a81612cf1565b9050919050565b5f819050919050565b612d4b612d46826125fa565b612d31565b82525050565b5f819050919050565b612d6b612d6682612991565b612d51565b82525050565b5f612d7c8286612bb3565b9150612d888285612d3a565b602082019150612d988284612d5a565b602082019150819050949350505050565b5f604082019050612dbc5f830185612571565b8181036020830152612dce81846125c2565b90509392505050565b5f819050919050565b5f67ffffffffffffffff82169050919050565b5f819050919050565b5f612e16612e11612e0c84612dd7565b612df3565b612de0565b9050919050565b612e2681612dfc565b82525050565b5f602082019050612e3f5f830184612e1d565b92915050565b5f819050815f5260205f209050919050565b5f8154612e6381612a84565b612e6d818661258a565b9450600182165f8114612e875760018114612e9d57612ecf565b60ff198316865281151560200286019350612ecf565b612ea685612e45565b5f5b83811015612ec757815481890152600182019150602081019050612ea8565b808801955050505b50505092915050565b5f6040820190508181035f830152612ef08185612e57565b90508181036020830152612f048184612e57565b90509392505050565b5f6020601f8301049050919050565b5f82821b905092915050565b5f60088302612f577fffffffffffffffffffffffffffffffffffffffffffffffffffffffffffffffff82612f1c565b612f618683612f1c565b95508019841693508086168417925050509392505050565b5f612f93612f8e612f8984612991565b612df3565b612991565b9050919050565b5f819050919050565b612fac83612f79565b612fc0612fb882612f9a565b848454612f28565b825550505050565b5f90565b612fd4612fc8565b612fdf818484612fa3565b505050565b5b8181101561300257612ff75f82612fcc565b600181019050612fe5565b5050565b601f8211156130475761301881612e45565b61302184612f0d565b81016020851015613030578190505b61304461303c85612f0d565b830182612fe4565b50505b505050565b5f82821c905092915050565b5f6130675f198460080261304c565b1980831691505092915050565b5f61307f8383613058565b9150826002028217905092915050565b61309882612580565b67ffffffffffffffff8111156130b1576130b0612406565b5b6130bb8254612a84565b6130c6828285613006565b5f60209050601f8311600181146130f7575f84156130e5578287015190505b6130ef8582613074565b865550613156565b601f19841661310586612e45565b5f5b8281101561312c57848901518255600182019150602085019450602081019050613107565b868310156131495784890151613145601f891682613058565b8355505b6001600288020188555050505b505050505050565b5f6060820190506131715f830186612571565b818103602083015261318381856125c2565b9050818103604083015261319781846125c2565b9050949350505050565b5f6020820190506131b45f830184612571565b92915050565b5f815190506131c8816122d9565b92915050565b5f602082840312156131e3576131e2612215565b5b5f6131f0848285016131ba565b91505092915050565b5f60408201905061320c5f830185612571565b613219602083018461232e565b9392505050565b5f81519050919050565b5f81905092915050565b5f61323e82613220565b613248818561322a565b935061325881856020860161259a565b80840191505092915050565b5f61326f8284613234565b91508190509291505056fea26469706673582212206e58a25d3621642b7ae5b604f2cda4e990bf4c3aaf2923f7bb629189c96ccb3f64736f6c63430008180033",
					"opcodes": "PUSH1 0xA0 PUSH1 0x40 MSTORE ADDRESS PUSH20 0xFFFFFFFFFFFFFFFFFFFFFFFFFFFFFFFFFFFFFFFF AND PUSH1 0x80 SWAP1 PUSH20 0xFFFFFFFFFFFFFFFFFFFFFFFFFFFFFFFFFFFFFFFF AND DUP2 MSTORE POP CALLVALUE DUP1 ISZERO PUSH3 0x43 JUMPI PUSH0 DUP1 REVERT JUMPDEST POP PUSH3 0x54 PUSH3 0x5A PUSH1 0x20 SHL PUSH1 0x20 SHR JUMP JUMPDEST PUSH3 0x1C4 JUMP JUMPDEST PUSH0 PUSH3 0x6B PUSH3 0x15E PUSH1 0x20 SHL PUSH1 0x20 SHR JUMP JUMPDEST SWAP1 POP DUP1 PUSH0 ADD PUSH1 0x8 SWAP1 SLOAD SWAP1 PUSH2 0x100 EXP SWAP1 DIV PUSH1 0xFF AND ISZERO PUSH3 0xB6 JUMPI PUSH1 0x40 MLOAD PUSH32 0xF92EE8A900000000000000000000000000000000000000000000000000000000 DUP2 MSTORE PUSH1 0x4 ADD PUSH1 0x40 MLOAD DUP1 SWAP2 SUB SWAP1 REVERT JUMPDEST PUSH8 0xFFFFFFFFFFFFFFFF DUP1 AND DUP2 PUSH0 ADD PUSH0 SWAP1 SLOAD SWAP1 PUSH2 0x100 EXP SWAP1 DIV PUSH8 0xFFFFFFFFFFFFFFFF AND PUSH8 0xFFFFFFFFFFFFFFFF AND EQ PUSH3 0x15B JUMPI PUSH8 0xFFFFFFFFFFFFFFFF DUP2 PUSH0 ADD PUSH0 PUSH2 0x100 EXP DUP2 SLOAD DUP2 PUSH8 0xFFFFFFFFFFFFFFFF MUL NOT AND SWAP1 DUP4 PUSH8 0xFFFFFFFFFFFFFFFF AND MUL OR SWAP1 SSTORE POP PUSH32 0xC7F505B2F371AE2175EE4913F4499E1F2633A7B5936321EED1CDAEB6115181D2 PUSH8 0xFFFFFFFFFFFFFFFF PUSH1 0x40 MLOAD PUSH3 0x152 SWAP2 SWAP1 PUSH3 0x1A9 JUMP JUMPDEST PUSH1 0x40 MLOAD DUP1 SWAP2 SUB SWAP1 LOG1 JUMPDEST POP JUMP JUMPDEST PUSH0 PUSH32 0xF0C57E16840DF040F15088DC2F81FE391C3923BEC73E23A9662EFC9C229C6A00 SWAP1 POP SWAP1 JUMP JUMPDEST PUSH0 PUSH8 0xFFFFFFFFFFFFFFFF DUP3 AND SWAP1 POP SWAP2 SWAP1 POP JUMP JUMPDEST PUSH3 0x1A3 DUP2 PUSH3 0x185 JUMP JUMPDEST DUP3 MSTORE POP POP JUMP JUMPDEST PUSH0 PUSH1 0x20 DUP3 ADD SWAP1 POP PUSH3 0x1BE PUSH0 DUP4 ADD DUP5 PUSH3 0x198 JUMP JUMPDEST SWAP3 SWAP2 POP POP JUMP JUMPDEST PUSH1 0x80 MLOAD PUSH2 0x32B0 PUSH3 0x1EB PUSH0 CODECOPY PUSH0 DUP2 DUP2 PUSH2 0x19EE ADD MSTORE DUP2 DUP2 PUSH2 0x1A43 ADD MSTORE PUSH2 0x1C20 ADD MSTORE PUSH2 0x32B0 PUSH0 RETURN INVALID PUSH1 0x80 PUSH1 0x40 MSTORE PUSH1 0x4 CALLDATASIZE LT PUSH2 0x165 JUMPI PUSH0 CALLDATALOAD PUSH1 0xE0 SHR DUP1 PUSH4 0x8456CB59 GT PUSH2 0xD0 JUMPI DUP1 PUSH4 0xC78B432E GT PUSH2 0x89 JUMPI DUP1 PUSH4 0xE63AB1E9 GT PUSH2 0x63 JUMPI DUP1 PUSH4 0xE63AB1E9 EQ PUSH2 0x4CE JUMPI DUP1 PUSH4 0xEC11C4E9 EQ PUSH2 0x4F8 JUMPI DUP1 PUSH4 0xF72C0D8B EQ PUSH2 0x520 JUMPI DUP1 PUSH4 0xFF52C484 EQ PUSH2 0x54A JUMPI PUSH2 0x165 JUMP JUMPDEST DUP1 PUSH4 0xC78B432E EQ PUSH2 0x468 JUMPI DUP1 PUSH4 0xD547741F EQ PUSH2 0x47E JUMPI DUP1 PUSH4 0xDF2D0728 EQ PUSH2 0x4A6 JUMPI PUSH2 0x165 JUMP JUMPDEST DUP1 PUSH4 0x8456CB59 EQ PUSH2 0x372 JUMPI DUP1 PUSH4 0x858F0E93 EQ PUSH2 0x388 JUMPI DUP1 PUSH4 0x91D14854 EQ PUSH2 0x3B0 JUMPI DUP1 PUSH4 0xA217FDDF EQ PUSH2 0x3EC JUMPI DUP1 PUSH4 0xAD3CB1CC EQ PUSH2 0x416 JUMPI DUP1 PUSH4 0xC0C53B8B EQ PUSH2 0x440 JUMPI PUSH2 0x165 JUMP JUMPDEST DUP1 PUSH4 0x4F1EF286 GT PUSH2 0x122 JUMPI DUP1 PUSH4 0x4F1EF286 EQ PUSH2 0x28A JUMPI DUP1 PUSH4 0x52D1902D EQ PUSH2 0x2A6 JUMPI DUP1 PUSH4 0x5C975ABB EQ PUSH2 0x2D0 JUMPI DUP1 PUSH4 0x6BA63956 EQ PUSH2 0x2FA JUMPI DUP1 PUSH4 0x729D581C EQ PUSH2 0x322 JUMPI DUP1 PUSH4 0x79648ED3 EQ PUSH2 0x34A JUMPI PUSH2 0x165 JUMP JUMPDEST DUP1 PUSH4 0x1FFC9A7 EQ PUSH2 0x169 JUMPI DUP1 PUSH4 0x248A9CA3 EQ PUSH2 0x1A5 JUMPI DUP1 PUSH4 0x2F2FF15D EQ PUSH2 0x1E1 JUMPI DUP1 PUSH4 0x36568ABE EQ PUSH2 0x209 JUMPI DUP1 PUSH4 0x3F4BA83A EQ PUSH2 0x231 JUMPI DUP1 PUSH4 0x47A04100 EQ PUSH2 0x247 JUMPI JUMPDEST PUSH0 DUP1 REVERT JUMPDEST CALLVALUE DUP1 ISZERO PUSH2 0x174 JUMPI PUSH0 DUP1 REVERT JUMPDEST POP PUSH2 0x18F PUSH1 0x4 DUP1 CALLDATASIZE SUB DUP2 ADD SWAP1 PUSH2 0x18A SWAP2 SWAP1 PUSH2 0x2272 JUMP JUMPDEST PUSH2 0x586 JUMP JUMPDEST PUSH1 0x40 MLOAD PUSH2 0x19C SWAP2 SWAP1 PUSH2 0x22B7 JUMP JUMPDEST PUSH1 0x40 MLOAD DUP1 SWAP2 SUB SWAP1 RETURN JUMPDEST CALLVALUE DUP1 ISZERO PUSH2 0x1B0 JUMPI PUSH0 DUP1 REVERT JUMPDEST POP PUSH2 0x1CB PUSH1 0x4 DUP1 CALLDATASIZE SUB DUP2 ADD SWAP1 PUSH2 0x1C6 SWAP2 SWAP1 PUSH2 0x2303 JUMP JUMPDEST PUSH2 0x5FF JUMP JUMPDEST PUSH1 0x40 MLOAD PUSH2 0x1D8 SWAP2 SWAP1 PUSH2 0x233D JUMP JUMPDEST PUSH1 0x40 MLOAD DUP1 SWAP2 SUB SWAP1 RETURN JUMPDEST CALLVALUE DUP1 ISZERO PUSH2 0x1EC JUMPI PUSH0 DUP1 REVERT JUMPDEST POP PUSH2 0x207 PUSH1 0x4 DUP1 CALLDATASIZE SUB DUP2 ADD SWAP1 PUSH2 0x202 SWAP2 SWAP1 PUSH2 0x23B0 JUMP JUMPDEST PUSH2 0x629 JUMP JUMPDEST STOP JUMPDEST CALLVALUE DUP1 ISZERO PUSH2 0x214 JUMPI PUSH0 DUP1 REVERT JUMPDEST POP PUSH2 0x22F PUSH1 0x4 DUP1 CALLDATASIZE SUB DUP2 ADD SWAP1 PUSH2 0x22A SWAP2 SWAP1 PUSH2 0x23B0 JUMP JUMPDEST PUSH2 0x64B JUMP JUMPDEST STOP JUMPDEST CALLVALUE DUP1 ISZERO PUSH2 0x23C JUMPI PUSH0 DUP1 REVERT JUMPDEST POP PUSH2 0x245 PUSH2 0x6C6 JUMP JUMPDEST STOP JUMPDEST CALLVALUE DUP1 ISZERO PUSH2 0x252 JUMPI PUSH0 DUP1 REVERT JUMPDEST POP PUSH2 0x26D PUSH1 0x4 DUP1 CALLDATASIZE SUB DUP2 ADD SWAP1 PUSH2 0x268 SWAP2 SWAP1 PUSH2 0x252A JUMP JUMPDEST PUSH2 0x6FB JUMP JUMPDEST PUSH1 0x40 MLOAD PUSH2 0x281 SWAP9 SWAP8 SWAP7 SWAP6 SWAP5 SWAP4 SWAP3 SWAP2 SWAP1 PUSH2 0x2612 JUMP JUMPDEST PUSH1 0x40 MLOAD DUP1 SWAP2 SUB SWAP1 RETURN JUMPDEST PUSH2 0x2A4 PUSH1 0x4 DUP1 CALLDATASIZE SUB DUP2 ADD SWAP1 PUSH2 0x29F SWAP2 SWAP1 PUSH2 0x273A JUMP JUMPDEST PUSH2 0x8B9 JUMP JUMPDEST STOP JUMPDEST CALLVALUE DUP1 ISZERO PUSH2 0x2B1 JUMPI PUSH0 DUP1 REVERT JUMPDEST POP PUSH2 0x2BA PUSH2 0x8D8 JUMP JUMPDEST PUSH1 0x40 MLOAD PUSH2 0x2C7 SWAP2 SWAP1 PUSH2 0x233D JUMP JUMPDEST PUSH1 0x40 MLOAD DUP1 SWAP2 SUB SWAP1 RETURN JUMPDEST CALLVALUE DUP1 ISZERO PUSH2 0x2DB JUMPI PUSH0 DUP1 REVERT JUMPDEST POP PUSH2 0x2E4 PUSH2 0x909 JUMP JUMPDEST PUSH1 0x40 MLOAD PUSH2 0x2F1 SWAP2 SWAP1 PUSH2 0x22B7 JUMP JUMPDEST PUSH1 0x40 MLOAD DUP1 SWAP2 SUB SWAP1 RETURN JUMPDEST CALLVALUE DUP1 ISZERO PUSH2 0x305 JUMPI PUSH0 DUP1 REVERT JUMPDEST POP PUSH2 0x320 PUSH1 0x4 DUP1 CALLDATASIZE SUB DUP2 ADD SWAP1 PUSH2 0x31B SWAP2 SWAP1 PUSH2 0x27BE JUMP JUMPDEST PUSH2 0x92B JUMP JUMPDEST STOP JUMPDEST CALLVALUE DUP1 ISZERO PUSH2 0x32D JUMPI PUSH0 DUP1 REVERT JUMPDEST POP PUSH2 0x348 PUSH1 0x4 DUP1 CALLDATASIZE SUB DUP2 ADD SWAP1 PUSH2 0x343 SWAP2 SWAP1 PUSH2 0x2818 JUMP JUMPDEST PUSH2 0xB22 JUMP JUMPDEST STOP JUMPDEST CALLVALUE DUP1 ISZERO PUSH2 0x355 JUMPI PUSH0 DUP1 REVERT JUMPDEST POP PUSH2 0x370 PUSH1 0x4 DUP1 CALLDATASIZE SUB DUP2 ADD SWAP1 PUSH2 0x36B SWAP2 SWAP1 PUSH2 0x2818 JUMP JUMPDEST PUSH2 0xC5C JUMP JUMPDEST STOP JUMPDEST CALLVALUE DUP1 ISZERO PUSH2 0x37D JUMPI PUSH0 DUP1 REVERT JUMPDEST POP PUSH2 0x386 PUSH2 0xD97 JUMP JUMPDEST STOP JUMPDEST CALLVALUE DUP1 ISZERO PUSH2 0x393 JUMPI PUSH0 DUP1 REVERT JUMPDEST POP PUSH2 0x3AE PUSH1 0x4 DUP1 CALLDATASIZE SUB DUP2 ADD SWAP1 PUSH2 0x3A9 SWAP2 SWAP1 PUSH2 0x2872 JUMP JUMPDEST PUSH2 0xDCC JUMP JUMPDEST STOP JUMPDEST CALLVALUE DUP1 ISZERO PUSH2 0x3BB JUMPI PUSH0 DUP1 REVERT JUMPDEST POP PUSH2 0x3D6 PUSH1 0x4 DUP1 CALLDATASIZE SUB DUP2 ADD SWAP1 PUSH2 0x3D1 SWAP2 SWAP1 PUSH2 0x23B0 JUMP JUMPDEST PUSH2 0xF19 JUMP JUMPDEST PUSH1 0x40 MLOAD PUSH2 0x3E3 SWAP2 SWAP1 PUSH2 0x22B7 JUMP JUMPDEST PUSH1 0x40 MLOAD DUP1 SWAP2 SUB SWAP1 RETURN JUMPDEST CALLVALUE DUP1 ISZERO PUSH2 0x3F7 JUMPI PUSH0 DUP1 REVERT JUMPDEST POP PUSH2 0x400 PUSH2 0xF8A JUMP JUMPDEST PUSH1 0x40 MLOAD PUSH2 0x40D SWAP2 SWAP1 PUSH2 0x233D JUMP JUMPDEST PUSH1 0x40 MLOAD DUP1 SWAP2 SUB SWAP1 RETURN JUMPDEST CALLVALUE DUP1 ISZERO PUSH2 0x421 JUMPI PUSH0 DUP1 REVERT JUMPDEST POP PUSH2 0x42A PUSH2 0xF90 JUMP JUMPDEST PUSH1 0x40 MLOAD PUSH2 0x437 SWAP2 SWAP1 PUSH2 0x2921 JUMP JUMPDEST PUSH1 0x40 MLOAD DUP1 SWAP2 SUB SWAP1 RETURN JUMPDEST CALLVALUE DUP1 ISZERO PUSH2 0x44B JUMPI PUSH0 DUP1 REVERT JUMPDEST POP PUSH2 0x466 PUSH1 0x4 DUP1 CALLDATASIZE SUB DUP2 ADD SWAP1 PUSH2 0x461 SWAP2 SWAP1 PUSH2 0x2941 JUMP JUMPDEST PUSH2 0xFC9 JUMP JUMPDEST STOP JUMPDEST CALLVALUE DUP1 ISZERO PUSH2 0x473 JUMPI PUSH0 DUP1 REVERT JUMPDEST POP PUSH2 0x47C PUSH2 0x11BE JUMP JUMPDEST STOP JUMPDEST CALLVALUE DUP1 ISZERO PUSH2 0x489 JUMPI PUSH0 DUP1 REVERT JUMPDEST POP PUSH2 0x4A4 PUSH1 0x4 DUP1 CALLDATASIZE SUB DUP2 ADD SWAP1 PUSH2 0x49F SWAP2 SWAP1 PUSH2 0x23B0 JUMP JUMPDEST PUSH2 0x13A0 JUMP JUMPDEST STOP JUMPDEST CALLVALUE DUP1 ISZERO PUSH2 0x4B1 JUMPI PUSH0 DUP1 REVERT JUMPDEST POP PUSH2 0x4CC PUSH1 0x4 DUP1 CALLDATASIZE SUB DUP2 ADD SWAP1 PUSH2 0x4C7 SWAP2 SWAP1 PUSH2 0x29EE JUMP JUMPDEST PUSH2 0x13C2 JUMP JUMPDEST STOP JUMPDEST CALLVALUE DUP1 ISZERO PUSH2 0x4D9 JUMPI PUSH0 DUP1 REVERT JUMPDEST POP PUSH2 0x4E2 PUSH2 0x13C6 JUMP JUMPDEST PUSH1 0x40 MLOAD PUSH2 0x4EF SWAP2 SWAP1 PUSH2 0x233D JUMP JUMPDEST PUSH1 0x40 MLOAD DUP1 SWAP2 SUB SWAP1 RETURN JUMPDEST CALLVALUE DUP1 ISZERO PUSH2 0x503 JUMPI PUSH0 DUP1 REVERT JUMPDEST POP PUSH2 0x51E PUSH1 0x4 DUP1 CALLDATASIZE SUB DUP2 ADD SWAP1 PUSH2 0x519 SWAP2 SWAP1 PUSH2 0x2872 JUMP JUMPDEST PUSH2 0x13EA JUMP JUMPDEST STOP JUMPDEST CALLVALUE DUP1 ISZERO PUSH2 0x52B JUMPI PUSH0 DUP1 REVERT JUMPDEST POP PUSH2 0x534 PUSH2 0x1619 JUMP JUMPDEST PUSH1 0x40 MLOAD PUSH2 0x541 SWAP2 SWAP1 PUSH2 0x233D JUMP JUMPDEST PUSH1 0x40 MLOAD DUP1 SWAP2 SUB SWAP1 RETURN JUMPDEST CALLVALUE DUP1 ISZERO PUSH2 0x555 JUMPI PUSH0 DUP1 REVERT JUMPDEST POP PUSH2 0x570 PUSH1 0x4 DUP1 CALLDATASIZE SUB DUP2 ADD SWAP1 PUSH2 0x56B SWAP2 SWAP1 PUSH2 0x2A2C JUMP JUMPDEST PUSH2 0x163D JUMP JUMPDEST PUSH1 0x40 MLOAD PUSH2 0x57D SWAP2 SWAP1 PUSH2 0x2921 JUMP JUMPDEST PUSH1 0x40 MLOAD DUP1 SWAP2 SUB SWAP1 RETURN JUMPDEST PUSH0 PUSH32 0x7965DB0B00000000000000000000000000000000000000000000000000000000 PUSH28 0xFFFFFFFFFFFFFFFFFFFFFFFFFFFFFFFFFFFFFFFFFFFFFFFFFFFFFFFF NOT AND DUP3 PUSH28 0xFFFFFFFFFFFFFFFFFFFFFFFFFFFFFFFFFFFFFFFFFFFFFFFFFFFFFFFF NOT AND EQ DUP1 PUSH2 0x5F8 JUMPI POP PUSH2 0x5F7 DUP3 PUSH2 0x16E3 JUMP JUMPDEST JUMPDEST SWAP1 POP SWAP2 SWAP1 POP JUMP JUMPDEST PUSH0 DUP1 PUSH2 0x609 PUSH2 0x174C JUMP JUMPDEST SWAP1 POP DUP1 PUSH0 ADD PUSH0 DUP5 DUP2 MSTORE PUSH1 0x20 ADD SWAP1 DUP2 MSTORE PUSH1 0x20 ADD PUSH0 KECCAK256 PUSH1 0x1 ADD SLOAD SWAP2 POP POP SWAP2 SWAP1 POP JUMP JUMPDEST PUSH2 0x632 DUP3 PUSH2 0x5FF JUMP JUMPDEST PUSH2 0x63B DUP2 PUSH2 0x1773 JUMP JUMPDEST PUSH2 0x645 DUP4 DUP4 PUSH2 0x1787 JUMP JUMPDEST POP POP POP POP JUMP JUMPDEST PUSH2 0x653 PUSH2 0x187F JUMP JUMPDEST PUSH20 0xFFFFFFFFFFFFFFFFFFFFFFFFFFFFFFFFFFFFFFFF AND DUP2 PUSH20 0xFFFFFFFFFFFFFFFFFFFFFFFFFFFFFFFFFFFFFFFF AND EQ PUSH2 0x6B7 JUMPI PUSH1 0x40 MLOAD PUSH32 0x6697B23200000000000000000000000000000000000000000000000000000000 DUP2 MSTORE PUSH1 0x4 ADD PUSH1 0x40 MLOAD DUP1 SWAP2 SUB SWAP1 REVERT JUMPDEST PUSH2 0x6C1 DUP3 DUP3 PUSH2 0x1886 JUMP JUMPDEST POP POP POP JUMP JUMPDEST PUSH32 0x65D7A28E3265B37A6474929F336521B332C1681B933F6CB9F3376673440D862A PUSH2 0x6F0 DUP2 PUSH2 0x1773 JUMP JUMPDEST PUSH2 0x6F8 PUSH2 0x197E JUMP JUMPDEST POP JUMP JUMPDEST PUSH0 DUP2 DUP1 MLOAD PUSH1 0x20 DUP2 ADD DUP3 ADD DUP1 MLOAD DUP5 DUP3 MSTORE PUSH1 0x20 DUP4 ADD PUSH1 0x20 DUP6 ADD KECCAK256 DUP2 DUP4 MSTORE DUP1 SWAP6 POP POP POP POP POP POP PUSH0 SWAP2 POP SWAP1 POP DUP1 PUSH0 ADD PUSH0 SWAP1 SLOAD SWAP1 PUSH2 0x100 EXP SWAP1 DIV PUSH20 0xFFFFFFFFFFFFFFFFFFFFFFFFFFFFFFFFFFFFFFFF AND SWAP1 DUP1 PUSH1 0x1 ADD PUSH0 SWAP1 SLOAD SWAP1 PUSH2 0x100 EXP SWAP1 DIV PUSH20 0xFFFFFFFFFFFFFFFFFFFFFFFFFFFFFFFFFFFFFFFF AND SWAP1 DUP1 PUSH1 0x2 ADD DUP1 SLOAD PUSH2 0x77B SWAP1 PUSH2 0x2A84 JUMP JUMPDEST DUP1 PUSH1 0x1F ADD PUSH1 0x20 DUP1 SWAP2 DIV MUL PUSH1 0x20 ADD PUSH1 0x40 MLOAD SWAP1 DUP2 ADD PUSH1 0x40 MSTORE DUP1 SWAP3 SWAP2 SWAP1 DUP2 DUP2 MSTORE PUSH1 0x20 ADD DUP3 DUP1 SLOAD PUSH2 0x7A7 SWAP1 PUSH2 0x2A84 JUMP JUMPDEST DUP1 ISZERO PUSH2 0x7F2 JUMPI DUP1 PUSH1 0x1F LT PUSH2 0x7C9 JUMPI PUSH2 0x100 DUP1 DUP4 SLOAD DIV MUL DUP4 MSTORE SWAP2 PUSH1 0x20 ADD SWAP2 PUSH2 0x7F2 JUMP JUMPDEST DUP3 ADD SWAP2 SWAP1 PUSH0 MSTORE PUSH1 0x20 PUSH0 KECCAK256 SWAP1 JUMPDEST DUP2 SLOAD DUP2 MSTORE SWAP1 PUSH1 0x1 ADD SWAP1 PUSH1 0x20 ADD DUP1 DUP4 GT PUSH2 0x7D5 JUMPI DUP3 SWAP1 SUB PUSH1 0x1F AND DUP3 ADD SWAP2 JUMPDEST POP POP POP POP POP SWAP1 DUP1 PUSH1 0x3 ADD SLOAD SWAP1 DUP1 PUSH1 0x4 ADD SLOAD SWAP1 DUP1 PUSH1 0x5 ADD DUP1 SLOAD PUSH2 0x813 SWAP1 PUSH2 0x2A84 JUMP JUMPDEST DUP1 PUSH1 0x1F ADD PUSH1 0x20 DUP1 SWAP2 DIV MUL PUSH1 0x20 ADD PUSH1 0x40 MLOAD SWAP1 DUP2 ADD PUSH1 0x40 MSTORE DUP1 SWAP3 SWAP2 SWAP1 DUP2 DUP2 MSTORE PUSH1 0x20 ADD DUP3 DUP1 SLOAD PUSH2 0x83F SWAP1 PUSH2 0x2A84 JUMP JUMPDEST DUP1 ISZERO PUSH2 0x88A JUMPI DUP1 PUSH1 0x1F LT PUSH2 0x861 JUMPI PUSH2 0x100 DUP1 DUP4 SLOAD DIV MUL DUP4 MSTORE SWAP2 PUSH1 0x20 ADD SWAP2 PUSH2 0x88A JUMP JUMPDEST DUP3 ADD SWAP2 SWAP1 PUSH0 MSTORE PUSH1 0x20 PUSH0 KECCAK256 SWAP1 JUMPDEST DUP2 SLOAD DUP2 MSTORE SWAP1 PUSH1 0x1 ADD SWAP1 PUSH1 0x20 ADD DUP1 DUP4 GT PUSH2 0x86D JUMPI DUP3 SWAP1 SUB PUSH1 0x1F AND DUP3 ADD SWAP2 JUMPDEST POP POP POP POP POP SWAP1 DUP1 PUSH1 0x6 ADD PUSH0 SWAP1 SLOAD SWAP1 PUSH2 0x100 EXP SWAP1 DIV PUSH1 0xFF AND SWAP1 DUP1 PUSH1 0x6 ADD PUSH1 0x1 SWAP1 SLOAD SWAP1 PUSH2 0x100 EXP SWAP1 DIV PUSH1 0xFF AND SWAP1 POP DUP9 JUMP JUMPDEST PUSH2 0x8C1 PUSH2 0x19EC JUMP JUMPDEST PUSH2 0x8CA DUP3 PUSH2 0x1AD2 JUMP JUMPDEST PUSH2 0x8D4 DUP3 DUP3 PUSH2 0x1B00 JUMP JUMPDEST POP POP JUMP JUMPDEST PUSH0 PUSH2 0x8E1 PUSH2 0x1C1E JUMP JUMPDEST PUSH32 0x360894A13BA1A3210667C828492DB98DCA3E2076CC3735A920A3CA505D382BBC PUSH0 SHL SWAP1 POP SWAP1 JUMP JUMPDEST PUSH0 DUP1 PUSH2 0x913 PUSH2 0x1CA5 JUMP JUMPDEST SWAP1 POP DUP1 PUSH0 ADD PUSH0 SWAP1 SLOAD SWAP1 PUSH2 0x100 EXP SWAP1 DIV PUSH1 0xFF AND SWAP2 POP POP SWAP1 JUMP JUMPDEST PUSH0 PUSH1 0x1 DUP1 SLOAD SWAP1 POP GT PUSH2 0x972 JUMPI PUSH1 0x40 MLOAD PUSH32 0x8C379A000000000000000000000000000000000000000000000000000000000 DUP2 MSTORE PUSH1 0x4 ADD PUSH2 0x969 SWAP1 PUSH2 0x2AFE JUMP JUMPDEST PUSH1 0x40 MLOAD DUP1 SWAP2 SUB SWAP1 REVERT JUMPDEST PUSH0 PUSH1 0x1 DUP1 DUP1 DUP1 SLOAD SWAP1 POP PUSH2 0x985 SWAP2 SWAP1 PUSH2 0x2B49 JUMP JUMPDEST DUP2 SLOAD DUP2 LT PUSH2 0x996 JUMPI PUSH2 0x995 PUSH2 0x2B7C JUMP JUMPDEST JUMPDEST SWAP1 PUSH0 MSTORE PUSH1 0x20 PUSH0 KECCAK256 ADD DUP1 SLOAD PUSH2 0x9A9 SWAP1 PUSH2 0x2A84 JUMP JUMPDEST DUP1 PUSH1 0x1F ADD PUSH1 0x20 DUP1 SWAP2 DIV MUL PUSH1 0x20 ADD PUSH1 0x40 MLOAD SWAP1 DUP2 ADD PUSH1 0x40 MSTORE DUP1 SWAP3 SWAP2 SWAP1 DUP2 DUP2 MSTORE PUSH1 0x20 ADD DUP3 DUP1 SLOAD PUSH2 0x9D5 SWAP1 PUSH2 0x2A84 JUMP JUMPDEST DUP1 ISZERO PUSH2 0xA20 JUMPI DUP1 PUSH1 0x1F LT PUSH2 0x9F7 JUMPI PUSH2 0x100 DUP1 DUP4 SLOAD DIV MUL DUP4 MSTORE SWAP2 PUSH1 0x20 ADD SWAP2 PUSH2 0xA20 JUMP JUMPDEST DUP3 ADD SWAP2 SWAP1 PUSH0 MSTORE PUSH1 0x20 PUSH0 KECCAK256 SWAP1 JUMPDEST DUP2 SLOAD DUP2 MSTORE SWAP1 PUSH1 0x1 ADD SWAP1 PUSH1 0x20 ADD DUP1 DUP4 GT PUSH2 0xA03 JUMPI DUP3 SWAP1 SUB PUSH1 0x1F AND DUP3 ADD SWAP2 JUMPDEST POP POP POP POP POP SWAP1 POP PUSH0 DUP2 PUSH1 0x40 MLOAD PUSH2 0xA36 SWAP2 SWAP1 PUSH2 0x2BE3 JUMP JUMPDEST SWAP1 DUP2 MSTORE PUSH1 0x20 ADD PUSH1 0x40 MLOAD DUP1 SWAP2 SUB SWAP1 KECCAK256 PUSH1 0x6 ADD PUSH0 SWAP1 SLOAD SWAP1 PUSH2 0x100 EXP SWAP1 DIV PUSH1 0xFF AND PUSH2 0xA93 JUMPI PUSH1 0x40 MLOAD PUSH32 0x8C379A000000000000000000000000000000000000000000000000000000000 DUP2 MSTORE PUSH1 0x4 ADD PUSH2 0xA8A SWAP1 PUSH2 0x2C43 JUMP JUMPDEST PUSH1 0x40 MLOAD DUP1 SWAP2 SUB SWAP1 REVERT JUMPDEST PUSH1 0x1 PUSH0 DUP3 PUSH1 0x40 MLOAD PUSH2 0xAA4 SWAP2 SWAP1 PUSH2 0x2BE3 JUMP JUMPDEST SWAP1 DUP2 MSTORE PUSH1 0x20 ADD PUSH1 0x40 MLOAD DUP1 SWAP2 SUB SWAP1 KECCAK256 PUSH1 0x6 ADD PUSH1 0x1 PUSH2 0x100 EXP DUP2 SLOAD DUP2 PUSH1 0xFF MUL NOT AND SWAP1 DUP4 ISZERO ISZERO MUL OR SWAP1 SSTORE POP DUP3 PUSH0 DUP3 PUSH1 0x40 MLOAD PUSH2 0xADC SWAP2 SWAP1 PUSH2 0x2BE3 JUMP JUMPDEST SWAP1 DUP2 MSTORE PUSH1 0x20 ADD PUSH1 0x40 MLOAD DUP1 SWAP2 SUB SWAP1 KECCAK256 PUSH1 0x4 ADD DUP2 SWAP1 SSTORE POP PUSH32 0x4145167A2ECC3424513C83E72C2D0E4A94F423754B82AF0BDEAF9FD0F7A174B7 PUSH1 0x40 MLOAD PUSH1 0x40 MLOAD DUP1 SWAP2 SUB SWAP1 LOG1 POP POP POP JUMP JUMPDEST CALLER PUSH20 0xFFFFFFFFFFFFFFFFFFFFFFFFFFFFFFFFFFFFFFFF AND PUSH0 DUP4 PUSH1 0x40 MLOAD PUSH2 0xB48 SWAP2 SWAP1 PUSH2 0x2BE3 JUMP JUMPDEST SWAP1 DUP2 MSTORE PUSH1 0x20 ADD PUSH1 0x40 MLOAD DUP1 SWAP2 SUB SWAP1 KECCAK256 PUSH0 ADD PUSH0 SWAP1 SLOAD SWAP1 PUSH2 0x100 EXP SWAP1 DIV PUSH20 0xFFFFFFFFFFFFFFFFFFFFFFFFFFFFFFFFFFFFFFFF AND PUSH20 0xFFFFFFFFFFFFFFFFFFFFFFFFFFFFFFFFFFFFFFFF AND EQ PUSH2 0xBCE JUMPI PUSH1 0x40 MLOAD PUSH32 0x8C379A000000000000000000000000000000000000000000000000000000000 DUP2 MSTORE PUSH1 0x4 ADD PUSH2 0xBC5 SWAP1 PUSH2 0x2CAB JUMP JUMPDEST PUSH1 0x40 MLOAD DUP1 SWAP2 SUB SWAP1 REVERT JUMPDEST PUSH1 0x1 PUSH0 DUP4 PUSH1 0x40 MLOAD PUSH2 0xBDF SWAP2 SWAP1 PUSH2 0x2BE3 JUMP JUMPDEST SWAP1 DUP2 MSTORE PUSH1 0x20 ADD PUSH1 0x40 MLOAD DUP1 SWAP2 SUB SWAP1 KECCAK256 PUSH1 0x6 ADD PUSH1 0x1 PUSH2 0x100 EXP DUP2 SLOAD DUP2 PUSH1 0xFF MUL NOT AND SWAP1 DUP4 ISZERO ISZERO MUL OR SWAP1 SSTORE POP DUP1 PUSH0 DUP4 PUSH1 0x40 MLOAD PUSH2 0xC17 SWAP2 SWAP1 PUSH2 0x2BE3 JUMP JUMPDEST SWAP1 DUP2 MSTORE PUSH1 0x20 ADD PUSH1 0x40 MLOAD DUP1 SWAP2 SUB SWAP1 KECCAK256 PUSH1 0x4 ADD DUP2 SWAP1 SSTORE POP PUSH32 0x4145167A2ECC3424513C83E72C2D0E4A94F423754B82AF0BDEAF9FD0F7A174B7 PUSH1 0x40 MLOAD PUSH1 0x40 MLOAD DUP1 SWAP2 SUB SWAP1 LOG1 POP POP JUMP JUMPDEST CALLER PUSH20 0xFFFFFFFFFFFFFFFFFFFFFFFFFFFFFFFFFFFFFFFF AND PUSH0 DUP4 PUSH1 0x40 MLOAD PUSH2 0xC82 SWAP2 SWAP1 PUSH2 0x2BE3 JUMP JUMPDEST SWAP1 DUP2 MSTORE PUSH1 0x20 ADD PUSH1 0x40 MLOAD DUP1 SWAP2 SUB SWAP1 KECCAK256 PUSH1 0x1 ADD PUSH0 SWAP1 SLOAD SWAP1 PUSH2 0x100 EXP SWAP1 DIV PUSH20 0xFFFFFFFFFFFFFFFFFFFFFFFFFFFFFFFFFFFFFFFF AND PUSH20 0xFFFFFFFFFFFFFFFFFFFFFFFFFFFFFFFFFFFFFFFF AND EQ PUSH2 0xD09 JUMPI PUSH1 0x40 MLOAD PUSH32 0x8C379A000000000000000000000000000000000000000000000000000000000 DUP2 MSTORE PUSH1 0x4 ADD PUSH2 0xD00 SWAP1 PUSH2 0x2D13 JUMP JUMPDEST PUSH1 0x40 MLOAD DUP1 SWAP2 SUB SWAP1 REVERT JUMPDEST PUSH1 0x1 PUSH0 DUP4 PUSH1 0x40 MLOAD PUSH2 0xD1A SWAP2 SWAP1 PUSH2 0x2BE3 JUMP JUMPDEST SWAP1 DUP2 MSTORE PUSH1 0x20 ADD PUSH1 0x40 MLOAD DUP1 SWAP2 SUB SWAP1 KECCAK256 PUSH1 0x6 ADD PUSH1 0x1 PUSH2 0x100 EXP DUP2 SLOAD DUP2 PUSH1 0xFF MUL NOT AND SWAP1 DUP4 ISZERO ISZERO MUL OR SWAP1 SSTORE POP DUP1 PUSH0 DUP4 PUSH1 0x40 MLOAD PUSH2 0xD52 SWAP2 SWAP1 PUSH2 0x2BE3 JUMP JUMPDEST SWAP1 DUP2 MSTORE PUSH1 0x20 ADD PUSH1 0x40 MLOAD DUP1 SWAP2 SUB SWAP1 KECCAK256 PUSH1 0x4 ADD DUP2 SWAP1 SSTORE POP PUSH32 0x4145167A2ECC3424513C83E72C2D0E4A94F423754B82AF0BDEAF9FD0F7A174B7 PUSH1 0x40 MLOAD PUSH1 0x40 MLOAD DUP1 SWAP2 SUB SWAP1 LOG1 POP POP JUMP JUMPDEST PUSH32 0x65D7A28E3265B37A6474929F336521B332C1681B933F6CB9F3376673440D862A PUSH2 0xDC1 DUP2 PUSH2 0x1773 JUMP JUMPDEST PUSH2 0xDC9 PUSH2 0x1CCC JUMP JUMPDEST POP JUMP JUMPDEST PUSH0 DUP5 DUP5 TIMESTAMP PUSH1 0x40 MLOAD PUSH1 0x20 ADD PUSH2 0xDE2 SWAP4 SWAP3 SWAP2 SWAP1 PUSH2 0x2D71 JUMP JUMPDEST PUSH1 0x40 MLOAD PUSH1 0x20 DUP2 DUP4 SUB SUB DUP2 MSTORE SWAP1 PUSH1 0x40 MSTORE SWAP1 POP CALLER PUSH20 0xFFFFFFFFFFFFFFFFFFFFFFFFFFFFFFFFFFFFFFFF AND PUSH0 DUP3 PUSH1 0x40 MLOAD PUSH2 0xE19 SWAP2 SWAP1 PUSH2 0x2BE3 JUMP JUMPDEST SWAP1 DUP2 MSTORE PUSH1 0x20 ADD PUSH1 0x40 MLOAD DUP1 SWAP2 SUB SWAP1 KECCAK256 PUSH1 0x1 ADD PUSH0 SWAP1 SLOAD SWAP1 PUSH2 0x100 EXP SWAP1 DIV PUSH20 0xFFFFFFFFFFFFFFFFFFFFFFFFFFFFFFFFFFFFFFFF AND PUSH20 0xFFFFFFFFFFFFFFFFFFFFFFFFFFFFFFFFFFFFFFFF AND EQ PUSH2 0xEA0 JUMPI PUSH1 0x40 MLOAD PUSH32 0x8C379A000000000000000000000000000000000000000000000000000000000 DUP2 MSTORE PUSH1 0x4 ADD PUSH2 0xE97 SWAP1 PUSH2 0x2D13 JUMP JUMPDEST PUSH1 0x40 MLOAD DUP1 SWAP2 SUB SWAP1 REVERT JUMPDEST PUSH1 0x1 PUSH0 DUP3 PUSH1 0x40 MLOAD PUSH2 0xEB1 SWAP2 SWAP1 PUSH2 0x2BE3 JUMP JUMPDEST SWAP1 DUP2 MSTORE PUSH1 0x20 ADD PUSH1 0x40 MLOAD DUP1 SWAP2 SUB SWAP1 KECCAK256 PUSH1 0x6 ADD PUSH0 PUSH2 0x100 EXP DUP2 SLOAD DUP2 PUSH1 0xFF MUL NOT AND SWAP1 DUP4 ISZERO ISZERO MUL OR SWAP1 SSTORE POP PUSH32 0x2F9110550F3374364C85539074B740B7BFED285798D152502C5F2DFD745CF00 CALLER DUP3 PUSH1 0x40 MLOAD PUSH2 0xF09 SWAP3 SWAP2 SWAP1 PUSH2 0x2DA9 JUMP JUMPDEST PUSH1 0x40 MLOAD DUP1 SWAP2 SUB SWAP1 LOG1 POP POP POP POP POP POP JUMP JUMPDEST PUSH0 DUP1 PUSH2 0xF23 PUSH2 0x174C JUMP JUMPDEST SWAP1 POP DUP1 PUSH0 ADD PUSH0 DUP6 DUP2 MSTORE PUSH1 0x20 ADD SWAP1 DUP2 MSTORE PUSH1 0x20 ADD PUSH0 KECCAK256 PUSH0 ADD PUSH0 DUP5 PUSH20 0xFFFFFFFFFFFFFFFFFFFFFFFFFFFFFFFFFFFFFFFF AND PUSH20 0xFFFFFFFFFFFFFFFFFFFFFFFFFFFFFFFFFFFFFFFF AND DUP2 MSTORE PUSH1 0x20 ADD SWAP1 DUP2 MSTORE PUSH1 0x20 ADD PUSH0 KECCAK256 PUSH0 SWAP1 SLOAD SWAP1 PUSH2 0x100 EXP SWAP1 DIV PUSH1 0xFF AND SWAP2 POP POP SWAP3 SWAP2 POP POP JUMP JUMPDEST PUSH0 DUP1 SHL DUP2 JUMP JUMPDEST PUSH1 0x40 MLOAD DUP1 PUSH1 0x40 ADD PUSH1 0x40 MSTORE DUP1 PUSH1 0x5 DUP2 MSTORE PUSH1 0x20 ADD PUSH32 0x352E302E30000000000000000000000000000000000000000000000000000000 DUP2 MSTORE POP DUP2 JUMP JUMPDEST PUSH0 PUSH2 0xFD2 PUSH2 0x1D3B JUMP JUMPDEST SWAP1 POP PUSH0 DUP2 PUSH0 ADD PUSH1 0x8 SWAP1 SLOAD SWAP1 PUSH2 0x100 EXP SWAP1 DIV PUSH1 0xFF AND ISZERO SWAP1 POP PUSH0 DUP3 PUSH0 ADD PUSH0 SWAP1 SLOAD SWAP1 PUSH2 0x100 EXP SWAP1 DIV PUSH8 0xFFFFFFFFFFFFFFFF AND SWAP1 POP PUSH0 DUP1 DUP3 PUSH8 0xFFFFFFFFFFFFFFFF AND EQ DUP1 ISZERO PUSH2 0x101A JUMPI POP DUP3 JUMPDEST SWAP1 POP PUSH0 PUSH1 0x1 DUP4 PUSH8 0xFFFFFFFFFFFFFFFF AND EQ DUP1 ISZERO PUSH2 0x104D JUMPI POP PUSH0 ADDRESS PUSH20 0xFFFFFFFFFFFFFFFFFFFFFFFFFFFFFFFFFFFFFFFF AND EXTCODESIZE EQ JUMPDEST SWAP1 POP DUP2 ISZERO DUP1 ISZERO PUSH2 0x105B JUMPI POP DUP1 ISZERO JUMPDEST ISZERO PUSH2 0x1092 JUMPI PUSH1 0x40 MLOAD PUSH32 0xF92EE8A900000000000000000000000000000000000000000000000000000000 DUP2 MSTORE PUSH1 0x4 ADD PUSH1 0x40 MLOAD DUP1 SWAP2 SUB SWAP1 REVERT JUMPDEST PUSH1 0x1 DUP6 PUSH0 ADD PUSH0 PUSH2 0x100 EXP DUP2 SLOAD DUP2 PUSH8 0xFFFFFFFFFFFFFFFF MUL NOT AND SWAP1 DUP4 PUSH8 0xFFFFFFFFFFFFFFFF AND MUL OR SWAP1 SSTORE POP DUP4 ISZERO PUSH2 0x10DF JUMPI PUSH1 0x1 DUP6 PUSH0 ADD PUSH1 0x8 PUSH2 0x100 EXP DUP2 SLOAD DUP2 PUSH1 0xFF MUL NOT AND SWAP1 DUP4 ISZERO ISZERO MUL OR SWAP1 SSTORE POP JUMPDEST PUSH2 0x10E7 PUSH2 0x1D62 JUMP JUMPDEST PUSH2 0x10EF PUSH2 0x1D74 JUMP JUMPDEST PUSH2 0x10F7 PUSH2 0x1D7E JUMP JUMPDEST PUSH2 0x1103 PUSH0 DUP1 SHL DUP10 PUSH2 0x1787 JUMP JUMPDEST POP PUSH2 0x112E PUSH32 0x65D7A28E3265B37A6474929F336521B332C1681B933F6CB9F3376673440D862A DUP9 PUSH2 0x1787 JUMP JUMPDEST POP PUSH2 0x1159 PUSH32 0x189AB7A9244DF0848122154315AF71FE140F3DB0FE014031783B0946B8C9D2E3 DUP8 PUSH2 0x1787 JUMP JUMPDEST POP DUP4 ISZERO PUSH2 0x11B4 JUMPI PUSH0 DUP6 PUSH0 ADD PUSH1 0x8 PUSH2 0x100 EXP DUP2 SLOAD DUP2 PUSH1 0xFF MUL NOT AND SWAP1 DUP4 ISZERO ISZERO MUL OR SWAP1 SSTORE POP PUSH32 0xC7F505B2F371AE2175EE4913F4499E1F2633A7B5936321EED1CDAEB6115181D2 PUSH1 0x1 PUSH1 0x40 MLOAD PUSH2 0x11AB SWAP2 SWAP1 PUSH2 0x2E2C JUMP JUMPDEST PUSH1 0x40 MLOAD DUP1 SWAP2 SUB SWAP1 LOG1 JUMPDEST POP POP POP POP POP POP POP POP JUMP JUMPDEST PUSH0 PUSH1 0x1 DUP1 SLOAD SWAP1 POP GT PUSH2 0x1205 JUMPI PUSH1 0x40 MLOAD PUSH32 0x8C379A000000000000000000000000000000000000000000000000000000000 DUP2 MSTORE PUSH1 0x4 ADD PUSH2 0x11FC SWAP1 PUSH2 0x2AFE JUMP JUMPDEST PUSH1 0x40 MLOAD DUP1 SWAP2 SUB SWAP1 REVERT JUMPDEST PUSH0 PUSH1 0x1 DUP1 DUP1 DUP1 SLOAD SWAP1 POP PUSH2 0x1218 SWAP2 SWAP1 PUSH2 0x2B49 JUMP JUMPDEST DUP2 SLOAD DUP2 LT PUSH2 0x1229 JUMPI PUSH2 0x1228 PUSH2 0x2B7C JUMP JUMPDEST JUMPDEST SWAP1 PUSH0 MSTORE PUSH1 0x20 PUSH0 KECCAK256 ADD DUP1 SLOAD PUSH2 0x123C SWAP1 PUSH2 0x2A84 JUMP JUMPDEST DUP1 PUSH1 0x1F ADD PUSH1 0x20 DUP1 SWAP2 DIV MUL PUSH1 0x20 ADD PUSH1 0x40 MLOAD SWAP1 DUP2 ADD PUSH1 0x40 MSTORE DUP1 SWAP3 SWAP2 SWAP1 DUP2 DUP2 MSTORE PUSH1 0x20 ADD DUP3 DUP1 SLOAD PUSH2 0x1268 SWAP1 PUSH2 0x2A84 JUMP JUMPDEST DUP1 ISZERO PUSH2 0x12B3 JUMPI DUP1 PUSH1 0x1F LT PUSH2 0x128A JUMPI PUSH2 0x100 DUP1 DUP4 SLOAD DIV MUL DUP4 MSTORE SWAP2 PUSH1 0x20 ADD SWAP2 PUSH2 0x12B3 JUMP JUMPDEST DUP3 ADD SWAP2 SWAP1 PUSH0 MSTORE PUSH1 0x20 PUSH0 KECCAK256 SWAP1 JUMPDEST DUP2 SLOAD DUP2 MSTORE SWAP1 PUSH1 0x1 ADD SWAP1 PUSH1 0x20 ADD DUP1 DUP4 GT PUSH2 0x1296 JUMPI DUP3 SWAP1 SUB PUSH1 0x1F AND DUP3 ADD SWAP2 JUMPDEST POP POP POP POP POP SWAP1 POP PUSH0 DUP2 PUSH1 0x40 MLOAD PUSH2 0x12C9 SWAP2 SWAP1 PUSH2 0x2BE3 JUMP JUMPDEST SWAP1 DUP2 MSTORE PUSH1 0x20 ADD PUSH1 0x40 MLOAD DUP1 SWAP2 SUB SWAP1 KECCAK256 PUSH1 0x6 ADD PUSH0 SWAP1 SLOAD SWAP1 PUSH2 0x100 EXP SWAP1 DIV PUSH1 0xFF AND PUSH2 0x1326 JUMPI PUSH1 0x40 MLOAD PUSH32 0x8C379A000000000000000000000000000000000000000000000000000000000 DUP2 MSTORE PUSH1 0x4 ADD PUSH2 0x131D SWAP1 PUSH2 0x2C43 JUMP JUMPDEST PUSH1 0x40 MLOAD DUP1 SWAP2 SUB SWAP1 REVERT JUMPDEST PUSH32 0xF31A94B3B4C854E5A4ADEA9F6082AB58856D3750C9A0182C2D9641BDA7C09FC5 PUSH0 DUP3 PUSH1 0x40 MLOAD PUSH2 0x1356 SWAP2 SWAP1 PUSH2 0x2BE3 JUMP JUMPDEST SWAP1 DUP2 MSTORE PUSH1 0x20 ADD PUSH1 0x40 MLOAD DUP1 SWAP2 SUB SWAP1 KECCAK256 PUSH1 0x2 ADD PUSH0 DUP4 PUSH1 0x40 MLOAD PUSH2 0x1376 SWAP2 SWAP1 PUSH2 0x2BE3 JUMP JUMPDEST SWAP1 DUP2 MSTORE PUSH1 0x20 ADD PUSH1 0x40 MLOAD DUP1 SWAP2 SUB SWAP1 KECCAK256 PUSH1 0x5 ADD PUSH1 0x40 MLOAD PUSH2 0x1395 SWAP3 SWAP2 SWAP1 PUSH2 0x2ED8 JUMP JUMPDEST PUSH1 0x40 MLOAD DUP1 SWAP2 SUB SWAP1 LOG1 POP JUMP JUMPDEST PUSH2 0x13A9 DUP3 PUSH2 0x5FF JUMP JUMPDEST PUSH2 0x13B2 DUP2 PUSH2 0x1773 JUMP JUMPDEST PUSH2 0x13BC DUP4 DUP4 PUSH2 0x1886 JUMP JUMPDEST POP POP POP POP JUMP JUMPDEST POP POP JUMP JUMPDEST PUSH32 0x65D7A28E3265B37A6474929F336521B332C1681B933F6CB9F3376673440D862A DUP2 JUMP JUMPDEST PUSH0 DUP5 DUP5 TIMESTAMP PUSH1 0x40 MLOAD PUSH1 0x20 ADD PUSH2 0x1400 SWAP4 SWAP3 SWAP2 SWAP1 PUSH2 0x2D71 JUMP JUMPDEST PUSH1 0x40 MLOAD PUSH1 0x20 DUP2 DUP4 SUB SUB DUP2 MSTORE SWAP1 PUSH1 0x40 MSTORE SWAP1 POP PUSH1 0x40 MLOAD DUP1 PUSH2 0x100 ADD PUSH1 0x40 MSTORE DUP1 CALLER PUSH20 0xFFFFFFFFFFFFFFFFFFFFFFFFFFFFFFFFFFFFFFFF AND DUP2 MSTORE PUSH1 0x20 ADD DUP8 PUSH20 0xFFFFFFFFFFFFFFFFFFFFFFFFFFFFFFFFFFFFFFFF AND DUP2 MSTORE PUSH1 0x20 ADD DUP7 DUP2 MSTORE PUSH1 0x20 ADD DUP6 DUP2 MSTORE PUSH1 0x20 ADD DUP5 DUP2 MSTORE PUSH1 0x20 ADD DUP4 DUP2 MSTORE PUSH1 0x20 ADD PUSH0 ISZERO ISZERO DUP2 MSTORE PUSH1 0x20 ADD PUSH0 ISZERO ISZERO DUP2 MSTORE POP PUSH0 DUP3 PUSH1 0x40 MLOAD PUSH2 0x148A SWAP2 SWAP1 PUSH2 0x2BE3 JUMP JUMPDEST SWAP1 DUP2 MSTORE PUSH1 0x20 ADD PUSH1 0x40 MLOAD DUP1 SWAP2 SUB SWAP1 KECCAK256 PUSH0 DUP3 ADD MLOAD DUP2 PUSH0 ADD PUSH0 PUSH2 0x100 EXP DUP2 SLOAD DUP2 PUSH20 0xFFFFFFFFFFFFFFFFFFFFFFFFFFFFFFFFFFFFFFFF MUL NOT AND SWAP1 DUP4 PUSH20 0xFFFFFFFFFFFFFFFFFFFFFFFFFFFFFFFFFFFFFFFF AND MUL OR SWAP1 SSTORE POP PUSH1 0x20 DUP3 ADD MLOAD DUP2 PUSH1 0x1 ADD PUSH0 PUSH2 0x100 EXP DUP2 SLOAD DUP2 PUSH20 0xFFFFFFFFFFFFFFFFFFFFFFFFFFFFFFFFFFFFFFFF MUL NOT AND SWAP1 DUP4 PUSH20 0xFFFFFFFFFFFFFFFFFFFFFFFFFFFFFFFFFFFFFFFF AND MUL OR SWAP1 SSTORE POP PUSH1 0x40 DUP3 ADD MLOAD DUP2 PUSH1 0x2 ADD SWAP1 DUP2 PUSH2 0x1537 SWAP2 SWAP1 PUSH2 0x308F JUMP JUMPDEST POP PUSH1 0x60 DUP3 ADD MLOAD DUP2 PUSH1 0x3 ADD SSTORE PUSH1 0x80 DUP3 ADD MLOAD DUP2 PUSH1 0x4 ADD SSTORE PUSH1 0xA0 DUP3 ADD MLOAD DUP2 PUSH1 0x5 ADD SWAP1 DUP2 PUSH2 0x1561 SWAP2 SWAP1 PUSH2 0x308F JUMP JUMPDEST POP PUSH1 0xC0 DUP3 ADD MLOAD DUP2 PUSH1 0x6 ADD PUSH0 PUSH2 0x100 EXP DUP2 SLOAD DUP2 PUSH1 0xFF MUL NOT AND SWAP1 DUP4 ISZERO ISZERO MUL OR SWAP1 SSTORE POP PUSH1 0xE0 DUP3 ADD MLOAD DUP2 PUSH1 0x6 ADD PUSH1 0x1 PUSH2 0x100 EXP DUP2 SLOAD DUP2 PUSH1 0xFF MUL NOT AND SWAP1 DUP4 ISZERO ISZERO MUL OR SWAP1 SSTORE POP SWAP1 POP POP PUSH1 0x1 DUP2 SWAP1 DUP1 PUSH1 0x1 DUP2 SLOAD ADD DUP1 DUP3 SSTORE DUP1 SWAP2 POP POP PUSH1 0x1 SWAP1 SUB SWAP1 PUSH0 MSTORE PUSH1 0x20 PUSH0 KECCAK256 ADD PUSH0 SWAP1 SWAP2 SWAP1 SWAP2 SWAP1 SWAP2 POP SWAP1 DUP2 PUSH2 0x15D5 SWAP2 SWAP1 PUSH2 0x308F JUMP JUMPDEST POP PUSH32 0x7511EECA77B6245674AA0ED9CFC29C93005CA6C461F25CA4DCBB0FDB80E003C9 CALLER DUP3 DUP8 PUSH1 0x40 MLOAD PUSH2 0x1609 SWAP4 SWAP3 SWAP2 SWAP1 PUSH2 0x315E JUMP JUMPDEST PUSH1 0x40 MLOAD DUP1 SWAP2 SUB SWAP1 LOG1 POP POP POP POP POP POP JUMP JUMPDEST PUSH32 0x189AB7A9244DF0848122154315AF71FE140F3DB0FE014031783B0946B8C9D2E3 DUP2 JUMP JUMPDEST PUSH1 0x1 DUP2 DUP2 SLOAD DUP2 LT PUSH2 0x164C JUMPI PUSH0 DUP1 REVERT JUMPDEST SWAP1 PUSH0 MSTORE PUSH1 0x20 PUSH0 KECCAK256 ADD PUSH0 SWAP2 POP SWAP1 POP DUP1 SLOAD PUSH2 0x1664 SWAP1 PUSH2 0x2A84 JUMP JUMPDEST DUP1 PUSH1 0x1F ADD PUSH1 0x20 DUP1 SWAP2 DIV MUL PUSH1 0x20 ADD PUSH1 0x40 MLOAD SWAP1 DUP2 ADD PUSH1 0x40 MSTORE DUP1 SWAP3 SWAP2 SWAP1 DUP2 DUP2 MSTORE PUSH1 0x20 ADD DUP3 DUP1 SLOAD PUSH2 0x1690 SWAP1 PUSH2 0x2A84 JUMP JUMPDEST DUP1 ISZERO PUSH2 0x16DB JUMPI DUP1 PUSH1 0x1F LT PUSH2 0x16B2 JUMPI PUSH2 0x100 DUP1 DUP4 SLOAD DIV MUL DUP4 MSTORE SWAP2 PUSH1 0x20 ADD SWAP2 PUSH2 0x16DB JUMP JUMPDEST DUP3 ADD SWAP2 SWAP1 PUSH0 MSTORE PUSH1 0x20 PUSH0 KECCAK256 SWAP1 JUMPDEST DUP2 SLOAD DUP2 MSTORE SWAP1 PUSH1 0x1 ADD SWAP1 PUSH1 0x20 ADD DUP1 DUP4 GT PUSH2 0x16BE JUMPI DUP3 SWAP1 SUB PUSH1 0x1F AND DUP3 ADD SWAP2 JUMPDEST POP POP POP POP POP DUP2 JUMP JUMPDEST PUSH0 PUSH32 0x1FFC9A700000000000000000000000000000000000000000000000000000000 PUSH28 0xFFFFFFFFFFFFFFFFFFFFFFFFFFFFFFFFFFFFFFFFFFFFFFFFFFFFFFFF NOT AND DUP3 PUSH28 0xFFFFFFFFFFFFFFFFFFFFFFFFFFFFFFFFFFFFFFFFFFFFFFFFFFFFFFFF NOT AND EQ SWAP1 POP SWAP2 SWAP1 POP JUMP JUMPDEST PUSH0 PUSH32 0x2DD7BC7DEC4DCEEDDA775E58DD541E08A116C6C53815C0BD028192F7B626800 SWAP1 POP SWAP1 JUMP JUMPDEST PUSH2 0x1784 DUP2 PUSH2 0x177F PUSH2 0x187F JUMP JUMPDEST PUSH2 0x1D88 JUMP JUMPDEST POP JUMP JUMPDEST PUSH0 DUP1 PUSH2 0x1791 PUSH2 0x174C JUMP JUMPDEST SWAP1 POP PUSH2 0x179D DUP5 DUP5 PUSH2 0xF19 JUMP JUMPDEST PUSH2 0x1874 JUMPI PUSH1 0x1 DUP2 PUSH0 ADD PUSH0 DUP7 DUP2 MSTORE PUSH1 0x20 ADD SWAP1 DUP2 MSTORE PUSH1 0x20 ADD PUSH0 KECCAK256 PUSH0 ADD PUSH0 DUP6 PUSH20 0xFFFFFFFFFFFFFFFFFFFFFFFFFFFFFFFFFFFFFFFF AND PUSH20 0xFFFFFFFFFFFFFFFFFFFFFFFFFFFFFFFFFFFFFFFF AND DUP2 MSTORE PUSH1 0x20 ADD SWAP1 DUP2 MSTORE PUSH1 0x20 ADD PUSH0 KECCAK256 PUSH0 PUSH2 0x100 EXP DUP2 SLOAD DUP2 PUSH1 0xFF MUL NOT AND SWAP1 DUP4 ISZERO ISZERO MUL OR SWAP1 SSTORE POP PUSH2 0x1810 PUSH2 0x187F JUMP JUMPDEST PUSH20 0xFFFFFFFFFFFFFFFFFFFFFFFFFFFFFFFFFFFFFFFF AND DUP4 PUSH20 0xFFFFFFFFFFFFFFFFFFFFFFFFFFFFFFFFFFFFFFFF AND DUP6 PUSH32 0x2F8788117E7EFF1D82E926EC794901D17C78024A50270940304540A733656F0D PUSH1 0x40 MLOAD PUSH1 0x40 MLOAD DUP1 SWAP2 SUB SWAP1 LOG4 PUSH1 0x1 SWAP2 POP POP PUSH2 0x1879 JUMP JUMPDEST PUSH0 SWAP2 POP POP JUMPDEST SWAP3 SWAP2 POP POP JUMP JUMPDEST PUSH0 CALLER SWAP1 POP SWAP1 JUMP JUMPDEST PUSH0 DUP1 PUSH2 0x1890 PUSH2 0x174C JUMP JUMPDEST SWAP1 POP PUSH2 0x189C DUP5 DUP5 PUSH2 0xF19 JUMP JUMPDEST ISZERO PUSH2 0x1973 JUMPI PUSH0 DUP2 PUSH0 ADD PUSH0 DUP7 DUP2 MSTORE PUSH1 0x20 ADD SWAP1 DUP2 MSTORE PUSH1 0x20 ADD PUSH0 KECCAK256 PUSH0 ADD PUSH0 DUP6 PUSH20 0xFFFFFFFFFFFFFFFFFFFFFFFFFFFFFFFFFFFFFFFF AND PUSH20 0xFFFFFFFFFFFFFFFFFFFFFFFFFFFFFFFFFFFFFFFF AND DUP2 MSTORE PUSH1 0x20 ADD SWAP1 DUP2 MSTORE PUSH1 0x20 ADD PUSH0 KECCAK256 PUSH0 PUSH2 0x100 EXP DUP2 SLOAD DUP2 PUSH1 0xFF MUL NOT AND SWAP1 DUP4 ISZERO ISZERO MUL OR SWAP1 SSTORE POP PUSH2 0x190F PUSH2 0x187F JUMP JUMPDEST PUSH20 0xFFFFFFFFFFFFFFFFFFFFFFFFFFFFFFFFFFFFFFFF AND DUP4 PUSH20 0xFFFFFFFFFFFFFFFFFFFFFFFFFFFFFFFFFFFFFFFF AND DUP6 PUSH32 0xF6391F5C32D9C69D2A47EA670B442974B53935D1EDC7FD64EB21E047A839171B PUSH1 0x40 MLOAD PUSH1 0x40 MLOAD DUP1 SWAP2 SUB SWAP1 LOG4 PUSH1 0x1 SWAP2 POP POP PUSH2 0x1978 JUMP JUMPDEST PUSH0 SWAP2 POP POP JUMPDEST SWAP3 SWAP2 POP POP JUMP JUMPDEST PUSH2 0x1986 PUSH2 0x1DD9 JUMP JUMPDEST PUSH0 PUSH2 0x198F PUSH2 0x1CA5 JUMP JUMPDEST SWAP1 POP PUSH0 DUP2 PUSH0 ADD PUSH0 PUSH2 0x100 EXP DUP2 SLOAD DUP2 PUSH1 0xFF MUL NOT AND SWAP1 DUP4 ISZERO ISZERO MUL OR SWAP1 SSTORE POP PUSH32 0x5DB9EE0A495BF2E6FF9C91A7834C1BA4FDD244A5E8AA4E537BD38AEAE4B073AA PUSH2 0x19D4 PUSH2 0x187F JUMP JUMPDEST PUSH1 0x40 MLOAD PUSH2 0x19E1 SWAP2 SWAP1 PUSH2 0x31A1 JUMP JUMPDEST PUSH1 0x40 MLOAD DUP1 SWAP2 SUB SWAP1 LOG1 POP JUMP JUMPDEST PUSH32 0x0 PUSH20 0xFFFFFFFFFFFFFFFFFFFFFFFFFFFFFFFFFFFFFFFF AND ADDRESS PUSH20 0xFFFFFFFFFFFFFFFFFFFFFFFFFFFFFFFFFFFFFFFF AND EQ DUP1 PUSH2 0x1A99 JUMPI POP PUSH32 0x0 PUSH20 0xFFFFFFFFFFFFFFFFFFFFFFFFFFFFFFFFFFFFFFFF AND PUSH2 0x1A80 PUSH2 0x1E19 JUMP JUMPDEST PUSH20 0xFFFFFFFFFFFFFFFFFFFFFFFFFFFFFFFFFFFFFFFF AND EQ ISZERO JUMPDEST ISZERO PUSH2 0x1AD0 JUMPI PUSH1 0x40 MLOAD PUSH32 0xE07C8DBA00000000000000000000000000000000000000000000000000000000 DUP2 MSTORE PUSH1 0x4 ADD PUSH1 0x40 MLOAD DUP1 SWAP2 SUB SWAP1 REVERT JUMPDEST JUMP JUMPDEST PUSH32 0x189AB7A9244DF0848122154315AF71FE140F3DB0FE014031783B0946B8C9D2E3 PUSH2 0x1AFC DUP2 PUSH2 0x1773 JUMP JUMPDEST POP POP JUMP JUMPDEST DUP2 PUSH20 0xFFFFFFFFFFFFFFFFFFFFFFFFFFFFFFFFFFFFFFFF AND PUSH4 0x52D1902D PUSH1 0x40 MLOAD DUP2 PUSH4 0xFFFFFFFF AND PUSH1 0xE0 SHL DUP2 MSTORE PUSH1 0x4 ADD PUSH1 0x20 PUSH1 0x40 MLOAD DUP1 DUP4 SUB DUP2 DUP7 GAS STATICCALL SWAP3 POP POP POP DUP1 ISZERO PUSH2 0x1B68 JUMPI POP PUSH1 0x40 MLOAD RETURNDATASIZE PUSH1 0x1F NOT PUSH1 0x1F DUP3 ADD AND DUP3 ADD DUP1 PUSH1 0x40 MSTORE POP DUP2 ADD SWAP1 PUSH2 0x1B65 SWAP2 SWAP1 PUSH2 0x31CE JUMP JUMPDEST PUSH1 0x1 JUMPDEST PUSH2 0x1BA9 JUMPI DUP2 PUSH1 0x40 MLOAD PUSH32 0x4C9C8CE300000000000000000000000000000000000000000000000000000000 DUP2 MSTORE PUSH1 0x4 ADD PUSH2 0x1BA0 SWAP2 SWAP1 PUSH2 0x31A1 JUMP JUMPDEST PUSH1 0x40 MLOAD DUP1 SWAP2 SUB SWAP1 REVERT JUMPDEST PUSH32 0x360894A13BA1A3210667C828492DB98DCA3E2076CC3735A920A3CA505D382BBC PUSH0 SHL DUP2 EQ PUSH2 0x1C0F JUMPI DUP1 PUSH1 0x40 MLOAD PUSH32 0xAA1D49A400000000000000000000000000000000000000000000000000000000 DUP2 MSTORE PUSH1 0x4 ADD PUSH2 0x1C06 SWAP2 SWAP1 PUSH2 0x233D JUMP JUMPDEST PUSH1 0x40 MLOAD DUP1 SWAP2 SUB SWAP1 REVERT JUMPDEST PUSH2 0x1C19 DUP4 DUP4 PUSH2 0x1E6C JUMP JUMPDEST POP POP POP JUMP JUMPDEST PUSH32 0x0 PUSH20 0xFFFFFFFFFFFFFFFFFFFFFFFFFFFFFFFFFFFFFFFF AND ADDRESS PUSH20 0xFFFFFFFFFFFFFFFFFFFFFFFFFFFFFFFFFFFFFFFF AND EQ PUSH2 0x1CA3 JUMPI PUSH1 0x40 MLOAD PUSH32 0xE07C8DBA00000000000000000000000000000000000000000000000000000000 DUP2 MSTORE PUSH1 0x4 ADD PUSH1 0x40 MLOAD DUP1 SWAP2 SUB SWAP1 REVERT JUMPDEST JUMP JUMPDEST PUSH0 PUSH32 0xCD5ED15C6E187E77E9AEE88184C21F4F2182AB5827CB3B7E07FBEDCD63F03300 SWAP1 POP SWAP1 JUMP JUMPDEST PUSH2 0x1CD4 PUSH2 0x1EDE JUMP JUMPDEST PUSH0 PUSH2 0x1CDD PUSH2 0x1CA5 JUMP JUMPDEST SWAP1 POP PUSH1 0x1 DUP2 PUSH0 ADD PUSH0 PUSH2 0x100 EXP DUP2 SLOAD DUP2 PUSH1 0xFF MUL NOT AND SWAP1 DUP4 ISZERO ISZERO MUL OR SWAP1 SSTORE POP PUSH32 0x62E78CEA01BEE320CD4E420270B5EA74000D11B0C9F74754EBDBFC544B05A258 PUSH2 0x1D23 PUSH2 0x187F JUMP JUMPDEST PUSH1 0x40 MLOAD PUSH2 0x1D30 SWAP2 SWAP1 PUSH2 0x31A1 JUMP JUMPDEST PUSH1 0x40 MLOAD DUP1 SWAP2 SUB SWAP1 LOG1 POP JUMP JUMPDEST PUSH0 PUSH32 0xF0C57E16840DF040F15088DC2F81FE391C3923BEC73E23A9662EFC9C229C6A00 SWAP1 POP SWAP1 JUMP JUMPDEST PUSH2 0x1D6A PUSH2 0x1F1F JUMP JUMPDEST PUSH2 0x1D72 PUSH2 0x1F5F JUMP JUMPDEST JUMP JUMPDEST PUSH2 0x1D7C PUSH2 0x1F1F JUMP JUMPDEST JUMP JUMPDEST PUSH2 0x1D86 PUSH2 0x1F1F JUMP JUMPDEST JUMP JUMPDEST PUSH2 0x1D92 DUP3 DUP3 PUSH2 0xF19 JUMP JUMPDEST PUSH2 0x1DD5 JUMPI DUP1 DUP3 PUSH1 0x40 MLOAD PUSH32 0xE2517D3F00000000000000000000000000000000000000000000000000000000 DUP2 MSTORE PUSH1 0x4 ADD PUSH2 0x1DCC SWAP3 SWAP2 SWAP1 PUSH2 0x31F9 JUMP JUMPDEST PUSH1 0x40 MLOAD DUP1 SWAP2 SUB SWAP1 REVERT JUMPDEST POP POP JUMP JUMPDEST PUSH2 0x1DE1 PUSH2 0x909 JUMP JUMPDEST PUSH2 0x1E17 JUMPI PUSH1 0x40 MLOAD PUSH32 0x8DFC202B00000000000000000000000000000000000000000000000000000000 DUP2 MSTORE PUSH1 0x4 ADD PUSH1 0x40 MLOAD DUP1 SWAP2 SUB SWAP1 REVERT JUMPDEST JUMP JUMPDEST PUSH0 PUSH2 0x1E45 PUSH32 0x360894A13BA1A3210667C828492DB98DCA3E2076CC3735A920A3CA505D382BBC PUSH0 SHL PUSH2 0x1F8F JUMP JUMPDEST PUSH0 ADD PUSH0 SWAP1 SLOAD SWAP1 PUSH2 0x100 EXP SWAP1 DIV PUSH20 0xFFFFFFFFFFFFFFFFFFFFFFFFFFFFFFFFFFFFFFFF AND SWAP1 POP SWAP1 JUMP JUMPDEST PUSH2 0x1E75 DUP3 PUSH2 0x1F98 JUMP JUMPDEST DUP2 PUSH20 0xFFFFFFFFFFFFFFFFFFFFFFFFFFFFFFFFFFFFFFFF AND PUSH32 0xBC7CD75A20EE27FD9ADEBAB32041F755214DBC6BFFA90CC0225B39DA2E5C2D3B PUSH1 0x40 MLOAD PUSH1 0x40 MLOAD DUP1 SWAP2 SUB SWAP1 LOG2 PUSH0 DUP2 MLOAD GT ISZERO PUSH2 0x1ED1 JUMPI PUSH2 0x1ECB DUP3 DUP3 PUSH2 0x2061 JUMP JUMPDEST POP PUSH2 0x1EDA JUMP JUMPDEST PUSH2 0x1ED9 PUSH2 0x20E1 JUMP JUMPDEST JUMPDEST POP POP JUMP JUMPDEST PUSH2 0x1EE6 PUSH2 0x909 JUMP JUMPDEST ISZERO PUSH2 0x1F1D JUMPI PUSH1 0x40 MLOAD PUSH32 0xD93C066500000000000000000000000000000000000000000000000000000000 DUP2 MSTORE PUSH1 0x4 ADD PUSH1 0x40 MLOAD DUP1 SWAP2 SUB SWAP1 REVERT JUMPDEST JUMP JUMPDEST PUSH2 0x1F27 PUSH2 0x211D JUMP JUMPDEST PUSH2 0x1F5D JUMPI PUSH1 0x40 MLOAD PUSH32 0xD7E6BCF800000000000000000000000000000000000000000000000000000000 DUP2 MSTORE PUSH1 0x4 ADD PUSH1 0x40 MLOAD DUP1 SWAP2 SUB SWAP1 REVERT JUMPDEST JUMP JUMPDEST PUSH2 0x1F67 PUSH2 0x1F1F JUMP JUMPDEST PUSH0 PUSH2 0x1F70 PUSH2 0x1CA5 JUMP JUMPDEST SWAP1 POP PUSH0 DUP2 PUSH0 ADD PUSH0 PUSH2 0x100 EXP DUP2 SLOAD DUP2 PUSH1 0xFF MUL NOT AND SWAP1 DUP4 ISZERO ISZERO MUL OR SWAP1 SSTORE POP POP JUMP JUMPDEST PUSH0 DUP2 SWAP1 POP SWAP2 SWAP1 POP JUMP JUMPDEST PUSH0 DUP2 PUSH20 0xFFFFFFFFFFFFFFFFFFFFFFFFFFFFFFFFFFFFFFFF AND EXTCODESIZE SUB PUSH2 0x1FF3 JUMPI DUP1 PUSH1 0x40 MLOAD PUSH32 0x4C9C8CE300000000000000000000000000000000000000000000000000000000 DUP2 MSTORE PUSH1 0x4 ADD PUSH2 0x1FEA SWAP2 SWAP1 PUSH2 0x31A1 JUMP JUMPDEST PUSH1 0x40 MLOAD DUP1 SWAP2 SUB SWAP1 REVERT JUMPDEST DUP1 PUSH2 0x201F PUSH32 0x360894A13BA1A3210667C828492DB98DCA3E2076CC3735A920A3CA505D382BBC PUSH0 SHL PUSH2 0x1F8F JUMP JUMPDEST PUSH0 ADD PUSH0 PUSH2 0x100 EXP DUP2 SLOAD DUP2 PUSH20 0xFFFFFFFFFFFFFFFFFFFFFFFFFFFFFFFFFFFFFFFF MUL NOT AND SWAP1 DUP4 PUSH20 0xFFFFFFFFFFFFFFFFFFFFFFFFFFFFFFFFFFFFFFFF AND MUL OR SWAP1 SSTORE POP POP JUMP JUMPDEST PUSH1 0x60 PUSH0 DUP1 DUP5 PUSH20 0xFFFFFFFFFFFFFFFFFFFFFFFFFFFFFFFFFFFFFFFF AND DUP5 PUSH1 0x40 MLOAD PUSH2 0x208A SWAP2 SWAP1 PUSH2 0x3264 JUMP JUMPDEST PUSH0 PUSH1 0x40 MLOAD DUP1 DUP4 SUB DUP2 DUP6 GAS DELEGATECALL SWAP2 POP POP RETURNDATASIZE DUP1 PUSH0 DUP2 EQ PUSH2 0x20C2 JUMPI PUSH1 0x40 MLOAD SWAP2 POP PUSH1 0x1F NOT PUSH1 0x3F RETURNDATASIZE ADD AND DUP3 ADD PUSH1 0x40 MSTORE RETURNDATASIZE DUP3 MSTORE RETURNDATASIZE PUSH0 PUSH1 0x20 DUP5 ADD RETURNDATACOPY PUSH2 0x20C7 JUMP JUMPDEST PUSH1 0x60 SWAP2 POP JUMPDEST POP SWAP2 POP SWAP2 POP PUSH2 0x20D7 DUP6 DUP4 DUP4 PUSH2 0x213B JUMP JUMPDEST SWAP3 POP POP POP SWAP3 SWAP2 POP POP JUMP JUMPDEST PUSH0 CALLVALUE GT ISZERO PUSH2 0x211B JUMPI PUSH1 0x40 MLOAD PUSH32 0xB398979F00000000000000000000000000000000000000000000000000000000 DUP2 MSTORE PUSH1 0x4 ADD PUSH1 0x40 MLOAD DUP1 SWAP2 SUB SWAP1 REVERT JUMPDEST JUMP JUMPDEST PUSH0 PUSH2 0x2126 PUSH2 0x1D3B JUMP JUMPDEST PUSH0 ADD PUSH1 0x8 SWAP1 SLOAD SWAP1 PUSH2 0x100 EXP SWAP1 DIV PUSH1 0xFF AND SWAP1 POP SWAP1 JUMP JUMPDEST PUSH1 0x60 DUP3 PUSH2 0x2150 JUMPI PUSH2 0x214B DUP3 PUSH2 0x21C8 JUMP JUMPDEST PUSH2 0x21C0 JUMP JUMPDEST PUSH0 DUP3 MLOAD EQ DUP1 ISZERO PUSH2 0x2176 JUMPI POP PUSH0 DUP5 PUSH20 0xFFFFFFFFFFFFFFFFFFFFFFFFFFFFFFFFFFFFFFFF AND EXTCODESIZE EQ JUMPDEST ISZERO PUSH2 0x21B8 JUMPI DUP4 PUSH1 0x40 MLOAD PUSH32 0x9996B31500000000000000000000000000000000000000000000000000000000 DUP2 MSTORE PUSH1 0x4 ADD PUSH2 0x21AF SWAP2 SWAP1 PUSH2 0x31A1 JUMP JUMPDEST PUSH1 0x40 MLOAD DUP1 SWAP2 SUB SWAP1 REVERT JUMPDEST DUP2 SWAP1 POP PUSH2 0x21C1 JUMP JUMPDEST JUMPDEST SWAP4 SWAP3 POP POP POP JUMP JUMPDEST PUSH0 DUP2 MLOAD GT ISZERO PUSH2 0x21DA JUMPI DUP1 MLOAD DUP1 DUP3 PUSH1 0x20 ADD REVERT JUMPDEST PUSH1 0x40 MLOAD PUSH32 0x1425EA4200000000000000000000000000000000000000000000000000000000 DUP2 MSTORE PUSH1 0x4 ADD PUSH1 0x40 MLOAD DUP1 SWAP2 SUB SWAP1 REVERT JUMPDEST PUSH0 PUSH1 0x40 MLOAD SWAP1 POP SWAP1 JUMP JUMPDEST PUSH0 DUP1 REVERT JUMPDEST PUSH0 DUP1 REVERT JUMPDEST PUSH0 PUSH32 0xFFFFFFFF00000000000000000000000000000000000000000000000000000000 DUP3 AND SWAP1 POP SWAP2 SWAP1 POP JUMP JUMPDEST PUSH2 0x2251 DUP2 PUSH2 0x221D JUMP JUMPDEST DUP2 EQ PUSH2 0x225B JUMPI PUSH0 DUP1 REVERT JUMPDEST POP JUMP JUMPDEST PUSH0 DUP2 CALLDATALOAD SWAP1 POP PUSH2 0x226C DUP2 PUSH2 0x2248 JUMP JUMPDEST SWAP3 SWAP2 POP POP JUMP JUMPDEST PUSH0 PUSH1 0x20 DUP3 DUP5 SUB SLT ISZERO PUSH2 0x2287 JUMPI PUSH2 0x2286 PUSH2 0x2215 JUMP JUMPDEST JUMPDEST PUSH0 PUSH2 0x2294 DUP5 DUP3 DUP6 ADD PUSH2 0x225E JUMP JUMPDEST SWAP2 POP POP SWAP3 SWAP2 POP POP JUMP JUMPDEST PUSH0 DUP2 ISZERO ISZERO SWAP1 POP SWAP2 SWAP1 POP JUMP JUMPDEST PUSH2 0x22B1 DUP2 PUSH2 0x229D JUMP JUMPDEST DUP3 MSTORE POP POP JUMP JUMPDEST PUSH0 PUSH1 0x20 DUP3 ADD SWAP1 POP PUSH2 0x22CA PUSH0 DUP4 ADD DUP5 PUSH2 0x22A8 JUMP JUMPDEST SWAP3 SWAP2 POP POP JUMP JUMPDEST PUSH0 DUP2 SWAP1 POP SWAP2 SWAP1 POP JUMP JUMPDEST PUSH2 0x22E2 DUP2 PUSH2 0x22D0 JUMP JUMPDEST DUP2 EQ PUSH2 0x22EC JUMPI PUSH0 DUP1 REVERT JUMPDEST POP JUMP JUMPDEST PUSH0 DUP2 CALLDATALOAD SWAP1 POP PUSH2 0x22FD DUP2 PUSH2 0x22D9 JUMP JUMPDEST SWAP3 SWAP2 POP POP JUMP JUMPDEST PUSH0 PUSH1 0x20 DUP3 DUP5 SUB SLT ISZERO PUSH2 0x2318 JUMPI PUSH2 0x2317 PUSH2 0x2215 JUMP JUMPDEST JUMPDEST PUSH0 PUSH2 0x2325 DUP5 DUP3 DUP6 ADD PUSH2 0x22EF JUMP JUMPDEST SWAP2 POP POP SWAP3 SWAP2 POP POP JUMP JUMPDEST PUSH2 0x2337 DUP2 PUSH2 0x22D0 JUMP JUMPDEST DUP3 MSTORE POP POP JUMP JUMPDEST PUSH0 PUSH1 0x20 DUP3 ADD SWAP1 POP PUSH2 0x2350 PUSH0 DUP4 ADD DUP5 PUSH2 0x232E JUMP JUMPDEST SWAP3 SWAP2 POP POP JUMP JUMPDEST PUSH0 PUSH20 0xFFFFFFFFFFFFFFFFFFFFFFFFFFFFFFFFFFFFFFFF DUP3 AND SWAP1 POP SWAP2 SWAP1 POP JUMP JUMPDEST PUSH0 PUSH2 0x237F DUP3 PUSH2 0x2356 JUMP JUMPDEST SWAP1 POP SWAP2 SWAP1 POP JUMP JUMPDEST PUSH2 0x238F DUP2 PUSH2 0x2375 JUMP JUMPDEST DUP2 EQ PUSH2 0x2399 JUMPI PUSH0 DUP1 REVERT JUMPDEST POP JUMP JUMPDEST PUSH0 DUP2 CALLDATALOAD SWAP1 POP PUSH2 0x23AA DUP2 PUSH2 0x2386 JUMP JUMPDEST SWAP3 SWAP2 POP POP JUMP JUMPDEST PUSH0 DUP1 PUSH1 0x40 DUP4 DUP6 SUB SLT ISZERO PUSH2 0x23C6 JUMPI PUSH2 0x23C5 PUSH2 0x2215 JUMP JUMPDEST JUMPDEST PUSH0 PUSH2 0x23D3 DUP6 DUP3 DUP7 ADD PUSH2 0x22EF JUMP JUMPDEST SWAP3 POP POP PUSH1 0x20 PUSH2 0x23E4 DUP6 DUP3 DUP7 ADD PUSH2 0x239C JUMP JUMPDEST SWAP2 POP POP SWAP3 POP SWAP3 SWAP1 POP JUMP JUMPDEST PUSH0 DUP1 REVERT JUMPDEST PUSH0 DUP1 REVERT JUMPDEST PUSH0 PUSH1 0x1F NOT PUSH1 0x1F DUP4 ADD AND SWAP1 POP SWAP2 SWAP1 POP JUMP JUMPDEST PUSH32 0x4E487B7100000000000000000000000000000000000000000000000000000000 PUSH0 MSTORE PUSH1 0x41 PUSH1 0x4 MSTORE PUSH1 0x24 PUSH0 REVERT JUMPDEST PUSH2 0x243C DUP3 PUSH2 0x23F6 JUMP JUMPDEST DUP2 ADD DUP2 DUP2 LT PUSH8 0xFFFFFFFFFFFFFFFF DUP3 GT OR ISZERO PUSH2 0x245B JUMPI PUSH2 0x245A PUSH2 0x2406 JUMP JUMPDEST JUMPDEST DUP1 PUSH1 0x40 MSTORE POP POP POP JUMP JUMPDEST PUSH0 PUSH2 0x246D PUSH2 0x220C JUMP JUMPDEST SWAP1 POP PUSH2 0x2479 DUP3 DUP3 PUSH2 0x2433 JUMP JUMPDEST SWAP2 SWAP1 POP JUMP JUMPDEST PUSH0 PUSH8 0xFFFFFFFFFFFFFFFF DUP3 GT ISZERO PUSH2 0x2498 JUMPI PUSH2 0x2497 PUSH2 0x2406 JUMP JUMPDEST JUMPDEST PUSH2 0x24A1 DUP3 PUSH2 0x23F6 JUMP JUMPDEST SWAP1 POP PUSH1 0x20 DUP2 ADD SWAP1 POP SWAP2 SWAP1 POP JUMP JUMPDEST DUP3 DUP2 DUP4 CALLDATACOPY PUSH0 DUP4 DUP4 ADD MSTORE POP POP POP JUMP JUMPDEST PUSH0 PUSH2 0x24CE PUSH2 0x24C9 DUP5 PUSH2 0x247E JUMP JUMPDEST PUSH2 0x2464 JUMP JUMPDEST SWAP1 POP DUP3 DUP2 MSTORE PUSH1 0x20 DUP2 ADD DUP5 DUP5 DUP5 ADD GT ISZERO PUSH2 0x24EA JUMPI PUSH2 0x24E9 PUSH2 0x23F2 JUMP JUMPDEST JUMPDEST PUSH2 0x24F5 DUP5 DUP3 DUP6 PUSH2 0x24AE JUMP JUMPDEST POP SWAP4 SWAP3 POP POP POP JUMP JUMPDEST PUSH0 DUP3 PUSH1 0x1F DUP4 ADD SLT PUSH2 0x2511 JUMPI PUSH2 0x2510 PUSH2 0x23EE JUMP JUMPDEST JUMPDEST DUP2 CALLDATALOAD PUSH2 0x2521 DUP5 DUP3 PUSH1 0x20 DUP7 ADD PUSH2 0x24BC JUMP JUMPDEST SWAP2 POP POP SWAP3 SWAP2 POP POP JUMP JUMPDEST PUSH0 PUSH1 0x20 DUP3 DUP5 SUB SLT ISZERO PUSH2 0x253F JUMPI PUSH2 0x253E PUSH2 0x2215 JUMP JUMPDEST JUMPDEST PUSH0 DUP3 ADD CALLDATALOAD PUSH8 0xFFFFFFFFFFFFFFFF DUP2 GT ISZERO PUSH2 0x255C JUMPI PUSH2 0x255B PUSH2 0x2219 JUMP JUMPDEST JUMPDEST PUSH2 0x2568 DUP5 DUP3 DUP6 ADD PUSH2 0x24FD JUMP JUMPDEST SWAP2 POP POP SWAP3 SWAP2 POP POP JUMP JUMPDEST PUSH2 0x257A DUP2 PUSH2 0x2375 JUMP JUMPDEST DUP3 MSTORE POP POP JUMP JUMPDEST PUSH0 DUP2 MLOAD SWAP1 POP SWAP2 SWAP1 POP JUMP JUMPDEST PUSH0 DUP3 DUP3 MSTORE PUSH1 0x20 DUP3 ADD SWAP1 POP SWAP3 SWAP2 POP POP JUMP JUMPDEST PUSH0 JUMPDEST DUP4 DUP2 LT ISZERO PUSH2 0x25B7 JUMPI DUP1 DUP3 ADD MLOAD DUP2 DUP5 ADD MSTORE PUSH1 0x20 DUP2 ADD SWAP1 POP PUSH2 0x259C JUMP JUMPDEST PUSH0 DUP5 DUP5 ADD MSTORE POP POP POP POP JUMP JUMPDEST PUSH0 PUSH2 0x25CC DUP3 PUSH2 0x2580 JUMP JUMPDEST PUSH2 0x25D6 DUP2 DUP6 PUSH2 0x258A JUMP JUMPDEST SWAP4 POP PUSH2 0x25E6 DUP2 DUP6 PUSH1 0x20 DUP7 ADD PUSH2 0x259A JUMP JUMPDEST PUSH2 0x25EF DUP2 PUSH2 0x23F6 JUMP JUMPDEST DUP5 ADD SWAP2 POP POP SWAP3 SWAP2 POP POP JUMP JUMPDEST PUSH0 DUP2 SWAP1 POP SWAP2 SWAP1 POP JUMP JUMPDEST PUSH2 0x260C DUP2 PUSH2 0x25FA JUMP JUMPDEST DUP3 MSTORE POP POP JUMP JUMPDEST PUSH0 PUSH2 0x100 DUP3 ADD SWAP1 POP PUSH2 0x2626 PUSH0 DUP4 ADD DUP12 PUSH2 0x2571 JUMP JUMPDEST PUSH2 0x2633 PUSH1 0x20 DUP4 ADD DUP11 PUSH2 0x2571 JUMP JUMPDEST DUP2 DUP2 SUB PUSH1 0x40 DUP4 ADD MSTORE PUSH2 0x2645 DUP2 DUP10 PUSH2 0x25C2 JUMP JUMPDEST SWAP1 POP PUSH2 0x2654 PUSH1 0x60 DUP4 ADD DUP9 PUSH2 0x2603 JUMP JUMPDEST PUSH2 0x2661 PUSH1 0x80 DUP4 ADD DUP8 PUSH2 0x2603 JUMP JUMPDEST DUP2 DUP2 SUB PUSH1 0xA0 DUP4 ADD MSTORE PUSH2 0x2673 DUP2 DUP7 PUSH2 0x25C2 JUMP JUMPDEST SWAP1 POP PUSH2 0x2682 PUSH1 0xC0 DUP4 ADD DUP6 PUSH2 0x22A8 JUMP JUMPDEST PUSH2 0x268F PUSH1 0xE0 DUP4 ADD DUP5 PUSH2 0x22A8 JUMP JUMPDEST SWAP10 SWAP9 POP POP POP POP POP POP POP POP POP JUMP JUMPDEST PUSH0 PUSH8 0xFFFFFFFFFFFFFFFF DUP3 GT ISZERO PUSH2 0x26B6 JUMPI PUSH2 0x26B5 PUSH2 0x2406 JUMP JUMPDEST JUMPDEST PUSH2 0x26BF DUP3 PUSH2 0x23F6 JUMP JUMPDEST SWAP1 POP PUSH1 0x20 DUP2 ADD SWAP1 POP SWAP2 SWAP1 POP JUMP JUMPDEST PUSH0 PUSH2 0x26DE PUSH2 0x26D9 DUP5 PUSH2 0x269C JUMP JUMPDEST PUSH2 0x2464 JUMP JUMPDEST SWAP1 POP DUP3 DUP2 MSTORE PUSH1 0x20 DUP2 ADD DUP5 DUP5 DUP5 ADD GT ISZERO PUSH2 0x26FA JUMPI PUSH2 0x26F9 PUSH2 0x23F2 JUMP JUMPDEST JUMPDEST PUSH2 0x2705 DUP5 DUP3 DUP6 PUSH2 0x24AE JUMP JUMPDEST POP SWAP4 SWAP3 POP POP POP JUMP JUMPDEST PUSH0 DUP3 PUSH1 0x1F DUP4 ADD SLT PUSH2 0x2721 JUMPI PUSH2 0x2720 PUSH2 0x23EE JUMP JUMPDEST JUMPDEST DUP2 CALLDATALOAD PUSH2 0x2731 DUP5 DUP3 PUSH1 0x20 DUP7 ADD PUSH2 0x26CC JUMP JUMPDEST SWAP2 POP POP SWAP3 SWAP2 POP POP JUMP JUMPDEST PUSH0 DUP1 PUSH1 0x40 DUP4 DUP6 SUB SLT ISZERO PUSH2 0x2750 JUMPI PUSH2 0x274F PUSH2 0x2215 JUMP JUMPDEST JUMPDEST PUSH0 PUSH2 0x275D DUP6 DUP3 DUP7 ADD PUSH2 0x239C JUMP JUMPDEST SWAP3 POP POP PUSH1 0x20 DUP4 ADD CALLDATALOAD PUSH8 0xFFFFFFFFFFFFFFFF DUP2 GT ISZERO PUSH2 0x277E JUMPI PUSH2 0x277D PUSH2 0x2219 JUMP JUMPDEST JUMPDEST PUSH2 0x278A DUP6 DUP3 DUP7 ADD PUSH2 0x270D JUMP JUMPDEST SWAP2 POP POP SWAP3 POP SWAP3 SWAP1 POP JUMP JUMPDEST PUSH2 0x279D DUP2 PUSH2 0x25FA JUMP JUMPDEST DUP2 EQ PUSH2 0x27A7 JUMPI PUSH0 DUP1 REVERT JUMPDEST POP JUMP JUMPDEST PUSH0 DUP2 CALLDATALOAD SWAP1 POP PUSH2 0x27B8 DUP2 PUSH2 0x2794 JUMP JUMPDEST SWAP3 SWAP2 POP POP JUMP JUMPDEST PUSH0 DUP1 PUSH1 0x40 DUP4 DUP6 SUB SLT ISZERO PUSH2 0x27D4 JUMPI PUSH2 0x27D3 PUSH2 0x2215 JUMP JUMPDEST JUMPDEST PUSH0 PUSH2 0x27E1 DUP6 DUP3 DUP7 ADD PUSH2 0x27AA JUMP JUMPDEST SWAP3 POP POP PUSH1 0x20 DUP4 ADD CALLDATALOAD PUSH8 0xFFFFFFFFFFFFFFFF DUP2 GT ISZERO PUSH2 0x2802 JUMPI PUSH2 0x2801 PUSH2 0x2219 JUMP JUMPDEST JUMPDEST PUSH2 0x280E DUP6 DUP3 DUP7 ADD PUSH2 0x24FD JUMP JUMPDEST SWAP2 POP POP SWAP3 POP SWAP3 SWAP1 POP JUMP JUMPDEST PUSH0 DUP1 PUSH1 0x40 DUP4 DUP6 SUB SLT ISZERO PUSH2 0x282E JUMPI PUSH2 0x282D PUSH2 0x2215 JUMP JUMPDEST JUMPDEST PUSH0 DUP4 ADD CALLDATALOAD PUSH8 0xFFFFFFFFFFFFFFFF DUP2 GT ISZERO PUSH2 0x284B JUMPI PUSH2 0x284A PUSH2 0x2219 JUMP JUMPDEST JUMPDEST PUSH2 0x2857 DUP6 DUP3 DUP7 ADD PUSH2 0x24FD JUMP JUMPDEST SWAP3 POP POP PUSH1 0x20 PUSH2 0x2868 DUP6 DUP3 DUP7 ADD PUSH2 0x27AA JUMP JUMPDEST SWAP2 POP POP SWAP3 POP SWAP3 SWAP1 POP JUMP JUMPDEST PUSH0 DUP1 PUSH0 DUP1 PUSH0 PUSH1 0xA0 DUP7 DUP9 SUB SLT ISZERO PUSH2 0x288B JUMPI PUSH2 0x288A PUSH2 0x2215 JUMP JUMPDEST JUMPDEST PUSH0 PUSH2 0x2898 DUP9 DUP3 DUP10 ADD PUSH2 0x239C JUMP JUMPDEST SWAP6 POP POP PUSH1 0x20 DUP7 ADD CALLDATALOAD PUSH8 0xFFFFFFFFFFFFFFFF DUP2 GT ISZERO PUSH2 0x28B9 JUMPI PUSH2 0x28B8 PUSH2 0x2219 JUMP JUMPDEST JUMPDEST PUSH2 0x28C5 DUP9 DUP3 DUP10 ADD PUSH2 0x24FD JUMP JUMPDEST SWAP5 POP POP PUSH1 0x40 PUSH2 0x28D6 DUP9 DUP3 DUP10 ADD PUSH2 0x27AA JUMP JUMPDEST SWAP4 POP POP PUSH1 0x60 PUSH2 0x28E7 DUP9 DUP3 DUP10 ADD PUSH2 0x27AA JUMP JUMPDEST SWAP3 POP POP PUSH1 0x80 DUP7 ADD CALLDATALOAD PUSH8 0xFFFFFFFFFFFFFFFF DUP2 GT ISZERO PUSH2 0x2908 JUMPI PUSH2 0x2907 PUSH2 0x2219 JUMP JUMPDEST JUMPDEST PUSH2 0x2914 DUP9 DUP3 DUP10 ADD PUSH2 0x24FD JUMP JUMPDEST SWAP2 POP POP SWAP3 SWAP6 POP SWAP3 SWAP6 SWAP1 SWAP4 POP JUMP JUMPDEST PUSH0 PUSH1 0x20 DUP3 ADD SWAP1 POP DUP2 DUP2 SUB PUSH0 DUP4 ADD MSTORE PUSH2 0x2939 DUP2 DUP5 PUSH2 0x25C2 JUMP JUMPDEST SWAP1 POP SWAP3 SWAP2 POP POP JUMP JUMPDEST PUSH0 DUP1 PUSH0 PUSH1 0x60 DUP5 DUP7 SUB SLT ISZERO PUSH2 0x2958 JUMPI PUSH2 0x2957 PUSH2 0x2215 JUMP JUMPDEST JUMPDEST PUSH0 PUSH2 0x2965 DUP7 DUP3 DUP8 ADD PUSH2 0x239C JUMP JUMPDEST SWAP4 POP POP PUSH1 0x20 PUSH2 0x2976 DUP7 DUP3 DUP8 ADD PUSH2 0x239C JUMP JUMPDEST SWAP3 POP POP PUSH1 0x40 PUSH2 0x2987 DUP7 DUP3 DUP8 ADD PUSH2 0x239C JUMP JUMPDEST SWAP2 POP POP SWAP3 POP SWAP3 POP SWAP3 JUMP JUMPDEST PUSH0 DUP2 SWAP1 POP SWAP2 SWAP1 POP JUMP JUMPDEST PUSH2 0x29A3 DUP2 PUSH2 0x2991 JUMP JUMPDEST DUP2 EQ PUSH2 0x29AD JUMPI PUSH0 DUP1 REVERT JUMPDEST POP JUMP JUMPDEST PUSH0 DUP2 CALLDATALOAD SWAP1 POP PUSH2 0x29BE DUP2 PUSH2 0x299A JUMP JUMPDEST SWAP3 SWAP2 POP POP JUMP JUMPDEST PUSH2 0x29CD DUP2 PUSH2 0x229D JUMP JUMPDEST DUP2 EQ PUSH2 0x29D7 JUMPI PUSH0 DUP1 REVERT JUMPDEST POP JUMP JUMPDEST PUSH0 DUP2 CALLDATALOAD SWAP1 POP PUSH2 0x29E8 DUP2 PUSH2 0x29C4 JUMP JUMPDEST SWAP3 SWAP2 POP POP JUMP JUMPDEST PUSH0 DUP1 PUSH1 0x40 DUP4 DUP6 SUB SLT ISZERO PUSH2 0x2A04 JUMPI PUSH2 0x2A03 PUSH2 0x2215 JUMP JUMPDEST JUMPDEST PUSH0 PUSH2 0x2A11 DUP6 DUP3 DUP7 ADD PUSH2 0x29B0 JUMP JUMPDEST SWAP3 POP POP PUSH1 0x20 PUSH2 0x2A22 DUP6 DUP3 DUP7 ADD PUSH2 0x29DA JUMP JUMPDEST SWAP2 POP POP SWAP3 POP SWAP3 SWAP1 POP JUMP JUMPDEST PUSH0 PUSH1 0x20 DUP3 DUP5 SUB SLT ISZERO PUSH2 0x2A41 JUMPI PUSH2 0x2A40 PUSH2 0x2215 JUMP JUMPDEST JUMPDEST PUSH0 PUSH2 0x2A4E DUP5 DUP3 DUP6 ADD PUSH2 0x29B0 JUMP JUMPDEST SWAP2 POP POP SWAP3 SWAP2 POP POP JUMP JUMPDEST PUSH32 0x4E487B7100000000000000000000000000000000000000000000000000000000 PUSH0 MSTORE PUSH1 0x22 PUSH1 0x4 MSTORE PUSH1 0x24 PUSH0 REVERT JUMPDEST PUSH0 PUSH1 0x2 DUP3 DIV SWAP1 POP PUSH1 0x1 DUP3 AND DUP1 PUSH2 0x2A9B JUMPI PUSH1 0x7F DUP3 AND SWAP2 POP JUMPDEST PUSH1 0x20 DUP3 LT DUP2 SUB PUSH2 0x2AAE JUMPI PUSH2 0x2AAD PUSH2 0x2A57 JUMP JUMPDEST JUMPDEST POP SWAP2 SWAP1 POP JUMP JUMPDEST PUSH32 0x4E6F2074726164657320617661696C61626C6500000000000000000000000000 PUSH0 DUP3 ADD MSTORE POP JUMP JUMPDEST PUSH0 PUSH2 0x2AE8 PUSH1 0x13 DUP4 PUSH2 0x258A JUMP JUMPDEST SWAP2 POP PUSH2 0x2AF3 DUP3 PUSH2 0x2AB4 JUMP JUMPDEST PUSH1 0x20 DUP3 ADD SWAP1 POP SWAP2 SWAP1 POP JUMP JUMPDEST PUSH0 PUSH1 0x20 DUP3 ADD SWAP1 POP DUP2 DUP2 SUB PUSH0 DUP4 ADD MSTORE PUSH2 0x2B15 DUP2 PUSH2 0x2ADC JUMP JUMPDEST SWAP1 POP SWAP2 SWAP1 POP JUMP JUMPDEST PUSH32 0x4E487B7100000000000000000000000000000000000000000000000000000000 PUSH0 MSTORE PUSH1 0x11 PUSH1 0x4 MSTORE PUSH1 0x24 PUSH0 REVERT JUMPDEST PUSH0 PUSH2 0x2B53 DUP3 PUSH2 0x2991 JUMP JUMPDEST SWAP2 POP PUSH2 0x2B5E DUP4 PUSH2 0x2991 JUMP JUMPDEST SWAP3 POP DUP3 DUP3 SUB SWAP1 POP DUP2 DUP2 GT ISZERO PUSH2 0x2B76 JUMPI PUSH2 0x2B75 PUSH2 0x2B1C JUMP JUMPDEST JUMPDEST SWAP3 SWAP2 POP POP JUMP JUMPDEST PUSH32 0x4E487B7100000000000000000000000000000000000000000000000000000000 PUSH0 MSTORE PUSH1 0x32 PUSH1 0x4 MSTORE PUSH1 0x24 PUSH0 REVERT JUMPDEST PUSH0 DUP2 SWAP1 POP SWAP3 SWAP2 POP POP JUMP JUMPDEST PUSH0 PUSH2 0x2BBD DUP3 PUSH2 0x2580 JUMP JUMPDEST PUSH2 0x2BC7 DUP2 DUP6 PUSH2 0x2BA9 JUMP JUMPDEST SWAP4 POP PUSH2 0x2BD7 DUP2 DUP6 PUSH1 0x20 DUP7 ADD PUSH2 0x259A JUMP JUMPDEST DUP1 DUP5 ADD SWAP2 POP POP SWAP3 SWAP2 POP POP JUMP JUMPDEST PUSH0 PUSH2 0x2BEE DUP3 DUP5 PUSH2 0x2BB3 JUMP JUMPDEST SWAP2 POP DUP2 SWAP1 POP SWAP3 SWAP2 POP POP JUMP JUMPDEST PUSH32 0x5472616465206E6F7420636F6E6669726D656400000000000000000000000000 PUSH0 DUP3 ADD MSTORE POP JUMP JUMPDEST PUSH0 PUSH2 0x2C2D PUSH1 0x13 DUP4 PUSH2 0x258A JUMP JUMPDEST SWAP2 POP PUSH2 0x2C38 DUP3 PUSH2 0x2BF9 JUMP JUMPDEST PUSH1 0x20 DUP3 ADD SWAP1 POP SWAP2 SWAP1 POP JUMP JUMPDEST PUSH0 PUSH1 0x20 DUP3 ADD SWAP1 POP DUP2 DUP2 SUB PUSH0 DUP4 ADD MSTORE PUSH2 0x2C5A DUP2 PUSH2 0x2C21 JUMP JUMPDEST SWAP1 POP SWAP2 SWAP1 POP JUMP JUMPDEST PUSH32 0x4E6F742074686520696E69746961746F72000000000000000000000000000000 PUSH0 DUP3 ADD MSTORE POP JUMP JUMPDEST PUSH0 PUSH2 0x2C95 PUSH1 0x11 DUP4 PUSH2 0x258A JUMP JUMPDEST SWAP2 POP PUSH2 0x2CA0 DUP3 PUSH2 0x2C61 JUMP JUMPDEST PUSH1 0x20 DUP3 ADD SWAP1 POP SWAP2 SWAP1 POP JUMP JUMPDEST PUSH0 PUSH1 0x20 DUP3 ADD SWAP1 POP DUP2 DUP2 SUB PUSH0 DUP4 ADD MSTORE PUSH2 0x2CC2 DUP2 PUSH2 0x2C89 JUMP JUMPDEST SWAP1 POP SWAP2 SWAP1 POP JUMP JUMPDEST PUSH32 0x4E6F742074686520636F756E7465727061727479000000000000000000000000 PUSH0 DUP3 ADD MSTORE POP JUMP JUMPDEST PUSH0 PUSH2 0x2CFD PUSH1 0x14 DUP4 PUSH2 0x258A JUMP JUMPDEST SWAP2 POP PUSH2 0x2D08 DUP3 PUSH2 0x2CC9 JUMP JUMPDEST PUSH1 0x20 DUP3 ADD SWAP1 POP SWAP2 SWAP1 POP JUMP JUMPDEST PUSH0 PUSH1 0x20 DUP3 ADD SWAP1 POP DUP2 DUP2 SUB PUSH0 DUP4 ADD MSTORE PUSH2 0x2D2A DUP2 PUSH2 0x2CF1 JUMP JUMPDEST SWAP1 POP SWAP2 SWAP1 POP JUMP JUMPDEST PUSH0 DUP2 SWAP1 POP SWAP2 SWAP1 POP JUMP JUMPDEST PUSH2 0x2D4B PUSH2 0x2D46 DUP3 PUSH2 0x25FA JUMP JUMPDEST PUSH2 0x2D31 JUMP JUMPDEST DUP3 MSTORE POP POP JUMP JUMPDEST PUSH0 DUP2 SWAP1 POP SWAP2 SWAP1 POP JUMP JUMPDEST PUSH2 0x2D6B PUSH2 0x2D66 DUP3 PUSH2 0x2991 JUMP JUMPDEST PUSH2 0x2D51 JUMP JUMPDEST DUP3 MSTORE POP POP JUMP JUMPDEST PUSH0 PUSH2 0x2D7C DUP3 DUP7 PUSH2 0x2BB3 JUMP JUMPDEST SWAP2 POP PUSH2 0x2D88 DUP3 DUP6 PUSH2 0x2D3A JUMP JUMPDEST PUSH1 0x20 DUP3 ADD SWAP2 POP PUSH2 0x2D98 DUP3 DUP5 PUSH2 0x2D5A JUMP JUMPDEST PUSH1 0x20 DUP3 ADD SWAP2 POP DUP2 SWAP1 POP SWAP5 SWAP4 POP POP POP POP JUMP JUMPDEST PUSH0 PUSH1 0x40 DUP3 ADD SWAP1 POP PUSH2 0x2DBC PUSH0 DUP4 ADD DUP6 PUSH2 0x2571 JUMP JUMPDEST DUP2 DUP2 SUB PUSH1 0x20 DUP4 ADD MSTORE PUSH2 0x2DCE DUP2 DUP5 PUSH2 0x25C2 JUMP JUMPDEST SWAP1 POP SWAP4 SWAP3 POP POP POP JUMP JUMPDEST PUSH0 DUP2 SWAP1 POP SWAP2 SWAP1 POP JUMP JUMPDEST PUSH0 PUSH8 0xFFFFFFFFFFFFFFFF DUP3 AND SWAP1 POP SWAP2 SWAP1 POP JUMP JUMPDEST PUSH0 DUP2 SWAP1 POP SWAP2 SWAP1 POP JUMP JUMPDEST PUSH0 PUSH2 0x2E16 PUSH2 0x2E11 PUSH2 0x2E0C DUP5 PUSH2 0x2DD7 JUMP JUMPDEST PUSH2 0x2DF3 JUMP JUMPDEST PUSH2 0x2DE0 JUMP JUMPDEST SWAP1 POP SWAP2 SWAP1 POP JUMP JUMPDEST PUSH2 0x2E26 DUP2 PUSH2 0x2DFC JUMP JUMPDEST DUP3 MSTORE POP POP JUMP JUMPDEST PUSH0 PUSH1 0x20 DUP3 ADD SWAP1 POP PUSH2 0x2E3F PUSH0 DUP4 ADD DUP5 PUSH2 0x2E1D JUMP JUMPDEST SWAP3 SWAP2 POP POP JUMP JUMPDEST PUSH0 DUP2 SWAP1 POP DUP2 PUSH0 MSTORE PUSH1 0x20 PUSH0 KECCAK256 SWAP1 POP SWAP2 SWAP1 POP JUMP JUMPDEST PUSH0 DUP2 SLOAD PUSH2 0x2E63 DUP2 PUSH2 0x2A84 JUMP JUMPDEST PUSH2 0x2E6D DUP2 DUP7 PUSH2 0x258A JUMP JUMPDEST SWAP5 POP PUSH1 0x1 DUP3 AND PUSH0 DUP2 EQ PUSH2 0x2E87 JUMPI PUSH1 0x1 DUP2 EQ PUSH2 0x2E9D JUMPI PUSH2 0x2ECF JUMP JUMPDEST PUSH1 0xFF NOT DUP4 AND DUP7 MSTORE DUP2 ISZERO ISZERO PUSH1 0x20 MUL DUP7 ADD SWAP4 POP PUSH2 0x2ECF JUMP JUMPDEST PUSH2 0x2EA6 DUP6 PUSH2 0x2E45 JUMP JUMPDEST PUSH0 JUMPDEST DUP4 DUP2 LT ISZERO PUSH2 0x2EC7 JUMPI DUP2 SLOAD DUP2 DUP10 ADD MSTORE PUSH1 0x1 DUP3 ADD SWAP2 POP PUSH1 0x20 DUP2 ADD SWAP1 POP PUSH2 0x2EA8 JUMP JUMPDEST DUP1 DUP9 ADD SWAP6 POP POP POP JUMPDEST POP POP POP SWAP3 SWAP2 POP POP JUMP JUMPDEST PUSH0 PUSH1 0x40 DUP3 ADD SWAP1 POP DUP2 DUP2 SUB PUSH0 DUP4 ADD MSTORE PUSH2 0x2EF0 DUP2 DUP6 PUSH2 0x2E57 JUMP JUMPDEST SWAP1 POP DUP2 DUP2 SUB PUSH1 0x20 DUP4 ADD MSTORE PUSH2 0x2F04 DUP2 DUP5 PUSH2 0x2E57 JUMP JUMPDEST SWAP1 POP SWAP4 SWAP3 POP POP POP JUMP JUMPDEST PUSH0 PUSH1 0x20 PUSH1 0x1F DUP4 ADD DIV SWAP1 POP SWAP2 SWAP1 POP JUMP JUMPDEST PUSH0 DUP3 DUP3 SHL SWAP1 POP SWAP3 SWAP2 POP POP JUMP JUMPDEST PUSH0 PUSH1 0x8 DUP4 MUL PUSH2 0x2F57 PUSH32 0xFFFFFFFFFFFFFFFFFFFFFFFFFFFFFFFFFFFFFFFFFFFFFFFFFFFFFFFFFFFFFFFF DUP3 PUSH2 0x2F1C JUMP JUMPDEST PUSH2 0x2F61 DUP7 DUP4 PUSH2 0x2F1C JUMP JUMPDEST SWAP6 POP DUP1 NOT DUP5 AND SWAP4 POP DUP1 DUP7 AND DUP5 OR SWAP3 POP POP POP SWAP4 SWAP3 POP POP POP JUMP JUMPDEST PUSH0 PUSH2 0x2F93 PUSH2 0x2F8E PUSH2 0x2F89 DUP5 PUSH2 0x2991 JUMP JUMPDEST PUSH2 0x2DF3 JUMP JUMPDEST PUSH2 0x2991 JUMP JUMPDEST SWAP1 POP SWAP2 SWAP1 POP JUMP JUMPDEST PUSH0 DUP2 SWAP1 POP SWAP2 SWAP1 POP JUMP JUMPDEST PUSH2 0x2FAC DUP4 PUSH2 0x2F79 JUMP JUMPDEST PUSH2 0x2FC0 PUSH2 0x2FB8 DUP3 PUSH2 0x2F9A JUMP JUMPDEST DUP5 DUP5 SLOAD PUSH2 0x2F28 JUMP JUMPDEST DUP3 SSTORE POP POP POP POP JUMP JUMPDEST PUSH0 SWAP1 JUMP JUMPDEST PUSH2 0x2FD4 PUSH2 0x2FC8 JUMP JUMPDEST PUSH2 0x2FDF DUP2 DUP5 DUP5 PUSH2 0x2FA3 JUMP JUMPDEST POP POP POP JUMP JUMPDEST JUMPDEST DUP2 DUP2 LT ISZERO PUSH2 0x3002 JUMPI PUSH2 0x2FF7 PUSH0 DUP3 PUSH2 0x2FCC JUMP JUMPDEST PUSH1 0x1 DUP2 ADD SWAP1 POP PUSH2 0x2FE5 JUMP JUMPDEST POP POP JUMP JUMPDEST PUSH1 0x1F DUP3 GT ISZERO PUSH2 0x3047 JUMPI PUSH2 0x3018 DUP2 PUSH2 0x2E45 JUMP JUMPDEST PUSH2 0x3021 DUP5 PUSH2 0x2F0D JUMP JUMPDEST DUP2 ADD PUSH1 0x20 DUP6 LT ISZERO PUSH2 0x3030 JUMPI DUP2 SWAP1 POP JUMPDEST PUSH2 0x3044 PUSH2 0x303C DUP6 PUSH2 0x2F0D JUMP JUMPDEST DUP4 ADD DUP3 PUSH2 0x2FE4 JUMP JUMPDEST POP POP JUMPDEST POP POP POP JUMP JUMPDEST PUSH0 DUP3 DUP3 SHR SWAP1 POP SWAP3 SWAP2 POP POP JUMP JUMPDEST PUSH0 PUSH2 0x3067 PUSH0 NOT DUP5 PUSH1 0x8 MUL PUSH2 0x304C JUMP JUMPDEST NOT DUP1 DUP4 AND SWAP2 POP POP SWAP3 SWAP2 POP POP JUMP JUMPDEST PUSH0 PUSH2 0x307F DUP4 DUP4 PUSH2 0x3058 JUMP JUMPDEST SWAP2 POP DUP3 PUSH1 0x2 MUL DUP3 OR SWAP1 POP SWAP3 SWAP2 POP POP JUMP JUMPDEST PUSH2 0x3098 DUP3 PUSH2 0x2580 JUMP JUMPDEST PUSH8 0xFFFFFFFFFFFFFFFF DUP2 GT ISZERO PUSH2 0x30B1 JUMPI PUSH2 0x30B0 PUSH2 0x2406 JUMP JUMPDEST JUMPDEST PUSH2 0x30BB DUP3 SLOAD PUSH2 0x2A84 JUMP JUMPDEST PUSH2 0x30C6 DUP3 DUP3 DUP6 PUSH2 0x3006 JUMP JUMPDEST PUSH0 PUSH1 0x20 SWAP1 POP PUSH1 0x1F DUP4 GT PUSH1 0x1 DUP2 EQ PUSH2 0x30F7 JUMPI PUSH0 DUP5 ISZERO PUSH2 0x30E5 JUMPI DUP3 DUP8 ADD MLOAD SWAP1 POP JUMPDEST PUSH2 0x30EF DUP6 DUP3 PUSH2 0x3074 JUMP JUMPDEST DUP7 SSTORE POP PUSH2 0x3156 JUMP JUMPDEST PUSH1 0x1F NOT DUP5 AND PUSH2 0x3105 DUP7 PUSH2 0x2E45 JUMP JUMPDEST PUSH0 JUMPDEST DUP3 DUP2 LT ISZERO PUSH2 0x312C JUMPI DUP5 DUP10 ADD MLOAD DUP3 SSTORE PUSH1 0x1 DUP3 ADD SWAP2 POP PUSH1 0x20 DUP6 ADD SWAP5 POP PUSH1 0x20 DUP2 ADD SWAP1 POP PUSH2 0x3107 JUMP JUMPDEST DUP7 DUP4 LT ISZERO PUSH2 0x3149 JUMPI DUP5 DUP10 ADD MLOAD PUSH2 0x3145 PUSH1 0x1F DUP10 AND DUP3 PUSH2 0x3058 JUMP JUMPDEST DUP4 SSTORE POP JUMPDEST PUSH1 0x1 PUSH1 0x2 DUP9 MUL ADD DUP9 SSTORE POP POP POP JUMPDEST POP POP POP POP POP POP JUMP JUMPDEST PUSH0 PUSH1 0x60 DUP3 ADD SWAP1 POP PUSH2 0x3171 PUSH0 DUP4 ADD DUP7 PUSH2 0x2571 JUMP JUMPDEST DUP2 DUP2 SUB PUSH1 0x20 DUP4 ADD MSTORE PUSH2 0x3183 DUP2 DUP6 PUSH2 0x25C2 JUMP JUMPDEST SWAP1 POP DUP2 DUP2 SUB PUSH1 0x40 DUP4 ADD MSTORE PUSH2 0x3197 DUP2 DUP5 PUSH2 0x25C2 JUMP JUMPDEST SWAP1 POP SWAP5 SWAP4 POP POP POP POP JUMP JUMPDEST PUSH0 PUSH1 0x20 DUP3 ADD SWAP1 POP PUSH2 0x31B4 PUSH0 DUP4 ADD DUP5 PUSH2 0x2571 JUMP JUMPDEST SWAP3 SWAP2 POP POP JUMP JUMPDEST PUSH0 DUP2 MLOAD SWAP1 POP PUSH2 0x31C8 DUP2 PUSH2 0x22D9 JUMP JUMPDEST SWAP3 SWAP2 POP POP JUMP JUMPDEST PUSH0 PUSH1 0x20 DUP3 DUP5 SUB SLT ISZERO PUSH2 0x31E3 JUMPI PUSH2 0x31E2 PUSH2 0x2215 JUMP JUMPDEST JUMPDEST PUSH0 PUSH2 0x31F0 DUP5 DUP3 DUP6 ADD PUSH2 0x31BA JUMP JUMPDEST SWAP2 POP POP SWAP3 SWAP2 POP POP JUMP JUMPDEST PUSH0 PUSH1 0x40 DUP3 ADD SWAP1 POP PUSH2 0x320C PUSH0 DUP4 ADD DUP6 PUSH2 0x2571 JUMP JUMPDEST PUSH2 0x3219 PUSH1 0x20 DUP4 ADD DUP5 PUSH2 0x232E JUMP JUMPDEST SWAP4 SWAP3 POP POP POP JUMP JUMPDEST PUSH0 DUP2 MLOAD SWAP1 POP SWAP2 SWAP1 POP JUMP JUMPDEST PUSH0 DUP2 SWAP1 POP SWAP3 SWAP2 POP POP JUMP JUMPDEST PUSH0 PUSH2 0x323E DUP3 PUSH2 0x3220 JUMP JUMPDEST PUSH2 0x3248 DUP2 DUP6 PUSH2 0x322A JUMP JUMPDEST SWAP4 POP PUSH2 0x3258 DUP2 DUP6 PUSH1 0x20 DUP7 ADD PUSH2 0x259A JUMP JUMPDEST DUP1 DUP5 ADD SWAP2 POP POP SWAP3 SWAP2 POP POP JUMP JUMPDEST PUSH0 PUSH2 0x326F DUP3 DUP5 PUSH2 0x3234 JUMP JUMPDEST SWAP2 POP DUP2 SWAP1 POP SWAP3 SWAP2 POP POP JUMP INVALID LOG2 PUSH5 0x6970667358 0x22 SLT KECCAK256 PUSH15 0x58A25D3621642B7AE5B604F2CDA4E9 SWAP1 0xBF 0x4C GASPRICE 0xAF 0x29 0x23 0xF7 0xBB PUSH3 0x9189C9 PUSH13 0xCB3F64736F6C63430008180033 "
				},
				"gasEstimates": {
					"creation": {
						"codeDepositCost": "2595200",
						"executionCost": "infinite",
						"totalCost": "infinite"
					},
					"external": {
						"DEFAULT_ADMIN_ROLE()": "419",
						"PAUSER_ROLE()": "369",
						"UPGRADER_ROLE()": "413",
						"UPGRADE_INTERFACE_VERSION()": "infinite",
						"afterTransfer(uint256,bool)": "667",
						"confirmTrade(address,string,int256,int256,string)": "infinite",
						"confirmTradeTermination(string,int256)": "infinite",
						"getRoleAdmin(bytes32)": "infinite",
						"grantRole(bytes32,address)": "infinite",
						"hasRole(bytes32,address)": "3241",
						"inceptTrade(address,string,int256,int256,string)": "infinite",
						"initialize(address,address,address)": "infinite",
						"initiateSettlement()": "infinite",
						"pause()": "infinite",
						"paused()": "2592",
						"performSettlement(int256,string)": "infinite",
						"proxiableUUID()": "infinite",
						"renounceRole(bytes32,address)": "infinite",
						"requestTradeTermination(string,int256)": "infinite",
						"revokeRole(bytes32,address)": "infinite",
						"supportsInterface(bytes4)": "741",
						"tradeIds(uint256)": "infinite",
						"trades(string)": "infinite",
						"unpause()": "infinite",
						"upgradeToAndCall(address,bytes)": "infinite"
					},
					"internal": {
						"_authorizeUpgrade(address)": "infinite"
					}
				},
				"methodIdentifiers": {
					"DEFAULT_ADMIN_ROLE()": "a217fddf",
					"PAUSER_ROLE()": "e63ab1e9",
					"UPGRADER_ROLE()": "f72c0d8b",
					"UPGRADE_INTERFACE_VERSION()": "ad3cb1cc",
					"afterTransfer(uint256,bool)": "df2d0728",
					"confirmTrade(address,string,int256,int256,string)": "858f0e93",
					"confirmTradeTermination(string,int256)": "79648ed3",
					"getRoleAdmin(bytes32)": "248a9ca3",
					"grantRole(bytes32,address)": "2f2ff15d",
					"hasRole(bytes32,address)": "91d14854",
					"inceptTrade(address,string,int256,int256,string)": "ec11c4e9",
					"initialize(address,address,address)": "c0c53b8b",
					"initiateSettlement()": "c78b432e",
					"pause()": "8456cb59",
					"paused()": "5c975abb",
					"performSettlement(int256,string)": "6ba63956",
					"proxiableUUID()": "52d1902d",
					"renounceRole(bytes32,address)": "36568abe",
					"requestTradeTermination(string,int256)": "729d581c",
					"revokeRole(bytes32,address)": "d547741f",
					"supportsInterface(bytes4)": "01ffc9a7",
					"tradeIds(uint256)": "ff52c484",
					"trades(string)": "47a04100",
					"unpause()": "3f4ba83a",
					"upgradeToAndCall(address,bytes)": "4f1ef286"
				}
			},
			"storageLayout": {
				"storage": [
					{
						"astId": 1880,
						"contract": "contracts/Bond1.sol:Bond1",
						"label": "trades",
						"offset": 0,
						"slot": "0",
						"type": "t_mapping(t_string_memory_ptr,t_struct(Trade)1875_storage)"
					},
					{
						"astId": 1883,
						"contract": "contracts/Bond1.sol:Bond1",
						"label": "tradeIds",
						"offset": 0,
						"slot": "1",
						"type": "t_array(t_string_storage)dyn_storage"
					}
				],
				"types": {
					"t_address": {
						"encoding": "inplace",
						"label": "address",
						"numberOfBytes": "20"
					},
					"t_array(t_string_storage)dyn_storage": {
						"base": "t_string_storage",
						"encoding": "dynamic_array",
						"label": "string[]",
						"numberOfBytes": "32"
					},
					"t_bool": {
						"encoding": "inplace",
						"label": "bool",
						"numberOfBytes": "1"
					},
					"t_int256": {
						"encoding": "inplace",
						"label": "int256",
						"numberOfBytes": "32"
					},
					"t_mapping(t_string_memory_ptr,t_struct(Trade)1875_storage)": {
						"encoding": "mapping",
						"key": "t_string_memory_ptr",
						"label": "mapping(string => struct Bond1.Trade)",
						"numberOfBytes": "32",
						"value": "t_struct(Trade)1875_storage"
					},
					"t_string_memory_ptr": {
						"encoding": "bytes",
						"label": "string",
						"numberOfBytes": "32"
					},
					"t_string_storage": {
						"encoding": "bytes",
						"label": "string",
						"numberOfBytes": "32"
					},
					"t_struct(Trade)1875_storage": {
						"encoding": "inplace",
						"label": "struct Bond1.Trade",
						"members": [
							{
								"astId": 1860,
								"contract": "contracts/Bond1.sol:Bond1",
								"label": "initiator",
								"offset": 0,
								"slot": "0",
								"type": "t_address"
							},
							{
								"astId": 1862,
								"contract": "contracts/Bond1.sol:Bond1",
								"label": "counterparty",
								"offset": 0,
								"slot": "1",
								"type": "t_address"
							},
							{
								"astId": 1864,
								"contract": "contracts/Bond1.sol:Bond1",
								"label": "tradeData",
								"offset": 0,
								"slot": "2",
								"type": "t_string_storage"
							},
							{
								"astId": 1866,
								"contract": "contracts/Bond1.sol:Bond1",
								"label": "position",
								"offset": 0,
								"slot": "3",
								"type": "t_int256"
							},
							{
								"astId": 1868,
								"contract": "contracts/Bond1.sol:Bond1",
								"label": "paymentAmount",
								"offset": 0,
								"slot": "4",
								"type": "t_int256"
							},
							{
								"astId": 1870,
								"contract": "contracts/Bond1.sol:Bond1",
								"label": "initialSettlementData",
								"offset": 0,
								"slot": "5",
								"type": "t_string_storage"
							},
							{
								"astId": 1872,
								"contract": "contracts/Bond1.sol:Bond1",
								"label": "confirmed",
								"offset": 0,
								"slot": "6",
								"type": "t_bool"
							},
							{
								"astId": 1874,
								"contract": "contracts/Bond1.sol:Bond1",
								"label": "settled",
								"offset": 1,
								"slot": "6",
								"type": "t_bool"
							}
						],
						"numberOfBytes": "224"
					}
				}
			},
			"userdoc": {
				"kind": "user",
				"methods": {},
				"version": 1
			}
		}
	}
}