{
	"contracts/SmartContractWallet.sol": {
		"SmartContractWallet": {
			"abi": [
				{
					"inputs": [],
					"stateMutability": "nonpayable",
					"type": "constructor"
				},
				{
					"anonymous": false,
					"inputs": [
						{
							"indexed": true,
							"internalType": "address",
							"name": "from",
							"type": "address"
						},
						{
							"indexed": true,
							"internalType": "address",
							"name": "to",
							"type": "address"
						},
						{
							"indexed": false,
							"internalType": "uint256",
							"name": "amount",
							"type": "uint256"
						}
					],
					"name": "FundsSent",
					"type": "event"
				},
				{
					"anonymous": false,
					"inputs": [
						{
							"indexed": true,
							"internalType": "bytes32",
							"name": "messageHash",
							"type": "bytes32"
						},
						{
							"indexed": true,
							"internalType": "address",
							"name": "signer",
							"type": "address"
						}
					],
					"name": "MessageSigned",
					"type": "event"
				},
				{
					"anonymous": false,
					"inputs": [
						{
							"indexed": true,
							"internalType": "address",
							"name": "recipient",
							"type": "address"
						},
						{
							"indexed": false,
							"internalType": "uint256",
							"name": "amount",
							"type": "uint256"
						}
					],
					"name": "RequestSent",
					"type": "event"
				},
				{
					"inputs": [
						{
							"internalType": "bytes32",
							"name": "",
							"type": "bytes32"
						}
					],
					"name": "executedMessages",
					"outputs": [
						{
							"internalType": "bool",
							"name": "",
							"type": "bool"
						}
					],
					"stateMutability": "view",
					"type": "function"
				},
				{
					"inputs": [
						{
							"internalType": "bytes32",
							"name": "_data",
							"type": "bytes32"
						},
						{
							"internalType": "bytes",
							"name": "_signature",
							"type": "bytes"
						}
					],
					"name": "isValidSignature",
					"outputs": [
						{
							"internalType": "bytes4",
							"name": "magicValue",
							"type": "bytes4"
						}
					],
					"stateMutability": "view",
					"type": "function"
				},
				{
					"inputs": [],
					"name": "owner",
					"outputs": [
						{
							"internalType": "address",
							"name": "",
							"type": "address"
						}
					],
					"stateMutability": "view",
					"type": "function"
				},
				{
					"inputs": [
						{
							"internalType": "address payable",
							"name": "_to",
							"type": "address"
						}
					],
					"name": "sendFundsToContract",
					"outputs": [],
					"stateMutability": "payable",
					"type": "function"
				},
				{
					"inputs": [
						{
							"internalType": "string",
							"name": "_data",
							"type": "string"
						}
					],
					"name": "signMessage",
					"outputs": [],
					"stateMutability": "nonpayable",
					"type": "function"
				}
			],
			"devdoc": {
				"kind": "dev",
				"methods": {
					"isValidSignature(bytes32,bytes)": {
						"details": "Function to verify if the provided signature is valid for the given data.",
						"params": {
							"_data": "Hash of the data that was signed",
							"_signature": "Signature byte array associated with _data"
						},
						"returns": {
							"magicValue": "either 0x1626ba7e or 0x00000000 (0x1626ba7e if valid)"
						}
					}
				},
				"version": 1
			},
			"evm": {
				"assembly": "    /* \"contracts/SmartContractWallet.sol\":88:4639  contract SmartContractWallet is IERC1271 {... */\n  mstore(0x40, 0x80)\n    /* \"contracts/SmartContractWallet.sol\":619:670  constructor() {... */\n  callvalue\n  dup1\n  iszero\n  tag_1\n  jumpi\n  0x00\n  dup1\n  revert\ntag_1:\n  pop\n    /* \"contracts/SmartContractWallet.sol\":652:662  msg.sender */\n  caller\n    /* \"contracts/SmartContractWallet.sol\":644:649  owner */\n  0x00\n  dup1\n    /* \"contracts/SmartContractWallet.sol\":644:662  owner = msg.sender */\n  0x0100\n  exp\n  dup2\n  sload\n  dup2\n  0xffffffffffffffffffffffffffffffffffffffff\n  mul\n  not\n  and\n  swap1\n  dup4\n  0xffffffffffffffffffffffffffffffffffffffff\n  and\n  mul\n  or\n  swap1\n  sstore\n  pop\n    /* \"contracts/SmartContractWallet.sol\":88:4639  contract SmartContractWallet is IERC1271 {... */\n  dataSize(sub_0)\n  dup1\n  dataOffset(sub_0)\n  0x00\n  codecopy\n  0x00\n  return\nstop\n\nsub_0: assembly {\n        /* \"contracts/SmartContractWallet.sol\":88:4639  contract SmartContractWallet is IERC1271 {... */\n      mstore(0x40, 0x80)\n      jumpi(tag_1, lt(calldatasize, 0x04))\n      shr(0xe0, calldataload(0x00))\n      dup1\n      0x04be5387\n      eq\n      tag_2\n      jumpi\n      dup1\n      0x1626ba7e\n      eq\n      tag_3\n      jumpi\n      dup1\n      0x7229a894\n      eq\n      tag_4\n      jumpi\n      dup1\n      0x8da5cb5b\n      eq\n      tag_5\n      jumpi\n      dup1\n      0xcd2abd66\n      eq\n      tag_6\n      jumpi\n    tag_1:\n      0x00\n      dup1\n      revert\n        /* \"contracts/SmartContractWallet.sol\":4259:4636  function sendFundsToContract(address payable _to) external payable onlyOwner {... */\n    tag_2:\n      tag_7\n      0x04\n      dup1\n      calldatasize\n      sub\n      dup2\n      add\n      swap1\n      tag_8\n      swap2\n      swap1\n      tag_9\n      jump\t// in\n    tag_8:\n      tag_10\n      jump\t// in\n    tag_7:\n      stop\n        /* \"contracts/SmartContractWallet.sol\":987:1899  function isValidSignature(bytes32 _data, bytes memory _signature) external view override returns (bytes4 magicValue) {... */\n    tag_3:\n      callvalue\n      dup1\n      iszero\n      tag_11\n      jumpi\n      0x00\n      dup1\n      revert\n    tag_11:\n      pop\n      tag_12\n      0x04\n      dup1\n      calldatasize\n      sub\n      dup2\n      add\n      swap1\n      tag_13\n      swap2\n      swap1\n      tag_14\n      jump\t// in\n    tag_13:\n      tag_15\n      jump\t// in\n    tag_12:\n      mload(0x40)\n      tag_16\n      swap2\n      swap1\n      tag_17\n      jump\t// in\n    tag_16:\n      mload(0x40)\n      dup1\n      swap2\n      sub\n      swap1\n      return\n        /* \"contracts/SmartContractWallet.sol\":1907:2428  function signMessage(string memory _data) external onlyOwner {... */\n    tag_4:\n      callvalue\n      dup1\n      iszero\n      tag_18\n      jumpi\n      0x00\n      dup1\n      revert\n    tag_18:\n      pop\n      tag_19\n      0x04\n      dup1\n      calldatasize\n      sub\n      dup2\n      add\n      swap1\n      tag_20\n      swap2\n      swap1\n      tag_21\n      jump\t// in\n    tag_20:\n      tag_22\n      jump\t// in\n    tag_19:\n      stop\n        /* \"contracts/SmartContractWallet.sol\":136:156  address public owner */\n    tag_5:\n      callvalue\n      dup1\n      iszero\n      tag_23\n      jumpi\n      0x00\n      dup1\n      revert\n    tag_23:\n      pop\n      tag_24\n      tag_25\n      jump\t// in\n    tag_24:\n      mload(0x40)\n      tag_26\n      swap2\n      swap1\n      tag_27\n      jump\t// in\n    tag_26:\n      mload(0x40)\n      dup1\n      swap2\n      sub\n      swap1\n      return\n        /* \"contracts/SmartContractWallet.sol\":163:211  mapping(bytes32 => bool) public executedMessages */\n    tag_6:\n      callvalue\n      dup1\n      iszero\n      tag_28\n      jumpi\n      0x00\n      dup1\n      revert\n    tag_28:\n      pop\n      tag_29\n      0x04\n      dup1\n      calldatasize\n      sub\n      dup2\n      add\n      swap1\n      tag_30\n      swap2\n      swap1\n      tag_31\n      jump\t// in\n    tag_30:\n      tag_32\n      jump\t// in\n    tag_29:\n      mload(0x40)\n      tag_33\n      swap2\n      swap1\n      tag_34\n      jump\t// in\n    tag_33:\n      mload(0x40)\n      dup1\n      swap2\n      sub\n      swap1\n      return\n        /* \"contracts/SmartContractWallet.sol\":4259:4636  function sendFundsToContract(address payable _to) external payable onlyOwner {... */\n    tag_10:\n        /* \"contracts/SmartContractWallet.sol\":559:564  owner */\n      0x00\n      dup1\n      sload\n      swap1\n      0x0100\n      exp\n      swap1\n      div\n      0xffffffffffffffffffffffffffffffffffffffff\n      and\n        /* \"contracts/SmartContractWallet.sol\":545:564  msg.sender == owner */\n      0xffffffffffffffffffffffffffffffffffffffff\n      and\n        /* \"contracts/SmartContractWallet.sol\":545:555  msg.sender */\n      caller\n        /* \"contracts/SmartContractWallet.sol\":545:564  msg.sender == owner */\n      0xffffffffffffffffffffffffffffffffffffffff\n      and\n      eq\n        /* \"contracts/SmartContractWallet.sol\":537:591  require(msg.sender == owner, \"Not the contract owner\") */\n      tag_36\n      jumpi\n      mload(0x40)\n      0x08c379a000000000000000000000000000000000000000000000000000000000\n      dup2\n      mstore\n      0x04\n      add\n      tag_37\n      swap1\n      tag_38\n      jump\t// in\n    tag_37:\n      mload(0x40)\n      dup1\n      swap2\n      sub\n      swap1\n      revert\n    tag_36:\n        /* \"contracts/SmartContractWallet.sol\":4370:4371  0 */\n      0x00\n        /* \"contracts/SmartContractWallet.sol\":4355:4372  _to != address(0) */\n      0xffffffffffffffffffffffffffffffffffffffff\n      and\n        /* \"contracts/SmartContractWallet.sol\":4355:4358  _to */\n      dup2\n        /* \"contracts/SmartContractWallet.sol\":4355:4372  _to != address(0) */\n      0xffffffffffffffffffffffffffffffffffffffff\n      and\n      sub\n        /* \"contracts/SmartContractWallet.sol\":4347:4401  require(_to != address(0), \"Invalid contract address\") */\n      tag_40\n      jumpi\n      mload(0x40)\n      0x08c379a000000000000000000000000000000000000000000000000000000000\n      dup2\n      mstore\n      0x04\n      add\n      tag_41\n      swap1\n      tag_42\n      jump\t// in\n    tag_41:\n      mload(0x40)\n      dup1\n      swap2\n      sub\n      swap1\n      revert\n    tag_40:\n        /* \"contracts/SmartContractWallet.sol\":4432:4433  0 */\n      0x00\n        /* \"contracts/SmartContractWallet.sol\":4420:4429  msg.value */\n      callvalue\n        /* \"contracts/SmartContractWallet.sol\":4420:4433  msg.value > 0 */\n      gt\n        /* \"contracts/SmartContractWallet.sol\":4412:4465  require(msg.value > 0, \"Must send a positive amount\") */\n      tag_43\n      jumpi\n      mload(0x40)\n      0x08c379a000000000000000000000000000000000000000000000000000000000\n      dup2\n      mstore\n      0x04\n      add\n      tag_44\n      swap1\n      tag_45\n      jump\t// in\n    tag_44:\n      mload(0x40)\n      dup1\n      swap2\n      sub\n      swap1\n      revert\n    tag_43:\n        /* \"contracts/SmartContractWallet.sol\":4479:4491  bool success */\n      0x00\n        /* \"contracts/SmartContractWallet.sol\":4497:4500  _to */\n      dup2\n        /* \"contracts/SmartContractWallet.sol\":4497:4505  _to.call */\n      0xffffffffffffffffffffffffffffffffffffffff\n      and\n        /* \"contracts/SmartContractWallet.sol\":4513:4522  msg.value */\n      callvalue\n        /* \"contracts/SmartContractWallet.sol\":4497:4527  _to.call{value: msg.value}(\"\") */\n      mload(0x40)\n      tag_46\n      swap1\n      tag_47\n      jump\t// in\n    tag_46:\n      0x00\n      mload(0x40)\n      dup1\n      dup4\n      sub\n      dup2\n      dup6\n      dup8\n      gas\n      call\n      swap3\n      pop\n      pop\n      pop\n      returndatasize\n      dup1\n      0x00\n      dup2\n      eq\n      tag_50\n      jumpi\n      mload(0x40)\n      swap2\n      pop\n      and(add(returndatasize, 0x3f), not(0x1f))\n      dup3\n      add\n      0x40\n      mstore\n      returndatasize\n      dup3\n      mstore\n      returndatasize\n      0x00\n      0x20\n      dup5\n      add\n      returndatacopy\n      jump(tag_49)\n    tag_50:\n      0x60\n      swap2\n      pop\n    tag_49:\n      pop\n        /* \"contracts/SmartContractWallet.sol\":4478:4527  (bool success, ) = _to.call{value: msg.value}(\"\") */\n      pop\n      swap1\n      pop\n        /* \"contracts/SmartContractWallet.sol\":4546:4553  success */\n      dup1\n        /* \"contracts/SmartContractWallet.sol\":4538:4573  require(success, \"Transfer failed\") */\n      tag_51\n      jumpi\n      mload(0x40)\n      0x08c379a000000000000000000000000000000000000000000000000000000000\n      dup2\n      mstore\n      0x04\n      add\n      tag_52\n      swap1\n      tag_53\n      jump\t// in\n    tag_52:\n      mload(0x40)\n      dup1\n      swap2\n      sub\n      swap1\n      revert\n    tag_51:\n        /* \"contracts/SmartContractWallet.sol\":4613:4616  _to */\n      dup2\n        /* \"contracts/SmartContractWallet.sol\":4591:4628  FundsSent(msg.sender, _to, msg.value) */\n      0xffffffffffffffffffffffffffffffffffffffff\n      and\n        /* \"contracts/SmartContractWallet.sol\":4601:4611  msg.sender */\n      caller\n        /* \"contracts/SmartContractWallet.sol\":4591:4628  FundsSent(msg.sender, _to, msg.value) */\n      0xffffffffffffffffffffffffffffffffffffffff\n      and\n      0xf695f96ab247f42b6361d77280417dd090b00678ccb7d65ea1ee4acf9f746c6b\n        /* \"contracts/SmartContractWallet.sol\":4618:4627  msg.value */\n      callvalue\n        /* \"contracts/SmartContractWallet.sol\":4591:4628  FundsSent(msg.sender, _to, msg.value) */\n      mload(0x40)\n      tag_54\n      swap2\n      swap1\n      tag_55\n      jump\t// in\n    tag_54:\n      mload(0x40)\n      dup1\n      swap2\n      sub\n      swap1\n      log3\n        /* \"contracts/SmartContractWallet.sol\":4336:4636  {... */\n      pop\n        /* \"contracts/SmartContractWallet.sol\":4259:4636  function sendFundsToContract(address payable _to) external payable onlyOwner {... */\n      pop\n      jump\t// out\n        /* \"contracts/SmartContractWallet.sol\":987:1899  function isValidSignature(bytes32 _data, bytes memory _signature) external view override returns (bytes4 magicValue) {... */\n    tag_15:\n        /* \"contracts/SmartContractWallet.sol\":1085:1102  bytes4 magicValue */\n      0x00\n        /* \"contracts/SmartContractWallet.sol\":1115:1134  bytes32 messageHash */\n      dup1\n        /* \"contracts/SmartContractWallet.sol\":1164:1169  _data */\n      dup4\n        /* \"contracts/SmartContractWallet.sol\":1179:1183  this */\n      address\n        /* \"contracts/SmartContractWallet.sol\":1147:1185  abi.encodePacked(_data, address(this)) */\n      add(0x20, mload(0x40))\n      tag_57\n      swap3\n      swap2\n      swap1\n      tag_58\n      jump\t// in\n    tag_57:\n      mload(0x40)\n      0x20\n      dup2\n      dup4\n      sub\n      sub\n      dup2\n      mstore\n      swap1\n      0x40\n      mstore\n        /* \"contracts/SmartContractWallet.sol\":1137:1186  keccak256(abi.encodePacked(_data, address(this))) */\n      dup1\n      mload\n      swap1\n      0x20\n      add\n      keccak256\n        /* \"contracts/SmartContractWallet.sol\":1115:1186  bytes32 messageHash = keccak256(abi.encodePacked(_data, address(this))) */\n      swap1\n      pop\n        /* \"contracts/SmartContractWallet.sol\":1238:1243  false */\n      0x00\n        /* \"contracts/SmartContractWallet.sol\":1205:1243  executedMessages[messageHash] == false */\n      iszero\n      iszero\n        /* \"contracts/SmartContractWallet.sol\":1205:1221  executedMessages */\n      0x01\n        /* \"contracts/SmartContractWallet.sol\":1205:1234  executedMessages[messageHash] */\n      0x00\n        /* \"contracts/SmartContractWallet.sol\":1222:1233  messageHash */\n      dup4\n        /* \"contracts/SmartContractWallet.sol\":1205:1234  executedMessages[messageHash] */\n      dup2\n      mstore\n      0x20\n      add\n      swap1\n      dup2\n      mstore\n      0x20\n      add\n      0x00\n      keccak256\n      0x00\n      swap1\n      sload\n      swap1\n      0x0100\n      exp\n      swap1\n      div\n      0xff\n      and\n        /* \"contracts/SmartContractWallet.sol\":1205:1243  executedMessages[messageHash] == false */\n      iszero\n      iszero\n      eq\n        /* \"contracts/SmartContractWallet.sol\":1197:1272  require(executedMessages[messageHash] == false, \"Message already executed\") */\n      tag_59\n      jumpi\n      mload(0x40)\n      0x08c379a000000000000000000000000000000000000000000000000000000000\n      dup2\n      mstore\n      0x04\n      add\n      tag_60\n      swap1\n      tag_61\n      jump\t// in\n    tag_60:\n      mload(0x40)\n      dup1\n      swap2\n      sub\n      swap1\n      revert\n    tag_59:\n        /* \"contracts/SmartContractWallet.sol\":1337:1346  bytes32 r */\n      0x00\n        /* \"contracts/SmartContractWallet.sol\":1357:1366  bytes32 s */\n      dup1\n        /* \"contracts/SmartContractWallet.sol\":1377:1384  uint8 v */\n      0x00\n        /* \"contracts/SmartContractWallet.sol\":1475:1477  65 */\n      0x41\n        /* \"contracts/SmartContractWallet.sol\":1454:1464  _signature */\n      dup7\n        /* \"contracts/SmartContractWallet.sol\":1454:1471  _signature.length */\n      mload\n        /* \"contracts/SmartContractWallet.sol\":1454:1477  _signature.length == 65 */\n      eq\n        /* \"contracts/SmartContractWallet.sol\":1446:1506  require(_signature.length == 65, \"Invalid signature length\") */\n      tag_62\n      jumpi\n      mload(0x40)\n      0x08c379a000000000000000000000000000000000000000000000000000000000\n      dup2\n      mstore\n      0x04\n      add\n      tag_63\n      swap1\n      tag_64\n      jump\t// in\n    tag_63:\n      mload(0x40)\n      dup1\n      swap2\n      sub\n      swap1\n      revert\n    tag_62:\n        /* \"contracts/SmartContractWallet.sol\":1568:1572  0x20 */\n      0x20\n        /* \"contracts/SmartContractWallet.sol\":1556:1566  _signature */\n      dup7\n        /* \"contracts/SmartContractWallet.sol\":1552:1573  add(_signature, 0x20) */\n      add\n        /* \"contracts/SmartContractWallet.sol\":1546:1574  mload(add(_signature, 0x20)) */\n      mload\n        /* \"contracts/SmartContractWallet.sol\":1541:1574  r := mload(add(_signature, 0x20)) */\n      swap3\n      pop\n        /* \"contracts/SmartContractWallet.sol\":1615:1619  0x40 */\n      0x40\n        /* \"contracts/SmartContractWallet.sol\":1603:1613  _signature */\n      dup7\n        /* \"contracts/SmartContractWallet.sol\":1599:1620  add(_signature, 0x40) */\n      add\n        /* \"contracts/SmartContractWallet.sol\":1593:1621  mload(add(_signature, 0x40)) */\n      mload\n        /* \"contracts/SmartContractWallet.sol\":1588:1621  s := mload(add(_signature, 0x40)) */\n      swap2\n      pop\n        /* \"contracts/SmartContractWallet.sol\":1670:1674  0x60 */\n      0x60\n        /* \"contracts/SmartContractWallet.sol\":1658:1668  _signature */\n      dup7\n        /* \"contracts/SmartContractWallet.sol\":1654:1675  add(_signature, 0x60) */\n      add\n        /* \"contracts/SmartContractWallet.sol\":1648:1676  mload(add(_signature, 0x60)) */\n      mload\n        /* \"contracts/SmartContractWallet.sol\":1645:1646  0 */\n      0x00\n        /* \"contracts/SmartContractWallet.sol\":1640:1677  byte(0, mload(add(_signature, 0x60))) */\n      byte\n        /* \"contracts/SmartContractWallet.sol\":1635:1677  v := byte(0, mload(add(_signature, 0x60))) */\n      swap1\n      pop\n        /* \"contracts/SmartContractWallet.sol\":1700:1723  address recoveredSigner */\n      0x00\n        /* \"contracts/SmartContractWallet.sol\":1726:1757  ecrecover(messageHash, v, r, s) */\n      0x01\n        /* \"contracts/SmartContractWallet.sol\":1736:1747  messageHash */\n      dup6\n        /* \"contracts/SmartContractWallet.sol\":1749:1750  v */\n      dup4\n        /* \"contracts/SmartContractWallet.sol\":1752:1753  r */\n      dup7\n        /* \"contracts/SmartContractWallet.sol\":1755:1756  s */\n      dup7\n        /* \"contracts/SmartContractWallet.sol\":1726:1757  ecrecover(messageHash, v, r, s) */\n      mload(0x40)\n      0x00\n      dup2\n      mstore\n      0x20\n      add\n      0x40\n      mstore\n      mload(0x40)\n      tag_65\n      swap5\n      swap4\n      swap3\n      swap2\n      swap1\n      tag_66\n      jump\t// in\n    tag_65:\n      0x20\n      mload(0x40)\n      0x20\n      dup2\n      sub\n      swap1\n      dup1\n      dup5\n      sub\n      swap1\n      dup6\n      gas\n      staticcall\n      iszero\n      dup1\n      iszero\n      tag_68\n      jumpi\n      returndatasize\n      0x00\n      dup1\n      returndatacopy\n      revert(0x00, returndatasize)\n    tag_68:\n      pop\n      pop\n      pop\n      mload(sub(mload(0x40), 0x20))\n        /* \"contracts/SmartContractWallet.sol\":1700:1757  address recoveredSigner = ecrecover(messageHash, v, r, s) */\n      swap1\n      pop\n        /* \"contracts/SmartContractWallet.sol\":1791:1796  owner */\n      0x00\n      dup1\n      sload\n      swap1\n      0x0100\n      exp\n      swap1\n      div\n      0xffffffffffffffffffffffffffffffffffffffff\n      and\n        /* \"contracts/SmartContractWallet.sol\":1772:1796  recoveredSigner == owner */\n      0xffffffffffffffffffffffffffffffffffffffff\n      and\n        /* \"contracts/SmartContractWallet.sol\":1772:1787  recoveredSigner */\n      dup2\n        /* \"contracts/SmartContractWallet.sol\":1772:1796  recoveredSigner == owner */\n      0xffffffffffffffffffffffffffffffffffffffff\n      and\n      sub\n        /* \"contracts/SmartContractWallet.sol\":1768:1892  if (recoveredSigner == owner) {... */\n      tag_69\n      jumpi\n        /* \"contracts/SmartContractWallet.sol\":256:266  0x1626ba7e */\n      0x1626ba7e\n        /* \"contracts/SmartContractWallet.sol\":1820:1830  MAGICVALUE */\n      0xe0\n      shl\n        /* \"contracts/SmartContractWallet.sol\":1813:1830  return MAGICVALUE */\n      swap6\n      pop\n      pop\n      pop\n      pop\n      pop\n      pop\n      jump(tag_56)\n        /* \"contracts/SmartContractWallet.sol\":1768:1892  if (recoveredSigner == owner) {... */\n    tag_69:\n        /* \"contracts/SmartContractWallet.sol\":1870:1880  0x00000000 */\n      0x00\n        /* \"contracts/SmartContractWallet.sol\":1863:1880  return 0x00000000 */\n      0xe0\n      shl\n      swap6\n      pop\n      pop\n      pop\n      pop\n      pop\n      pop\n        /* \"contracts/SmartContractWallet.sol\":987:1899  function isValidSignature(bytes32 _data, bytes memory _signature) external view override returns (bytes4 magicValue) {... */\n    tag_56:\n      swap3\n      swap2\n      pop\n      pop\n      jump\t// out\n        /* \"contracts/SmartContractWallet.sol\":1907:2428  function signMessage(string memory _data) external onlyOwner {... */\n    tag_22:\n        /* \"contracts/SmartContractWallet.sol\":559:564  owner */\n      0x00\n      dup1\n      sload\n      swap1\n      0x0100\n      exp\n      swap1\n      div\n      0xffffffffffffffffffffffffffffffffffffffff\n      and\n        /* \"contracts/SmartContractWallet.sol\":545:564  msg.sender == owner */\n      0xffffffffffffffffffffffffffffffffffffffff\n      and\n        /* \"contracts/SmartContractWallet.sol\":545:555  msg.sender */\n      caller\n        /* \"contracts/SmartContractWallet.sol\":545:564  msg.sender == owner */\n      0xffffffffffffffffffffffffffffffffffffffff\n      and\n      eq\n        /* \"contracts/SmartContractWallet.sol\":537:591  require(msg.sender == owner, \"Not the contract owner\") */\n      tag_72\n      jumpi\n      mload(0x40)\n      0x08c379a000000000000000000000000000000000000000000000000000000000\n      dup2\n      mstore\n      0x04\n      add\n      tag_73\n      swap1\n      tag_38\n      jump\t// in\n    tag_73:\n      mload(0x40)\n      dup1\n      swap2\n      sub\n      swap1\n      revert\n    tag_72:\n        /* \"contracts/SmartContractWallet.sol\":2041:2058  address recipient */\n      0x00\n        /* \"contracts/SmartContractWallet.sol\":2060:2074  uint256 amount */\n      dup1\n        /* \"contracts/SmartContractWallet.sol\":2078:2095  _parseData(_data) */\n      tag_75\n        /* \"contracts/SmartContractWallet.sol\":2089:2094  _data */\n      dup4\n        /* \"contracts/SmartContractWallet.sol\":2078:2088  _parseData */\n      tag_76\n        /* \"contracts/SmartContractWallet.sol\":2078:2095  _parseData(_data) */\n      jump\t// in\n    tag_75:\n        /* \"contracts/SmartContractWallet.sol\":2040:2095  (address recipient, uint256 amount) = _parseData(_data) */\n      swap2\n      pop\n      swap2\n      pop\n        /* \"contracts/SmartContractWallet.sol\":2148:2167  bytes32 messageHash */\n      0x00\n        /* \"contracts/SmartContractWallet.sol\":2197:2206  recipient */\n      dup3\n        /* \"contracts/SmartContractWallet.sol\":2208:2214  amount */\n      dup3\n        /* \"contracts/SmartContractWallet.sol\":2224:2228  this */\n      address\n        /* \"contracts/SmartContractWallet.sol\":2180:2230  abi.encodePacked(recipient, amount, address(this)) */\n      add(0x20, mload(0x40))\n      tag_77\n      swap4\n      swap3\n      swap2\n      swap1\n      tag_78\n      jump\t// in\n    tag_77:\n      mload(0x40)\n      0x20\n      dup2\n      dup4\n      sub\n      sub\n      dup2\n      mstore\n      swap1\n      0x40\n      mstore\n        /* \"contracts/SmartContractWallet.sol\":2170:2231  keccak256(abi.encodePacked(recipient, amount, address(this))) */\n      dup1\n      mload\n      swap1\n      0x20\n      add\n      keccak256\n        /* \"contracts/SmartContractWallet.sol\":2148:2231  bytes32 messageHash = keccak256(abi.encodePacked(recipient, amount, address(this))) */\n      swap1\n      pop\n        /* \"contracts/SmartContractWallet.sol\":2325:2329  true */\n      0x01\n        /* \"contracts/SmartContractWallet.sol\":2293:2309  executedMessages */\n      dup1\n        /* \"contracts/SmartContractWallet.sol\":2293:2322  executedMessages[messageHash] */\n      0x00\n        /* \"contracts/SmartContractWallet.sol\":2310:2321  messageHash */\n      dup4\n        /* \"contracts/SmartContractWallet.sol\":2293:2322  executedMessages[messageHash] */\n      dup2\n      mstore\n      0x20\n      add\n      swap1\n      dup2\n      mstore\n      0x20\n      add\n      0x00\n      keccak256\n      0x00\n        /* \"contracts/SmartContractWallet.sol\":2293:2329  executedMessages[messageHash] = true */\n      0x0100\n      exp\n      dup2\n      sload\n      dup2\n      0xff\n      mul\n      not\n      and\n      swap1\n      dup4\n      iszero\n      iszero\n      mul\n      or\n      swap1\n      sstore\n      pop\n        /* \"contracts/SmartContractWallet.sol\":2409:2419  msg.sender */\n      caller\n        /* \"contracts/SmartContractWallet.sol\":2382:2420  MessageSigned(messageHash, msg.sender) */\n      0xffffffffffffffffffffffffffffffffffffffff\n      and\n        /* \"contracts/SmartContractWallet.sol\":2396:2407  messageHash */\n      dup2\n        /* \"contracts/SmartContractWallet.sol\":2382:2420  MessageSigned(messageHash, msg.sender) */\n      0xb91c53f4672e938094872ec760866ac1f861a71b6a43a4c1a237891c36d06674\n      mload(0x40)\n      mload(0x40)\n      dup1\n      swap2\n      sub\n      swap1\n      log3\n        /* \"contracts/SmartContractWallet.sol\":1968:2428  {... */\n      pop\n      pop\n      pop\n        /* \"contracts/SmartContractWallet.sol\":1907:2428  function signMessage(string memory _data) external onlyOwner {... */\n      pop\n      jump\t// out\n        /* \"contracts/SmartContractWallet.sol\":136:156  address public owner */\n    tag_25:\n      0x00\n      dup1\n      sload\n      swap1\n      0x0100\n      exp\n      swap1\n      div\n      0xffffffffffffffffffffffffffffffffffffffff\n      and\n      dup2\n      jump\t// out\n        /* \"contracts/SmartContractWallet.sol\":163:211  mapping(bytes32 => bool) public executedMessages */\n    tag_32:\n      mstore(0x20, 0x01)\n      dup1\n      0x00\n      mstore\n      keccak256(0x00, 0x40)\n      0x00\n      swap2\n      pop\n      sload\n      swap1\n      0x0100\n      exp\n      swap1\n      div\n      0xff\n      and\n      dup2\n      jump\t// out\n        /* \"contracts/SmartContractWallet.sol\":2436:3512  function _parseData(string memory _data) internal pure returns (address, uint256) {... */\n    tag_76:\n        /* \"contracts/SmartContractWallet.sol\":2500:2507  address */\n      0x00\n        /* \"contracts/SmartContractWallet.sol\":2509:2516  uint256 */\n      dup1\n        /* \"contracts/SmartContractWallet.sol\":2655:2672  bytes memory data */\n      0x00\n        /* \"contracts/SmartContractWallet.sol\":2681:2686  _data */\n      dup4\n        /* \"contracts/SmartContractWallet.sol\":2655:2687  bytes memory data = bytes(_data) */\n      swap1\n      pop\n        /* \"contracts/SmartContractWallet.sol\":2698:2716  uint256 commaIndex */\n      0x00\n        /* \"contracts/SmartContractWallet.sol\":2732:2741  uint256 i */\n      dup1\n        /* \"contracts/SmartContractWallet.sol\":2744:2745  0 */\n      0x00\n        /* \"contracts/SmartContractWallet.sol\":2732:2745  uint256 i = 0 */\n      swap1\n      pop\n        /* \"contracts/SmartContractWallet.sol\":2727:2888  for (uint256 i = 0; i < data.length; i++) {... */\n    tag_80:\n        /* \"contracts/SmartContractWallet.sol\":2751:2755  data */\n      dup3\n        /* \"contracts/SmartContractWallet.sol\":2751:2762  data.length */\n      mload\n        /* \"contracts/SmartContractWallet.sol\":2747:2748  i */\n      dup2\n        /* \"contracts/SmartContractWallet.sol\":2747:2762  i < data.length */\n      lt\n        /* \"contracts/SmartContractWallet.sol\":2727:2888  for (uint256 i = 0; i < data.length; i++) {... */\n      iszero\n      tag_81\n      jumpi\n        /* \"contracts/SmartContractWallet.sol\":2788:2802  data[i] == \",\" */\n      0x2c00000000000000000000000000000000000000000000000000000000000000\n        /* \"contracts/SmartContractWallet.sol\":2788:2792  data */\n      dup4\n        /* \"contracts/SmartContractWallet.sol\":2793:2794  i */\n      dup3\n        /* \"contracts/SmartContractWallet.sol\":2788:2795  data[i] */\n      dup2\n      mload\n      dup2\n      lt\n      tag_83\n      jumpi\n      tag_84\n      tag_85\n      jump\t// in\n    tag_84:\n    tag_83:\n      0x20\n      add\n      add\n      mload\n      0xf8\n      shr\n      0xf8\n      shl\n        /* \"contracts/SmartContractWallet.sol\":2788:2802  data[i] == \",\" */\n      not(0xffffffffffffffffffffffffffffffffffffffffffffffffffffffffffffff)\n      and\n      sub\n        /* \"contracts/SmartContractWallet.sol\":2784:2877  if (data[i] == \",\") {... */\n      tag_86\n      jumpi\n        /* \"contracts/SmartContractWallet.sol\":2836:2837  i */\n      dup1\n        /* \"contracts/SmartContractWallet.sol\":2823:2837  commaIndex = i */\n      swap2\n      pop\n        /* \"contracts/SmartContractWallet.sol\":2856:2861  break */\n      jump(tag_81)\n        /* \"contracts/SmartContractWallet.sol\":2784:2877  if (data[i] == \",\") {... */\n    tag_86:\n        /* \"contracts/SmartContractWallet.sol\":2764:2767  i++ */\n      dup1\n      dup1\n      0x01\n      add\n      swap2\n      pop\n      pop\n        /* \"contracts/SmartContractWallet.sol\":2727:2888  for (uint256 i = 0; i < data.length; i++) {... */\n      jump(tag_80)\n    tag_81:\n      pop\n        /* \"contracts/SmartContractWallet.sol\":2946:2973  bytes memory recipientBytes */\n      0x00\n        /* \"contracts/SmartContractWallet.sol\":2986:2996  commaIndex */\n      dup2\n        /* \"contracts/SmartContractWallet.sol\":2976:2997  new bytes(commaIndex) */\n      0xffffffffffffffff\n      dup2\n      gt\n      iszero\n      tag_87\n      jumpi\n      tag_88\n      tag_89\n      jump\t// in\n    tag_88:\n    tag_87:\n      mload(0x40)\n      swap1\n      dup1\n      dup3\n      mstore\n      dup1\n      0x1f\n      add\n      not(0x1f)\n      and\n      0x20\n      add\n      dup3\n      add\n      0x40\n      mstore\n      dup1\n      iszero\n      tag_90\n      jumpi\n      dup2\n      0x20\n      add\n      0x01\n      dup3\n      mul\n      dup1\n      calldatasize\n      dup4\n      calldatacopy\n      dup1\n      dup3\n      add\n      swap2\n      pop\n      pop\n      swap1\n      pop\n    tag_90:\n      pop\n        /* \"contracts/SmartContractWallet.sol\":2946:2997  bytes memory recipientBytes = new bytes(commaIndex) */\n      swap1\n      pop\n        /* \"contracts/SmartContractWallet.sol\":3013:3022  uint256 i */\n      0x00\n        /* \"contracts/SmartContractWallet.sol\":3008:3103  for (uint256 i = 0; i < commaIndex; i++) {... */\n    tag_91:\n        /* \"contracts/SmartContractWallet.sol\":3032:3042  commaIndex */\n      dup3\n        /* \"contracts/SmartContractWallet.sol\":3028:3029  i */\n      dup2\n        /* \"contracts/SmartContractWallet.sol\":3028:3042  i < commaIndex */\n      lt\n        /* \"contracts/SmartContractWallet.sol\":3008:3103  for (uint256 i = 0; i < commaIndex; i++) {... */\n      iszero\n      tag_92\n      jumpi\n        /* \"contracts/SmartContractWallet.sol\":3084:3088  data */\n      dup4\n        /* \"contracts/SmartContractWallet.sol\":3089:3090  i */\n      dup2\n        /* \"contracts/SmartContractWallet.sol\":3084:3091  data[i] */\n      dup2\n      mload\n      dup2\n      lt\n      tag_94\n      jumpi\n      tag_95\n      tag_85\n      jump\t// in\n    tag_95:\n    tag_94:\n      0x20\n      add\n      add\n      mload\n      0xf8\n      shr\n      0xf8\n      shl\n        /* \"contracts/SmartContractWallet.sol\":3064:3078  recipientBytes */\n      dup3\n        /* \"contracts/SmartContractWallet.sol\":3079:3080  i */\n      dup3\n        /* \"contracts/SmartContractWallet.sol\":3064:3081  recipientBytes[i] */\n      dup2\n      mload\n      dup2\n      lt\n      tag_96\n      jumpi\n      tag_97\n      tag_85\n      jump\t// in\n    tag_97:\n    tag_96:\n      0x20\n      add\n      add\n        /* \"contracts/SmartContractWallet.sol\":3064:3091  recipientBytes[i] = data[i] */\n      swap1\n      not(0xffffffffffffffffffffffffffffffffffffffffffffffffffffffffffffff)\n      and\n      swap1\n      dup2\n      0x00\n      byte\n      swap1\n      mstore8\n      pop\n        /* \"contracts/SmartContractWallet.sol\":3044:3047  i++ */\n      dup1\n      dup1\n      0x01\n      add\n      swap2\n      pop\n      pop\n        /* \"contracts/SmartContractWallet.sol\":3008:3103  for (uint256 i = 0; i < commaIndex; i++) {... */\n      jump(tag_91)\n    tag_92:\n      pop\n        /* \"contracts/SmartContractWallet.sol\":3113:3130  address recipient */\n      0x00\n        /* \"contracts/SmartContractWallet.sol\":3133:3164  _bytesToAddress(recipientBytes) */\n      tag_98\n        /* \"contracts/SmartContractWallet.sol\":3149:3163  recipientBytes */\n      dup3\n        /* \"contracts/SmartContractWallet.sol\":3133:3148  _bytesToAddress */\n      tag_99\n        /* \"contracts/SmartContractWallet.sol\":3133:3164  _bytesToAddress(recipientBytes) */\n      jump\t// in\n    tag_98:\n        /* \"contracts/SmartContractWallet.sol\":3113:3164  address recipient = _bytesToAddress(recipientBytes) */\n      swap1\n      pop\n        /* \"contracts/SmartContractWallet.sol\":3204:3228  bytes memory amountBytes */\n      0x00\n        /* \"contracts/SmartContractWallet.sol\":3268:3269  1 */\n      0x01\n        /* \"contracts/SmartContractWallet.sol\":3255:3265  commaIndex */\n      dup5\n        /* \"contracts/SmartContractWallet.sol\":3241:3245  data */\n      dup7\n        /* \"contracts/SmartContractWallet.sol\":3241:3252  data.length */\n      mload\n        /* \"contracts/SmartContractWallet.sol\":3241:3265  data.length - commaIndex */\n      tag_100\n      swap2\n      swap1\n      tag_101\n      jump\t// in\n    tag_100:\n        /* \"contracts/SmartContractWallet.sol\":3241:3269  data.length - commaIndex - 1 */\n      tag_102\n      swap2\n      swap1\n      tag_101\n      jump\t// in\n    tag_102:\n        /* \"contracts/SmartContractWallet.sol\":3231:3270  new bytes(data.length - commaIndex - 1) */\n      0xffffffffffffffff\n      dup2\n      gt\n      iszero\n      tag_103\n      jumpi\n      tag_104\n      tag_89\n      jump\t// in\n    tag_104:\n    tag_103:\n      mload(0x40)\n      swap1\n      dup1\n      dup3\n      mstore\n      dup1\n      0x1f\n      add\n      not(0x1f)\n      and\n      0x20\n      add\n      dup3\n      add\n      0x40\n      mstore\n      dup1\n      iszero\n      tag_105\n      jumpi\n      dup2\n      0x20\n      add\n      0x01\n      dup3\n      mul\n      dup1\n      calldatasize\n      dup4\n      calldatacopy\n      dup1\n      dup3\n      add\n      swap2\n      pop\n      pop\n      swap1\n      pop\n    tag_105:\n      pop\n        /* \"contracts/SmartContractWallet.sol\":3204:3270  bytes memory amountBytes = new bytes(data.length - commaIndex - 1) */\n      swap1\n      pop\n        /* \"contracts/SmartContractWallet.sol\":3286:3295  uint256 i */\n      0x00\n        /* \"contracts/SmartContractWallet.sol\":3311:3312  1 */\n      0x01\n        /* \"contracts/SmartContractWallet.sol\":3298:3308  commaIndex */\n      dup6\n        /* \"contracts/SmartContractWallet.sol\":3298:3312  commaIndex + 1 */\n      tag_109\n      swap2\n      swap1\n      tag_110\n      jump\t// in\n    tag_109:\n        /* \"contracts/SmartContractWallet.sol\":3286:3312  uint256 i = commaIndex + 1 */\n      swap1\n      pop\n        /* \"contracts/SmartContractWallet.sol\":3281:3404  for (uint256 i = commaIndex + 1; i < data.length; i++) {... */\n    tag_106:\n        /* \"contracts/SmartContractWallet.sol\":3318:3322  data */\n      dup6\n        /* \"contracts/SmartContractWallet.sol\":3318:3329  data.length */\n      mload\n        /* \"contracts/SmartContractWallet.sol\":3314:3315  i */\n      dup2\n        /* \"contracts/SmartContractWallet.sol\":3314:3329  i < data.length */\n      lt\n        /* \"contracts/SmartContractWallet.sol\":3281:3404  for (uint256 i = commaIndex + 1; i < data.length; i++) {... */\n      iszero\n      tag_107\n      jumpi\n        /* \"contracts/SmartContractWallet.sol\":3385:3389  data */\n      dup6\n        /* \"contracts/SmartContractWallet.sol\":3390:3391  i */\n      dup2\n        /* \"contracts/SmartContractWallet.sol\":3385:3392  data[i] */\n      dup2\n      mload\n      dup2\n      lt\n      tag_111\n      jumpi\n      tag_112\n      tag_85\n      jump\t// in\n    tag_112:\n    tag_111:\n      0x20\n      add\n      add\n      mload\n      0xf8\n      shr\n      0xf8\n      shl\n        /* \"contracts/SmartContractWallet.sol\":3351:3362  amountBytes */\n      dup3\n        /* \"contracts/SmartContractWallet.sol\":3380:3381  1 */\n      0x01\n        /* \"contracts/SmartContractWallet.sol\":3367:3377  commaIndex */\n      dup8\n        /* \"contracts/SmartContractWallet.sol\":3363:3364  i */\n      dup5\n        /* \"contracts/SmartContractWallet.sol\":3363:3377  i - commaIndex */\n      tag_113\n      swap2\n      swap1\n      tag_101\n      jump\t// in\n    tag_113:\n        /* \"contracts/SmartContractWallet.sol\":3363:3381  i - commaIndex - 1 */\n      tag_114\n      swap2\n      swap1\n      tag_101\n      jump\t// in\n    tag_114:\n        /* \"contracts/SmartContractWallet.sol\":3351:3382  amountBytes[i - commaIndex - 1] */\n      dup2\n      mload\n      dup2\n      lt\n      tag_115\n      jumpi\n      tag_116\n      tag_85\n      jump\t// in\n    tag_116:\n    tag_115:\n      0x20\n      add\n      add\n        /* \"contracts/SmartContractWallet.sol\":3351:3392  amountBytes[i - commaIndex - 1] = data[i] */\n      swap1\n      not(0xffffffffffffffffffffffffffffffffffffffffffffffffffffffffffffff)\n      and\n      swap1\n      dup2\n      0x00\n      byte\n      swap1\n      mstore8\n      pop\n        /* \"contracts/SmartContractWallet.sol\":3331:3334  i++ */\n      dup1\n      dup1\n      0x01\n      add\n      swap2\n      pop\n      pop\n        /* \"contracts/SmartContractWallet.sol\":3281:3404  for (uint256 i = commaIndex + 1; i < data.length; i++) {... */\n      jump(tag_106)\n    tag_107:\n      pop\n        /* \"contracts/SmartContractWallet.sol\":3414:3428  uint256 amount */\n      0x00\n        /* \"contracts/SmartContractWallet.sol\":3431:3465  _stringToUint(string(amountBytes)) */\n      tag_117\n        /* \"contracts/SmartContractWallet.sol\":3452:3463  amountBytes */\n      dup3\n        /* \"contracts/SmartContractWallet.sol\":3431:3444  _stringToUint */\n      tag_118\n        /* \"contracts/SmartContractWallet.sol\":3431:3465  _stringToUint(string(amountBytes)) */\n      jump\t// in\n    tag_117:\n        /* \"contracts/SmartContractWallet.sol\":3414:3465  uint256 amount = _stringToUint(string(amountBytes)) */\n      swap1\n      pop\n        /* \"contracts/SmartContractWallet.sol\":3486:3495  recipient */\n      dup3\n        /* \"contracts/SmartContractWallet.sol\":3497:3503  amount */\n      dup2\n        /* \"contracts/SmartContractWallet.sol\":3478:3504  return (recipient, amount) */\n      swap8\n      pop\n      swap8\n      pop\n      pop\n      pop\n      pop\n      pop\n      pop\n      pop\n        /* \"contracts/SmartContractWallet.sol\":2436:3512  function _parseData(string memory _data) internal pure returns (address, uint256) {... */\n      swap2\n      pop\n      swap2\n      jump\t// out\n        /* \"contracts/SmartContractWallet.sol\":3520:3809  function _bytesToAddress(bytes memory _address) internal pure returns (address) {... */\n    tag_99:\n        /* \"contracts/SmartContractWallet.sol\":3591:3598  address */\n      0x00\n        /* \"contracts/SmartContractWallet.sol\":3611:3623  uint160 addr */\n      dup1\n        /* \"contracts/SmartContractWallet.sol\":3626:3627  0 */\n      0x00\n        /* \"contracts/SmartContractWallet.sol\":3611:3627  uint160 addr = 0 */\n      swap1\n      pop\n        /* \"contracts/SmartContractWallet.sol\":3643:3652  uint256 i */\n      0x00\n        /* \"contracts/SmartContractWallet.sol\":3638:3771  for (uint256 i = 0; i < _address.length; i++) {... */\n    tag_120:\n        /* \"contracts/SmartContractWallet.sol\":3662:3670  _address */\n      dup4\n        /* \"contracts/SmartContractWallet.sol\":3662:3677  _address.length */\n      mload\n        /* \"contracts/SmartContractWallet.sol\":3658:3659  i */\n      dup2\n        /* \"contracts/SmartContractWallet.sol\":3658:3677  i < _address.length */\n      lt\n        /* \"contracts/SmartContractWallet.sol\":3638:3771  for (uint256 i = 0; i < _address.length; i++) {... */\n      iszero\n      tag_121\n      jumpi\n        /* \"contracts/SmartContractWallet.sol\":3708:3709  8 */\n      0x08\n        /* \"contracts/SmartContractWallet.sol\":3699:3709  addr <<= 8 */\n      dup3\n      0xffffffffffffffffffffffffffffffffffffffff\n      and\n      swap1\n      shl\n      swap2\n      pop\n        /* \"contracts/SmartContractWallet.sol\":3746:3754  _address */\n      dup4\n        /* \"contracts/SmartContractWallet.sol\":3755:3756  i */\n      dup2\n        /* \"contracts/SmartContractWallet.sol\":3746:3757  _address[i] */\n      dup2\n      mload\n      dup2\n      lt\n      tag_123\n      jumpi\n      tag_124\n      tag_85\n      jump\t// in\n    tag_124:\n    tag_123:\n      0x20\n      add\n      add\n      mload\n      0xf8\n      shr\n      0xf8\n      shl\n        /* \"contracts/SmartContractWallet.sol\":3740:3758  uint8(_address[i]) */\n      0xf8\n      shr\n        /* \"contracts/SmartContractWallet.sol\":3732:3759  uint160(uint8(_address[i])) */\n      0xff\n      and\n        /* \"contracts/SmartContractWallet.sol\":3724:3759  addr |= uint160(uint8(_address[i])) */\n      dup3\n      or\n      swap2\n      pop\n        /* \"contracts/SmartContractWallet.sol\":3679:3682  i++ */\n      dup1\n      dup1\n      0x01\n      add\n      swap2\n      pop\n      pop\n        /* \"contracts/SmartContractWallet.sol\":3638:3771  for (uint256 i = 0; i < _address.length; i++) {... */\n      jump(tag_120)\n    tag_121:\n      pop\n        /* \"contracts/SmartContractWallet.sol\":3796:3800  addr */\n      dup1\n        /* \"contracts/SmartContractWallet.sol\":3781:3801  return address(addr) */\n      swap2\n      pop\n      pop\n        /* \"contracts/SmartContractWallet.sol\":3520:3809  function _bytesToAddress(bytes memory _address) internal pure returns (address) {... */\n      swap2\n      swap1\n      pop\n      jump\t// out\n        /* \"contracts/SmartContractWallet.sol\":3817:4182  function _stringToUint(string memory _s) internal pure returns (uint256) {... */\n    tag_118:\n        /* \"contracts/SmartContractWallet.sol\":3881:3888  uint256 */\n      0x00\n        /* \"contracts/SmartContractWallet.sol\":3901:3915  bytes memory b */\n      dup1\n        /* \"contracts/SmartContractWallet.sol\":3924:3926  _s */\n      dup3\n        /* \"contracts/SmartContractWallet.sol\":3901:3927  bytes memory b = bytes(_s) */\n      swap1\n      pop\n        /* \"contracts/SmartContractWallet.sol\":3938:3952  uint256 result */\n      0x00\n        /* \"contracts/SmartContractWallet.sol\":3972:3981  uint256 i */\n      dup1\n        /* \"contracts/SmartContractWallet.sol\":3967:4151  for (uint256 i = 0; i < b.length; i++) {... */\n    tag_126:\n        /* \"contracts/SmartContractWallet.sol\":3991:3992  b */\n      dup3\n        /* \"contracts/SmartContractWallet.sol\":3991:3999  b.length */\n      mload\n        /* \"contracts/SmartContractWallet.sol\":3987:3988  i */\n      dup2\n        /* \"contracts/SmartContractWallet.sol\":3987:3999  i < b.length */\n      lt\n        /* \"contracts/SmartContractWallet.sol\":3967:4151  for (uint256 i = 0; i < b.length; i++) {... */\n      iszero\n      tag_127\n      jumpi\n        /* \"contracts/SmartContractWallet.sol\":4033:4037  0x30 */\n      0x30\n        /* \"contracts/SmartContractWallet.sol\":4025:4037  b[i] >= 0x30 */\n      0xf8\n      shl\n        /* \"contracts/SmartContractWallet.sol\":4025:4026  b */\n      dup4\n        /* \"contracts/SmartContractWallet.sol\":4027:4028  i */\n      dup3\n        /* \"contracts/SmartContractWallet.sol\":4025:4029  b[i] */\n      dup2\n      mload\n      dup2\n      lt\n      tag_129\n      jumpi\n      tag_130\n      tag_85\n      jump\t// in\n    tag_130:\n    tag_129:\n      0x20\n      add\n      add\n      mload\n      0xf8\n      shr\n      0xf8\n      shl\n        /* \"contracts/SmartContractWallet.sol\":4025:4037  b[i] >= 0x30 */\n      not(0xffffffffffffffffffffffffffffffffffffffffffffffffffffffffffffff)\n      and\n      lt\n      iszero\n        /* \"contracts/SmartContractWallet.sol\":4025:4053  b[i] >= 0x30 && b[i] <= 0x39 */\n      dup1\n      iszero\n      tag_131\n      jumpi\n      pop\n        /* \"contracts/SmartContractWallet.sol\":4049:4053  0x39 */\n      0x39\n        /* \"contracts/SmartContractWallet.sol\":4041:4053  b[i] <= 0x39 */\n      0xf8\n      shl\n        /* \"contracts/SmartContractWallet.sol\":4041:4042  b */\n      dup4\n        /* \"contracts/SmartContractWallet.sol\":4043:4044  i */\n      dup3\n        /* \"contracts/SmartContractWallet.sol\":4041:4045  b[i] */\n      dup2\n      mload\n      dup2\n      lt\n      tag_132\n      jumpi\n      tag_133\n      tag_85\n      jump\t// in\n    tag_133:\n    tag_132:\n      0x20\n      add\n      add\n      mload\n      0xf8\n      shr\n      0xf8\n      shl\n        /* \"contracts/SmartContractWallet.sol\":4041:4053  b[i] <= 0x39 */\n      not(0xffffffffffffffffffffffffffffffffffffffffffffffffffffffffffffff)\n      and\n      gt\n      iszero\n        /* \"contracts/SmartContractWallet.sol\":4025:4053  b[i] >= 0x30 && b[i] <= 0x39 */\n    tag_131:\n        /* \"contracts/SmartContractWallet.sol\":4021:4140  if (b[i] >= 0x30 && b[i] <= 0x39) {... */\n      iszero\n      tag_134\n      jumpi\n        /* \"contracts/SmartContractWallet.sol\":4121:4123  48 */\n      0x30\n        /* \"contracts/SmartContractWallet.sol\":4112:4113  b */\n      dup4\n        /* \"contracts/SmartContractWallet.sol\":4114:4115  i */\n      dup3\n        /* \"contracts/SmartContractWallet.sol\":4112:4116  b[i] */\n      dup2\n      mload\n      dup2\n      lt\n      tag_135\n      jumpi\n      tag_136\n      tag_85\n      jump\t// in\n    tag_136:\n    tag_135:\n      0x20\n      add\n      add\n      mload\n      0xf8\n      shr\n      0xf8\n      shl\n        /* \"contracts/SmartContractWallet.sol\":4106:4117  uint8(b[i]) */\n      0xf8\n      shr\n        /* \"contracts/SmartContractWallet.sol\":4098:4118  uint256(uint8(b[i])) */\n      0xff\n      and\n        /* \"contracts/SmartContractWallet.sol\":4098:4123  uint256(uint8(b[i])) - 48 */\n      tag_137\n      swap2\n      swap1\n      tag_101\n      jump\t// in\n    tag_137:\n        /* \"contracts/SmartContractWallet.sol\":4092:4094  10 */\n      0x0a\n        /* \"contracts/SmartContractWallet.sol\":4083:4089  result */\n      dup4\n        /* \"contracts/SmartContractWallet.sol\":4083:4094  result * 10 */\n      tag_138\n      swap2\n      swap1\n      tag_139\n      jump\t// in\n    tag_138:\n        /* \"contracts/SmartContractWallet.sol\":4083:4124  result * 10 + (uint256(uint8(b[i])) - 48) */\n      tag_140\n      swap2\n      swap1\n      tag_110\n      jump\t// in\n    tag_140:\n        /* \"contracts/SmartContractWallet.sol\":4074:4124  result = result * 10 + (uint256(uint8(b[i])) - 48) */\n      swap2\n      pop\n        /* \"contracts/SmartContractWallet.sol\":4021:4140  if (b[i] >= 0x30 && b[i] <= 0x39) {... */\n    tag_134:\n        /* \"contracts/SmartContractWallet.sol\":4001:4004  i++ */\n      dup1\n      dup1\n      0x01\n      add\n      swap2\n      pop\n      pop\n        /* \"contracts/SmartContractWallet.sol\":3967:4151  for (uint256 i = 0; i < b.length; i++) {... */\n      jump(tag_126)\n    tag_127:\n      pop\n        /* \"contracts/SmartContractWallet.sol\":4168:4174  result */\n      dup1\n        /* \"contracts/SmartContractWallet.sol\":4161:4174  return result */\n      swap3\n      pop\n      pop\n      pop\n        /* \"contracts/SmartContractWallet.sol\":3817:4182  function _stringToUint(string memory _s) internal pure returns (uint256) {... */\n      swap2\n      swap1\n      pop\n      jump\t// out\n        /* \"#utility.yul\":7:82   */\n    tag_141:\n        /* \"#utility.yul\":40:46   */\n      0x00\n        /* \"#utility.yul\":73:75   */\n      0x40\n        /* \"#utility.yul\":67:76   */\n      mload\n        /* \"#utility.yul\":57:76   */\n      swap1\n      pop\n        /* \"#utility.yul\":7:82   */\n      swap1\n      jump\t// out\n        /* \"#utility.yul\":88:205   */\n    tag_142:\n        /* \"#utility.yul\":197:198   */\n      0x00\n        /* \"#utility.yul\":194:195   */\n      dup1\n        /* \"#utility.yul\":187:199   */\n      revert\n        /* \"#utility.yul\":211:328   */\n    tag_143:\n        /* \"#utility.yul\":320:321   */\n      0x00\n        /* \"#utility.yul\":317:318   */\n      dup1\n        /* \"#utility.yul\":310:322   */\n      revert\n        /* \"#utility.yul\":334:460   */\n    tag_144:\n        /* \"#utility.yul\":371:378   */\n      0x00\n        /* \"#utility.yul\":411:453   */\n      0xffffffffffffffffffffffffffffffffffffffff\n        /* \"#utility.yul\":404:409   */\n      dup3\n        /* \"#utility.yul\":400:454   */\n      and\n        /* \"#utility.yul\":389:454   */\n      swap1\n      pop\n        /* \"#utility.yul\":334:460   */\n      swap2\n      swap1\n      pop\n      jump\t// out\n        /* \"#utility.yul\":466:570   */\n    tag_145:\n        /* \"#utility.yul\":511:518   */\n      0x00\n        /* \"#utility.yul\":540:564   */\n      tag_205\n        /* \"#utility.yul\":558:563   */\n      dup3\n        /* \"#utility.yul\":540:564   */\n      tag_144\n      jump\t// in\n    tag_205:\n        /* \"#utility.yul\":529:564   */\n      swap1\n      pop\n        /* \"#utility.yul\":466:570   */\n      swap2\n      swap1\n      pop\n      jump\t// out\n        /* \"#utility.yul\":576:714   */\n    tag_146:\n        /* \"#utility.yul\":657:689   */\n      tag_207\n        /* \"#utility.yul\":683:688   */\n      dup2\n        /* \"#utility.yul\":657:689   */\n      tag_145\n      jump\t// in\n    tag_207:\n        /* \"#utility.yul\":650:655   */\n      dup2\n        /* \"#utility.yul\":647:690   */\n      eq\n        /* \"#utility.yul\":637:708   */\n      tag_208\n      jumpi\n        /* \"#utility.yul\":704:705   */\n      0x00\n        /* \"#utility.yul\":701:702   */\n      dup1\n        /* \"#utility.yul\":694:706   */\n      revert\n        /* \"#utility.yul\":637:708   */\n    tag_208:\n        /* \"#utility.yul\":576:714   */\n      pop\n      jump\t// out\n        /* \"#utility.yul\":720:875   */\n    tag_147:\n        /* \"#utility.yul\":774:779   */\n      0x00\n        /* \"#utility.yul\":812:818   */\n      dup2\n        /* \"#utility.yul\":799:819   */\n      calldataload\n        /* \"#utility.yul\":790:819   */\n      swap1\n      pop\n        /* \"#utility.yul\":828:869   */\n      tag_210\n        /* \"#utility.yul\":863:868   */\n      dup2\n        /* \"#utility.yul\":828:869   */\n      tag_146\n      jump\t// in\n    tag_210:\n        /* \"#utility.yul\":720:875   */\n      swap3\n      swap2\n      pop\n      pop\n      jump\t// out\n        /* \"#utility.yul\":881:1226   */\n    tag_9:\n        /* \"#utility.yul\":948:954   */\n      0x00\n        /* \"#utility.yul\":997:999   */\n      0x20\n        /* \"#utility.yul\":985:994   */\n      dup3\n        /* \"#utility.yul\":976:983   */\n      dup5\n        /* \"#utility.yul\":972:995   */\n      sub\n        /* \"#utility.yul\":968:1000   */\n      slt\n        /* \"#utility.yul\":965:1084   */\n      iszero\n      tag_212\n      jumpi\n        /* \"#utility.yul\":1003:1082   */\n      tag_213\n      tag_142\n      jump\t// in\n    tag_213:\n        /* \"#utility.yul\":965:1084   */\n    tag_212:\n        /* \"#utility.yul\":1123:1124   */\n      0x00\n        /* \"#utility.yul\":1148:1209   */\n      tag_214\n        /* \"#utility.yul\":1201:1208   */\n      dup5\n        /* \"#utility.yul\":1192:1198   */\n      dup3\n        /* \"#utility.yul\":1181:1190   */\n      dup6\n        /* \"#utility.yul\":1177:1199   */\n      add\n        /* \"#utility.yul\":1148:1209   */\n      tag_147\n      jump\t// in\n    tag_214:\n        /* \"#utility.yul\":1138:1209   */\n      swap2\n      pop\n        /* \"#utility.yul\":1094:1219   */\n      pop\n        /* \"#utility.yul\":881:1226   */\n      swap3\n      swap2\n      pop\n      pop\n      jump\t// out\n        /* \"#utility.yul\":1232:1309   */\n    tag_148:\n        /* \"#utility.yul\":1269:1276   */\n      0x00\n        /* \"#utility.yul\":1298:1303   */\n      dup2\n        /* \"#utility.yul\":1287:1303   */\n      swap1\n      pop\n        /* \"#utility.yul\":1232:1309   */\n      swap2\n      swap1\n      pop\n      jump\t// out\n        /* \"#utility.yul\":1315:1437   */\n    tag_149:\n        /* \"#utility.yul\":1388:1412   */\n      tag_217\n        /* \"#utility.yul\":1406:1411   */\n      dup2\n        /* \"#utility.yul\":1388:1412   */\n      tag_148\n      jump\t// in\n    tag_217:\n        /* \"#utility.yul\":1381:1386   */\n      dup2\n        /* \"#utility.yul\":1378:1413   */\n      eq\n        /* \"#utility.yul\":1368:1431   */\n      tag_218\n      jumpi\n        /* \"#utility.yul\":1427:1428   */\n      0x00\n        /* \"#utility.yul\":1424:1425   */\n      dup1\n        /* \"#utility.yul\":1417:1429   */\n      revert\n        /* \"#utility.yul\":1368:1431   */\n    tag_218:\n        /* \"#utility.yul\":1315:1437   */\n      pop\n      jump\t// out\n        /* \"#utility.yul\":1443:1582   */\n    tag_150:\n        /* \"#utility.yul\":1489:1494   */\n      0x00\n        /* \"#utility.yul\":1527:1533   */\n      dup2\n        /* \"#utility.yul\":1514:1534   */\n      calldataload\n        /* \"#utility.yul\":1505:1534   */\n      swap1\n      pop\n        /* \"#utility.yul\":1543:1576   */\n      tag_220\n        /* \"#utility.yul\":1570:1575   */\n      dup2\n        /* \"#utility.yul\":1543:1576   */\n      tag_149\n      jump\t// in\n    tag_220:\n        /* \"#utility.yul\":1443:1582   */\n      swap3\n      swap2\n      pop\n      pop\n      jump\t// out\n        /* \"#utility.yul\":1588:1705   */\n    tag_151:\n        /* \"#utility.yul\":1697:1698   */\n      0x00\n        /* \"#utility.yul\":1694:1695   */\n      dup1\n        /* \"#utility.yul\":1687:1699   */\n      revert\n        /* \"#utility.yul\":1711:1828   */\n    tag_152:\n        /* \"#utility.yul\":1820:1821   */\n      0x00\n        /* \"#utility.yul\":1817:1818   */\n      dup1\n        /* \"#utility.yul\":1810:1822   */\n      revert\n        /* \"#utility.yul\":1834:1936   */\n    tag_153:\n        /* \"#utility.yul\":1875:1881   */\n      0x00\n        /* \"#utility.yul\":1926:1928   */\n      0x1f\n        /* \"#utility.yul\":1922:1929   */\n      not\n        /* \"#utility.yul\":1917:1919   */\n      0x1f\n        /* \"#utility.yul\":1910:1915   */\n      dup4\n        /* \"#utility.yul\":1906:1920   */\n      add\n        /* \"#utility.yul\":1902:1930   */\n      and\n        /* \"#utility.yul\":1892:1930   */\n      swap1\n      pop\n        /* \"#utility.yul\":1834:1936   */\n      swap2\n      swap1\n      pop\n      jump\t// out\n        /* \"#utility.yul\":1942:2122   */\n    tag_89:\n        /* \"#utility.yul\":1990:2067   */\n      0x4e487b7100000000000000000000000000000000000000000000000000000000\n        /* \"#utility.yul\":1987:1988   */\n      0x00\n        /* \"#utility.yul\":1980:2068   */\n      mstore\n        /* \"#utility.yul\":2087:2091   */\n      0x41\n        /* \"#utility.yul\":2084:2085   */\n      0x04\n        /* \"#utility.yul\":2077:2092   */\n      mstore\n        /* \"#utility.yul\":2111:2115   */\n      0x24\n        /* \"#utility.yul\":2108:2109   */\n      0x00\n        /* \"#utility.yul\":2101:2116   */\n      revert\n        /* \"#utility.yul\":2128:2409   */\n    tag_154:\n        /* \"#utility.yul\":2211:2238   */\n      tag_226\n        /* \"#utility.yul\":2233:2237   */\n      dup3\n        /* \"#utility.yul\":2211:2238   */\n      tag_153\n      jump\t// in\n    tag_226:\n        /* \"#utility.yul\":2203:2209   */\n      dup2\n        /* \"#utility.yul\":2199:2239   */\n      add\n        /* \"#utility.yul\":2341:2347   */\n      dup2\n        /* \"#utility.yul\":2329:2339   */\n      dup2\n        /* \"#utility.yul\":2326:2348   */\n      lt\n        /* \"#utility.yul\":2305:2323   */\n      0xffffffffffffffff\n        /* \"#utility.yul\":2293:2303   */\n      dup3\n        /* \"#utility.yul\":2290:2324   */\n      gt\n        /* \"#utility.yul\":2287:2349   */\n      or\n        /* \"#utility.yul\":2284:2372   */\n      iszero\n      tag_227\n      jumpi\n        /* \"#utility.yul\":2352:2370   */\n      tag_228\n      tag_89\n      jump\t// in\n    tag_228:\n        /* \"#utility.yul\":2284:2372   */\n    tag_227:\n        /* \"#utility.yul\":2392:2402   */\n      dup1\n        /* \"#utility.yul\":2388:2390   */\n      0x40\n        /* \"#utility.yul\":2381:2403   */\n      mstore\n        /* \"#utility.yul\":2171:2409   */\n      pop\n        /* \"#utility.yul\":2128:2409   */\n      pop\n      pop\n      jump\t// out\n        /* \"#utility.yul\":2415:2544   */\n    tag_155:\n        /* \"#utility.yul\":2449:2455   */\n      0x00\n        /* \"#utility.yul\":2476:2496   */\n      tag_230\n      tag_141\n      jump\t// in\n    tag_230:\n        /* \"#utility.yul\":2466:2496   */\n      swap1\n      pop\n        /* \"#utility.yul\":2505:2538   */\n      tag_231\n        /* \"#utility.yul\":2533:2537   */\n      dup3\n        /* \"#utility.yul\":2525:2531   */\n      dup3\n        /* \"#utility.yul\":2505:2538   */\n      tag_154\n      jump\t// in\n    tag_231:\n        /* \"#utility.yul\":2415:2544   */\n      swap2\n      swap1\n      pop\n      jump\t// out\n        /* \"#utility.yul\":2550:2857   */\n    tag_156:\n        /* \"#utility.yul\":2611:2615   */\n      0x00\n        /* \"#utility.yul\":2701:2719   */\n      0xffffffffffffffff\n        /* \"#utility.yul\":2693:2699   */\n      dup3\n        /* \"#utility.yul\":2690:2720   */\n      gt\n        /* \"#utility.yul\":2687:2743   */\n      iszero\n      tag_233\n      jumpi\n        /* \"#utility.yul\":2723:2741   */\n      tag_234\n      tag_89\n      jump\t// in\n    tag_234:\n        /* \"#utility.yul\":2687:2743   */\n    tag_233:\n        /* \"#utility.yul\":2761:2790   */\n      tag_235\n        /* \"#utility.yul\":2783:2789   */\n      dup3\n        /* \"#utility.yul\":2761:2790   */\n      tag_153\n      jump\t// in\n    tag_235:\n        /* \"#utility.yul\":2753:2790   */\n      swap1\n      pop\n        /* \"#utility.yul\":2845:2849   */\n      0x20\n        /* \"#utility.yul\":2839:2843   */\n      dup2\n        /* \"#utility.yul\":2835:2850   */\n      add\n        /* \"#utility.yul\":2827:2850   */\n      swap1\n      pop\n        /* \"#utility.yul\":2550:2857   */\n      swap2\n      swap1\n      pop\n      jump\t// out\n        /* \"#utility.yul\":2863:3009   */\n    tag_157:\n        /* \"#utility.yul\":2960:2966   */\n      dup3\n        /* \"#utility.yul\":2955:2958   */\n      dup2\n        /* \"#utility.yul\":2950:2953   */\n      dup4\n        /* \"#utility.yul\":2937:2967   */\n      calldatacopy\n        /* \"#utility.yul\":3001:3002   */\n      0x00\n        /* \"#utility.yul\":2992:2998   */\n      dup4\n        /* \"#utility.yul\":2987:2990   */\n      dup4\n        /* \"#utility.yul\":2983:2999   */\n      add\n        /* \"#utility.yul\":2976:3003   */\n      mstore\n        /* \"#utility.yul\":2863:3009   */\n      pop\n      pop\n      pop\n      jump\t// out\n        /* \"#utility.yul\":3015:3438   */\n    tag_158:\n        /* \"#utility.yul\":3092:3097   */\n      0x00\n        /* \"#utility.yul\":3117:3182   */\n      tag_238\n        /* \"#utility.yul\":3133:3181   */\n      tag_239\n        /* \"#utility.yul\":3174:3180   */\n      dup5\n        /* \"#utility.yul\":3133:3181   */\n      tag_156\n      jump\t// in\n    tag_239:\n        /* \"#utility.yul\":3117:3182   */\n      tag_155\n      jump\t// in\n    tag_238:\n        /* \"#utility.yul\":3108:3182   */\n      swap1\n      pop\n        /* \"#utility.yul\":3205:3211   */\n      dup3\n        /* \"#utility.yul\":3198:3203   */\n      dup2\n        /* \"#utility.yul\":3191:3212   */\n      mstore\n        /* \"#utility.yul\":3243:3247   */\n      0x20\n        /* \"#utility.yul\":3236:3241   */\n      dup2\n        /* \"#utility.yul\":3232:3248   */\n      add\n        /* \"#utility.yul\":3281:3284   */\n      dup5\n        /* \"#utility.yul\":3272:3278   */\n      dup5\n        /* \"#utility.yul\":3267:3270   */\n      dup5\n        /* \"#utility.yul\":3263:3279   */\n      add\n        /* \"#utility.yul\":3260:3285   */\n      gt\n        /* \"#utility.yul\":3257:3369   */\n      iszero\n      tag_240\n      jumpi\n        /* \"#utility.yul\":3288:3367   */\n      tag_241\n      tag_152\n      jump\t// in\n    tag_241:\n        /* \"#utility.yul\":3257:3369   */\n    tag_240:\n        /* \"#utility.yul\":3378:3432   */\n      tag_242\n        /* \"#utility.yul\":3425:3431   */\n      dup5\n        /* \"#utility.yul\":3420:3423   */\n      dup3\n        /* \"#utility.yul\":3415:3418   */\n      dup6\n        /* \"#utility.yul\":3378:3432   */\n      tag_157\n      jump\t// in\n    tag_242:\n        /* \"#utility.yul\":3098:3438   */\n      pop\n        /* \"#utility.yul\":3015:3438   */\n      swap4\n      swap3\n      pop\n      pop\n      pop\n      jump\t// out\n        /* \"#utility.yul\":3457:3795   */\n    tag_159:\n        /* \"#utility.yul\":3512:3517   */\n      0x00\n        /* \"#utility.yul\":3561:3564   */\n      dup3\n        /* \"#utility.yul\":3554:3558   */\n      0x1f\n        /* \"#utility.yul\":3546:3552   */\n      dup4\n        /* \"#utility.yul\":3542:3559   */\n      add\n        /* \"#utility.yul\":3538:3565   */\n      slt\n        /* \"#utility.yul\":3528:3650   */\n      tag_244\n      jumpi\n        /* \"#utility.yul\":3569:3648   */\n      tag_245\n      tag_151\n      jump\t// in\n    tag_245:\n        /* \"#utility.yul\":3528:3650   */\n    tag_244:\n        /* \"#utility.yul\":3686:3692   */\n      dup2\n        /* \"#utility.yul\":3673:3693   */\n      calldataload\n        /* \"#utility.yul\":3711:3789   */\n      tag_246\n        /* \"#utility.yul\":3785:3788   */\n      dup5\n        /* \"#utility.yul\":3777:3783   */\n      dup3\n        /* \"#utility.yul\":3770:3774   */\n      0x20\n        /* \"#utility.yul\":3762:3768   */\n      dup7\n        /* \"#utility.yul\":3758:3775   */\n      add\n        /* \"#utility.yul\":3711:3789   */\n      tag_158\n      jump\t// in\n    tag_246:\n        /* \"#utility.yul\":3702:3789   */\n      swap2\n      pop\n        /* \"#utility.yul\":3518:3795   */\n      pop\n        /* \"#utility.yul\":3457:3795   */\n      swap3\n      swap2\n      pop\n      pop\n      jump\t// out\n        /* \"#utility.yul\":3801:4453   */\n    tag_14:\n        /* \"#utility.yul\":3878:3884   */\n      0x00\n        /* \"#utility.yul\":3886:3892   */\n      dup1\n        /* \"#utility.yul\":3935:3937   */\n      0x40\n        /* \"#utility.yul\":3923:3932   */\n      dup4\n        /* \"#utility.yul\":3914:3921   */\n      dup6\n        /* \"#utility.yul\":3910:3933   */\n      sub\n        /* \"#utility.yul\":3906:3938   */\n      slt\n        /* \"#utility.yul\":3903:4022   */\n      iszero\n      tag_248\n      jumpi\n        /* \"#utility.yul\":3941:4020   */\n      tag_249\n      tag_142\n      jump\t// in\n    tag_249:\n        /* \"#utility.yul\":3903:4022   */\n    tag_248:\n        /* \"#utility.yul\":4061:4062   */\n      0x00\n        /* \"#utility.yul\":4086:4139   */\n      tag_250\n        /* \"#utility.yul\":4131:4138   */\n      dup6\n        /* \"#utility.yul\":4122:4128   */\n      dup3\n        /* \"#utility.yul\":4111:4120   */\n      dup7\n        /* \"#utility.yul\":4107:4129   */\n      add\n        /* \"#utility.yul\":4086:4139   */\n      tag_150\n      jump\t// in\n    tag_250:\n        /* \"#utility.yul\":4076:4139   */\n      swap3\n      pop\n        /* \"#utility.yul\":4032:4149   */\n      pop\n        /* \"#utility.yul\":4216:4218   */\n      0x20\n        /* \"#utility.yul\":4205:4214   */\n      dup4\n        /* \"#utility.yul\":4201:4219   */\n      add\n        /* \"#utility.yul\":4188:4220   */\n      calldataload\n        /* \"#utility.yul\":4247:4265   */\n      0xffffffffffffffff\n        /* \"#utility.yul\":4239:4245   */\n      dup2\n        /* \"#utility.yul\":4236:4266   */\n      gt\n        /* \"#utility.yul\":4233:4350   */\n      iszero\n      tag_251\n      jumpi\n        /* \"#utility.yul\":4269:4348   */\n      tag_252\n      tag_143\n      jump\t// in\n    tag_252:\n        /* \"#utility.yul\":4233:4350   */\n    tag_251:\n        /* \"#utility.yul\":4374:4436   */\n      tag_253\n        /* \"#utility.yul\":4428:4435   */\n      dup6\n        /* \"#utility.yul\":4419:4425   */\n      dup3\n        /* \"#utility.yul\":4408:4417   */\n      dup7\n        /* \"#utility.yul\":4404:4426   */\n      add\n        /* \"#utility.yul\":4374:4436   */\n      tag_159\n      jump\t// in\n    tag_253:\n        /* \"#utility.yul\":4364:4436   */\n      swap2\n      pop\n        /* \"#utility.yul\":4159:4446   */\n      pop\n        /* \"#utility.yul\":3801:4453   */\n      swap3\n      pop\n      swap3\n      swap1\n      pop\n      jump\t// out\n        /* \"#utility.yul\":4459:4608   */\n    tag_160:\n        /* \"#utility.yul\":4495:4502   */\n      0x00\n        /* \"#utility.yul\":4535:4601   */\n      0xffffffff00000000000000000000000000000000000000000000000000000000\n        /* \"#utility.yul\":4528:4533   */\n      dup3\n        /* \"#utility.yul\":4524:4602   */\n      and\n        /* \"#utility.yul\":4513:4602   */\n      swap1\n      pop\n        /* \"#utility.yul\":4459:4608   */\n      swap2\n      swap1\n      pop\n      jump\t// out\n        /* \"#utility.yul\":4614:4729   */\n    tag_161:\n        /* \"#utility.yul\":4699:4722   */\n      tag_256\n        /* \"#utility.yul\":4716:4721   */\n      dup2\n        /* \"#utility.yul\":4699:4722   */\n      tag_160\n      jump\t// in\n    tag_256:\n        /* \"#utility.yul\":4694:4697   */\n      dup3\n        /* \"#utility.yul\":4687:4723   */\n      mstore\n        /* \"#utility.yul\":4614:4729   */\n      pop\n      pop\n      jump\t// out\n        /* \"#utility.yul\":4735:4953   */\n    tag_17:\n        /* \"#utility.yul\":4826:4830   */\n      0x00\n        /* \"#utility.yul\":4864:4866   */\n      0x20\n        /* \"#utility.yul\":4853:4862   */\n      dup3\n        /* \"#utility.yul\":4849:4867   */\n      add\n        /* \"#utility.yul\":4841:4867   */\n      swap1\n      pop\n        /* \"#utility.yul\":4877:4946   */\n      tag_258\n        /* \"#utility.yul\":4943:4944   */\n      0x00\n        /* \"#utility.yul\":4932:4941   */\n      dup4\n        /* \"#utility.yul\":4928:4945   */\n      add\n        /* \"#utility.yul\":4919:4925   */\n      dup5\n        /* \"#utility.yul\":4877:4946   */\n      tag_161\n      jump\t// in\n    tag_258:\n        /* \"#utility.yul\":4735:4953   */\n      swap3\n      swap2\n      pop\n      pop\n      jump\t// out\n        /* \"#utility.yul\":4959:5267   */\n    tag_162:\n        /* \"#utility.yul\":5021:5025   */\n      0x00\n        /* \"#utility.yul\":5111:5129   */\n      0xffffffffffffffff\n        /* \"#utility.yul\":5103:5109   */\n      dup3\n        /* \"#utility.yul\":5100:5130   */\n      gt\n        /* \"#utility.yul\":5097:5153   */\n      iszero\n      tag_260\n      jumpi\n        /* \"#utility.yul\":5133:5151   */\n      tag_261\n      tag_89\n      jump\t// in\n    tag_261:\n        /* \"#utility.yul\":5097:5153   */\n    tag_260:\n        /* \"#utility.yul\":5171:5200   */\n      tag_262\n        /* \"#utility.yul\":5193:5199   */\n      dup3\n        /* \"#utility.yul\":5171:5200   */\n      tag_153\n      jump\t// in\n    tag_262:\n        /* \"#utility.yul\":5163:5200   */\n      swap1\n      pop\n        /* \"#utility.yul\":5255:5259   */\n      0x20\n        /* \"#utility.yul\":5249:5253   */\n      dup2\n        /* \"#utility.yul\":5245:5260   */\n      add\n        /* \"#utility.yul\":5237:5260   */\n      swap1\n      pop\n        /* \"#utility.yul\":4959:5267   */\n      swap2\n      swap1\n      pop\n      jump\t// out\n        /* \"#utility.yul\":5273:5698   */\n    tag_163:\n        /* \"#utility.yul\":5351:5356   */\n      0x00\n        /* \"#utility.yul\":5376:5442   */\n      tag_264\n        /* \"#utility.yul\":5392:5441   */\n      tag_265\n        /* \"#utility.yul\":5434:5440   */\n      dup5\n        /* \"#utility.yul\":5392:5441   */\n      tag_162\n      jump\t// in\n    tag_265:\n        /* \"#utility.yul\":5376:5442   */\n      tag_155\n      jump\t// in\n    tag_264:\n        /* \"#utility.yul\":5367:5442   */\n      swap1\n      pop\n        /* \"#utility.yul\":5465:5471   */\n      dup3\n        /* \"#utility.yul\":5458:5463   */\n      dup2\n        /* \"#utility.yul\":5451:5472   */\n      mstore\n        /* \"#utility.yul\":5503:5507   */\n      0x20\n        /* \"#utility.yul\":5496:5501   */\n      dup2\n        /* \"#utility.yul\":5492:5508   */\n      add\n        /* \"#utility.yul\":5541:5544   */\n      dup5\n        /* \"#utility.yul\":5532:5538   */\n      dup5\n        /* \"#utility.yul\":5527:5530   */\n      dup5\n        /* \"#utility.yul\":5523:5539   */\n      add\n        /* \"#utility.yul\":5520:5545   */\n      gt\n        /* \"#utility.yul\":5517:5629   */\n      iszero\n      tag_266\n      jumpi\n        /* \"#utility.yul\":5548:5627   */\n      tag_267\n      tag_152\n      jump\t// in\n    tag_267:\n        /* \"#utility.yul\":5517:5629   */\n    tag_266:\n        /* \"#utility.yul\":5638:5692   */\n      tag_268\n        /* \"#utility.yul\":5685:5691   */\n      dup5\n        /* \"#utility.yul\":5680:5683   */\n      dup3\n        /* \"#utility.yul\":5675:5678   */\n      dup6\n        /* \"#utility.yul\":5638:5692   */\n      tag_157\n      jump\t// in\n    tag_268:\n        /* \"#utility.yul\":5357:5698   */\n      pop\n        /* \"#utility.yul\":5273:5698   */\n      swap4\n      swap3\n      pop\n      pop\n      pop\n      jump\t// out\n        /* \"#utility.yul\":5718:6058   */\n    tag_164:\n        /* \"#utility.yul\":5774:5779   */\n      0x00\n        /* \"#utility.yul\":5823:5826   */\n      dup3\n        /* \"#utility.yul\":5816:5820   */\n      0x1f\n        /* \"#utility.yul\":5808:5814   */\n      dup4\n        /* \"#utility.yul\":5804:5821   */\n      add\n        /* \"#utility.yul\":5800:5827   */\n      slt\n        /* \"#utility.yul\":5790:5912   */\n      tag_270\n      jumpi\n        /* \"#utility.yul\":5831:5910   */\n      tag_271\n      tag_151\n      jump\t// in\n    tag_271:\n        /* \"#utility.yul\":5790:5912   */\n    tag_270:\n        /* \"#utility.yul\":5948:5954   */\n      dup2\n        /* \"#utility.yul\":5935:5955   */\n      calldataload\n        /* \"#utility.yul\":5973:6052   */\n      tag_272\n        /* \"#utility.yul\":6048:6051   */\n      dup5\n        /* \"#utility.yul\":6040:6046   */\n      dup3\n        /* \"#utility.yul\":6033:6037   */\n      0x20\n        /* \"#utility.yul\":6025:6031   */\n      dup7\n        /* \"#utility.yul\":6021:6038   */\n      add\n        /* \"#utility.yul\":5973:6052   */\n      tag_163\n      jump\t// in\n    tag_272:\n        /* \"#utility.yul\":5964:6052   */\n      swap2\n      pop\n        /* \"#utility.yul\":5780:6058   */\n      pop\n        /* \"#utility.yul\":5718:6058   */\n      swap3\n      swap2\n      pop\n      pop\n      jump\t// out\n        /* \"#utility.yul\":6064:6573   */\n    tag_21:\n        /* \"#utility.yul\":6133:6139   */\n      0x00\n        /* \"#utility.yul\":6182:6184   */\n      0x20\n        /* \"#utility.yul\":6170:6179   */\n      dup3\n        /* \"#utility.yul\":6161:6168   */\n      dup5\n        /* \"#utility.yul\":6157:6180   */\n      sub\n        /* \"#utility.yul\":6153:6185   */\n      slt\n        /* \"#utility.yul\":6150:6269   */\n      iszero\n      tag_274\n      jumpi\n        /* \"#utility.yul\":6188:6267   */\n      tag_275\n      tag_142\n      jump\t// in\n    tag_275:\n        /* \"#utility.yul\":6150:6269   */\n    tag_274:\n        /* \"#utility.yul\":6336:6337   */\n      0x00\n        /* \"#utility.yul\":6325:6334   */\n      dup3\n        /* \"#utility.yul\":6321:6338   */\n      add\n        /* \"#utility.yul\":6308:6339   */\n      calldataload\n        /* \"#utility.yul\":6366:6384   */\n      0xffffffffffffffff\n        /* \"#utility.yul\":6358:6364   */\n      dup2\n        /* \"#utility.yul\":6355:6385   */\n      gt\n        /* \"#utility.yul\":6352:6469   */\n      iszero\n      tag_276\n      jumpi\n        /* \"#utility.yul\":6388:6467   */\n      tag_277\n      tag_143\n      jump\t// in\n    tag_277:\n        /* \"#utility.yul\":6352:6469   */\n    tag_276:\n        /* \"#utility.yul\":6493:6556   */\n      tag_278\n        /* \"#utility.yul\":6548:6555   */\n      dup5\n        /* \"#utility.yul\":6539:6545   */\n      dup3\n        /* \"#utility.yul\":6528:6537   */\n      dup6\n        /* \"#utility.yul\":6524:6546   */\n      add\n        /* \"#utility.yul\":6493:6556   */\n      tag_164\n      jump\t// in\n    tag_278:\n        /* \"#utility.yul\":6483:6556   */\n      swap2\n      pop\n        /* \"#utility.yul\":6279:6566   */\n      pop\n        /* \"#utility.yul\":6064:6573   */\n      swap3\n      swap2\n      pop\n      pop\n      jump\t// out\n        /* \"#utility.yul\":6579:6675   */\n    tag_165:\n        /* \"#utility.yul\":6616:6623   */\n      0x00\n        /* \"#utility.yul\":6645:6669   */\n      tag_280\n        /* \"#utility.yul\":6663:6668   */\n      dup3\n        /* \"#utility.yul\":6645:6669   */\n      tag_144\n      jump\t// in\n    tag_280:\n        /* \"#utility.yul\":6634:6669   */\n      swap1\n      pop\n        /* \"#utility.yul\":6579:6675   */\n      swap2\n      swap1\n      pop\n      jump\t// out\n        /* \"#utility.yul\":6681:6799   */\n    tag_166:\n        /* \"#utility.yul\":6768:6792   */\n      tag_282\n        /* \"#utility.yul\":6786:6791   */\n      dup2\n        /* \"#utility.yul\":6768:6792   */\n      tag_165\n      jump\t// in\n    tag_282:\n        /* \"#utility.yul\":6763:6766   */\n      dup3\n        /* \"#utility.yul\":6756:6793   */\n      mstore\n        /* \"#utility.yul\":6681:6799   */\n      pop\n      pop\n      jump\t// out\n        /* \"#utility.yul\":6805:7027   */\n    tag_27:\n        /* \"#utility.yul\":6898:6902   */\n      0x00\n        /* \"#utility.yul\":6936:6938   */\n      0x20\n        /* \"#utility.yul\":6925:6934   */\n      dup3\n        /* \"#utility.yul\":6921:6939   */\n      add\n        /* \"#utility.yul\":6913:6939   */\n      swap1\n      pop\n        /* \"#utility.yul\":6949:7020   */\n      tag_284\n        /* \"#utility.yul\":7017:7018   */\n      0x00\n        /* \"#utility.yul\":7006:7015   */\n      dup4\n        /* \"#utility.yul\":7002:7019   */\n      add\n        /* \"#utility.yul\":6993:6999   */\n      dup5\n        /* \"#utility.yul\":6949:7020   */\n      tag_166\n      jump\t// in\n    tag_284:\n        /* \"#utility.yul\":6805:7027   */\n      swap3\n      swap2\n      pop\n      pop\n      jump\t// out\n        /* \"#utility.yul\":7033:7362   */\n    tag_31:\n        /* \"#utility.yul\":7092:7098   */\n      0x00\n        /* \"#utility.yul\":7141:7143   */\n      0x20\n        /* \"#utility.yul\":7129:7138   */\n      dup3\n        /* \"#utility.yul\":7120:7127   */\n      dup5\n        /* \"#utility.yul\":7116:7139   */\n      sub\n        /* \"#utility.yul\":7112:7144   */\n      slt\n        /* \"#utility.yul\":7109:7228   */\n      iszero\n      tag_286\n      jumpi\n        /* \"#utility.yul\":7147:7226   */\n      tag_287\n      tag_142\n      jump\t// in\n    tag_287:\n        /* \"#utility.yul\":7109:7228   */\n    tag_286:\n        /* \"#utility.yul\":7267:7268   */\n      0x00\n        /* \"#utility.yul\":7292:7345   */\n      tag_288\n        /* \"#utility.yul\":7337:7344   */\n      dup5\n        /* \"#utility.yul\":7328:7334   */\n      dup3\n        /* \"#utility.yul\":7317:7326   */\n      dup6\n        /* \"#utility.yul\":7313:7335   */\n      add\n        /* \"#utility.yul\":7292:7345   */\n      tag_150\n      jump\t// in\n    tag_288:\n        /* \"#utility.yul\":7282:7345   */\n      swap2\n      pop\n        /* \"#utility.yul\":7238:7355   */\n      pop\n        /* \"#utility.yul\":7033:7362   */\n      swap3\n      swap2\n      pop\n      pop\n      jump\t// out\n        /* \"#utility.yul\":7368:7458   */\n    tag_167:\n        /* \"#utility.yul\":7402:7409   */\n      0x00\n        /* \"#utility.yul\":7445:7450   */\n      dup2\n        /* \"#utility.yul\":7438:7451   */\n      iszero\n        /* \"#utility.yul\":7431:7452   */\n      iszero\n        /* \"#utility.yul\":7420:7452   */\n      swap1\n      pop\n        /* \"#utility.yul\":7368:7458   */\n      swap2\n      swap1\n      pop\n      jump\t// out\n        /* \"#utility.yul\":7464:7573   */\n    tag_168:\n        /* \"#utility.yul\":7545:7566   */\n      tag_291\n        /* \"#utility.yul\":7560:7565   */\n      dup2\n        /* \"#utility.yul\":7545:7566   */\n      tag_167\n      jump\t// in\n    tag_291:\n        /* \"#utility.yul\":7540:7543   */\n      dup3\n        /* \"#utility.yul\":7533:7567   */\n      mstore\n        /* \"#utility.yul\":7464:7573   */\n      pop\n      pop\n      jump\t// out\n        /* \"#utility.yul\":7579:7789   */\n    tag_34:\n        /* \"#utility.yul\":7666:7670   */\n      0x00\n        /* \"#utility.yul\":7704:7706   */\n      0x20\n        /* \"#utility.yul\":7693:7702   */\n      dup3\n        /* \"#utility.yul\":7689:7707   */\n      add\n        /* \"#utility.yul\":7681:7707   */\n      swap1\n      pop\n        /* \"#utility.yul\":7717:7782   */\n      tag_293\n        /* \"#utility.yul\":7779:7780   */\n      0x00\n        /* \"#utility.yul\":7768:7777   */\n      dup4\n        /* \"#utility.yul\":7764:7781   */\n      add\n        /* \"#utility.yul\":7755:7761   */\n      dup5\n        /* \"#utility.yul\":7717:7782   */\n      tag_168\n      jump\t// in\n    tag_293:\n        /* \"#utility.yul\":7579:7789   */\n      swap3\n      swap2\n      pop\n      pop\n      jump\t// out\n        /* \"#utility.yul\":7795:7964   */\n    tag_169:\n        /* \"#utility.yul\":7879:7890   */\n      0x00\n        /* \"#utility.yul\":7913:7919   */\n      dup3\n        /* \"#utility.yul\":7908:7911   */\n      dup3\n        /* \"#utility.yul\":7901:7920   */\n      mstore\n        /* \"#utility.yul\":7953:7957   */\n      0x20\n        /* \"#utility.yul\":7948:7951   */\n      dup3\n        /* \"#utility.yul\":7944:7958   */\n      add\n        /* \"#utility.yul\":7929:7958   */\n      swap1\n      pop\n        /* \"#utility.yul\":7795:7964   */\n      swap3\n      swap2\n      pop\n      pop\n      jump\t// out\n        /* \"#utility.yul\":7970:8142   */\n    tag_170:\n        /* \"#utility.yul\":8110:8134   */\n      0x4e6f742074686520636f6e7472616374206f776e657200000000000000000000\n        /* \"#utility.yul\":8106:8107   */\n      0x00\n        /* \"#utility.yul\":8098:8104   */\n      dup3\n        /* \"#utility.yul\":8094:8108   */\n      add\n        /* \"#utility.yul\":8087:8135   */\n      mstore\n        /* \"#utility.yul\":7970:8142   */\n      pop\n      jump\t// out\n        /* \"#utility.yul\":8148:8514   */\n    tag_171:\n        /* \"#utility.yul\":8290:8293   */\n      0x00\n        /* \"#utility.yul\":8311:8378   */\n      tag_297\n        /* \"#utility.yul\":8375:8377   */\n      0x16\n        /* \"#utility.yul\":8370:8373   */\n      dup4\n        /* \"#utility.yul\":8311:8378   */\n      tag_169\n      jump\t// in\n    tag_297:\n        /* \"#utility.yul\":8304:8378   */\n      swap2\n      pop\n        /* \"#utility.yul\":8387:8480   */\n      tag_298\n        /* \"#utility.yul\":8476:8479   */\n      dup3\n        /* \"#utility.yul\":8387:8480   */\n      tag_170\n      jump\t// in\n    tag_298:\n        /* \"#utility.yul\":8505:8507   */\n      0x20\n        /* \"#utility.yul\":8500:8503   */\n      dup3\n        /* \"#utility.yul\":8496:8508   */\n      add\n        /* \"#utility.yul\":8489:8508   */\n      swap1\n      pop\n        /* \"#utility.yul\":8148:8514   */\n      swap2\n      swap1\n      pop\n      jump\t// out\n        /* \"#utility.yul\":8520:8939   */\n    tag_38:\n        /* \"#utility.yul\":8686:8690   */\n      0x00\n        /* \"#utility.yul\":8724:8726   */\n      0x20\n        /* \"#utility.yul\":8713:8722   */\n      dup3\n        /* \"#utility.yul\":8709:8727   */\n      add\n        /* \"#utility.yul\":8701:8727   */\n      swap1\n      pop\n        /* \"#utility.yul\":8773:8782   */\n      dup2\n        /* \"#utility.yul\":8767:8771   */\n      dup2\n        /* \"#utility.yul\":8763:8783   */\n      sub\n        /* \"#utility.yul\":8759:8760   */\n      0x00\n        /* \"#utility.yul\":8748:8757   */\n      dup4\n        /* \"#utility.yul\":8744:8761   */\n      add\n        /* \"#utility.yul\":8737:8784   */\n      mstore\n        /* \"#utility.yul\":8801:8932   */\n      tag_300\n        /* \"#utility.yul\":8927:8931   */\n      dup2\n        /* \"#utility.yul\":8801:8932   */\n      tag_171\n      jump\t// in\n    tag_300:\n        /* \"#utility.yul\":8793:8932   */\n      swap1\n      pop\n        /* \"#utility.yul\":8520:8939   */\n      swap2\n      swap1\n      pop\n      jump\t// out\n        /* \"#utility.yul\":8945:9119   */\n    tag_172:\n        /* \"#utility.yul\":9085:9111   */\n      0x496e76616c696420636f6e747261637420616464726573730000000000000000\n        /* \"#utility.yul\":9081:9082   */\n      0x00\n        /* \"#utility.yul\":9073:9079   */\n      dup3\n        /* \"#utility.yul\":9069:9083   */\n      add\n        /* \"#utility.yul\":9062:9112   */\n      mstore\n        /* \"#utility.yul\":8945:9119   */\n      pop\n      jump\t// out\n        /* \"#utility.yul\":9125:9491   */\n    tag_173:\n        /* \"#utility.yul\":9267:9270   */\n      0x00\n        /* \"#utility.yul\":9288:9355   */\n      tag_303\n        /* \"#utility.yul\":9352:9354   */\n      0x18\n        /* \"#utility.yul\":9347:9350   */\n      dup4\n        /* \"#utility.yul\":9288:9355   */\n      tag_169\n      jump\t// in\n    tag_303:\n        /* \"#utility.yul\":9281:9355   */\n      swap2\n      pop\n        /* \"#utility.yul\":9364:9457   */\n      tag_304\n        /* \"#utility.yul\":9453:9456   */\n      dup3\n        /* \"#utility.yul\":9364:9457   */\n      tag_172\n      jump\t// in\n    tag_304:\n        /* \"#utility.yul\":9482:9484   */\n      0x20\n        /* \"#utility.yul\":9477:9480   */\n      dup3\n        /* \"#utility.yul\":9473:9485   */\n      add\n        /* \"#utility.yul\":9466:9485   */\n      swap1\n      pop\n        /* \"#utility.yul\":9125:9491   */\n      swap2\n      swap1\n      pop\n      jump\t// out\n        /* \"#utility.yul\":9497:9916   */\n    tag_42:\n        /* \"#utility.yul\":9663:9667   */\n      0x00\n        /* \"#utility.yul\":9701:9703   */\n      0x20\n        /* \"#utility.yul\":9690:9699   */\n      dup3\n        /* \"#utility.yul\":9686:9704   */\n      add\n        /* \"#utility.yul\":9678:9704   */\n      swap1\n      pop\n        /* \"#utility.yul\":9750:9759   */\n      dup2\n        /* \"#utility.yul\":9744:9748   */\n      dup2\n        /* \"#utility.yul\":9740:9760   */\n      sub\n        /* \"#utility.yul\":9736:9737   */\n      0x00\n        /* \"#utility.yul\":9725:9734   */\n      dup4\n        /* \"#utility.yul\":9721:9738   */\n      add\n        /* \"#utility.yul\":9714:9761   */\n      mstore\n        /* \"#utility.yul\":9778:9909   */\n      tag_306\n        /* \"#utility.yul\":9904:9908   */\n      dup2\n        /* \"#utility.yul\":9778:9909   */\n      tag_173\n      jump\t// in\n    tag_306:\n        /* \"#utility.yul\":9770:9909   */\n      swap1\n      pop\n        /* \"#utility.yul\":9497:9916   */\n      swap2\n      swap1\n      pop\n      jump\t// out\n        /* \"#utility.yul\":9922:10099   */\n    tag_174:\n        /* \"#utility.yul\":10062:10091   */\n      0x4d7573742073656e64206120706f73697469766520616d6f756e740000000000\n        /* \"#utility.yul\":10058:10059   */\n      0x00\n        /* \"#utility.yul\":10050:10056   */\n      dup3\n        /* \"#utility.yul\":10046:10060   */\n      add\n        /* \"#utility.yul\":10039:10092   */\n      mstore\n        /* \"#utility.yul\":9922:10099   */\n      pop\n      jump\t// out\n        /* \"#utility.yul\":10105:10471   */\n    tag_175:\n        /* \"#utility.yul\":10247:10250   */\n      0x00\n        /* \"#utility.yul\":10268:10335   */\n      tag_309\n        /* \"#utility.yul\":10332:10334   */\n      0x1b\n        /* \"#utility.yul\":10327:10330   */\n      dup4\n        /* \"#utility.yul\":10268:10335   */\n      tag_169\n      jump\t// in\n    tag_309:\n        /* \"#utility.yul\":10261:10335   */\n      swap2\n      pop\n        /* \"#utility.yul\":10344:10437   */\n      tag_310\n        /* \"#utility.yul\":10433:10436   */\n      dup3\n        /* \"#utility.yul\":10344:10437   */\n      tag_174\n      jump\t// in\n    tag_310:\n        /* \"#utility.yul\":10462:10464   */\n      0x20\n        /* \"#utility.yul\":10457:10460   */\n      dup3\n        /* \"#utility.yul\":10453:10465   */\n      add\n        /* \"#utility.yul\":10446:10465   */\n      swap1\n      pop\n        /* \"#utility.yul\":10105:10471   */\n      swap2\n      swap1\n      pop\n      jump\t// out\n        /* \"#utility.yul\":10477:10896   */\n    tag_45:\n        /* \"#utility.yul\":10643:10647   */\n      0x00\n        /* \"#utility.yul\":10681:10683   */\n      0x20\n        /* \"#utility.yul\":10670:10679   */\n      dup3\n        /* \"#utility.yul\":10666:10684   */\n      add\n        /* \"#utility.yul\":10658:10684   */\n      swap1\n      pop\n        /* \"#utility.yul\":10730:10739   */\n      dup2\n        /* \"#utility.yul\":10724:10728   */\n      dup2\n        /* \"#utility.yul\":10720:10740   */\n      sub\n        /* \"#utility.yul\":10716:10717   */\n      0x00\n        /* \"#utility.yul\":10705:10714   */\n      dup4\n        /* \"#utility.yul\":10701:10718   */\n      add\n        /* \"#utility.yul\":10694:10741   */\n      mstore\n        /* \"#utility.yul\":10758:10889   */\n      tag_312\n        /* \"#utility.yul\":10884:10888   */\n      dup2\n        /* \"#utility.yul\":10758:10889   */\n      tag_175\n      jump\t// in\n    tag_312:\n        /* \"#utility.yul\":10750:10889   */\n      swap1\n      pop\n        /* \"#utility.yul\":10477:10896   */\n      swap2\n      swap1\n      pop\n      jump\t// out\n        /* \"#utility.yul\":10902:11049   */\n    tag_176:\n        /* \"#utility.yul\":11003:11014   */\n      0x00\n        /* \"#utility.yul\":11040:11043   */\n      dup2\n        /* \"#utility.yul\":11025:11043   */\n      swap1\n      pop\n        /* \"#utility.yul\":10902:11049   */\n      swap3\n      swap2\n      pop\n      pop\n      jump\t// out\n        /* \"#utility.yul\":11055:11169   */\n    tag_177:\n      pop\n      jump\t// out\n        /* \"#utility.yul\":11175:11573   */\n    tag_178:\n        /* \"#utility.yul\":11334:11337   */\n      0x00\n        /* \"#utility.yul\":11355:11438   */\n      tag_316\n        /* \"#utility.yul\":11436:11437   */\n      0x00\n        /* \"#utility.yul\":11431:11434   */\n      dup4\n        /* \"#utility.yul\":11355:11438   */\n      tag_176\n      jump\t// in\n    tag_316:\n        /* \"#utility.yul\":11348:11438   */\n      swap2\n      pop\n        /* \"#utility.yul\":11447:11540   */\n      tag_317\n        /* \"#utility.yul\":11536:11539   */\n      dup3\n        /* \"#utility.yul\":11447:11540   */\n      tag_177\n      jump\t// in\n    tag_317:\n        /* \"#utility.yul\":11565:11566   */\n      0x00\n        /* \"#utility.yul\":11560:11563   */\n      dup3\n        /* \"#utility.yul\":11556:11567   */\n      add\n        /* \"#utility.yul\":11549:11567   */\n      swap1\n      pop\n        /* \"#utility.yul\":11175:11573   */\n      swap2\n      swap1\n      pop\n      jump\t// out\n        /* \"#utility.yul\":11579:11958   */\n    tag_47:\n        /* \"#utility.yul\":11763:11766   */\n      0x00\n        /* \"#utility.yul\":11785:11932   */\n      tag_319\n        /* \"#utility.yul\":11928:11931   */\n      dup3\n        /* \"#utility.yul\":11785:11932   */\n      tag_178\n      jump\t// in\n    tag_319:\n        /* \"#utility.yul\":11778:11932   */\n      swap2\n      pop\n        /* \"#utility.yul\":11949:11952   */\n      dup2\n        /* \"#utility.yul\":11942:11952   */\n      swap1\n      pop\n        /* \"#utility.yul\":11579:11958   */\n      swap2\n      swap1\n      pop\n      jump\t// out\n        /* \"#utility.yul\":11964:12129   */\n    tag_179:\n        /* \"#utility.yul\":12104:12121   */\n      0x5472616e73666572206661696c65640000000000000000000000000000000000\n        /* \"#utility.yul\":12100:12101   */\n      0x00\n        /* \"#utility.yul\":12092:12098   */\n      dup3\n        /* \"#utility.yul\":12088:12102   */\n      add\n        /* \"#utility.yul\":12081:12122   */\n      mstore\n        /* \"#utility.yul\":11964:12129   */\n      pop\n      jump\t// out\n        /* \"#utility.yul\":12135:12501   */\n    tag_180:\n        /* \"#utility.yul\":12277:12280   */\n      0x00\n        /* \"#utility.yul\":12298:12365   */\n      tag_322\n        /* \"#utility.yul\":12362:12364   */\n      0x0f\n        /* \"#utility.yul\":12357:12360   */\n      dup4\n        /* \"#utility.yul\":12298:12365   */\n      tag_169\n      jump\t// in\n    tag_322:\n        /* \"#utility.yul\":12291:12365   */\n      swap2\n      pop\n        /* \"#utility.yul\":12374:12467   */\n      tag_323\n        /* \"#utility.yul\":12463:12466   */\n      dup3\n        /* \"#utility.yul\":12374:12467   */\n      tag_179\n      jump\t// in\n    tag_323:\n        /* \"#utility.yul\":12492:12494   */\n      0x20\n        /* \"#utility.yul\":12487:12490   */\n      dup3\n        /* \"#utility.yul\":12483:12495   */\n      add\n        /* \"#utility.yul\":12476:12495   */\n      swap1\n      pop\n        /* \"#utility.yul\":12135:12501   */\n      swap2\n      swap1\n      pop\n      jump\t// out\n        /* \"#utility.yul\":12507:12926   */\n    tag_53:\n        /* \"#utility.yul\":12673:12677   */\n      0x00\n        /* \"#utility.yul\":12711:12713   */\n      0x20\n        /* \"#utility.yul\":12700:12709   */\n      dup3\n        /* \"#utility.yul\":12696:12714   */\n      add\n        /* \"#utility.yul\":12688:12714   */\n      swap1\n      pop\n        /* \"#utility.yul\":12760:12769   */\n      dup2\n        /* \"#utility.yul\":12754:12758   */\n      dup2\n        /* \"#utility.yul\":12750:12770   */\n      sub\n        /* \"#utility.yul\":12746:12747   */\n      0x00\n        /* \"#utility.yul\":12735:12744   */\n      dup4\n        /* \"#utility.yul\":12731:12748   */\n      add\n        /* \"#utility.yul\":12724:12771   */\n      mstore\n        /* \"#utility.yul\":12788:12919   */\n      tag_325\n        /* \"#utility.yul\":12914:12918   */\n      dup2\n        /* \"#utility.yul\":12788:12919   */\n      tag_180\n      jump\t// in\n    tag_325:\n        /* \"#utility.yul\":12780:12919   */\n      swap1\n      pop\n        /* \"#utility.yul\":12507:12926   */\n      swap2\n      swap1\n      pop\n      jump\t// out\n        /* \"#utility.yul\":12932:13009   */\n    tag_181:\n        /* \"#utility.yul\":12969:12976   */\n      0x00\n        /* \"#utility.yul\":12998:13003   */\n      dup2\n        /* \"#utility.yul\":12987:13003   */\n      swap1\n      pop\n        /* \"#utility.yul\":12932:13009   */\n      swap2\n      swap1\n      pop\n      jump\t// out\n        /* \"#utility.yul\":13015:13133   */\n    tag_182:\n        /* \"#utility.yul\":13102:13126   */\n      tag_328\n        /* \"#utility.yul\":13120:13125   */\n      dup2\n        /* \"#utility.yul\":13102:13126   */\n      tag_181\n      jump\t// in\n    tag_328:\n        /* \"#utility.yul\":13097:13100   */\n      dup3\n        /* \"#utility.yul\":13090:13127   */\n      mstore\n        /* \"#utility.yul\":13015:13133   */\n      pop\n      pop\n      jump\t// out\n        /* \"#utility.yul\":13139:13361   */\n    tag_55:\n        /* \"#utility.yul\":13232:13236   */\n      0x00\n        /* \"#utility.yul\":13270:13272   */\n      0x20\n        /* \"#utility.yul\":13259:13268   */\n      dup3\n        /* \"#utility.yul\":13255:13273   */\n      add\n        /* \"#utility.yul\":13247:13273   */\n      swap1\n      pop\n        /* \"#utility.yul\":13283:13354   */\n      tag_330\n        /* \"#utility.yul\":13351:13352   */\n      0x00\n        /* \"#utility.yul\":13340:13349   */\n      dup4\n        /* \"#utility.yul\":13336:13353   */\n      add\n        /* \"#utility.yul\":13327:13333   */\n      dup5\n        /* \"#utility.yul\":13283:13354   */\n      tag_182\n      jump\t// in\n    tag_330:\n        /* \"#utility.yul\":13139:13361   */\n      swap3\n      swap2\n      pop\n      pop\n      jump\t// out\n        /* \"#utility.yul\":13367:13446   */\n    tag_183:\n        /* \"#utility.yul\":13406:13413   */\n      0x00\n        /* \"#utility.yul\":13435:13440   */\n      dup2\n        /* \"#utility.yul\":13424:13440   */\n      swap1\n      pop\n        /* \"#utility.yul\":13367:13446   */\n      swap2\n      swap1\n      pop\n      jump\t// out\n        /* \"#utility.yul\":13452:13609   */\n    tag_184:\n        /* \"#utility.yul\":13557:13602   */\n      tag_333\n        /* \"#utility.yul\":13577:13601   */\n      tag_334\n        /* \"#utility.yul\":13595:13600   */\n      dup3\n        /* \"#utility.yul\":13577:13601   */\n      tag_148\n      jump\t// in\n    tag_334:\n        /* \"#utility.yul\":13557:13602   */\n      tag_183\n      jump\t// in\n    tag_333:\n        /* \"#utility.yul\":13552:13555   */\n      dup3\n        /* \"#utility.yul\":13545:13603   */\n      mstore\n        /* \"#utility.yul\":13452:13609   */\n      pop\n      pop\n      jump\t// out\n        /* \"#utility.yul\":13615:13709   */\n    tag_185:\n        /* \"#utility.yul\":13648:13656   */\n      0x00\n        /* \"#utility.yul\":13696:13701   */\n      dup2\n        /* \"#utility.yul\":13692:13694   */\n      0x60\n        /* \"#utility.yul\":13688:13702   */\n      shl\n        /* \"#utility.yul\":13667:13702   */\n      swap1\n      pop\n        /* \"#utility.yul\":13615:13709   */\n      swap2\n      swap1\n      pop\n      jump\t// out\n        /* \"#utility.yul\":13715:13809   */\n    tag_186:\n        /* \"#utility.yul\":13754:13761   */\n      0x00\n        /* \"#utility.yul\":13783:13803   */\n      tag_337\n        /* \"#utility.yul\":13797:13802   */\n      dup3\n        /* \"#utility.yul\":13783:13803   */\n      tag_185\n      jump\t// in\n    tag_337:\n        /* \"#utility.yul\":13772:13803   */\n      swap1\n      pop\n        /* \"#utility.yul\":13715:13809   */\n      swap2\n      swap1\n      pop\n      jump\t// out\n        /* \"#utility.yul\":13815:13915   */\n    tag_187:\n        /* \"#utility.yul\":13854:13861   */\n      0x00\n        /* \"#utility.yul\":13883:13909   */\n      tag_339\n        /* \"#utility.yul\":13903:13908   */\n      dup3\n        /* \"#utility.yul\":13883:13909   */\n      tag_186\n      jump\t// in\n    tag_339:\n        /* \"#utility.yul\":13872:13909   */\n      swap1\n      pop\n        /* \"#utility.yul\":13815:13915   */\n      swap2\n      swap1\n      pop\n      jump\t// out\n        /* \"#utility.yul\":13921:14078   */\n    tag_188:\n        /* \"#utility.yul\":14026:14071   */\n      tag_341\n        /* \"#utility.yul\":14046:14070   */\n      tag_342\n        /* \"#utility.yul\":14064:14069   */\n      dup3\n        /* \"#utility.yul\":14046:14070   */\n      tag_165\n      jump\t// in\n    tag_342:\n        /* \"#utility.yul\":14026:14071   */\n      tag_187\n      jump\t// in\n    tag_341:\n        /* \"#utility.yul\":14021:14024   */\n      dup3\n        /* \"#utility.yul\":14014:14072   */\n      mstore\n        /* \"#utility.yul\":13921:14078   */\n      pop\n      pop\n      jump\t// out\n        /* \"#utility.yul\":14084:14481   */\n    tag_58:\n        /* \"#utility.yul\":14224:14227   */\n      0x00\n        /* \"#utility.yul\":14239:14314   */\n      tag_344\n        /* \"#utility.yul\":14310:14313   */\n      dup3\n        /* \"#utility.yul\":14301:14307   */\n      dup6\n        /* \"#utility.yul\":14239:14314   */\n      tag_184\n      jump\t// in\n    tag_344:\n        /* \"#utility.yul\":14339:14341   */\n      0x20\n        /* \"#utility.yul\":14334:14337   */\n      dup3\n        /* \"#utility.yul\":14330:14342   */\n      add\n        /* \"#utility.yul\":14323:14342   */\n      swap2\n      pop\n        /* \"#utility.yul\":14352:14427   */\n      tag_345\n        /* \"#utility.yul\":14423:14426   */\n      dup3\n        /* \"#utility.yul\":14414:14420   */\n      dup5\n        /* \"#utility.yul\":14352:14427   */\n      tag_188\n      jump\t// in\n    tag_345:\n        /* \"#utility.yul\":14452:14454   */\n      0x14\n        /* \"#utility.yul\":14447:14450   */\n      dup3\n        /* \"#utility.yul\":14443:14455   */\n      add\n        /* \"#utility.yul\":14436:14455   */\n      swap2\n      pop\n        /* \"#utility.yul\":14472:14475   */\n      dup2\n        /* \"#utility.yul\":14465:14475   */\n      swap1\n      pop\n        /* \"#utility.yul\":14084:14481   */\n      swap4\n      swap3\n      pop\n      pop\n      pop\n      jump\t// out\n        /* \"#utility.yul\":14487:14661   */\n    tag_189:\n        /* \"#utility.yul\":14627:14653   */\n      0x4d65737361676520616c72656164792065786563757465640000000000000000\n        /* \"#utility.yul\":14623:14624   */\n      0x00\n        /* \"#utility.yul\":14615:14621   */\n      dup3\n        /* \"#utility.yul\":14611:14625   */\n      add\n        /* \"#utility.yul\":14604:14654   */\n      mstore\n        /* \"#utility.yul\":14487:14661   */\n      pop\n      jump\t// out\n        /* \"#utility.yul\":14667:15033   */\n    tag_190:\n        /* \"#utility.yul\":14809:14812   */\n      0x00\n        /* \"#utility.yul\":14830:14897   */\n      tag_348\n        /* \"#utility.yul\":14894:14896   */\n      0x18\n        /* \"#utility.yul\":14889:14892   */\n      dup4\n        /* \"#utility.yul\":14830:14897   */\n      tag_169\n      jump\t// in\n    tag_348:\n        /* \"#utility.yul\":14823:14897   */\n      swap2\n      pop\n        /* \"#utility.yul\":14906:14999   */\n      tag_349\n        /* \"#utility.yul\":14995:14998   */\n      dup3\n        /* \"#utility.yul\":14906:14999   */\n      tag_189\n      jump\t// in\n    tag_349:\n        /* \"#utility.yul\":15024:15026   */\n      0x20\n        /* \"#utility.yul\":15019:15022   */\n      dup3\n        /* \"#utility.yul\":15015:15027   */\n      add\n        /* \"#utility.yul\":15008:15027   */\n      swap1\n      pop\n        /* \"#utility.yul\":14667:15033   */\n      swap2\n      swap1\n      pop\n      jump\t// out\n        /* \"#utility.yul\":15039:15458   */\n    tag_61:\n        /* \"#utility.yul\":15205:15209   */\n      0x00\n        /* \"#utility.yul\":15243:15245   */\n      0x20\n        /* \"#utility.yul\":15232:15241   */\n      dup3\n        /* \"#utility.yul\":15228:15246   */\n      add\n        /* \"#utility.yul\":15220:15246   */\n      swap1\n      pop\n        /* \"#utility.yul\":15292:15301   */\n      dup2\n        /* \"#utility.yul\":15286:15290   */\n      dup2\n        /* \"#utility.yul\":15282:15302   */\n      sub\n        /* \"#utility.yul\":15278:15279   */\n      0x00\n        /* \"#utility.yul\":15267:15276   */\n      dup4\n        /* \"#utility.yul\":15263:15280   */\n      add\n        /* \"#utility.yul\":15256:15303   */\n      mstore\n        /* \"#utility.yul\":15320:15451   */\n      tag_351\n        /* \"#utility.yul\":15446:15450   */\n      dup2\n        /* \"#utility.yul\":15320:15451   */\n      tag_190\n      jump\t// in\n    tag_351:\n        /* \"#utility.yul\":15312:15451   */\n      swap1\n      pop\n        /* \"#utility.yul\":15039:15458   */\n      swap2\n      swap1\n      pop\n      jump\t// out\n        /* \"#utility.yul\":15464:15638   */\n    tag_191:\n        /* \"#utility.yul\":15604:15630   */\n      0x496e76616c6964207369676e6174757265206c656e6774680000000000000000\n        /* \"#utility.yul\":15600:15601   */\n      0x00\n        /* \"#utility.yul\":15592:15598   */\n      dup3\n        /* \"#utility.yul\":15588:15602   */\n      add\n        /* \"#utility.yul\":15581:15631   */\n      mstore\n        /* \"#utility.yul\":15464:15638   */\n      pop\n      jump\t// out\n        /* \"#utility.yul\":15644:16010   */\n    tag_192:\n        /* \"#utility.yul\":15786:15789   */\n      0x00\n        /* \"#utility.yul\":15807:15874   */\n      tag_354\n        /* \"#utility.yul\":15871:15873   */\n      0x18\n        /* \"#utility.yul\":15866:15869   */\n      dup4\n        /* \"#utility.yul\":15807:15874   */\n      tag_169\n      jump\t// in\n    tag_354:\n        /* \"#utility.yul\":15800:15874   */\n      swap2\n      pop\n        /* \"#utility.yul\":15883:15976   */\n      tag_355\n        /* \"#utility.yul\":15972:15975   */\n      dup3\n        /* \"#utility.yul\":15883:15976   */\n      tag_191\n      jump\t// in\n    tag_355:\n        /* \"#utility.yul\":16001:16003   */\n      0x20\n        /* \"#utility.yul\":15996:15999   */\n      dup3\n        /* \"#utility.yul\":15992:16004   */\n      add\n        /* \"#utility.yul\":15985:16004   */\n      swap1\n      pop\n        /* \"#utility.yul\":15644:16010   */\n      swap2\n      swap1\n      pop\n      jump\t// out\n        /* \"#utility.yul\":16016:16435   */\n    tag_64:\n        /* \"#utility.yul\":16182:16186   */\n      0x00\n        /* \"#utility.yul\":16220:16222   */\n      0x20\n        /* \"#utility.yul\":16209:16218   */\n      dup3\n        /* \"#utility.yul\":16205:16223   */\n      add\n        /* \"#utility.yul\":16197:16223   */\n      swap1\n      pop\n        /* \"#utility.yul\":16269:16278   */\n      dup2\n        /* \"#utility.yul\":16263:16267   */\n      dup2\n        /* \"#utility.yul\":16259:16279   */\n      sub\n        /* \"#utility.yul\":16255:16256   */\n      0x00\n        /* \"#utility.yul\":16244:16253   */\n      dup4\n        /* \"#utility.yul\":16240:16257   */\n      add\n        /* \"#utility.yul\":16233:16280   */\n      mstore\n        /* \"#utility.yul\":16297:16428   */\n      tag_357\n        /* \"#utility.yul\":16423:16427   */\n      dup2\n        /* \"#utility.yul\":16297:16428   */\n      tag_192\n      jump\t// in\n    tag_357:\n        /* \"#utility.yul\":16289:16428   */\n      swap1\n      pop\n        /* \"#utility.yul\":16016:16435   */\n      swap2\n      swap1\n      pop\n      jump\t// out\n        /* \"#utility.yul\":16441:16559   */\n    tag_193:\n        /* \"#utility.yul\":16528:16552   */\n      tag_359\n        /* \"#utility.yul\":16546:16551   */\n      dup2\n        /* \"#utility.yul\":16528:16552   */\n      tag_148\n      jump\t// in\n    tag_359:\n        /* \"#utility.yul\":16523:16526   */\n      dup3\n        /* \"#utility.yul\":16516:16553   */\n      mstore\n        /* \"#utility.yul\":16441:16559   */\n      pop\n      pop\n      jump\t// out\n        /* \"#utility.yul\":16565:16651   */\n    tag_194:\n        /* \"#utility.yul\":16600:16607   */\n      0x00\n        /* \"#utility.yul\":16640:16644   */\n      0xff\n        /* \"#utility.yul\":16633:16638   */\n      dup3\n        /* \"#utility.yul\":16629:16645   */\n      and\n        /* \"#utility.yul\":16618:16645   */\n      swap1\n      pop\n        /* \"#utility.yul\":16565:16651   */\n      swap2\n      swap1\n      pop\n      jump\t// out\n        /* \"#utility.yul\":16657:16769   */\n    tag_195:\n        /* \"#utility.yul\":16740:16762   */\n      tag_362\n        /* \"#utility.yul\":16756:16761   */\n      dup2\n        /* \"#utility.yul\":16740:16762   */\n      tag_194\n      jump\t// in\n    tag_362:\n        /* \"#utility.yul\":16735:16738   */\n      dup3\n        /* \"#utility.yul\":16728:16763   */\n      mstore\n        /* \"#utility.yul\":16657:16769   */\n      pop\n      pop\n      jump\t// out\n        /* \"#utility.yul\":16775:17320   */\n    tag_66:\n        /* \"#utility.yul\":16948:16952   */\n      0x00\n        /* \"#utility.yul\":16986:16989   */\n      0x80\n        /* \"#utility.yul\":16975:16984   */\n      dup3\n        /* \"#utility.yul\":16971:16990   */\n      add\n        /* \"#utility.yul\":16963:16990   */\n      swap1\n      pop\n        /* \"#utility.yul\":17000:17071   */\n      tag_364\n        /* \"#utility.yul\":17068:17069   */\n      0x00\n        /* \"#utility.yul\":17057:17066   */\n      dup4\n        /* \"#utility.yul\":17053:17070   */\n      add\n        /* \"#utility.yul\":17044:17050   */\n      dup8\n        /* \"#utility.yul\":17000:17071   */\n      tag_193\n      jump\t// in\n    tag_364:\n        /* \"#utility.yul\":17081:17149   */\n      tag_365\n        /* \"#utility.yul\":17145:17147   */\n      0x20\n        /* \"#utility.yul\":17134:17143   */\n      dup4\n        /* \"#utility.yul\":17130:17148   */\n      add\n        /* \"#utility.yul\":17121:17127   */\n      dup7\n        /* \"#utility.yul\":17081:17149   */\n      tag_195\n      jump\t// in\n    tag_365:\n        /* \"#utility.yul\":17159:17231   */\n      tag_366\n        /* \"#utility.yul\":17227:17229   */\n      0x40\n        /* \"#utility.yul\":17216:17225   */\n      dup4\n        /* \"#utility.yul\":17212:17230   */\n      add\n        /* \"#utility.yul\":17203:17209   */\n      dup6\n        /* \"#utility.yul\":17159:17231   */\n      tag_193\n      jump\t// in\n    tag_366:\n        /* \"#utility.yul\":17241:17313   */\n      tag_367\n        /* \"#utility.yul\":17309:17311   */\n      0x60\n        /* \"#utility.yul\":17298:17307   */\n      dup4\n        /* \"#utility.yul\":17294:17312   */\n      add\n        /* \"#utility.yul\":17285:17291   */\n      dup5\n        /* \"#utility.yul\":17241:17313   */\n      tag_193\n      jump\t// in\n    tag_367:\n        /* \"#utility.yul\":16775:17320   */\n      swap6\n      swap5\n      pop\n      pop\n      pop\n      pop\n      pop\n      jump\t// out\n        /* \"#utility.yul\":17326:17405   */\n    tag_196:\n        /* \"#utility.yul\":17365:17372   */\n      0x00\n        /* \"#utility.yul\":17394:17399   */\n      dup2\n        /* \"#utility.yul\":17383:17399   */\n      swap1\n      pop\n        /* \"#utility.yul\":17326:17405   */\n      swap2\n      swap1\n      pop\n      jump\t// out\n        /* \"#utility.yul\":17411:17568   */\n    tag_197:\n        /* \"#utility.yul\":17516:17561   */\n      tag_370\n        /* \"#utility.yul\":17536:17560   */\n      tag_371\n        /* \"#utility.yul\":17554:17559   */\n      dup3\n        /* \"#utility.yul\":17536:17560   */\n      tag_181\n      jump\t// in\n    tag_371:\n        /* \"#utility.yul\":17516:17561   */\n      tag_196\n      jump\t// in\n    tag_370:\n        /* \"#utility.yul\":17511:17514   */\n      dup3\n        /* \"#utility.yul\":17504:17562   */\n      mstore\n        /* \"#utility.yul\":17411:17568   */\n      pop\n      pop\n      jump\t// out\n        /* \"#utility.yul\":17574:18112   */\n    tag_78:\n        /* \"#utility.yul\":17742:17745   */\n      0x00\n        /* \"#utility.yul\":17757:17832   */\n      tag_373\n        /* \"#utility.yul\":17828:17831   */\n      dup3\n        /* \"#utility.yul\":17819:17825   */\n      dup7\n        /* \"#utility.yul\":17757:17832   */\n      tag_188\n      jump\t// in\n    tag_373:\n        /* \"#utility.yul\":17857:17859   */\n      0x14\n        /* \"#utility.yul\":17852:17855   */\n      dup3\n        /* \"#utility.yul\":17848:17860   */\n      add\n        /* \"#utility.yul\":17841:17860   */\n      swap2\n      pop\n        /* \"#utility.yul\":17870:17945   */\n      tag_374\n        /* \"#utility.yul\":17941:17944   */\n      dup3\n        /* \"#utility.yul\":17932:17938   */\n      dup6\n        /* \"#utility.yul\":17870:17945   */\n      tag_197\n      jump\t// in\n    tag_374:\n        /* \"#utility.yul\":17970:17972   */\n      0x20\n        /* \"#utility.yul\":17965:17968   */\n      dup3\n        /* \"#utility.yul\":17961:17973   */\n      add\n        /* \"#utility.yul\":17954:17973   */\n      swap2\n      pop\n        /* \"#utility.yul\":17983:18058   */\n      tag_375\n        /* \"#utility.yul\":18054:18057   */\n      dup3\n        /* \"#utility.yul\":18045:18051   */\n      dup5\n        /* \"#utility.yul\":17983:18058   */\n      tag_188\n      jump\t// in\n    tag_375:\n        /* \"#utility.yul\":18083:18085   */\n      0x14\n        /* \"#utility.yul\":18078:18081   */\n      dup3\n        /* \"#utility.yul\":18074:18086   */\n      add\n        /* \"#utility.yul\":18067:18086   */\n      swap2\n      pop\n        /* \"#utility.yul\":18103:18106   */\n      dup2\n        /* \"#utility.yul\":18096:18106   */\n      swap1\n      pop\n        /* \"#utility.yul\":17574:18112   */\n      swap5\n      swap4\n      pop\n      pop\n      pop\n      pop\n      jump\t// out\n        /* \"#utility.yul\":18118:18298   */\n    tag_85:\n        /* \"#utility.yul\":18166:18243   */\n      0x4e487b7100000000000000000000000000000000000000000000000000000000\n        /* \"#utility.yul\":18163:18164   */\n      0x00\n        /* \"#utility.yul\":18156:18244   */\n      mstore\n        /* \"#utility.yul\":18263:18267   */\n      0x32\n        /* \"#utility.yul\":18260:18261   */\n      0x04\n        /* \"#utility.yul\":18253:18268   */\n      mstore\n        /* \"#utility.yul\":18287:18291   */\n      0x24\n        /* \"#utility.yul\":18284:18285   */\n      0x00\n        /* \"#utility.yul\":18277:18292   */\n      revert\n        /* \"#utility.yul\":18304:18484   */\n    tag_198:\n        /* \"#utility.yul\":18352:18429   */\n      0x4e487b7100000000000000000000000000000000000000000000000000000000\n        /* \"#utility.yul\":18349:18350   */\n      0x00\n        /* \"#utility.yul\":18342:18430   */\n      mstore\n        /* \"#utility.yul\":18449:18453   */\n      0x11\n        /* \"#utility.yul\":18446:18447   */\n      0x04\n        /* \"#utility.yul\":18439:18454   */\n      mstore\n        /* \"#utility.yul\":18473:18477   */\n      0x24\n        /* \"#utility.yul\":18470:18471   */\n      0x00\n        /* \"#utility.yul\":18463:18478   */\n      revert\n        /* \"#utility.yul\":18490:18684   */\n    tag_101:\n        /* \"#utility.yul\":18530:18534   */\n      0x00\n        /* \"#utility.yul\":18550:18570   */\n      tag_379\n        /* \"#utility.yul\":18568:18569   */\n      dup3\n        /* \"#utility.yul\":18550:18570   */\n      tag_181\n      jump\t// in\n    tag_379:\n        /* \"#utility.yul\":18545:18570   */\n      swap2\n      pop\n        /* \"#utility.yul\":18584:18604   */\n      tag_380\n        /* \"#utility.yul\":18602:18603   */\n      dup4\n        /* \"#utility.yul\":18584:18604   */\n      tag_181\n      jump\t// in\n    tag_380:\n        /* \"#utility.yul\":18579:18604   */\n      swap3\n      pop\n        /* \"#utility.yul\":18628:18629   */\n      dup3\n        /* \"#utility.yul\":18625:18626   */\n      dup3\n        /* \"#utility.yul\":18621:18630   */\n      sub\n        /* \"#utility.yul\":18613:18630   */\n      swap1\n      pop\n        /* \"#utility.yul\":18652:18653   */\n      dup2\n        /* \"#utility.yul\":18646:18650   */\n      dup2\n        /* \"#utility.yul\":18643:18654   */\n      gt\n        /* \"#utility.yul\":18640:18677   */\n      iszero\n      tag_381\n      jumpi\n        /* \"#utility.yul\":18657:18675   */\n      tag_382\n      tag_198\n      jump\t// in\n    tag_382:\n        /* \"#utility.yul\":18640:18677   */\n    tag_381:\n        /* \"#utility.yul\":18490:18684   */\n      swap3\n      swap2\n      pop\n      pop\n      jump\t// out\n        /* \"#utility.yul\":18690:18881   */\n    tag_110:\n        /* \"#utility.yul\":18730:18733   */\n      0x00\n        /* \"#utility.yul\":18749:18769   */\n      tag_384\n        /* \"#utility.yul\":18767:18768   */\n      dup3\n        /* \"#utility.yul\":18749:18769   */\n      tag_181\n      jump\t// in\n    tag_384:\n        /* \"#utility.yul\":18744:18769   */\n      swap2\n      pop\n        /* \"#utility.yul\":18783:18803   */\n      tag_385\n        /* \"#utility.yul\":18801:18802   */\n      dup4\n        /* \"#utility.yul\":18783:18803   */\n      tag_181\n      jump\t// in\n    tag_385:\n        /* \"#utility.yul\":18778:18803   */\n      swap3\n      pop\n        /* \"#utility.yul\":18826:18827   */\n      dup3\n        /* \"#utility.yul\":18823:18824   */\n      dup3\n        /* \"#utility.yul\":18819:18828   */\n      add\n        /* \"#utility.yul\":18812:18828   */\n      swap1\n      pop\n        /* \"#utility.yul\":18847:18850   */\n      dup1\n        /* \"#utility.yul\":18844:18845   */\n      dup3\n        /* \"#utility.yul\":18841:18851   */\n      gt\n        /* \"#utility.yul\":18838:18874   */\n      iszero\n      tag_386\n      jumpi\n        /* \"#utility.yul\":18854:18872   */\n      tag_387\n      tag_198\n      jump\t// in\n    tag_387:\n        /* \"#utility.yul\":18838:18874   */\n    tag_386:\n        /* \"#utility.yul\":18690:18881   */\n      swap3\n      swap2\n      pop\n      pop\n      jump\t// out\n        /* \"#utility.yul\":18887:19297   */\n    tag_139:\n        /* \"#utility.yul\":18927:18934   */\n      0x00\n        /* \"#utility.yul\":18950:18970   */\n      tag_389\n        /* \"#utility.yul\":18968:18969   */\n      dup3\n        /* \"#utility.yul\":18950:18970   */\n      tag_181\n      jump\t// in\n    tag_389:\n        /* \"#utility.yul\":18945:18970   */\n      swap2\n      pop\n        /* \"#utility.yul\":18984:19004   */\n      tag_390\n        /* \"#utility.yul\":19002:19003   */\n      dup4\n        /* \"#utility.yul\":18984:19004   */\n      tag_181\n      jump\t// in\n    tag_390:\n        /* \"#utility.yul\":18979:19004   */\n      swap3\n      pop\n        /* \"#utility.yul\":19039:19040   */\n      dup3\n        /* \"#utility.yul\":19036:19037   */\n      dup3\n        /* \"#utility.yul\":19032:19041   */\n      mul\n        /* \"#utility.yul\":19061:19091   */\n      tag_391\n        /* \"#utility.yul\":19079:19090   */\n      dup2\n        /* \"#utility.yul\":19061:19091   */\n      tag_181\n      jump\t// in\n    tag_391:\n        /* \"#utility.yul\":19050:19091   */\n      swap2\n      pop\n        /* \"#utility.yul\":19240:19241   */\n      dup3\n        /* \"#utility.yul\":19231:19238   */\n      dup3\n        /* \"#utility.yul\":19227:19242   */\n      div\n        /* \"#utility.yul\":19224:19225   */\n      dup5\n        /* \"#utility.yul\":19221:19243   */\n      eq\n        /* \"#utility.yul\":19201:19202   */\n      dup4\n        /* \"#utility.yul\":19194:19203   */\n      iszero\n        /* \"#utility.yul\":19174:19257   */\n      or\n        /* \"#utility.yul\":19151:19290   */\n      tag_392\n      jumpi\n        /* \"#utility.yul\":19270:19288   */\n      tag_393\n      tag_198\n      jump\t// in\n    tag_393:\n        /* \"#utility.yul\":19151:19290   */\n    tag_392:\n        /* \"#utility.yul\":18935:19297   */\n      pop\n        /* \"#utility.yul\":18887:19297   */\n      swap3\n      swap2\n      pop\n      pop\n      jump\t// out\n\n    auxdata: 0xa264697066735822122064d2907c98db04859d6a9538f2b5f7ca7a792a13a70d2440acfcd2ab9d6876c764736f6c63430008180033\n}\n",
				"bytecode": {
					"linkReferences": {},
					"object": "608060405234801561000f575f80fd5b50335f806101000a81548173ffffffffffffffffffffffffffffffffffffffff021916908373ffffffffffffffffffffffffffffffffffffffff1602179055506114638061005c5f395ff3fe608060405260043610610049575f3560e01c806304be53871461004d5780631626ba7e146100695780637229a894146100a55780638da5cb5b146100cd578063cd2abd66146100f7575b5f80fd5b61006760048036038101906100629190610b1e565b610133565b005b348015610074575f80fd5b5061008f600480360381019061008a9190610cb8565b610381565b60405161009c9190610d4c565b60405180910390f35b3480156100b0575f80fd5b506100cb60048036038101906100c69190610e03565b610536565b005b3480156100d8575f80fd5b506100e1610672565b6040516100ee9190610e6a565b60405180910390f35b348015610102575f80fd5b5061011d60048036038101906101189190610e83565b610695565b60405161012a9190610ec8565b60405180910390f35b5f8054906101000a900473ffffffffffffffffffffffffffffffffffffffff1673ffffffffffffffffffffffffffffffffffffffff163373ffffffffffffffffffffffffffffffffffffffff16146101c0576040517f08c379a00000000000000000000000000000000000000000000000000000000081526004016101b790610f3b565b60405180910390fd5b5f73ffffffffffffffffffffffffffffffffffffffff168173ffffffffffffffffffffffffffffffffffffffff160361022e576040517f08c379a000000000000000000000000000000000000000000000000000000000815260040161022590610fa3565b60405180910390fd5b5f3411610270576040517f08c379a00000000000000000000000000000000000000000000000000000000081526004016102679061100b565b60405180910390fd5b5f8173ffffffffffffffffffffffffffffffffffffffff163460405161029590611056565b5f6040518083038185875af1925050503d805f81146102cf576040519150601f19603f3d011682016040523d82523d5f602084013e6102d4565b606091505b5050905080610318576040517f08c379a000000000000000000000000000000000000000000000000000000000815260040161030f906110b4565b60405180910390fd5b8173ffffffffffffffffffffffffffffffffffffffff163373ffffffffffffffffffffffffffffffffffffffff167ff695f96ab247f42b6361d77280417dd090b00678ccb7d65ea1ee4acf9f746c6b3460405161037591906110ea565b60405180910390a35050565b5f808330604051602001610396929190611168565b6040516020818303038152906040528051906020012090505f151560015f8381526020019081526020015f205f9054906101000a900460ff16151514610411576040517f08c379a0000000000000000000000000000000000000000000000000000000008152600401610408906111dd565b60405180910390fd5b5f805f6041865114610458576040517f08c379a000000000000000000000000000000000000000000000000000000000815260040161044f90611245565b60405180910390fd5b602086015192506040860151915060608601515f1a90505f6001858386866040515f8152602001604052604051610492949392919061128d565b6020604051602081039080840390855afa1580156104b2573d5f803e3d5ffd5b5050506020604051035190505f8054906101000a900473ffffffffffffffffffffffffffffffffffffffff1673ffffffffffffffffffffffffffffffffffffffff168173ffffffffffffffffffffffffffffffffffffffff160361052457631626ba7e60e01b95505050505050610530565b5f60e01b955050505050505b92915050565b5f8054906101000a900473ffffffffffffffffffffffffffffffffffffffff1673ffffffffffffffffffffffffffffffffffffffff163373ffffffffffffffffffffffffffffffffffffffff16146105c3576040517f08c379a00000000000000000000000000000000000000000000000000000000081526004016105ba90610f3b565b60405180910390fd5b5f806105ce836106b2565b915091505f8282306040516020016105e8939291906112f0565b6040516020818303038152906040528051906020012090506001805f8381526020019081526020015f205f6101000a81548160ff0219169083151502179055503373ffffffffffffffffffffffffffffffffffffffff16817fb91c53f4672e938094872ec760866ac1f861a71b6a43a4c1a237891c36d0667460405160405180910390a350505050565b5f8054906101000a900473ffffffffffffffffffffffffffffffffffffffff1681565b6001602052805f5260405f205f915054906101000a900460ff1681565b5f805f8390505f805f90505b8251811015610742577f2c000000000000000000000000000000000000000000000000000000000000008382815181106106fb576106fa61132c565b5b602001015160f81c60f81b7effffffffffffffffffffffffffffffffffffffffffffffffffffffffffffff19160361073557809150610742565b80806001019150506106be565b505f8167ffffffffffffffff81111561075e5761075d610b94565b5b6040519080825280601f01601f1916602001820160405280156107905781602001600182028036833780820191505090505b5090505f5b82811015610809578381815181106107b0576107af61132c565b5b602001015160f81c60f81b8282815181106107ce576107cd61132c565b5b60200101907effffffffffffffffffffffffffffffffffffffffffffffffffffffffffffff191690815f1a9053508080600101915050610795565b505f61081482610939565b90505f60018486516108269190611386565b6108309190611386565b67ffffffffffffffff81111561084957610848610b94565b5b6040519080825280601f01601f19166020018201604052801561087b5781602001600182028036833780820191505090505b5090505f60018561088c91906113b9565b90505b855181101561091b578581815181106108ab576108aa61132c565b5b602001015160f81c60f81b82600187846108c59190611386565b6108cf9190611386565b815181106108e0576108df61132c565b5b60200101907effffffffffffffffffffffffffffffffffffffffffffffffffffffffffffff191690815f1a905350808060010191505061088f565b505f610926826109a5565b9050828197509750505050505050915091565b5f805f90505f5b835181101561099b5760088273ffffffffffffffffffffffffffffffffffffffff16901b91508381815181106109795761097861132c565b5b602001015160f81c60f81b60f81c60ff16821791508080600101915050610940565b5080915050919050565b5f808290505f805b8251811015610aa857603060f81b8382815181106109ce576109cd61132c565b5b602001015160f81c60f81b7effffffffffffffffffffffffffffffffffffffffffffffffffffffffffffff191610158015610a4c5750603960f81b838281518110610a1c57610a1b61132c565b5b602001015160f81c60f81b7effffffffffffffffffffffffffffffffffffffffffffffffffffffffffffff191611155b15610a9b576030838281518110610a6657610a6561132c565b5b602001015160f81c60f81b60f81c60ff16610a819190611386565b600a83610a8e91906113ec565b610a9891906113b9565b91505b80806001019150506109ad565b508092505050919050565b5f604051905090565b5f80fd5b5f80fd5b5f73ffffffffffffffffffffffffffffffffffffffff82169050919050565b5f610aed82610ac4565b9050919050565b610afd81610ae3565b8114610b07575f80fd5b50565b5f81359050610b1881610af4565b92915050565b5f60208284031215610b3357610b32610abc565b5b5f610b4084828501610b0a565b91505092915050565b5f819050919050565b610b5b81610b49565b8114610b65575f80fd5b50565b5f81359050610b7681610b52565b92915050565b5f80fd5b5f80fd5b5f601f19601f8301169050919050565b7f4e487b71000000000000000000000000000000000000000000000000000000005f52604160045260245ffd5b610bca82610b84565b810181811067ffffffffffffffff82111715610be957610be8610b94565b5b80604052505050565b5f610bfb610ab3565b9050610c078282610bc1565b919050565b5f67ffffffffffffffff821115610c2657610c25610b94565b5b610c2f82610b84565b9050602081019050919050565b828183375f83830152505050565b5f610c5c610c5784610c0c565b610bf2565b905082815260208101848484011115610c7857610c77610b80565b5b610c83848285610c3c565b509392505050565b5f82601f830112610c9f57610c9e610b7c565b5b8135610caf848260208601610c4a565b91505092915050565b5f8060408385031215610cce57610ccd610abc565b5b5f610cdb85828601610b68565b925050602083013567ffffffffffffffff811115610cfc57610cfb610ac0565b5b610d0885828601610c8b565b9150509250929050565b5f7fffffffff0000000000000000000000000000000000000000000000000000000082169050919050565b610d4681610d12565b82525050565b5f602082019050610d5f5f830184610d3d565b92915050565b5f67ffffffffffffffff821115610d7f57610d7e610b94565b5b610d8882610b84565b9050602081019050919050565b5f610da7610da284610d65565b610bf2565b905082815260208101848484011115610dc357610dc2610b80565b5b610dce848285610c3c565b509392505050565b5f82601f830112610dea57610de9610b7c565b5b8135610dfa848260208601610d95565b91505092915050565b5f60208284031215610e1857610e17610abc565b5b5f82013567ffffffffffffffff811115610e3557610e34610ac0565b5b610e4184828501610dd6565b91505092915050565b5f610e5482610ac4565b9050919050565b610e6481610e4a565b82525050565b5f602082019050610e7d5f830184610e5b565b92915050565b5f60208284031215610e9857610e97610abc565b5b5f610ea584828501610b68565b91505092915050565b5f8115159050919050565b610ec281610eae565b82525050565b5f602082019050610edb5f830184610eb9565b92915050565b5f82825260208201905092915050565b7f4e6f742074686520636f6e7472616374206f776e6572000000000000000000005f82015250565b5f610f25601683610ee1565b9150610f3082610ef1565b602082019050919050565b5f6020820190508181035f830152610f5281610f19565b9050919050565b7f496e76616c696420636f6e7472616374206164647265737300000000000000005f82015250565b5f610f8d601883610ee1565b9150610f9882610f59565b602082019050919050565b5f6020820190508181035f830152610fba81610f81565b9050919050565b7f4d7573742073656e64206120706f73697469766520616d6f756e7400000000005f82015250565b5f610ff5601b83610ee1565b915061100082610fc1565b602082019050919050565b5f6020820190508181035f83015261102281610fe9565b9050919050565b5f81905092915050565b50565b5f6110415f83611029565b915061104c82611033565b5f82019050919050565b5f61106082611036565b9150819050919050565b7f5472616e73666572206661696c656400000000000000000000000000000000005f82015250565b5f61109e600f83610ee1565b91506110a98261106a565b602082019050919050565b5f6020820190508181035f8301526110cb81611092565b9050919050565b5f819050919050565b6110e4816110d2565b82525050565b5f6020820190506110fd5f8301846110db565b92915050565b5f819050919050565b61111d61111882610b49565b611103565b82525050565b5f8160601b9050919050565b5f61113982611123565b9050919050565b5f61114a8261112f565b9050919050565b61116261115d82610e4a565b611140565b82525050565b5f611173828561110c565b6020820191506111838284611151565b6014820191508190509392505050565b7f4d65737361676520616c726561647920657865637574656400000000000000005f82015250565b5f6111c7601883610ee1565b91506111d282611193565b602082019050919050565b5f6020820190508181035f8301526111f4816111bb565b9050919050565b7f496e76616c6964207369676e6174757265206c656e67746800000000000000005f82015250565b5f61122f601883610ee1565b915061123a826111fb565b602082019050919050565b5f6020820190508181035f83015261125c81611223565b9050919050565b61126c81610b49565b82525050565b5f60ff82169050919050565b61128781611272565b82525050565b5f6080820190506112a05f830187611263565b6112ad602083018661127e565b6112ba6040830185611263565b6112c76060830184611263565b95945050505050565b5f819050919050565b6112ea6112e5826110d2565b6112d0565b82525050565b5f6112fb8286611151565b60148201915061130b82856112d9565b60208201915061131b8284611151565b601482019150819050949350505050565b7f4e487b71000000000000000000000000000000000000000000000000000000005f52603260045260245ffd5b7f4e487b71000000000000000000000000000000000000000000000000000000005f52601160045260245ffd5b5f611390826110d2565b915061139b836110d2565b92508282039050818111156113b3576113b2611359565b5b92915050565b5f6113c3826110d2565b91506113ce836110d2565b92508282019050808211156113e6576113e5611359565b5b92915050565b5f6113f6826110d2565b9150611401836110d2565b925082820261140f816110d2565b9150828204841483151761142657611425611359565b5b509291505056fea264697066735822122064d2907c98db04859d6a9538f2b5f7ca7a792a13a70d2440acfcd2ab9d6876c764736f6c63430008180033",
					"opcodes": "PUSH1 0x80 PUSH1 0x40 MSTORE CALLVALUE DUP1 ISZERO PUSH2 0xF JUMPI PUSH0 DUP1 REVERT JUMPDEST POP CALLER PUSH0 DUP1 PUSH2 0x100 EXP DUP2 SLOAD DUP2 PUSH20 0xFFFFFFFFFFFFFFFFFFFFFFFFFFFFFFFFFFFFFFFF MUL NOT AND SWAP1 DUP4 PUSH20 0xFFFFFFFFFFFFFFFFFFFFFFFFFFFFFFFFFFFFFFFF AND MUL OR SWAP1 SSTORE POP PUSH2 0x1463 DUP1 PUSH2 0x5C PUSH0 CODECOPY PUSH0 RETURN INVALID PUSH1 0x80 PUSH1 0x40 MSTORE PUSH1 0x4 CALLDATASIZE LT PUSH2 0x49 JUMPI PUSH0 CALLDATALOAD PUSH1 0xE0 SHR DUP1 PUSH4 0x4BE5387 EQ PUSH2 0x4D JUMPI DUP1 PUSH4 0x1626BA7E EQ PUSH2 0x69 JUMPI DUP1 PUSH4 0x7229A894 EQ PUSH2 0xA5 JUMPI DUP1 PUSH4 0x8DA5CB5B EQ PUSH2 0xCD JUMPI DUP1 PUSH4 0xCD2ABD66 EQ PUSH2 0xF7 JUMPI JUMPDEST PUSH0 DUP1 REVERT JUMPDEST PUSH2 0x67 PUSH1 0x4 DUP1 CALLDATASIZE SUB DUP2 ADD SWAP1 PUSH2 0x62 SWAP2 SWAP1 PUSH2 0xB1E JUMP JUMPDEST PUSH2 0x133 JUMP JUMPDEST STOP JUMPDEST CALLVALUE DUP1 ISZERO PUSH2 0x74 JUMPI PUSH0 DUP1 REVERT JUMPDEST POP PUSH2 0x8F PUSH1 0x4 DUP1 CALLDATASIZE SUB DUP2 ADD SWAP1 PUSH2 0x8A SWAP2 SWAP1 PUSH2 0xCB8 JUMP JUMPDEST PUSH2 0x381 JUMP JUMPDEST PUSH1 0x40 MLOAD PUSH2 0x9C SWAP2 SWAP1 PUSH2 0xD4C JUMP JUMPDEST PUSH1 0x40 MLOAD DUP1 SWAP2 SUB SWAP1 RETURN JUMPDEST CALLVALUE DUP1 ISZERO PUSH2 0xB0 JUMPI PUSH0 DUP1 REVERT JUMPDEST POP PUSH2 0xCB PUSH1 0x4 DUP1 CALLDATASIZE SUB DUP2 ADD SWAP1 PUSH2 0xC6 SWAP2 SWAP1 PUSH2 0xE03 JUMP JUMPDEST PUSH2 0x536 JUMP JUMPDEST STOP JUMPDEST CALLVALUE DUP1 ISZERO PUSH2 0xD8 JUMPI PUSH0 DUP1 REVERT JUMPDEST POP PUSH2 0xE1 PUSH2 0x672 JUMP JUMPDEST PUSH1 0x40 MLOAD PUSH2 0xEE SWAP2 SWAP1 PUSH2 0xE6A JUMP JUMPDEST PUSH1 0x40 MLOAD DUP1 SWAP2 SUB SWAP1 RETURN JUMPDEST CALLVALUE DUP1 ISZERO PUSH2 0x102 JUMPI PUSH0 DUP1 REVERT JUMPDEST POP PUSH2 0x11D PUSH1 0x4 DUP1 CALLDATASIZE SUB DUP2 ADD SWAP1 PUSH2 0x118 SWAP2 SWAP1 PUSH2 0xE83 JUMP JUMPDEST PUSH2 0x695 JUMP JUMPDEST PUSH1 0x40 MLOAD PUSH2 0x12A SWAP2 SWAP1 PUSH2 0xEC8 JUMP JUMPDEST PUSH1 0x40 MLOAD DUP1 SWAP2 SUB SWAP1 RETURN JUMPDEST PUSH0 DUP1 SLOAD SWAP1 PUSH2 0x100 EXP SWAP1 DIV PUSH20 0xFFFFFFFFFFFFFFFFFFFFFFFFFFFFFFFFFFFFFFFF AND PUSH20 0xFFFFFFFFFFFFFFFFFFFFFFFFFFFFFFFFFFFFFFFF AND CALLER PUSH20 0xFFFFFFFFFFFFFFFFFFFFFFFFFFFFFFFFFFFFFFFF AND EQ PUSH2 0x1C0 JUMPI PUSH1 0x40 MLOAD PUSH32 0x8C379A000000000000000000000000000000000000000000000000000000000 DUP2 MSTORE PUSH1 0x4 ADD PUSH2 0x1B7 SWAP1 PUSH2 0xF3B JUMP JUMPDEST PUSH1 0x40 MLOAD DUP1 SWAP2 SUB SWAP1 REVERT JUMPDEST PUSH0 PUSH20 0xFFFFFFFFFFFFFFFFFFFFFFFFFFFFFFFFFFFFFFFF AND DUP2 PUSH20 0xFFFFFFFFFFFFFFFFFFFFFFFFFFFFFFFFFFFFFFFF AND SUB PUSH2 0x22E JUMPI PUSH1 0x40 MLOAD PUSH32 0x8C379A000000000000000000000000000000000000000000000000000000000 DUP2 MSTORE PUSH1 0x4 ADD PUSH2 0x225 SWAP1 PUSH2 0xFA3 JUMP JUMPDEST PUSH1 0x40 MLOAD DUP1 SWAP2 SUB SWAP1 REVERT JUMPDEST PUSH0 CALLVALUE GT PUSH2 0x270 JUMPI PUSH1 0x40 MLOAD PUSH32 0x8C379A000000000000000000000000000000000000000000000000000000000 DUP2 MSTORE PUSH1 0x4 ADD PUSH2 0x267 SWAP1 PUSH2 0x100B JUMP JUMPDEST PUSH1 0x40 MLOAD DUP1 SWAP2 SUB SWAP1 REVERT JUMPDEST PUSH0 DUP2 PUSH20 0xFFFFFFFFFFFFFFFFFFFFFFFFFFFFFFFFFFFFFFFF AND CALLVALUE PUSH1 0x40 MLOAD PUSH2 0x295 SWAP1 PUSH2 0x1056 JUMP JUMPDEST PUSH0 PUSH1 0x40 MLOAD DUP1 DUP4 SUB DUP2 DUP6 DUP8 GAS CALL SWAP3 POP POP POP RETURNDATASIZE DUP1 PUSH0 DUP2 EQ PUSH2 0x2CF JUMPI PUSH1 0x40 MLOAD SWAP2 POP PUSH1 0x1F NOT PUSH1 0x3F RETURNDATASIZE ADD AND DUP3 ADD PUSH1 0x40 MSTORE RETURNDATASIZE DUP3 MSTORE RETURNDATASIZE PUSH0 PUSH1 0x20 DUP5 ADD RETURNDATACOPY PUSH2 0x2D4 JUMP JUMPDEST PUSH1 0x60 SWAP2 POP JUMPDEST POP POP SWAP1 POP DUP1 PUSH2 0x318 JUMPI PUSH1 0x40 MLOAD PUSH32 0x8C379A000000000000000000000000000000000000000000000000000000000 DUP2 MSTORE PUSH1 0x4 ADD PUSH2 0x30F SWAP1 PUSH2 0x10B4 JUMP JUMPDEST PUSH1 0x40 MLOAD DUP1 SWAP2 SUB SWAP1 REVERT JUMPDEST DUP2 PUSH20 0xFFFFFFFFFFFFFFFFFFFFFFFFFFFFFFFFFFFFFFFF AND CALLER PUSH20 0xFFFFFFFFFFFFFFFFFFFFFFFFFFFFFFFFFFFFFFFF AND PUSH32 0xF695F96AB247F42B6361D77280417DD090B00678CCB7D65EA1EE4ACF9F746C6B CALLVALUE PUSH1 0x40 MLOAD PUSH2 0x375 SWAP2 SWAP1 PUSH2 0x10EA JUMP JUMPDEST PUSH1 0x40 MLOAD DUP1 SWAP2 SUB SWAP1 LOG3 POP POP JUMP JUMPDEST PUSH0 DUP1 DUP4 ADDRESS PUSH1 0x40 MLOAD PUSH1 0x20 ADD PUSH2 0x396 SWAP3 SWAP2 SWAP1 PUSH2 0x1168 JUMP JUMPDEST PUSH1 0x40 MLOAD PUSH1 0x20 DUP2 DUP4 SUB SUB DUP2 MSTORE SWAP1 PUSH1 0x40 MSTORE DUP1 MLOAD SWAP1 PUSH1 0x20 ADD KECCAK256 SWAP1 POP PUSH0 ISZERO ISZERO PUSH1 0x1 PUSH0 DUP4 DUP2 MSTORE PUSH1 0x20 ADD SWAP1 DUP2 MSTORE PUSH1 0x20 ADD PUSH0 KECCAK256 PUSH0 SWAP1 SLOAD SWAP1 PUSH2 0x100 EXP SWAP1 DIV PUSH1 0xFF AND ISZERO ISZERO EQ PUSH2 0x411 JUMPI PUSH1 0x40 MLOAD PUSH32 0x8C379A000000000000000000000000000000000000000000000000000000000 DUP2 MSTORE PUSH1 0x4 ADD PUSH2 0x408 SWAP1 PUSH2 0x11DD JUMP JUMPDEST PUSH1 0x40 MLOAD DUP1 SWAP2 SUB SWAP1 REVERT JUMPDEST PUSH0 DUP1 PUSH0 PUSH1 0x41 DUP7 MLOAD EQ PUSH2 0x458 JUMPI PUSH1 0x40 MLOAD PUSH32 0x8C379A000000000000000000000000000000000000000000000000000000000 DUP2 MSTORE PUSH1 0x4 ADD PUSH2 0x44F SWAP1 PUSH2 0x1245 JUMP JUMPDEST PUSH1 0x40 MLOAD DUP1 SWAP2 SUB SWAP1 REVERT JUMPDEST PUSH1 0x20 DUP7 ADD MLOAD SWAP3 POP PUSH1 0x40 DUP7 ADD MLOAD SWAP2 POP PUSH1 0x60 DUP7 ADD MLOAD PUSH0 BYTE SWAP1 POP PUSH0 PUSH1 0x1 DUP6 DUP4 DUP7 DUP7 PUSH1 0x40 MLOAD PUSH0 DUP2 MSTORE PUSH1 0x20 ADD PUSH1 0x40 MSTORE PUSH1 0x40 MLOAD PUSH2 0x492 SWAP5 SWAP4 SWAP3 SWAP2 SWAP1 PUSH2 0x128D JUMP JUMPDEST PUSH1 0x20 PUSH1 0x40 MLOAD PUSH1 0x20 DUP2 SUB SWAP1 DUP1 DUP5 SUB SWAP1 DUP6 GAS STATICCALL ISZERO DUP1 ISZERO PUSH2 0x4B2 JUMPI RETURNDATASIZE PUSH0 DUP1 RETURNDATACOPY RETURNDATASIZE PUSH0 REVERT JUMPDEST POP POP POP PUSH1 0x20 PUSH1 0x40 MLOAD SUB MLOAD SWAP1 POP PUSH0 DUP1 SLOAD SWAP1 PUSH2 0x100 EXP SWAP1 DIV PUSH20 0xFFFFFFFFFFFFFFFFFFFFFFFFFFFFFFFFFFFFFFFF AND PUSH20 0xFFFFFFFFFFFFFFFFFFFFFFFFFFFFFFFFFFFFFFFF AND DUP2 PUSH20 0xFFFFFFFFFFFFFFFFFFFFFFFFFFFFFFFFFFFFFFFF AND SUB PUSH2 0x524 JUMPI PUSH4 0x1626BA7E PUSH1 0xE0 SHL SWAP6 POP POP POP POP POP POP PUSH2 0x530 JUMP JUMPDEST PUSH0 PUSH1 0xE0 SHL SWAP6 POP POP POP POP POP POP JUMPDEST SWAP3 SWAP2 POP POP JUMP JUMPDEST PUSH0 DUP1 SLOAD SWAP1 PUSH2 0x100 EXP SWAP1 DIV PUSH20 0xFFFFFFFFFFFFFFFFFFFFFFFFFFFFFFFFFFFFFFFF AND PUSH20 0xFFFFFFFFFFFFFFFFFFFFFFFFFFFFFFFFFFFFFFFF AND CALLER PUSH20 0xFFFFFFFFFFFFFFFFFFFFFFFFFFFFFFFFFFFFFFFF AND EQ PUSH2 0x5C3 JUMPI PUSH1 0x40 MLOAD PUSH32 0x8C379A000000000000000000000000000000000000000000000000000000000 DUP2 MSTORE PUSH1 0x4 ADD PUSH2 0x5BA SWAP1 PUSH2 0xF3B JUMP JUMPDEST PUSH1 0x40 MLOAD DUP1 SWAP2 SUB SWAP1 REVERT JUMPDEST PUSH0 DUP1 PUSH2 0x5CE DUP4 PUSH2 0x6B2 JUMP JUMPDEST SWAP2 POP SWAP2 POP PUSH0 DUP3 DUP3 ADDRESS PUSH1 0x40 MLOAD PUSH1 0x20 ADD PUSH2 0x5E8 SWAP4 SWAP3 SWAP2 SWAP1 PUSH2 0x12F0 JUMP JUMPDEST PUSH1 0x40 MLOAD PUSH1 0x20 DUP2 DUP4 SUB SUB DUP2 MSTORE SWAP1 PUSH1 0x40 MSTORE DUP1 MLOAD SWAP1 PUSH1 0x20 ADD KECCAK256 SWAP1 POP PUSH1 0x1 DUP1 PUSH0 DUP4 DUP2 MSTORE PUSH1 0x20 ADD SWAP1 DUP2 MSTORE PUSH1 0x20 ADD PUSH0 KECCAK256 PUSH0 PUSH2 0x100 EXP DUP2 SLOAD DUP2 PUSH1 0xFF MUL NOT AND SWAP1 DUP4 ISZERO ISZERO MUL OR SWAP1 SSTORE POP CALLER PUSH20 0xFFFFFFFFFFFFFFFFFFFFFFFFFFFFFFFFFFFFFFFF AND DUP2 PUSH32 0xB91C53F4672E938094872EC760866AC1F861A71B6A43A4C1A237891C36D06674 PUSH1 0x40 MLOAD PUSH1 0x40 MLOAD DUP1 SWAP2 SUB SWAP1 LOG3 POP POP POP POP JUMP JUMPDEST PUSH0 DUP1 SLOAD SWAP1 PUSH2 0x100 EXP SWAP1 DIV PUSH20 0xFFFFFFFFFFFFFFFFFFFFFFFFFFFFFFFFFFFFFFFF AND DUP2 JUMP JUMPDEST PUSH1 0x1 PUSH1 0x20 MSTORE DUP1 PUSH0 MSTORE PUSH1 0x40 PUSH0 KECCAK256 PUSH0 SWAP2 POP SLOAD SWAP1 PUSH2 0x100 EXP SWAP1 DIV PUSH1 0xFF AND DUP2 JUMP JUMPDEST PUSH0 DUP1 PUSH0 DUP4 SWAP1 POP PUSH0 DUP1 PUSH0 SWAP1 POP JUMPDEST DUP3 MLOAD DUP2 LT ISZERO PUSH2 0x742 JUMPI PUSH32 0x2C00000000000000000000000000000000000000000000000000000000000000 DUP4 DUP3 DUP2 MLOAD DUP2 LT PUSH2 0x6FB JUMPI PUSH2 0x6FA PUSH2 0x132C JUMP JUMPDEST JUMPDEST PUSH1 0x20 ADD ADD MLOAD PUSH1 0xF8 SHR PUSH1 0xF8 SHL PUSH31 0xFFFFFFFFFFFFFFFFFFFFFFFFFFFFFFFFFFFFFFFFFFFFFFFFFFFFFFFFFFFFFF NOT AND SUB PUSH2 0x735 JUMPI DUP1 SWAP2 POP PUSH2 0x742 JUMP JUMPDEST DUP1 DUP1 PUSH1 0x1 ADD SWAP2 POP POP PUSH2 0x6BE JUMP JUMPDEST POP PUSH0 DUP2 PUSH8 0xFFFFFFFFFFFFFFFF DUP2 GT ISZERO PUSH2 0x75E JUMPI PUSH2 0x75D PUSH2 0xB94 JUMP JUMPDEST JUMPDEST PUSH1 0x40 MLOAD SWAP1 DUP1 DUP3 MSTORE DUP1 PUSH1 0x1F ADD PUSH1 0x1F NOT AND PUSH1 0x20 ADD DUP3 ADD PUSH1 0x40 MSTORE DUP1 ISZERO PUSH2 0x790 JUMPI DUP2 PUSH1 0x20 ADD PUSH1 0x1 DUP3 MUL DUP1 CALLDATASIZE DUP4 CALLDATACOPY DUP1 DUP3 ADD SWAP2 POP POP SWAP1 POP JUMPDEST POP SWAP1 POP PUSH0 JUMPDEST DUP3 DUP2 LT ISZERO PUSH2 0x809 JUMPI DUP4 DUP2 DUP2 MLOAD DUP2 LT PUSH2 0x7B0 JUMPI PUSH2 0x7AF PUSH2 0x132C JUMP JUMPDEST JUMPDEST PUSH1 0x20 ADD ADD MLOAD PUSH1 0xF8 SHR PUSH1 0xF8 SHL DUP3 DUP3 DUP2 MLOAD DUP2 LT PUSH2 0x7CE JUMPI PUSH2 0x7CD PUSH2 0x132C JUMP JUMPDEST JUMPDEST PUSH1 0x20 ADD ADD SWAP1 PUSH31 0xFFFFFFFFFFFFFFFFFFFFFFFFFFFFFFFFFFFFFFFFFFFFFFFFFFFFFFFFFFFFFF NOT AND SWAP1 DUP2 PUSH0 BYTE SWAP1 MSTORE8 POP DUP1 DUP1 PUSH1 0x1 ADD SWAP2 POP POP PUSH2 0x795 JUMP JUMPDEST POP PUSH0 PUSH2 0x814 DUP3 PUSH2 0x939 JUMP JUMPDEST SWAP1 POP PUSH0 PUSH1 0x1 DUP5 DUP7 MLOAD PUSH2 0x826 SWAP2 SWAP1 PUSH2 0x1386 JUMP JUMPDEST PUSH2 0x830 SWAP2 SWAP1 PUSH2 0x1386 JUMP JUMPDEST PUSH8 0xFFFFFFFFFFFFFFFF DUP2 GT ISZERO PUSH2 0x849 JUMPI PUSH2 0x848 PUSH2 0xB94 JUMP JUMPDEST JUMPDEST PUSH1 0x40 MLOAD SWAP1 DUP1 DUP3 MSTORE DUP1 PUSH1 0x1F ADD PUSH1 0x1F NOT AND PUSH1 0x20 ADD DUP3 ADD PUSH1 0x40 MSTORE DUP1 ISZERO PUSH2 0x87B JUMPI DUP2 PUSH1 0x20 ADD PUSH1 0x1 DUP3 MUL DUP1 CALLDATASIZE DUP4 CALLDATACOPY DUP1 DUP3 ADD SWAP2 POP POP SWAP1 POP JUMPDEST POP SWAP1 POP PUSH0 PUSH1 0x1 DUP6 PUSH2 0x88C SWAP2 SWAP1 PUSH2 0x13B9 JUMP JUMPDEST SWAP1 POP JUMPDEST DUP6 MLOAD DUP2 LT ISZERO PUSH2 0x91B JUMPI DUP6 DUP2 DUP2 MLOAD DUP2 LT PUSH2 0x8AB JUMPI PUSH2 0x8AA PUSH2 0x132C JUMP JUMPDEST JUMPDEST PUSH1 0x20 ADD ADD MLOAD PUSH1 0xF8 SHR PUSH1 0xF8 SHL DUP3 PUSH1 0x1 DUP8 DUP5 PUSH2 0x8C5 SWAP2 SWAP1 PUSH2 0x1386 JUMP JUMPDEST PUSH2 0x8CF SWAP2 SWAP1 PUSH2 0x1386 JUMP JUMPDEST DUP2 MLOAD DUP2 LT PUSH2 0x8E0 JUMPI PUSH2 0x8DF PUSH2 0x132C JUMP JUMPDEST JUMPDEST PUSH1 0x20 ADD ADD SWAP1 PUSH31 0xFFFFFFFFFFFFFFFFFFFFFFFFFFFFFFFFFFFFFFFFFFFFFFFFFFFFFFFFFFFFFF NOT AND SWAP1 DUP2 PUSH0 BYTE SWAP1 MSTORE8 POP DUP1 DUP1 PUSH1 0x1 ADD SWAP2 POP POP PUSH2 0x88F JUMP JUMPDEST POP PUSH0 PUSH2 0x926 DUP3 PUSH2 0x9A5 JUMP JUMPDEST SWAP1 POP DUP3 DUP2 SWAP8 POP SWAP8 POP POP POP POP POP POP POP SWAP2 POP SWAP2 JUMP JUMPDEST PUSH0 DUP1 PUSH0 SWAP1 POP PUSH0 JUMPDEST DUP4 MLOAD DUP2 LT ISZERO PUSH2 0x99B JUMPI PUSH1 0x8 DUP3 PUSH20 0xFFFFFFFFFFFFFFFFFFFFFFFFFFFFFFFFFFFFFFFF AND SWAP1 SHL SWAP2 POP DUP4 DUP2 DUP2 MLOAD DUP2 LT PUSH2 0x979 JUMPI PUSH2 0x978 PUSH2 0x132C JUMP JUMPDEST JUMPDEST PUSH1 0x20 ADD ADD MLOAD PUSH1 0xF8 SHR PUSH1 0xF8 SHL PUSH1 0xF8 SHR PUSH1 0xFF AND DUP3 OR SWAP2 POP DUP1 DUP1 PUSH1 0x1 ADD SWAP2 POP POP PUSH2 0x940 JUMP JUMPDEST POP DUP1 SWAP2 POP POP SWAP2 SWAP1 POP JUMP JUMPDEST PUSH0 DUP1 DUP3 SWAP1 POP PUSH0 DUP1 JUMPDEST DUP3 MLOAD DUP2 LT ISZERO PUSH2 0xAA8 JUMPI PUSH1 0x30 PUSH1 0xF8 SHL DUP4 DUP3 DUP2 MLOAD DUP2 LT PUSH2 0x9CE JUMPI PUSH2 0x9CD PUSH2 0x132C JUMP JUMPDEST JUMPDEST PUSH1 0x20 ADD ADD MLOAD PUSH1 0xF8 SHR PUSH1 0xF8 SHL PUSH31 0xFFFFFFFFFFFFFFFFFFFFFFFFFFFFFFFFFFFFFFFFFFFFFFFFFFFFFFFFFFFFFF NOT AND LT ISZERO DUP1 ISZERO PUSH2 0xA4C JUMPI POP PUSH1 0x39 PUSH1 0xF8 SHL DUP4 DUP3 DUP2 MLOAD DUP2 LT PUSH2 0xA1C JUMPI PUSH2 0xA1B PUSH2 0x132C JUMP JUMPDEST JUMPDEST PUSH1 0x20 ADD ADD MLOAD PUSH1 0xF8 SHR PUSH1 0xF8 SHL PUSH31 0xFFFFFFFFFFFFFFFFFFFFFFFFFFFFFFFFFFFFFFFFFFFFFFFFFFFFFFFFFFFFFF NOT AND GT ISZERO JUMPDEST ISZERO PUSH2 0xA9B JUMPI PUSH1 0x30 DUP4 DUP3 DUP2 MLOAD DUP2 LT PUSH2 0xA66 JUMPI PUSH2 0xA65 PUSH2 0x132C JUMP JUMPDEST JUMPDEST PUSH1 0x20 ADD ADD MLOAD PUSH1 0xF8 SHR PUSH1 0xF8 SHL PUSH1 0xF8 SHR PUSH1 0xFF AND PUSH2 0xA81 SWAP2 SWAP1 PUSH2 0x1386 JUMP JUMPDEST PUSH1 0xA DUP4 PUSH2 0xA8E SWAP2 SWAP1 PUSH2 0x13EC JUMP JUMPDEST PUSH2 0xA98 SWAP2 SWAP1 PUSH2 0x13B9 JUMP JUMPDEST SWAP2 POP JUMPDEST DUP1 DUP1 PUSH1 0x1 ADD SWAP2 POP POP PUSH2 0x9AD JUMP JUMPDEST POP DUP1 SWAP3 POP POP POP SWAP2 SWAP1 POP JUMP JUMPDEST PUSH0 PUSH1 0x40 MLOAD SWAP1 POP SWAP1 JUMP JUMPDEST PUSH0 DUP1 REVERT JUMPDEST PUSH0 DUP1 REVERT JUMPDEST PUSH0 PUSH20 0xFFFFFFFFFFFFFFFFFFFFFFFFFFFFFFFFFFFFFFFF DUP3 AND SWAP1 POP SWAP2 SWAP1 POP JUMP JUMPDEST PUSH0 PUSH2 0xAED DUP3 PUSH2 0xAC4 JUMP JUMPDEST SWAP1 POP SWAP2 SWAP1 POP JUMP JUMPDEST PUSH2 0xAFD DUP2 PUSH2 0xAE3 JUMP JUMPDEST DUP2 EQ PUSH2 0xB07 JUMPI PUSH0 DUP1 REVERT JUMPDEST POP JUMP JUMPDEST PUSH0 DUP2 CALLDATALOAD SWAP1 POP PUSH2 0xB18 DUP2 PUSH2 0xAF4 JUMP JUMPDEST SWAP3 SWAP2 POP POP JUMP JUMPDEST PUSH0 PUSH1 0x20 DUP3 DUP5 SUB SLT ISZERO PUSH2 0xB33 JUMPI PUSH2 0xB32 PUSH2 0xABC JUMP JUMPDEST JUMPDEST PUSH0 PUSH2 0xB40 DUP5 DUP3 DUP6 ADD PUSH2 0xB0A JUMP JUMPDEST SWAP2 POP POP SWAP3 SWAP2 POP POP JUMP JUMPDEST PUSH0 DUP2 SWAP1 POP SWAP2 SWAP1 POP JUMP JUMPDEST PUSH2 0xB5B DUP2 PUSH2 0xB49 JUMP JUMPDEST DUP2 EQ PUSH2 0xB65 JUMPI PUSH0 DUP1 REVERT JUMPDEST POP JUMP JUMPDEST PUSH0 DUP2 CALLDATALOAD SWAP1 POP PUSH2 0xB76 DUP2 PUSH2 0xB52 JUMP JUMPDEST SWAP3 SWAP2 POP POP JUMP JUMPDEST PUSH0 DUP1 REVERT JUMPDEST PUSH0 DUP1 REVERT JUMPDEST PUSH0 PUSH1 0x1F NOT PUSH1 0x1F DUP4 ADD AND SWAP1 POP SWAP2 SWAP1 POP JUMP JUMPDEST PUSH32 0x4E487B7100000000000000000000000000000000000000000000000000000000 PUSH0 MSTORE PUSH1 0x41 PUSH1 0x4 MSTORE PUSH1 0x24 PUSH0 REVERT JUMPDEST PUSH2 0xBCA DUP3 PUSH2 0xB84 JUMP JUMPDEST DUP2 ADD DUP2 DUP2 LT PUSH8 0xFFFFFFFFFFFFFFFF DUP3 GT OR ISZERO PUSH2 0xBE9 JUMPI PUSH2 0xBE8 PUSH2 0xB94 JUMP JUMPDEST JUMPDEST DUP1 PUSH1 0x40 MSTORE POP POP POP JUMP JUMPDEST PUSH0 PUSH2 0xBFB PUSH2 0xAB3 JUMP JUMPDEST SWAP1 POP PUSH2 0xC07 DUP3 DUP3 PUSH2 0xBC1 JUMP JUMPDEST SWAP2 SWAP1 POP JUMP JUMPDEST PUSH0 PUSH8 0xFFFFFFFFFFFFFFFF DUP3 GT ISZERO PUSH2 0xC26 JUMPI PUSH2 0xC25 PUSH2 0xB94 JUMP JUMPDEST JUMPDEST PUSH2 0xC2F DUP3 PUSH2 0xB84 JUMP JUMPDEST SWAP1 POP PUSH1 0x20 DUP2 ADD SWAP1 POP SWAP2 SWAP1 POP JUMP JUMPDEST DUP3 DUP2 DUP4 CALLDATACOPY PUSH0 DUP4 DUP4 ADD MSTORE POP POP POP JUMP JUMPDEST PUSH0 PUSH2 0xC5C PUSH2 0xC57 DUP5 PUSH2 0xC0C JUMP JUMPDEST PUSH2 0xBF2 JUMP JUMPDEST SWAP1 POP DUP3 DUP2 MSTORE PUSH1 0x20 DUP2 ADD DUP5 DUP5 DUP5 ADD GT ISZERO PUSH2 0xC78 JUMPI PUSH2 0xC77 PUSH2 0xB80 JUMP JUMPDEST JUMPDEST PUSH2 0xC83 DUP5 DUP3 DUP6 PUSH2 0xC3C JUMP JUMPDEST POP SWAP4 SWAP3 POP POP POP JUMP JUMPDEST PUSH0 DUP3 PUSH1 0x1F DUP4 ADD SLT PUSH2 0xC9F JUMPI PUSH2 0xC9E PUSH2 0xB7C JUMP JUMPDEST JUMPDEST DUP2 CALLDATALOAD PUSH2 0xCAF DUP5 DUP3 PUSH1 0x20 DUP7 ADD PUSH2 0xC4A JUMP JUMPDEST SWAP2 POP POP SWAP3 SWAP2 POP POP JUMP JUMPDEST PUSH0 DUP1 PUSH1 0x40 DUP4 DUP6 SUB SLT ISZERO PUSH2 0xCCE JUMPI PUSH2 0xCCD PUSH2 0xABC JUMP JUMPDEST JUMPDEST PUSH0 PUSH2 0xCDB DUP6 DUP3 DUP7 ADD PUSH2 0xB68 JUMP JUMPDEST SWAP3 POP POP PUSH1 0x20 DUP4 ADD CALLDATALOAD PUSH8 0xFFFFFFFFFFFFFFFF DUP2 GT ISZERO PUSH2 0xCFC JUMPI PUSH2 0xCFB PUSH2 0xAC0 JUMP JUMPDEST JUMPDEST PUSH2 0xD08 DUP6 DUP3 DUP7 ADD PUSH2 0xC8B JUMP JUMPDEST SWAP2 POP POP SWAP3 POP SWAP3 SWAP1 POP JUMP JUMPDEST PUSH0 PUSH32 0xFFFFFFFF00000000000000000000000000000000000000000000000000000000 DUP3 AND SWAP1 POP SWAP2 SWAP1 POP JUMP JUMPDEST PUSH2 0xD46 DUP2 PUSH2 0xD12 JUMP JUMPDEST DUP3 MSTORE POP POP JUMP JUMPDEST PUSH0 PUSH1 0x20 DUP3 ADD SWAP1 POP PUSH2 0xD5F PUSH0 DUP4 ADD DUP5 PUSH2 0xD3D JUMP JUMPDEST SWAP3 SWAP2 POP POP JUMP JUMPDEST PUSH0 PUSH8 0xFFFFFFFFFFFFFFFF DUP3 GT ISZERO PUSH2 0xD7F JUMPI PUSH2 0xD7E PUSH2 0xB94 JUMP JUMPDEST JUMPDEST PUSH2 0xD88 DUP3 PUSH2 0xB84 JUMP JUMPDEST SWAP1 POP PUSH1 0x20 DUP2 ADD SWAP1 POP SWAP2 SWAP1 POP JUMP JUMPDEST PUSH0 PUSH2 0xDA7 PUSH2 0xDA2 DUP5 PUSH2 0xD65 JUMP JUMPDEST PUSH2 0xBF2 JUMP JUMPDEST SWAP1 POP DUP3 DUP2 MSTORE PUSH1 0x20 DUP2 ADD DUP5 DUP5 DUP5 ADD GT ISZERO PUSH2 0xDC3 JUMPI PUSH2 0xDC2 PUSH2 0xB80 JUMP JUMPDEST JUMPDEST PUSH2 0xDCE DUP5 DUP3 DUP6 PUSH2 0xC3C JUMP JUMPDEST POP SWAP4 SWAP3 POP POP POP JUMP JUMPDEST PUSH0 DUP3 PUSH1 0x1F DUP4 ADD SLT PUSH2 0xDEA JUMPI PUSH2 0xDE9 PUSH2 0xB7C JUMP JUMPDEST JUMPDEST DUP2 CALLDATALOAD PUSH2 0xDFA DUP5 DUP3 PUSH1 0x20 DUP7 ADD PUSH2 0xD95 JUMP JUMPDEST SWAP2 POP POP SWAP3 SWAP2 POP POP JUMP JUMPDEST PUSH0 PUSH1 0x20 DUP3 DUP5 SUB SLT ISZERO PUSH2 0xE18 JUMPI PUSH2 0xE17 PUSH2 0xABC JUMP JUMPDEST JUMPDEST PUSH0 DUP3 ADD CALLDATALOAD PUSH8 0xFFFFFFFFFFFFFFFF DUP2 GT ISZERO PUSH2 0xE35 JUMPI PUSH2 0xE34 PUSH2 0xAC0 JUMP JUMPDEST JUMPDEST PUSH2 0xE41 DUP5 DUP3 DUP6 ADD PUSH2 0xDD6 JUMP JUMPDEST SWAP2 POP POP SWAP3 SWAP2 POP POP JUMP JUMPDEST PUSH0 PUSH2 0xE54 DUP3 PUSH2 0xAC4 JUMP JUMPDEST SWAP1 POP SWAP2 SWAP1 POP JUMP JUMPDEST PUSH2 0xE64 DUP2 PUSH2 0xE4A JUMP JUMPDEST DUP3 MSTORE POP POP JUMP JUMPDEST PUSH0 PUSH1 0x20 DUP3 ADD SWAP1 POP PUSH2 0xE7D PUSH0 DUP4 ADD DUP5 PUSH2 0xE5B JUMP JUMPDEST SWAP3 SWAP2 POP POP JUMP JUMPDEST PUSH0 PUSH1 0x20 DUP3 DUP5 SUB SLT ISZERO PUSH2 0xE98 JUMPI PUSH2 0xE97 PUSH2 0xABC JUMP JUMPDEST JUMPDEST PUSH0 PUSH2 0xEA5 DUP5 DUP3 DUP6 ADD PUSH2 0xB68 JUMP JUMPDEST SWAP2 POP POP SWAP3 SWAP2 POP POP JUMP JUMPDEST PUSH0 DUP2 ISZERO ISZERO SWAP1 POP SWAP2 SWAP1 POP JUMP JUMPDEST PUSH2 0xEC2 DUP2 PUSH2 0xEAE JUMP JUMPDEST DUP3 MSTORE POP POP JUMP JUMPDEST PUSH0 PUSH1 0x20 DUP3 ADD SWAP1 POP PUSH2 0xEDB PUSH0 DUP4 ADD DUP5 PUSH2 0xEB9 JUMP JUMPDEST SWAP3 SWAP2 POP POP JUMP JUMPDEST PUSH0 DUP3 DUP3 MSTORE PUSH1 0x20 DUP3 ADD SWAP1 POP SWAP3 SWAP2 POP POP JUMP JUMPDEST PUSH32 0x4E6F742074686520636F6E7472616374206F776E657200000000000000000000 PUSH0 DUP3 ADD MSTORE POP JUMP JUMPDEST PUSH0 PUSH2 0xF25 PUSH1 0x16 DUP4 PUSH2 0xEE1 JUMP JUMPDEST SWAP2 POP PUSH2 0xF30 DUP3 PUSH2 0xEF1 JUMP JUMPDEST PUSH1 0x20 DUP3 ADD SWAP1 POP SWAP2 SWAP1 POP JUMP JUMPDEST PUSH0 PUSH1 0x20 DUP3 ADD SWAP1 POP DUP2 DUP2 SUB PUSH0 DUP4 ADD MSTORE PUSH2 0xF52 DUP2 PUSH2 0xF19 JUMP JUMPDEST SWAP1 POP SWAP2 SWAP1 POP JUMP JUMPDEST PUSH32 0x496E76616C696420636F6E747261637420616464726573730000000000000000 PUSH0 DUP3 ADD MSTORE POP JUMP JUMPDEST PUSH0 PUSH2 0xF8D PUSH1 0x18 DUP4 PUSH2 0xEE1 JUMP JUMPDEST SWAP2 POP PUSH2 0xF98 DUP3 PUSH2 0xF59 JUMP JUMPDEST PUSH1 0x20 DUP3 ADD SWAP1 POP SWAP2 SWAP1 POP JUMP JUMPDEST PUSH0 PUSH1 0x20 DUP3 ADD SWAP1 POP DUP2 DUP2 SUB PUSH0 DUP4 ADD MSTORE PUSH2 0xFBA DUP2 PUSH2 0xF81 JUMP JUMPDEST SWAP1 POP SWAP2 SWAP1 POP JUMP JUMPDEST PUSH32 0x4D7573742073656E64206120706F73697469766520616D6F756E740000000000 PUSH0 DUP3 ADD MSTORE POP JUMP JUMPDEST PUSH0 PUSH2 0xFF5 PUSH1 0x1B DUP4 PUSH2 0xEE1 JUMP JUMPDEST SWAP2 POP PUSH2 0x1000 DUP3 PUSH2 0xFC1 JUMP JUMPDEST PUSH1 0x20 DUP3 ADD SWAP1 POP SWAP2 SWAP1 POP JUMP JUMPDEST PUSH0 PUSH1 0x20 DUP3 ADD SWAP1 POP DUP2 DUP2 SUB PUSH0 DUP4 ADD MSTORE PUSH2 0x1022 DUP2 PUSH2 0xFE9 JUMP JUMPDEST SWAP1 POP SWAP2 SWAP1 POP JUMP JUMPDEST PUSH0 DUP2 SWAP1 POP SWAP3 SWAP2 POP POP JUMP JUMPDEST POP JUMP JUMPDEST PUSH0 PUSH2 0x1041 PUSH0 DUP4 PUSH2 0x1029 JUMP JUMPDEST SWAP2 POP PUSH2 0x104C DUP3 PUSH2 0x1033 JUMP JUMPDEST PUSH0 DUP3 ADD SWAP1 POP SWAP2 SWAP1 POP JUMP JUMPDEST PUSH0 PUSH2 0x1060 DUP3 PUSH2 0x1036 JUMP JUMPDEST SWAP2 POP DUP2 SWAP1 POP SWAP2 SWAP1 POP JUMP JUMPDEST PUSH32 0x5472616E73666572206661696C65640000000000000000000000000000000000 PUSH0 DUP3 ADD MSTORE POP JUMP JUMPDEST PUSH0 PUSH2 0x109E PUSH1 0xF DUP4 PUSH2 0xEE1 JUMP JUMPDEST SWAP2 POP PUSH2 0x10A9 DUP3 PUSH2 0x106A JUMP JUMPDEST PUSH1 0x20 DUP3 ADD SWAP1 POP SWAP2 SWAP1 POP JUMP JUMPDEST PUSH0 PUSH1 0x20 DUP3 ADD SWAP1 POP DUP2 DUP2 SUB PUSH0 DUP4 ADD MSTORE PUSH2 0x10CB DUP2 PUSH2 0x1092 JUMP JUMPDEST SWAP1 POP SWAP2 SWAP1 POP JUMP JUMPDEST PUSH0 DUP2 SWAP1 POP SWAP2 SWAP1 POP JUMP JUMPDEST PUSH2 0x10E4 DUP2 PUSH2 0x10D2 JUMP JUMPDEST DUP3 MSTORE POP POP JUMP JUMPDEST PUSH0 PUSH1 0x20 DUP3 ADD SWAP1 POP PUSH2 0x10FD PUSH0 DUP4 ADD DUP5 PUSH2 0x10DB JUMP JUMPDEST SWAP3 SWAP2 POP POP JUMP JUMPDEST PUSH0 DUP2 SWAP1 POP SWAP2 SWAP1 POP JUMP JUMPDEST PUSH2 0x111D PUSH2 0x1118 DUP3 PUSH2 0xB49 JUMP JUMPDEST PUSH2 0x1103 JUMP JUMPDEST DUP3 MSTORE POP POP JUMP JUMPDEST PUSH0 DUP2 PUSH1 0x60 SHL SWAP1 POP SWAP2 SWAP1 POP JUMP JUMPDEST PUSH0 PUSH2 0x1139 DUP3 PUSH2 0x1123 JUMP JUMPDEST SWAP1 POP SWAP2 SWAP1 POP JUMP JUMPDEST PUSH0 PUSH2 0x114A DUP3 PUSH2 0x112F JUMP JUMPDEST SWAP1 POP SWAP2 SWAP1 POP JUMP JUMPDEST PUSH2 0x1162 PUSH2 0x115D DUP3 PUSH2 0xE4A JUMP JUMPDEST PUSH2 0x1140 JUMP JUMPDEST DUP3 MSTORE POP POP JUMP JUMPDEST PUSH0 PUSH2 0x1173 DUP3 DUP6 PUSH2 0x110C JUMP JUMPDEST PUSH1 0x20 DUP3 ADD SWAP2 POP PUSH2 0x1183 DUP3 DUP5 PUSH2 0x1151 JUMP JUMPDEST PUSH1 0x14 DUP3 ADD SWAP2 POP DUP2 SWAP1 POP SWAP4 SWAP3 POP POP POP JUMP JUMPDEST PUSH32 0x4D65737361676520616C72656164792065786563757465640000000000000000 PUSH0 DUP3 ADD MSTORE POP JUMP JUMPDEST PUSH0 PUSH2 0x11C7 PUSH1 0x18 DUP4 PUSH2 0xEE1 JUMP JUMPDEST SWAP2 POP PUSH2 0x11D2 DUP3 PUSH2 0x1193 JUMP JUMPDEST PUSH1 0x20 DUP3 ADD SWAP1 POP SWAP2 SWAP1 POP JUMP JUMPDEST PUSH0 PUSH1 0x20 DUP3 ADD SWAP1 POP DUP2 DUP2 SUB PUSH0 DUP4 ADD MSTORE PUSH2 0x11F4 DUP2 PUSH2 0x11BB JUMP JUMPDEST SWAP1 POP SWAP2 SWAP1 POP JUMP JUMPDEST PUSH32 0x496E76616C6964207369676E6174757265206C656E6774680000000000000000 PUSH0 DUP3 ADD MSTORE POP JUMP JUMPDEST PUSH0 PUSH2 0x122F PUSH1 0x18 DUP4 PUSH2 0xEE1 JUMP JUMPDEST SWAP2 POP PUSH2 0x123A DUP3 PUSH2 0x11FB JUMP JUMPDEST PUSH1 0x20 DUP3 ADD SWAP1 POP SWAP2 SWAP1 POP JUMP JUMPDEST PUSH0 PUSH1 0x20 DUP3 ADD SWAP1 POP DUP2 DUP2 SUB PUSH0 DUP4 ADD MSTORE PUSH2 0x125C DUP2 PUSH2 0x1223 JUMP JUMPDEST SWAP1 POP SWAP2 SWAP1 POP JUMP JUMPDEST PUSH2 0x126C DUP2 PUSH2 0xB49 JUMP JUMPDEST DUP3 MSTORE POP POP JUMP JUMPDEST PUSH0 PUSH1 0xFF DUP3 AND SWAP1 POP SWAP2 SWAP1 POP JUMP JUMPDEST PUSH2 0x1287 DUP2 PUSH2 0x1272 JUMP JUMPDEST DUP3 MSTORE POP POP JUMP JUMPDEST PUSH0 PUSH1 0x80 DUP3 ADD SWAP1 POP PUSH2 0x12A0 PUSH0 DUP4 ADD DUP8 PUSH2 0x1263 JUMP JUMPDEST PUSH2 0x12AD PUSH1 0x20 DUP4 ADD DUP7 PUSH2 0x127E JUMP JUMPDEST PUSH2 0x12BA PUSH1 0x40 DUP4 ADD DUP6 PUSH2 0x1263 JUMP JUMPDEST PUSH2 0x12C7 PUSH1 0x60 DUP4 ADD DUP5 PUSH2 0x1263 JUMP JUMPDEST SWAP6 SWAP5 POP POP POP POP POP JUMP JUMPDEST PUSH0 DUP2 SWAP1 POP SWAP2 SWAP1 POP JUMP JUMPDEST PUSH2 0x12EA PUSH2 0x12E5 DUP3 PUSH2 0x10D2 JUMP JUMPDEST PUSH2 0x12D0 JUMP JUMPDEST DUP3 MSTORE POP POP JUMP JUMPDEST PUSH0 PUSH2 0x12FB DUP3 DUP7 PUSH2 0x1151 JUMP JUMPDEST PUSH1 0x14 DUP3 ADD SWAP2 POP PUSH2 0x130B DUP3 DUP6 PUSH2 0x12D9 JUMP JUMPDEST PUSH1 0x20 DUP3 ADD SWAP2 POP PUSH2 0x131B DUP3 DUP5 PUSH2 0x1151 JUMP JUMPDEST PUSH1 0x14 DUP3 ADD SWAP2 POP DUP2 SWAP1 POP SWAP5 SWAP4 POP POP POP POP JUMP JUMPDEST PUSH32 0x4E487B7100000000000000000000000000000000000000000000000000000000 PUSH0 MSTORE PUSH1 0x32 PUSH1 0x4 MSTORE PUSH1 0x24 PUSH0 REVERT JUMPDEST PUSH32 0x4E487B7100000000000000000000000000000000000000000000000000000000 PUSH0 MSTORE PUSH1 0x11 PUSH1 0x4 MSTORE PUSH1 0x24 PUSH0 REVERT JUMPDEST PUSH0 PUSH2 0x1390 DUP3 PUSH2 0x10D2 JUMP JUMPDEST SWAP2 POP PUSH2 0x139B DUP4 PUSH2 0x10D2 JUMP JUMPDEST SWAP3 POP DUP3 DUP3 SUB SWAP1 POP DUP2 DUP2 GT ISZERO PUSH2 0x13B3 JUMPI PUSH2 0x13B2 PUSH2 0x1359 JUMP JUMPDEST JUMPDEST SWAP3 SWAP2 POP POP JUMP JUMPDEST PUSH0 PUSH2 0x13C3 DUP3 PUSH2 0x10D2 JUMP JUMPDEST SWAP2 POP PUSH2 0x13CE DUP4 PUSH2 0x10D2 JUMP JUMPDEST SWAP3 POP DUP3 DUP3 ADD SWAP1 POP DUP1 DUP3 GT ISZERO PUSH2 0x13E6 JUMPI PUSH2 0x13E5 PUSH2 0x1359 JUMP JUMPDEST JUMPDEST SWAP3 SWAP2 POP POP JUMP JUMPDEST PUSH0 PUSH2 0x13F6 DUP3 PUSH2 0x10D2 JUMP JUMPDEST SWAP2 POP PUSH2 0x1401 DUP4 PUSH2 0x10D2 JUMP JUMPDEST SWAP3 POP DUP3 DUP3 MUL PUSH2 0x140F DUP2 PUSH2 0x10D2 JUMP JUMPDEST SWAP2 POP DUP3 DUP3 DIV DUP5 EQ DUP4 ISZERO OR PUSH2 0x1426 JUMPI PUSH2 0x1425 PUSH2 0x1359 JUMP JUMPDEST JUMPDEST POP SWAP3 SWAP2 POP POP JUMP INVALID LOG2 PUSH5 0x6970667358 0x22 SLT KECCAK256 PUSH5 0xD2907C98DB DIV DUP6 SWAP14 PUSH11 0x9538F2B5F7CA7A792A13A7 0xD 0x24 BLOCKHASH 0xAC 0xFC 0xD2 0xAB SWAP14 PUSH9 0x76C764736F6C634300 ADDMOD XOR STOP CALLER "
				},
				"gasEstimates": {
					"creation": {
						"codeDepositCost": "1043800",
						"executionCost": "25350",
						"totalCost": "1069150"
					},
					"external": {
						"executedMessages(bytes32)": "2851",
						"isValidSignature(bytes32,bytes)": "infinite",
						"owner()": "2549",
						"sendFundsToContract(address)": "infinite",
						"signMessage(string)": "infinite"
					},
					"internal": {
						"_bytesToAddress(bytes memory)": "infinite",
						"_parseData(string memory)": "infinite",
						"_stringToUint(string memory)": "infinite"
					}
				},
				"methodIdentifiers": {
					"executedMessages(bytes32)": "cd2abd66",
					"isValidSignature(bytes32,bytes)": "1626ba7e",
					"owner()": "8da5cb5b",
					"sendFundsToContract(address)": "04be5387",
					"signMessage(string)": "7229a894"
				}
			},
			"storageLayout": {
				"storage": [
					{
						"astId": 19,
						"contract": "contracts/SmartContractWallet.sol:SmartContractWallet",
						"label": "owner",
						"offset": 0,
						"slot": "0",
						"type": "t_address"
					},
					{
						"astId": 23,
						"contract": "contracts/SmartContractWallet.sol:SmartContractWallet",
						"label": "executedMessages",
						"offset": 0,
						"slot": "1",
						"type": "t_mapping(t_bytes32,t_bool)"
					}
				],
				"types": {
					"t_address": {
						"encoding": "inplace",
						"label": "address",
						"numberOfBytes": "20"
					},
					"t_bool": {
						"encoding": "inplace",
						"label": "bool",
						"numberOfBytes": "1"
					},
					"t_bytes32": {
						"encoding": "inplace",
						"label": "bytes32",
						"numberOfBytes": "32"
					},
					"t_mapping(t_bytes32,t_bool)": {
						"encoding": "mapping",
						"key": "t_bytes32",
						"label": "mapping(bytes32 => bool)",
						"numberOfBytes": "32",
						"value": "t_bool"
					}
				}
			},
			"userdoc": {
				"kind": "user",
				"methods": {},
				"version": 1
			}
		}
	}
}