{
	"contracts/Bond3.sol": {
		"Bond3": {
			"abi": [
				{
					"inputs": [
						{
							"internalType": "uint256",
							"name": "_annualInterestRate",
							"type": "uint256"
						}
					],
					"stateMutability": "nonpayable",
					"type": "constructor"
				},
				{
					"inputs": [],
					"name": "AccessControlBadConfirmation",
					"type": "error"
				},
				{
					"inputs": [
						{
							"internalType": "address",
							"name": "account",
							"type": "address"
						},
						{
							"internalType": "bytes32",
							"name": "neededRole",
							"type": "bytes32"
						}
					],
					"name": "AccessControlUnauthorizedAccount",
					"type": "error"
				},
				{
					"inputs": [],
					"name": "EnforcedPause",
					"type": "error"
				},
				{
					"inputs": [],
					"name": "ExpectedPause",
					"type": "error"
				},
				{
					"anonymous": false,
					"inputs": [
						{
							"indexed": false,
							"internalType": "uint256",
							"name": "newTotalInterestOwed",
							"type": "uint256"
						}
					],
					"name": "InterestUpdated",
					"type": "event"
				},
				{
					"anonymous": false,
					"inputs": [
						{
							"indexed": false,
							"internalType": "uint256",
							"name": "amount",
							"type": "uint256"
						}
					],
					"name": "InterestWithdrawn",
					"type": "event"
				},
				{
					"anonymous": false,
					"inputs": [
						{
							"indexed": false,
							"internalType": "address",
							"name": "account",
							"type": "address"
						}
					],
					"name": "Paused",
					"type": "event"
				},
				{
					"anonymous": false,
					"inputs": [
						{
							"indexed": true,
							"internalType": "address",
							"name": "lender",
							"type": "address"
						},
						{
							"indexed": false,
							"internalType": "uint256",
							"name": "amount",
							"type": "uint256"
						}
					],
					"name": "PrincipalDeposited",
					"type": "event"
				},
				{
					"anonymous": false,
					"inputs": [
						{
							"indexed": true,
							"internalType": "address",
							"name": "recipient",
							"type": "address"
						},
						{
							"indexed": false,
							"internalType": "uint256",
							"name": "amount",
							"type": "uint256"
						}
					],
					"name": "RequestSent",
					"type": "event"
				},
				{
					"anonymous": false,
					"inputs": [
						{
							"indexed": true,
							"internalType": "bytes32",
							"name": "role",
							"type": "bytes32"
						},
						{
							"indexed": true,
							"internalType": "bytes32",
							"name": "previousAdminRole",
							"type": "bytes32"
						},
						{
							"indexed": true,
							"internalType": "bytes32",
							"name": "newAdminRole",
							"type": "bytes32"
						}
					],
					"name": "RoleAdminChanged",
					"type": "event"
				},
				{
					"anonymous": false,
					"inputs": [
						{
							"indexed": true,
							"internalType": "bytes32",
							"name": "role",
							"type": "bytes32"
						},
						{
							"indexed": true,
							"internalType": "address",
							"name": "account",
							"type": "address"
						},
						{
							"indexed": true,
							"internalType": "address",
							"name": "sender",
							"type": "address"
						}
					],
					"name": "RoleGranted",
					"type": "event"
				},
				{
					"anonymous": false,
					"inputs": [
						{
							"indexed": true,
							"internalType": "bytes32",
							"name": "role",
							"type": "bytes32"
						},
						{
							"indexed": true,
							"internalType": "address",
							"name": "account",
							"type": "address"
						},
						{
							"indexed": true,
							"internalType": "address",
							"name": "sender",
							"type": "address"
						}
					],
					"name": "RoleRevoked",
					"type": "event"
				},
				{
					"anonymous": false,
					"inputs": [
						{
							"indexed": false,
							"internalType": "string",
							"name": "tradeId",
							"type": "string"
						}
					],
					"name": "TradeActivated",
					"type": "event"
				},
				{
					"anonymous": false,
					"inputs": [
						{
							"indexed": false,
							"internalType": "address",
							"name": "confirmer",
							"type": "address"
						},
						{
							"indexed": false,
							"internalType": "string",
							"name": "tradeId",
							"type": "string"
						}
					],
					"name": "TradeConfirmed",
					"type": "event"
				},
				{
					"anonymous": false,
					"inputs": [
						{
							"indexed": false,
							"internalType": "address",
							"name": "initiator",
							"type": "address"
						},
						{
							"indexed": false,
							"internalType": "string",
							"name": "tradeId",
							"type": "string"
						},
						{
							"indexed": false,
							"internalType": "string",
							"name": "tradeData",
							"type": "string"
						}
					],
					"name": "TradeIncepted",
					"type": "event"
				},
				{
					"anonymous": false,
					"inputs": [],
					"name": "TradeSettlementPhase",
					"type": "event"
				},
				{
					"anonymous": false,
					"inputs": [
						{
							"indexed": false,
							"internalType": "string",
							"name": "tradeData",
							"type": "string"
						},
						{
							"indexed": false,
							"internalType": "string",
							"name": "lastSettlementData",
							"type": "string"
						}
					],
					"name": "TradeSettlementRequest",
					"type": "event"
				},
				{
					"anonymous": false,
					"inputs": [
						{
							"indexed": false,
							"internalType": "address",
							"name": "account",
							"type": "address"
						}
					],
					"name": "Unpaused",
					"type": "event"
				},
				{
					"inputs": [],
					"name": "DEFAULT_ADMIN_ROLE",
					"outputs": [
						{
							"internalType": "bytes32",
							"name": "",
							"type": "bytes32"
						}
					],
					"stateMutability": "view",
					"type": "function"
				},
				{
					"inputs": [],
					"name": "PAUSER_ROLE",
					"outputs": [
						{
							"internalType": "bytes32",
							"name": "",
							"type": "bytes32"
						}
					],
					"stateMutability": "view",
					"type": "function"
				},
				{
					"inputs": [
						{
							"internalType": "uint256",
							"name": "transactionHash",
							"type": "uint256"
						},
						{
							"internalType": "bool",
							"name": "success",
							"type": "bool"
						}
					],
					"name": "afterTransfer",
					"outputs": [],
					"stateMutability": "nonpayable",
					"type": "function"
				},
				{
					"inputs": [],
					"name": "annualInterestRate",
					"outputs": [
						{
							"internalType": "uint256",
							"name": "",
							"type": "uint256"
						}
					],
					"stateMutability": "view",
					"type": "function"
				},
				{
					"inputs": [],
					"name": "calculateInterest",
					"outputs": [],
					"stateMutability": "nonpayable",
					"type": "function"
				},
				{
					"inputs": [
						{
							"internalType": "address",
							"name": "_withParty",
							"type": "address"
						},
						{
							"internalType": "string",
							"name": "_tradeData",
							"type": "string"
						},
						{
							"internalType": "int256",
							"name": "_position",
							"type": "int256"
						},
						{
							"internalType": "int256",
							"name": "_paymentAmount",
							"type": "int256"
						},
						{
							"internalType": "string",
							"name": "_initialSettlementData",
							"type": "string"
						}
					],
					"name": "confirmTrade",
					"outputs": [],
					"stateMutability": "nonpayable",
					"type": "function"
				},
				{
					"inputs": [
						{
							"internalType": "string",
							"name": "tradeId",
							"type": "string"
						},
						{
							"internalType": "int256",
							"name": "_terminationPayment",
							"type": "int256"
						}
					],
					"name": "confirmTradeTermination",
					"outputs": [],
					"stateMutability": "nonpayable",
					"type": "function"
				},
				{
					"inputs": [],
					"name": "depositPrincipal",
					"outputs": [],
					"stateMutability": "payable",
					"type": "function"
				},
				{
					"inputs": [
						{
							"internalType": "bytes32",
							"name": "role",
							"type": "bytes32"
						}
					],
					"name": "getRoleAdmin",
					"outputs": [
						{
							"internalType": "bytes32",
							"name": "",
							"type": "bytes32"
						}
					],
					"stateMutability": "view",
					"type": "function"
				},
				{
					"inputs": [],
					"name": "getTotalInterestOwed",
					"outputs": [
						{
							"internalType": "uint256",
							"name": "",
							"type": "uint256"
						}
					],
					"stateMutability": "view",
					"type": "function"
				},
				{
					"inputs": [
						{
							"internalType": "bytes32",
							"name": "role",
							"type": "bytes32"
						},
						{
							"internalType": "address",
							"name": "account",
							"type": "address"
						}
					],
					"name": "grantRole",
					"outputs": [],
					"stateMutability": "nonpayable",
					"type": "function"
				},
				{
					"inputs": [
						{
							"internalType": "bytes32",
							"name": "role",
							"type": "bytes32"
						},
						{
							"internalType": "address",
							"name": "account",
							"type": "address"
						}
					],
					"name": "hasRole",
					"outputs": [
						{
							"internalType": "bool",
							"name": "",
							"type": "bool"
						}
					],
					"stateMutability": "view",
					"type": "function"
				},
				{
					"inputs": [
						{
							"internalType": "address",
							"name": "_withParty",
							"type": "address"
						},
						{
							"internalType": "string",
							"name": "_tradeData",
							"type": "string"
						},
						{
							"internalType": "int256",
							"name": "_position",
							"type": "int256"
						},
						{
							"internalType": "int256",
							"name": "_paymentAmount",
							"type": "int256"
						},
						{
							"internalType": "string",
							"name": "_initialSettlementData",
							"type": "string"
						}
					],
					"name": "inceptTrade",
					"outputs": [],
					"stateMutability": "nonpayable",
					"type": "function"
				},
				{
					"inputs": [],
					"name": "initiateSettlement",
					"outputs": [],
					"stateMutability": "nonpayable",
					"type": "function"
				},
				{
					"inputs": [],
					"name": "lastInterestCalculationTime",
					"outputs": [
						{
							"internalType": "uint256",
							"name": "",
							"type": "uint256"
						}
					],
					"stateMutability": "view",
					"type": "function"
				},
				{
					"inputs": [],
					"name": "owner",
					"outputs": [
						{
							"internalType": "address",
							"name": "",
							"type": "address"
						}
					],
					"stateMutability": "view",
					"type": "function"
				},
				{
					"inputs": [],
					"name": "pause",
					"outputs": [],
					"stateMutability": "nonpayable",
					"type": "function"
				},
				{
					"inputs": [],
					"name": "paused",
					"outputs": [
						{
							"internalType": "bool",
							"name": "",
							"type": "bool"
						}
					],
					"stateMutability": "view",
					"type": "function"
				},
				{
					"inputs": [
						{
							"internalType": "int256",
							"name": "settlementAmount",
							"type": "int256"
						},
						{
							"internalType": "string",
							"name": "settlementData",
							"type": "string"
						}
					],
					"name": "performSettlement",
					"outputs": [],
					"stateMutability": "nonpayable",
					"type": "function"
				},
				{
					"inputs": [],
					"name": "principal",
					"outputs": [
						{
							"internalType": "uint256",
							"name": "",
							"type": "uint256"
						}
					],
					"stateMutability": "view",
					"type": "function"
				},
				{
					"inputs": [
						{
							"internalType": "bytes32",
							"name": "role",
							"type": "bytes32"
						},
						{
							"internalType": "address",
							"name": "callerConfirmation",
							"type": "address"
						}
					],
					"name": "renounceRole",
					"outputs": [],
					"stateMutability": "nonpayable",
					"type": "function"
				},
				{
					"inputs": [
						{
							"internalType": "string",
							"name": "tradeId",
							"type": "string"
						},
						{
							"internalType": "int256",
							"name": "_terminationPayment",
							"type": "int256"
						}
					],
					"name": "requestTradeTermination",
					"outputs": [],
					"stateMutability": "nonpayable",
					"type": "function"
				},
				{
					"inputs": [
						{
							"internalType": "bytes32",
							"name": "role",
							"type": "bytes32"
						},
						{
							"internalType": "address",
							"name": "account",
							"type": "address"
						}
					],
					"name": "revokeRole",
					"outputs": [],
					"stateMutability": "nonpayable",
					"type": "function"
				},
				{
					"inputs": [
						{
							"internalType": "bytes4",
							"name": "interfaceId",
							"type": "bytes4"
						}
					],
					"name": "supportsInterface",
					"outputs": [
						{
							"internalType": "bool",
							"name": "",
							"type": "bool"
						}
					],
					"stateMutability": "view",
					"type": "function"
				},
				{
					"inputs": [
						{
							"internalType": "uint256",
							"name": "_amount",
							"type": "uint256"
						}
					],
					"name": "testSendFunds",
					"outputs": [],
					"stateMutability": "nonpayable",
					"type": "function"
				},
				{
					"inputs": [],
					"name": "totalInterestOwed",
					"outputs": [
						{
							"internalType": "uint256",
							"name": "",
							"type": "uint256"
						}
					],
					"stateMutability": "view",
					"type": "function"
				},
				{
					"inputs": [
						{
							"internalType": "uint256",
							"name": "",
							"type": "uint256"
						}
					],
					"name": "tradeIds",
					"outputs": [
						{
							"internalType": "string",
							"name": "",
							"type": "string"
						}
					],
					"stateMutability": "view",
					"type": "function"
				},
				{
					"inputs": [
						{
							"internalType": "string",
							"name": "",
							"type": "string"
						}
					],
					"name": "trades",
					"outputs": [
						{
							"internalType": "address",
							"name": "initiator",
							"type": "address"
						},
						{
							"internalType": "address",
							"name": "counterparty",
							"type": "address"
						},
						{
							"internalType": "string",
							"name": "tradeData",
							"type": "string"
						},
						{
							"internalType": "int256",
							"name": "position",
							"type": "int256"
						},
						{
							"internalType": "int256",
							"name": "paymentAmount",
							"type": "int256"
						},
						{
							"internalType": "string",
							"name": "initialSettlementData",
							"type": "string"
						},
						{
							"internalType": "bool",
							"name": "confirmed",
							"type": "bool"
						},
						{
							"internalType": "bool",
							"name": "settled",
							"type": "bool"
						}
					],
					"stateMutability": "view",
					"type": "function"
				},
				{
					"inputs": [],
					"name": "unpause",
					"outputs": [],
					"stateMutability": "nonpayable",
					"type": "function"
				},
				{
					"inputs": [],
					"name": "withdrawInterest",
					"outputs": [],
					"stateMutability": "nonpayable",
					"type": "function"
				}
			],
			"devdoc": {
				"errors": {
					"AccessControlBadConfirmation()": [
						{
							"details": "The caller of a function is not the expected one. NOTE: Don't confuse with {AccessControlUnauthorizedAccount}."
						}
					],
					"AccessControlUnauthorizedAccount(address,bytes32)": [
						{
							"details": "The `account` is missing a role."
						}
					],
					"EnforcedPause()": [
						{
							"details": "The operation failed because the contract is paused."
						}
					],
					"ExpectedPause()": [
						{
							"details": "The operation failed because the contract is not paused."
						}
					]
				},
				"events": {
					"Paused(address)": {
						"details": "Emitted when the pause is triggered by `account`."
					},
					"RoleAdminChanged(bytes32,bytes32,bytes32)": {
						"details": "Emitted when `newAdminRole` is set as ``role``'s admin role, replacing `previousAdminRole` `DEFAULT_ADMIN_ROLE` is the starting admin for all roles, despite {RoleAdminChanged} not being emitted signaling this."
					},
					"RoleGranted(bytes32,address,address)": {
						"details": "Emitted when `account` is granted `role`. `sender` is the account that originated the contract call, an admin role bearer except when using {AccessControl-_setupRole}."
					},
					"RoleRevoked(bytes32,address,address)": {
						"details": "Emitted when `account` is revoked `role`. `sender` is the account that originated the contract call:   - if using `revokeRole`, it is the admin role bearer   - if using `renounceRole`, it is the role bearer (i.e. `account`)"
					},
					"Unpaused(address)": {
						"details": "Emitted when the pause is lifted by `account`."
					}
				},
				"kind": "dev",
				"methods": {
					"getRoleAdmin(bytes32)": {
						"details": "Returns the admin role that controls `role`. See {grantRole} and {revokeRole}. To change a role's admin, use {_setRoleAdmin}."
					},
					"grantRole(bytes32,address)": {
						"details": "Grants `role` to `account`. If `account` had not been already granted `role`, emits a {RoleGranted} event. Requirements: - the caller must have ``role``'s admin role. May emit a {RoleGranted} event."
					},
					"hasRole(bytes32,address)": {
						"details": "Returns `true` if `account` has been granted `role`."
					},
					"paused()": {
						"details": "Returns true if the contract is paused, and false otherwise."
					},
					"renounceRole(bytes32,address)": {
						"details": "Revokes `role` from the calling account. Roles are often managed via {grantRole} and {revokeRole}: this function's purpose is to provide a mechanism for accounts to lose their privileges if they are compromised (such as when a trusted device is misplaced). If the calling account had been revoked `role`, emits a {RoleRevoked} event. Requirements: - the caller must be `callerConfirmation`. May emit a {RoleRevoked} event."
					},
					"revokeRole(bytes32,address)": {
						"details": "Revokes `role` from `account`. If `account` had been granted `role`, emits a {RoleRevoked} event. Requirements: - the caller must have ``role``'s admin role. May emit a {RoleRevoked} event."
					},
					"supportsInterface(bytes4)": {
						"details": "See {IERC165-supportsInterface}."
					}
				},
				"version": 1
			},
			"evm": {
				"assembly": "    /* \"contracts/Bond3.sol\":323:4763  contract Bond3 is Pausable, AccessControl, ISmartDerivativeContract, LendingContractLogic  {... */\n  mstore(0x40, 0x80)\n    /* \"contracts/Bond3.sol\":891:1081  constructor(uint256 _annualInterestRate) LendingContractLogic(_annualInterestRate) {... */\n  callvalue\n  dup1\n  iszero\n  tag_1\n  jumpi\n  0x00\n  dup1\n  revert\ntag_1:\n  pop\n  mload(0x40)\n  sub(codesize, bytecodeSize)\n  dup1\n  bytecodeSize\n  dup4\n  codecopy\n  dup2\n  dup2\n  add\n  0x40\n  mstore\n  dup2\n  add\n  swap1\n  tag_2\n  swap2\n  swap1\n  tag_3\n  jump\t// in\ntag_2:\n    /* \"contracts/Bond3.sol\":953:972  _annualInterestRate */\n  dup1\n    /* \"@openzeppelin/contracts/utils/Pausable.sol\":1241:1246  false */\n  0x00\n    /* \"@openzeppelin/contracts/utils/Pausable.sol\":1231:1238  _paused */\n  dup1\n  0x00\n    /* \"@openzeppelin/contracts/utils/Pausable.sol\":1231:1246  _paused = false */\n  0x0100\n  exp\n  dup2\n  sload\n  dup2\n  0xff\n  mul\n  not\n  and\n  swap1\n  dup4\n  iszero\n  iszero\n  mul\n  or\n  swap1\n  sstore\n  pop\n    /* \"contracts/LendingContractLogic.sol\":586:596  msg.sender */\n  caller\n    /* \"contracts/LendingContractLogic.sol\":578:583  owner */\n  0x02\n  0x00\n    /* \"contracts/LendingContractLogic.sol\":578:596  owner = msg.sender */\n  0x0100\n  exp\n  dup2\n  sload\n  dup2\n  0xffffffffffffffffffffffffffffffffffffffff\n  mul\n  not\n  and\n  swap1\n  dup4\n  0xffffffffffffffffffffffffffffffffffffffff\n  and\n  mul\n  or\n  swap1\n  sstore\n  pop\n    /* \"contracts/LendingContractLogic.sol\":628:647  _annualInterestRate */\n  dup1\n    /* \"contracts/LendingContractLogic.sol\":607:625  annualInterestRate */\n  0x04\n    /* \"contracts/LendingContractLogic.sol\":607:647  annualInterestRate = _annualInterestRate */\n  dup2\n  swap1\n  sstore\n  pop\n    /* \"contracts/LendingContractLogic.sol\":688:703  block.timestamp */\n  timestamp\n    /* \"contracts/LendingContractLogic.sol\":658:685  lastInterestCalculationTime */\n  0x05\n    /* \"contracts/LendingContractLogic.sol\":658:703  lastInterestCalculationTime = block.timestamp */\n  dup2\n  swap1\n  sstore\n  pop\n    /* \"contracts/LendingContractLogic.sol\":526:711  constructor(uint256 _annualInterestRate) {... */\n  pop\n    /* \"contracts/Bond3.sol\":985:1027  _grantRole(DEFAULT_ADMIN_ROLE, msg.sender) */\n  tag_10\n    /* \"@openzeppelin/contracts/access/AccessControl.sol\":2232:2236  0x00 */\n  0x00\n    /* \"contracts/Bond3.sol\":996:1014  DEFAULT_ADMIN_ROLE */\n  dup1\n  shl\n    /* \"contracts/Bond3.sol\":1016:1026  msg.sender */\n  caller\n    /* \"contracts/Bond3.sol\":985:995  _grantRole */\n  shl(0x20, tag_11)\n    /* \"contracts/Bond3.sol\":985:1027  _grantRole(DEFAULT_ADMIN_ROLE, msg.sender) */\n  0x20\n  shr\n  jump\t// in\ntag_10:\n  pop\n    /* \"contracts/Bond3.sol\":1038:1073  _grantRole(PAUSER_ROLE, msg.sender) */\n  tag_12\n    /* \"contracts/Bond3.sol\":789:813  keccak256(\"PAUSER_ROLE\") */\n  0x65d7a28e3265b37a6474929f336521b332c1681b933f6cb9f3376673440d862a\n    /* \"contracts/Bond3.sol\":1062:1072  msg.sender */\n  caller\n    /* \"contracts/Bond3.sol\":1038:1048  _grantRole */\n  shl(0x20, tag_11)\n    /* \"contracts/Bond3.sol\":1038:1073  _grantRole(PAUSER_ROLE, msg.sender) */\n  0x20\n  shr\n  jump\t// in\ntag_12:\n  pop\n    /* \"contracts/Bond3.sol\":891:1081  constructor(uint256 _annualInterestRate) LendingContractLogic(_annualInterestRate) {... */\n  pop\n    /* \"contracts/Bond3.sol\":323:4763  contract Bond3 is Pausable, AccessControl, ISmartDerivativeContract, LendingContractLogic  {... */\n  jump(tag_13)\n    /* \"@openzeppelin/contracts/access/AccessControl.sol\":6179:6495  function _grantRole(bytes32 role, address account) internal virtual returns (bool) {... */\ntag_11:\n    /* \"@openzeppelin/contracts/access/AccessControl.sol\":6256:6260  bool */\n  0x00\n    /* \"@openzeppelin/contracts/access/AccessControl.sol\":6277:6299  hasRole(role, account) */\n  tag_15\n    /* \"@openzeppelin/contracts/access/AccessControl.sol\":6285:6289  role */\n  dup4\n    /* \"@openzeppelin/contracts/access/AccessControl.sol\":6291:6298  account */\n  dup4\n    /* \"@openzeppelin/contracts/access/AccessControl.sol\":6277:6284  hasRole */\n  shl(0x20, tag_16)\n    /* \"@openzeppelin/contracts/access/AccessControl.sol\":6277:6299  hasRole(role, account) */\n  0x20\n  shr\n  jump\t// in\ntag_15:\n    /* \"@openzeppelin/contracts/access/AccessControl.sol\":6272:6489  if (!hasRole(role, account)) {... */\n  tag_17\n  jumpi\n    /* \"@openzeppelin/contracts/access/AccessControl.sol\":6347:6351  true */\n  0x01\n    /* \"@openzeppelin/contracts/access/AccessControl.sol\":6315:6321  _roles */\n  dup1\n    /* \"@openzeppelin/contracts/access/AccessControl.sol\":6315:6327  _roles[role] */\n  0x00\n    /* \"@openzeppelin/contracts/access/AccessControl.sol\":6322:6326  role */\n  dup6\n    /* \"@openzeppelin/contracts/access/AccessControl.sol\":6315:6327  _roles[role] */\n  dup2\n  mstore\n  0x20\n  add\n  swap1\n  dup2\n  mstore\n  0x20\n  add\n  0x00\n  keccak256\n    /* \"@openzeppelin/contracts/access/AccessControl.sol\":6315:6335  _roles[role].hasRole */\n  0x00\n  add\n    /* \"@openzeppelin/contracts/access/AccessControl.sol\":6315:6344  _roles[role].hasRole[account] */\n  0x00\n    /* \"@openzeppelin/contracts/access/AccessControl.sol\":6336:6343  account */\n  dup5\n    /* \"@openzeppelin/contracts/access/AccessControl.sol\":6315:6344  _roles[role].hasRole[account] */\n  0xffffffffffffffffffffffffffffffffffffffff\n  and\n  0xffffffffffffffffffffffffffffffffffffffff\n  and\n  dup2\n  mstore\n  0x20\n  add\n  swap1\n  dup2\n  mstore\n  0x20\n  add\n  0x00\n  keccak256\n  0x00\n    /* \"@openzeppelin/contracts/access/AccessControl.sol\":6315:6351  _roles[role].hasRole[account] = true */\n  0x0100\n  exp\n  dup2\n  sload\n  dup2\n  0xff\n  mul\n  not\n  and\n  swap1\n  dup4\n  iszero\n  iszero\n  mul\n  or\n  swap1\n  sstore\n  pop\n    /* \"@openzeppelin/contracts/access/AccessControl.sol\":6397:6409  _msgSender() */\n  tag_18\n    /* \"@openzeppelin/contracts/access/AccessControl.sol\":6397:6407  _msgSender */\n  shl(0x20, tag_19)\n    /* \"@openzeppelin/contracts/access/AccessControl.sol\":6397:6409  _msgSender() */\n  0x20\n  shr\n  jump\t// in\ntag_18:\n    /* \"@openzeppelin/contracts/access/AccessControl.sol\":6370:6410  RoleGranted(role, account, _msgSender()) */\n  0xffffffffffffffffffffffffffffffffffffffff\n  and\n    /* \"@openzeppelin/contracts/access/AccessControl.sol\":6388:6395  account */\n  dup3\n    /* \"@openzeppelin/contracts/access/AccessControl.sol\":6370:6410  RoleGranted(role, account, _msgSender()) */\n  0xffffffffffffffffffffffffffffffffffffffff\n  and\n    /* \"@openzeppelin/contracts/access/AccessControl.sol\":6382:6386  role */\n  dup5\n    /* \"@openzeppelin/contracts/access/AccessControl.sol\":6370:6410  RoleGranted(role, account, _msgSender()) */\n  0x2f8788117e7eff1d82e926ec794901d17c78024a50270940304540a733656f0d\n  mload(0x40)\n  mload(0x40)\n  dup1\n  swap2\n  sub\n  swap1\n  log4\n    /* \"@openzeppelin/contracts/access/AccessControl.sol\":6431:6435  true */\n  0x01\n    /* \"@openzeppelin/contracts/access/AccessControl.sol\":6424:6435  return true */\n  swap1\n  pop\n  jump(tag_14)\n    /* \"@openzeppelin/contracts/access/AccessControl.sol\":6272:6489  if (!hasRole(role, account)) {... */\ntag_17:\n    /* \"@openzeppelin/contracts/access/AccessControl.sol\":6473:6478  false */\n  0x00\n    /* \"@openzeppelin/contracts/access/AccessControl.sol\":6466:6478  return false */\n  swap1\n  pop\n    /* \"@openzeppelin/contracts/access/AccessControl.sol\":6179:6495  function _grantRole(bytes32 role, address account) internal virtual returns (bool) {... */\ntag_14:\n  swap3\n  swap2\n  pop\n  pop\n  jump\t// out\n    /* \"@openzeppelin/contracts/access/AccessControl.sol\":2854:2990  function hasRole(bytes32 role, address account) public view virtual returns (bool) {... */\ntag_16:\n    /* \"@openzeppelin/contracts/access/AccessControl.sol\":2931:2935  bool */\n  0x00\n    /* \"@openzeppelin/contracts/access/AccessControl.sol\":2954:2960  _roles */\n  0x01\n    /* \"@openzeppelin/contracts/access/AccessControl.sol\":2954:2966  _roles[role] */\n  0x00\n    /* \"@openzeppelin/contracts/access/AccessControl.sol\":2961:2965  role */\n  dup5\n    /* \"@openzeppelin/contracts/access/AccessControl.sol\":2954:2966  _roles[role] */\n  dup2\n  mstore\n  0x20\n  add\n  swap1\n  dup2\n  mstore\n  0x20\n  add\n  0x00\n  keccak256\n    /* \"@openzeppelin/contracts/access/AccessControl.sol\":2954:2974  _roles[role].hasRole */\n  0x00\n  add\n    /* \"@openzeppelin/contracts/access/AccessControl.sol\":2954:2983  _roles[role].hasRole[account] */\n  0x00\n    /* \"@openzeppelin/contracts/access/AccessControl.sol\":2975:2982  account */\n  dup4\n    /* \"@openzeppelin/contracts/access/AccessControl.sol\":2954:2983  _roles[role].hasRole[account] */\n  0xffffffffffffffffffffffffffffffffffffffff\n  and\n  0xffffffffffffffffffffffffffffffffffffffff\n  and\n  dup2\n  mstore\n  0x20\n  add\n  swap1\n  dup2\n  mstore\n  0x20\n  add\n  0x00\n  keccak256\n  0x00\n  swap1\n  sload\n  swap1\n  0x0100\n  exp\n  swap1\n  div\n  0xff\n  and\n    /* \"@openzeppelin/contracts/access/AccessControl.sol\":2947:2983  return _roles[role].hasRole[account] */\n  swap1\n  pop\n    /* \"@openzeppelin/contracts/access/AccessControl.sol\":2854:2990  function hasRole(bytes32 role, address account) public view virtual returns (bool) {... */\n  swap3\n  swap2\n  pop\n  pop\n  jump\t// out\n    /* \"@openzeppelin/contracts/utils/Context.sol\":656:752  function _msgSender() internal view virtual returns (address) {... */\ntag_19:\n    /* \"@openzeppelin/contracts/utils/Context.sol\":709:716  address */\n  0x00\n    /* \"@openzeppelin/contracts/utils/Context.sol\":735:745  msg.sender */\n  caller\n    /* \"@openzeppelin/contracts/utils/Context.sol\":728:745  return msg.sender */\n  swap1\n  pop\n    /* \"@openzeppelin/contracts/utils/Context.sol\":656:752  function _msgSender() internal view virtual returns (address) {... */\n  swap1\n  jump\t// out\n    /* \"#utility.yul\":88:205   */\ntag_24:\n    /* \"#utility.yul\":197:198   */\n  0x00\n    /* \"#utility.yul\":194:195   */\n  dup1\n    /* \"#utility.yul\":187:199   */\n  revert\n    /* \"#utility.yul\":334:411   */\ntag_26:\n    /* \"#utility.yul\":371:378   */\n  0x00\n    /* \"#utility.yul\":400:405   */\n  dup2\n    /* \"#utility.yul\":389:405   */\n  swap1\n  pop\n    /* \"#utility.yul\":334:411   */\n  swap2\n  swap1\n  pop\n  jump\t// out\n    /* \"#utility.yul\":417:539   */\ntag_27:\n    /* \"#utility.yul\":490:514   */\n  tag_35\n    /* \"#utility.yul\":508:513   */\n  dup2\n    /* \"#utility.yul\":490:514   */\n  tag_26\n  jump\t// in\ntag_35:\n    /* \"#utility.yul\":483:488   */\n  dup2\n    /* \"#utility.yul\":480:515   */\n  eq\n    /* \"#utility.yul\":470:533   */\n  tag_36\n  jumpi\n    /* \"#utility.yul\":529:530   */\n  0x00\n    /* \"#utility.yul\":526:527   */\n  dup1\n    /* \"#utility.yul\":519:531   */\n  revert\n    /* \"#utility.yul\":470:533   */\ntag_36:\n    /* \"#utility.yul\":417:539   */\n  pop\n  jump\t// out\n    /* \"#utility.yul\":545:688   */\ntag_28:\n    /* \"#utility.yul\":602:607   */\n  0x00\n    /* \"#utility.yul\":633:639   */\n  dup2\n    /* \"#utility.yul\":627:640   */\n  mload\n    /* \"#utility.yul\":618:640   */\n  swap1\n  pop\n    /* \"#utility.yul\":649:682   */\n  tag_38\n    /* \"#utility.yul\":676:681   */\n  dup2\n    /* \"#utility.yul\":649:682   */\n  tag_27\n  jump\t// in\ntag_38:\n    /* \"#utility.yul\":545:688   */\n  swap3\n  swap2\n  pop\n  pop\n  jump\t// out\n    /* \"#utility.yul\":694:1045   */\ntag_3:\n    /* \"#utility.yul\":764:770   */\n  0x00\n    /* \"#utility.yul\":813:815   */\n  0x20\n    /* \"#utility.yul\":801:810   */\n  dup3\n    /* \"#utility.yul\":792:799   */\n  dup5\n    /* \"#utility.yul\":788:811   */\n  sub\n    /* \"#utility.yul\":784:816   */\n  slt\n    /* \"#utility.yul\":781:900   */\n  iszero\n  tag_40\n  jumpi\n    /* \"#utility.yul\":819:898   */\n  tag_41\n  tag_24\n  jump\t// in\ntag_41:\n    /* \"#utility.yul\":781:900   */\ntag_40:\n    /* \"#utility.yul\":939:940   */\n  0x00\n    /* \"#utility.yul\":964:1028   */\n  tag_42\n    /* \"#utility.yul\":1020:1027   */\n  dup5\n    /* \"#utility.yul\":1011:1017   */\n  dup3\n    /* \"#utility.yul\":1000:1009   */\n  dup6\n    /* \"#utility.yul\":996:1018   */\n  add\n    /* \"#utility.yul\":964:1028   */\n  tag_28\n  jump\t// in\ntag_42:\n    /* \"#utility.yul\":954:1028   */\n  swap2\n  pop\n    /* \"#utility.yul\":910:1038   */\n  pop\n    /* \"#utility.yul\":694:1045   */\n  swap3\n  swap2\n  pop\n  pop\n  jump\t// out\n    /* \"contracts/Bond3.sol\":323:4763  contract Bond3 is Pausable, AccessControl, ISmartDerivativeContract, LendingContractLogic  {... */\ntag_13:\n  dataSize(sub_0)\n  dup1\n  dataOffset(sub_0)\n  0x00\n  codecopy\n  0x00\n  return\nstop\n\nsub_0: assembly {\n        /* \"contracts/Bond3.sol\":323:4763  contract Bond3 is Pausable, AccessControl, ISmartDerivativeContract, LendingContractLogic  {... */\n      mstore(0x40, 0x80)\n      jumpi(tag_1, lt(calldatasize, 0x04))\n      shr(0xe0, calldataload(0x00))\n      dup1\n      0x8da5cb5b\n      gt\n      tag_32\n      jumpi\n      dup1\n      0xd547741f\n      gt\n      tag_33\n      jumpi\n      dup1\n      0xec11c4e9\n      gt\n      tag_34\n      jumpi\n      dup1\n      0xec11c4e9\n      eq\n      tag_28\n      jumpi\n      dup1\n      0xecc38817\n      eq\n      tag_29\n      jumpi\n      dup1\n      0xf8026509\n      eq\n      tag_30\n      jumpi\n      dup1\n      0xff52c484\n      eq\n      tag_31\n      jumpi\n      jump(tag_1)\n    tag_34:\n      dup1\n      0xd547741f\n      eq\n      tag_24\n      jumpi\n      dup1\n      0xdf2d0728\n      eq\n      tag_25\n      jumpi\n      dup1\n      0xe63ab1e9\n      eq\n      tag_26\n      jumpi\n      dup1\n      0xeb0c4955\n      eq\n      tag_27\n      jumpi\n      jump(tag_1)\n    tag_33:\n      dup1\n      0xa217fddf\n      gt\n      tag_35\n      jumpi\n      dup1\n      0xa217fddf\n      eq\n      tag_20\n      jumpi\n      dup1\n      0xba5d3078\n      eq\n      tag_21\n      jumpi\n      dup1\n      0xc69f6d1e\n      eq\n      tag_22\n      jumpi\n      dup1\n      0xc78b432e\n      eq\n      tag_23\n      jumpi\n      jump(tag_1)\n    tag_35:\n      dup1\n      0x8da5cb5b\n      eq\n      tag_17\n      jumpi\n      dup1\n      0x8f168c93\n      eq\n      tag_18\n      jumpi\n      dup1\n      0x91d14854\n      eq\n      tag_19\n      jumpi\n      jump(tag_1)\n    tag_32:\n      dup1\n      0x47a04100\n      gt\n      tag_36\n      jumpi\n      dup1\n      0x729d581c\n      gt\n      tag_37\n      jumpi\n      dup1\n      0x729d581c\n      eq\n      tag_13\n      jumpi\n      dup1\n      0x79648ed3\n      eq\n      tag_14\n      jumpi\n      dup1\n      0x8456cb59\n      eq\n      tag_15\n      jumpi\n      dup1\n      0x858f0e93\n      eq\n      tag_16\n      jumpi\n      jump(tag_1)\n    tag_37:\n      dup1\n      0x47a04100\n      eq\n      tag_9\n      jumpi\n      dup1\n      0x5c975abb\n      eq\n      tag_10\n      jumpi\n      dup1\n      0x6861c20c\n      eq\n      tag_11\n      jumpi\n      dup1\n      0x6ba63956\n      eq\n      tag_12\n      jumpi\n      jump(tag_1)\n    tag_36:\n      dup1\n      0x248a9ca3\n      gt\n      tag_38\n      jumpi\n      dup1\n      0x248a9ca3\n      eq\n      tag_5\n      jumpi\n      dup1\n      0x2f2ff15d\n      eq\n      tag_6\n      jumpi\n      dup1\n      0x36568abe\n      eq\n      tag_7\n      jumpi\n      dup1\n      0x3f4ba83a\n      eq\n      tag_8\n      jumpi\n      jump(tag_1)\n    tag_38:\n      dup1\n      0x63750c\n      eq\n      tag_2\n      jumpi\n      dup1\n      0x01ffc9a7\n      eq\n      tag_3\n      jumpi\n      dup1\n      0x1a9703da\n      eq\n      tag_4\n      jumpi\n    tag_1:\n      0x00\n      dup1\n      revert\n        /* \"contracts/LendingContractLogic.sol\":1565:1886  function withdrawInterest() external virtual onlyOwner {... */\n    tag_2:\n      callvalue\n      dup1\n      iszero\n      tag_39\n      jumpi\n      0x00\n      dup1\n      revert\n    tag_39:\n      pop\n      tag_40\n      tag_41\n      jump\t// in\n    tag_40:\n      stop\n        /* \"@openzeppelin/contracts/access/AccessControl.sol\":2565:2767  function supportsInterface(bytes4 interfaceId) public view virtual override returns (bool) {... */\n    tag_3:\n      callvalue\n      dup1\n      iszero\n      tag_42\n      jumpi\n      0x00\n      dup1\n      revert\n    tag_42:\n      pop\n      tag_43\n      0x04\n      dup1\n      calldatasize\n      sub\n      dup2\n      add\n      swap1\n      tag_44\n      swap2\n      swap1\n      tag_45\n      jump\t// in\n    tag_44:\n      tag_46\n      jump\t// in\n    tag_43:\n      mload(0x40)\n      tag_47\n      swap2\n      swap1\n      tag_48\n      jump\t// in\n    tag_47:\n      mload(0x40)\n      dup1\n      swap2\n      sub\n      swap1\n      return\n        /* \"contracts/LendingContractLogic.sol\":164:197  uint256 public annualInterestRate */\n    tag_4:\n      callvalue\n      dup1\n      iszero\n      tag_49\n      jumpi\n      0x00\n      dup1\n      revert\n    tag_49:\n      pop\n      tag_50\n      tag_51\n      jump\t// in\n    tag_50:\n      mload(0x40)\n      tag_52\n      swap2\n      swap1\n      tag_53\n      jump\t// in\n    tag_52:\n      mload(0x40)\n      dup1\n      swap2\n      sub\n      swap1\n      return\n        /* \"@openzeppelin/contracts/access/AccessControl.sol\":3810:3930  function getRoleAdmin(bytes32 role) public view virtual returns (bytes32) {... */\n    tag_5:\n      callvalue\n      dup1\n      iszero\n      tag_54\n      jumpi\n      0x00\n      dup1\n      revert\n    tag_54:\n      pop\n      tag_55\n      0x04\n      dup1\n      calldatasize\n      sub\n      dup2\n      add\n      swap1\n      tag_56\n      swap2\n      swap1\n      tag_57\n      jump\t// in\n    tag_56:\n      tag_58\n      jump\t// in\n    tag_55:\n      mload(0x40)\n      tag_59\n      swap2\n      swap1\n      tag_60\n      jump\t// in\n    tag_59:\n      mload(0x40)\n      dup1\n      swap2\n      sub\n      swap1\n      return\n        /* \"@openzeppelin/contracts/access/AccessControl.sol\":4226:4362  function grantRole(bytes32 role, address account) public virtual onlyRole(getRoleAdmin(role)) {... */\n    tag_6:\n      callvalue\n      dup1\n      iszero\n      tag_61\n      jumpi\n      0x00\n      dup1\n      revert\n    tag_61:\n      pop\n      tag_62\n      0x04\n      dup1\n      calldatasize\n      sub\n      dup2\n      add\n      swap1\n      tag_63\n      swap2\n      swap1\n      tag_64\n      jump\t// in\n    tag_63:\n      tag_65\n      jump\t// in\n    tag_62:\n      stop\n        /* \"@openzeppelin/contracts/access/AccessControl.sol\":5328:5573  function renounceRole(bytes32 role, address callerConfirmation) public virtual {... */\n    tag_7:\n      callvalue\n      dup1\n      iszero\n      tag_66\n      jumpi\n      0x00\n      dup1\n      revert\n    tag_66:\n      pop\n      tag_67\n      0x04\n      dup1\n      calldatasize\n      sub\n      dup2\n      add\n      swap1\n      tag_68\n      swap2\n      swap1\n      tag_64\n      jump\t// in\n    tag_68:\n      tag_69\n      jump\t// in\n    tag_67:\n      stop\n        /* \"contracts/Bond3.sol\":1170:1247  function unpause() public onlyRole(PAUSER_ROLE) {... */\n    tag_8:\n      callvalue\n      dup1\n      iszero\n      tag_70\n      jumpi\n      0x00\n      dup1\n      revert\n    tag_70:\n      pop\n      tag_71\n      tag_72\n      jump\t// in\n    tag_71:\n      stop\n        /* \"contracts/Bond3.sol\":675:713  mapping(string => Trade) public trades */\n    tag_9:\n      callvalue\n      dup1\n      iszero\n      tag_73\n      jumpi\n      0x00\n      dup1\n      revert\n    tag_73:\n      pop\n      tag_74\n      0x04\n      dup1\n      calldatasize\n      sub\n      dup2\n      add\n      swap1\n      tag_75\n      swap2\n      swap1\n      tag_76\n      jump\t// in\n    tag_75:\n      tag_77\n      jump\t// in\n    tag_74:\n      mload(0x40)\n      tag_78\n      swap9\n      swap8\n      swap7\n      swap6\n      swap5\n      swap4\n      swap3\n      swap2\n      swap1\n      tag_79\n      jump\t// in\n    tag_78:\n      mload(0x40)\n      dup1\n      swap2\n      sub\n      swap1\n      return\n        /* \"@openzeppelin/contracts/utils/Pausable.sol\":1850:1934  function paused() public view virtual returns (bool) {... */\n    tag_10:\n      callvalue\n      dup1\n      iszero\n      tag_80\n      jumpi\n      0x00\n      dup1\n      revert\n    tag_80:\n      pop\n      tag_81\n      tag_82\n      jump\t// in\n    tag_81:\n      mload(0x40)\n      tag_83\n      swap2\n      swap1\n      tag_48\n      jump\t// in\n    tag_83:\n      mload(0x40)\n      dup1\n      swap2\n      sub\n      swap1\n      return\n        /* \"contracts/Bond3.sol\":4655:4760  function testSendFunds(uint256 _amount) external {... */\n    tag_11:\n      callvalue\n      dup1\n      iszero\n      tag_84\n      jumpi\n      0x00\n      dup1\n      revert\n    tag_84:\n      pop\n      tag_85\n      0x04\n      dup1\n      calldatasize\n      sub\n      dup2\n      add\n      swap1\n      tag_86\n      swap2\n      swap1\n      tag_87\n      jump\t// in\n    tag_86:\n      tag_88\n      jump\t// in\n    tag_85:\n      stop\n        /* \"contracts/Bond3.sol\":3096:3722  function performSettlement(... */\n    tag_12:\n      callvalue\n      dup1\n      iszero\n      tag_89\n      jumpi\n      0x00\n      dup1\n      revert\n    tag_89:\n      pop\n      tag_90\n      0x04\n      dup1\n      calldatasize\n      sub\n      dup2\n      add\n      swap1\n      tag_91\n      swap2\n      swap1\n      tag_92\n      jump\t// in\n    tag_91:\n      tag_93\n      jump\t// in\n    tag_90:\n      stop\n        /* \"contracts/Bond3.sol\":3915:4272  function requestTradeTermination(... */\n    tag_13:\n      callvalue\n      dup1\n      iszero\n      tag_94\n      jumpi\n      0x00\n      dup1\n      revert\n    tag_94:\n      pop\n      tag_95\n      0x04\n      dup1\n      calldatasize\n      sub\n      dup2\n      add\n      swap1\n      tag_96\n      swap2\n      swap1\n      tag_97\n      jump\t// in\n    tag_96:\n      tag_98\n      jump\t// in\n    tag_95:\n      stop\n        /* \"contracts/Bond3.sol\":4284:4647  function confirmTradeTermination(... */\n    tag_14:\n      callvalue\n      dup1\n      iszero\n      tag_99\n      jumpi\n      0x00\n      dup1\n      revert\n    tag_99:\n      pop\n      tag_100\n      0x04\n      dup1\n      calldatasize\n      sub\n      dup2\n      add\n      swap1\n      tag_101\n      swap2\n      swap1\n      tag_97\n      jump\t// in\n    tag_101:\n      tag_102\n      jump\t// in\n    tag_100:\n      stop\n        /* \"contracts/Bond3.sol\":1089:1162  function pause() public onlyRole(PAUSER_ROLE) {... */\n    tag_15:\n      callvalue\n      dup1\n      iszero\n      tag_103\n      jumpi\n      0x00\n      dup1\n      revert\n    tag_103:\n      pop\n      tag_104\n      tag_105\n      jump\t// in\n    tag_104:\n      stop\n        /* \"contracts/Bond3.sol\":2133:2638  function confirmTrade(... */\n    tag_16:\n      callvalue\n      dup1\n      iszero\n      tag_106\n      jumpi\n      0x00\n      dup1\n      revert\n    tag_106:\n      pop\n      tag_107\n      0x04\n      dup1\n      calldatasize\n      sub\n      dup2\n      add\n      swap1\n      tag_108\n      swap2\n      swap1\n      tag_109\n      jump\t// in\n    tag_108:\n      tag_110\n      jump\t// in\n    tag_107:\n      stop\n        /* \"contracts/LendingContractLogic.sol\":106:126  address public owner */\n    tag_17:\n      callvalue\n      dup1\n      iszero\n      tag_111\n      jumpi\n      0x00\n      dup1\n      revert\n    tag_111:\n      pop\n      tag_112\n      tag_113\n      jump\t// in\n    tag_112:\n      mload(0x40)\n      tag_114\n      swap2\n      swap1\n      tag_115\n      jump\t// in\n    tag_114:\n      mload(0x40)\n      dup1\n      swap2\n      sub\n      swap1\n      return\n        /* \"contracts/LendingContractLogic.sol\":308:340  uint256 public totalInterestOwed */\n    tag_18:\n      callvalue\n      dup1\n      iszero\n      tag_116\n      jumpi\n      0x00\n      dup1\n      revert\n    tag_116:\n      pop\n      tag_117\n      tag_118\n      jump\t// in\n    tag_117:\n      mload(0x40)\n      tag_119\n      swap2\n      swap1\n      tag_53\n      jump\t// in\n    tag_119:\n      mload(0x40)\n      dup1\n      swap2\n      sub\n      swap1\n      return\n        /* \"@openzeppelin/contracts/access/AccessControl.sol\":2854:2990  function hasRole(bytes32 role, address account) public view virtual returns (bool) {... */\n    tag_19:\n      callvalue\n      dup1\n      iszero\n      tag_120\n      jumpi\n      0x00\n      dup1\n      revert\n    tag_120:\n      pop\n      tag_121\n      0x04\n      dup1\n      calldatasize\n      sub\n      dup2\n      add\n      swap1\n      tag_122\n      swap2\n      swap1\n      tag_64\n      jump\t// in\n    tag_122:\n      tag_123\n      jump\t// in\n    tag_121:\n      mload(0x40)\n      tag_124\n      swap2\n      swap1\n      tag_48\n      jump\t// in\n    tag_124:\n      mload(0x40)\n      dup1\n      swap2\n      sub\n      swap1\n      return\n        /* \"@openzeppelin/contracts/access/AccessControl.sol\":2187:2236  bytes32 public constant DEFAULT_ADMIN_ROLE = 0x00 */\n    tag_20:\n      callvalue\n      dup1\n      iszero\n      tag_125\n      jumpi\n      0x00\n      dup1\n      revert\n    tag_125:\n      pop\n      tag_126\n      tag_127\n      jump\t// in\n    tag_126:\n      mload(0x40)\n      tag_128\n      swap2\n      swap1\n      tag_60\n      jump\t// in\n    tag_128:\n      mload(0x40)\n      dup1\n      swap2\n      sub\n      swap1\n      return\n        /* \"contracts/LendingContractLogic.sol\":133:157  uint256 public principal */\n    tag_21:\n      callvalue\n      dup1\n      iszero\n      tag_129\n      jumpi\n      0x00\n      dup1\n      revert\n    tag_129:\n      pop\n      tag_130\n      tag_131\n      jump\t// in\n    tag_130:\n      mload(0x40)\n      tag_132\n      swap2\n      swap1\n      tag_53\n      jump\t// in\n    tag_132:\n      mload(0x40)\n      dup1\n      swap2\n      sub\n      swap1\n      return\n        /* \"contracts/LendingContractLogic.sol\":1442:1557  function getTotalInterestOwed() external view virtual returns (uint256) {... */\n    tag_22:\n      callvalue\n      dup1\n      iszero\n      tag_133\n      jumpi\n      0x00\n      dup1\n      revert\n    tag_133:\n      pop\n      tag_134\n      tag_135\n      jump\t// in\n    tag_134:\n      mload(0x40)\n      tag_136\n      swap2\n      swap1\n      tag_53\n      jump\t// in\n    tag_136:\n      mload(0x40)\n      dup1\n      swap2\n      sub\n      swap1\n      return\n        /* \"contracts/Bond3.sol\":2650:3084  function initiateSettlement() external override {... */\n    tag_23:\n      callvalue\n      dup1\n      iszero\n      tag_137\n      jumpi\n      0x00\n      dup1\n      revert\n    tag_137:\n      pop\n      tag_138\n      tag_139\n      jump\t// in\n    tag_138:\n      stop\n        /* \"@openzeppelin/contracts/access/AccessControl.sol\":4642:4780  function revokeRole(bytes32 role, address account) public virtual onlyRole(getRoleAdmin(role)) {... */\n    tag_24:\n      callvalue\n      dup1\n      iszero\n      tag_140\n      jumpi\n      0x00\n      dup1\n      revert\n    tag_140:\n      pop\n      tag_141\n      0x04\n      dup1\n      calldatasize\n      sub\n      dup2\n      add\n      swap1\n      tag_142\n      swap2\n      swap1\n      tag_64\n      jump\t// in\n    tag_142:\n      tag_143\n      jump\t// in\n    tag_141:\n      stop\n        /* \"contracts/Bond3.sol\":3734:3903  function afterTransfer(... */\n    tag_25:\n      callvalue\n      dup1\n      iszero\n      tag_144\n      jumpi\n      0x00\n      dup1\n      revert\n    tag_144:\n      pop\n      tag_145\n      0x04\n      dup1\n      calldatasize\n      sub\n      dup2\n      add\n      swap1\n      tag_146\n      swap2\n      swap1\n      tag_147\n      jump\t// in\n    tag_146:\n      tag_148\n      jump\t// in\n    tag_145:\n      stop\n        /* \"contracts/Bond3.sol\":751:813  bytes32 public constant PAUSER_ROLE = keccak256(\"PAUSER_ROLE\") */\n    tag_26:\n      callvalue\n      dup1\n      iszero\n      tag_149\n      jumpi\n      0x00\n      dup1\n      revert\n    tag_149:\n      pop\n      tag_150\n      tag_151\n      jump\t// in\n    tag_150:\n      mload(0x40)\n      tag_152\n      swap2\n      swap1\n      tag_60\n      jump\t// in\n    tag_152:\n      mload(0x40)\n      dup1\n      swap2\n      sub\n      swap1\n      return\n        /* \"contracts/LendingContractLogic.sol\":1057:1434  function calculateInterest() public virtual {... */\n    tag_27:\n      callvalue\n      dup1\n      iszero\n      tag_153\n      jumpi\n      0x00\n      dup1\n      revert\n    tag_153:\n      pop\n      tag_154\n      tag_155\n      jump\t// in\n    tag_154:\n      stop\n        /* \"contracts/Bond3.sol\":1255:2121  function inceptTrade(... */\n    tag_28:\n      callvalue\n      dup1\n      iszero\n      tag_156\n      jumpi\n      0x00\n      dup1\n      revert\n    tag_156:\n      pop\n      tag_157\n      0x04\n      dup1\n      calldatasize\n      sub\n      dup2\n      add\n      swap1\n      tag_158\n      swap2\n      swap1\n      tag_109\n      jump\t// in\n    tag_158:\n      tag_159\n      jump\t// in\n    tag_157:\n      stop\n        /* \"contracts/LendingContractLogic.sol\":833:1049  function depositPrincipal() external payable virtual onlyOwner {... */\n    tag_29:\n      tag_160\n      tag_161\n      jump\t// in\n    tag_160:\n      stop\n        /* \"contracts/LendingContractLogic.sol\":259:301  uint256 public lastInterestCalculationTime */\n    tag_30:\n      callvalue\n      dup1\n      iszero\n      tag_162\n      jumpi\n      0x00\n      dup1\n      revert\n    tag_162:\n      pop\n      tag_163\n      tag_164\n      jump\t// in\n    tag_163:\n      mload(0x40)\n      tag_165\n      swap2\n      swap1\n      tag_53\n      jump\t// in\n    tag_165:\n      mload(0x40)\n      dup1\n      swap2\n      sub\n      swap1\n      return\n        /* \"contracts/Bond3.sol\":720:744  string[] public tradeIds */\n    tag_31:\n      callvalue\n      dup1\n      iszero\n      tag_166\n      jumpi\n      0x00\n      dup1\n      revert\n    tag_166:\n      pop\n      tag_167\n      0x04\n      dup1\n      calldatasize\n      sub\n      dup2\n      add\n      swap1\n      tag_168\n      swap2\n      swap1\n      tag_87\n      jump\t// in\n    tag_168:\n      tag_169\n      jump\t// in\n    tag_167:\n      mload(0x40)\n      tag_170\n      swap2\n      swap1\n      tag_171\n      jump\t// in\n    tag_170:\n      mload(0x40)\n      dup1\n      swap2\n      sub\n      swap1\n      return\n        /* \"contracts/LendingContractLogic.sol\":1565:1886  function withdrawInterest() external virtual onlyOwner {... */\n    tag_41:\n        /* \"contracts/LendingContractLogic.sol\":773:778  owner */\n      0x02\n      0x00\n      swap1\n      sload\n      swap1\n      0x0100\n      exp\n      swap1\n      div\n      0xffffffffffffffffffffffffffffffffffffffff\n      and\n        /* \"contracts/LendingContractLogic.sol\":759:778  msg.sender == owner */\n      0xffffffffffffffffffffffffffffffffffffffff\n      and\n        /* \"contracts/LendingContractLogic.sol\":759:769  msg.sender */\n      caller\n        /* \"contracts/LendingContractLogic.sol\":759:778  msg.sender == owner */\n      0xffffffffffffffffffffffffffffffffffffffff\n      and\n      eq\n        /* \"contracts/LendingContractLogic.sol\":751:805  require(msg.sender == owner, \"Not the contract owner\") */\n      tag_173\n      jumpi\n      mload(0x40)\n      0x08c379a000000000000000000000000000000000000000000000000000000000\n      dup2\n      mstore\n      0x04\n      add\n      tag_174\n      swap1\n      tag_175\n      jump\t// in\n    tag_174:\n      mload(0x40)\n      dup1\n      swap2\n      sub\n      swap1\n      revert\n    tag_173:\n        /* \"contracts/LendingContractLogic.sol\":1659:1660  0 */\n      0x00\n        /* \"contracts/LendingContractLogic.sol\":1639:1656  totalInterestOwed */\n      sload(0x06)\n        /* \"contracts/LendingContractLogic.sol\":1639:1660  totalInterestOwed > 0 */\n      gt\n        /* \"contracts/LendingContractLogic.sol\":1631:1681  require(totalInterestOwed > 0, \"No interest owed\") */\n      tag_177\n      jumpi\n      mload(0x40)\n      0x08c379a000000000000000000000000000000000000000000000000000000000\n      dup2\n      mstore\n      0x04\n      add\n      tag_178\n      swap1\n      tag_179\n      jump\t// in\n    tag_178:\n      mload(0x40)\n      dup1\n      swap2\n      sub\n      swap1\n      revert\n    tag_177:\n        /* \"contracts/LendingContractLogic.sol\":1702:1707  owner */\n      0x02\n      0x00\n      swap1\n      sload\n      swap1\n      0x0100\n      exp\n      swap1\n      div\n      0xffffffffffffffffffffffffffffffffffffffff\n      and\n        /* \"contracts/LendingContractLogic.sol\":1694:1717  payable(owner).transfer */\n      0xffffffffffffffffffffffffffffffffffffffff\n      and\n        /* \"contracts/LendingContractLogic.sol\":1694:1736  payable(owner).transfer(totalInterestOwed) */\n      0x08fc\n        /* \"contracts/LendingContractLogic.sol\":1718:1735  totalInterestOwed */\n      sload(0x06)\n        /* \"contracts/LendingContractLogic.sol\":1694:1736  payable(owner).transfer(totalInterestOwed) */\n      swap1\n      dup2\n      iszero\n      mul\n      swap1\n      mload(0x40)\n      0x00\n      mload(0x40)\n      dup1\n      dup4\n      sub\n      dup2\n      dup6\n      dup9\n      dup9\n      call\n      swap4\n      pop\n      pop\n      pop\n      pop\n      iszero\n      dup1\n      iszero\n      tag_181\n      jumpi\n      returndatasize\n      0x00\n      dup1\n      returndatacopy\n      revert(0x00, returndatasize)\n    tag_181:\n      pop\n        /* \"contracts/LendingContractLogic.sol\":1752:1788  InterestWithdrawn(totalInterestOwed) */\n      0x83fc34af3b2b3e6805f62fba84c676774c35112f39650dd86eae042d71c1e594\n        /* \"contracts/LendingContractLogic.sol\":1770:1787  totalInterestOwed */\n      sload(0x06)\n        /* \"contracts/LendingContractLogic.sol\":1752:1788  InterestWithdrawn(totalInterestOwed) */\n      mload(0x40)\n      tag_182\n      swap2\n      swap1\n      tag_53\n      jump\t// in\n    tag_182:\n      mload(0x40)\n      dup1\n      swap2\n      sub\n      swap1\n      log1\n        /* \"contracts/LendingContractLogic.sol\":1821:1822  0 */\n      0x00\n        /* \"contracts/LendingContractLogic.sol\":1801:1818  totalInterestOwed */\n      0x06\n        /* \"contracts/LendingContractLogic.sol\":1801:1822  totalInterestOwed = 0 */\n      dup2\n      swap1\n      sstore\n      pop\n        /* \"contracts/LendingContractLogic.sol\":1863:1878  block.timestamp */\n      timestamp\n        /* \"contracts/LendingContractLogic.sol\":1833:1860  lastInterestCalculationTime */\n      0x05\n        /* \"contracts/LendingContractLogic.sol\":1833:1878  lastInterestCalculationTime = block.timestamp */\n      dup2\n      swap1\n      sstore\n      pop\n        /* \"contracts/LendingContractLogic.sol\":1565:1886  function withdrawInterest() external virtual onlyOwner {... */\n      jump\t// out\n        /* \"@openzeppelin/contracts/access/AccessControl.sol\":2565:2767  function supportsInterface(bytes4 interfaceId) public view virtual override returns (bool) {... */\n    tag_46:\n        /* \"@openzeppelin/contracts/access/AccessControl.sol\":2650:2654  bool */\n      0x00\n        /* \"@openzeppelin/contracts/access/AccessControl.sol\":2688:2720  type(IAccessControl).interfaceId */\n      0x7965db0b00000000000000000000000000000000000000000000000000000000\n        /* \"@openzeppelin/contracts/access/AccessControl.sol\":2673:2720  interfaceId == type(IAccessControl).interfaceId */\n      not(0xffffffffffffffffffffffffffffffffffffffffffffffffffffffff)\n      and\n        /* \"@openzeppelin/contracts/access/AccessControl.sol\":2673:2684  interfaceId */\n      dup3\n        /* \"@openzeppelin/contracts/access/AccessControl.sol\":2673:2720  interfaceId == type(IAccessControl).interfaceId */\n      not(0xffffffffffffffffffffffffffffffffffffffffffffffffffffffff)\n      and\n      eq\n        /* \"@openzeppelin/contracts/access/AccessControl.sol\":2673:2760  interfaceId == type(IAccessControl).interfaceId || super.supportsInterface(interfaceId) */\n      dup1\n      tag_184\n      jumpi\n      pop\n        /* \"@openzeppelin/contracts/access/AccessControl.sol\":2724:2760  super.supportsInterface(interfaceId) */\n      tag_185\n        /* \"@openzeppelin/contracts/access/AccessControl.sol\":2748:2759  interfaceId */\n      dup3\n        /* \"@openzeppelin/contracts/access/AccessControl.sol\":2724:2747  super.supportsInterface */\n      tag_186\n        /* \"@openzeppelin/contracts/access/AccessControl.sol\":2724:2760  super.supportsInterface(interfaceId) */\n      jump\t// in\n    tag_185:\n        /* \"@openzeppelin/contracts/access/AccessControl.sol\":2673:2760  interfaceId == type(IAccessControl).interfaceId || super.supportsInterface(interfaceId) */\n    tag_184:\n        /* \"@openzeppelin/contracts/access/AccessControl.sol\":2666:2760  return interfaceId == type(IAccessControl).interfaceId || super.supportsInterface(interfaceId) */\n      swap1\n      pop\n        /* \"@openzeppelin/contracts/access/AccessControl.sol\":2565:2767  function supportsInterface(bytes4 interfaceId) public view virtual override returns (bool) {... */\n      swap2\n      swap1\n      pop\n      jump\t// out\n        /* \"contracts/LendingContractLogic.sol\":164:197  uint256 public annualInterestRate */\n    tag_51:\n      sload(0x04)\n      dup2\n      jump\t// out\n        /* \"@openzeppelin/contracts/access/AccessControl.sol\":3810:3930  function getRoleAdmin(bytes32 role) public view virtual returns (bytes32) {... */\n    tag_58:\n        /* \"@openzeppelin/contracts/access/AccessControl.sol\":3875:3882  bytes32 */\n      0x00\n        /* \"@openzeppelin/contracts/access/AccessControl.sol\":3901:3907  _roles */\n      0x01\n        /* \"@openzeppelin/contracts/access/AccessControl.sol\":3901:3913  _roles[role] */\n      0x00\n        /* \"@openzeppelin/contracts/access/AccessControl.sol\":3908:3912  role */\n      dup4\n        /* \"@openzeppelin/contracts/access/AccessControl.sol\":3901:3913  _roles[role] */\n      dup2\n      mstore\n      0x20\n      add\n      swap1\n      dup2\n      mstore\n      0x20\n      add\n      0x00\n      keccak256\n        /* \"@openzeppelin/contracts/access/AccessControl.sol\":3901:3923  _roles[role].adminRole */\n      0x01\n      add\n      sload\n        /* \"@openzeppelin/contracts/access/AccessControl.sol\":3894:3923  return _roles[role].adminRole */\n      swap1\n      pop\n        /* \"@openzeppelin/contracts/access/AccessControl.sol\":3810:3930  function getRoleAdmin(bytes32 role) public view virtual returns (bytes32) {... */\n      swap2\n      swap1\n      pop\n      jump\t// out\n        /* \"@openzeppelin/contracts/access/AccessControl.sol\":4226:4362  function grantRole(bytes32 role, address account) public virtual onlyRole(getRoleAdmin(role)) {... */\n    tag_65:\n        /* \"@openzeppelin/contracts/access/AccessControl.sol\":4300:4318  getRoleAdmin(role) */\n      tag_188\n        /* \"@openzeppelin/contracts/access/AccessControl.sol\":4313:4317  role */\n      dup3\n        /* \"@openzeppelin/contracts/access/AccessControl.sol\":4300:4312  getRoleAdmin */\n      tag_58\n        /* \"@openzeppelin/contracts/access/AccessControl.sol\":4300:4318  getRoleAdmin(role) */\n      jump\t// in\n    tag_188:\n        /* \"@openzeppelin/contracts/access/AccessControl.sol\":2464:2480  _checkRole(role) */\n      tag_190\n        /* \"@openzeppelin/contracts/access/AccessControl.sol\":2475:2479  role */\n      dup2\n        /* \"@openzeppelin/contracts/access/AccessControl.sol\":2464:2474  _checkRole */\n      tag_191\n        /* \"@openzeppelin/contracts/access/AccessControl.sol\":2464:2480  _checkRole(role) */\n      jump\t// in\n    tag_190:\n        /* \"@openzeppelin/contracts/access/AccessControl.sol\":4330:4355  _grantRole(role, account) */\n      tag_193\n        /* \"@openzeppelin/contracts/access/AccessControl.sol\":4341:4345  role */\n      dup4\n        /* \"@openzeppelin/contracts/access/AccessControl.sol\":4347:4354  account */\n      dup4\n        /* \"@openzeppelin/contracts/access/AccessControl.sol\":4330:4340  _grantRole */\n      tag_194\n        /* \"@openzeppelin/contracts/access/AccessControl.sol\":4330:4355  _grantRole(role, account) */\n      jump\t// in\n    tag_193:\n      pop\n        /* \"@openzeppelin/contracts/access/AccessControl.sol\":4226:4362  function grantRole(bytes32 role, address account) public virtual onlyRole(getRoleAdmin(role)) {... */\n      pop\n      pop\n      pop\n      jump\t// out\n        /* \"@openzeppelin/contracts/access/AccessControl.sol\":5328:5573  function renounceRole(bytes32 role, address callerConfirmation) public virtual {... */\n    tag_69:\n        /* \"@openzeppelin/contracts/access/AccessControl.sol\":5443:5455  _msgSender() */\n      tag_196\n        /* \"@openzeppelin/contracts/access/AccessControl.sol\":5443:5453  _msgSender */\n      tag_197\n        /* \"@openzeppelin/contracts/access/AccessControl.sol\":5443:5455  _msgSender() */\n      jump\t// in\n    tag_196:\n        /* \"@openzeppelin/contracts/access/AccessControl.sol\":5421:5455  callerConfirmation != _msgSender() */\n      0xffffffffffffffffffffffffffffffffffffffff\n      and\n        /* \"@openzeppelin/contracts/access/AccessControl.sol\":5421:5439  callerConfirmation */\n      dup2\n        /* \"@openzeppelin/contracts/access/AccessControl.sol\":5421:5455  callerConfirmation != _msgSender() */\n      0xffffffffffffffffffffffffffffffffffffffff\n      and\n      eq\n        /* \"@openzeppelin/contracts/access/AccessControl.sol\":5417:5519  if (callerConfirmation != _msgSender()) {... */\n      tag_198\n      jumpi\n        /* \"@openzeppelin/contracts/access/AccessControl.sol\":5478:5508  AccessControlBadConfirmation() */\n      mload(0x40)\n      0x6697b23200000000000000000000000000000000000000000000000000000000\n      dup2\n      mstore\n      0x04\n      add\n      mload(0x40)\n      dup1\n      swap2\n      sub\n      swap1\n      revert\n        /* \"@openzeppelin/contracts/access/AccessControl.sol\":5417:5519  if (callerConfirmation != _msgSender()) {... */\n    tag_198:\n        /* \"@openzeppelin/contracts/access/AccessControl.sol\":5529:5566  _revokeRole(role, callerConfirmation) */\n      tag_199\n        /* \"@openzeppelin/contracts/access/AccessControl.sol\":5541:5545  role */\n      dup3\n        /* \"@openzeppelin/contracts/access/AccessControl.sol\":5547:5565  callerConfirmation */\n      dup3\n        /* \"@openzeppelin/contracts/access/AccessControl.sol\":5529:5540  _revokeRole */\n      tag_200\n        /* \"@openzeppelin/contracts/access/AccessControl.sol\":5529:5566  _revokeRole(role, callerConfirmation) */\n      jump\t// in\n    tag_199:\n      pop\n        /* \"@openzeppelin/contracts/access/AccessControl.sol\":5328:5573  function renounceRole(bytes32 role, address callerConfirmation) public virtual {... */\n      pop\n      pop\n      jump\t// out\n        /* \"contracts/Bond3.sol\":1170:1247  function unpause() public onlyRole(PAUSER_ROLE) {... */\n    tag_72:\n        /* \"contracts/Bond3.sol\":789:813  keccak256(\"PAUSER_ROLE\") */\n      0x65d7a28e3265b37a6474929f336521b332c1681b933f6cb9f3376673440d862a\n        /* \"@openzeppelin/contracts/access/AccessControl.sol\":2464:2480  _checkRole(role) */\n      tag_202\n        /* \"@openzeppelin/contracts/access/AccessControl.sol\":2475:2479  role */\n      dup2\n        /* \"@openzeppelin/contracts/access/AccessControl.sol\":2464:2474  _checkRole */\n      tag_191\n        /* \"@openzeppelin/contracts/access/AccessControl.sol\":2464:2480  _checkRole(role) */\n      jump\t// in\n    tag_202:\n        /* \"contracts/Bond3.sol\":1229:1239  _unpause() */\n      tag_204\n        /* \"contracts/Bond3.sol\":1229:1237  _unpause */\n      tag_205\n        /* \"contracts/Bond3.sol\":1229:1239  _unpause() */\n      jump\t// in\n    tag_204:\n        /* \"contracts/Bond3.sol\":1170:1247  function unpause() public onlyRole(PAUSER_ROLE) {... */\n      pop\n      jump\t// out\n        /* \"contracts/Bond3.sol\":675:713  mapping(string => Trade) public trades */\n    tag_77:\n      0x07\n      dup2\n      dup1\n      mload\n      0x20\n      dup2\n      add\n      dup3\n      add\n      dup1\n      mload\n      dup5\n      dup3\n      mstore\n      0x20\n      dup4\n      add\n      0x20\n      dup6\n      add\n      keccak256\n      dup2\n      dup4\n      mstore\n      dup1\n      swap6\n      pop\n      pop\n      pop\n      pop\n      pop\n      pop\n      0x00\n      swap2\n      pop\n      swap1\n      pop\n      dup1\n      0x00\n      add\n      0x00\n      swap1\n      sload\n      swap1\n      0x0100\n      exp\n      swap1\n      div\n      0xffffffffffffffffffffffffffffffffffffffff\n      and\n      swap1\n      dup1\n      0x01\n      add\n      0x00\n      swap1\n      sload\n      swap1\n      0x0100\n      exp\n      swap1\n      div\n      0xffffffffffffffffffffffffffffffffffffffff\n      and\n      swap1\n      dup1\n      0x02\n      add\n      dup1\n      sload\n      tag_206\n      swap1\n      tag_207\n      jump\t// in\n    tag_206:\n      dup1\n      0x1f\n      add\n      0x20\n      dup1\n      swap2\n      div\n      mul\n      0x20\n      add\n      mload(0x40)\n      swap1\n      dup2\n      add\n      0x40\n      mstore\n      dup1\n      swap3\n      swap2\n      swap1\n      dup2\n      dup2\n      mstore\n      0x20\n      add\n      dup3\n      dup1\n      sload\n      tag_208\n      swap1\n      tag_207\n      jump\t// in\n    tag_208:\n      dup1\n      iszero\n      tag_209\n      jumpi\n      dup1\n      0x1f\n      lt\n      tag_210\n      jumpi\n      0x0100\n      dup1\n      dup4\n      sload\n      div\n      mul\n      dup4\n      mstore\n      swap2\n      0x20\n      add\n      swap2\n      jump(tag_209)\n    tag_210:\n      dup3\n      add\n      swap2\n      swap1\n      0x00\n      mstore\n      keccak256(0x00, 0x20)\n      swap1\n    tag_211:\n      dup2\n      sload\n      dup2\n      mstore\n      swap1\n      0x01\n      add\n      swap1\n      0x20\n      add\n      dup1\n      dup4\n      gt\n      tag_211\n      jumpi\n      dup3\n      swap1\n      sub\n      0x1f\n      and\n      dup3\n      add\n      swap2\n    tag_209:\n      pop\n      pop\n      pop\n      pop\n      pop\n      swap1\n      dup1\n      0x03\n      add\n      sload\n      swap1\n      dup1\n      0x04\n      add\n      sload\n      swap1\n      dup1\n      0x05\n      add\n      dup1\n      sload\n      tag_212\n      swap1\n      tag_207\n      jump\t// in\n    tag_212:\n      dup1\n      0x1f\n      add\n      0x20\n      dup1\n      swap2\n      div\n      mul\n      0x20\n      add\n      mload(0x40)\n      swap1\n      dup2\n      add\n      0x40\n      mstore\n      dup1\n      swap3\n      swap2\n      swap1\n      dup2\n      dup2\n      mstore\n      0x20\n      add\n      dup3\n      dup1\n      sload\n      tag_213\n      swap1\n      tag_207\n      jump\t// in\n    tag_213:\n      dup1\n      iszero\n      tag_214\n      jumpi\n      dup1\n      0x1f\n      lt\n      tag_215\n      jumpi\n      0x0100\n      dup1\n      dup4\n      sload\n      div\n      mul\n      dup4\n      mstore\n      swap2\n      0x20\n      add\n      swap2\n      jump(tag_214)\n    tag_215:\n      dup3\n      add\n      swap2\n      swap1\n      0x00\n      mstore\n      keccak256(0x00, 0x20)\n      swap1\n    tag_216:\n      dup2\n      sload\n      dup2\n      mstore\n      swap1\n      0x01\n      add\n      swap1\n      0x20\n      add\n      dup1\n      dup4\n      gt\n      tag_216\n      jumpi\n      dup3\n      swap1\n      sub\n      0x1f\n      and\n      dup3\n      add\n      swap2\n    tag_214:\n      pop\n      pop\n      pop\n      pop\n      pop\n      swap1\n      dup1\n      0x06\n      add\n      0x00\n      swap1\n      sload\n      swap1\n      0x0100\n      exp\n      swap1\n      div\n      0xff\n      and\n      swap1\n      dup1\n      0x06\n      add\n      0x01\n      swap1\n      sload\n      swap1\n      0x0100\n      exp\n      swap1\n      div\n      0xff\n      and\n      swap1\n      pop\n      dup9\n      jump\t// out\n        /* \"@openzeppelin/contracts/utils/Pausable.sol\":1850:1934  function paused() public view virtual returns (bool) {... */\n    tag_82:\n        /* \"@openzeppelin/contracts/utils/Pausable.sol\":1897:1901  bool */\n      0x00\n        /* \"@openzeppelin/contracts/utils/Pausable.sol\":1920:1927  _paused */\n      dup1\n      0x00\n      swap1\n      sload\n      swap1\n      0x0100\n      exp\n      swap1\n      div\n      0xff\n      and\n        /* \"@openzeppelin/contracts/utils/Pausable.sol\":1913:1927  return _paused */\n      swap1\n      pop\n        /* \"@openzeppelin/contracts/utils/Pausable.sol\":1850:1934  function paused() public view virtual returns (bool) {... */\n      swap1\n      jump\t// out\n        /* \"contracts/Bond3.sol\":4655:4760  function testSendFunds(uint256 _amount) external {... */\n    tag_88:\n        /* \"contracts/Bond3.sol\":4732:4742  msg.sender */\n      caller\n        /* \"contracts/Bond3.sol\":4720:4752  RequestSent(msg.sender, _amount) */\n      0xffffffffffffffffffffffffffffffffffffffff\n      and\n      0x0c27e43af6588b65dccc4465720ef720b7cf45f5fba352df8607ae1cfea9089b\n        /* \"contracts/Bond3.sol\":4744:4751  _amount */\n      dup3\n        /* \"contracts/Bond3.sol\":4720:4752  RequestSent(msg.sender, _amount) */\n      mload(0x40)\n      tag_219\n      swap2\n      swap1\n      tag_53\n      jump\t// in\n    tag_219:\n      mload(0x40)\n      dup1\n      swap2\n      sub\n      swap1\n      log2\n        /* \"contracts/Bond3.sol\":4655:4760  function testSendFunds(uint256 _amount) external {... */\n      pop\n      jump\t// out\n        /* \"contracts/Bond3.sol\":3096:3722  function performSettlement(... */\n    tag_93:\n        /* \"contracts/Bond3.sol\":3259:3260  0 */\n      0x00\n        /* \"contracts/Bond3.sol\":3241:3249  tradeIds */\n      0x08\n        /* \"contracts/Bond3.sol\":3241:3256  tradeIds.length */\n      dup1\n      sload\n      swap1\n      pop\n        /* \"contracts/Bond3.sol\":3241:3260  tradeIds.length > 0 */\n      gt\n        /* \"contracts/Bond3.sol\":3233:3284  require(tradeIds.length > 0, \"No trades available\") */\n      tag_221\n      jumpi\n      mload(0x40)\n      0x08c379a000000000000000000000000000000000000000000000000000000000\n      dup2\n      mstore\n      0x04\n      add\n      tag_222\n      swap1\n      tag_223\n      jump\t// in\n    tag_222:\n      mload(0x40)\n      dup1\n      swap2\n      sub\n      swap1\n      revert\n    tag_221:\n        /* \"contracts/Bond3.sol\":3295:3316  string memory tradeId */\n      0x00\n        /* \"contracts/Bond3.sol\":3319:3327  tradeIds */\n      0x08\n        /* \"contracts/Bond3.sol\":3346:3347  1 */\n      0x01\n        /* \"contracts/Bond3.sol\":3328:3336  tradeIds */\n      0x08\n        /* \"contracts/Bond3.sol\":3328:3343  tradeIds.length */\n      dup1\n      sload\n      swap1\n      pop\n        /* \"contracts/Bond3.sol\":3328:3347  tradeIds.length - 1 */\n      tag_224\n      swap2\n      swap1\n      tag_225\n      jump\t// in\n    tag_224:\n        /* \"contracts/Bond3.sol\":3319:3348  tradeIds[tradeIds.length - 1] */\n      dup2\n      sload\n      dup2\n      lt\n      tag_226\n      jumpi\n      tag_227\n      tag_228\n      jump\t// in\n    tag_227:\n    tag_226:\n      swap1\n      0x00\n      mstore\n      keccak256(0x00, 0x20)\n      add\n        /* \"contracts/Bond3.sol\":3295:3348  string memory tradeId = tradeIds[tradeIds.length - 1] */\n      dup1\n      sload\n      tag_230\n      swap1\n      tag_207\n      jump\t// in\n    tag_230:\n      dup1\n      0x1f\n      add\n      0x20\n      dup1\n      swap2\n      div\n      mul\n      0x20\n      add\n      mload(0x40)\n      swap1\n      dup2\n      add\n      0x40\n      mstore\n      dup1\n      swap3\n      swap2\n      swap1\n      dup2\n      dup2\n      mstore\n      0x20\n      add\n      dup3\n      dup1\n      sload\n      tag_231\n      swap1\n      tag_207\n      jump\t// in\n    tag_231:\n      dup1\n      iszero\n      tag_232\n      jumpi\n      dup1\n      0x1f\n      lt\n      tag_233\n      jumpi\n      0x0100\n      dup1\n      dup4\n      sload\n      div\n      mul\n      dup4\n      mstore\n      swap2\n      0x20\n      add\n      swap2\n      jump(tag_232)\n    tag_233:\n      dup3\n      add\n      swap2\n      swap1\n      0x00\n      mstore\n      keccak256(0x00, 0x20)\n      swap1\n    tag_234:\n      dup2\n      sload\n      dup2\n      mstore\n      swap1\n      0x01\n      add\n      swap1\n      0x20\n      add\n      dup1\n      dup4\n      gt\n      tag_234\n      jumpi\n      dup3\n      swap1\n      sub\n      0x1f\n      and\n      dup3\n      add\n      swap2\n    tag_232:\n      pop\n      pop\n      pop\n      pop\n      pop\n      swap1\n      pop\n        /* \"contracts/Bond3.sol\":3367:3373  trades */\n      0x07\n        /* \"contracts/Bond3.sol\":3374:3381  tradeId */\n      dup2\n        /* \"contracts/Bond3.sol\":3367:3382  trades[tradeId] */\n      mload(0x40)\n      tag_235\n      swap2\n      swap1\n      tag_236\n      jump\t// in\n    tag_235:\n      swap1\n      dup2\n      mstore\n      0x20\n      add\n      mload(0x40)\n      dup1\n      swap2\n      sub\n      swap1\n      keccak256\n        /* \"contracts/Bond3.sol\":3367:3392  trades[tradeId].confirmed */\n      0x06\n      add\n      0x00\n      swap1\n      sload\n      swap1\n      0x0100\n      exp\n      swap1\n      div\n      0xff\n      and\n        /* \"contracts/Bond3.sol\":3359:3416  require(trades[tradeId].confirmed, \"Trade not confirmed\") */\n      tag_237\n      jumpi\n      mload(0x40)\n      0x08c379a000000000000000000000000000000000000000000000000000000000\n      dup2\n      mstore\n      0x04\n      add\n      tag_238\n      swap1\n      tag_239\n      jump\t// in\n    tag_238:\n      mload(0x40)\n      dup1\n      swap2\n      sub\n      swap1\n      revert\n    tag_237:\n        /* \"contracts/Bond3.sol\":3453:3457  true */\n      0x01\n        /* \"contracts/Bond3.sol\":3427:3433  trades */\n      0x07\n        /* \"contracts/Bond3.sol\":3434:3441  tradeId */\n      dup3\n        /* \"contracts/Bond3.sol\":3427:3442  trades[tradeId] */\n      mload(0x40)\n      tag_240\n      swap2\n      swap1\n      tag_236\n      jump\t// in\n    tag_240:\n      swap1\n      dup2\n      mstore\n      0x20\n      add\n      mload(0x40)\n      dup1\n      swap2\n      sub\n      swap1\n      keccak256\n        /* \"contracts/Bond3.sol\":3427:3450  trades[tradeId].settled */\n      0x06\n      add\n      0x01\n        /* \"contracts/Bond3.sol\":3427:3457  trades[tradeId].settled = true */\n      0x0100\n      exp\n      dup2\n      sload\n      dup2\n      0xff\n      mul\n      not\n      and\n      swap1\n      dup4\n      iszero\n      iszero\n      mul\n      or\n      swap1\n      sstore\n      pop\n        /* \"contracts/Bond3.sol\":3500:3516  settlementAmount */\n      dup3\n        /* \"contracts/Bond3.sol\":3468:3474  trades */\n      0x07\n        /* \"contracts/Bond3.sol\":3475:3482  tradeId */\n      dup3\n        /* \"contracts/Bond3.sol\":3468:3483  trades[tradeId] */\n      mload(0x40)\n      tag_241\n      swap2\n      swap1\n      tag_236\n      jump\t// in\n    tag_241:\n      swap1\n      dup2\n      mstore\n      0x20\n      add\n      mload(0x40)\n      dup1\n      swap2\n      sub\n      swap1\n      keccak256\n        /* \"contracts/Bond3.sol\":3468:3497  trades[tradeId].paymentAmount */\n      0x04\n      add\n        /* \"contracts/Bond3.sol\":3468:3516  trades[tradeId].paymentAmount = settlementAmount */\n      dup2\n      swap1\n      sstore\n      pop\n        /* \"contracts/Bond3.sol\":3527:3555  address payable counterparty */\n      0x00\n        /* \"contracts/Bond3.sol\":3566:3572  trades */\n      0x07\n        /* \"contracts/Bond3.sol\":3573:3580  tradeId */\n      dup3\n        /* \"contracts/Bond3.sol\":3566:3581  trades[tradeId] */\n      mload(0x40)\n      tag_242\n      swap2\n      swap1\n      tag_236\n      jump\t// in\n    tag_242:\n      swap1\n      dup2\n      mstore\n      0x20\n      add\n      mload(0x40)\n      dup1\n      swap2\n      sub\n      swap1\n      keccak256\n        /* \"contracts/Bond3.sol\":3566:3594  trades[tradeId].counterparty */\n      0x01\n      add\n      0x00\n      swap1\n      sload\n      swap1\n      0x0100\n      exp\n      swap1\n      div\n      0xffffffffffffffffffffffffffffffffffffffff\n      and\n        /* \"contracts/Bond3.sol\":3527:3595  address payable counterparty = payable(trades[tradeId].counterparty) */\n      swap1\n      pop\n        /* \"contracts/Bond3.sol\":3614:3626  counterparty */\n      dup1\n        /* \"contracts/Bond3.sol\":3606:3636  payable(counterparty).transfer */\n      0xffffffffffffffffffffffffffffffffffffffff\n      and\n        /* \"contracts/Bond3.sol\":3606:3676  payable(counterparty).transfer(uint256(trades[tradeId].paymentAmount)) */\n      0x08fc\n        /* \"contracts/Bond3.sol\":3645:3651  trades */\n      0x07\n        /* \"contracts/Bond3.sol\":3652:3659  tradeId */\n      dup5\n        /* \"contracts/Bond3.sol\":3645:3660  trades[tradeId] */\n      mload(0x40)\n      tag_243\n      swap2\n      swap1\n      tag_236\n      jump\t// in\n    tag_243:\n      swap1\n      dup2\n      mstore\n      0x20\n      add\n      mload(0x40)\n      dup1\n      swap2\n      sub\n      swap1\n      keccak256\n        /* \"contracts/Bond3.sol\":3645:3674  trades[tradeId].paymentAmount */\n      0x04\n      add\n      sload\n        /* \"contracts/Bond3.sol\":3606:3676  payable(counterparty).transfer(uint256(trades[tradeId].paymentAmount)) */\n      swap1\n      dup2\n      iszero\n      mul\n      swap1\n      mload(0x40)\n      0x00\n      mload(0x40)\n      dup1\n      dup4\n      sub\n      dup2\n      dup6\n      dup9\n      dup9\n      call\n      swap4\n      pop\n      pop\n      pop\n      pop\n      iszero\n      dup1\n      iszero\n      tag_245\n      jumpi\n      returndatasize\n      0x00\n      dup1\n      returndatacopy\n      revert(0x00, returndatasize)\n    tag_245:\n      pop\n        /* \"contracts/Bond3.sol\":3692:3714  TradeSettlementPhase() */\n      0x4145167a2ecc3424513c83e72c2d0e4a94f423754b82af0bdeaf9fd0f7a174b7\n      mload(0x40)\n      mload(0x40)\n      dup1\n      swap2\n      sub\n      swap1\n      log1\n        /* \"contracts/Bond3.sol\":3222:3722  {... */\n      pop\n      pop\n        /* \"contracts/Bond3.sol\":3096:3722  function performSettlement(... */\n      pop\n      pop\n      jump\t// out\n        /* \"contracts/Bond3.sol\":3915:4272  function requestTradeTermination(... */\n    tag_98:\n        /* \"contracts/Bond3.sol\":4091:4101  msg.sender */\n      caller\n        /* \"contracts/Bond3.sol\":4062:4101  trades[tradeId].initiator == msg.sender */\n      0xffffffffffffffffffffffffffffffffffffffff\n      and\n        /* \"contracts/Bond3.sol\":4062:4068  trades */\n      0x07\n        /* \"contracts/Bond3.sol\":4069:4076  tradeId */\n      dup4\n        /* \"contracts/Bond3.sol\":4062:4077  trades[tradeId] */\n      mload(0x40)\n      tag_247\n      swap2\n      swap1\n      tag_236\n      jump\t// in\n    tag_247:\n      swap1\n      dup2\n      mstore\n      0x20\n      add\n      mload(0x40)\n      dup1\n      swap2\n      sub\n      swap1\n      keccak256\n        /* \"contracts/Bond3.sol\":4062:4087  trades[tradeId].initiator */\n      0x00\n      add\n      0x00\n      swap1\n      sload\n      swap1\n      0x0100\n      exp\n      swap1\n      div\n      0xffffffffffffffffffffffffffffffffffffffff\n      and\n        /* \"contracts/Bond3.sol\":4062:4101  trades[tradeId].initiator == msg.sender */\n      0xffffffffffffffffffffffffffffffffffffffff\n      and\n      eq\n        /* \"contracts/Bond3.sol\":4054:4123  require(trades[tradeId].initiator == msg.sender, \"Not the initiator\") */\n      tag_248\n      jumpi\n      mload(0x40)\n      0x08c379a000000000000000000000000000000000000000000000000000000000\n      dup2\n      mstore\n      0x04\n      add\n      tag_249\n      swap1\n      tag_250\n      jump\t// in\n    tag_249:\n      mload(0x40)\n      dup1\n      swap2\n      sub\n      swap1\n      revert\n    tag_248:\n        /* \"contracts/Bond3.sol\":4160:4164  true */\n      0x01\n        /* \"contracts/Bond3.sol\":4134:4140  trades */\n      0x07\n        /* \"contracts/Bond3.sol\":4141:4148  tradeId */\n      dup4\n        /* \"contracts/Bond3.sol\":4134:4149  trades[tradeId] */\n      mload(0x40)\n      tag_251\n      swap2\n      swap1\n      tag_236\n      jump\t// in\n    tag_251:\n      swap1\n      dup2\n      mstore\n      0x20\n      add\n      mload(0x40)\n      dup1\n      swap2\n      sub\n      swap1\n      keccak256\n        /* \"contracts/Bond3.sol\":4134:4157  trades[tradeId].settled */\n      0x06\n      add\n      0x01\n        /* \"contracts/Bond3.sol\":4134:4164  trades[tradeId].settled = true */\n      0x0100\n      exp\n      dup2\n      sload\n      dup2\n      0xff\n      mul\n      not\n      and\n      swap1\n      dup4\n      iszero\n      iszero\n      mul\n      or\n      swap1\n      sstore\n      pop\n        /* \"contracts/Bond3.sol\":4207:4226  _terminationPayment */\n      dup1\n        /* \"contracts/Bond3.sol\":4175:4181  trades */\n      0x07\n        /* \"contracts/Bond3.sol\":4182:4189  tradeId */\n      dup4\n        /* \"contracts/Bond3.sol\":4175:4190  trades[tradeId] */\n      mload(0x40)\n      tag_252\n      swap2\n      swap1\n      tag_236\n      jump\t// in\n    tag_252:\n      swap1\n      dup2\n      mstore\n      0x20\n      add\n      mload(0x40)\n      dup1\n      swap2\n      sub\n      swap1\n      keccak256\n        /* \"contracts/Bond3.sol\":4175:4204  trades[tradeId].paymentAmount */\n      0x04\n      add\n        /* \"contracts/Bond3.sol\":4175:4226  trades[tradeId].paymentAmount = _terminationPayment */\n      dup2\n      swap1\n      sstore\n      pop\n        /* \"contracts/Bond3.sol\":4242:4264  TradeSettlementPhase() */\n      0x4145167a2ecc3424513c83e72c2d0e4a94f423754b82af0bdeaf9fd0f7a174b7\n      mload(0x40)\n      mload(0x40)\n      dup1\n      swap2\n      sub\n      swap1\n      log1\n        /* \"contracts/Bond3.sol\":3915:4272  function requestTradeTermination(... */\n      pop\n      pop\n      jump\t// out\n        /* \"contracts/Bond3.sol\":4284:4647  function confirmTradeTermination(... */\n    tag_102:\n        /* \"contracts/Bond3.sol\":4463:4473  msg.sender */\n      caller\n        /* \"contracts/Bond3.sol\":4431:4473  trades[tradeId].counterparty == msg.sender */\n      0xffffffffffffffffffffffffffffffffffffffff\n      and\n        /* \"contracts/Bond3.sol\":4431:4437  trades */\n      0x07\n        /* \"contracts/Bond3.sol\":4438:4445  tradeId */\n      dup4\n        /* \"contracts/Bond3.sol\":4431:4446  trades[tradeId] */\n      mload(0x40)\n      tag_254\n      swap2\n      swap1\n      tag_236\n      jump\t// in\n    tag_254:\n      swap1\n      dup2\n      mstore\n      0x20\n      add\n      mload(0x40)\n      dup1\n      swap2\n      sub\n      swap1\n      keccak256\n        /* \"contracts/Bond3.sol\":4431:4459  trades[tradeId].counterparty */\n      0x01\n      add\n      0x00\n      swap1\n      sload\n      swap1\n      0x0100\n      exp\n      swap1\n      div\n      0xffffffffffffffffffffffffffffffffffffffff\n      and\n        /* \"contracts/Bond3.sol\":4431:4473  trades[tradeId].counterparty == msg.sender */\n      0xffffffffffffffffffffffffffffffffffffffff\n      and\n      eq\n        /* \"contracts/Bond3.sol\":4423:4498  require(trades[tradeId].counterparty == msg.sender, \"Not the counterparty\") */\n      tag_255\n      jumpi\n      mload(0x40)\n      0x08c379a000000000000000000000000000000000000000000000000000000000\n      dup2\n      mstore\n      0x04\n      add\n      tag_256\n      swap1\n      tag_257\n      jump\t// in\n    tag_256:\n      mload(0x40)\n      dup1\n      swap2\n      sub\n      swap1\n      revert\n    tag_255:\n        /* \"contracts/Bond3.sol\":4535:4539  true */\n      0x01\n        /* \"contracts/Bond3.sol\":4509:4515  trades */\n      0x07\n        /* \"contracts/Bond3.sol\":4516:4523  tradeId */\n      dup4\n        /* \"contracts/Bond3.sol\":4509:4524  trades[tradeId] */\n      mload(0x40)\n      tag_258\n      swap2\n      swap1\n      tag_236\n      jump\t// in\n    tag_258:\n      swap1\n      dup2\n      mstore\n      0x20\n      add\n      mload(0x40)\n      dup1\n      swap2\n      sub\n      swap1\n      keccak256\n        /* \"contracts/Bond3.sol\":4509:4532  trades[tradeId].settled */\n      0x06\n      add\n      0x01\n        /* \"contracts/Bond3.sol\":4509:4539  trades[tradeId].settled = true */\n      0x0100\n      exp\n      dup2\n      sload\n      dup2\n      0xff\n      mul\n      not\n      and\n      swap1\n      dup4\n      iszero\n      iszero\n      mul\n      or\n      swap1\n      sstore\n      pop\n        /* \"contracts/Bond3.sol\":4582:4601  _terminationPayment */\n      dup1\n        /* \"contracts/Bond3.sol\":4550:4556  trades */\n      0x07\n        /* \"contracts/Bond3.sol\":4557:4564  tradeId */\n      dup4\n        /* \"contracts/Bond3.sol\":4550:4565  trades[tradeId] */\n      mload(0x40)\n      tag_259\n      swap2\n      swap1\n      tag_236\n      jump\t// in\n    tag_259:\n      swap1\n      dup2\n      mstore\n      0x20\n      add\n      mload(0x40)\n      dup1\n      swap2\n      sub\n      swap1\n      keccak256\n        /* \"contracts/Bond3.sol\":4550:4579  trades[tradeId].paymentAmount */\n      0x04\n      add\n        /* \"contracts/Bond3.sol\":4550:4601  trades[tradeId].paymentAmount = _terminationPayment */\n      dup2\n      swap1\n      sstore\n      pop\n        /* \"contracts/Bond3.sol\":4617:4639  TradeSettlementPhase() */\n      0x4145167a2ecc3424513c83e72c2d0e4a94f423754b82af0bdeaf9fd0f7a174b7\n      mload(0x40)\n      mload(0x40)\n      dup1\n      swap2\n      sub\n      swap1\n      log1\n        /* \"contracts/Bond3.sol\":4284:4647  function confirmTradeTermination(... */\n      pop\n      pop\n      jump\t// out\n        /* \"contracts/Bond3.sol\":1089:1162  function pause() public onlyRole(PAUSER_ROLE) {... */\n    tag_105:\n        /* \"contracts/Bond3.sol\":789:813  keccak256(\"PAUSER_ROLE\") */\n      0x65d7a28e3265b37a6474929f336521b332c1681b933f6cb9f3376673440d862a\n        /* \"@openzeppelin/contracts/access/AccessControl.sol\":2464:2480  _checkRole(role) */\n      tag_261\n        /* \"@openzeppelin/contracts/access/AccessControl.sol\":2475:2479  role */\n      dup2\n        /* \"@openzeppelin/contracts/access/AccessControl.sol\":2464:2474  _checkRole */\n      tag_191\n        /* \"@openzeppelin/contracts/access/AccessControl.sol\":2464:2480  _checkRole(role) */\n      jump\t// in\n    tag_261:\n        /* \"contracts/Bond3.sol\":1146:1154  _pause() */\n      tag_263\n        /* \"contracts/Bond3.sol\":1146:1152  _pause */\n      tag_264\n        /* \"contracts/Bond3.sol\":1146:1154  _pause() */\n      jump\t// in\n    tag_263:\n        /* \"contracts/Bond3.sol\":1089:1162  function pause() public onlyRole(PAUSER_ROLE) {... */\n      pop\n      jump\t// out\n        /* \"contracts/Bond3.sol\":2133:2638  function confirmTrade(... */\n    tag_110:\n        /* \"contracts/Bond3.sol\":2362:2383  string memory tradeId */\n      0x00\n        /* \"contracts/Bond3.sol\":2410:2420  _tradeData */\n      dup5\n        /* \"contracts/Bond3.sol\":2422:2431  _position */\n      dup5\n        /* \"contracts/Bond3.sol\":2433:2448  block.timestamp */\n      timestamp\n        /* \"contracts/Bond3.sol\":2393:2449  abi.encodePacked(_tradeData, _position, block.timestamp) */\n      add(0x20, mload(0x40))\n      tag_266\n      swap4\n      swap3\n      swap2\n      swap1\n      tag_267\n      jump\t// in\n    tag_266:\n      mload(0x40)\n      0x20\n      dup2\n      dup4\n      sub\n      sub\n      dup2\n      mstore\n      swap1\n      0x40\n      mstore\n        /* \"contracts/Bond3.sol\":2362:2450  string memory tradeId = string(abi.encodePacked(_tradeData, _position, block.timestamp)) */\n      swap1\n      pop\n        /* \"contracts/Bond3.sol\":2501:2511  msg.sender */\n      caller\n        /* \"contracts/Bond3.sol\":2469:2511  trades[tradeId].counterparty == msg.sender */\n      0xffffffffffffffffffffffffffffffffffffffff\n      and\n        /* \"contracts/Bond3.sol\":2469:2475  trades */\n      0x07\n        /* \"contracts/Bond3.sol\":2476:2483  tradeId */\n      dup3\n        /* \"contracts/Bond3.sol\":2469:2484  trades[tradeId] */\n      mload(0x40)\n      tag_268\n      swap2\n      swap1\n      tag_236\n      jump\t// in\n    tag_268:\n      swap1\n      dup2\n      mstore\n      0x20\n      add\n      mload(0x40)\n      dup1\n      swap2\n      sub\n      swap1\n      keccak256\n        /* \"contracts/Bond3.sol\":2469:2497  trades[tradeId].counterparty */\n      0x01\n      add\n      0x00\n      swap1\n      sload\n      swap1\n      0x0100\n      exp\n      swap1\n      div\n      0xffffffffffffffffffffffffffffffffffffffff\n      and\n        /* \"contracts/Bond3.sol\":2469:2511  trades[tradeId].counterparty == msg.sender */\n      0xffffffffffffffffffffffffffffffffffffffff\n      and\n      eq\n        /* \"contracts/Bond3.sol\":2461:2536  require(trades[tradeId].counterparty == msg.sender, \"Not the counterparty\") */\n      tag_269\n      jumpi\n      mload(0x40)\n      0x08c379a000000000000000000000000000000000000000000000000000000000\n      dup2\n      mstore\n      0x04\n      add\n      tag_270\n      swap1\n      tag_257\n      jump\t// in\n    tag_270:\n      mload(0x40)\n      dup1\n      swap2\n      sub\n      swap1\n      revert\n    tag_269:\n        /* \"contracts/Bond3.sol\":2575:2579  true */\n      0x01\n        /* \"contracts/Bond3.sol\":2547:2553  trades */\n      0x07\n        /* \"contracts/Bond3.sol\":2554:2561  tradeId */\n      dup3\n        /* \"contracts/Bond3.sol\":2547:2562  trades[tradeId] */\n      mload(0x40)\n      tag_271\n      swap2\n      swap1\n      tag_236\n      jump\t// in\n    tag_271:\n      swap1\n      dup2\n      mstore\n      0x20\n      add\n      mload(0x40)\n      dup1\n      swap2\n      sub\n      swap1\n      keccak256\n        /* \"contracts/Bond3.sol\":2547:2572  trades[tradeId].confirmed */\n      0x06\n      add\n      0x00\n        /* \"contracts/Bond3.sol\":2547:2579  trades[tradeId].confirmed = true */\n      0x0100\n      exp\n      dup2\n      sload\n      dup2\n      0xff\n      mul\n      not\n      and\n      swap1\n      dup4\n      iszero\n      iszero\n      mul\n      or\n      swap1\n      sstore\n      pop\n        /* \"contracts/Bond3.sol\":2595:2630  TradeConfirmed(msg.sender, tradeId) */\n      0x02f9110550f3374364c85539074b740b7bfed285798d152502c5f2dfd745cf00\n        /* \"contracts/Bond3.sol\":2610:2620  msg.sender */\n      caller\n        /* \"contracts/Bond3.sol\":2622:2629  tradeId */\n      dup3\n        /* \"contracts/Bond3.sol\":2595:2630  TradeConfirmed(msg.sender, tradeId) */\n      mload(0x40)\n      tag_272\n      swap3\n      swap2\n      swap1\n      tag_273\n      jump\t// in\n    tag_272:\n      mload(0x40)\n      dup1\n      swap2\n      sub\n      swap1\n      log1\n        /* \"contracts/Bond3.sol\":2351:2638  {... */\n      pop\n        /* \"contracts/Bond3.sol\":2133:2638  function confirmTrade(... */\n      pop\n      pop\n      pop\n      pop\n      pop\n      jump\t// out\n        /* \"contracts/LendingContractLogic.sol\":106:126  address public owner */\n    tag_113:\n      0x02\n      0x00\n      swap1\n      sload\n      swap1\n      0x0100\n      exp\n      swap1\n      div\n      0xffffffffffffffffffffffffffffffffffffffff\n      and\n      dup2\n      jump\t// out\n        /* \"contracts/LendingContractLogic.sol\":308:340  uint256 public totalInterestOwed */\n    tag_118:\n      sload(0x06)\n      dup2\n      jump\t// out\n        /* \"@openzeppelin/contracts/access/AccessControl.sol\":2854:2990  function hasRole(bytes32 role, address account) public view virtual returns (bool) {... */\n    tag_123:\n        /* \"@openzeppelin/contracts/access/AccessControl.sol\":2931:2935  bool */\n      0x00\n        /* \"@openzeppelin/contracts/access/AccessControl.sol\":2954:2960  _roles */\n      0x01\n        /* \"@openzeppelin/contracts/access/AccessControl.sol\":2954:2966  _roles[role] */\n      0x00\n        /* \"@openzeppelin/contracts/access/AccessControl.sol\":2961:2965  role */\n      dup5\n        /* \"@openzeppelin/contracts/access/AccessControl.sol\":2954:2966  _roles[role] */\n      dup2\n      mstore\n      0x20\n      add\n      swap1\n      dup2\n      mstore\n      0x20\n      add\n      0x00\n      keccak256\n        /* \"@openzeppelin/contracts/access/AccessControl.sol\":2954:2974  _roles[role].hasRole */\n      0x00\n      add\n        /* \"@openzeppelin/contracts/access/AccessControl.sol\":2954:2983  _roles[role].hasRole[account] */\n      0x00\n        /* \"@openzeppelin/contracts/access/AccessControl.sol\":2975:2982  account */\n      dup4\n        /* \"@openzeppelin/contracts/access/AccessControl.sol\":2954:2983  _roles[role].hasRole[account] */\n      0xffffffffffffffffffffffffffffffffffffffff\n      and\n      0xffffffffffffffffffffffffffffffffffffffff\n      and\n      dup2\n      mstore\n      0x20\n      add\n      swap1\n      dup2\n      mstore\n      0x20\n      add\n      0x00\n      keccak256\n      0x00\n      swap1\n      sload\n      swap1\n      0x0100\n      exp\n      swap1\n      div\n      0xff\n      and\n        /* \"@openzeppelin/contracts/access/AccessControl.sol\":2947:2983  return _roles[role].hasRole[account] */\n      swap1\n      pop\n        /* \"@openzeppelin/contracts/access/AccessControl.sol\":2854:2990  function hasRole(bytes32 role, address account) public view virtual returns (bool) {... */\n      swap3\n      swap2\n      pop\n      pop\n      jump\t// out\n        /* \"@openzeppelin/contracts/access/AccessControl.sol\":2187:2236  bytes32 public constant DEFAULT_ADMIN_ROLE = 0x00 */\n    tag_127:\n        /* \"@openzeppelin/contracts/access/AccessControl.sol\":2232:2236  0x00 */\n      0x00\n        /* \"@openzeppelin/contracts/access/AccessControl.sol\":2187:2236  bytes32 public constant DEFAULT_ADMIN_ROLE = 0x00 */\n      dup1\n      shl\n      dup2\n      jump\t// out\n        /* \"contracts/LendingContractLogic.sol\":133:157  uint256 public principal */\n    tag_131:\n      sload(0x03)\n      dup2\n      jump\t// out\n        /* \"contracts/LendingContractLogic.sol\":1442:1557  function getTotalInterestOwed() external view virtual returns (uint256) {... */\n    tag_135:\n        /* \"contracts/LendingContractLogic.sol\":1505:1512  uint256 */\n      0x00\n        /* \"contracts/LendingContractLogic.sol\":1532:1549  totalInterestOwed */\n      sload(0x06)\n        /* \"contracts/LendingContractLogic.sol\":1525:1549  return totalInterestOwed */\n      swap1\n      pop\n        /* \"contracts/LendingContractLogic.sol\":1442:1557  function getTotalInterestOwed() external view virtual returns (uint256) {... */\n      swap1\n      jump\t// out\n        /* \"contracts/Bond3.sol\":2650:3084  function initiateSettlement() external override {... */\n    tag_139:\n        /* \"contracts/Bond3.sol\":2815:2816  0 */\n      0x00\n        /* \"contracts/Bond3.sol\":2797:2805  tradeIds */\n      0x08\n        /* \"contracts/Bond3.sol\":2797:2812  tradeIds.length */\n      dup1\n      sload\n      swap1\n      pop\n        /* \"contracts/Bond3.sol\":2797:2816  tradeIds.length > 0 */\n      gt\n        /* \"contracts/Bond3.sol\":2789:2840  require(tradeIds.length > 0, \"No trades available\") */\n      tag_277\n      jumpi\n      mload(0x40)\n      0x08c379a000000000000000000000000000000000000000000000000000000000\n      dup2\n      mstore\n      0x04\n      add\n      tag_278\n      swap1\n      tag_223\n      jump\t// in\n    tag_278:\n      mload(0x40)\n      dup1\n      swap2\n      sub\n      swap1\n      revert\n    tag_277:\n        /* \"contracts/Bond3.sol\":2851:2872  string memory tradeId */\n      0x00\n        /* \"contracts/Bond3.sol\":2875:2883  tradeIds */\n      0x08\n        /* \"contracts/Bond3.sol\":2902:2903  1 */\n      0x01\n        /* \"contracts/Bond3.sol\":2884:2892  tradeIds */\n      0x08\n        /* \"contracts/Bond3.sol\":2884:2899  tradeIds.length */\n      dup1\n      sload\n      swap1\n      pop\n        /* \"contracts/Bond3.sol\":2884:2903  tradeIds.length - 1 */\n      tag_279\n      swap2\n      swap1\n      tag_225\n      jump\t// in\n    tag_279:\n        /* \"contracts/Bond3.sol\":2875:2904  tradeIds[tradeIds.length - 1] */\n      dup2\n      sload\n      dup2\n      lt\n      tag_280\n      jumpi\n      tag_281\n      tag_228\n      jump\t// in\n    tag_281:\n    tag_280:\n      swap1\n      0x00\n      mstore\n      keccak256(0x00, 0x20)\n      add\n        /* \"contracts/Bond3.sol\":2851:2904  string memory tradeId = tradeIds[tradeIds.length - 1] */\n      dup1\n      sload\n      tag_283\n      swap1\n      tag_207\n      jump\t// in\n    tag_283:\n      dup1\n      0x1f\n      add\n      0x20\n      dup1\n      swap2\n      div\n      mul\n      0x20\n      add\n      mload(0x40)\n      swap1\n      dup2\n      add\n      0x40\n      mstore\n      dup1\n      swap3\n      swap2\n      swap1\n      dup2\n      dup2\n      mstore\n      0x20\n      add\n      dup3\n      dup1\n      sload\n      tag_284\n      swap1\n      tag_207\n      jump\t// in\n    tag_284:\n      dup1\n      iszero\n      tag_285\n      jumpi\n      dup1\n      0x1f\n      lt\n      tag_286\n      jumpi\n      0x0100\n      dup1\n      dup4\n      sload\n      div\n      mul\n      dup4\n      mstore\n      swap2\n      0x20\n      add\n      swap2\n      jump(tag_285)\n    tag_286:\n      dup3\n      add\n      swap2\n      swap1\n      0x00\n      mstore\n      keccak256(0x00, 0x20)\n      swap1\n    tag_287:\n      dup2\n      sload\n      dup2\n      mstore\n      swap1\n      0x01\n      add\n      swap1\n      0x20\n      add\n      dup1\n      dup4\n      gt\n      tag_287\n      jumpi\n      dup3\n      swap1\n      sub\n      0x1f\n      and\n      dup3\n      add\n      swap2\n    tag_285:\n      pop\n      pop\n      pop\n      pop\n      pop\n      swap1\n      pop\n        /* \"contracts/Bond3.sol\":2923:2929  trades */\n      0x07\n        /* \"contracts/Bond3.sol\":2930:2937  tradeId */\n      dup2\n        /* \"contracts/Bond3.sol\":2923:2938  trades[tradeId] */\n      mload(0x40)\n      tag_288\n      swap2\n      swap1\n      tag_236\n      jump\t// in\n    tag_288:\n      swap1\n      dup2\n      mstore\n      0x20\n      add\n      mload(0x40)\n      dup1\n      swap2\n      sub\n      swap1\n      keccak256\n        /* \"contracts/Bond3.sol\":2923:2948  trades[tradeId].confirmed */\n      0x06\n      add\n      0x00\n      swap1\n      sload\n      swap1\n      0x0100\n      exp\n      swap1\n      div\n      0xff\n      and\n        /* \"contracts/Bond3.sol\":2915:2972  require(trades[tradeId].confirmed, \"Trade not confirmed\") */\n      tag_289\n      jumpi\n      mload(0x40)\n      0x08c379a000000000000000000000000000000000000000000000000000000000\n      dup2\n      mstore\n      0x04\n      add\n      tag_290\n      swap1\n      tag_239\n      jump\t// in\n    tag_290:\n      mload(0x40)\n      dup1\n      swap2\n      sub\n      swap1\n      revert\n    tag_289:\n        /* \"contracts/Bond3.sol\":2988:3076  TradeSettlementRequest(trades[tradeId].tradeData, trades[tradeId].initialSettlementData) */\n      0xf31a94b3b4c854e5a4adea9f6082ab58856d3750c9a0182c2d9641bda7c09fc5\n        /* \"contracts/Bond3.sol\":3011:3017  trades */\n      0x07\n        /* \"contracts/Bond3.sol\":3018:3025  tradeId */\n      dup3\n        /* \"contracts/Bond3.sol\":3011:3026  trades[tradeId] */\n      mload(0x40)\n      tag_291\n      swap2\n      swap1\n      tag_236\n      jump\t// in\n    tag_291:\n      swap1\n      dup2\n      mstore\n      0x20\n      add\n      mload(0x40)\n      dup1\n      swap2\n      sub\n      swap1\n      keccak256\n        /* \"contracts/Bond3.sol\":3011:3036  trades[tradeId].tradeData */\n      0x02\n      add\n        /* \"contracts/Bond3.sol\":3038:3044  trades */\n      0x07\n        /* \"contracts/Bond3.sol\":3045:3052  tradeId */\n      dup4\n        /* \"contracts/Bond3.sol\":3038:3053  trades[tradeId] */\n      mload(0x40)\n      tag_292\n      swap2\n      swap1\n      tag_236\n      jump\t// in\n    tag_292:\n      swap1\n      dup2\n      mstore\n      0x20\n      add\n      mload(0x40)\n      dup1\n      swap2\n      sub\n      swap1\n      keccak256\n        /* \"contracts/Bond3.sol\":3038:3075  trades[tradeId].initialSettlementData */\n      0x05\n      add\n        /* \"contracts/Bond3.sol\":2988:3076  TradeSettlementRequest(trades[tradeId].tradeData, trades[tradeId].initialSettlementData) */\n      mload(0x40)\n      tag_293\n      swap3\n      swap2\n      swap1\n      tag_294\n      jump\t// in\n    tag_293:\n      mload(0x40)\n      dup1\n      swap2\n      sub\n      swap1\n      log1\n        /* \"contracts/Bond3.sol\":2698:3084  {... */\n      pop\n        /* \"contracts/Bond3.sol\":2650:3084  function initiateSettlement() external override {... */\n      jump\t// out\n        /* \"@openzeppelin/contracts/access/AccessControl.sol\":4642:4780  function revokeRole(bytes32 role, address account) public virtual onlyRole(getRoleAdmin(role)) {... */\n    tag_143:\n        /* \"@openzeppelin/contracts/access/AccessControl.sol\":4717:4735  getRoleAdmin(role) */\n      tag_295\n        /* \"@openzeppelin/contracts/access/AccessControl.sol\":4730:4734  role */\n      dup3\n        /* \"@openzeppelin/contracts/access/AccessControl.sol\":4717:4729  getRoleAdmin */\n      tag_58\n        /* \"@openzeppelin/contracts/access/AccessControl.sol\":4717:4735  getRoleAdmin(role) */\n      jump\t// in\n    tag_295:\n        /* \"@openzeppelin/contracts/access/AccessControl.sol\":2464:2480  _checkRole(role) */\n      tag_297\n        /* \"@openzeppelin/contracts/access/AccessControl.sol\":2475:2479  role */\n      dup2\n        /* \"@openzeppelin/contracts/access/AccessControl.sol\":2464:2474  _checkRole */\n      tag_191\n        /* \"@openzeppelin/contracts/access/AccessControl.sol\":2464:2480  _checkRole(role) */\n      jump\t// in\n    tag_297:\n        /* \"@openzeppelin/contracts/access/AccessControl.sol\":4747:4773  _revokeRole(role, account) */\n      tag_299\n        /* \"@openzeppelin/contracts/access/AccessControl.sol\":4759:4763  role */\n      dup4\n        /* \"@openzeppelin/contracts/access/AccessControl.sol\":4765:4772  account */\n      dup4\n        /* \"@openzeppelin/contracts/access/AccessControl.sol\":4747:4758  _revokeRole */\n      tag_200\n        /* \"@openzeppelin/contracts/access/AccessControl.sol\":4747:4773  _revokeRole(role, account) */\n      jump\t// in\n    tag_299:\n      pop\n        /* \"@openzeppelin/contracts/access/AccessControl.sol\":4642:4780  function revokeRole(bytes32 role, address account) public virtual onlyRole(getRoleAdmin(role)) {... */\n      pop\n      pop\n      pop\n      jump\t// out\n        /* \"contracts/Bond3.sol\":3734:3903  function afterTransfer(... */\n    tag_148:\n      pop\n      pop\n      jump\t// out\n        /* \"contracts/Bond3.sol\":751:813  bytes32 public constant PAUSER_ROLE = keccak256(\"PAUSER_ROLE\") */\n    tag_151:\n        /* \"contracts/Bond3.sol\":789:813  keccak256(\"PAUSER_ROLE\") */\n      0x65d7a28e3265b37a6474929f336521b332c1681b933f6cb9f3376673440d862a\n        /* \"contracts/Bond3.sol\":751:813  bytes32 public constant PAUSER_ROLE = keccak256(\"PAUSER_ROLE\") */\n      dup2\n      jump\t// out\n        /* \"contracts/LendingContractLogic.sol\":1057:1434  function calculateInterest() public virtual {... */\n    tag_155:\n        /* \"contracts/LendingContractLogic.sol\":1114:1133  uint256 timeElapsed */\n      0x00\n        /* \"contracts/LendingContractLogic.sol\":1154:1181  lastInterestCalculationTime */\n      sload(0x05)\n        /* \"contracts/LendingContractLogic.sol\":1136:1151  block.timestamp */\n      timestamp\n        /* \"contracts/LendingContractLogic.sol\":1136:1181  block.timestamp - lastInterestCalculationTime */\n      tag_302\n      swap2\n      swap1\n      tag_225\n      jump\t// in\n    tag_302:\n        /* \"contracts/LendingContractLogic.sol\":1114:1181  uint256 timeElapsed = block.timestamp - lastInterestCalculationTime */\n      swap1\n      pop\n        /* \"contracts/LendingContractLogic.sol\":1192:1208  uint256 interest */\n      0x00\n        /* \"contracts/LendingContractLogic.sol\":1261:1275  365 days * 100 */\n      0xbbf81e00\n        /* \"contracts/LendingContractLogic.sol\":1245:1256  timeElapsed */\n      dup3\n        /* \"contracts/LendingContractLogic.sol\":1224:1242  annualInterestRate */\n      sload(0x04)\n        /* \"contracts/LendingContractLogic.sol\":1212:1221  principal */\n      sload(0x03)\n        /* \"contracts/LendingContractLogic.sol\":1212:1242  principal * annualInterestRate */\n      tag_303\n      swap2\n      swap1\n      tag_304\n      jump\t// in\n    tag_303:\n        /* \"contracts/LendingContractLogic.sol\":1212:1256  principal * annualInterestRate * timeElapsed */\n      tag_305\n      swap2\n      swap1\n      tag_304\n      jump\t// in\n    tag_305:\n        /* \"contracts/LendingContractLogic.sol\":1211:1276  (principal * annualInterestRate * timeElapsed) / (365 days * 100) */\n      tag_306\n      swap2\n      swap1\n      tag_307\n      jump\t// in\n    tag_306:\n        /* \"contracts/LendingContractLogic.sol\":1192:1276  uint256 interest = (principal * annualInterestRate * timeElapsed) / (365 days * 100) */\n      swap1\n      pop\n        /* \"contracts/LendingContractLogic.sol\":1310:1318  interest */\n      dup1\n        /* \"contracts/LendingContractLogic.sol\":1289:1306  totalInterestOwed */\n      0x06\n      0x00\n        /* \"contracts/LendingContractLogic.sol\":1289:1318  totalInterestOwed += interest */\n      dup3\n      dup3\n      sload\n      tag_308\n      swap2\n      swap1\n      tag_309\n      jump\t// in\n    tag_308:\n      swap3\n      pop\n      pop\n      dup2\n      swap1\n      sstore\n      pop\n        /* \"contracts/LendingContractLogic.sol\":1359:1374  block.timestamp */\n      timestamp\n        /* \"contracts/LendingContractLogic.sol\":1329:1356  lastInterestCalculationTime */\n      0x05\n        /* \"contracts/LendingContractLogic.sol\":1329:1374  lastInterestCalculationTime = block.timestamp */\n      dup2\n      swap1\n      sstore\n      pop\n        /* \"contracts/LendingContractLogic.sol\":1392:1426  InterestUpdated(totalInterestOwed) */\n      0xea6dfd6d2633d9628db2f2e59654ec4e8c745c3fd6f05df0065037de020589e2\n        /* \"contracts/LendingContractLogic.sol\":1408:1425  totalInterestOwed */\n      sload(0x06)\n        /* \"contracts/LendingContractLogic.sol\":1392:1426  InterestUpdated(totalInterestOwed) */\n      mload(0x40)\n      tag_310\n      swap2\n      swap1\n      tag_53\n      jump\t// in\n    tag_310:\n      mload(0x40)\n      dup1\n      swap2\n      sub\n      swap1\n      log1\n        /* \"contracts/LendingContractLogic.sol\":1101:1434  {... */\n      pop\n      pop\n        /* \"contracts/LendingContractLogic.sol\":1057:1434  function calculateInterest() public virtual {... */\n      jump\t// out\n        /* \"contracts/Bond3.sol\":1255:2121  function inceptTrade(... */\n    tag_159:\n        /* \"contracts/Bond3.sol\":1483:1504  string memory tradeId */\n      0x00\n        /* \"contracts/Bond3.sol\":1531:1541  _tradeData */\n      dup5\n        /* \"contracts/Bond3.sol\":1543:1552  _position */\n      dup5\n        /* \"contracts/Bond3.sol\":1554:1569  block.timestamp */\n      timestamp\n        /* \"contracts/Bond3.sol\":1514:1570  abi.encodePacked(_tradeData, _position, block.timestamp) */\n      add(0x20, mload(0x40))\n      tag_312\n      swap4\n      swap3\n      swap2\n      swap1\n      tag_267\n      jump\t// in\n    tag_312:\n      mload(0x40)\n      0x20\n      dup2\n      dup4\n      sub\n      sub\n      dup2\n      mstore\n      swap1\n      0x40\n      mstore\n        /* \"contracts/Bond3.sol\":1483:1571  string memory tradeId = string(abi.encodePacked(_tradeData, _position, block.timestamp)) */\n      swap1\n      pop\n        /* \"contracts/Bond3.sol\":1600:1927  Trade({... */\n      mload(0x40)\n      dup1\n      0x0100\n      add\n      0x40\n      mstore\n      dup1\n        /* \"contracts/Bond3.sol\":1632:1642  msg.sender */\n      caller\n        /* \"contracts/Bond3.sol\":1600:1927  Trade({... */\n      0xffffffffffffffffffffffffffffffffffffffff\n      and\n      dup2\n      mstore\n      0x20\n      add\n        /* \"contracts/Bond3.sol\":1671:1681  _withParty */\n      dup8\n        /* \"contracts/Bond3.sol\":1600:1927  Trade({... */\n      0xffffffffffffffffffffffffffffffffffffffff\n      and\n      dup2\n      mstore\n      0x20\n      add\n        /* \"contracts/Bond3.sol\":1707:1717  _tradeData */\n      dup7\n        /* \"contracts/Bond3.sol\":1600:1927  Trade({... */\n      dup2\n      mstore\n      0x20\n      add\n        /* \"contracts/Bond3.sol\":1742:1751  _position */\n      dup6\n        /* \"contracts/Bond3.sol\":1600:1927  Trade({... */\n      dup2\n      mstore\n      0x20\n      add\n        /* \"contracts/Bond3.sol\":1781:1795  _paymentAmount */\n      dup5\n        /* \"contracts/Bond3.sol\":1600:1927  Trade({... */\n      dup2\n      mstore\n      0x20\n      add\n        /* \"contracts/Bond3.sol\":1833:1855  _initialSettlementData */\n      dup4\n        /* \"contracts/Bond3.sol\":1600:1927  Trade({... */\n      dup2\n      mstore\n      0x20\n      add\n        /* \"contracts/Bond3.sol\":1881:1886  false */\n      0x00\n        /* \"contracts/Bond3.sol\":1600:1927  Trade({... */\n      iszero\n      iszero\n      dup2\n      mstore\n      0x20\n      add\n        /* \"contracts/Bond3.sol\":1910:1915  false */\n      0x00\n        /* \"contracts/Bond3.sol\":1600:1927  Trade({... */\n      iszero\n      iszero\n      dup2\n      mstore\n      pop\n        /* \"contracts/Bond3.sol\":1582:1588  trades */\n      0x07\n        /* \"contracts/Bond3.sol\":1589:1596  tradeId */\n      dup3\n        /* \"contracts/Bond3.sol\":1582:1597  trades[tradeId] */\n      mload(0x40)\n      tag_313\n      swap2\n      swap1\n      tag_236\n      jump\t// in\n    tag_313:\n      swap1\n      dup2\n      mstore\n      0x20\n      add\n      mload(0x40)\n      dup1\n      swap2\n      sub\n      swap1\n      keccak256\n        /* \"contracts/Bond3.sol\":1582:1927  trades[tradeId] = Trade({... */\n      0x00\n      dup3\n      add\n      mload\n      dup2\n      0x00\n      add\n      exp(0x0100, 0x00)\n      dup2\n      sload\n      dup2\n      0xffffffffffffffffffffffffffffffffffffffff\n      mul\n      not\n      and\n      swap1\n      dup4\n      0xffffffffffffffffffffffffffffffffffffffff\n      and\n      mul\n      or\n      swap1\n      sstore\n      pop\n      0x20\n      dup3\n      add\n      mload\n      dup2\n      0x01\n      add\n      exp(0x0100, 0x00)\n      dup2\n      sload\n      dup2\n      0xffffffffffffffffffffffffffffffffffffffff\n      mul\n      not\n      and\n      swap1\n      dup4\n      0xffffffffffffffffffffffffffffffffffffffff\n      and\n      mul\n      or\n      swap1\n      sstore\n      pop\n      0x40\n      dup3\n      add\n      mload\n      dup2\n      0x02\n      add\n      swap1\n      dup2\n      tag_314\n      swap2\n      swap1\n      tag_315\n      jump\t// in\n    tag_314:\n      pop\n      0x60\n      dup3\n      add\n      mload\n      dup2\n      0x03\n      add\n      sstore\n      0x80\n      dup3\n      add\n      mload\n      dup2\n      0x04\n      add\n      sstore\n      0xa0\n      dup3\n      add\n      mload\n      dup2\n      0x05\n      add\n      swap1\n      dup2\n      tag_316\n      swap2\n      swap1\n      tag_315\n      jump\t// in\n    tag_316:\n      pop\n      0xc0\n      dup3\n      add\n      mload\n      dup2\n      0x06\n      add\n      exp(0x0100, 0x00)\n      dup2\n      sload\n      dup2\n      0xff\n      mul\n      not\n      and\n      swap1\n      dup4\n      iszero\n      iszero\n      mul\n      or\n      swap1\n      sstore\n      pop\n      0xe0\n      dup3\n      add\n      mload\n      dup2\n      0x06\n      add\n      exp(0x0100, 0x01)\n      dup2\n      sload\n      dup2\n      0xff\n      mul\n      not\n      and\n      swap1\n      dup4\n      iszero\n      iszero\n      mul\n      or\n      swap1\n      sstore\n      pop\n      swap1\n      pop\n      pop\n        /* \"contracts/Bond3.sol\":1938:1946  tradeIds */\n      0x08\n        /* \"contracts/Bond3.sol\":1952:1959  tradeId */\n      dup2\n        /* \"contracts/Bond3.sol\":1938:1960  tradeIds.push(tradeId) */\n      swap1\n      dup1\n      0x01\n      dup2\n      sload\n      add\n      dup1\n      dup3\n      sstore\n      dup1\n      swap2\n      pop\n      pop\n      0x01\n      swap1\n      sub\n      swap1\n      0x00\n      mstore\n      keccak256(0x00, 0x20)\n      add\n      0x00\n      swap1\n      swap2\n      swap1\n      swap2\n      swap1\n      swap2\n      pop\n      swap1\n      dup2\n      tag_318\n      swap2\n      swap1\n      tag_315\n      jump\t// in\n    tag_318:\n      pop\n        /* \"contracts/Bond3.sol\":1999:2003  true */\n      0x01\n        /* \"contracts/Bond3.sol\":1971:1977  trades */\n      0x07\n        /* \"contracts/Bond3.sol\":1978:1985  tradeId */\n      dup3\n        /* \"contracts/Bond3.sol\":1971:1986  trades[tradeId] */\n      mload(0x40)\n      tag_319\n      swap2\n      swap1\n      tag_236\n      jump\t// in\n    tag_319:\n      swap1\n      dup2\n      mstore\n      0x20\n      add\n      mload(0x40)\n      dup1\n      swap2\n      sub\n      swap1\n      keccak256\n        /* \"contracts/Bond3.sol\":1971:1996  trades[tradeId].confirmed */\n      0x06\n      add\n      0x00\n        /* \"contracts/Bond3.sol\":1971:2003  trades[tradeId].confirmed = true */\n      0x0100\n      exp\n      dup2\n      sload\n      dup2\n      0xff\n      mul\n      not\n      and\n      swap1\n      dup4\n      iszero\n      iszero\n      mul\n      or\n      swap1\n      sstore\n      pop\n        /* \"contracts/Bond3.sol\":2067:2113  TradeIncepted(msg.sender, tradeId, _tradeData) */\n      0x7511eeca77b6245674aa0ed9cfc29c93005ca6c461f25ca4dcbb0fdb80e003c9\n        /* \"contracts/Bond3.sol\":2081:2091  msg.sender */\n      caller\n        /* \"contracts/Bond3.sol\":2093:2100  tradeId */\n      dup3\n        /* \"contracts/Bond3.sol\":2102:2112  _tradeData */\n      dup8\n        /* \"contracts/Bond3.sol\":2067:2113  TradeIncepted(msg.sender, tradeId, _tradeData) */\n      mload(0x40)\n      tag_320\n      swap4\n      swap3\n      swap2\n      swap1\n      tag_321\n      jump\t// in\n    tag_320:\n      mload(0x40)\n      dup1\n      swap2\n      sub\n      swap1\n      log1\n        /* \"contracts/Bond3.sol\":1472:2121  {... */\n      pop\n        /* \"contracts/Bond3.sol\":1255:2121  function inceptTrade(... */\n      pop\n      pop\n      pop\n      pop\n      pop\n      jump\t// out\n        /* \"contracts/LendingContractLogic.sol\":833:1049  function depositPrincipal() external payable virtual onlyOwner {... */\n    tag_161:\n        /* \"contracts/LendingContractLogic.sol\":773:778  owner */\n      0x02\n      0x00\n      swap1\n      sload\n      swap1\n      0x0100\n      exp\n      swap1\n      div\n      0xffffffffffffffffffffffffffffffffffffffff\n      and\n        /* \"contracts/LendingContractLogic.sol\":759:778  msg.sender == owner */\n      0xffffffffffffffffffffffffffffffffffffffff\n      and\n        /* \"contracts/LendingContractLogic.sol\":759:769  msg.sender */\n      caller\n        /* \"contracts/LendingContractLogic.sol\":759:778  msg.sender == owner */\n      0xffffffffffffffffffffffffffffffffffffffff\n      and\n      eq\n        /* \"contracts/LendingContractLogic.sol\":751:805  require(msg.sender == owner, \"Not the contract owner\") */\n      tag_323\n      jumpi\n      mload(0x40)\n      0x08c379a000000000000000000000000000000000000000000000000000000000\n      dup2\n      mstore\n      0x04\n      add\n      tag_324\n      swap1\n      tag_175\n      jump\t// in\n    tag_324:\n      mload(0x40)\n      dup1\n      swap2\n      sub\n      swap1\n      revert\n    tag_323:\n        /* \"contracts/LendingContractLogic.sol\":919:928  msg.value */\n      callvalue\n        /* \"contracts/LendingContractLogic.sol\":907:916  principal */\n      0x03\n        /* \"contracts/LendingContractLogic.sol\":907:928  principal = msg.value */\n      dup2\n      swap1\n      sstore\n      pop\n        /* \"contracts/LendingContractLogic.sol\":969:984  block.timestamp */\n      timestamp\n        /* \"contracts/LendingContractLogic.sol\":939:966  lastInterestCalculationTime */\n      0x05\n        /* \"contracts/LendingContractLogic.sol\":939:984  lastInterestCalculationTime = block.timestamp */\n      dup2\n      swap1\n      sstore\n      pop\n        /* \"contracts/LendingContractLogic.sol\":1019:1029  msg.sender */\n      caller\n        /* \"contracts/LendingContractLogic.sol\":1000:1041  PrincipalDeposited(msg.sender, msg.value) */\n      0xffffffffffffffffffffffffffffffffffffffff\n      and\n      0x2d61cf17bab18b04495576cf3d5490afd6c0c573d79b7ce84a50fb523abb3daf\n        /* \"contracts/LendingContractLogic.sol\":1031:1040  msg.value */\n      callvalue\n        /* \"contracts/LendingContractLogic.sol\":1000:1041  PrincipalDeposited(msg.sender, msg.value) */\n      mload(0x40)\n      tag_326\n      swap2\n      swap1\n      tag_53\n      jump\t// in\n    tag_326:\n      mload(0x40)\n      dup1\n      swap2\n      sub\n      swap1\n      log2\n        /* \"contracts/LendingContractLogic.sol\":833:1049  function depositPrincipal() external payable virtual onlyOwner {... */\n      jump\t// out\n        /* \"contracts/LendingContractLogic.sol\":259:301  uint256 public lastInterestCalculationTime */\n    tag_164:\n      sload(0x05)\n      dup2\n      jump\t// out\n        /* \"contracts/Bond3.sol\":720:744  string[] public tradeIds */\n    tag_169:\n      0x08\n      dup2\n      dup2\n      sload\n      dup2\n      lt\n      tag_327\n      jumpi\n      0x00\n      dup1\n      revert\n    tag_327:\n      swap1\n      0x00\n      mstore\n      keccak256(0x00, 0x20)\n      add\n      0x00\n      swap2\n      pop\n      swap1\n      pop\n      dup1\n      sload\n      tag_329\n      swap1\n      tag_207\n      jump\t// in\n    tag_329:\n      dup1\n      0x1f\n      add\n      0x20\n      dup1\n      swap2\n      div\n      mul\n      0x20\n      add\n      mload(0x40)\n      swap1\n      dup2\n      add\n      0x40\n      mstore\n      dup1\n      swap3\n      swap2\n      swap1\n      dup2\n      dup2\n      mstore\n      0x20\n      add\n      dup3\n      dup1\n      sload\n      tag_330\n      swap1\n      tag_207\n      jump\t// in\n    tag_330:\n      dup1\n      iszero\n      tag_331\n      jumpi\n      dup1\n      0x1f\n      lt\n      tag_332\n      jumpi\n      0x0100\n      dup1\n      dup4\n      sload\n      div\n      mul\n      dup4\n      mstore\n      swap2\n      0x20\n      add\n      swap2\n      jump(tag_331)\n    tag_332:\n      dup3\n      add\n      swap2\n      swap1\n      0x00\n      mstore\n      keccak256(0x00, 0x20)\n      swap1\n    tag_333:\n      dup2\n      sload\n      dup2\n      mstore\n      swap1\n      0x01\n      add\n      swap1\n      0x20\n      add\n      dup1\n      dup4\n      gt\n      tag_333\n      jumpi\n      dup3\n      swap1\n      sub\n      0x1f\n      and\n      dup3\n      add\n      swap2\n    tag_331:\n      pop\n      pop\n      pop\n      pop\n      pop\n      dup2\n      jump\t// out\n        /* \"@openzeppelin/contracts/utils/introspection/ERC165.sol\":762:908  function supportsInterface(bytes4 interfaceId) public view virtual returns (bool) {... */\n    tag_186:\n        /* \"@openzeppelin/contracts/utils/introspection/ERC165.sol\":838:842  bool */\n      0x00\n        /* \"@openzeppelin/contracts/utils/introspection/ERC165.sol\":876:901  type(IERC165).interfaceId */\n      0x01ffc9a700000000000000000000000000000000000000000000000000000000\n        /* \"@openzeppelin/contracts/utils/introspection/ERC165.sol\":861:901  interfaceId == type(IERC165).interfaceId */\n      not(0xffffffffffffffffffffffffffffffffffffffffffffffffffffffff)\n      and\n        /* \"@openzeppelin/contracts/utils/introspection/ERC165.sol\":861:872  interfaceId */\n      dup3\n        /* \"@openzeppelin/contracts/utils/introspection/ERC165.sol\":861:901  interfaceId == type(IERC165).interfaceId */\n      not(0xffffffffffffffffffffffffffffffffffffffffffffffffffffffff)\n      and\n      eq\n        /* \"@openzeppelin/contracts/utils/introspection/ERC165.sol\":854:901  return interfaceId == type(IERC165).interfaceId */\n      swap1\n      pop\n        /* \"@openzeppelin/contracts/utils/introspection/ERC165.sol\":762:908  function supportsInterface(bytes4 interfaceId) public view virtual returns (bool) {... */\n      swap2\n      swap1\n      pop\n      jump\t// out\n        /* \"@openzeppelin/contracts/access/AccessControl.sol\":3199:3302  function _checkRole(bytes32 role) internal view virtual {... */\n    tag_191:\n        /* \"@openzeppelin/contracts/access/AccessControl.sol\":3265:3295  _checkRole(role, _msgSender()) */\n      tag_336\n        /* \"@openzeppelin/contracts/access/AccessControl.sol\":3276:3280  role */\n      dup2\n        /* \"@openzeppelin/contracts/access/AccessControl.sol\":3282:3294  _msgSender() */\n      tag_337\n        /* \"@openzeppelin/contracts/access/AccessControl.sol\":3282:3292  _msgSender */\n      tag_197\n        /* \"@openzeppelin/contracts/access/AccessControl.sol\":3282:3294  _msgSender() */\n      jump\t// in\n    tag_337:\n        /* \"@openzeppelin/contracts/access/AccessControl.sol\":3265:3275  _checkRole */\n      tag_338\n        /* \"@openzeppelin/contracts/access/AccessControl.sol\":3265:3295  _checkRole(role, _msgSender()) */\n      jump\t// in\n    tag_336:\n        /* \"@openzeppelin/contracts/access/AccessControl.sol\":3199:3302  function _checkRole(bytes32 role) internal view virtual {... */\n      pop\n      jump\t// out\n        /* \"@openzeppelin/contracts/access/AccessControl.sol\":6179:6495  function _grantRole(bytes32 role, address account) internal virtual returns (bool) {... */\n    tag_194:\n        /* \"@openzeppelin/contracts/access/AccessControl.sol\":6256:6260  bool */\n      0x00\n        /* \"@openzeppelin/contracts/access/AccessControl.sol\":6277:6299  hasRole(role, account) */\n      tag_340\n        /* \"@openzeppelin/contracts/access/AccessControl.sol\":6285:6289  role */\n      dup4\n        /* \"@openzeppelin/contracts/access/AccessControl.sol\":6291:6298  account */\n      dup4\n        /* \"@openzeppelin/contracts/access/AccessControl.sol\":6277:6284  hasRole */\n      tag_123\n        /* \"@openzeppelin/contracts/access/AccessControl.sol\":6277:6299  hasRole(role, account) */\n      jump\t// in\n    tag_340:\n        /* \"@openzeppelin/contracts/access/AccessControl.sol\":6272:6489  if (!hasRole(role, account)) {... */\n      tag_341\n      jumpi\n        /* \"@openzeppelin/contracts/access/AccessControl.sol\":6347:6351  true */\n      0x01\n        /* \"@openzeppelin/contracts/access/AccessControl.sol\":6315:6321  _roles */\n      dup1\n        /* \"@openzeppelin/contracts/access/AccessControl.sol\":6315:6327  _roles[role] */\n      0x00\n        /* \"@openzeppelin/contracts/access/AccessControl.sol\":6322:6326  role */\n      dup6\n        /* \"@openzeppelin/contracts/access/AccessControl.sol\":6315:6327  _roles[role] */\n      dup2\n      mstore\n      0x20\n      add\n      swap1\n      dup2\n      mstore\n      0x20\n      add\n      0x00\n      keccak256\n        /* \"@openzeppelin/contracts/access/AccessControl.sol\":6315:6335  _roles[role].hasRole */\n      0x00\n      add\n        /* \"@openzeppelin/contracts/access/AccessControl.sol\":6315:6344  _roles[role].hasRole[account] */\n      0x00\n        /* \"@openzeppelin/contracts/access/AccessControl.sol\":6336:6343  account */\n      dup5\n        /* \"@openzeppelin/contracts/access/AccessControl.sol\":6315:6344  _roles[role].hasRole[account] */\n      0xffffffffffffffffffffffffffffffffffffffff\n      and\n      0xffffffffffffffffffffffffffffffffffffffff\n      and\n      dup2\n      mstore\n      0x20\n      add\n      swap1\n      dup2\n      mstore\n      0x20\n      add\n      0x00\n      keccak256\n      0x00\n        /* \"@openzeppelin/contracts/access/AccessControl.sol\":6315:6351  _roles[role].hasRole[account] = true */\n      0x0100\n      exp\n      dup2\n      sload\n      dup2\n      0xff\n      mul\n      not\n      and\n      swap1\n      dup4\n      iszero\n      iszero\n      mul\n      or\n      swap1\n      sstore\n      pop\n        /* \"@openzeppelin/contracts/access/AccessControl.sol\":6397:6409  _msgSender() */\n      tag_342\n        /* \"@openzeppelin/contracts/access/AccessControl.sol\":6397:6407  _msgSender */\n      tag_197\n        /* \"@openzeppelin/contracts/access/AccessControl.sol\":6397:6409  _msgSender() */\n      jump\t// in\n    tag_342:\n        /* \"@openzeppelin/contracts/access/AccessControl.sol\":6370:6410  RoleGranted(role, account, _msgSender()) */\n      0xffffffffffffffffffffffffffffffffffffffff\n      and\n        /* \"@openzeppelin/contracts/access/AccessControl.sol\":6388:6395  account */\n      dup3\n        /* \"@openzeppelin/contracts/access/AccessControl.sol\":6370:6410  RoleGranted(role, account, _msgSender()) */\n      0xffffffffffffffffffffffffffffffffffffffff\n      and\n        /* \"@openzeppelin/contracts/access/AccessControl.sol\":6382:6386  role */\n      dup5\n        /* \"@openzeppelin/contracts/access/AccessControl.sol\":6370:6410  RoleGranted(role, account, _msgSender()) */\n      0x2f8788117e7eff1d82e926ec794901d17c78024a50270940304540a733656f0d\n      mload(0x40)\n      mload(0x40)\n      dup1\n      swap2\n      sub\n      swap1\n      log4\n        /* \"@openzeppelin/contracts/access/AccessControl.sol\":6431:6435  true */\n      0x01\n        /* \"@openzeppelin/contracts/access/AccessControl.sol\":6424:6435  return true */\n      swap1\n      pop\n      jump(tag_339)\n        /* \"@openzeppelin/contracts/access/AccessControl.sol\":6272:6489  if (!hasRole(role, account)) {... */\n    tag_341:\n        /* \"@openzeppelin/contracts/access/AccessControl.sol\":6473:6478  false */\n      0x00\n        /* \"@openzeppelin/contracts/access/AccessControl.sol\":6466:6478  return false */\n      swap1\n      pop\n        /* \"@openzeppelin/contracts/access/AccessControl.sol\":6179:6495  function _grantRole(bytes32 role, address account) internal virtual returns (bool) {... */\n    tag_339:\n      swap3\n      swap2\n      pop\n      pop\n      jump\t// out\n        /* \"@openzeppelin/contracts/utils/Context.sol\":656:752  function _msgSender() internal view virtual returns (address) {... */\n    tag_197:\n        /* \"@openzeppelin/contracts/utils/Context.sol\":709:716  address */\n      0x00\n        /* \"@openzeppelin/contracts/utils/Context.sol\":735:745  msg.sender */\n      caller\n        /* \"@openzeppelin/contracts/utils/Context.sol\":728:745  return msg.sender */\n      swap1\n      pop\n        /* \"@openzeppelin/contracts/utils/Context.sol\":656:752  function _msgSender() internal view virtual returns (address) {... */\n      swap1\n      jump\t// out\n        /* \"@openzeppelin/contracts/access/AccessControl.sol\":6730:7047  function _revokeRole(bytes32 role, address account) internal virtual returns (bool) {... */\n    tag_200:\n        /* \"@openzeppelin/contracts/access/AccessControl.sol\":6808:6812  bool */\n      0x00\n        /* \"@openzeppelin/contracts/access/AccessControl.sol\":6828:6850  hasRole(role, account) */\n      tag_346\n        /* \"@openzeppelin/contracts/access/AccessControl.sol\":6836:6840  role */\n      dup4\n        /* \"@openzeppelin/contracts/access/AccessControl.sol\":6842:6849  account */\n      dup4\n        /* \"@openzeppelin/contracts/access/AccessControl.sol\":6828:6835  hasRole */\n      tag_123\n        /* \"@openzeppelin/contracts/access/AccessControl.sol\":6828:6850  hasRole(role, account) */\n      jump\t// in\n    tag_346:\n        /* \"@openzeppelin/contracts/access/AccessControl.sol\":6824:7041  if (hasRole(role, account)) {... */\n      iszero\n      tag_347\n      jumpi\n        /* \"@openzeppelin/contracts/access/AccessControl.sol\":6898:6903  false */\n      0x00\n        /* \"@openzeppelin/contracts/access/AccessControl.sol\":6866:6872  _roles */\n      0x01\n        /* \"@openzeppelin/contracts/access/AccessControl.sol\":6866:6878  _roles[role] */\n      0x00\n        /* \"@openzeppelin/contracts/access/AccessControl.sol\":6873:6877  role */\n      dup6\n        /* \"@openzeppelin/contracts/access/AccessControl.sol\":6866:6878  _roles[role] */\n      dup2\n      mstore\n      0x20\n      add\n      swap1\n      dup2\n      mstore\n      0x20\n      add\n      0x00\n      keccak256\n        /* \"@openzeppelin/contracts/access/AccessControl.sol\":6866:6886  _roles[role].hasRole */\n      0x00\n      add\n        /* \"@openzeppelin/contracts/access/AccessControl.sol\":6866:6895  _roles[role].hasRole[account] */\n      0x00\n        /* \"@openzeppelin/contracts/access/AccessControl.sol\":6887:6894  account */\n      dup5\n        /* \"@openzeppelin/contracts/access/AccessControl.sol\":6866:6895  _roles[role].hasRole[account] */\n      0xffffffffffffffffffffffffffffffffffffffff\n      and\n      0xffffffffffffffffffffffffffffffffffffffff\n      and\n      dup2\n      mstore\n      0x20\n      add\n      swap1\n      dup2\n      mstore\n      0x20\n      add\n      0x00\n      keccak256\n      0x00\n        /* \"@openzeppelin/contracts/access/AccessControl.sol\":6866:6903  _roles[role].hasRole[account] = false */\n      0x0100\n      exp\n      dup2\n      sload\n      dup2\n      0xff\n      mul\n      not\n      and\n      swap1\n      dup4\n      iszero\n      iszero\n      mul\n      or\n      swap1\n      sstore\n      pop\n        /* \"@openzeppelin/contracts/access/AccessControl.sol\":6949:6961  _msgSender() */\n      tag_348\n        /* \"@openzeppelin/contracts/access/AccessControl.sol\":6949:6959  _msgSender */\n      tag_197\n        /* \"@openzeppelin/contracts/access/AccessControl.sol\":6949:6961  _msgSender() */\n      jump\t// in\n    tag_348:\n        /* \"@openzeppelin/contracts/access/AccessControl.sol\":6922:6962  RoleRevoked(role, account, _msgSender()) */\n      0xffffffffffffffffffffffffffffffffffffffff\n      and\n        /* \"@openzeppelin/contracts/access/AccessControl.sol\":6940:6947  account */\n      dup3\n        /* \"@openzeppelin/contracts/access/AccessControl.sol\":6922:6962  RoleRevoked(role, account, _msgSender()) */\n      0xffffffffffffffffffffffffffffffffffffffff\n      and\n        /* \"@openzeppelin/contracts/access/AccessControl.sol\":6934:6938  role */\n      dup5\n        /* \"@openzeppelin/contracts/access/AccessControl.sol\":6922:6962  RoleRevoked(role, account, _msgSender()) */\n      0xf6391f5c32d9c69d2a47ea670b442974b53935d1edc7fd64eb21e047a839171b\n      mload(0x40)\n      mload(0x40)\n      dup1\n      swap2\n      sub\n      swap1\n      log4\n        /* \"@openzeppelin/contracts/access/AccessControl.sol\":6983:6987  true */\n      0x01\n        /* \"@openzeppelin/contracts/access/AccessControl.sol\":6976:6987  return true */\n      swap1\n      pop\n      jump(tag_345)\n        /* \"@openzeppelin/contracts/access/AccessControl.sol\":6824:7041  if (hasRole(role, account)) {... */\n    tag_347:\n        /* \"@openzeppelin/contracts/access/AccessControl.sol\":7025:7030  false */\n      0x00\n        /* \"@openzeppelin/contracts/access/AccessControl.sol\":7018:7030  return false */\n      swap1\n      pop\n        /* \"@openzeppelin/contracts/access/AccessControl.sol\":6730:7047  function _revokeRole(bytes32 role, address account) internal virtual returns (bool) {... */\n    tag_345:\n      swap3\n      swap2\n      pop\n      pop\n      jump\t// out\n        /* \"@openzeppelin/contracts/utils/Pausable.sol\":2710:2827  function _unpause() internal virtual whenPaused {... */\n    tag_205:\n        /* \"@openzeppelin/contracts/utils/Pausable.sol\":1721:1737  _requirePaused() */\n      tag_351\n        /* \"@openzeppelin/contracts/utils/Pausable.sol\":1721:1735  _requirePaused */\n      tag_352\n        /* \"@openzeppelin/contracts/utils/Pausable.sol\":1721:1737  _requirePaused() */\n      jump\t// in\n    tag_351:\n        /* \"@openzeppelin/contracts/utils/Pausable.sol\":2778:2783  false */\n      0x00\n        /* \"@openzeppelin/contracts/utils/Pausable.sol\":2768:2775  _paused */\n      dup1\n      0x00\n        /* \"@openzeppelin/contracts/utils/Pausable.sol\":2768:2783  _paused = false */\n      0x0100\n      exp\n      dup2\n      sload\n      dup2\n      0xff\n      mul\n      not\n      and\n      swap1\n      dup4\n      iszero\n      iszero\n      mul\n      or\n      swap1\n      sstore\n      pop\n        /* \"@openzeppelin/contracts/utils/Pausable.sol\":2798:2820  Unpaused(_msgSender()) */\n      0x5db9ee0a495bf2e6ff9c91a7834c1ba4fdd244a5e8aa4e537bd38aeae4b073aa\n        /* \"@openzeppelin/contracts/utils/Pausable.sol\":2807:2819  _msgSender() */\n      tag_354\n        /* \"@openzeppelin/contracts/utils/Pausable.sol\":2807:2817  _msgSender */\n      tag_197\n        /* \"@openzeppelin/contracts/utils/Pausable.sol\":2807:2819  _msgSender() */\n      jump\t// in\n    tag_354:\n        /* \"@openzeppelin/contracts/utils/Pausable.sol\":2798:2820  Unpaused(_msgSender()) */\n      mload(0x40)\n      tag_355\n      swap2\n      swap1\n      tag_115\n      jump\t// in\n    tag_355:\n      mload(0x40)\n      dup1\n      swap2\n      sub\n      swap1\n      log1\n        /* \"@openzeppelin/contracts/utils/Pausable.sol\":2710:2827  function _unpause() internal virtual whenPaused {... */\n      jump\t// out\n        /* \"@openzeppelin/contracts/utils/Pausable.sol\":2463:2578  function _pause() internal virtual whenNotPaused {... */\n    tag_264:\n        /* \"@openzeppelin/contracts/utils/Pausable.sol\":1474:1493  _requireNotPaused() */\n      tag_357\n        /* \"@openzeppelin/contracts/utils/Pausable.sol\":1474:1491  _requireNotPaused */\n      tag_358\n        /* \"@openzeppelin/contracts/utils/Pausable.sol\":1474:1493  _requireNotPaused() */\n      jump\t// in\n    tag_357:\n        /* \"@openzeppelin/contracts/utils/Pausable.sol\":2532:2536  true */\n      0x01\n        /* \"@openzeppelin/contracts/utils/Pausable.sol\":2522:2529  _paused */\n      0x00\n      dup1\n        /* \"@openzeppelin/contracts/utils/Pausable.sol\":2522:2536  _paused = true */\n      0x0100\n      exp\n      dup2\n      sload\n      dup2\n      0xff\n      mul\n      not\n      and\n      swap1\n      dup4\n      iszero\n      iszero\n      mul\n      or\n      swap1\n      sstore\n      pop\n        /* \"@openzeppelin/contracts/utils/Pausable.sol\":2551:2571  Paused(_msgSender()) */\n      0x62e78cea01bee320cd4e420270b5ea74000d11b0c9f74754ebdbfc544b05a258\n        /* \"@openzeppelin/contracts/utils/Pausable.sol\":2558:2570  _msgSender() */\n      tag_360\n        /* \"@openzeppelin/contracts/utils/Pausable.sol\":2558:2568  _msgSender */\n      tag_197\n        /* \"@openzeppelin/contracts/utils/Pausable.sol\":2558:2570  _msgSender() */\n      jump\t// in\n    tag_360:\n        /* \"@openzeppelin/contracts/utils/Pausable.sol\":2551:2571  Paused(_msgSender()) */\n      mload(0x40)\n      tag_361\n      swap2\n      swap1\n      tag_115\n      jump\t// in\n    tag_361:\n      mload(0x40)\n      dup1\n      swap2\n      sub\n      swap1\n      log1\n        /* \"@openzeppelin/contracts/utils/Pausable.sol\":2463:2578  function _pause() internal virtual whenNotPaused {... */\n      jump\t// out\n        /* \"@openzeppelin/contracts/access/AccessControl.sol\":3432:3629  function _checkRole(bytes32 role, address account) internal view virtual {... */\n    tag_338:\n        /* \"@openzeppelin/contracts/access/AccessControl.sol\":3520:3542  hasRole(role, account) */\n      tag_363\n        /* \"@openzeppelin/contracts/access/AccessControl.sol\":3528:3532  role */\n      dup3\n        /* \"@openzeppelin/contracts/access/AccessControl.sol\":3534:3541  account */\n      dup3\n        /* \"@openzeppelin/contracts/access/AccessControl.sol\":3520:3527  hasRole */\n      tag_123\n        /* \"@openzeppelin/contracts/access/AccessControl.sol\":3520:3542  hasRole(role, account) */\n      jump\t// in\n    tag_363:\n        /* \"@openzeppelin/contracts/access/AccessControl.sol\":3515:3623  if (!hasRole(role, account)) {... */\n      tag_364\n      jumpi\n        /* \"@openzeppelin/contracts/access/AccessControl.sol\":3598:3605  account */\n      dup1\n        /* \"@openzeppelin/contracts/access/AccessControl.sol\":3607:3611  role */\n      dup3\n        /* \"@openzeppelin/contracts/access/AccessControl.sol\":3565:3612  AccessControlUnauthorizedAccount(account, role) */\n      mload(0x40)\n      0xe2517d3f00000000000000000000000000000000000000000000000000000000\n      dup2\n      mstore\n      0x04\n      add\n      tag_365\n      swap3\n      swap2\n      swap1\n      tag_366\n      jump\t// in\n    tag_365:\n      mload(0x40)\n      dup1\n      swap2\n      sub\n      swap1\n      revert\n        /* \"@openzeppelin/contracts/access/AccessControl.sol\":3515:3623  if (!hasRole(role, account)) {... */\n    tag_364:\n        /* \"@openzeppelin/contracts/access/AccessControl.sol\":3432:3629  function _checkRole(bytes32 role, address account) internal view virtual {... */\n      pop\n      pop\n      jump\t// out\n        /* \"@openzeppelin/contracts/utils/Pausable.sol\":2202:2328  function _requirePaused() internal view virtual {... */\n    tag_352:\n        /* \"@openzeppelin/contracts/utils/Pausable.sol\":2265:2273  paused() */\n      tag_368\n        /* \"@openzeppelin/contracts/utils/Pausable.sol\":2265:2271  paused */\n      tag_82\n        /* \"@openzeppelin/contracts/utils/Pausable.sol\":2265:2273  paused() */\n      jump\t// in\n    tag_368:\n        /* \"@openzeppelin/contracts/utils/Pausable.sol\":2260:2322  if (!paused()) {... */\n      tag_369\n      jumpi\n        /* \"@openzeppelin/contracts/utils/Pausable.sol\":2296:2311  ExpectedPause() */\n      mload(0x40)\n      0x8dfc202b00000000000000000000000000000000000000000000000000000000\n      dup2\n      mstore\n      0x04\n      add\n      mload(0x40)\n      dup1\n      swap2\n      sub\n      swap1\n      revert\n        /* \"@openzeppelin/contracts/utils/Pausable.sol\":2260:2322  if (!paused()) {... */\n    tag_369:\n        /* \"@openzeppelin/contracts/utils/Pausable.sol\":2202:2328  function _requirePaused() internal view virtual {... */\n      jump\t// out\n        /* \"@openzeppelin/contracts/utils/Pausable.sol\":2002:2130  function _requireNotPaused() internal view virtual {... */\n    tag_358:\n        /* \"@openzeppelin/contracts/utils/Pausable.sol\":2067:2075  paused() */\n      tag_371\n        /* \"@openzeppelin/contracts/utils/Pausable.sol\":2067:2073  paused */\n      tag_82\n        /* \"@openzeppelin/contracts/utils/Pausable.sol\":2067:2075  paused() */\n      jump\t// in\n    tag_371:\n        /* \"@openzeppelin/contracts/utils/Pausable.sol\":2063:2124  if (paused()) {... */\n      iszero\n      tag_372\n      jumpi\n        /* \"@openzeppelin/contracts/utils/Pausable.sol\":2098:2113  EnforcedPause() */\n      mload(0x40)\n      0xd93c066500000000000000000000000000000000000000000000000000000000\n      dup2\n      mstore\n      0x04\n      add\n      mload(0x40)\n      dup1\n      swap2\n      sub\n      swap1\n      revert\n        /* \"@openzeppelin/contracts/utils/Pausable.sol\":2063:2124  if (paused()) {... */\n    tag_372:\n        /* \"@openzeppelin/contracts/utils/Pausable.sol\":2002:2130  function _requireNotPaused() internal view virtual {... */\n      jump\t// out\n        /* \"#utility.yul\":7:82   */\n    tag_373:\n        /* \"#utility.yul\":40:46   */\n      0x00\n        /* \"#utility.yul\":73:75   */\n      0x40\n        /* \"#utility.yul\":67:76   */\n      mload\n        /* \"#utility.yul\":57:76   */\n      swap1\n      pop\n        /* \"#utility.yul\":7:82   */\n      swap1\n      jump\t// out\n        /* \"#utility.yul\":88:205   */\n    tag_374:\n        /* \"#utility.yul\":197:198   */\n      0x00\n        /* \"#utility.yul\":194:195   */\n      dup1\n        /* \"#utility.yul\":187:199   */\n      revert\n        /* \"#utility.yul\":211:328   */\n    tag_375:\n        /* \"#utility.yul\":320:321   */\n      0x00\n        /* \"#utility.yul\":317:318   */\n      dup1\n        /* \"#utility.yul\":310:322   */\n      revert\n        /* \"#utility.yul\":334:483   */\n    tag_376:\n        /* \"#utility.yul\":370:377   */\n      0x00\n        /* \"#utility.yul\":410:476   */\n      0xffffffff00000000000000000000000000000000000000000000000000000000\n        /* \"#utility.yul\":403:408   */\n      dup3\n        /* \"#utility.yul\":399:477   */\n      and\n        /* \"#utility.yul\":388:477   */\n      swap1\n      pop\n        /* \"#utility.yul\":334:483   */\n      swap2\n      swap1\n      pop\n      jump\t// out\n        /* \"#utility.yul\":489:609   */\n    tag_377:\n        /* \"#utility.yul\":561:584   */\n      tag_457\n        /* \"#utility.yul\":578:583   */\n      dup2\n        /* \"#utility.yul\":561:584   */\n      tag_376\n      jump\t// in\n    tag_457:\n        /* \"#utility.yul\":554:559   */\n      dup2\n        /* \"#utility.yul\":551:585   */\n      eq\n        /* \"#utility.yul\":541:603   */\n      tag_458\n      jumpi\n        /* \"#utility.yul\":599:600   */\n      0x00\n        /* \"#utility.yul\":596:597   */\n      dup1\n        /* \"#utility.yul\":589:601   */\n      revert\n        /* \"#utility.yul\":541:603   */\n    tag_458:\n        /* \"#utility.yul\":489:609   */\n      pop\n      jump\t// out\n        /* \"#utility.yul\":615:752   */\n    tag_378:\n        /* \"#utility.yul\":660:665   */\n      0x00\n        /* \"#utility.yul\":698:704   */\n      dup2\n        /* \"#utility.yul\":685:705   */\n      calldataload\n        /* \"#utility.yul\":676:705   */\n      swap1\n      pop\n        /* \"#utility.yul\":714:746   */\n      tag_460\n        /* \"#utility.yul\":740:745   */\n      dup2\n        /* \"#utility.yul\":714:746   */\n      tag_377\n      jump\t// in\n    tag_460:\n        /* \"#utility.yul\":615:752   */\n      swap3\n      swap2\n      pop\n      pop\n      jump\t// out\n        /* \"#utility.yul\":758:1085   */\n    tag_45:\n        /* \"#utility.yul\":816:822   */\n      0x00\n        /* \"#utility.yul\":865:867   */\n      0x20\n        /* \"#utility.yul\":853:862   */\n      dup3\n        /* \"#utility.yul\":844:851   */\n      dup5\n        /* \"#utility.yul\":840:863   */\n      sub\n        /* \"#utility.yul\":836:868   */\n      slt\n        /* \"#utility.yul\":833:952   */\n      iszero\n      tag_462\n      jumpi\n        /* \"#utility.yul\":871:950   */\n      tag_463\n      tag_374\n      jump\t// in\n    tag_463:\n        /* \"#utility.yul\":833:952   */\n    tag_462:\n        /* \"#utility.yul\":991:992   */\n      0x00\n        /* \"#utility.yul\":1016:1068   */\n      tag_464\n        /* \"#utility.yul\":1060:1067   */\n      dup5\n        /* \"#utility.yul\":1051:1057   */\n      dup3\n        /* \"#utility.yul\":1040:1049   */\n      dup6\n        /* \"#utility.yul\":1036:1058   */\n      add\n        /* \"#utility.yul\":1016:1068   */\n      tag_378\n      jump\t// in\n    tag_464:\n        /* \"#utility.yul\":1006:1068   */\n      swap2\n      pop\n        /* \"#utility.yul\":962:1078   */\n      pop\n        /* \"#utility.yul\":758:1085   */\n      swap3\n      swap2\n      pop\n      pop\n      jump\t// out\n        /* \"#utility.yul\":1091:1181   */\n    tag_379:\n        /* \"#utility.yul\":1125:1132   */\n      0x00\n        /* \"#utility.yul\":1168:1173   */\n      dup2\n        /* \"#utility.yul\":1161:1174   */\n      iszero\n        /* \"#utility.yul\":1154:1175   */\n      iszero\n        /* \"#utility.yul\":1143:1175   */\n      swap1\n      pop\n        /* \"#utility.yul\":1091:1181   */\n      swap2\n      swap1\n      pop\n      jump\t// out\n        /* \"#utility.yul\":1187:1296   */\n    tag_380:\n        /* \"#utility.yul\":1268:1289   */\n      tag_467\n        /* \"#utility.yul\":1283:1288   */\n      dup2\n        /* \"#utility.yul\":1268:1289   */\n      tag_379\n      jump\t// in\n    tag_467:\n        /* \"#utility.yul\":1263:1266   */\n      dup3\n        /* \"#utility.yul\":1256:1290   */\n      mstore\n        /* \"#utility.yul\":1187:1296   */\n      pop\n      pop\n      jump\t// out\n        /* \"#utility.yul\":1302:1512   */\n    tag_48:\n        /* \"#utility.yul\":1389:1393   */\n      0x00\n        /* \"#utility.yul\":1427:1429   */\n      0x20\n        /* \"#utility.yul\":1416:1425   */\n      dup3\n        /* \"#utility.yul\":1412:1430   */\n      add\n        /* \"#utility.yul\":1404:1430   */\n      swap1\n      pop\n        /* \"#utility.yul\":1440:1505   */\n      tag_469\n        /* \"#utility.yul\":1502:1503   */\n      0x00\n        /* \"#utility.yul\":1491:1500   */\n      dup4\n        /* \"#utility.yul\":1487:1504   */\n      add\n        /* \"#utility.yul\":1478:1484   */\n      dup5\n        /* \"#utility.yul\":1440:1505   */\n      tag_380\n      jump\t// in\n    tag_469:\n        /* \"#utility.yul\":1302:1512   */\n      swap3\n      swap2\n      pop\n      pop\n      jump\t// out\n        /* \"#utility.yul\":1518:1595   */\n    tag_381:\n        /* \"#utility.yul\":1555:1562   */\n      0x00\n        /* \"#utility.yul\":1584:1589   */\n      dup2\n        /* \"#utility.yul\":1573:1589   */\n      swap1\n      pop\n        /* \"#utility.yul\":1518:1595   */\n      swap2\n      swap1\n      pop\n      jump\t// out\n        /* \"#utility.yul\":1601:1719   */\n    tag_382:\n        /* \"#utility.yul\":1688:1712   */\n      tag_472\n        /* \"#utility.yul\":1706:1711   */\n      dup2\n        /* \"#utility.yul\":1688:1712   */\n      tag_381\n      jump\t// in\n    tag_472:\n        /* \"#utility.yul\":1683:1686   */\n      dup3\n        /* \"#utility.yul\":1676:1713   */\n      mstore\n        /* \"#utility.yul\":1601:1719   */\n      pop\n      pop\n      jump\t// out\n        /* \"#utility.yul\":1725:1947   */\n    tag_53:\n        /* \"#utility.yul\":1818:1822   */\n      0x00\n        /* \"#utility.yul\":1856:1858   */\n      0x20\n        /* \"#utility.yul\":1845:1854   */\n      dup3\n        /* \"#utility.yul\":1841:1859   */\n      add\n        /* \"#utility.yul\":1833:1859   */\n      swap1\n      pop\n        /* \"#utility.yul\":1869:1940   */\n      tag_474\n        /* \"#utility.yul\":1937:1938   */\n      0x00\n        /* \"#utility.yul\":1926:1935   */\n      dup4\n        /* \"#utility.yul\":1922:1939   */\n      add\n        /* \"#utility.yul\":1913:1919   */\n      dup5\n        /* \"#utility.yul\":1869:1940   */\n      tag_382\n      jump\t// in\n    tag_474:\n        /* \"#utility.yul\":1725:1947   */\n      swap3\n      swap2\n      pop\n      pop\n      jump\t// out\n        /* \"#utility.yul\":1953:2030   */\n    tag_383:\n        /* \"#utility.yul\":1990:1997   */\n      0x00\n        /* \"#utility.yul\":2019:2024   */\n      dup2\n        /* \"#utility.yul\":2008:2024   */\n      swap1\n      pop\n        /* \"#utility.yul\":1953:2030   */\n      swap2\n      swap1\n      pop\n      jump\t// out\n        /* \"#utility.yul\":2036:2158   */\n    tag_384:\n        /* \"#utility.yul\":2109:2133   */\n      tag_477\n        /* \"#utility.yul\":2127:2132   */\n      dup2\n        /* \"#utility.yul\":2109:2133   */\n      tag_383\n      jump\t// in\n    tag_477:\n        /* \"#utility.yul\":2102:2107   */\n      dup2\n        /* \"#utility.yul\":2099:2134   */\n      eq\n        /* \"#utility.yul\":2089:2152   */\n      tag_478\n      jumpi\n        /* \"#utility.yul\":2148:2149   */\n      0x00\n        /* \"#utility.yul\":2145:2146   */\n      dup1\n        /* \"#utility.yul\":2138:2150   */\n      revert\n        /* \"#utility.yul\":2089:2152   */\n    tag_478:\n        /* \"#utility.yul\":2036:2158   */\n      pop\n      jump\t// out\n        /* \"#utility.yul\":2164:2303   */\n    tag_385:\n        /* \"#utility.yul\":2210:2215   */\n      0x00\n        /* \"#utility.yul\":2248:2254   */\n      dup2\n        /* \"#utility.yul\":2235:2255   */\n      calldataload\n        /* \"#utility.yul\":2226:2255   */\n      swap1\n      pop\n        /* \"#utility.yul\":2264:2297   */\n      tag_480\n        /* \"#utility.yul\":2291:2296   */\n      dup2\n        /* \"#utility.yul\":2264:2297   */\n      tag_384\n      jump\t// in\n    tag_480:\n        /* \"#utility.yul\":2164:2303   */\n      swap3\n      swap2\n      pop\n      pop\n      jump\t// out\n        /* \"#utility.yul\":2309:2638   */\n    tag_57:\n        /* \"#utility.yul\":2368:2374   */\n      0x00\n        /* \"#utility.yul\":2417:2419   */\n      0x20\n        /* \"#utility.yul\":2405:2414   */\n      dup3\n        /* \"#utility.yul\":2396:2403   */\n      dup5\n        /* \"#utility.yul\":2392:2415   */\n      sub\n        /* \"#utility.yul\":2388:2420   */\n      slt\n        /* \"#utility.yul\":2385:2504   */\n      iszero\n      tag_482\n      jumpi\n        /* \"#utility.yul\":2423:2502   */\n      tag_483\n      tag_374\n      jump\t// in\n    tag_483:\n        /* \"#utility.yul\":2385:2504   */\n    tag_482:\n        /* \"#utility.yul\":2543:2544   */\n      0x00\n        /* \"#utility.yul\":2568:2621   */\n      tag_484\n        /* \"#utility.yul\":2613:2620   */\n      dup5\n        /* \"#utility.yul\":2604:2610   */\n      dup3\n        /* \"#utility.yul\":2593:2602   */\n      dup6\n        /* \"#utility.yul\":2589:2611   */\n      add\n        /* \"#utility.yul\":2568:2621   */\n      tag_385\n      jump\t// in\n    tag_484:\n        /* \"#utility.yul\":2558:2621   */\n      swap2\n      pop\n        /* \"#utility.yul\":2514:2631   */\n      pop\n        /* \"#utility.yul\":2309:2638   */\n      swap3\n      swap2\n      pop\n      pop\n      jump\t// out\n        /* \"#utility.yul\":2644:2762   */\n    tag_386:\n        /* \"#utility.yul\":2731:2755   */\n      tag_486\n        /* \"#utility.yul\":2749:2754   */\n      dup2\n        /* \"#utility.yul\":2731:2755   */\n      tag_383\n      jump\t// in\n    tag_486:\n        /* \"#utility.yul\":2726:2729   */\n      dup3\n        /* \"#utility.yul\":2719:2756   */\n      mstore\n        /* \"#utility.yul\":2644:2762   */\n      pop\n      pop\n      jump\t// out\n        /* \"#utility.yul\":2768:2990   */\n    tag_60:\n        /* \"#utility.yul\":2861:2865   */\n      0x00\n        /* \"#utility.yul\":2899:2901   */\n      0x20\n        /* \"#utility.yul\":2888:2897   */\n      dup3\n        /* \"#utility.yul\":2884:2902   */\n      add\n        /* \"#utility.yul\":2876:2902   */\n      swap1\n      pop\n        /* \"#utility.yul\":2912:2983   */\n      tag_488\n        /* \"#utility.yul\":2980:2981   */\n      0x00\n        /* \"#utility.yul\":2969:2978   */\n      dup4\n        /* \"#utility.yul\":2965:2982   */\n      add\n        /* \"#utility.yul\":2956:2962   */\n      dup5\n        /* \"#utility.yul\":2912:2983   */\n      tag_386\n      jump\t// in\n    tag_488:\n        /* \"#utility.yul\":2768:2990   */\n      swap3\n      swap2\n      pop\n      pop\n      jump\t// out\n        /* \"#utility.yul\":2996:3122   */\n    tag_387:\n        /* \"#utility.yul\":3033:3040   */\n      0x00\n        /* \"#utility.yul\":3073:3115   */\n      0xffffffffffffffffffffffffffffffffffffffff\n        /* \"#utility.yul\":3066:3071   */\n      dup3\n        /* \"#utility.yul\":3062:3116   */\n      and\n        /* \"#utility.yul\":3051:3116   */\n      swap1\n      pop\n        /* \"#utility.yul\":2996:3122   */\n      swap2\n      swap1\n      pop\n      jump\t// out\n        /* \"#utility.yul\":3128:3224   */\n    tag_388:\n        /* \"#utility.yul\":3165:3172   */\n      0x00\n        /* \"#utility.yul\":3194:3218   */\n      tag_491\n        /* \"#utility.yul\":3212:3217   */\n      dup3\n        /* \"#utility.yul\":3194:3218   */\n      tag_387\n      jump\t// in\n    tag_491:\n        /* \"#utility.yul\":3183:3218   */\n      swap1\n      pop\n        /* \"#utility.yul\":3128:3224   */\n      swap2\n      swap1\n      pop\n      jump\t// out\n        /* \"#utility.yul\":3230:3352   */\n    tag_389:\n        /* \"#utility.yul\":3303:3327   */\n      tag_493\n        /* \"#utility.yul\":3321:3326   */\n      dup2\n        /* \"#utility.yul\":3303:3327   */\n      tag_388\n      jump\t// in\n    tag_493:\n        /* \"#utility.yul\":3296:3301   */\n      dup2\n        /* \"#utility.yul\":3293:3328   */\n      eq\n        /* \"#utility.yul\":3283:3346   */\n      tag_494\n      jumpi\n        /* \"#utility.yul\":3342:3343   */\n      0x00\n        /* \"#utility.yul\":3339:3340   */\n      dup1\n        /* \"#utility.yul\":3332:3344   */\n      revert\n        /* \"#utility.yul\":3283:3346   */\n    tag_494:\n        /* \"#utility.yul\":3230:3352   */\n      pop\n      jump\t// out\n        /* \"#utility.yul\":3358:3497   */\n    tag_390:\n        /* \"#utility.yul\":3404:3409   */\n      0x00\n        /* \"#utility.yul\":3442:3448   */\n      dup2\n        /* \"#utility.yul\":3429:3449   */\n      calldataload\n        /* \"#utility.yul\":3420:3449   */\n      swap1\n      pop\n        /* \"#utility.yul\":3458:3491   */\n      tag_496\n        /* \"#utility.yul\":3485:3490   */\n      dup2\n        /* \"#utility.yul\":3458:3491   */\n      tag_389\n      jump\t// in\n    tag_496:\n        /* \"#utility.yul\":3358:3497   */\n      swap3\n      swap2\n      pop\n      pop\n      jump\t// out\n        /* \"#utility.yul\":3503:3977   */\n    tag_64:\n        /* \"#utility.yul\":3571:3577   */\n      0x00\n        /* \"#utility.yul\":3579:3585   */\n      dup1\n        /* \"#utility.yul\":3628:3630   */\n      0x40\n        /* \"#utility.yul\":3616:3625   */\n      dup4\n        /* \"#utility.yul\":3607:3614   */\n      dup6\n        /* \"#utility.yul\":3603:3626   */\n      sub\n        /* \"#utility.yul\":3599:3631   */\n      slt\n        /* \"#utility.yul\":3596:3715   */\n      iszero\n      tag_498\n      jumpi\n        /* \"#utility.yul\":3634:3713   */\n      tag_499\n      tag_374\n      jump\t// in\n    tag_499:\n        /* \"#utility.yul\":3596:3715   */\n    tag_498:\n        /* \"#utility.yul\":3754:3755   */\n      0x00\n        /* \"#utility.yul\":3779:3832   */\n      tag_500\n        /* \"#utility.yul\":3824:3831   */\n      dup6\n        /* \"#utility.yul\":3815:3821   */\n      dup3\n        /* \"#utility.yul\":3804:3813   */\n      dup7\n        /* \"#utility.yul\":3800:3822   */\n      add\n        /* \"#utility.yul\":3779:3832   */\n      tag_385\n      jump\t// in\n    tag_500:\n        /* \"#utility.yul\":3769:3832   */\n      swap3\n      pop\n        /* \"#utility.yul\":3725:3842   */\n      pop\n        /* \"#utility.yul\":3881:3883   */\n      0x20\n        /* \"#utility.yul\":3907:3960   */\n      tag_501\n        /* \"#utility.yul\":3952:3959   */\n      dup6\n        /* \"#utility.yul\":3943:3949   */\n      dup3\n        /* \"#utility.yul\":3932:3941   */\n      dup7\n        /* \"#utility.yul\":3928:3950   */\n      add\n        /* \"#utility.yul\":3907:3960   */\n      tag_390\n      jump\t// in\n    tag_501:\n        /* \"#utility.yul\":3897:3960   */\n      swap2\n      pop\n        /* \"#utility.yul\":3852:3970   */\n      pop\n        /* \"#utility.yul\":3503:3977   */\n      swap3\n      pop\n      swap3\n      swap1\n      pop\n      jump\t// out\n        /* \"#utility.yul\":3983:4100   */\n    tag_391:\n        /* \"#utility.yul\":4092:4093   */\n      0x00\n        /* \"#utility.yul\":4089:4090   */\n      dup1\n        /* \"#utility.yul\":4082:4094   */\n      revert\n        /* \"#utility.yul\":4106:4223   */\n    tag_392:\n        /* \"#utility.yul\":4215:4216   */\n      0x00\n        /* \"#utility.yul\":4212:4213   */\n      dup1\n        /* \"#utility.yul\":4205:4217   */\n      revert\n        /* \"#utility.yul\":4229:4331   */\n    tag_393:\n        /* \"#utility.yul\":4270:4276   */\n      0x00\n        /* \"#utility.yul\":4321:4323   */\n      0x1f\n        /* \"#utility.yul\":4317:4324   */\n      not\n        /* \"#utility.yul\":4312:4314   */\n      0x1f\n        /* \"#utility.yul\":4305:4310   */\n      dup4\n        /* \"#utility.yul\":4301:4315   */\n      add\n        /* \"#utility.yul\":4297:4325   */\n      and\n        /* \"#utility.yul\":4287:4325   */\n      swap1\n      pop\n        /* \"#utility.yul\":4229:4331   */\n      swap2\n      swap1\n      pop\n      jump\t// out\n        /* \"#utility.yul\":4337:4517   */\n    tag_394:\n        /* \"#utility.yul\":4385:4462   */\n      0x4e487b7100000000000000000000000000000000000000000000000000000000\n        /* \"#utility.yul\":4382:4383   */\n      0x00\n        /* \"#utility.yul\":4375:4463   */\n      mstore\n        /* \"#utility.yul\":4482:4486   */\n      0x41\n        /* \"#utility.yul\":4479:4480   */\n      0x04\n        /* \"#utility.yul\":4472:4487   */\n      mstore\n        /* \"#utility.yul\":4506:4510   */\n      0x24\n        /* \"#utility.yul\":4503:4504   */\n      0x00\n        /* \"#utility.yul\":4496:4511   */\n      revert\n        /* \"#utility.yul\":4523:4804   */\n    tag_395:\n        /* \"#utility.yul\":4606:4633   */\n      tag_507\n        /* \"#utility.yul\":4628:4632   */\n      dup3\n        /* \"#utility.yul\":4606:4633   */\n      tag_393\n      jump\t// in\n    tag_507:\n        /* \"#utility.yul\":4598:4604   */\n      dup2\n        /* \"#utility.yul\":4594:4634   */\n      add\n        /* \"#utility.yul\":4736:4742   */\n      dup2\n        /* \"#utility.yul\":4724:4734   */\n      dup2\n        /* \"#utility.yul\":4721:4743   */\n      lt\n        /* \"#utility.yul\":4700:4718   */\n      0xffffffffffffffff\n        /* \"#utility.yul\":4688:4698   */\n      dup3\n        /* \"#utility.yul\":4685:4719   */\n      gt\n        /* \"#utility.yul\":4682:4744   */\n      or\n        /* \"#utility.yul\":4679:4767   */\n      iszero\n      tag_508\n      jumpi\n        /* \"#utility.yul\":4747:4765   */\n      tag_509\n      tag_394\n      jump\t// in\n    tag_509:\n        /* \"#utility.yul\":4679:4767   */\n    tag_508:\n        /* \"#utility.yul\":4787:4797   */\n      dup1\n        /* \"#utility.yul\":4783:4785   */\n      0x40\n        /* \"#utility.yul\":4776:4798   */\n      mstore\n        /* \"#utility.yul\":4566:4804   */\n      pop\n        /* \"#utility.yul\":4523:4804   */\n      pop\n      pop\n      jump\t// out\n        /* \"#utility.yul\":4810:4939   */\n    tag_396:\n        /* \"#utility.yul\":4844:4850   */\n      0x00\n        /* \"#utility.yul\":4871:4891   */\n      tag_511\n      tag_373\n      jump\t// in\n    tag_511:\n        /* \"#utility.yul\":4861:4891   */\n      swap1\n      pop\n        /* \"#utility.yul\":4900:4933   */\n      tag_512\n        /* \"#utility.yul\":4928:4932   */\n      dup3\n        /* \"#utility.yul\":4920:4926   */\n      dup3\n        /* \"#utility.yul\":4900:4933   */\n      tag_395\n      jump\t// in\n    tag_512:\n        /* \"#utility.yul\":4810:4939   */\n      swap2\n      swap1\n      pop\n      jump\t// out\n        /* \"#utility.yul\":4945:5253   */\n    tag_397:\n        /* \"#utility.yul\":5007:5011   */\n      0x00\n        /* \"#utility.yul\":5097:5115   */\n      0xffffffffffffffff\n        /* \"#utility.yul\":5089:5095   */\n      dup3\n        /* \"#utility.yul\":5086:5116   */\n      gt\n        /* \"#utility.yul\":5083:5139   */\n      iszero\n      tag_514\n      jumpi\n        /* \"#utility.yul\":5119:5137   */\n      tag_515\n      tag_394\n      jump\t// in\n    tag_515:\n        /* \"#utility.yul\":5083:5139   */\n    tag_514:\n        /* \"#utility.yul\":5157:5186   */\n      tag_516\n        /* \"#utility.yul\":5179:5185   */\n      dup3\n        /* \"#utility.yul\":5157:5186   */\n      tag_393\n      jump\t// in\n    tag_516:\n        /* \"#utility.yul\":5149:5186   */\n      swap1\n      pop\n        /* \"#utility.yul\":5241:5245   */\n      0x20\n        /* \"#utility.yul\":5235:5239   */\n      dup2\n        /* \"#utility.yul\":5231:5246   */\n      add\n        /* \"#utility.yul\":5223:5246   */\n      swap1\n      pop\n        /* \"#utility.yul\":4945:5253   */\n      swap2\n      swap1\n      pop\n      jump\t// out\n        /* \"#utility.yul\":5259:5405   */\n    tag_398:\n        /* \"#utility.yul\":5356:5362   */\n      dup3\n        /* \"#utility.yul\":5351:5354   */\n      dup2\n        /* \"#utility.yul\":5346:5349   */\n      dup4\n        /* \"#utility.yul\":5333:5363   */\n      calldatacopy\n        /* \"#utility.yul\":5397:5398   */\n      0x00\n        /* \"#utility.yul\":5388:5394   */\n      dup4\n        /* \"#utility.yul\":5383:5386   */\n      dup4\n        /* \"#utility.yul\":5379:5395   */\n      add\n        /* \"#utility.yul\":5372:5399   */\n      mstore\n        /* \"#utility.yul\":5259:5405   */\n      pop\n      pop\n      pop\n      jump\t// out\n        /* \"#utility.yul\":5411:5836   */\n    tag_399:\n        /* \"#utility.yul\":5489:5494   */\n      0x00\n        /* \"#utility.yul\":5514:5580   */\n      tag_519\n        /* \"#utility.yul\":5530:5579   */\n      tag_520\n        /* \"#utility.yul\":5572:5578   */\n      dup5\n        /* \"#utility.yul\":5530:5579   */\n      tag_397\n      jump\t// in\n    tag_520:\n        /* \"#utility.yul\":5514:5580   */\n      tag_396\n      jump\t// in\n    tag_519:\n        /* \"#utility.yul\":5505:5580   */\n      swap1\n      pop\n        /* \"#utility.yul\":5603:5609   */\n      dup3\n        /* \"#utility.yul\":5596:5601   */\n      dup2\n        /* \"#utility.yul\":5589:5610   */\n      mstore\n        /* \"#utility.yul\":5641:5645   */\n      0x20\n        /* \"#utility.yul\":5634:5639   */\n      dup2\n        /* \"#utility.yul\":5630:5646   */\n      add\n        /* \"#utility.yul\":5679:5682   */\n      dup5\n        /* \"#utility.yul\":5670:5676   */\n      dup5\n        /* \"#utility.yul\":5665:5668   */\n      dup5\n        /* \"#utility.yul\":5661:5677   */\n      add\n        /* \"#utility.yul\":5658:5683   */\n      gt\n        /* \"#utility.yul\":5655:5767   */\n      iszero\n      tag_521\n      jumpi\n        /* \"#utility.yul\":5686:5765   */\n      tag_522\n      tag_392\n      jump\t// in\n    tag_522:\n        /* \"#utility.yul\":5655:5767   */\n    tag_521:\n        /* \"#utility.yul\":5776:5830   */\n      tag_523\n        /* \"#utility.yul\":5823:5829   */\n      dup5\n        /* \"#utility.yul\":5818:5821   */\n      dup3\n        /* \"#utility.yul\":5813:5816   */\n      dup6\n        /* \"#utility.yul\":5776:5830   */\n      tag_398\n      jump\t// in\n    tag_523:\n        /* \"#utility.yul\":5495:5836   */\n      pop\n        /* \"#utility.yul\":5411:5836   */\n      swap4\n      swap3\n      pop\n      pop\n      pop\n      jump\t// out\n        /* \"#utility.yul\":5856:6196   */\n    tag_400:\n        /* \"#utility.yul\":5912:5917   */\n      0x00\n        /* \"#utility.yul\":5961:5964   */\n      dup3\n        /* \"#utility.yul\":5954:5958   */\n      0x1f\n        /* \"#utility.yul\":5946:5952   */\n      dup4\n        /* \"#utility.yul\":5942:5959   */\n      add\n        /* \"#utility.yul\":5938:5965   */\n      slt\n        /* \"#utility.yul\":5928:6050   */\n      tag_525\n      jumpi\n        /* \"#utility.yul\":5969:6048   */\n      tag_526\n      tag_391\n      jump\t// in\n    tag_526:\n        /* \"#utility.yul\":5928:6050   */\n    tag_525:\n        /* \"#utility.yul\":6086:6092   */\n      dup2\n        /* \"#utility.yul\":6073:6093   */\n      calldataload\n        /* \"#utility.yul\":6111:6190   */\n      tag_527\n        /* \"#utility.yul\":6186:6189   */\n      dup5\n        /* \"#utility.yul\":6178:6184   */\n      dup3\n        /* \"#utility.yul\":6171:6175   */\n      0x20\n        /* \"#utility.yul\":6163:6169   */\n      dup7\n        /* \"#utility.yul\":6159:6176   */\n      add\n        /* \"#utility.yul\":6111:6190   */\n      tag_399\n      jump\t// in\n    tag_527:\n        /* \"#utility.yul\":6102:6190   */\n      swap2\n      pop\n        /* \"#utility.yul\":5918:6196   */\n      pop\n        /* \"#utility.yul\":5856:6196   */\n      swap3\n      swap2\n      pop\n      pop\n      jump\t// out\n        /* \"#utility.yul\":6202:6711   */\n    tag_76:\n        /* \"#utility.yul\":6271:6277   */\n      0x00\n        /* \"#utility.yul\":6320:6322   */\n      0x20\n        /* \"#utility.yul\":6308:6317   */\n      dup3\n        /* \"#utility.yul\":6299:6306   */\n      dup5\n        /* \"#utility.yul\":6295:6318   */\n      sub\n        /* \"#utility.yul\":6291:6323   */\n      slt\n        /* \"#utility.yul\":6288:6407   */\n      iszero\n      tag_529\n      jumpi\n        /* \"#utility.yul\":6326:6405   */\n      tag_530\n      tag_374\n      jump\t// in\n    tag_530:\n        /* \"#utility.yul\":6288:6407   */\n    tag_529:\n        /* \"#utility.yul\":6474:6475   */\n      0x00\n        /* \"#utility.yul\":6463:6472   */\n      dup3\n        /* \"#utility.yul\":6459:6476   */\n      add\n        /* \"#utility.yul\":6446:6477   */\n      calldataload\n        /* \"#utility.yul\":6504:6522   */\n      0xffffffffffffffff\n        /* \"#utility.yul\":6496:6502   */\n      dup2\n        /* \"#utility.yul\":6493:6523   */\n      gt\n        /* \"#utility.yul\":6490:6607   */\n      iszero\n      tag_531\n      jumpi\n        /* \"#utility.yul\":6526:6605   */\n      tag_532\n      tag_375\n      jump\t// in\n    tag_532:\n        /* \"#utility.yul\":6490:6607   */\n    tag_531:\n        /* \"#utility.yul\":6631:6694   */\n      tag_533\n        /* \"#utility.yul\":6686:6693   */\n      dup5\n        /* \"#utility.yul\":6677:6683   */\n      dup3\n        /* \"#utility.yul\":6666:6675   */\n      dup6\n        /* \"#utility.yul\":6662:6684   */\n      add\n        /* \"#utility.yul\":6631:6694   */\n      tag_400\n      jump\t// in\n    tag_533:\n        /* \"#utility.yul\":6621:6694   */\n      swap2\n      pop\n        /* \"#utility.yul\":6417:6704   */\n      pop\n        /* \"#utility.yul\":6202:6711   */\n      swap3\n      swap2\n      pop\n      pop\n      jump\t// out\n        /* \"#utility.yul\":6717:6835   */\n    tag_401:\n        /* \"#utility.yul\":6804:6828   */\n      tag_535\n        /* \"#utility.yul\":6822:6827   */\n      dup2\n        /* \"#utility.yul\":6804:6828   */\n      tag_388\n      jump\t// in\n    tag_535:\n        /* \"#utility.yul\":6799:6802   */\n      dup3\n        /* \"#utility.yul\":6792:6829   */\n      mstore\n        /* \"#utility.yul\":6717:6835   */\n      pop\n      pop\n      jump\t// out\n        /* \"#utility.yul\":6841:6940   */\n    tag_402:\n        /* \"#utility.yul\":6893:6899   */\n      0x00\n        /* \"#utility.yul\":6927:6932   */\n      dup2\n        /* \"#utility.yul\":6921:6933   */\n      mload\n        /* \"#utility.yul\":6911:6933   */\n      swap1\n      pop\n        /* \"#utility.yul\":6841:6940   */\n      swap2\n      swap1\n      pop\n      jump\t// out\n        /* \"#utility.yul\":6946:7115   */\n    tag_403:\n        /* \"#utility.yul\":7030:7041   */\n      0x00\n        /* \"#utility.yul\":7064:7070   */\n      dup3\n        /* \"#utility.yul\":7059:7062   */\n      dup3\n        /* \"#utility.yul\":7052:7071   */\n      mstore\n        /* \"#utility.yul\":7104:7108   */\n      0x20\n        /* \"#utility.yul\":7099:7102   */\n      dup3\n        /* \"#utility.yul\":7095:7109   */\n      add\n        /* \"#utility.yul\":7080:7109   */\n      swap1\n      pop\n        /* \"#utility.yul\":6946:7115   */\n      swap3\n      swap2\n      pop\n      pop\n      jump\t// out\n        /* \"#utility.yul\":7121:7367   */\n    tag_404:\n        /* \"#utility.yul\":7202:7203   */\n      0x00\n        /* \"#utility.yul\":7212:7325   */\n    tag_539:\n        /* \"#utility.yul\":7226:7232   */\n      dup4\n        /* \"#utility.yul\":7223:7224   */\n      dup2\n        /* \"#utility.yul\":7220:7233   */\n      lt\n        /* \"#utility.yul\":7212:7325   */\n      iszero\n      tag_541\n      jumpi\n        /* \"#utility.yul\":7311:7312   */\n      dup1\n        /* \"#utility.yul\":7306:7309   */\n      dup3\n        /* \"#utility.yul\":7302:7313   */\n      add\n        /* \"#utility.yul\":7296:7314   */\n      mload\n        /* \"#utility.yul\":7292:7293   */\n      dup2\n        /* \"#utility.yul\":7287:7290   */\n      dup5\n        /* \"#utility.yul\":7283:7294   */\n      add\n        /* \"#utility.yul\":7276:7315   */\n      mstore\n        /* \"#utility.yul\":7248:7250   */\n      0x20\n        /* \"#utility.yul\":7245:7246   */\n      dup2\n        /* \"#utility.yul\":7241:7251   */\n      add\n        /* \"#utility.yul\":7236:7251   */\n      swap1\n      pop\n        /* \"#utility.yul\":7212:7325   */\n      jump(tag_539)\n    tag_541:\n        /* \"#utility.yul\":7359:7360   */\n      0x00\n        /* \"#utility.yul\":7350:7356   */\n      dup5\n        /* \"#utility.yul\":7345:7348   */\n      dup5\n        /* \"#utility.yul\":7341:7357   */\n      add\n        /* \"#utility.yul\":7334:7361   */\n      mstore\n        /* \"#utility.yul\":7183:7367   */\n      pop\n        /* \"#utility.yul\":7121:7367   */\n      pop\n      pop\n      pop\n      jump\t// out\n        /* \"#utility.yul\":7373:7750   */\n    tag_405:\n        /* \"#utility.yul\":7461:7464   */\n      0x00\n        /* \"#utility.yul\":7489:7528   */\n      tag_543\n        /* \"#utility.yul\":7522:7527   */\n      dup3\n        /* \"#utility.yul\":7489:7528   */\n      tag_402\n      jump\t// in\n    tag_543:\n        /* \"#utility.yul\":7544:7615   */\n      tag_544\n        /* \"#utility.yul\":7608:7614   */\n      dup2\n        /* \"#utility.yul\":7603:7606   */\n      dup6\n        /* \"#utility.yul\":7544:7615   */\n      tag_403\n      jump\t// in\n    tag_544:\n        /* \"#utility.yul\":7537:7615   */\n      swap4\n      pop\n        /* \"#utility.yul\":7624:7689   */\n      tag_545\n        /* \"#utility.yul\":7682:7688   */\n      dup2\n        /* \"#utility.yul\":7677:7680   */\n      dup6\n        /* \"#utility.yul\":7670:7674   */\n      0x20\n        /* \"#utility.yul\":7663:7668   */\n      dup7\n        /* \"#utility.yul\":7659:7675   */\n      add\n        /* \"#utility.yul\":7624:7689   */\n      tag_404\n      jump\t// in\n    tag_545:\n        /* \"#utility.yul\":7714:7743   */\n      tag_546\n        /* \"#utility.yul\":7736:7742   */\n      dup2\n        /* \"#utility.yul\":7714:7743   */\n      tag_393\n      jump\t// in\n    tag_546:\n        /* \"#utility.yul\":7709:7712   */\n      dup5\n        /* \"#utility.yul\":7705:7744   */\n      add\n        /* \"#utility.yul\":7698:7744   */\n      swap2\n      pop\n        /* \"#utility.yul\":7465:7750   */\n      pop\n        /* \"#utility.yul\":7373:7750   */\n      swap3\n      swap2\n      pop\n      pop\n      jump\t// out\n        /* \"#utility.yul\":7756:7832   */\n    tag_406:\n        /* \"#utility.yul\":7792:7799   */\n      0x00\n        /* \"#utility.yul\":7821:7826   */\n      dup2\n        /* \"#utility.yul\":7810:7826   */\n      swap1\n      pop\n        /* \"#utility.yul\":7756:7832   */\n      swap2\n      swap1\n      pop\n      jump\t// out\n        /* \"#utility.yul\":7838:7953   */\n    tag_407:\n        /* \"#utility.yul\":7923:7946   */\n      tag_549\n        /* \"#utility.yul\":7940:7945   */\n      dup2\n        /* \"#utility.yul\":7923:7946   */\n      tag_406\n      jump\t// in\n    tag_549:\n        /* \"#utility.yul\":7918:7921   */\n      dup3\n        /* \"#utility.yul\":7911:7947   */\n      mstore\n        /* \"#utility.yul\":7838:7953   */\n      pop\n      pop\n      jump\t// out\n        /* \"#utility.yul\":7959:9106   */\n    tag_79:\n        /* \"#utility.yul\":8272:8276   */\n      0x00\n        /* \"#utility.yul\":8310:8313   */\n      0x0100\n        /* \"#utility.yul\":8299:8308   */\n      dup3\n        /* \"#utility.yul\":8295:8314   */\n      add\n        /* \"#utility.yul\":8287:8314   */\n      swap1\n      pop\n        /* \"#utility.yul\":8324:8395   */\n      tag_551\n        /* \"#utility.yul\":8392:8393   */\n      0x00\n        /* \"#utility.yul\":8381:8390   */\n      dup4\n        /* \"#utility.yul\":8377:8394   */\n      add\n        /* \"#utility.yul\":8368:8374   */\n      dup12\n        /* \"#utility.yul\":8324:8395   */\n      tag_401\n      jump\t// in\n    tag_551:\n        /* \"#utility.yul\":8405:8477   */\n      tag_552\n        /* \"#utility.yul\":8473:8475   */\n      0x20\n        /* \"#utility.yul\":8462:8471   */\n      dup4\n        /* \"#utility.yul\":8458:8476   */\n      add\n        /* \"#utility.yul\":8449:8455   */\n      dup11\n        /* \"#utility.yul\":8405:8477   */\n      tag_401\n      jump\t// in\n    tag_552:\n        /* \"#utility.yul\":8524:8533   */\n      dup2\n        /* \"#utility.yul\":8518:8522   */\n      dup2\n        /* \"#utility.yul\":8514:8534   */\n      sub\n        /* \"#utility.yul\":8509:8511   */\n      0x40\n        /* \"#utility.yul\":8498:8507   */\n      dup4\n        /* \"#utility.yul\":8494:8512   */\n      add\n        /* \"#utility.yul\":8487:8535   */\n      mstore\n        /* \"#utility.yul\":8552:8630   */\n      tag_553\n        /* \"#utility.yul\":8625:8629   */\n      dup2\n        /* \"#utility.yul\":8616:8622   */\n      dup10\n        /* \"#utility.yul\":8552:8630   */\n      tag_405\n      jump\t// in\n    tag_553:\n        /* \"#utility.yul\":8544:8630   */\n      swap1\n      pop\n        /* \"#utility.yul\":8640:8710   */\n      tag_554\n        /* \"#utility.yul\":8706:8708   */\n      0x60\n        /* \"#utility.yul\":8695:8704   */\n      dup4\n        /* \"#utility.yul\":8691:8709   */\n      add\n        /* \"#utility.yul\":8682:8688   */\n      dup9\n        /* \"#utility.yul\":8640:8710   */\n      tag_407\n      jump\t// in\n    tag_554:\n        /* \"#utility.yul\":8720:8791   */\n      tag_555\n        /* \"#utility.yul\":8786:8789   */\n      0x80\n        /* \"#utility.yul\":8775:8784   */\n      dup4\n        /* \"#utility.yul\":8771:8790   */\n      add\n        /* \"#utility.yul\":8762:8768   */\n      dup8\n        /* \"#utility.yul\":8720:8791   */\n      tag_407\n      jump\t// in\n    tag_555:\n        /* \"#utility.yul\":8839:8848   */\n      dup2\n        /* \"#utility.yul\":8833:8837   */\n      dup2\n        /* \"#utility.yul\":8829:8849   */\n      sub\n        /* \"#utility.yul\":8823:8826   */\n      0xa0\n        /* \"#utility.yul\":8812:8821   */\n      dup4\n        /* \"#utility.yul\":8808:8827   */\n      add\n        /* \"#utility.yul\":8801:8850   */\n      mstore\n        /* \"#utility.yul\":8867:8945   */\n      tag_556\n        /* \"#utility.yul\":8940:8944   */\n      dup2\n        /* \"#utility.yul\":8931:8937   */\n      dup7\n        /* \"#utility.yul\":8867:8945   */\n      tag_405\n      jump\t// in\n    tag_556:\n        /* \"#utility.yul\":8859:8945   */\n      swap1\n      pop\n        /* \"#utility.yul\":8955:9022   */\n      tag_557\n        /* \"#utility.yul\":9017:9020   */\n      0xc0\n        /* \"#utility.yul\":9006:9015   */\n      dup4\n        /* \"#utility.yul\":9002:9021   */\n      add\n        /* \"#utility.yul\":8993:8999   */\n      dup6\n        /* \"#utility.yul\":8955:9022   */\n      tag_380\n      jump\t// in\n    tag_557:\n        /* \"#utility.yul\":9032:9099   */\n      tag_558\n        /* \"#utility.yul\":9094:9097   */\n      0xe0\n        /* \"#utility.yul\":9083:9092   */\n      dup4\n        /* \"#utility.yul\":9079:9098   */\n      add\n        /* \"#utility.yul\":9070:9076   */\n      dup5\n        /* \"#utility.yul\":9032:9099   */\n      tag_380\n      jump\t// in\n    tag_558:\n        /* \"#utility.yul\":7959:9106   */\n      swap10\n      swap9\n      pop\n      pop\n      pop\n      pop\n      pop\n      pop\n      pop\n      pop\n      pop\n      jump\t// out\n        /* \"#utility.yul\":9112:9234   */\n    tag_408:\n        /* \"#utility.yul\":9185:9209   */\n      tag_560\n        /* \"#utility.yul\":9203:9208   */\n      dup2\n        /* \"#utility.yul\":9185:9209   */\n      tag_381\n      jump\t// in\n    tag_560:\n        /* \"#utility.yul\":9178:9183   */\n      dup2\n        /* \"#utility.yul\":9175:9210   */\n      eq\n        /* \"#utility.yul\":9165:9228   */\n      tag_561\n      jumpi\n        /* \"#utility.yul\":9224:9225   */\n      0x00\n        /* \"#utility.yul\":9221:9222   */\n      dup1\n        /* \"#utility.yul\":9214:9226   */\n      revert\n        /* \"#utility.yul\":9165:9228   */\n    tag_561:\n        /* \"#utility.yul\":9112:9234   */\n      pop\n      jump\t// out\n        /* \"#utility.yul\":9240:9379   */\n    tag_409:\n        /* \"#utility.yul\":9286:9291   */\n      0x00\n        /* \"#utility.yul\":9324:9330   */\n      dup2\n        /* \"#utility.yul\":9311:9331   */\n      calldataload\n        /* \"#utility.yul\":9302:9331   */\n      swap1\n      pop\n        /* \"#utility.yul\":9340:9373   */\n      tag_563\n        /* \"#utility.yul\":9367:9372   */\n      dup2\n        /* \"#utility.yul\":9340:9373   */\n      tag_408\n      jump\t// in\n    tag_563:\n        /* \"#utility.yul\":9240:9379   */\n      swap3\n      swap2\n      pop\n      pop\n      jump\t// out\n        /* \"#utility.yul\":9385:9714   */\n    tag_87:\n        /* \"#utility.yul\":9444:9450   */\n      0x00\n        /* \"#utility.yul\":9493:9495   */\n      0x20\n        /* \"#utility.yul\":9481:9490   */\n      dup3\n        /* \"#utility.yul\":9472:9479   */\n      dup5\n        /* \"#utility.yul\":9468:9491   */\n      sub\n        /* \"#utility.yul\":9464:9496   */\n      slt\n        /* \"#utility.yul\":9461:9580   */\n      iszero\n      tag_565\n      jumpi\n        /* \"#utility.yul\":9499:9578   */\n      tag_566\n      tag_374\n      jump\t// in\n    tag_566:\n        /* \"#utility.yul\":9461:9580   */\n    tag_565:\n        /* \"#utility.yul\":9619:9620   */\n      0x00\n        /* \"#utility.yul\":9644:9697   */\n      tag_567\n        /* \"#utility.yul\":9689:9696   */\n      dup5\n        /* \"#utility.yul\":9680:9686   */\n      dup3\n        /* \"#utility.yul\":9669:9678   */\n      dup6\n        /* \"#utility.yul\":9665:9687   */\n      add\n        /* \"#utility.yul\":9644:9697   */\n      tag_409\n      jump\t// in\n    tag_567:\n        /* \"#utility.yul\":9634:9697   */\n      swap2\n      pop\n        /* \"#utility.yul\":9590:9707   */\n      pop\n        /* \"#utility.yul\":9385:9714   */\n      swap3\n      swap2\n      pop\n      pop\n      jump\t// out\n        /* \"#utility.yul\":9720:9840   */\n    tag_410:\n        /* \"#utility.yul\":9792:9815   */\n      tag_569\n        /* \"#utility.yul\":9809:9814   */\n      dup2\n        /* \"#utility.yul\":9792:9815   */\n      tag_406\n      jump\t// in\n    tag_569:\n        /* \"#utility.yul\":9785:9790   */\n      dup2\n        /* \"#utility.yul\":9782:9816   */\n      eq\n        /* \"#utility.yul\":9772:9834   */\n      tag_570\n      jumpi\n        /* \"#utility.yul\":9830:9831   */\n      0x00\n        /* \"#utility.yul\":9827:9828   */\n      dup1\n        /* \"#utility.yul\":9820:9832   */\n      revert\n        /* \"#utility.yul\":9772:9834   */\n    tag_570:\n        /* \"#utility.yul\":9720:9840   */\n      pop\n      jump\t// out\n        /* \"#utility.yul\":9846:9983   */\n    tag_411:\n        /* \"#utility.yul\":9891:9896   */\n      0x00\n        /* \"#utility.yul\":9929:9935   */\n      dup2\n        /* \"#utility.yul\":9916:9936   */\n      calldataload\n        /* \"#utility.yul\":9907:9936   */\n      swap1\n      pop\n        /* \"#utility.yul\":9945:9977   */\n      tag_572\n        /* \"#utility.yul\":9971:9976   */\n      dup2\n        /* \"#utility.yul\":9945:9977   */\n      tag_410\n      jump\t// in\n    tag_572:\n        /* \"#utility.yul\":9846:9983   */\n      swap3\n      swap2\n      pop\n      pop\n      jump\t// out\n        /* \"#utility.yul\":9989:10641   */\n    tag_92:\n        /* \"#utility.yul\":10066:10072   */\n      0x00\n        /* \"#utility.yul\":10074:10080   */\n      dup1\n        /* \"#utility.yul\":10123:10125   */\n      0x40\n        /* \"#utility.yul\":10111:10120   */\n      dup4\n        /* \"#utility.yul\":10102:10109   */\n      dup6\n        /* \"#utility.yul\":10098:10121   */\n      sub\n        /* \"#utility.yul\":10094:10126   */\n      slt\n        /* \"#utility.yul\":10091:10210   */\n      iszero\n      tag_574\n      jumpi\n        /* \"#utility.yul\":10129:10208   */\n      tag_575\n      tag_374\n      jump\t// in\n    tag_575:\n        /* \"#utility.yul\":10091:10210   */\n    tag_574:\n        /* \"#utility.yul\":10249:10250   */\n      0x00\n        /* \"#utility.yul\":10274:10326   */\n      tag_576\n        /* \"#utility.yul\":10318:10325   */\n      dup6\n        /* \"#utility.yul\":10309:10315   */\n      dup3\n        /* \"#utility.yul\":10298:10307   */\n      dup7\n        /* \"#utility.yul\":10294:10316   */\n      add\n        /* \"#utility.yul\":10274:10326   */\n      tag_411\n      jump\t// in\n    tag_576:\n        /* \"#utility.yul\":10264:10326   */\n      swap3\n      pop\n        /* \"#utility.yul\":10220:10336   */\n      pop\n        /* \"#utility.yul\":10403:10405   */\n      0x20\n        /* \"#utility.yul\":10392:10401   */\n      dup4\n        /* \"#utility.yul\":10388:10406   */\n      add\n        /* \"#utility.yul\":10375:10407   */\n      calldataload\n        /* \"#utility.yul\":10434:10452   */\n      0xffffffffffffffff\n        /* \"#utility.yul\":10426:10432   */\n      dup2\n        /* \"#utility.yul\":10423:10453   */\n      gt\n        /* \"#utility.yul\":10420:10537   */\n      iszero\n      tag_577\n      jumpi\n        /* \"#utility.yul\":10456:10535   */\n      tag_578\n      tag_375\n      jump\t// in\n    tag_578:\n        /* \"#utility.yul\":10420:10537   */\n    tag_577:\n        /* \"#utility.yul\":10561:10624   */\n      tag_579\n        /* \"#utility.yul\":10616:10623   */\n      dup6\n        /* \"#utility.yul\":10607:10613   */\n      dup3\n        /* \"#utility.yul\":10596:10605   */\n      dup7\n        /* \"#utility.yul\":10592:10614   */\n      add\n        /* \"#utility.yul\":10561:10624   */\n      tag_400\n      jump\t// in\n    tag_579:\n        /* \"#utility.yul\":10551:10624   */\n      swap2\n      pop\n        /* \"#utility.yul\":10346:10634   */\n      pop\n        /* \"#utility.yul\":9989:10641   */\n      swap3\n      pop\n      swap3\n      swap1\n      pop\n      jump\t// out\n        /* \"#utility.yul\":10647:11299   */\n    tag_97:\n        /* \"#utility.yul\":10724:10730   */\n      0x00\n        /* \"#utility.yul\":10732:10738   */\n      dup1\n        /* \"#utility.yul\":10781:10783   */\n      0x40\n        /* \"#utility.yul\":10769:10778   */\n      dup4\n        /* \"#utility.yul\":10760:10767   */\n      dup6\n        /* \"#utility.yul\":10756:10779   */\n      sub\n        /* \"#utility.yul\":10752:10784   */\n      slt\n        /* \"#utility.yul\":10749:10868   */\n      iszero\n      tag_581\n      jumpi\n        /* \"#utility.yul\":10787:10866   */\n      tag_582\n      tag_374\n      jump\t// in\n    tag_582:\n        /* \"#utility.yul\":10749:10868   */\n    tag_581:\n        /* \"#utility.yul\":10935:10936   */\n      0x00\n        /* \"#utility.yul\":10924:10933   */\n      dup4\n        /* \"#utility.yul\":10920:10937   */\n      add\n        /* \"#utility.yul\":10907:10938   */\n      calldataload\n        /* \"#utility.yul\":10965:10983   */\n      0xffffffffffffffff\n        /* \"#utility.yul\":10957:10963   */\n      dup2\n        /* \"#utility.yul\":10954:10984   */\n      gt\n        /* \"#utility.yul\":10951:11068   */\n      iszero\n      tag_583\n      jumpi\n        /* \"#utility.yul\":10987:11066   */\n      tag_584\n      tag_375\n      jump\t// in\n    tag_584:\n        /* \"#utility.yul\":10951:11068   */\n    tag_583:\n        /* \"#utility.yul\":11092:11155   */\n      tag_585\n        /* \"#utility.yul\":11147:11154   */\n      dup6\n        /* \"#utility.yul\":11138:11144   */\n      dup3\n        /* \"#utility.yul\":11127:11136   */\n      dup7\n        /* \"#utility.yul\":11123:11145   */\n      add\n        /* \"#utility.yul\":11092:11155   */\n      tag_400\n      jump\t// in\n    tag_585:\n        /* \"#utility.yul\":11082:11155   */\n      swap3\n      pop\n        /* \"#utility.yul\":10878:11165   */\n      pop\n        /* \"#utility.yul\":11204:11206   */\n      0x20\n        /* \"#utility.yul\":11230:11282   */\n      tag_586\n        /* \"#utility.yul\":11274:11281   */\n      dup6\n        /* \"#utility.yul\":11265:11271   */\n      dup3\n        /* \"#utility.yul\":11254:11263   */\n      dup7\n        /* \"#utility.yul\":11250:11272   */\n      add\n        /* \"#utility.yul\":11230:11282   */\n      tag_411\n      jump\t// in\n    tag_586:\n        /* \"#utility.yul\":11220:11282   */\n      swap2\n      pop\n        /* \"#utility.yul\":11175:11292   */\n      pop\n        /* \"#utility.yul\":10647:11299   */\n      swap3\n      pop\n      swap3\n      swap1\n      pop\n      jump\t// out\n        /* \"#utility.yul\":11305:12572   */\n    tag_109:\n        /* \"#utility.yul\":11418:11424   */\n      0x00\n        /* \"#utility.yul\":11426:11432   */\n      dup1\n        /* \"#utility.yul\":11434:11440   */\n      0x00\n        /* \"#utility.yul\":11442:11448   */\n      dup1\n        /* \"#utility.yul\":11450:11456   */\n      0x00\n        /* \"#utility.yul\":11499:11502   */\n      0xa0\n        /* \"#utility.yul\":11487:11496   */\n      dup7\n        /* \"#utility.yul\":11478:11485   */\n      dup9\n        /* \"#utility.yul\":11474:11497   */\n      sub\n        /* \"#utility.yul\":11470:11503   */\n      slt\n        /* \"#utility.yul\":11467:11587   */\n      iszero\n      tag_588\n      jumpi\n        /* \"#utility.yul\":11506:11585   */\n      tag_589\n      tag_374\n      jump\t// in\n    tag_589:\n        /* \"#utility.yul\":11467:11587   */\n    tag_588:\n        /* \"#utility.yul\":11626:11627   */\n      0x00\n        /* \"#utility.yul\":11651:11704   */\n      tag_590\n        /* \"#utility.yul\":11696:11703   */\n      dup9\n        /* \"#utility.yul\":11687:11693   */\n      dup3\n        /* \"#utility.yul\":11676:11685   */\n      dup10\n        /* \"#utility.yul\":11672:11694   */\n      add\n        /* \"#utility.yul\":11651:11704   */\n      tag_390\n      jump\t// in\n    tag_590:\n        /* \"#utility.yul\":11641:11704   */\n      swap6\n      pop\n        /* \"#utility.yul\":11597:11714   */\n      pop\n        /* \"#utility.yul\":11781:11783   */\n      0x20\n        /* \"#utility.yul\":11770:11779   */\n      dup7\n        /* \"#utility.yul\":11766:11784   */\n      add\n        /* \"#utility.yul\":11753:11785   */\n      calldataload\n        /* \"#utility.yul\":11812:11830   */\n      0xffffffffffffffff\n        /* \"#utility.yul\":11804:11810   */\n      dup2\n        /* \"#utility.yul\":11801:11831   */\n      gt\n        /* \"#utility.yul\":11798:11915   */\n      iszero\n      tag_591\n      jumpi\n        /* \"#utility.yul\":11834:11913   */\n      tag_592\n      tag_375\n      jump\t// in\n    tag_592:\n        /* \"#utility.yul\":11798:11915   */\n    tag_591:\n        /* \"#utility.yul\":11939:12002   */\n      tag_593\n        /* \"#utility.yul\":11994:12001   */\n      dup9\n        /* \"#utility.yul\":11985:11991   */\n      dup3\n        /* \"#utility.yul\":11974:11983   */\n      dup10\n        /* \"#utility.yul\":11970:11992   */\n      add\n        /* \"#utility.yul\":11939:12002   */\n      tag_400\n      jump\t// in\n    tag_593:\n        /* \"#utility.yul\":11929:12002   */\n      swap5\n      pop\n        /* \"#utility.yul\":11724:12012   */\n      pop\n        /* \"#utility.yul\":12051:12053   */\n      0x40\n        /* \"#utility.yul\":12077:12129   */\n      tag_594\n        /* \"#utility.yul\":12121:12128   */\n      dup9\n        /* \"#utility.yul\":12112:12118   */\n      dup3\n        /* \"#utility.yul\":12101:12110   */\n      dup10\n        /* \"#utility.yul\":12097:12119   */\n      add\n        /* \"#utility.yul\":12077:12129   */\n      tag_411\n      jump\t// in\n    tag_594:\n        /* \"#utility.yul\":12067:12129   */\n      swap4\n      pop\n        /* \"#utility.yul\":12022:12139   */\n      pop\n        /* \"#utility.yul\":12178:12180   */\n      0x60\n        /* \"#utility.yul\":12204:12256   */\n      tag_595\n        /* \"#utility.yul\":12248:12255   */\n      dup9\n        /* \"#utility.yul\":12239:12245   */\n      dup3\n        /* \"#utility.yul\":12228:12237   */\n      dup10\n        /* \"#utility.yul\":12224:12246   */\n      add\n        /* \"#utility.yul\":12204:12256   */\n      tag_411\n      jump\t// in\n    tag_595:\n        /* \"#utility.yul\":12194:12256   */\n      swap3\n      pop\n        /* \"#utility.yul\":12149:12266   */\n      pop\n        /* \"#utility.yul\":12333:12336   */\n      0x80\n        /* \"#utility.yul\":12322:12331   */\n      dup7\n        /* \"#utility.yul\":12318:12337   */\n      add\n        /* \"#utility.yul\":12305:12338   */\n      calldataload\n        /* \"#utility.yul\":12365:12383   */\n      0xffffffffffffffff\n        /* \"#utility.yul\":12357:12363   */\n      dup2\n        /* \"#utility.yul\":12354:12384   */\n      gt\n        /* \"#utility.yul\":12351:12468   */\n      iszero\n      tag_596\n      jumpi\n        /* \"#utility.yul\":12387:12466   */\n      tag_597\n      tag_375\n      jump\t// in\n    tag_597:\n        /* \"#utility.yul\":12351:12468   */\n    tag_596:\n        /* \"#utility.yul\":12492:12555   */\n      tag_598\n        /* \"#utility.yul\":12547:12554   */\n      dup9\n        /* \"#utility.yul\":12538:12544   */\n      dup3\n        /* \"#utility.yul\":12527:12536   */\n      dup10\n        /* \"#utility.yul\":12523:12545   */\n      add\n        /* \"#utility.yul\":12492:12555   */\n      tag_400\n      jump\t// in\n    tag_598:\n        /* \"#utility.yul\":12482:12555   */\n      swap2\n      pop\n        /* \"#utility.yul\":12276:12565   */\n      pop\n        /* \"#utility.yul\":11305:12572   */\n      swap3\n      swap6\n      pop\n      swap3\n      swap6\n      swap1\n      swap4\n      pop\n      jump\t// out\n        /* \"#utility.yul\":12578:12800   */\n    tag_115:\n        /* \"#utility.yul\":12671:12675   */\n      0x00\n        /* \"#utility.yul\":12709:12711   */\n      0x20\n        /* \"#utility.yul\":12698:12707   */\n      dup3\n        /* \"#utility.yul\":12694:12712   */\n      add\n        /* \"#utility.yul\":12686:12712   */\n      swap1\n      pop\n        /* \"#utility.yul\":12722:12793   */\n      tag_600\n        /* \"#utility.yul\":12790:12791   */\n      0x00\n        /* \"#utility.yul\":12779:12788   */\n      dup4\n        /* \"#utility.yul\":12775:12792   */\n      add\n        /* \"#utility.yul\":12766:12772   */\n      dup5\n        /* \"#utility.yul\":12722:12793   */\n      tag_401\n      jump\t// in\n    tag_600:\n        /* \"#utility.yul\":12578:12800   */\n      swap3\n      swap2\n      pop\n      pop\n      jump\t// out\n        /* \"#utility.yul\":12806:12922   */\n    tag_412:\n        /* \"#utility.yul\":12876:12897   */\n      tag_602\n        /* \"#utility.yul\":12891:12896   */\n      dup2\n        /* \"#utility.yul\":12876:12897   */\n      tag_379\n      jump\t// in\n    tag_602:\n        /* \"#utility.yul\":12869:12874   */\n      dup2\n        /* \"#utility.yul\":12866:12898   */\n      eq\n        /* \"#utility.yul\":12856:12916   */\n      tag_603\n      jumpi\n        /* \"#utility.yul\":12912:12913   */\n      0x00\n        /* \"#utility.yul\":12909:12910   */\n      dup1\n        /* \"#utility.yul\":12902:12914   */\n      revert\n        /* \"#utility.yul\":12856:12916   */\n    tag_603:\n        /* \"#utility.yul\":12806:12922   */\n      pop\n      jump\t// out\n        /* \"#utility.yul\":12928:13061   */\n    tag_413:\n        /* \"#utility.yul\":12971:12976   */\n      0x00\n        /* \"#utility.yul\":13009:13015   */\n      dup2\n        /* \"#utility.yul\":12996:13016   */\n      calldataload\n        /* \"#utility.yul\":12987:13016   */\n      swap1\n      pop\n        /* \"#utility.yul\":13025:13055   */\n      tag_605\n        /* \"#utility.yul\":13049:13054   */\n      dup2\n        /* \"#utility.yul\":13025:13055   */\n      tag_412\n      jump\t// in\n    tag_605:\n        /* \"#utility.yul\":12928:13061   */\n      swap3\n      swap2\n      pop\n      pop\n      jump\t// out\n        /* \"#utility.yul\":13067:13535   */\n    tag_147:\n        /* \"#utility.yul\":13132:13138   */\n      0x00\n        /* \"#utility.yul\":13140:13146   */\n      dup1\n        /* \"#utility.yul\":13189:13191   */\n      0x40\n        /* \"#utility.yul\":13177:13186   */\n      dup4\n        /* \"#utility.yul\":13168:13175   */\n      dup6\n        /* \"#utility.yul\":13164:13187   */\n      sub\n        /* \"#utility.yul\":13160:13192   */\n      slt\n        /* \"#utility.yul\":13157:13276   */\n      iszero\n      tag_607\n      jumpi\n        /* \"#utility.yul\":13195:13274   */\n      tag_608\n      tag_374\n      jump\t// in\n    tag_608:\n        /* \"#utility.yul\":13157:13276   */\n    tag_607:\n        /* \"#utility.yul\":13315:13316   */\n      0x00\n        /* \"#utility.yul\":13340:13393   */\n      tag_609\n        /* \"#utility.yul\":13385:13392   */\n      dup6\n        /* \"#utility.yul\":13376:13382   */\n      dup3\n        /* \"#utility.yul\":13365:13374   */\n      dup7\n        /* \"#utility.yul\":13361:13383   */\n      add\n        /* \"#utility.yul\":13340:13393   */\n      tag_409\n      jump\t// in\n    tag_609:\n        /* \"#utility.yul\":13330:13393   */\n      swap3\n      pop\n        /* \"#utility.yul\":13286:13403   */\n      pop\n        /* \"#utility.yul\":13442:13444   */\n      0x20\n        /* \"#utility.yul\":13468:13518   */\n      tag_610\n        /* \"#utility.yul\":13510:13517   */\n      dup6\n        /* \"#utility.yul\":13501:13507   */\n      dup3\n        /* \"#utility.yul\":13490:13499   */\n      dup7\n        /* \"#utility.yul\":13486:13508   */\n      add\n        /* \"#utility.yul\":13468:13518   */\n      tag_413\n      jump\t// in\n    tag_610:\n        /* \"#utility.yul\":13458:13518   */\n      swap2\n      pop\n        /* \"#utility.yul\":13413:13528   */\n      pop\n        /* \"#utility.yul\":13067:13535   */\n      swap3\n      pop\n      swap3\n      swap1\n      pop\n      jump\t// out\n        /* \"#utility.yul\":13541:13854   */\n    tag_171:\n        /* \"#utility.yul\":13654:13658   */\n      0x00\n        /* \"#utility.yul\":13692:13694   */\n      0x20\n        /* \"#utility.yul\":13681:13690   */\n      dup3\n        /* \"#utility.yul\":13677:13695   */\n      add\n        /* \"#utility.yul\":13669:13695   */\n      swap1\n      pop\n        /* \"#utility.yul\":13741:13750   */\n      dup2\n        /* \"#utility.yul\":13735:13739   */\n      dup2\n        /* \"#utility.yul\":13731:13751   */\n      sub\n        /* \"#utility.yul\":13727:13728   */\n      0x00\n        /* \"#utility.yul\":13716:13725   */\n      dup4\n        /* \"#utility.yul\":13712:13729   */\n      add\n        /* \"#utility.yul\":13705:13752   */\n      mstore\n        /* \"#utility.yul\":13769:13847   */\n      tag_612\n        /* \"#utility.yul\":13842:13846   */\n      dup2\n        /* \"#utility.yul\":13833:13839   */\n      dup5\n        /* \"#utility.yul\":13769:13847   */\n      tag_405\n      jump\t// in\n    tag_612:\n        /* \"#utility.yul\":13761:13847   */\n      swap1\n      pop\n        /* \"#utility.yul\":13541:13854   */\n      swap3\n      swap2\n      pop\n      pop\n      jump\t// out\n        /* \"#utility.yul\":13860:14032   */\n    tag_414:\n        /* \"#utility.yul\":14000:14024   */\n      0x4e6f742074686520636f6e7472616374206f776e657200000000000000000000\n        /* \"#utility.yul\":13996:13997   */\n      0x00\n        /* \"#utility.yul\":13988:13994   */\n      dup3\n        /* \"#utility.yul\":13984:13998   */\n      add\n        /* \"#utility.yul\":13977:14025   */\n      mstore\n        /* \"#utility.yul\":13860:14032   */\n      pop\n      jump\t// out\n        /* \"#utility.yul\":14038:14404   */\n    tag_415:\n        /* \"#utility.yul\":14180:14183   */\n      0x00\n        /* \"#utility.yul\":14201:14268   */\n      tag_615\n        /* \"#utility.yul\":14265:14267   */\n      0x16\n        /* \"#utility.yul\":14260:14263   */\n      dup4\n        /* \"#utility.yul\":14201:14268   */\n      tag_403\n      jump\t// in\n    tag_615:\n        /* \"#utility.yul\":14194:14268   */\n      swap2\n      pop\n        /* \"#utility.yul\":14277:14370   */\n      tag_616\n        /* \"#utility.yul\":14366:14369   */\n      dup3\n        /* \"#utility.yul\":14277:14370   */\n      tag_414\n      jump\t// in\n    tag_616:\n        /* \"#utility.yul\":14395:14397   */\n      0x20\n        /* \"#utility.yul\":14390:14393   */\n      dup3\n        /* \"#utility.yul\":14386:14398   */\n      add\n        /* \"#utility.yul\":14379:14398   */\n      swap1\n      pop\n        /* \"#utility.yul\":14038:14404   */\n      swap2\n      swap1\n      pop\n      jump\t// out\n        /* \"#utility.yul\":14410:14829   */\n    tag_175:\n        /* \"#utility.yul\":14576:14580   */\n      0x00\n        /* \"#utility.yul\":14614:14616   */\n      0x20\n        /* \"#utility.yul\":14603:14612   */\n      dup3\n        /* \"#utility.yul\":14599:14617   */\n      add\n        /* \"#utility.yul\":14591:14617   */\n      swap1\n      pop\n        /* \"#utility.yul\":14663:14672   */\n      dup2\n        /* \"#utility.yul\":14657:14661   */\n      dup2\n        /* \"#utility.yul\":14653:14673   */\n      sub\n        /* \"#utility.yul\":14649:14650   */\n      0x00\n        /* \"#utility.yul\":14638:14647   */\n      dup4\n        /* \"#utility.yul\":14634:14651   */\n      add\n        /* \"#utility.yul\":14627:14674   */\n      mstore\n        /* \"#utility.yul\":14691:14822   */\n      tag_618\n        /* \"#utility.yul\":14817:14821   */\n      dup2\n        /* \"#utility.yul\":14691:14822   */\n      tag_415\n      jump\t// in\n    tag_618:\n        /* \"#utility.yul\":14683:14822   */\n      swap1\n      pop\n        /* \"#utility.yul\":14410:14829   */\n      swap2\n      swap1\n      pop\n      jump\t// out\n        /* \"#utility.yul\":14835:15001   */\n    tag_416:\n        /* \"#utility.yul\":14975:14993   */\n      0x4e6f20696e746572657374206f77656400000000000000000000000000000000\n        /* \"#utility.yul\":14971:14972   */\n      0x00\n        /* \"#utility.yul\":14963:14969   */\n      dup3\n        /* \"#utility.yul\":14959:14973   */\n      add\n        /* \"#utility.yul\":14952:14994   */\n      mstore\n        /* \"#utility.yul\":14835:15001   */\n      pop\n      jump\t// out\n        /* \"#utility.yul\":15007:15373   */\n    tag_417:\n        /* \"#utility.yul\":15149:15152   */\n      0x00\n        /* \"#utility.yul\":15170:15237   */\n      tag_621\n        /* \"#utility.yul\":15234:15236   */\n      0x10\n        /* \"#utility.yul\":15229:15232   */\n      dup4\n        /* \"#utility.yul\":15170:15237   */\n      tag_403\n      jump\t// in\n    tag_621:\n        /* \"#utility.yul\":15163:15237   */\n      swap2\n      pop\n        /* \"#utility.yul\":15246:15339   */\n      tag_622\n        /* \"#utility.yul\":15335:15338   */\n      dup3\n        /* \"#utility.yul\":15246:15339   */\n      tag_416\n      jump\t// in\n    tag_622:\n        /* \"#utility.yul\":15364:15366   */\n      0x20\n        /* \"#utility.yul\":15359:15362   */\n      dup3\n        /* \"#utility.yul\":15355:15367   */\n      add\n        /* \"#utility.yul\":15348:15367   */\n      swap1\n      pop\n        /* \"#utility.yul\":15007:15373   */\n      swap2\n      swap1\n      pop\n      jump\t// out\n        /* \"#utility.yul\":15379:15798   */\n    tag_179:\n        /* \"#utility.yul\":15545:15549   */\n      0x00\n        /* \"#utility.yul\":15583:15585   */\n      0x20\n        /* \"#utility.yul\":15572:15581   */\n      dup3\n        /* \"#utility.yul\":15568:15586   */\n      add\n        /* \"#utility.yul\":15560:15586   */\n      swap1\n      pop\n        /* \"#utility.yul\":15632:15641   */\n      dup2\n        /* \"#utility.yul\":15626:15630   */\n      dup2\n        /* \"#utility.yul\":15622:15642   */\n      sub\n        /* \"#utility.yul\":15618:15619   */\n      0x00\n        /* \"#utility.yul\":15607:15616   */\n      dup4\n        /* \"#utility.yul\":15603:15620   */\n      add\n        /* \"#utility.yul\":15596:15643   */\n      mstore\n        /* \"#utility.yul\":15660:15791   */\n      tag_624\n        /* \"#utility.yul\":15786:15790   */\n      dup2\n        /* \"#utility.yul\":15660:15791   */\n      tag_417\n      jump\t// in\n    tag_624:\n        /* \"#utility.yul\":15652:15791   */\n      swap1\n      pop\n        /* \"#utility.yul\":15379:15798   */\n      swap2\n      swap1\n      pop\n      jump\t// out\n        /* \"#utility.yul\":15804:15984   */\n    tag_418:\n        /* \"#utility.yul\":15852:15929   */\n      0x4e487b7100000000000000000000000000000000000000000000000000000000\n        /* \"#utility.yul\":15849:15850   */\n      0x00\n        /* \"#utility.yul\":15842:15930   */\n      mstore\n        /* \"#utility.yul\":15949:15953   */\n      0x22\n        /* \"#utility.yul\":15946:15947   */\n      0x04\n        /* \"#utility.yul\":15939:15954   */\n      mstore\n        /* \"#utility.yul\":15973:15977   */\n      0x24\n        /* \"#utility.yul\":15970:15971   */\n      0x00\n        /* \"#utility.yul\":15963:15978   */\n      revert\n        /* \"#utility.yul\":15990:16310   */\n    tag_207:\n        /* \"#utility.yul\":16034:16040   */\n      0x00\n        /* \"#utility.yul\":16071:16072   */\n      0x02\n        /* \"#utility.yul\":16065:16069   */\n      dup3\n        /* \"#utility.yul\":16061:16073   */\n      div\n        /* \"#utility.yul\":16051:16073   */\n      swap1\n      pop\n        /* \"#utility.yul\":16118:16119   */\n      0x01\n        /* \"#utility.yul\":16112:16116   */\n      dup3\n        /* \"#utility.yul\":16108:16120   */\n      and\n        /* \"#utility.yul\":16139:16157   */\n      dup1\n        /* \"#utility.yul\":16129:16210   */\n      tag_627\n      jumpi\n        /* \"#utility.yul\":16195:16199   */\n      0x7f\n        /* \"#utility.yul\":16187:16193   */\n      dup3\n        /* \"#utility.yul\":16183:16200   */\n      and\n        /* \"#utility.yul\":16173:16200   */\n      swap2\n      pop\n        /* \"#utility.yul\":16129:16210   */\n    tag_627:\n        /* \"#utility.yul\":16257:16259   */\n      0x20\n        /* \"#utility.yul\":16249:16255   */\n      dup3\n        /* \"#utility.yul\":16246:16260   */\n      lt\n        /* \"#utility.yul\":16226:16244   */\n      dup2\n        /* \"#utility.yul\":16223:16261   */\n      sub\n        /* \"#utility.yul\":16220:16304   */\n      tag_628\n      jumpi\n        /* \"#utility.yul\":16276:16294   */\n      tag_629\n      tag_418\n      jump\t// in\n    tag_629:\n        /* \"#utility.yul\":16220:16304   */\n    tag_628:\n        /* \"#utility.yul\":16041:16310   */\n      pop\n        /* \"#utility.yul\":15990:16310   */\n      swap2\n      swap1\n      pop\n      jump\t// out\n        /* \"#utility.yul\":16316:16485   */\n    tag_419:\n        /* \"#utility.yul\":16456:16477   */\n      0x4e6f2074726164657320617661696c61626c6500000000000000000000000000\n        /* \"#utility.yul\":16452:16453   */\n      0x00\n        /* \"#utility.yul\":16444:16450   */\n      dup3\n        /* \"#utility.yul\":16440:16454   */\n      add\n        /* \"#utility.yul\":16433:16478   */\n      mstore\n        /* \"#utility.yul\":16316:16485   */\n      pop\n      jump\t// out\n        /* \"#utility.yul\":16491:16857   */\n    tag_420:\n        /* \"#utility.yul\":16633:16636   */\n      0x00\n        /* \"#utility.yul\":16654:16721   */\n      tag_632\n        /* \"#utility.yul\":16718:16720   */\n      0x13\n        /* \"#utility.yul\":16713:16716   */\n      dup4\n        /* \"#utility.yul\":16654:16721   */\n      tag_403\n      jump\t// in\n    tag_632:\n        /* \"#utility.yul\":16647:16721   */\n      swap2\n      pop\n        /* \"#utility.yul\":16730:16823   */\n      tag_633\n        /* \"#utility.yul\":16819:16822   */\n      dup3\n        /* \"#utility.yul\":16730:16823   */\n      tag_419\n      jump\t// in\n    tag_633:\n        /* \"#utility.yul\":16848:16850   */\n      0x20\n        /* \"#utility.yul\":16843:16846   */\n      dup3\n        /* \"#utility.yul\":16839:16851   */\n      add\n        /* \"#utility.yul\":16832:16851   */\n      swap1\n      pop\n        /* \"#utility.yul\":16491:16857   */\n      swap2\n      swap1\n      pop\n      jump\t// out\n        /* \"#utility.yul\":16863:17282   */\n    tag_223:\n        /* \"#utility.yul\":17029:17033   */\n      0x00\n        /* \"#utility.yul\":17067:17069   */\n      0x20\n        /* \"#utility.yul\":17056:17065   */\n      dup3\n        /* \"#utility.yul\":17052:17070   */\n      add\n        /* \"#utility.yul\":17044:17070   */\n      swap1\n      pop\n        /* \"#utility.yul\":17116:17125   */\n      dup2\n        /* \"#utility.yul\":17110:17114   */\n      dup2\n        /* \"#utility.yul\":17106:17126   */\n      sub\n        /* \"#utility.yul\":17102:17103   */\n      0x00\n        /* \"#utility.yul\":17091:17100   */\n      dup4\n        /* \"#utility.yul\":17087:17104   */\n      add\n        /* \"#utility.yul\":17080:17127   */\n      mstore\n        /* \"#utility.yul\":17144:17275   */\n      tag_635\n        /* \"#utility.yul\":17270:17274   */\n      dup2\n        /* \"#utility.yul\":17144:17275   */\n      tag_420\n      jump\t// in\n    tag_635:\n        /* \"#utility.yul\":17136:17275   */\n      swap1\n      pop\n        /* \"#utility.yul\":16863:17282   */\n      swap2\n      swap1\n      pop\n      jump\t// out\n        /* \"#utility.yul\":17288:17468   */\n    tag_421:\n        /* \"#utility.yul\":17336:17413   */\n      0x4e487b7100000000000000000000000000000000000000000000000000000000\n        /* \"#utility.yul\":17333:17334   */\n      0x00\n        /* \"#utility.yul\":17326:17414   */\n      mstore\n        /* \"#utility.yul\":17433:17437   */\n      0x11\n        /* \"#utility.yul\":17430:17431   */\n      0x04\n        /* \"#utility.yul\":17423:17438   */\n      mstore\n        /* \"#utility.yul\":17457:17461   */\n      0x24\n        /* \"#utility.yul\":17454:17455   */\n      0x00\n        /* \"#utility.yul\":17447:17462   */\n      revert\n        /* \"#utility.yul\":17474:17668   */\n    tag_225:\n        /* \"#utility.yul\":17514:17518   */\n      0x00\n        /* \"#utility.yul\":17534:17554   */\n      tag_638\n        /* \"#utility.yul\":17552:17553   */\n      dup3\n        /* \"#utility.yul\":17534:17554   */\n      tag_381\n      jump\t// in\n    tag_638:\n        /* \"#utility.yul\":17529:17554   */\n      swap2\n      pop\n        /* \"#utility.yul\":17568:17588   */\n      tag_639\n        /* \"#utility.yul\":17586:17587   */\n      dup4\n        /* \"#utility.yul\":17568:17588   */\n      tag_381\n      jump\t// in\n    tag_639:\n        /* \"#utility.yul\":17563:17588   */\n      swap3\n      pop\n        /* \"#utility.yul\":17612:17613   */\n      dup3\n        /* \"#utility.yul\":17609:17610   */\n      dup3\n        /* \"#utility.yul\":17605:17614   */\n      sub\n        /* \"#utility.yul\":17597:17614   */\n      swap1\n      pop\n        /* \"#utility.yul\":17636:17637   */\n      dup2\n        /* \"#utility.yul\":17630:17634   */\n      dup2\n        /* \"#utility.yul\":17627:17638   */\n      gt\n        /* \"#utility.yul\":17624:17661   */\n      iszero\n      tag_640\n      jumpi\n        /* \"#utility.yul\":17641:17659   */\n      tag_641\n      tag_421\n      jump\t// in\n    tag_641:\n        /* \"#utility.yul\":17624:17661   */\n    tag_640:\n        /* \"#utility.yul\":17474:17668   */\n      swap3\n      swap2\n      pop\n      pop\n      jump\t// out\n        /* \"#utility.yul\":17674:17854   */\n    tag_228:\n        /* \"#utility.yul\":17722:17799   */\n      0x4e487b7100000000000000000000000000000000000000000000000000000000\n        /* \"#utility.yul\":17719:17720   */\n      0x00\n        /* \"#utility.yul\":17712:17800   */\n      mstore\n        /* \"#utility.yul\":17819:17823   */\n      0x32\n        /* \"#utility.yul\":17816:17817   */\n      0x04\n        /* \"#utility.yul\":17809:17824   */\n      mstore\n        /* \"#utility.yul\":17843:17847   */\n      0x24\n        /* \"#utility.yul\":17840:17841   */\n      0x00\n        /* \"#utility.yul\":17833:17848   */\n      revert\n        /* \"#utility.yul\":17860:18008   */\n    tag_422:\n        /* \"#utility.yul\":17962:17973   */\n      0x00\n        /* \"#utility.yul\":17999:18002   */\n      dup2\n        /* \"#utility.yul\":17984:18002   */\n      swap1\n      pop\n        /* \"#utility.yul\":17860:18008   */\n      swap3\n      swap2\n      pop\n      pop\n      jump\t// out\n        /* \"#utility.yul\":18014:18404   */\n    tag_423:\n        /* \"#utility.yul\":18120:18123   */\n      0x00\n        /* \"#utility.yul\":18148:18187   */\n      tag_645\n        /* \"#utility.yul\":18181:18186   */\n      dup3\n        /* \"#utility.yul\":18148:18187   */\n      tag_402\n      jump\t// in\n    tag_645:\n        /* \"#utility.yul\":18203:18292   */\n      tag_646\n        /* \"#utility.yul\":18285:18291   */\n      dup2\n        /* \"#utility.yul\":18280:18283   */\n      dup6\n        /* \"#utility.yul\":18203:18292   */\n      tag_422\n      jump\t// in\n    tag_646:\n        /* \"#utility.yul\":18196:18292   */\n      swap4\n      pop\n        /* \"#utility.yul\":18301:18366   */\n      tag_647\n        /* \"#utility.yul\":18359:18365   */\n      dup2\n        /* \"#utility.yul\":18354:18357   */\n      dup6\n        /* \"#utility.yul\":18347:18351   */\n      0x20\n        /* \"#utility.yul\":18340:18345   */\n      dup7\n        /* \"#utility.yul\":18336:18352   */\n      add\n        /* \"#utility.yul\":18301:18366   */\n      tag_404\n      jump\t// in\n    tag_647:\n        /* \"#utility.yul\":18391:18397   */\n      dup1\n        /* \"#utility.yul\":18386:18389   */\n      dup5\n        /* \"#utility.yul\":18382:18398   */\n      add\n        /* \"#utility.yul\":18375:18398   */\n      swap2\n      pop\n        /* \"#utility.yul\":18124:18404   */\n      pop\n        /* \"#utility.yul\":18014:18404   */\n      swap3\n      swap2\n      pop\n      pop\n      jump\t// out\n        /* \"#utility.yul\":18410:18685   */\n    tag_236:\n        /* \"#utility.yul\":18542:18545   */\n      0x00\n        /* \"#utility.yul\":18564:18659   */\n      tag_649\n        /* \"#utility.yul\":18655:18658   */\n      dup3\n        /* \"#utility.yul\":18646:18652   */\n      dup5\n        /* \"#utility.yul\":18564:18659   */\n      tag_423\n      jump\t// in\n    tag_649:\n        /* \"#utility.yul\":18557:18659   */\n      swap2\n      pop\n        /* \"#utility.yul\":18676:18679   */\n      dup2\n        /* \"#utility.yul\":18669:18679   */\n      swap1\n      pop\n        /* \"#utility.yul\":18410:18685   */\n      swap3\n      swap2\n      pop\n      pop\n      jump\t// out\n        /* \"#utility.yul\":18691:18860   */\n    tag_424:\n        /* \"#utility.yul\":18831:18852   */\n      0x5472616465206e6f7420636f6e6669726d656400000000000000000000000000\n        /* \"#utility.yul\":18827:18828   */\n      0x00\n        /* \"#utility.yul\":18819:18825   */\n      dup3\n        /* \"#utility.yul\":18815:18829   */\n      add\n        /* \"#utility.yul\":18808:18853   */\n      mstore\n        /* \"#utility.yul\":18691:18860   */\n      pop\n      jump\t// out\n        /* \"#utility.yul\":18866:19232   */\n    tag_425:\n        /* \"#utility.yul\":19008:19011   */\n      0x00\n        /* \"#utility.yul\":19029:19096   */\n      tag_652\n        /* \"#utility.yul\":19093:19095   */\n      0x13\n        /* \"#utility.yul\":19088:19091   */\n      dup4\n        /* \"#utility.yul\":19029:19096   */\n      tag_403\n      jump\t// in\n    tag_652:\n        /* \"#utility.yul\":19022:19096   */\n      swap2\n      pop\n        /* \"#utility.yul\":19105:19198   */\n      tag_653\n        /* \"#utility.yul\":19194:19197   */\n      dup3\n        /* \"#utility.yul\":19105:19198   */\n      tag_424\n      jump\t// in\n    tag_653:\n        /* \"#utility.yul\":19223:19225   */\n      0x20\n        /* \"#utility.yul\":19218:19221   */\n      dup3\n        /* \"#utility.yul\":19214:19226   */\n      add\n        /* \"#utility.yul\":19207:19226   */\n      swap1\n      pop\n        /* \"#utility.yul\":18866:19232   */\n      swap2\n      swap1\n      pop\n      jump\t// out\n        /* \"#utility.yul\":19238:19657   */\n    tag_239:\n        /* \"#utility.yul\":19404:19408   */\n      0x00\n        /* \"#utility.yul\":19442:19444   */\n      0x20\n        /* \"#utility.yul\":19431:19440   */\n      dup3\n        /* \"#utility.yul\":19427:19445   */\n      add\n        /* \"#utility.yul\":19419:19445   */\n      swap1\n      pop\n        /* \"#utility.yul\":19491:19500   */\n      dup2\n        /* \"#utility.yul\":19485:19489   */\n      dup2\n        /* \"#utility.yul\":19481:19501   */\n      sub\n        /* \"#utility.yul\":19477:19478   */\n      0x00\n        /* \"#utility.yul\":19466:19475   */\n      dup4\n        /* \"#utility.yul\":19462:19479   */\n      add\n        /* \"#utility.yul\":19455:19502   */\n      mstore\n        /* \"#utility.yul\":19519:19650   */\n      tag_655\n        /* \"#utility.yul\":19645:19649   */\n      dup2\n        /* \"#utility.yul\":19519:19650   */\n      tag_425\n      jump\t// in\n    tag_655:\n        /* \"#utility.yul\":19511:19650   */\n      swap1\n      pop\n        /* \"#utility.yul\":19238:19657   */\n      swap2\n      swap1\n      pop\n      jump\t// out\n        /* \"#utility.yul\":19663:19830   */\n    tag_426:\n        /* \"#utility.yul\":19803:19822   */\n      0x4e6f742074686520696e69746961746f72000000000000000000000000000000\n        /* \"#utility.yul\":19799:19800   */\n      0x00\n        /* \"#utility.yul\":19791:19797   */\n      dup3\n        /* \"#utility.yul\":19787:19801   */\n      add\n        /* \"#utility.yul\":19780:19823   */\n      mstore\n        /* \"#utility.yul\":19663:19830   */\n      pop\n      jump\t// out\n        /* \"#utility.yul\":19836:20202   */\n    tag_427:\n        /* \"#utility.yul\":19978:19981   */\n      0x00\n        /* \"#utility.yul\":19999:20066   */\n      tag_658\n        /* \"#utility.yul\":20063:20065   */\n      0x11\n        /* \"#utility.yul\":20058:20061   */\n      dup4\n        /* \"#utility.yul\":19999:20066   */\n      tag_403\n      jump\t// in\n    tag_658:\n        /* \"#utility.yul\":19992:20066   */\n      swap2\n      pop\n        /* \"#utility.yul\":20075:20168   */\n      tag_659\n        /* \"#utility.yul\":20164:20167   */\n      dup3\n        /* \"#utility.yul\":20075:20168   */\n      tag_426\n      jump\t// in\n    tag_659:\n        /* \"#utility.yul\":20193:20195   */\n      0x20\n        /* \"#utility.yul\":20188:20191   */\n      dup3\n        /* \"#utility.yul\":20184:20196   */\n      add\n        /* \"#utility.yul\":20177:20196   */\n      swap1\n      pop\n        /* \"#utility.yul\":19836:20202   */\n      swap2\n      swap1\n      pop\n      jump\t// out\n        /* \"#utility.yul\":20208:20627   */\n    tag_250:\n        /* \"#utility.yul\":20374:20378   */\n      0x00\n        /* \"#utility.yul\":20412:20414   */\n      0x20\n        /* \"#utility.yul\":20401:20410   */\n      dup3\n        /* \"#utility.yul\":20397:20415   */\n      add\n        /* \"#utility.yul\":20389:20415   */\n      swap1\n      pop\n        /* \"#utility.yul\":20461:20470   */\n      dup2\n        /* \"#utility.yul\":20455:20459   */\n      dup2\n        /* \"#utility.yul\":20451:20471   */\n      sub\n        /* \"#utility.yul\":20447:20448   */\n      0x00\n        /* \"#utility.yul\":20436:20445   */\n      dup4\n        /* \"#utility.yul\":20432:20449   */\n      add\n        /* \"#utility.yul\":20425:20472   */\n      mstore\n        /* \"#utility.yul\":20489:20620   */\n      tag_661\n        /* \"#utility.yul\":20615:20619   */\n      dup2\n        /* \"#utility.yul\":20489:20620   */\n      tag_427\n      jump\t// in\n    tag_661:\n        /* \"#utility.yul\":20481:20620   */\n      swap1\n      pop\n        /* \"#utility.yul\":20208:20627   */\n      swap2\n      swap1\n      pop\n      jump\t// out\n        /* \"#utility.yul\":20633:20803   */\n    tag_428:\n        /* \"#utility.yul\":20773:20795   */\n      0x4e6f742074686520636f756e7465727061727479000000000000000000000000\n        /* \"#utility.yul\":20769:20770   */\n      0x00\n        /* \"#utility.yul\":20761:20767   */\n      dup3\n        /* \"#utility.yul\":20757:20771   */\n      add\n        /* \"#utility.yul\":20750:20796   */\n      mstore\n        /* \"#utility.yul\":20633:20803   */\n      pop\n      jump\t// out\n        /* \"#utility.yul\":20809:21175   */\n    tag_429:\n        /* \"#utility.yul\":20951:20954   */\n      0x00\n        /* \"#utility.yul\":20972:21039   */\n      tag_664\n        /* \"#utility.yul\":21036:21038   */\n      0x14\n        /* \"#utility.yul\":21031:21034   */\n      dup4\n        /* \"#utility.yul\":20972:21039   */\n      tag_403\n      jump\t// in\n    tag_664:\n        /* \"#utility.yul\":20965:21039   */\n      swap2\n      pop\n        /* \"#utility.yul\":21048:21141   */\n      tag_665\n        /* \"#utility.yul\":21137:21140   */\n      dup3\n        /* \"#utility.yul\":21048:21141   */\n      tag_428\n      jump\t// in\n    tag_665:\n        /* \"#utility.yul\":21166:21168   */\n      0x20\n        /* \"#utility.yul\":21161:21164   */\n      dup3\n        /* \"#utility.yul\":21157:21169   */\n      add\n        /* \"#utility.yul\":21150:21169   */\n      swap1\n      pop\n        /* \"#utility.yul\":20809:21175   */\n      swap2\n      swap1\n      pop\n      jump\t// out\n        /* \"#utility.yul\":21181:21600   */\n    tag_257:\n        /* \"#utility.yul\":21347:21351   */\n      0x00\n        /* \"#utility.yul\":21385:21387   */\n      0x20\n        /* \"#utility.yul\":21374:21383   */\n      dup3\n        /* \"#utility.yul\":21370:21388   */\n      add\n        /* \"#utility.yul\":21362:21388   */\n      swap1\n      pop\n        /* \"#utility.yul\":21434:21443   */\n      dup2\n        /* \"#utility.yul\":21428:21432   */\n      dup2\n        /* \"#utility.yul\":21424:21444   */\n      sub\n        /* \"#utility.yul\":21420:21421   */\n      0x00\n        /* \"#utility.yul\":21409:21418   */\n      dup4\n        /* \"#utility.yul\":21405:21422   */\n      add\n        /* \"#utility.yul\":21398:21445   */\n      mstore\n        /* \"#utility.yul\":21462:21593   */\n      tag_667\n        /* \"#utility.yul\":21588:21592   */\n      dup2\n        /* \"#utility.yul\":21462:21593   */\n      tag_429\n      jump\t// in\n    tag_667:\n        /* \"#utility.yul\":21454:21593   */\n      swap1\n      pop\n        /* \"#utility.yul\":21181:21600   */\n      swap2\n      swap1\n      pop\n      jump\t// out\n        /* \"#utility.yul\":21606:21684   */\n    tag_430:\n        /* \"#utility.yul\":21644:21651   */\n      0x00\n        /* \"#utility.yul\":21673:21678   */\n      dup2\n        /* \"#utility.yul\":21662:21678   */\n      swap1\n      pop\n        /* \"#utility.yul\":21606:21684   */\n      swap2\n      swap1\n      pop\n      jump\t// out\n        /* \"#utility.yul\":21690:21843   */\n    tag_431:\n        /* \"#utility.yul\":21793:21836   */\n      tag_670\n        /* \"#utility.yul\":21812:21835   */\n      tag_671\n        /* \"#utility.yul\":21829:21834   */\n      dup3\n        /* \"#utility.yul\":21812:21835   */\n      tag_406\n      jump\t// in\n    tag_671:\n        /* \"#utility.yul\":21793:21836   */\n      tag_430\n      jump\t// in\n    tag_670:\n        /* \"#utility.yul\":21788:21791   */\n      dup3\n        /* \"#utility.yul\":21781:21837   */\n      mstore\n        /* \"#utility.yul\":21690:21843   */\n      pop\n      pop\n      jump\t// out\n        /* \"#utility.yul\":21849:21928   */\n    tag_432:\n        /* \"#utility.yul\":21888:21895   */\n      0x00\n        /* \"#utility.yul\":21917:21922   */\n      dup2\n        /* \"#utility.yul\":21906:21922   */\n      swap1\n      pop\n        /* \"#utility.yul\":21849:21928   */\n      swap2\n      swap1\n      pop\n      jump\t// out\n        /* \"#utility.yul\":21934:22091   */\n    tag_433:\n        /* \"#utility.yul\":22039:22084   */\n      tag_674\n        /* \"#utility.yul\":22059:22083   */\n      tag_675\n        /* \"#utility.yul\":22077:22082   */\n      dup3\n        /* \"#utility.yul\":22059:22083   */\n      tag_381\n      jump\t// in\n    tag_675:\n        /* \"#utility.yul\":22039:22084   */\n      tag_432\n      jump\t// in\n    tag_674:\n        /* \"#utility.yul\":22034:22037   */\n      dup3\n        /* \"#utility.yul\":22027:22085   */\n      mstore\n        /* \"#utility.yul\":21934:22091   */\n      pop\n      pop\n      jump\t// out\n        /* \"#utility.yul\":22097:22650   */\n    tag_267:\n        /* \"#utility.yul\":22283:22286   */\n      0x00\n        /* \"#utility.yul\":22305:22400   */\n      tag_677\n        /* \"#utility.yul\":22396:22399   */\n      dup3\n        /* \"#utility.yul\":22387:22393   */\n      dup7\n        /* \"#utility.yul\":22305:22400   */\n      tag_423\n      jump\t// in\n    tag_677:\n        /* \"#utility.yul\":22298:22400   */\n      swap2\n      pop\n        /* \"#utility.yul\":22410:22483   */\n      tag_678\n        /* \"#utility.yul\":22479:22482   */\n      dup3\n        /* \"#utility.yul\":22470:22476   */\n      dup6\n        /* \"#utility.yul\":22410:22483   */\n      tag_431\n      jump\t// in\n    tag_678:\n        /* \"#utility.yul\":22508:22510   */\n      0x20\n        /* \"#utility.yul\":22503:22506   */\n      dup3\n        /* \"#utility.yul\":22499:22511   */\n      add\n        /* \"#utility.yul\":22492:22511   */\n      swap2\n      pop\n        /* \"#utility.yul\":22521:22596   */\n      tag_679\n        /* \"#utility.yul\":22592:22595   */\n      dup3\n        /* \"#utility.yul\":22583:22589   */\n      dup5\n        /* \"#utility.yul\":22521:22596   */\n      tag_433\n      jump\t// in\n    tag_679:\n        /* \"#utility.yul\":22621:22623   */\n      0x20\n        /* \"#utility.yul\":22616:22619   */\n      dup3\n        /* \"#utility.yul\":22612:22624   */\n      add\n        /* \"#utility.yul\":22605:22624   */\n      swap2\n      pop\n        /* \"#utility.yul\":22641:22644   */\n      dup2\n        /* \"#utility.yul\":22634:22644   */\n      swap1\n      pop\n        /* \"#utility.yul\":22097:22650   */\n      swap5\n      swap4\n      pop\n      pop\n      pop\n      pop\n      jump\t// out\n        /* \"#utility.yul\":22656:23079   */\n    tag_273:\n        /* \"#utility.yul\":22797:22801   */\n      0x00\n        /* \"#utility.yul\":22835:22837   */\n      0x40\n        /* \"#utility.yul\":22824:22833   */\n      dup3\n        /* \"#utility.yul\":22820:22838   */\n      add\n        /* \"#utility.yul\":22812:22838   */\n      swap1\n      pop\n        /* \"#utility.yul\":22848:22919   */\n      tag_681\n        /* \"#utility.yul\":22916:22917   */\n      0x00\n        /* \"#utility.yul\":22905:22914   */\n      dup4\n        /* \"#utility.yul\":22901:22918   */\n      add\n        /* \"#utility.yul\":22892:22898   */\n      dup6\n        /* \"#utility.yul\":22848:22919   */\n      tag_401\n      jump\t// in\n    tag_681:\n        /* \"#utility.yul\":22966:22975   */\n      dup2\n        /* \"#utility.yul\":22960:22964   */\n      dup2\n        /* \"#utility.yul\":22956:22976   */\n      sub\n        /* \"#utility.yul\":22951:22953   */\n      0x20\n        /* \"#utility.yul\":22940:22949   */\n      dup4\n        /* \"#utility.yul\":22936:22954   */\n      add\n        /* \"#utility.yul\":22929:22977   */\n      mstore\n        /* \"#utility.yul\":22994:23072   */\n      tag_682\n        /* \"#utility.yul\":23067:23071   */\n      dup2\n        /* \"#utility.yul\":23058:23064   */\n      dup5\n        /* \"#utility.yul\":22994:23072   */\n      tag_405\n      jump\t// in\n    tag_682:\n        /* \"#utility.yul\":22986:23072   */\n      swap1\n      pop\n        /* \"#utility.yul\":22656:23079   */\n      swap4\n      swap3\n      pop\n      pop\n      pop\n      jump\t// out\n        /* \"#utility.yul\":23085:23226   */\n    tag_434:\n        /* \"#utility.yul\":23134:23138   */\n      0x00\n        /* \"#utility.yul\":23157:23160   */\n      dup2\n        /* \"#utility.yul\":23149:23160   */\n      swap1\n      pop\n        /* \"#utility.yul\":23180:23183   */\n      dup2\n        /* \"#utility.yul\":23177:23178   */\n      0x00\n        /* \"#utility.yul\":23170:23184   */\n      mstore\n        /* \"#utility.yul\":23214:23218   */\n      0x20\n        /* \"#utility.yul\":23211:23212   */\n      0x00\n        /* \"#utility.yul\":23201:23219   */\n      keccak256\n        /* \"#utility.yul\":23193:23219   */\n      swap1\n      pop\n        /* \"#utility.yul\":23085:23226   */\n      swap2\n      swap1\n      pop\n      jump\t// out\n        /* \"#utility.yul\":23256:24087   */\n    tag_435:\n        /* \"#utility.yul\":23341:23344   */\n      0x00\n        /* \"#utility.yul\":23378:23383   */\n      dup2\n        /* \"#utility.yul\":23372:23384   */\n      sload\n        /* \"#utility.yul\":23407:23443   */\n      tag_685\n        /* \"#utility.yul\":23433:23442   */\n      dup2\n        /* \"#utility.yul\":23407:23443   */\n      tag_207\n      jump\t// in\n    tag_685:\n        /* \"#utility.yul\":23459:23530   */\n      tag_686\n        /* \"#utility.yul\":23523:23529   */\n      dup2\n        /* \"#utility.yul\":23518:23521   */\n      dup7\n        /* \"#utility.yul\":23459:23530   */\n      tag_403\n      jump\t// in\n    tag_686:\n        /* \"#utility.yul\":23452:23530   */\n      swap5\n      pop\n        /* \"#utility.yul\":23561:23562   */\n      0x01\n        /* \"#utility.yul\":23550:23559   */\n      dup3\n        /* \"#utility.yul\":23546:23563   */\n      and\n        /* \"#utility.yul\":23577:23578   */\n      0x00\n        /* \"#utility.yul\":23572:23736   */\n      dup2\n      eq\n      tag_688\n      jumpi\n        /* \"#utility.yul\":23750:23751   */\n      0x01\n        /* \"#utility.yul\":23745:24081   */\n      dup2\n      eq\n      tag_689\n      jumpi\n        /* \"#utility.yul\":23539:24081   */\n      jump(tag_687)\n        /* \"#utility.yul\":23572:23736   */\n    tag_688:\n        /* \"#utility.yul\":23656:23660   */\n      0xff\n        /* \"#utility.yul\":23652:23661   */\n      not\n        /* \"#utility.yul\":23641:23650   */\n      dup4\n        /* \"#utility.yul\":23637:23662   */\n      and\n        /* \"#utility.yul\":23632:23635   */\n      dup7\n        /* \"#utility.yul\":23625:23663   */\n      mstore\n        /* \"#utility.yul\":23716:23722   */\n      dup2\n        /* \"#utility.yul\":23709:23723   */\n      iszero\n        /* \"#utility.yul\":23702:23724   */\n      iszero\n        /* \"#utility.yul\":23696:23700   */\n      0x20\n        /* \"#utility.yul\":23692:23725   */\n      mul\n        /* \"#utility.yul\":23687:23690   */\n      dup7\n        /* \"#utility.yul\":23683:23726   */\n      add\n        /* \"#utility.yul\":23676:23726   */\n      swap4\n      pop\n        /* \"#utility.yul\":23572:23736   */\n      jump(tag_687)\n        /* \"#utility.yul\":23745:24081   */\n    tag_689:\n        /* \"#utility.yul\":23812:23850   */\n      tag_690\n        /* \"#utility.yul\":23844:23849   */\n      dup6\n        /* \"#utility.yul\":23812:23850   */\n      tag_434\n      jump\t// in\n    tag_690:\n        /* \"#utility.yul\":23872:23873   */\n      0x00\n        /* \"#utility.yul\":23886:24040   */\n    tag_691:\n        /* \"#utility.yul\":23900:23906   */\n      dup4\n        /* \"#utility.yul\":23897:23898   */\n      dup2\n        /* \"#utility.yul\":23894:23907   */\n      lt\n        /* \"#utility.yul\":23886:24040   */\n      iszero\n      tag_693\n      jumpi\n        /* \"#utility.yul\":23974:23981   */\n      dup2\n        /* \"#utility.yul\":23968:23982   */\n      sload\n        /* \"#utility.yul\":23964:23965   */\n      dup2\n        /* \"#utility.yul\":23959:23962   */\n      dup10\n        /* \"#utility.yul\":23955:23966   */\n      add\n        /* \"#utility.yul\":23948:23983   */\n      mstore\n        /* \"#utility.yul\":24024:24025   */\n      0x01\n        /* \"#utility.yul\":24015:24022   */\n      dup3\n        /* \"#utility.yul\":24011:24026   */\n      add\n        /* \"#utility.yul\":24000:24026   */\n      swap2\n      pop\n        /* \"#utility.yul\":23922:23926   */\n      0x20\n        /* \"#utility.yul\":23919:23920   */\n      dup2\n        /* \"#utility.yul\":23915:23927   */\n      add\n        /* \"#utility.yul\":23910:23927   */\n      swap1\n      pop\n        /* \"#utility.yul\":23886:24040   */\n      jump(tag_691)\n    tag_693:\n        /* \"#utility.yul\":24069:24070   */\n      dup1\n        /* \"#utility.yul\":24064:24067   */\n      dup9\n        /* \"#utility.yul\":24060:24071   */\n      add\n        /* \"#utility.yul\":24053:24071   */\n      swap6\n      pop\n        /* \"#utility.yul\":23752:24081   */\n      pop\n      pop\n        /* \"#utility.yul\":23539:24081   */\n    tag_687:\n      pop\n        /* \"#utility.yul\":23345:24087   */\n      pop\n      pop\n        /* \"#utility.yul\":23256:24087   */\n      swap3\n      swap2\n      pop\n      pop\n      jump\t// out\n        /* \"#utility.yul\":24093:24595   */\n    tag_294:\n        /* \"#utility.yul\":24248:24252   */\n      0x00\n        /* \"#utility.yul\":24286:24288   */\n      0x40\n        /* \"#utility.yul\":24275:24284   */\n      dup3\n        /* \"#utility.yul\":24271:24289   */\n      add\n        /* \"#utility.yul\":24263:24289   */\n      swap1\n      pop\n        /* \"#utility.yul\":24335:24344   */\n      dup2\n        /* \"#utility.yul\":24329:24333   */\n      dup2\n        /* \"#utility.yul\":24325:24345   */\n      sub\n        /* \"#utility.yul\":24321:24322   */\n      0x00\n        /* \"#utility.yul\":24310:24319   */\n      dup4\n        /* \"#utility.yul\":24306:24323   */\n      add\n        /* \"#utility.yul\":24299:24346   */\n      mstore\n        /* \"#utility.yul\":24363:24438   */\n      tag_695\n        /* \"#utility.yul\":24433:24437   */\n      dup2\n        /* \"#utility.yul\":24424:24430   */\n      dup6\n        /* \"#utility.yul\":24363:24438   */\n      tag_435\n      jump\t// in\n    tag_695:\n        /* \"#utility.yul\":24355:24438   */\n      swap1\n      pop\n        /* \"#utility.yul\":24485:24494   */\n      dup2\n        /* \"#utility.yul\":24479:24483   */\n      dup2\n        /* \"#utility.yul\":24475:24495   */\n      sub\n        /* \"#utility.yul\":24470:24472   */\n      0x20\n        /* \"#utility.yul\":24459:24468   */\n      dup4\n        /* \"#utility.yul\":24455:24473   */\n      add\n        /* \"#utility.yul\":24448:24496   */\n      mstore\n        /* \"#utility.yul\":24513:24588   */\n      tag_696\n        /* \"#utility.yul\":24583:24587   */\n      dup2\n        /* \"#utility.yul\":24574:24580   */\n      dup5\n        /* \"#utility.yul\":24513:24588   */\n      tag_435\n      jump\t// in\n    tag_696:\n        /* \"#utility.yul\":24505:24588   */\n      swap1\n      pop\n        /* \"#utility.yul\":24093:24595   */\n      swap4\n      swap3\n      pop\n      pop\n      pop\n      jump\t// out\n        /* \"#utility.yul\":24601:25011   */\n    tag_304:\n        /* \"#utility.yul\":24641:24648   */\n      0x00\n        /* \"#utility.yul\":24664:24684   */\n      tag_698\n        /* \"#utility.yul\":24682:24683   */\n      dup3\n        /* \"#utility.yul\":24664:24684   */\n      tag_381\n      jump\t// in\n    tag_698:\n        /* \"#utility.yul\":24659:24684   */\n      swap2\n      pop\n        /* \"#utility.yul\":24698:24718   */\n      tag_699\n        /* \"#utility.yul\":24716:24717   */\n      dup4\n        /* \"#utility.yul\":24698:24718   */\n      tag_381\n      jump\t// in\n    tag_699:\n        /* \"#utility.yul\":24693:24718   */\n      swap3\n      pop\n        /* \"#utility.yul\":24753:24754   */\n      dup3\n        /* \"#utility.yul\":24750:24751   */\n      dup3\n        /* \"#utility.yul\":24746:24755   */\n      mul\n        /* \"#utility.yul\":24775:24805   */\n      tag_700\n        /* \"#utility.yul\":24793:24804   */\n      dup2\n        /* \"#utility.yul\":24775:24805   */\n      tag_381\n      jump\t// in\n    tag_700:\n        /* \"#utility.yul\":24764:24805   */\n      swap2\n      pop\n        /* \"#utility.yul\":24954:24955   */\n      dup3\n        /* \"#utility.yul\":24945:24952   */\n      dup3\n        /* \"#utility.yul\":24941:24956   */\n      div\n        /* \"#utility.yul\":24938:24939   */\n      dup5\n        /* \"#utility.yul\":24935:24957   */\n      eq\n        /* \"#utility.yul\":24915:24916   */\n      dup4\n        /* \"#utility.yul\":24908:24917   */\n      iszero\n        /* \"#utility.yul\":24888:24971   */\n      or\n        /* \"#utility.yul\":24865:25004   */\n      tag_701\n      jumpi\n        /* \"#utility.yul\":24984:25002   */\n      tag_702\n      tag_421\n      jump\t// in\n    tag_702:\n        /* \"#utility.yul\":24865:25004   */\n    tag_701:\n        /* \"#utility.yul\":24649:25011   */\n      pop\n        /* \"#utility.yul\":24601:25011   */\n      swap3\n      swap2\n      pop\n      pop\n      jump\t// out\n        /* \"#utility.yul\":25017:25197   */\n    tag_436:\n        /* \"#utility.yul\":25065:25142   */\n      0x4e487b7100000000000000000000000000000000000000000000000000000000\n        /* \"#utility.yul\":25062:25063   */\n      0x00\n        /* \"#utility.yul\":25055:25143   */\n      mstore\n        /* \"#utility.yul\":25162:25166   */\n      0x12\n        /* \"#utility.yul\":25159:25160   */\n      0x04\n        /* \"#utility.yul\":25152:25167   */\n      mstore\n        /* \"#utility.yul\":25186:25190   */\n      0x24\n        /* \"#utility.yul\":25183:25184   */\n      0x00\n        /* \"#utility.yul\":25176:25191   */\n      revert\n        /* \"#utility.yul\":25203:25388   */\n    tag_307:\n        /* \"#utility.yul\":25243:25244   */\n      0x00\n        /* \"#utility.yul\":25260:25280   */\n      tag_705\n        /* \"#utility.yul\":25278:25279   */\n      dup3\n        /* \"#utility.yul\":25260:25280   */\n      tag_381\n      jump\t// in\n    tag_705:\n        /* \"#utility.yul\":25255:25280   */\n      swap2\n      pop\n        /* \"#utility.yul\":25294:25314   */\n      tag_706\n        /* \"#utility.yul\":25312:25313   */\n      dup4\n        /* \"#utility.yul\":25294:25314   */\n      tag_381\n      jump\t// in\n    tag_706:\n        /* \"#utility.yul\":25289:25314   */\n      swap3\n      pop\n        /* \"#utility.yul\":25333:25334   */\n      dup3\n        /* \"#utility.yul\":25323:25358   */\n      tag_707\n      jumpi\n        /* \"#utility.yul\":25338:25356   */\n      tag_708\n      tag_436\n      jump\t// in\n    tag_708:\n        /* \"#utility.yul\":25323:25358   */\n    tag_707:\n        /* \"#utility.yul\":25380:25381   */\n      dup3\n        /* \"#utility.yul\":25377:25378   */\n      dup3\n        /* \"#utility.yul\":25373:25382   */\n      div\n        /* \"#utility.yul\":25368:25382   */\n      swap1\n      pop\n        /* \"#utility.yul\":25203:25388   */\n      swap3\n      swap2\n      pop\n      pop\n      jump\t// out\n        /* \"#utility.yul\":25394:25585   */\n    tag_309:\n        /* \"#utility.yul\":25434:25437   */\n      0x00\n        /* \"#utility.yul\":25453:25473   */\n      tag_710\n        /* \"#utility.yul\":25471:25472   */\n      dup3\n        /* \"#utility.yul\":25453:25473   */\n      tag_381\n      jump\t// in\n    tag_710:\n        /* \"#utility.yul\":25448:25473   */\n      swap2\n      pop\n        /* \"#utility.yul\":25487:25507   */\n      tag_711\n        /* \"#utility.yul\":25505:25506   */\n      dup4\n        /* \"#utility.yul\":25487:25507   */\n      tag_381\n      jump\t// in\n    tag_711:\n        /* \"#utility.yul\":25482:25507   */\n      swap3\n      pop\n        /* \"#utility.yul\":25530:25531   */\n      dup3\n        /* \"#utility.yul\":25527:25528   */\n      dup3\n        /* \"#utility.yul\":25523:25532   */\n      add\n        /* \"#utility.yul\":25516:25532   */\n      swap1\n      pop\n        /* \"#utility.yul\":25551:25554   */\n      dup1\n        /* \"#utility.yul\":25548:25549   */\n      dup3\n        /* \"#utility.yul\":25545:25555   */\n      gt\n        /* \"#utility.yul\":25542:25578   */\n      iszero\n      tag_712\n      jumpi\n        /* \"#utility.yul\":25558:25576   */\n      tag_713\n      tag_421\n      jump\t// in\n    tag_713:\n        /* \"#utility.yul\":25542:25578   */\n    tag_712:\n        /* \"#utility.yul\":25394:25585   */\n      swap3\n      swap2\n      pop\n      pop\n      jump\t// out\n        /* \"#utility.yul\":25591:25684   */\n    tag_437:\n        /* \"#utility.yul\":25628:25634   */\n      0x00\n        /* \"#utility.yul\":25675:25677   */\n      0x20\n        /* \"#utility.yul\":25670:25672   */\n      0x1f\n        /* \"#utility.yul\":25663:25668   */\n      dup4\n        /* \"#utility.yul\":25659:25673   */\n      add\n        /* \"#utility.yul\":25655:25678   */\n      div\n        /* \"#utility.yul\":25645:25678   */\n      swap1\n      pop\n        /* \"#utility.yul\":25591:25684   */\n      swap2\n      swap1\n      pop\n      jump\t// out\n        /* \"#utility.yul\":25690:25797   */\n    tag_438:\n        /* \"#utility.yul\":25734:25742   */\n      0x00\n        /* \"#utility.yul\":25784:25789   */\n      dup3\n        /* \"#utility.yul\":25778:25782   */\n      dup3\n        /* \"#utility.yul\":25774:25790   */\n      shl\n        /* \"#utility.yul\":25753:25790   */\n      swap1\n      pop\n        /* \"#utility.yul\":25690:25797   */\n      swap3\n      swap2\n      pop\n      pop\n      jump\t// out\n        /* \"#utility.yul\":25803:26196   */\n    tag_439:\n        /* \"#utility.yul\":25872:25878   */\n      0x00\n        /* \"#utility.yul\":25922:25923   */\n      0x08\n        /* \"#utility.yul\":25910:25920   */\n      dup4\n        /* \"#utility.yul\":25906:25924   */\n      mul\n        /* \"#utility.yul\":25945:26042   */\n      tag_717\n        /* \"#utility.yul\":25975:26041   */\n      0xffffffffffffffffffffffffffffffffffffffffffffffffffffffffffffffff\n        /* \"#utility.yul\":25964:25973   */\n      dup3\n        /* \"#utility.yul\":25945:26042   */\n      tag_438\n      jump\t// in\n    tag_717:\n        /* \"#utility.yul\":26063:26102   */\n      tag_718\n        /* \"#utility.yul\":26093:26101   */\n      dup7\n        /* \"#utility.yul\":26082:26091   */\n      dup4\n        /* \"#utility.yul\":26063:26102   */\n      tag_438\n      jump\t// in\n    tag_718:\n        /* \"#utility.yul\":26051:26102   */\n      swap6\n      pop\n        /* \"#utility.yul\":26135:26139   */\n      dup1\n        /* \"#utility.yul\":26131:26140   */\n      not\n        /* \"#utility.yul\":26124:26129   */\n      dup5\n        /* \"#utility.yul\":26120:26141   */\n      and\n        /* \"#utility.yul\":26111:26141   */\n      swap4\n      pop\n        /* \"#utility.yul\":26184:26188   */\n      dup1\n        /* \"#utility.yul\":26174:26182   */\n      dup7\n        /* \"#utility.yul\":26170:26189   */\n      and\n        /* \"#utility.yul\":26163:26168   */\n      dup5\n        /* \"#utility.yul\":26160:26190   */\n      or\n        /* \"#utility.yul\":26150:26190   */\n      swap3\n      pop\n        /* \"#utility.yul\":25879:26196   */\n      pop\n      pop\n        /* \"#utility.yul\":25803:26196   */\n      swap4\n      swap3\n      pop\n      pop\n      pop\n      jump\t// out\n        /* \"#utility.yul\":26202:26262   */\n    tag_440:\n        /* \"#utility.yul\":26230:26233   */\n      0x00\n        /* \"#utility.yul\":26251:26256   */\n      dup2\n        /* \"#utility.yul\":26244:26256   */\n      swap1\n      pop\n        /* \"#utility.yul\":26202:26262   */\n      swap2\n      swap1\n      pop\n      jump\t// out\n        /* \"#utility.yul\":26268:26410   */\n    tag_441:\n        /* \"#utility.yul\":26318:26327   */\n      0x00\n        /* \"#utility.yul\":26351:26404   */\n      tag_721\n        /* \"#utility.yul\":26369:26403   */\n      tag_722\n        /* \"#utility.yul\":26378:26402   */\n      tag_723\n        /* \"#utility.yul\":26396:26401   */\n      dup5\n        /* \"#utility.yul\":26378:26402   */\n      tag_381\n      jump\t// in\n    tag_723:\n        /* \"#utility.yul\":26369:26403   */\n      tag_440\n      jump\t// in\n    tag_722:\n        /* \"#utility.yul\":26351:26404   */\n      tag_381\n      jump\t// in\n    tag_721:\n        /* \"#utility.yul\":26338:26404   */\n      swap1\n      pop\n        /* \"#utility.yul\":26268:26410   */\n      swap2\n      swap1\n      pop\n      jump\t// out\n        /* \"#utility.yul\":26416:26491   */\n    tag_442:\n        /* \"#utility.yul\":26459:26462   */\n      0x00\n        /* \"#utility.yul\":26480:26485   */\n      dup2\n        /* \"#utility.yul\":26473:26485   */\n      swap1\n      pop\n        /* \"#utility.yul\":26416:26491   */\n      swap2\n      swap1\n      pop\n      jump\t// out\n        /* \"#utility.yul\":26497:26766   */\n    tag_443:\n        /* \"#utility.yul\":26607:26646   */\n      tag_726\n        /* \"#utility.yul\":26638:26645   */\n      dup4\n        /* \"#utility.yul\":26607:26646   */\n      tag_441\n      jump\t// in\n    tag_726:\n        /* \"#utility.yul\":26668:26759   */\n      tag_727\n        /* \"#utility.yul\":26717:26758   */\n      tag_728\n        /* \"#utility.yul\":26741:26757   */\n      dup3\n        /* \"#utility.yul\":26717:26758   */\n      tag_442\n      jump\t// in\n    tag_728:\n        /* \"#utility.yul\":26709:26715   */\n      dup5\n        /* \"#utility.yul\":26702:26706   */\n      dup5\n        /* \"#utility.yul\":26696:26707   */\n      sload\n        /* \"#utility.yul\":26668:26759   */\n      tag_439\n      jump\t// in\n    tag_727:\n        /* \"#utility.yul\":26662:26666   */\n      dup3\n        /* \"#utility.yul\":26655:26760   */\n      sstore\n        /* \"#utility.yul\":26573:26766   */\n      pop\n        /* \"#utility.yul\":26497:26766   */\n      pop\n      pop\n      pop\n      jump\t// out\n        /* \"#utility.yul\":26772:26845   */\n    tag_444:\n        /* \"#utility.yul\":26817:26820   */\n      0x00\n        /* \"#utility.yul\":26772:26845   */\n      swap1\n      jump\t// out\n        /* \"#utility.yul\":26851:27040   */\n    tag_445:\n        /* \"#utility.yul\":26928:26960   */\n      tag_731\n      tag_444\n      jump\t// in\n    tag_731:\n        /* \"#utility.yul\":26969:27034   */\n      tag_732\n        /* \"#utility.yul\":27027:27033   */\n      dup2\n        /* \"#utility.yul\":27019:27025   */\n      dup5\n        /* \"#utility.yul\":27013:27017   */\n      dup5\n        /* \"#utility.yul\":26969:27034   */\n      tag_443\n      jump\t// in\n    tag_732:\n        /* \"#utility.yul\":26904:27040   */\n      pop\n        /* \"#utility.yul\":26851:27040   */\n      pop\n      pop\n      jump\t// out\n        /* \"#utility.yul\":27046:27232   */\n    tag_446:\n        /* \"#utility.yul\":27106:27226   */\n    tag_734:\n        /* \"#utility.yul\":27123:27126   */\n      dup2\n        /* \"#utility.yul\":27116:27121   */\n      dup2\n        /* \"#utility.yul\":27113:27127   */\n      lt\n        /* \"#utility.yul\":27106:27226   */\n      iszero\n      tag_736\n      jumpi\n        /* \"#utility.yul\":27177:27216   */\n      tag_737\n        /* \"#utility.yul\":27214:27215   */\n      0x00\n        /* \"#utility.yul\":27207:27212   */\n      dup3\n        /* \"#utility.yul\":27177:27216   */\n      tag_445\n      jump\t// in\n    tag_737:\n        /* \"#utility.yul\":27150:27151   */\n      0x01\n        /* \"#utility.yul\":27143:27148   */\n      dup2\n        /* \"#utility.yul\":27139:27152   */\n      add\n        /* \"#utility.yul\":27130:27152   */\n      swap1\n      pop\n        /* \"#utility.yul\":27106:27226   */\n      jump(tag_734)\n    tag_736:\n        /* \"#utility.yul\":27046:27232   */\n      pop\n      pop\n      jump\t// out\n        /* \"#utility.yul\":27238:27781   */\n    tag_447:\n        /* \"#utility.yul\":27339:27341   */\n      0x1f\n        /* \"#utility.yul\":27334:27337   */\n      dup3\n        /* \"#utility.yul\":27331:27342   */\n      gt\n        /* \"#utility.yul\":27328:27774   */\n      iszero\n      tag_739\n      jumpi\n        /* \"#utility.yul\":27373:27411   */\n      tag_740\n        /* \"#utility.yul\":27405:27410   */\n      dup2\n        /* \"#utility.yul\":27373:27411   */\n      tag_434\n      jump\t// in\n    tag_740:\n        /* \"#utility.yul\":27457:27486   */\n      tag_741\n        /* \"#utility.yul\":27475:27485   */\n      dup5\n        /* \"#utility.yul\":27457:27486   */\n      tag_437\n      jump\t// in\n    tag_741:\n        /* \"#utility.yul\":27447:27455   */\n      dup2\n        /* \"#utility.yul\":27443:27487   */\n      add\n        /* \"#utility.yul\":27640:27642   */\n      0x20\n        /* \"#utility.yul\":27628:27638   */\n      dup6\n        /* \"#utility.yul\":27625:27643   */\n      lt\n        /* \"#utility.yul\":27622:27671   */\n      iszero\n      tag_742\n      jumpi\n        /* \"#utility.yul\":27661:27669   */\n      dup2\n        /* \"#utility.yul\":27646:27669   */\n      swap1\n      pop\n        /* \"#utility.yul\":27622:27671   */\n    tag_742:\n        /* \"#utility.yul\":27684:27764   */\n      tag_743\n        /* \"#utility.yul\":27740:27762   */\n      tag_744\n        /* \"#utility.yul\":27758:27761   */\n      dup6\n        /* \"#utility.yul\":27740:27762   */\n      tag_437\n      jump\t// in\n    tag_744:\n        /* \"#utility.yul\":27730:27738   */\n      dup4\n        /* \"#utility.yul\":27726:27763   */\n      add\n        /* \"#utility.yul\":27713:27724   */\n      dup3\n        /* \"#utility.yul\":27684:27764   */\n      tag_446\n      jump\t// in\n    tag_743:\n        /* \"#utility.yul\":27343:27774   */\n      pop\n      pop\n        /* \"#utility.yul\":27328:27774   */\n    tag_739:\n        /* \"#utility.yul\":27238:27781   */\n      pop\n      pop\n      pop\n      jump\t// out\n        /* \"#utility.yul\":27787:27904   */\n    tag_448:\n        /* \"#utility.yul\":27841:27849   */\n      0x00\n        /* \"#utility.yul\":27891:27896   */\n      dup3\n        /* \"#utility.yul\":27885:27889   */\n      dup3\n        /* \"#utility.yul\":27881:27897   */\n      shr\n        /* \"#utility.yul\":27860:27897   */\n      swap1\n      pop\n        /* \"#utility.yul\":27787:27904   */\n      swap3\n      swap2\n      pop\n      pop\n      jump\t// out\n        /* \"#utility.yul\":27910:28079   */\n    tag_449:\n        /* \"#utility.yul\":27954:27960   */\n      0x00\n        /* \"#utility.yul\":27987:28038   */\n      tag_747\n        /* \"#utility.yul\":28035:28036   */\n      0x00\n        /* \"#utility.yul\":28031:28037   */\n      not\n        /* \"#utility.yul\":28023:28028   */\n      dup5\n        /* \"#utility.yul\":28020:28021   */\n      0x08\n        /* \"#utility.yul\":28016:28029   */\n      mul\n        /* \"#utility.yul\":27987:28038   */\n      tag_448\n      jump\t// in\n    tag_747:\n        /* \"#utility.yul\":27983:28039   */\n      not\n        /* \"#utility.yul\":28068:28072   */\n      dup1\n        /* \"#utility.yul\":28062:28066   */\n      dup4\n        /* \"#utility.yul\":28058:28073   */\n      and\n        /* \"#utility.yul\":28048:28073   */\n      swap2\n      pop\n        /* \"#utility.yul\":27961:28079   */\n      pop\n        /* \"#utility.yul\":27910:28079   */\n      swap3\n      swap2\n      pop\n      pop\n      jump\t// out\n        /* \"#utility.yul\":28084:28379   */\n    tag_450:\n        /* \"#utility.yul\":28160:28164   */\n      0x00\n        /* \"#utility.yul\":28306:28335   */\n      tag_749\n        /* \"#utility.yul\":28331:28334   */\n      dup4\n        /* \"#utility.yul\":28325:28329   */\n      dup4\n        /* \"#utility.yul\":28306:28335   */\n      tag_449\n      jump\t// in\n    tag_749:\n        /* \"#utility.yul\":28298:28335   */\n      swap2\n      pop\n        /* \"#utility.yul\":28368:28371   */\n      dup3\n        /* \"#utility.yul\":28365:28366   */\n      0x02\n        /* \"#utility.yul\":28361:28372   */\n      mul\n        /* \"#utility.yul\":28355:28359   */\n      dup3\n        /* \"#utility.yul\":28352:28373   */\n      or\n        /* \"#utility.yul\":28344:28373   */\n      swap1\n      pop\n        /* \"#utility.yul\":28084:28379   */\n      swap3\n      swap2\n      pop\n      pop\n      jump\t// out\n        /* \"#utility.yul\":28384:29779   */\n    tag_315:\n        /* \"#utility.yul\":28501:28538   */\n      tag_751\n        /* \"#utility.yul\":28534:28537   */\n      dup3\n        /* \"#utility.yul\":28501:28538   */\n      tag_402\n      jump\t// in\n    tag_751:\n        /* \"#utility.yul\":28603:28621   */\n      0xffffffffffffffff\n        /* \"#utility.yul\":28595:28601   */\n      dup2\n        /* \"#utility.yul\":28592:28622   */\n      gt\n        /* \"#utility.yul\":28589:28645   */\n      iszero\n      tag_752\n      jumpi\n        /* \"#utility.yul\":28625:28643   */\n      tag_753\n      tag_394\n      jump\t// in\n    tag_753:\n        /* \"#utility.yul\":28589:28645   */\n    tag_752:\n        /* \"#utility.yul\":28669:28707   */\n      tag_754\n        /* \"#utility.yul\":28701:28705   */\n      dup3\n        /* \"#utility.yul\":28695:28706   */\n      sload\n        /* \"#utility.yul\":28669:28707   */\n      tag_207\n      jump\t// in\n    tag_754:\n        /* \"#utility.yul\":28754:28821   */\n      tag_755\n        /* \"#utility.yul\":28814:28820   */\n      dup3\n        /* \"#utility.yul\":28806:28812   */\n      dup3\n        /* \"#utility.yul\":28800:28804   */\n      dup6\n        /* \"#utility.yul\":28754:28821   */\n      tag_447\n      jump\t// in\n    tag_755:\n        /* \"#utility.yul\":28848:28849   */\n      0x00\n        /* \"#utility.yul\":28872:28876   */\n      0x20\n        /* \"#utility.yul\":28859:28876   */\n      swap1\n      pop\n        /* \"#utility.yul\":28904:28906   */\n      0x1f\n        /* \"#utility.yul\":28896:28902   */\n      dup4\n        /* \"#utility.yul\":28893:28907   */\n      gt\n        /* \"#utility.yul\":28921:28922   */\n      0x01\n        /* \"#utility.yul\":28916:29534   */\n      dup2\n      eq\n      tag_757\n      jumpi\n        /* \"#utility.yul\":29578:29579   */\n      0x00\n        /* \"#utility.yul\":29595:29601   */\n      dup5\n        /* \"#utility.yul\":29592:29669   */\n      iszero\n      tag_758\n      jumpi\n        /* \"#utility.yul\":29644:29653   */\n      dup3\n        /* \"#utility.yul\":29639:29642   */\n      dup8\n        /* \"#utility.yul\":29635:29654   */\n      add\n        /* \"#utility.yul\":29629:29655   */\n      mload\n        /* \"#utility.yul\":29620:29655   */\n      swap1\n      pop\n        /* \"#utility.yul\":29592:29669   */\n    tag_758:\n        /* \"#utility.yul\":29695:29762   */\n      tag_759\n        /* \"#utility.yul\":29755:29761   */\n      dup6\n        /* \"#utility.yul\":29748:29753   */\n      dup3\n        /* \"#utility.yul\":29695:29762   */\n      tag_450\n      jump\t// in\n    tag_759:\n        /* \"#utility.yul\":29689:29693   */\n      dup7\n        /* \"#utility.yul\":29682:29763   */\n      sstore\n        /* \"#utility.yul\":29551:29773   */\n      pop\n        /* \"#utility.yul\":28886:29773   */\n      jump(tag_756)\n        /* \"#utility.yul\":28916:29534   */\n    tag_757:\n        /* \"#utility.yul\":28968:28972   */\n      0x1f\n        /* \"#utility.yul\":28964:28973   */\n      not\n        /* \"#utility.yul\":28956:28962   */\n      dup5\n        /* \"#utility.yul\":28952:28974   */\n      and\n        /* \"#utility.yul\":29002:29039   */\n      tag_760\n        /* \"#utility.yul\":29034:29038   */\n      dup7\n        /* \"#utility.yul\":29002:29039   */\n      tag_434\n      jump\t// in\n    tag_760:\n        /* \"#utility.yul\":29061:29062   */\n      0x00\n        /* \"#utility.yul\":29075:29283   */\n    tag_761:\n        /* \"#utility.yul\":29089:29096   */\n      dup3\n        /* \"#utility.yul\":29086:29087   */\n      dup2\n        /* \"#utility.yul\":29083:29097   */\n      lt\n        /* \"#utility.yul\":29075:29283   */\n      iszero\n      tag_763\n      jumpi\n        /* \"#utility.yul\":29168:29177   */\n      dup5\n        /* \"#utility.yul\":29163:29166   */\n      dup10\n        /* \"#utility.yul\":29159:29178   */\n      add\n        /* \"#utility.yul\":29153:29179   */\n      mload\n        /* \"#utility.yul\":29145:29151   */\n      dup3\n        /* \"#utility.yul\":29138:29180   */\n      sstore\n        /* \"#utility.yul\":29219:29220   */\n      0x01\n        /* \"#utility.yul\":29211:29217   */\n      dup3\n        /* \"#utility.yul\":29207:29221   */\n      add\n        /* \"#utility.yul\":29197:29221   */\n      swap2\n      pop\n        /* \"#utility.yul\":29266:29268   */\n      0x20\n        /* \"#utility.yul\":29255:29264   */\n      dup6\n        /* \"#utility.yul\":29251:29269   */\n      add\n        /* \"#utility.yul\":29238:29269   */\n      swap5\n      pop\n        /* \"#utility.yul\":29112:29116   */\n      0x20\n        /* \"#utility.yul\":29109:29110   */\n      dup2\n        /* \"#utility.yul\":29105:29117   */\n      add\n        /* \"#utility.yul\":29100:29117   */\n      swap1\n      pop\n        /* \"#utility.yul\":29075:29283   */\n      jump(tag_761)\n    tag_763:\n        /* \"#utility.yul\":29311:29317   */\n      dup7\n        /* \"#utility.yul\":29302:29309   */\n      dup4\n        /* \"#utility.yul\":29299:29318   */\n      lt\n        /* \"#utility.yul\":29296:29475   */\n      iszero\n      tag_764\n      jumpi\n        /* \"#utility.yul\":29369:29378   */\n      dup5\n        /* \"#utility.yul\":29364:29367   */\n      dup10\n        /* \"#utility.yul\":29360:29379   */\n      add\n        /* \"#utility.yul\":29354:29380   */\n      mload\n        /* \"#utility.yul\":29412:29460   */\n      tag_765\n        /* \"#utility.yul\":29454:29458   */\n      0x1f\n        /* \"#utility.yul\":29446:29452   */\n      dup10\n        /* \"#utility.yul\":29442:29459   */\n      and\n        /* \"#utility.yul\":29431:29440   */\n      dup3\n        /* \"#utility.yul\":29412:29460   */\n      tag_449\n      jump\t// in\n    tag_765:\n        /* \"#utility.yul\":29404:29410   */\n      dup4\n        /* \"#utility.yul\":29397:29461   */\n      sstore\n        /* \"#utility.yul\":29319:29475   */\n      pop\n        /* \"#utility.yul\":29296:29475   */\n    tag_764:\n        /* \"#utility.yul\":29521:29522   */\n      0x01\n        /* \"#utility.yul\":29517:29518   */\n      0x02\n        /* \"#utility.yul\":29509:29515   */\n      dup9\n        /* \"#utility.yul\":29505:29519   */\n      mul\n        /* \"#utility.yul\":29501:29523   */\n      add\n        /* \"#utility.yul\":29495:29499   */\n      dup9\n        /* \"#utility.yul\":29488:29524   */\n      sstore\n        /* \"#utility.yul\":28923:29534   */\n      pop\n      pop\n      pop\n        /* \"#utility.yul\":28886:29773   */\n    tag_756:\n      pop\n        /* \"#utility.yul\":28476:29779   */\n      pop\n      pop\n      pop\n        /* \"#utility.yul\":28384:29779   */\n      pop\n      pop\n      jump\t// out\n        /* \"#utility.yul\":29785:30409   */\n    tag_321:\n        /* \"#utility.yul\":29974:29978   */\n      0x00\n        /* \"#utility.yul\":30012:30014   */\n      0x60\n        /* \"#utility.yul\":30001:30010   */\n      dup3\n        /* \"#utility.yul\":29997:30015   */\n      add\n        /* \"#utility.yul\":29989:30015   */\n      swap1\n      pop\n        /* \"#utility.yul\":30025:30096   */\n      tag_767\n        /* \"#utility.yul\":30093:30094   */\n      0x00\n        /* \"#utility.yul\":30082:30091   */\n      dup4\n        /* \"#utility.yul\":30078:30095   */\n      add\n        /* \"#utility.yul\":30069:30075   */\n      dup7\n        /* \"#utility.yul\":30025:30096   */\n      tag_401\n      jump\t// in\n    tag_767:\n        /* \"#utility.yul\":30143:30152   */\n      dup2\n        /* \"#utility.yul\":30137:30141   */\n      dup2\n        /* \"#utility.yul\":30133:30153   */\n      sub\n        /* \"#utility.yul\":30128:30130   */\n      0x20\n        /* \"#utility.yul\":30117:30126   */\n      dup4\n        /* \"#utility.yul\":30113:30131   */\n      add\n        /* \"#utility.yul\":30106:30154   */\n      mstore\n        /* \"#utility.yul\":30171:30249   */\n      tag_768\n        /* \"#utility.yul\":30244:30248   */\n      dup2\n        /* \"#utility.yul\":30235:30241   */\n      dup6\n        /* \"#utility.yul\":30171:30249   */\n      tag_405\n      jump\t// in\n    tag_768:\n        /* \"#utility.yul\":30163:30249   */\n      swap1\n      pop\n        /* \"#utility.yul\":30296:30305   */\n      dup2\n        /* \"#utility.yul\":30290:30294   */\n      dup2\n        /* \"#utility.yul\":30286:30306   */\n      sub\n        /* \"#utility.yul\":30281:30283   */\n      0x40\n        /* \"#utility.yul\":30270:30279   */\n      dup4\n        /* \"#utility.yul\":30266:30284   */\n      add\n        /* \"#utility.yul\":30259:30307   */\n      mstore\n        /* \"#utility.yul\":30324:30402   */\n      tag_769\n        /* \"#utility.yul\":30397:30401   */\n      dup2\n        /* \"#utility.yul\":30388:30394   */\n      dup5\n        /* \"#utility.yul\":30324:30402   */\n      tag_405\n      jump\t// in\n    tag_769:\n        /* \"#utility.yul\":30316:30402   */\n      swap1\n      pop\n        /* \"#utility.yul\":29785:30409   */\n      swap5\n      swap4\n      pop\n      pop\n      pop\n      pop\n      jump\t// out\n        /* \"#utility.yul\":30415:30747   */\n    tag_366:\n        /* \"#utility.yul\":30536:30540   */\n      0x00\n        /* \"#utility.yul\":30574:30576   */\n      0x40\n        /* \"#utility.yul\":30563:30572   */\n      dup3\n        /* \"#utility.yul\":30559:30577   */\n      add\n        /* \"#utility.yul\":30551:30577   */\n      swap1\n      pop\n        /* \"#utility.yul\":30587:30658   */\n      tag_771\n        /* \"#utility.yul\":30655:30656   */\n      0x00\n        /* \"#utility.yul\":30644:30653   */\n      dup4\n        /* \"#utility.yul\":30640:30657   */\n      add\n        /* \"#utility.yul\":30631:30637   */\n      dup6\n        /* \"#utility.yul\":30587:30658   */\n      tag_401\n      jump\t// in\n    tag_771:\n        /* \"#utility.yul\":30668:30740   */\n      tag_772\n        /* \"#utility.yul\":30736:30738   */\n      0x20\n        /* \"#utility.yul\":30725:30734   */\n      dup4\n        /* \"#utility.yul\":30721:30739   */\n      add\n        /* \"#utility.yul\":30712:30718   */\n      dup5\n        /* \"#utility.yul\":30668:30740   */\n      tag_386\n      jump\t// in\n    tag_772:\n        /* \"#utility.yul\":30415:30747   */\n      swap4\n      swap3\n      pop\n      pop\n      pop\n      jump\t// out\n\n    auxdata: 0xa264697066735822122088a304b382bd7a50cc4a885a92cd849904aeac8faa16682bf16d9b5d73002c9a64736f6c63430008180033\n}\n",
				"bytecode": {
					"linkReferences": {},
					"object": "608060405234801562000010575f80fd5b506040516200308d3803806200308d83398181016040528101906200003691906200028f565b805f805f6101000a81548160ff0219169083151502179055503360025f6101000a81548173ffffffffffffffffffffffffffffffffffffffff021916908373ffffffffffffffffffffffffffffffffffffffff160217905550806004819055504260058190555050620000b25f801b33620000ed60201b60201c565b50620000e57f65d7a28e3265b37a6474929f336521b332c1681b933f6cb9f3376673440d862a33620000ed60201b60201c565b5050620002bf565b5f620001008383620001e860201b60201c565b620001de576001805f8581526020019081526020015f205f015f8473ffffffffffffffffffffffffffffffffffffffff1673ffffffffffffffffffffffffffffffffffffffff1681526020019081526020015f205f6101000a81548160ff0219169083151502179055506200017a6200024c60201b60201c565b73ffffffffffffffffffffffffffffffffffffffff168273ffffffffffffffffffffffffffffffffffffffff16847f2f8788117e7eff1d82e926ec794901d17c78024a50270940304540a733656f0d60405160405180910390a460019050620001e2565b5f90505b92915050565b5f60015f8481526020019081526020015f205f015f8373ffffffffffffffffffffffffffffffffffffffff1673ffffffffffffffffffffffffffffffffffffffff1681526020019081526020015f205f9054906101000a900460ff16905092915050565b5f33905090565b5f80fd5b5f819050919050565b6200026b8162000257565b811462000276575f80fd5b50565b5f81519050620002898162000260565b92915050565b5f60208284031215620002a757620002a662000253565b5b5f620002b68482850162000279565b91505092915050565b612dc080620002cd5f395ff3fe6080604052600436106101cb575f3560e01c80638da5cb5b116100f6578063d547741f11610094578063ec11c4e911610063578063ec11c4e9146105ec578063ecc3881714610614578063f80265091461061e578063ff52c48414610648576101cb565b8063d547741f1461055c578063df2d072814610584578063e63ab1e9146105ac578063eb0c4955146105d6576101cb565b8063a217fddf116100d0578063a217fddf146104c8578063ba5d3078146104f2578063c69f6d1e1461051c578063c78b432e14610546576101cb565b80638da5cb5b146104385780638f168c931461046257806391d148541461048c576101cb565b806347a041001161016e578063729d581c1161013d578063729d581c146103aa57806379648ed3146103d25780638456cb59146103fa578063858f0e9314610410576101cb565b806347a04100146102ed5780635c975abb146103305780636861c20c1461035a5780636ba6395614610382576101cb565b8063248a9ca3116101aa578063248a9ca31461024b5780632f2ff15d1461028757806336568abe146102af5780633f4ba83a146102d7576101cb565b806263750c146101cf57806301ffc9a7146101e55780631a9703da14610221575b5f80fd5b3480156101da575f80fd5b506101e3610684565b005b3480156101f0575f80fd5b5061020b60048036038101906102069190611dff565b610807565b6040516102189190611e44565b60405180910390f35b34801561022c575f80fd5b50610235610880565b6040516102429190611e75565b60405180910390f35b348015610256575f80fd5b50610271600480360381019061026c9190611ec1565b610886565b60405161027e9190611efb565b60405180910390f35b348015610292575f80fd5b506102ad60048036038101906102a89190611f6e565b6108a3565b005b3480156102ba575f80fd5b506102d560048036038101906102d09190611f6e565b6108c5565b005b3480156102e2575f80fd5b506102eb610940565b005b3480156102f8575f80fd5b50610313600480360381019061030e91906120e8565b610975565b6040516103279897969594939291906121d0565b60405180910390f35b34801561033b575f80fd5b50610344610b34565b6040516103519190611e44565b60405180910390f35b348015610365575f80fd5b50610380600480360381019061037b9190612284565b610b48565b005b34801561038d575f80fd5b506103a860048036038101906103a391906122d9565b610b99565b005b3480156103b5575f80fd5b506103d060048036038101906103cb9190612333565b610e3f565b005b3480156103dd575f80fd5b506103f860048036038101906103f39190612333565b610f7c565b005b348015610405575f80fd5b5061040e6110ba565b005b34801561041b575f80fd5b506104366004803603810190610431919061238d565b6110ef565b005b348015610443575f80fd5b5061044c61123e565b604051610459919061243c565b60405180910390f35b34801561046d575f80fd5b50610476611263565b6040516104839190611e75565b60405180910390f35b348015610497575f80fd5b506104b260048036038101906104ad9190611f6e565b611269565b6040516104bf9190611e44565b60405180910390f35b3480156104d3575f80fd5b506104dc6112cd565b6040516104e99190611efb565b60405180910390f35b3480156104fd575f80fd5b506105066112d3565b6040516105139190611e75565b60405180910390f35b348015610527575f80fd5b506105306112d9565b60405161053d9190611e75565b60405180910390f35b348015610551575f80fd5b5061055a6112e2565b005b348015610567575f80fd5b50610582600480360381019061057d9190611f6e565b6114c9565b005b34801561058f575f80fd5b506105aa60048036038101906105a5919061247f565b6114eb565b005b3480156105b7575f80fd5b506105c06114ef565b6040516105cd9190611efb565b60405180910390f35b3480156105e1575f80fd5b506105ea611513565b005b3480156105f7575f80fd5b50610612600480360381019061060d919061238d565b6115ad565b005b61061c611816565b005b348015610629575f80fd5b50610632611903565b60405161063f9190611e75565b60405180910390f35b348015610653575f80fd5b5061066e60048036038101906106699190612284565b611909565b60405161067b91906124bd565b60405180910390f35b60025f9054906101000a900473ffffffffffffffffffffffffffffffffffffffff1673ffffffffffffffffffffffffffffffffffffffff163373ffffffffffffffffffffffffffffffffffffffff1614610713576040517f08c379a000000000000000000000000000000000000000000000000000000000815260040161070a90612527565b60405180910390fd5b5f60065411610757576040517f08c379a000000000000000000000000000000000000000000000000000000000815260040161074e9061258f565b60405180910390fd5b60025f9054906101000a900473ffffffffffffffffffffffffffffffffffffffff1673ffffffffffffffffffffffffffffffffffffffff166108fc60065490811502906040515f60405180830381858888f193505050501580156107bd573d5f803e3d5ffd5b507f83fc34af3b2b3e6805f62fba84c676774c35112f39650dd86eae042d71c1e5946006546040516107ef9190611e75565b60405180910390a15f60068190555042600581905550565b5f7f7965db0b000000000000000000000000000000000000000000000000000000007bffffffffffffffffffffffffffffffffffffffffffffffffffffffff1916827bffffffffffffffffffffffffffffffffffffffffffffffffffffffff191614806108795750610878826119af565b5b9050919050565b60045481565b5f60015f8381526020019081526020015f20600101549050919050565b6108ac82610886565b6108b581611a18565b6108bf8383611a2c565b50505050565b6108cd611b15565b73ffffffffffffffffffffffffffffffffffffffff168173ffffffffffffffffffffffffffffffffffffffff1614610931576040517f6697b23200000000000000000000000000000000000000000000000000000000815260040160405180910390fd5b61093b8282611b1c565b505050565b7f65d7a28e3265b37a6474929f336521b332c1681b933f6cb9f3376673440d862a61096a81611a18565b610972611c06565b50565b6007818051602081018201805184825260208301602085012081835280955050505050505f91509050805f015f9054906101000a900473ffffffffffffffffffffffffffffffffffffffff1690806001015f9054906101000a900473ffffffffffffffffffffffffffffffffffffffff16908060020180546109f6906125da565b80601f0160208091040260200160405190810160405280929190818152602001828054610a22906125da565b8015610a6d5780601f10610a4457610100808354040283529160200191610a6d565b820191905f5260205f20905b815481529060010190602001808311610a5057829003601f168201915b505050505090806003015490806004015490806005018054610a8e906125da565b80601f0160208091040260200160405190810160405280929190818152602001828054610aba906125da565b8015610b055780601f10610adc57610100808354040283529160200191610b05565b820191905f5260205f20905b815481529060010190602001808311610ae857829003601f168201915b505050505090806006015f9054906101000a900460ff16908060060160019054906101000a900460ff16905088565b5f805f9054906101000a900460ff16905090565b3373ffffffffffffffffffffffffffffffffffffffff167f0c27e43af6588b65dccc4465720ef720b7cf45f5fba352df8607ae1cfea9089b82604051610b8e9190611e75565b60405180910390a250565b5f60088054905011610be0576040517f08c379a0000000000000000000000000000000000000000000000000000000008152600401610bd790612654565b60405180910390fd5b5f60086001600880549050610bf5919061269f565b81548110610c0657610c056126d2565b5b905f5260205f20018054610c19906125da565b80601f0160208091040260200160405190810160405280929190818152602001828054610c45906125da565b8015610c905780601f10610c6757610100808354040283529160200191610c90565b820191905f5260205f20905b815481529060010190602001808311610c7357829003601f168201915b50505050509050600781604051610ca79190612739565b90815260200160405180910390206006015f9054906101000a900460ff16610d04576040517f08c379a0000000000000000000000000000000000000000000000000000000008152600401610cfb90612799565b60405180910390fd5b6001600782604051610d169190612739565b908152602001604051809103902060060160016101000a81548160ff02191690831515021790555082600782604051610d4f9190612739565b9081526020016040518091039020600401819055505f600782604051610d759190612739565b90815260200160405180910390206001015f9054906101000a900473ffffffffffffffffffffffffffffffffffffffff1690508073ffffffffffffffffffffffffffffffffffffffff166108fc600784604051610dd29190612739565b90815260200160405180910390206004015490811502906040515f60405180830381858888f19350505050158015610e0c573d5f803e3d5ffd5b507f4145167a2ecc3424513c83e72c2d0e4a94f423754b82af0bdeaf9fd0f7a174b760405160405180910390a150505050565b3373ffffffffffffffffffffffffffffffffffffffff16600783604051610e669190612739565b90815260200160405180910390205f015f9054906101000a900473ffffffffffffffffffffffffffffffffffffffff1673ffffffffffffffffffffffffffffffffffffffff1614610eec576040517f08c379a0000000000000000000000000000000000000000000000000000000008152600401610ee390612801565b60405180910390fd5b6001600783604051610efe9190612739565b908152602001604051809103902060060160016101000a81548160ff02191690831515021790555080600783604051610f379190612739565b9081526020016040518091039020600401819055507f4145167a2ecc3424513c83e72c2d0e4a94f423754b82af0bdeaf9fd0f7a174b760405160405180910390a15050565b3373ffffffffffffffffffffffffffffffffffffffff16600783604051610fa39190612739565b90815260200160405180910390206001015f9054906101000a900473ffffffffffffffffffffffffffffffffffffffff1673ffffffffffffffffffffffffffffffffffffffff161461102a576040517f08c379a000000000000000000000000000000000000000000000000000000000815260040161102190612869565b60405180910390fd5b600160078360405161103c9190612739565b908152602001604051809103902060060160016101000a81548160ff021916908315150217905550806007836040516110759190612739565b9081526020016040518091039020600401819055507f4145167a2ecc3424513c83e72c2d0e4a94f423754b82af0bdeaf9fd0f7a174b760405160405180910390a15050565b7f65d7a28e3265b37a6474929f336521b332c1681b933f6cb9f3376673440d862a6110e481611a18565b6110ec611c66565b50565b5f848442604051602001611105939291906128c7565b60405160208183030381529060405290503373ffffffffffffffffffffffffffffffffffffffff1660078260405161113d9190612739565b90815260200160405180910390206001015f9054906101000a900473ffffffffffffffffffffffffffffffffffffffff1673ffffffffffffffffffffffffffffffffffffffff16146111c4576040517f08c379a00000000000000000000000000000000000000000000000000000000081526004016111bb90612869565b60405180910390fd5b60016007826040516111d69190612739565b90815260200160405180910390206006015f6101000a81548160ff0219169083151502179055507f02f9110550f3374364c85539074b740b7bfed285798d152502c5f2dfd745cf00338260405161122e9291906128ff565b60405180910390a1505050505050565b60025f9054906101000a900473ffffffffffffffffffffffffffffffffffffffff1681565b60065481565b5f60015f8481526020019081526020015f205f015f8373ffffffffffffffffffffffffffffffffffffffff1673ffffffffffffffffffffffffffffffffffffffff1681526020019081526020015f205f9054906101000a900460ff16905092915050565b5f801b81565b60035481565b5f600654905090565b5f60088054905011611329576040517f08c379a000000000000000000000000000000000000000000000000000000000815260040161132090612654565b60405180910390fd5b5f6008600160088054905061133e919061269f565b8154811061134f5761134e6126d2565b5b905f5260205f20018054611362906125da565b80601f016020809104026020016040519081016040528092919081815260200182805461138e906125da565b80156113d95780601f106113b0576101008083540402835291602001916113d9565b820191905f5260205f20905b8154815290600101906020018083116113bc57829003601f168201915b505050505090506007816040516113f09190612739565b90815260200160405180910390206006015f9054906101000a900460ff1661144d576040517f08c379a000000000000000000000000000000000000000000000000000000000815260040161144490612799565b60405180910390fd5b7ff31a94b3b4c854e5a4adea9f6082ab58856d3750c9a0182c2d9641bda7c09fc560078260405161147e9190612739565b908152602001604051809103902060020160078360405161149f9190612739565b90815260200160405180910390206005016040516114be9291906129c0565b60405180910390a150565b6114d282610886565b6114db81611a18565b6114e58383611b1c565b50505050565b5050565b7f65d7a28e3265b37a6474929f336521b332c1681b933f6cb9f3376673440d862a81565b5f60055442611522919061269f565b90505f63bbf81e008260045460035461153b91906129f5565b61154591906129f5565b61154f9190612a63565b90508060065f8282546115629190612a93565b92505081905550426005819055507fea6dfd6d2633d9628db2f2e59654ec4e8c745c3fd6f05df0065037de020589e26006546040516115a19190611e75565b60405180910390a15050565b5f8484426040516020016115c3939291906128c7565b60405160208183030381529060405290506040518061010001604052803373ffffffffffffffffffffffffffffffffffffffff1681526020018773ffffffffffffffffffffffffffffffffffffffff1681526020018681526020018581526020018481526020018381526020015f151581526020015f151581525060078260405161164e9190612739565b90815260200160405180910390205f820151815f015f6101000a81548173ffffffffffffffffffffffffffffffffffffffff021916908373ffffffffffffffffffffffffffffffffffffffff1602179055506020820151816001015f6101000a81548173ffffffffffffffffffffffffffffffffffffffff021916908373ffffffffffffffffffffffffffffffffffffffff16021790555060408201518160020190816116fb9190612c51565b50606082015181600301556080820151816004015560a08201518160050190816117259190612c51565b5060c0820151816006015f6101000a81548160ff02191690831515021790555060e08201518160060160016101000a81548160ff021916908315150217905550905050600881908060018154018082558091505060019003905f5260205f20015f9091909190915090816117999190612c51565b5060016007826040516117ac9190612739565b90815260200160405180910390206006015f6101000a81548160ff0219169083151502179055507f7511eeca77b6245674aa0ed9cfc29c93005ca6c461f25ca4dcbb0fdb80e003c933828760405161180693929190612d20565b60405180910390a1505050505050565b60025f9054906101000a900473ffffffffffffffffffffffffffffffffffffffff1673ffffffffffffffffffffffffffffffffffffffff163373ffffffffffffffffffffffffffffffffffffffff16146118a5576040517f08c379a000000000000000000000000000000000000000000000000000000000815260040161189c90612527565b60405180910390fd5b34600381905550426005819055503373ffffffffffffffffffffffffffffffffffffffff167f2d61cf17bab18b04495576cf3d5490afd6c0c573d79b7ce84a50fb523abb3daf346040516118f99190611e75565b60405180910390a2565b60055481565b60088181548110611918575f80fd5b905f5260205f20015f915090508054611930906125da565b80601f016020809104026020016040519081016040528092919081815260200182805461195c906125da565b80156119a75780601f1061197e576101008083540402835291602001916119a7565b820191905f5260205f20905b81548152906001019060200180831161198a57829003601f168201915b505050505081565b5f7f01ffc9a7000000000000000000000000000000000000000000000000000000007bffffffffffffffffffffffffffffffffffffffffffffffffffffffff1916827bffffffffffffffffffffffffffffffffffffffffffffffffffffffff1916149050919050565b611a2981611a24611b15565b611cc7565b50565b5f611a378383611269565b611b0b576001805f8581526020019081526020015f205f015f8473ffffffffffffffffffffffffffffffffffffffff1673ffffffffffffffffffffffffffffffffffffffff1681526020019081526020015f205f6101000a81548160ff021916908315150217905550611aa8611b15565b73ffffffffffffffffffffffffffffffffffffffff168273ffffffffffffffffffffffffffffffffffffffff16847f2f8788117e7eff1d82e926ec794901d17c78024a50270940304540a733656f0d60405160405180910390a460019050611b0f565b5f90505b92915050565b5f33905090565b5f611b278383611269565b15611bfc575f60015f8581526020019081526020015f205f015f8473ffffffffffffffffffffffffffffffffffffffff1673ffffffffffffffffffffffffffffffffffffffff1681526020019081526020015f205f6101000a81548160ff021916908315150217905550611b99611b15565b73ffffffffffffffffffffffffffffffffffffffff168273ffffffffffffffffffffffffffffffffffffffff16847ff6391f5c32d9c69d2a47ea670b442974b53935d1edc7fd64eb21e047a839171b60405160405180910390a460019050611c00565b5f90505b92915050565b611c0e611d18565b5f805f6101000a81548160ff0219169083151502179055507f5db9ee0a495bf2e6ff9c91a7834c1ba4fdd244a5e8aa4e537bd38aeae4b073aa611c4f611b15565b604051611c5c919061243c565b60405180910390a1565b611c6e611d58565b60015f806101000a81548160ff0219169083151502179055507f62e78cea01bee320cd4e420270b5ea74000d11b0c9f74754ebdbfc544b05a258611cb0611b15565b604051611cbd919061243c565b60405180910390a1565b611cd18282611269565b611d145780826040517fe2517d3f000000000000000000000000000000000000000000000000000000008152600401611d0b929190612d63565b60405180910390fd5b5050565b611d20610b34565b611d56576040517f8dfc202b00000000000000000000000000000000000000000000000000000000815260040160405180910390fd5b565b611d60610b34565b15611d97576040517fd93c066500000000000000000000000000000000000000000000000000000000815260040160405180910390fd5b565b5f604051905090565b5f80fd5b5f80fd5b5f7fffffffff0000000000000000000000000000000000000000000000000000000082169050919050565b611dde81611daa565b8114611de8575f80fd5b50565b5f81359050611df981611dd5565b92915050565b5f60208284031215611e1457611e13611da2565b5b5f611e2184828501611deb565b91505092915050565b5f8115159050919050565b611e3e81611e2a565b82525050565b5f602082019050611e575f830184611e35565b92915050565b5f819050919050565b611e6f81611e5d565b82525050565b5f602082019050611e885f830184611e66565b92915050565b5f819050919050565b611ea081611e8e565b8114611eaa575f80fd5b50565b5f81359050611ebb81611e97565b92915050565b5f60208284031215611ed657611ed5611da2565b5b5f611ee384828501611ead565b91505092915050565b611ef581611e8e565b82525050565b5f602082019050611f0e5f830184611eec565b92915050565b5f73ffffffffffffffffffffffffffffffffffffffff82169050919050565b5f611f3d82611f14565b9050919050565b611f4d81611f33565b8114611f57575f80fd5b50565b5f81359050611f6881611f44565b92915050565b5f8060408385031215611f8457611f83611da2565b5b5f611f9185828601611ead565b9250506020611fa285828601611f5a565b9150509250929050565b5f80fd5b5f80fd5b5f601f19601f8301169050919050565b7f4e487b71000000000000000000000000000000000000000000000000000000005f52604160045260245ffd5b611ffa82611fb4565b810181811067ffffffffffffffff8211171561201957612018611fc4565b5b80604052505050565b5f61202b611d99565b90506120378282611ff1565b919050565b5f67ffffffffffffffff82111561205657612055611fc4565b5b61205f82611fb4565b9050602081019050919050565b828183375f83830152505050565b5f61208c6120878461203c565b612022565b9050828152602081018484840111156120a8576120a7611fb0565b5b6120b384828561206c565b509392505050565b5f82601f8301126120cf576120ce611fac565b5b81356120df84826020860161207a565b91505092915050565b5f602082840312156120fd576120fc611da2565b5b5f82013567ffffffffffffffff81111561211a57612119611da6565b5b612126848285016120bb565b91505092915050565b61213881611f33565b82525050565b5f81519050919050565b5f82825260208201905092915050565b5f5b8381101561217557808201518184015260208101905061215a565b5f8484015250505050565b5f61218a8261213e565b6121948185612148565b93506121a4818560208601612158565b6121ad81611fb4565b840191505092915050565b5f819050919050565b6121ca816121b8565b82525050565b5f610100820190506121e45f83018b61212f565b6121f1602083018a61212f565b81810360408301526122038189612180565b905061221260608301886121c1565b61221f60808301876121c1565b81810360a08301526122318186612180565b905061224060c0830185611e35565b61224d60e0830184611e35565b9998505050505050505050565b61226381611e5d565b811461226d575f80fd5b50565b5f8135905061227e8161225a565b92915050565b5f6020828403121561229957612298611da2565b5b5f6122a684828501612270565b91505092915050565b6122b8816121b8565b81146122c2575f80fd5b50565b5f813590506122d3816122af565b92915050565b5f80604083850312156122ef576122ee611da2565b5b5f6122fc858286016122c5565b925050602083013567ffffffffffffffff81111561231d5761231c611da6565b5b612329858286016120bb565b9150509250929050565b5f806040838503121561234957612348611da2565b5b5f83013567ffffffffffffffff81111561236657612365611da6565b5b612372858286016120bb565b9250506020612383858286016122c5565b9150509250929050565b5f805f805f60a086880312156123a6576123a5611da2565b5b5f6123b388828901611f5a565b955050602086013567ffffffffffffffff8111156123d4576123d3611da6565b5b6123e0888289016120bb565b94505060406123f1888289016122c5565b9350506060612402888289016122c5565b925050608086013567ffffffffffffffff81111561242357612422611da6565b5b61242f888289016120bb565b9150509295509295909350565b5f60208201905061244f5f83018461212f565b92915050565b61245e81611e2a565b8114612468575f80fd5b50565b5f8135905061247981612455565b92915050565b5f806040838503121561249557612494611da2565b5b5f6124a285828601612270565b92505060206124b38582860161246b565b9150509250929050565b5f6020820190508181035f8301526124d58184612180565b905092915050565b7f4e6f742074686520636f6e7472616374206f776e6572000000000000000000005f82015250565b5f612511601683612148565b915061251c826124dd565b602082019050919050565b5f6020820190508181035f83015261253e81612505565b9050919050565b7f4e6f20696e746572657374206f776564000000000000000000000000000000005f82015250565b5f612579601083612148565b915061258482612545565b602082019050919050565b5f6020820190508181035f8301526125a68161256d565b9050919050565b7f4e487b71000000000000000000000000000000000000000000000000000000005f52602260045260245ffd5b5f60028204905060018216806125f157607f821691505b602082108103612604576126036125ad565b5b50919050565b7f4e6f2074726164657320617661696c61626c65000000000000000000000000005f82015250565b5f61263e601383612148565b91506126498261260a565b602082019050919050565b5f6020820190508181035f83015261266b81612632565b9050919050565b7f4e487b71000000000000000000000000000000000000000000000000000000005f52601160045260245ffd5b5f6126a982611e5d565b91506126b483611e5d565b92508282039050818111156126cc576126cb612672565b5b92915050565b7f4e487b71000000000000000000000000000000000000000000000000000000005f52603260045260245ffd5b5f81905092915050565b5f6127138261213e565b61271d81856126ff565b935061272d818560208601612158565b80840191505092915050565b5f6127448284612709565b915081905092915050565b7f5472616465206e6f7420636f6e6669726d6564000000000000000000000000005f82015250565b5f612783601383612148565b915061278e8261274f565b602082019050919050565b5f6020820190508181035f8301526127b081612777565b9050919050565b7f4e6f742074686520696e69746961746f720000000000000000000000000000005f82015250565b5f6127eb601183612148565b91506127f6826127b7565b602082019050919050565b5f6020820190508181035f830152612818816127df565b9050919050565b7f4e6f742074686520636f756e74657270617274790000000000000000000000005f82015250565b5f612853601483612148565b915061285e8261281f565b602082019050919050565b5f6020820190508181035f83015261288081612847565b9050919050565b5f819050919050565b6128a161289c826121b8565b612887565b82525050565b5f819050919050565b6128c16128bc82611e5d565b6128a7565b82525050565b5f6128d28286612709565b91506128de8285612890565b6020820191506128ee82846128b0565b602082019150819050949350505050565b5f6040820190506129125f83018561212f565b81810360208301526129248184612180565b90509392505050565b5f819050815f5260205f209050919050565b5f815461294b816125da565b6129558186612148565b9450600182165f811461296f5760018114612985576129b7565b60ff1983168652811515602002860193506129b7565b61298e8561292d565b5f5b838110156129af57815481890152600182019150602081019050612990565b808801955050505b50505092915050565b5f6040820190508181035f8301526129d8818561293f565b905081810360208301526129ec818461293f565b90509392505050565b5f6129ff82611e5d565b9150612a0a83611e5d565b9250828202612a1881611e5d565b91508282048414831517612a2f57612a2e612672565b5b5092915050565b7f4e487b71000000000000000000000000000000000000000000000000000000005f52601260045260245ffd5b5f612a6d82611e5d565b9150612a7883611e5d565b925082612a8857612a87612a36565b5b828204905092915050565b5f612a9d82611e5d565b9150612aa883611e5d565b9250828201905080821115612ac057612abf612672565b5b92915050565b5f6020601f8301049050919050565b5f82821b905092915050565b5f60088302612b107fffffffffffffffffffffffffffffffffffffffffffffffffffffffffffffffff82612ad5565b612b1a8683612ad5565b95508019841693508086168417925050509392505050565b5f819050919050565b5f612b55612b50612b4b84611e5d565b612b32565b611e5d565b9050919050565b5f819050919050565b612b6e83612b3b565b612b82612b7a82612b5c565b848454612ae1565b825550505050565b5f90565b612b96612b8a565b612ba1818484612b65565b505050565b5b81811015612bc457612bb95f82612b8e565b600181019050612ba7565b5050565b601f821115612c0957612bda8161292d565b612be384612ac6565b81016020851015612bf2578190505b612c06612bfe85612ac6565b830182612ba6565b50505b505050565b5f82821c905092915050565b5f612c295f1984600802612c0e565b1980831691505092915050565b5f612c418383612c1a565b9150826002028217905092915050565b612c5a8261213e565b67ffffffffffffffff811115612c7357612c72611fc4565b5b612c7d82546125da565b612c88828285612bc8565b5f60209050601f831160018114612cb9575f8415612ca7578287015190505b612cb18582612c36565b865550612d18565b601f198416612cc78661292d565b5f5b82811015612cee57848901518255600182019150602085019450602081019050612cc9565b86831015612d0b5784890151612d07601f891682612c1a565b8355505b6001600288020188555050505b505050505050565b5f606082019050612d335f83018661212f565b8181036020830152612d458185612180565b90508181036040830152612d598184612180565b9050949350505050565b5f604082019050612d765f83018561212f565b612d836020830184611eec565b939250505056fea264697066735822122088a304b382bd7a50cc4a885a92cd849904aeac8faa16682bf16d9b5d73002c9a64736f6c63430008180033",
					"opcodes": "PUSH1 0x80 PUSH1 0x40 MSTORE CALLVALUE DUP1 ISZERO PUSH3 0x10 JUMPI PUSH0 DUP1 REVERT JUMPDEST POP PUSH1 0x40 MLOAD PUSH3 0x308D CODESIZE SUB DUP1 PUSH3 0x308D DUP4 CODECOPY DUP2 DUP2 ADD PUSH1 0x40 MSTORE DUP2 ADD SWAP1 PUSH3 0x36 SWAP2 SWAP1 PUSH3 0x28F JUMP JUMPDEST DUP1 PUSH0 DUP1 PUSH0 PUSH2 0x100 EXP DUP2 SLOAD DUP2 PUSH1 0xFF MUL NOT AND SWAP1 DUP4 ISZERO ISZERO MUL OR SWAP1 SSTORE POP CALLER PUSH1 0x2 PUSH0 PUSH2 0x100 EXP DUP2 SLOAD DUP2 PUSH20 0xFFFFFFFFFFFFFFFFFFFFFFFFFFFFFFFFFFFFFFFF MUL NOT AND SWAP1 DUP4 PUSH20 0xFFFFFFFFFFFFFFFFFFFFFFFFFFFFFFFFFFFFFFFF AND MUL OR SWAP1 SSTORE POP DUP1 PUSH1 0x4 DUP2 SWAP1 SSTORE POP TIMESTAMP PUSH1 0x5 DUP2 SWAP1 SSTORE POP POP PUSH3 0xB2 PUSH0 DUP1 SHL CALLER PUSH3 0xED PUSH1 0x20 SHL PUSH1 0x20 SHR JUMP JUMPDEST POP PUSH3 0xE5 PUSH32 0x65D7A28E3265B37A6474929F336521B332C1681B933F6CB9F3376673440D862A CALLER PUSH3 0xED PUSH1 0x20 SHL PUSH1 0x20 SHR JUMP JUMPDEST POP POP PUSH3 0x2BF JUMP JUMPDEST PUSH0 PUSH3 0x100 DUP4 DUP4 PUSH3 0x1E8 PUSH1 0x20 SHL PUSH1 0x20 SHR JUMP JUMPDEST PUSH3 0x1DE JUMPI PUSH1 0x1 DUP1 PUSH0 DUP6 DUP2 MSTORE PUSH1 0x20 ADD SWAP1 DUP2 MSTORE PUSH1 0x20 ADD PUSH0 KECCAK256 PUSH0 ADD PUSH0 DUP5 PUSH20 0xFFFFFFFFFFFFFFFFFFFFFFFFFFFFFFFFFFFFFFFF AND PUSH20 0xFFFFFFFFFFFFFFFFFFFFFFFFFFFFFFFFFFFFFFFF AND DUP2 MSTORE PUSH1 0x20 ADD SWAP1 DUP2 MSTORE PUSH1 0x20 ADD PUSH0 KECCAK256 PUSH0 PUSH2 0x100 EXP DUP2 SLOAD DUP2 PUSH1 0xFF MUL NOT AND SWAP1 DUP4 ISZERO ISZERO MUL OR SWAP1 SSTORE POP PUSH3 0x17A PUSH3 0x24C PUSH1 0x20 SHL PUSH1 0x20 SHR JUMP JUMPDEST PUSH20 0xFFFFFFFFFFFFFFFFFFFFFFFFFFFFFFFFFFFFFFFF AND DUP3 PUSH20 0xFFFFFFFFFFFFFFFFFFFFFFFFFFFFFFFFFFFFFFFF AND DUP5 PUSH32 0x2F8788117E7EFF1D82E926EC794901D17C78024A50270940304540A733656F0D PUSH1 0x40 MLOAD PUSH1 0x40 MLOAD DUP1 SWAP2 SUB SWAP1 LOG4 PUSH1 0x1 SWAP1 POP PUSH3 0x1E2 JUMP JUMPDEST PUSH0 SWAP1 POP JUMPDEST SWAP3 SWAP2 POP POP JUMP JUMPDEST PUSH0 PUSH1 0x1 PUSH0 DUP5 DUP2 MSTORE PUSH1 0x20 ADD SWAP1 DUP2 MSTORE PUSH1 0x20 ADD PUSH0 KECCAK256 PUSH0 ADD PUSH0 DUP4 PUSH20 0xFFFFFFFFFFFFFFFFFFFFFFFFFFFFFFFFFFFFFFFF AND PUSH20 0xFFFFFFFFFFFFFFFFFFFFFFFFFFFFFFFFFFFFFFFF AND DUP2 MSTORE PUSH1 0x20 ADD SWAP1 DUP2 MSTORE PUSH1 0x20 ADD PUSH0 KECCAK256 PUSH0 SWAP1 SLOAD SWAP1 PUSH2 0x100 EXP SWAP1 DIV PUSH1 0xFF AND SWAP1 POP SWAP3 SWAP2 POP POP JUMP JUMPDEST PUSH0 CALLER SWAP1 POP SWAP1 JUMP JUMPDEST PUSH0 DUP1 REVERT JUMPDEST PUSH0 DUP2 SWAP1 POP SWAP2 SWAP1 POP JUMP JUMPDEST PUSH3 0x26B DUP2 PUSH3 0x257 JUMP JUMPDEST DUP2 EQ PUSH3 0x276 JUMPI PUSH0 DUP1 REVERT JUMPDEST POP JUMP JUMPDEST PUSH0 DUP2 MLOAD SWAP1 POP PUSH3 0x289 DUP2 PUSH3 0x260 JUMP JUMPDEST SWAP3 SWAP2 POP POP JUMP JUMPDEST PUSH0 PUSH1 0x20 DUP3 DUP5 SUB SLT ISZERO PUSH3 0x2A7 JUMPI PUSH3 0x2A6 PUSH3 0x253 JUMP JUMPDEST JUMPDEST PUSH0 PUSH3 0x2B6 DUP5 DUP3 DUP6 ADD PUSH3 0x279 JUMP JUMPDEST SWAP2 POP POP SWAP3 SWAP2 POP POP JUMP JUMPDEST PUSH2 0x2DC0 DUP1 PUSH3 0x2CD PUSH0 CODECOPY PUSH0 RETURN INVALID PUSH1 0x80 PUSH1 0x40 MSTORE PUSH1 0x4 CALLDATASIZE LT PUSH2 0x1CB JUMPI PUSH0 CALLDATALOAD PUSH1 0xE0 SHR DUP1 PUSH4 0x8DA5CB5B GT PUSH2 0xF6 JUMPI DUP1 PUSH4 0xD547741F GT PUSH2 0x94 JUMPI DUP1 PUSH4 0xEC11C4E9 GT PUSH2 0x63 JUMPI DUP1 PUSH4 0xEC11C4E9 EQ PUSH2 0x5EC JUMPI DUP1 PUSH4 0xECC38817 EQ PUSH2 0x614 JUMPI DUP1 PUSH4 0xF8026509 EQ PUSH2 0x61E JUMPI DUP1 PUSH4 0xFF52C484 EQ PUSH2 0x648 JUMPI PUSH2 0x1CB JUMP JUMPDEST DUP1 PUSH4 0xD547741F EQ PUSH2 0x55C JUMPI DUP1 PUSH4 0xDF2D0728 EQ PUSH2 0x584 JUMPI DUP1 PUSH4 0xE63AB1E9 EQ PUSH2 0x5AC JUMPI DUP1 PUSH4 0xEB0C4955 EQ PUSH2 0x5D6 JUMPI PUSH2 0x1CB JUMP JUMPDEST DUP1 PUSH4 0xA217FDDF GT PUSH2 0xD0 JUMPI DUP1 PUSH4 0xA217FDDF EQ PUSH2 0x4C8 JUMPI DUP1 PUSH4 0xBA5D3078 EQ PUSH2 0x4F2 JUMPI DUP1 PUSH4 0xC69F6D1E EQ PUSH2 0x51C JUMPI DUP1 PUSH4 0xC78B432E EQ PUSH2 0x546 JUMPI PUSH2 0x1CB JUMP JUMPDEST DUP1 PUSH4 0x8DA5CB5B EQ PUSH2 0x438 JUMPI DUP1 PUSH4 0x8F168C93 EQ PUSH2 0x462 JUMPI DUP1 PUSH4 0x91D14854 EQ PUSH2 0x48C JUMPI PUSH2 0x1CB JUMP JUMPDEST DUP1 PUSH4 0x47A04100 GT PUSH2 0x16E JUMPI DUP1 PUSH4 0x729D581C GT PUSH2 0x13D JUMPI DUP1 PUSH4 0x729D581C EQ PUSH2 0x3AA JUMPI DUP1 PUSH4 0x79648ED3 EQ PUSH2 0x3D2 JUMPI DUP1 PUSH4 0x8456CB59 EQ PUSH2 0x3FA JUMPI DUP1 PUSH4 0x858F0E93 EQ PUSH2 0x410 JUMPI PUSH2 0x1CB JUMP JUMPDEST DUP1 PUSH4 0x47A04100 EQ PUSH2 0x2ED JUMPI DUP1 PUSH4 0x5C975ABB EQ PUSH2 0x330 JUMPI DUP1 PUSH4 0x6861C20C EQ PUSH2 0x35A JUMPI DUP1 PUSH4 0x6BA63956 EQ PUSH2 0x382 JUMPI PUSH2 0x1CB JUMP JUMPDEST DUP1 PUSH4 0x248A9CA3 GT PUSH2 0x1AA JUMPI DUP1 PUSH4 0x248A9CA3 EQ PUSH2 0x24B JUMPI DUP1 PUSH4 0x2F2FF15D EQ PUSH2 0x287 JUMPI DUP1 PUSH4 0x36568ABE EQ PUSH2 0x2AF JUMPI DUP1 PUSH4 0x3F4BA83A EQ PUSH2 0x2D7 JUMPI PUSH2 0x1CB JUMP JUMPDEST DUP1 PUSH3 0x63750C EQ PUSH2 0x1CF JUMPI DUP1 PUSH4 0x1FFC9A7 EQ PUSH2 0x1E5 JUMPI DUP1 PUSH4 0x1A9703DA EQ PUSH2 0x221 JUMPI JUMPDEST PUSH0 DUP1 REVERT JUMPDEST CALLVALUE DUP1 ISZERO PUSH2 0x1DA JUMPI PUSH0 DUP1 REVERT JUMPDEST POP PUSH2 0x1E3 PUSH2 0x684 JUMP JUMPDEST STOP JUMPDEST CALLVALUE DUP1 ISZERO PUSH2 0x1F0 JUMPI PUSH0 DUP1 REVERT JUMPDEST POP PUSH2 0x20B PUSH1 0x4 DUP1 CALLDATASIZE SUB DUP2 ADD SWAP1 PUSH2 0x206 SWAP2 SWAP1 PUSH2 0x1DFF JUMP JUMPDEST PUSH2 0x807 JUMP JUMPDEST PUSH1 0x40 MLOAD PUSH2 0x218 SWAP2 SWAP1 PUSH2 0x1E44 JUMP JUMPDEST PUSH1 0x40 MLOAD DUP1 SWAP2 SUB SWAP1 RETURN JUMPDEST CALLVALUE DUP1 ISZERO PUSH2 0x22C JUMPI PUSH0 DUP1 REVERT JUMPDEST POP PUSH2 0x235 PUSH2 0x880 JUMP JUMPDEST PUSH1 0x40 MLOAD PUSH2 0x242 SWAP2 SWAP1 PUSH2 0x1E75 JUMP JUMPDEST PUSH1 0x40 MLOAD DUP1 SWAP2 SUB SWAP1 RETURN JUMPDEST CALLVALUE DUP1 ISZERO PUSH2 0x256 JUMPI PUSH0 DUP1 REVERT JUMPDEST POP PUSH2 0x271 PUSH1 0x4 DUP1 CALLDATASIZE SUB DUP2 ADD SWAP1 PUSH2 0x26C SWAP2 SWAP1 PUSH2 0x1EC1 JUMP JUMPDEST PUSH2 0x886 JUMP JUMPDEST PUSH1 0x40 MLOAD PUSH2 0x27E SWAP2 SWAP1 PUSH2 0x1EFB JUMP JUMPDEST PUSH1 0x40 MLOAD DUP1 SWAP2 SUB SWAP1 RETURN JUMPDEST CALLVALUE DUP1 ISZERO PUSH2 0x292 JUMPI PUSH0 DUP1 REVERT JUMPDEST POP PUSH2 0x2AD PUSH1 0x4 DUP1 CALLDATASIZE SUB DUP2 ADD SWAP1 PUSH2 0x2A8 SWAP2 SWAP1 PUSH2 0x1F6E JUMP JUMPDEST PUSH2 0x8A3 JUMP JUMPDEST STOP JUMPDEST CALLVALUE DUP1 ISZERO PUSH2 0x2BA JUMPI PUSH0 DUP1 REVERT JUMPDEST POP PUSH2 0x2D5 PUSH1 0x4 DUP1 CALLDATASIZE SUB DUP2 ADD SWAP1 PUSH2 0x2D0 SWAP2 SWAP1 PUSH2 0x1F6E JUMP JUMPDEST PUSH2 0x8C5 JUMP JUMPDEST STOP JUMPDEST CALLVALUE DUP1 ISZERO PUSH2 0x2E2 JUMPI PUSH0 DUP1 REVERT JUMPDEST POP PUSH2 0x2EB PUSH2 0x940 JUMP JUMPDEST STOP JUMPDEST CALLVALUE DUP1 ISZERO PUSH2 0x2F8 JUMPI PUSH0 DUP1 REVERT JUMPDEST POP PUSH2 0x313 PUSH1 0x4 DUP1 CALLDATASIZE SUB DUP2 ADD SWAP1 PUSH2 0x30E SWAP2 SWAP1 PUSH2 0x20E8 JUMP JUMPDEST PUSH2 0x975 JUMP JUMPDEST PUSH1 0x40 MLOAD PUSH2 0x327 SWAP9 SWAP8 SWAP7 SWAP6 SWAP5 SWAP4 SWAP3 SWAP2 SWAP1 PUSH2 0x21D0 JUMP JUMPDEST PUSH1 0x40 MLOAD DUP1 SWAP2 SUB SWAP1 RETURN JUMPDEST CALLVALUE DUP1 ISZERO PUSH2 0x33B JUMPI PUSH0 DUP1 REVERT JUMPDEST POP PUSH2 0x344 PUSH2 0xB34 JUMP JUMPDEST PUSH1 0x40 MLOAD PUSH2 0x351 SWAP2 SWAP1 PUSH2 0x1E44 JUMP JUMPDEST PUSH1 0x40 MLOAD DUP1 SWAP2 SUB SWAP1 RETURN JUMPDEST CALLVALUE DUP1 ISZERO PUSH2 0x365 JUMPI PUSH0 DUP1 REVERT JUMPDEST POP PUSH2 0x380 PUSH1 0x4 DUP1 CALLDATASIZE SUB DUP2 ADD SWAP1 PUSH2 0x37B SWAP2 SWAP1 PUSH2 0x2284 JUMP JUMPDEST PUSH2 0xB48 JUMP JUMPDEST STOP JUMPDEST CALLVALUE DUP1 ISZERO PUSH2 0x38D JUMPI PUSH0 DUP1 REVERT JUMPDEST POP PUSH2 0x3A8 PUSH1 0x4 DUP1 CALLDATASIZE SUB DUP2 ADD SWAP1 PUSH2 0x3A3 SWAP2 SWAP1 PUSH2 0x22D9 JUMP JUMPDEST PUSH2 0xB99 JUMP JUMPDEST STOP JUMPDEST CALLVALUE DUP1 ISZERO PUSH2 0x3B5 JUMPI PUSH0 DUP1 REVERT JUMPDEST POP PUSH2 0x3D0 PUSH1 0x4 DUP1 CALLDATASIZE SUB DUP2 ADD SWAP1 PUSH2 0x3CB SWAP2 SWAP1 PUSH2 0x2333 JUMP JUMPDEST PUSH2 0xE3F JUMP JUMPDEST STOP JUMPDEST CALLVALUE DUP1 ISZERO PUSH2 0x3DD JUMPI PUSH0 DUP1 REVERT JUMPDEST POP PUSH2 0x3F8 PUSH1 0x4 DUP1 CALLDATASIZE SUB DUP2 ADD SWAP1 PUSH2 0x3F3 SWAP2 SWAP1 PUSH2 0x2333 JUMP JUMPDEST PUSH2 0xF7C JUMP JUMPDEST STOP JUMPDEST CALLVALUE DUP1 ISZERO PUSH2 0x405 JUMPI PUSH0 DUP1 REVERT JUMPDEST POP PUSH2 0x40E PUSH2 0x10BA JUMP JUMPDEST STOP JUMPDEST CALLVALUE DUP1 ISZERO PUSH2 0x41B JUMPI PUSH0 DUP1 REVERT JUMPDEST POP PUSH2 0x436 PUSH1 0x4 DUP1 CALLDATASIZE SUB DUP2 ADD SWAP1 PUSH2 0x431 SWAP2 SWAP1 PUSH2 0x238D JUMP JUMPDEST PUSH2 0x10EF JUMP JUMPDEST STOP JUMPDEST CALLVALUE DUP1 ISZERO PUSH2 0x443 JUMPI PUSH0 DUP1 REVERT JUMPDEST POP PUSH2 0x44C PUSH2 0x123E JUMP JUMPDEST PUSH1 0x40 MLOAD PUSH2 0x459 SWAP2 SWAP1 PUSH2 0x243C JUMP JUMPDEST PUSH1 0x40 MLOAD DUP1 SWAP2 SUB SWAP1 RETURN JUMPDEST CALLVALUE DUP1 ISZERO PUSH2 0x46D JUMPI PUSH0 DUP1 REVERT JUMPDEST POP PUSH2 0x476 PUSH2 0x1263 JUMP JUMPDEST PUSH1 0x40 MLOAD PUSH2 0x483 SWAP2 SWAP1 PUSH2 0x1E75 JUMP JUMPDEST PUSH1 0x40 MLOAD DUP1 SWAP2 SUB SWAP1 RETURN JUMPDEST CALLVALUE DUP1 ISZERO PUSH2 0x497 JUMPI PUSH0 DUP1 REVERT JUMPDEST POP PUSH2 0x4B2 PUSH1 0x4 DUP1 CALLDATASIZE SUB DUP2 ADD SWAP1 PUSH2 0x4AD SWAP2 SWAP1 PUSH2 0x1F6E JUMP JUMPDEST PUSH2 0x1269 JUMP JUMPDEST PUSH1 0x40 MLOAD PUSH2 0x4BF SWAP2 SWAP1 PUSH2 0x1E44 JUMP JUMPDEST PUSH1 0x40 MLOAD DUP1 SWAP2 SUB SWAP1 RETURN JUMPDEST CALLVALUE DUP1 ISZERO PUSH2 0x4D3 JUMPI PUSH0 DUP1 REVERT JUMPDEST POP PUSH2 0x4DC PUSH2 0x12CD JUMP JUMPDEST PUSH1 0x40 MLOAD PUSH2 0x4E9 SWAP2 SWAP1 PUSH2 0x1EFB JUMP JUMPDEST PUSH1 0x40 MLOAD DUP1 SWAP2 SUB SWAP1 RETURN JUMPDEST CALLVALUE DUP1 ISZERO PUSH2 0x4FD JUMPI PUSH0 DUP1 REVERT JUMPDEST POP PUSH2 0x506 PUSH2 0x12D3 JUMP JUMPDEST PUSH1 0x40 MLOAD PUSH2 0x513 SWAP2 SWAP1 PUSH2 0x1E75 JUMP JUMPDEST PUSH1 0x40 MLOAD DUP1 SWAP2 SUB SWAP1 RETURN JUMPDEST CALLVALUE DUP1 ISZERO PUSH2 0x527 JUMPI PUSH0 DUP1 REVERT JUMPDEST POP PUSH2 0x530 PUSH2 0x12D9 JUMP JUMPDEST PUSH1 0x40 MLOAD PUSH2 0x53D SWAP2 SWAP1 PUSH2 0x1E75 JUMP JUMPDEST PUSH1 0x40 MLOAD DUP1 SWAP2 SUB SWAP1 RETURN JUMPDEST CALLVALUE DUP1 ISZERO PUSH2 0x551 JUMPI PUSH0 DUP1 REVERT JUMPDEST POP PUSH2 0x55A PUSH2 0x12E2 JUMP JUMPDEST STOP JUMPDEST CALLVALUE DUP1 ISZERO PUSH2 0x567 JUMPI PUSH0 DUP1 REVERT JUMPDEST POP PUSH2 0x582 PUSH1 0x4 DUP1 CALLDATASIZE SUB DUP2 ADD SWAP1 PUSH2 0x57D SWAP2 SWAP1 PUSH2 0x1F6E JUMP JUMPDEST PUSH2 0x14C9 JUMP JUMPDEST STOP JUMPDEST CALLVALUE DUP1 ISZERO PUSH2 0x58F JUMPI PUSH0 DUP1 REVERT JUMPDEST POP PUSH2 0x5AA PUSH1 0x4 DUP1 CALLDATASIZE SUB DUP2 ADD SWAP1 PUSH2 0x5A5 SWAP2 SWAP1 PUSH2 0x247F JUMP JUMPDEST PUSH2 0x14EB JUMP JUMPDEST STOP JUMPDEST CALLVALUE DUP1 ISZERO PUSH2 0x5B7 JUMPI PUSH0 DUP1 REVERT JUMPDEST POP PUSH2 0x5C0 PUSH2 0x14EF JUMP JUMPDEST PUSH1 0x40 MLOAD PUSH2 0x5CD SWAP2 SWAP1 PUSH2 0x1EFB JUMP JUMPDEST PUSH1 0x40 MLOAD DUP1 SWAP2 SUB SWAP1 RETURN JUMPDEST CALLVALUE DUP1 ISZERO PUSH2 0x5E1 JUMPI PUSH0 DUP1 REVERT JUMPDEST POP PUSH2 0x5EA PUSH2 0x1513 JUMP JUMPDEST STOP JUMPDEST CALLVALUE DUP1 ISZERO PUSH2 0x5F7 JUMPI PUSH0 DUP1 REVERT JUMPDEST POP PUSH2 0x612 PUSH1 0x4 DUP1 CALLDATASIZE SUB DUP2 ADD SWAP1 PUSH2 0x60D SWAP2 SWAP1 PUSH2 0x238D JUMP JUMPDEST PUSH2 0x15AD JUMP JUMPDEST STOP JUMPDEST PUSH2 0x61C PUSH2 0x1816 JUMP JUMPDEST STOP JUMPDEST CALLVALUE DUP1 ISZERO PUSH2 0x629 JUMPI PUSH0 DUP1 REVERT JUMPDEST POP PUSH2 0x632 PUSH2 0x1903 JUMP JUMPDEST PUSH1 0x40 MLOAD PUSH2 0x63F SWAP2 SWAP1 PUSH2 0x1E75 JUMP JUMPDEST PUSH1 0x40 MLOAD DUP1 SWAP2 SUB SWAP1 RETURN JUMPDEST CALLVALUE DUP1 ISZERO PUSH2 0x653 JUMPI PUSH0 DUP1 REVERT JUMPDEST POP PUSH2 0x66E PUSH1 0x4 DUP1 CALLDATASIZE SUB DUP2 ADD SWAP1 PUSH2 0x669 SWAP2 SWAP1 PUSH2 0x2284 JUMP JUMPDEST PUSH2 0x1909 JUMP JUMPDEST PUSH1 0x40 MLOAD PUSH2 0x67B SWAP2 SWAP1 PUSH2 0x24BD JUMP JUMPDEST PUSH1 0x40 MLOAD DUP1 SWAP2 SUB SWAP1 RETURN JUMPDEST PUSH1 0x2 PUSH0 SWAP1 SLOAD SWAP1 PUSH2 0x100 EXP SWAP1 DIV PUSH20 0xFFFFFFFFFFFFFFFFFFFFFFFFFFFFFFFFFFFFFFFF AND PUSH20 0xFFFFFFFFFFFFFFFFFFFFFFFFFFFFFFFFFFFFFFFF AND CALLER PUSH20 0xFFFFFFFFFFFFFFFFFFFFFFFFFFFFFFFFFFFFFFFF AND EQ PUSH2 0x713 JUMPI PUSH1 0x40 MLOAD PUSH32 0x8C379A000000000000000000000000000000000000000000000000000000000 DUP2 MSTORE PUSH1 0x4 ADD PUSH2 0x70A SWAP1 PUSH2 0x2527 JUMP JUMPDEST PUSH1 0x40 MLOAD DUP1 SWAP2 SUB SWAP1 REVERT JUMPDEST PUSH0 PUSH1 0x6 SLOAD GT PUSH2 0x757 JUMPI PUSH1 0x40 MLOAD PUSH32 0x8C379A000000000000000000000000000000000000000000000000000000000 DUP2 MSTORE PUSH1 0x4 ADD PUSH2 0x74E SWAP1 PUSH2 0x258F JUMP JUMPDEST PUSH1 0x40 MLOAD DUP1 SWAP2 SUB SWAP1 REVERT JUMPDEST PUSH1 0x2 PUSH0 SWAP1 SLOAD SWAP1 PUSH2 0x100 EXP SWAP1 DIV PUSH20 0xFFFFFFFFFFFFFFFFFFFFFFFFFFFFFFFFFFFFFFFF AND PUSH20 0xFFFFFFFFFFFFFFFFFFFFFFFFFFFFFFFFFFFFFFFF AND PUSH2 0x8FC PUSH1 0x6 SLOAD SWAP1 DUP2 ISZERO MUL SWAP1 PUSH1 0x40 MLOAD PUSH0 PUSH1 0x40 MLOAD DUP1 DUP4 SUB DUP2 DUP6 DUP9 DUP9 CALL SWAP4 POP POP POP POP ISZERO DUP1 ISZERO PUSH2 0x7BD JUMPI RETURNDATASIZE PUSH0 DUP1 RETURNDATACOPY RETURNDATASIZE PUSH0 REVERT JUMPDEST POP PUSH32 0x83FC34AF3B2B3E6805F62FBA84C676774C35112F39650DD86EAE042D71C1E594 PUSH1 0x6 SLOAD PUSH1 0x40 MLOAD PUSH2 0x7EF SWAP2 SWAP1 PUSH2 0x1E75 JUMP JUMPDEST PUSH1 0x40 MLOAD DUP1 SWAP2 SUB SWAP1 LOG1 PUSH0 PUSH1 0x6 DUP2 SWAP1 SSTORE POP TIMESTAMP PUSH1 0x5 DUP2 SWAP1 SSTORE POP JUMP JUMPDEST PUSH0 PUSH32 0x7965DB0B00000000000000000000000000000000000000000000000000000000 PUSH28 0xFFFFFFFFFFFFFFFFFFFFFFFFFFFFFFFFFFFFFFFFFFFFFFFFFFFFFFFF NOT AND DUP3 PUSH28 0xFFFFFFFFFFFFFFFFFFFFFFFFFFFFFFFFFFFFFFFFFFFFFFFFFFFFFFFF NOT AND EQ DUP1 PUSH2 0x879 JUMPI POP PUSH2 0x878 DUP3 PUSH2 0x19AF JUMP JUMPDEST JUMPDEST SWAP1 POP SWAP2 SWAP1 POP JUMP JUMPDEST PUSH1 0x4 SLOAD DUP2 JUMP JUMPDEST PUSH0 PUSH1 0x1 PUSH0 DUP4 DUP2 MSTORE PUSH1 0x20 ADD SWAP1 DUP2 MSTORE PUSH1 0x20 ADD PUSH0 KECCAK256 PUSH1 0x1 ADD SLOAD SWAP1 POP SWAP2 SWAP1 POP JUMP JUMPDEST PUSH2 0x8AC DUP3 PUSH2 0x886 JUMP JUMPDEST PUSH2 0x8B5 DUP2 PUSH2 0x1A18 JUMP JUMPDEST PUSH2 0x8BF DUP4 DUP4 PUSH2 0x1A2C JUMP JUMPDEST POP POP POP POP JUMP JUMPDEST PUSH2 0x8CD PUSH2 0x1B15 JUMP JUMPDEST PUSH20 0xFFFFFFFFFFFFFFFFFFFFFFFFFFFFFFFFFFFFFFFF AND DUP2 PUSH20 0xFFFFFFFFFFFFFFFFFFFFFFFFFFFFFFFFFFFFFFFF AND EQ PUSH2 0x931 JUMPI PUSH1 0x40 MLOAD PUSH32 0x6697B23200000000000000000000000000000000000000000000000000000000 DUP2 MSTORE PUSH1 0x4 ADD PUSH1 0x40 MLOAD DUP1 SWAP2 SUB SWAP1 REVERT JUMPDEST PUSH2 0x93B DUP3 DUP3 PUSH2 0x1B1C JUMP JUMPDEST POP POP POP JUMP JUMPDEST PUSH32 0x65D7A28E3265B37A6474929F336521B332C1681B933F6CB9F3376673440D862A PUSH2 0x96A DUP2 PUSH2 0x1A18 JUMP JUMPDEST PUSH2 0x972 PUSH2 0x1C06 JUMP JUMPDEST POP JUMP JUMPDEST PUSH1 0x7 DUP2 DUP1 MLOAD PUSH1 0x20 DUP2 ADD DUP3 ADD DUP1 MLOAD DUP5 DUP3 MSTORE PUSH1 0x20 DUP4 ADD PUSH1 0x20 DUP6 ADD KECCAK256 DUP2 DUP4 MSTORE DUP1 SWAP6 POP POP POP POP POP POP PUSH0 SWAP2 POP SWAP1 POP DUP1 PUSH0 ADD PUSH0 SWAP1 SLOAD SWAP1 PUSH2 0x100 EXP SWAP1 DIV PUSH20 0xFFFFFFFFFFFFFFFFFFFFFFFFFFFFFFFFFFFFFFFF AND SWAP1 DUP1 PUSH1 0x1 ADD PUSH0 SWAP1 SLOAD SWAP1 PUSH2 0x100 EXP SWAP1 DIV PUSH20 0xFFFFFFFFFFFFFFFFFFFFFFFFFFFFFFFFFFFFFFFF AND SWAP1 DUP1 PUSH1 0x2 ADD DUP1 SLOAD PUSH2 0x9F6 SWAP1 PUSH2 0x25DA JUMP JUMPDEST DUP1 PUSH1 0x1F ADD PUSH1 0x20 DUP1 SWAP2 DIV MUL PUSH1 0x20 ADD PUSH1 0x40 MLOAD SWAP1 DUP2 ADD PUSH1 0x40 MSTORE DUP1 SWAP3 SWAP2 SWAP1 DUP2 DUP2 MSTORE PUSH1 0x20 ADD DUP3 DUP1 SLOAD PUSH2 0xA22 SWAP1 PUSH2 0x25DA JUMP JUMPDEST DUP1 ISZERO PUSH2 0xA6D JUMPI DUP1 PUSH1 0x1F LT PUSH2 0xA44 JUMPI PUSH2 0x100 DUP1 DUP4 SLOAD DIV MUL DUP4 MSTORE SWAP2 PUSH1 0x20 ADD SWAP2 PUSH2 0xA6D JUMP JUMPDEST DUP3 ADD SWAP2 SWAP1 PUSH0 MSTORE PUSH1 0x20 PUSH0 KECCAK256 SWAP1 JUMPDEST DUP2 SLOAD DUP2 MSTORE SWAP1 PUSH1 0x1 ADD SWAP1 PUSH1 0x20 ADD DUP1 DUP4 GT PUSH2 0xA50 JUMPI DUP3 SWAP1 SUB PUSH1 0x1F AND DUP3 ADD SWAP2 JUMPDEST POP POP POP POP POP SWAP1 DUP1 PUSH1 0x3 ADD SLOAD SWAP1 DUP1 PUSH1 0x4 ADD SLOAD SWAP1 DUP1 PUSH1 0x5 ADD DUP1 SLOAD PUSH2 0xA8E SWAP1 PUSH2 0x25DA JUMP JUMPDEST DUP1 PUSH1 0x1F ADD PUSH1 0x20 DUP1 SWAP2 DIV MUL PUSH1 0x20 ADD PUSH1 0x40 MLOAD SWAP1 DUP2 ADD PUSH1 0x40 MSTORE DUP1 SWAP3 SWAP2 SWAP1 DUP2 DUP2 MSTORE PUSH1 0x20 ADD DUP3 DUP1 SLOAD PUSH2 0xABA SWAP1 PUSH2 0x25DA JUMP JUMPDEST DUP1 ISZERO PUSH2 0xB05 JUMPI DUP1 PUSH1 0x1F LT PUSH2 0xADC JUMPI PUSH2 0x100 DUP1 DUP4 SLOAD DIV MUL DUP4 MSTORE SWAP2 PUSH1 0x20 ADD SWAP2 PUSH2 0xB05 JUMP JUMPDEST DUP3 ADD SWAP2 SWAP1 PUSH0 MSTORE PUSH1 0x20 PUSH0 KECCAK256 SWAP1 JUMPDEST DUP2 SLOAD DUP2 MSTORE SWAP1 PUSH1 0x1 ADD SWAP1 PUSH1 0x20 ADD DUP1 DUP4 GT PUSH2 0xAE8 JUMPI DUP3 SWAP1 SUB PUSH1 0x1F AND DUP3 ADD SWAP2 JUMPDEST POP POP POP POP POP SWAP1 DUP1 PUSH1 0x6 ADD PUSH0 SWAP1 SLOAD SWAP1 PUSH2 0x100 EXP SWAP1 DIV PUSH1 0xFF AND SWAP1 DUP1 PUSH1 0x6 ADD PUSH1 0x1 SWAP1 SLOAD SWAP1 PUSH2 0x100 EXP SWAP1 DIV PUSH1 0xFF AND SWAP1 POP DUP9 JUMP JUMPDEST PUSH0 DUP1 PUSH0 SWAP1 SLOAD SWAP1 PUSH2 0x100 EXP SWAP1 DIV PUSH1 0xFF AND SWAP1 POP SWAP1 JUMP JUMPDEST CALLER PUSH20 0xFFFFFFFFFFFFFFFFFFFFFFFFFFFFFFFFFFFFFFFF AND PUSH32 0xC27E43AF6588B65DCCC4465720EF720B7CF45F5FBA352DF8607AE1CFEA9089B DUP3 PUSH1 0x40 MLOAD PUSH2 0xB8E SWAP2 SWAP1 PUSH2 0x1E75 JUMP JUMPDEST PUSH1 0x40 MLOAD DUP1 SWAP2 SUB SWAP1 LOG2 POP JUMP JUMPDEST PUSH0 PUSH1 0x8 DUP1 SLOAD SWAP1 POP GT PUSH2 0xBE0 JUMPI PUSH1 0x40 MLOAD PUSH32 0x8C379A000000000000000000000000000000000000000000000000000000000 DUP2 MSTORE PUSH1 0x4 ADD PUSH2 0xBD7 SWAP1 PUSH2 0x2654 JUMP JUMPDEST PUSH1 0x40 MLOAD DUP1 SWAP2 SUB SWAP1 REVERT JUMPDEST PUSH0 PUSH1 0x8 PUSH1 0x1 PUSH1 0x8 DUP1 SLOAD SWAP1 POP PUSH2 0xBF5 SWAP2 SWAP1 PUSH2 0x269F JUMP JUMPDEST DUP2 SLOAD DUP2 LT PUSH2 0xC06 JUMPI PUSH2 0xC05 PUSH2 0x26D2 JUMP JUMPDEST JUMPDEST SWAP1 PUSH0 MSTORE PUSH1 0x20 PUSH0 KECCAK256 ADD DUP1 SLOAD PUSH2 0xC19 SWAP1 PUSH2 0x25DA JUMP JUMPDEST DUP1 PUSH1 0x1F ADD PUSH1 0x20 DUP1 SWAP2 DIV MUL PUSH1 0x20 ADD PUSH1 0x40 MLOAD SWAP1 DUP2 ADD PUSH1 0x40 MSTORE DUP1 SWAP3 SWAP2 SWAP1 DUP2 DUP2 MSTORE PUSH1 0x20 ADD DUP3 DUP1 SLOAD PUSH2 0xC45 SWAP1 PUSH2 0x25DA JUMP JUMPDEST DUP1 ISZERO PUSH2 0xC90 JUMPI DUP1 PUSH1 0x1F LT PUSH2 0xC67 JUMPI PUSH2 0x100 DUP1 DUP4 SLOAD DIV MUL DUP4 MSTORE SWAP2 PUSH1 0x20 ADD SWAP2 PUSH2 0xC90 JUMP JUMPDEST DUP3 ADD SWAP2 SWAP1 PUSH0 MSTORE PUSH1 0x20 PUSH0 KECCAK256 SWAP1 JUMPDEST DUP2 SLOAD DUP2 MSTORE SWAP1 PUSH1 0x1 ADD SWAP1 PUSH1 0x20 ADD DUP1 DUP4 GT PUSH2 0xC73 JUMPI DUP3 SWAP1 SUB PUSH1 0x1F AND DUP3 ADD SWAP2 JUMPDEST POP POP POP POP POP SWAP1 POP PUSH1 0x7 DUP2 PUSH1 0x40 MLOAD PUSH2 0xCA7 SWAP2 SWAP1 PUSH2 0x2739 JUMP JUMPDEST SWAP1 DUP2 MSTORE PUSH1 0x20 ADD PUSH1 0x40 MLOAD DUP1 SWAP2 SUB SWAP1 KECCAK256 PUSH1 0x6 ADD PUSH0 SWAP1 SLOAD SWAP1 PUSH2 0x100 EXP SWAP1 DIV PUSH1 0xFF AND PUSH2 0xD04 JUMPI PUSH1 0x40 MLOAD PUSH32 0x8C379A000000000000000000000000000000000000000000000000000000000 DUP2 MSTORE PUSH1 0x4 ADD PUSH2 0xCFB SWAP1 PUSH2 0x2799 JUMP JUMPDEST PUSH1 0x40 MLOAD DUP1 SWAP2 SUB SWAP1 REVERT JUMPDEST PUSH1 0x1 PUSH1 0x7 DUP3 PUSH1 0x40 MLOAD PUSH2 0xD16 SWAP2 SWAP1 PUSH2 0x2739 JUMP JUMPDEST SWAP1 DUP2 MSTORE PUSH1 0x20 ADD PUSH1 0x40 MLOAD DUP1 SWAP2 SUB SWAP1 KECCAK256 PUSH1 0x6 ADD PUSH1 0x1 PUSH2 0x100 EXP DUP2 SLOAD DUP2 PUSH1 0xFF MUL NOT AND SWAP1 DUP4 ISZERO ISZERO MUL OR SWAP1 SSTORE POP DUP3 PUSH1 0x7 DUP3 PUSH1 0x40 MLOAD PUSH2 0xD4F SWAP2 SWAP1 PUSH2 0x2739 JUMP JUMPDEST SWAP1 DUP2 MSTORE PUSH1 0x20 ADD PUSH1 0x40 MLOAD DUP1 SWAP2 SUB SWAP1 KECCAK256 PUSH1 0x4 ADD DUP2 SWAP1 SSTORE POP PUSH0 PUSH1 0x7 DUP3 PUSH1 0x40 MLOAD PUSH2 0xD75 SWAP2 SWAP1 PUSH2 0x2739 JUMP JUMPDEST SWAP1 DUP2 MSTORE PUSH1 0x20 ADD PUSH1 0x40 MLOAD DUP1 SWAP2 SUB SWAP1 KECCAK256 PUSH1 0x1 ADD PUSH0 SWAP1 SLOAD SWAP1 PUSH2 0x100 EXP SWAP1 DIV PUSH20 0xFFFFFFFFFFFFFFFFFFFFFFFFFFFFFFFFFFFFFFFF AND SWAP1 POP DUP1 PUSH20 0xFFFFFFFFFFFFFFFFFFFFFFFFFFFFFFFFFFFFFFFF AND PUSH2 0x8FC PUSH1 0x7 DUP5 PUSH1 0x40 MLOAD PUSH2 0xDD2 SWAP2 SWAP1 PUSH2 0x2739 JUMP JUMPDEST SWAP1 DUP2 MSTORE PUSH1 0x20 ADD PUSH1 0x40 MLOAD DUP1 SWAP2 SUB SWAP1 KECCAK256 PUSH1 0x4 ADD SLOAD SWAP1 DUP2 ISZERO MUL SWAP1 PUSH1 0x40 MLOAD PUSH0 PUSH1 0x40 MLOAD DUP1 DUP4 SUB DUP2 DUP6 DUP9 DUP9 CALL SWAP4 POP POP POP POP ISZERO DUP1 ISZERO PUSH2 0xE0C JUMPI RETURNDATASIZE PUSH0 DUP1 RETURNDATACOPY RETURNDATASIZE PUSH0 REVERT JUMPDEST POP PUSH32 0x4145167A2ECC3424513C83E72C2D0E4A94F423754B82AF0BDEAF9FD0F7A174B7 PUSH1 0x40 MLOAD PUSH1 0x40 MLOAD DUP1 SWAP2 SUB SWAP1 LOG1 POP POP POP POP JUMP JUMPDEST CALLER PUSH20 0xFFFFFFFFFFFFFFFFFFFFFFFFFFFFFFFFFFFFFFFF AND PUSH1 0x7 DUP4 PUSH1 0x40 MLOAD PUSH2 0xE66 SWAP2 SWAP1 PUSH2 0x2739 JUMP JUMPDEST SWAP1 DUP2 MSTORE PUSH1 0x20 ADD PUSH1 0x40 MLOAD DUP1 SWAP2 SUB SWAP1 KECCAK256 PUSH0 ADD PUSH0 SWAP1 SLOAD SWAP1 PUSH2 0x100 EXP SWAP1 DIV PUSH20 0xFFFFFFFFFFFFFFFFFFFFFFFFFFFFFFFFFFFFFFFF AND PUSH20 0xFFFFFFFFFFFFFFFFFFFFFFFFFFFFFFFFFFFFFFFF AND EQ PUSH2 0xEEC JUMPI PUSH1 0x40 MLOAD PUSH32 0x8C379A000000000000000000000000000000000000000000000000000000000 DUP2 MSTORE PUSH1 0x4 ADD PUSH2 0xEE3 SWAP1 PUSH2 0x2801 JUMP JUMPDEST PUSH1 0x40 MLOAD DUP1 SWAP2 SUB SWAP1 REVERT JUMPDEST PUSH1 0x1 PUSH1 0x7 DUP4 PUSH1 0x40 MLOAD PUSH2 0xEFE SWAP2 SWAP1 PUSH2 0x2739 JUMP JUMPDEST SWAP1 DUP2 MSTORE PUSH1 0x20 ADD PUSH1 0x40 MLOAD DUP1 SWAP2 SUB SWAP1 KECCAK256 PUSH1 0x6 ADD PUSH1 0x1 PUSH2 0x100 EXP DUP2 SLOAD DUP2 PUSH1 0xFF MUL NOT AND SWAP1 DUP4 ISZERO ISZERO MUL OR SWAP1 SSTORE POP DUP1 PUSH1 0x7 DUP4 PUSH1 0x40 MLOAD PUSH2 0xF37 SWAP2 SWAP1 PUSH2 0x2739 JUMP JUMPDEST SWAP1 DUP2 MSTORE PUSH1 0x20 ADD PUSH1 0x40 MLOAD DUP1 SWAP2 SUB SWAP1 KECCAK256 PUSH1 0x4 ADD DUP2 SWAP1 SSTORE POP PUSH32 0x4145167A2ECC3424513C83E72C2D0E4A94F423754B82AF0BDEAF9FD0F7A174B7 PUSH1 0x40 MLOAD PUSH1 0x40 MLOAD DUP1 SWAP2 SUB SWAP1 LOG1 POP POP JUMP JUMPDEST CALLER PUSH20 0xFFFFFFFFFFFFFFFFFFFFFFFFFFFFFFFFFFFFFFFF AND PUSH1 0x7 DUP4 PUSH1 0x40 MLOAD PUSH2 0xFA3 SWAP2 SWAP1 PUSH2 0x2739 JUMP JUMPDEST SWAP1 DUP2 MSTORE PUSH1 0x20 ADD PUSH1 0x40 MLOAD DUP1 SWAP2 SUB SWAP1 KECCAK256 PUSH1 0x1 ADD PUSH0 SWAP1 SLOAD SWAP1 PUSH2 0x100 EXP SWAP1 DIV PUSH20 0xFFFFFFFFFFFFFFFFFFFFFFFFFFFFFFFFFFFFFFFF AND PUSH20 0xFFFFFFFFFFFFFFFFFFFFFFFFFFFFFFFFFFFFFFFF AND EQ PUSH2 0x102A JUMPI PUSH1 0x40 MLOAD PUSH32 0x8C379A000000000000000000000000000000000000000000000000000000000 DUP2 MSTORE PUSH1 0x4 ADD PUSH2 0x1021 SWAP1 PUSH2 0x2869 JUMP JUMPDEST PUSH1 0x40 MLOAD DUP1 SWAP2 SUB SWAP1 REVERT JUMPDEST PUSH1 0x1 PUSH1 0x7 DUP4 PUSH1 0x40 MLOAD PUSH2 0x103C SWAP2 SWAP1 PUSH2 0x2739 JUMP JUMPDEST SWAP1 DUP2 MSTORE PUSH1 0x20 ADD PUSH1 0x40 MLOAD DUP1 SWAP2 SUB SWAP1 KECCAK256 PUSH1 0x6 ADD PUSH1 0x1 PUSH2 0x100 EXP DUP2 SLOAD DUP2 PUSH1 0xFF MUL NOT AND SWAP1 DUP4 ISZERO ISZERO MUL OR SWAP1 SSTORE POP DUP1 PUSH1 0x7 DUP4 PUSH1 0x40 MLOAD PUSH2 0x1075 SWAP2 SWAP1 PUSH2 0x2739 JUMP JUMPDEST SWAP1 DUP2 MSTORE PUSH1 0x20 ADD PUSH1 0x40 MLOAD DUP1 SWAP2 SUB SWAP1 KECCAK256 PUSH1 0x4 ADD DUP2 SWAP1 SSTORE POP PUSH32 0x4145167A2ECC3424513C83E72C2D0E4A94F423754B82AF0BDEAF9FD0F7A174B7 PUSH1 0x40 MLOAD PUSH1 0x40 MLOAD DUP1 SWAP2 SUB SWAP1 LOG1 POP POP JUMP JUMPDEST PUSH32 0x65D7A28E3265B37A6474929F336521B332C1681B933F6CB9F3376673440D862A PUSH2 0x10E4 DUP2 PUSH2 0x1A18 JUMP JUMPDEST PUSH2 0x10EC PUSH2 0x1C66 JUMP JUMPDEST POP JUMP JUMPDEST PUSH0 DUP5 DUP5 TIMESTAMP PUSH1 0x40 MLOAD PUSH1 0x20 ADD PUSH2 0x1105 SWAP4 SWAP3 SWAP2 SWAP1 PUSH2 0x28C7 JUMP JUMPDEST PUSH1 0x40 MLOAD PUSH1 0x20 DUP2 DUP4 SUB SUB DUP2 MSTORE SWAP1 PUSH1 0x40 MSTORE SWAP1 POP CALLER PUSH20 0xFFFFFFFFFFFFFFFFFFFFFFFFFFFFFFFFFFFFFFFF AND PUSH1 0x7 DUP3 PUSH1 0x40 MLOAD PUSH2 0x113D SWAP2 SWAP1 PUSH2 0x2739 JUMP JUMPDEST SWAP1 DUP2 MSTORE PUSH1 0x20 ADD PUSH1 0x40 MLOAD DUP1 SWAP2 SUB SWAP1 KECCAK256 PUSH1 0x1 ADD PUSH0 SWAP1 SLOAD SWAP1 PUSH2 0x100 EXP SWAP1 DIV PUSH20 0xFFFFFFFFFFFFFFFFFFFFFFFFFFFFFFFFFFFFFFFF AND PUSH20 0xFFFFFFFFFFFFFFFFFFFFFFFFFFFFFFFFFFFFFFFF AND EQ PUSH2 0x11C4 JUMPI PUSH1 0x40 MLOAD PUSH32 0x8C379A000000000000000000000000000000000000000000000000000000000 DUP2 MSTORE PUSH1 0x4 ADD PUSH2 0x11BB SWAP1 PUSH2 0x2869 JUMP JUMPDEST PUSH1 0x40 MLOAD DUP1 SWAP2 SUB SWAP1 REVERT JUMPDEST PUSH1 0x1 PUSH1 0x7 DUP3 PUSH1 0x40 MLOAD PUSH2 0x11D6 SWAP2 SWAP1 PUSH2 0x2739 JUMP JUMPDEST SWAP1 DUP2 MSTORE PUSH1 0x20 ADD PUSH1 0x40 MLOAD DUP1 SWAP2 SUB SWAP1 KECCAK256 PUSH1 0x6 ADD PUSH0 PUSH2 0x100 EXP DUP2 SLOAD DUP2 PUSH1 0xFF MUL NOT AND SWAP1 DUP4 ISZERO ISZERO MUL OR SWAP1 SSTORE POP PUSH32 0x2F9110550F3374364C85539074B740B7BFED285798D152502C5F2DFD745CF00 CALLER DUP3 PUSH1 0x40 MLOAD PUSH2 0x122E SWAP3 SWAP2 SWAP1 PUSH2 0x28FF JUMP JUMPDEST PUSH1 0x40 MLOAD DUP1 SWAP2 SUB SWAP1 LOG1 POP POP POP POP POP POP JUMP JUMPDEST PUSH1 0x2 PUSH0 SWAP1 SLOAD SWAP1 PUSH2 0x100 EXP SWAP1 DIV PUSH20 0xFFFFFFFFFFFFFFFFFFFFFFFFFFFFFFFFFFFFFFFF AND DUP2 JUMP JUMPDEST PUSH1 0x6 SLOAD DUP2 JUMP JUMPDEST PUSH0 PUSH1 0x1 PUSH0 DUP5 DUP2 MSTORE PUSH1 0x20 ADD SWAP1 DUP2 MSTORE PUSH1 0x20 ADD PUSH0 KECCAK256 PUSH0 ADD PUSH0 DUP4 PUSH20 0xFFFFFFFFFFFFFFFFFFFFFFFFFFFFFFFFFFFFFFFF AND PUSH20 0xFFFFFFFFFFFFFFFFFFFFFFFFFFFFFFFFFFFFFFFF AND DUP2 MSTORE PUSH1 0x20 ADD SWAP1 DUP2 MSTORE PUSH1 0x20 ADD PUSH0 KECCAK256 PUSH0 SWAP1 SLOAD SWAP1 PUSH2 0x100 EXP SWAP1 DIV PUSH1 0xFF AND SWAP1 POP SWAP3 SWAP2 POP POP JUMP JUMPDEST PUSH0 DUP1 SHL DUP2 JUMP JUMPDEST PUSH1 0x3 SLOAD DUP2 JUMP JUMPDEST PUSH0 PUSH1 0x6 SLOAD SWAP1 POP SWAP1 JUMP JUMPDEST PUSH0 PUSH1 0x8 DUP1 SLOAD SWAP1 POP GT PUSH2 0x1329 JUMPI PUSH1 0x40 MLOAD PUSH32 0x8C379A000000000000000000000000000000000000000000000000000000000 DUP2 MSTORE PUSH1 0x4 ADD PUSH2 0x1320 SWAP1 PUSH2 0x2654 JUMP JUMPDEST PUSH1 0x40 MLOAD DUP1 SWAP2 SUB SWAP1 REVERT JUMPDEST PUSH0 PUSH1 0x8 PUSH1 0x1 PUSH1 0x8 DUP1 SLOAD SWAP1 POP PUSH2 0x133E SWAP2 SWAP1 PUSH2 0x269F JUMP JUMPDEST DUP2 SLOAD DUP2 LT PUSH2 0x134F JUMPI PUSH2 0x134E PUSH2 0x26D2 JUMP JUMPDEST JUMPDEST SWAP1 PUSH0 MSTORE PUSH1 0x20 PUSH0 KECCAK256 ADD DUP1 SLOAD PUSH2 0x1362 SWAP1 PUSH2 0x25DA JUMP JUMPDEST DUP1 PUSH1 0x1F ADD PUSH1 0x20 DUP1 SWAP2 DIV MUL PUSH1 0x20 ADD PUSH1 0x40 MLOAD SWAP1 DUP2 ADD PUSH1 0x40 MSTORE DUP1 SWAP3 SWAP2 SWAP1 DUP2 DUP2 MSTORE PUSH1 0x20 ADD DUP3 DUP1 SLOAD PUSH2 0x138E SWAP1 PUSH2 0x25DA JUMP JUMPDEST DUP1 ISZERO PUSH2 0x13D9 JUMPI DUP1 PUSH1 0x1F LT PUSH2 0x13B0 JUMPI PUSH2 0x100 DUP1 DUP4 SLOAD DIV MUL DUP4 MSTORE SWAP2 PUSH1 0x20 ADD SWAP2 PUSH2 0x13D9 JUMP JUMPDEST DUP3 ADD SWAP2 SWAP1 PUSH0 MSTORE PUSH1 0x20 PUSH0 KECCAK256 SWAP1 JUMPDEST DUP2 SLOAD DUP2 MSTORE SWAP1 PUSH1 0x1 ADD SWAP1 PUSH1 0x20 ADD DUP1 DUP4 GT PUSH2 0x13BC JUMPI DUP3 SWAP1 SUB PUSH1 0x1F AND DUP3 ADD SWAP2 JUMPDEST POP POP POP POP POP SWAP1 POP PUSH1 0x7 DUP2 PUSH1 0x40 MLOAD PUSH2 0x13F0 SWAP2 SWAP1 PUSH2 0x2739 JUMP JUMPDEST SWAP1 DUP2 MSTORE PUSH1 0x20 ADD PUSH1 0x40 MLOAD DUP1 SWAP2 SUB SWAP1 KECCAK256 PUSH1 0x6 ADD PUSH0 SWAP1 SLOAD SWAP1 PUSH2 0x100 EXP SWAP1 DIV PUSH1 0xFF AND PUSH2 0x144D JUMPI PUSH1 0x40 MLOAD PUSH32 0x8C379A000000000000000000000000000000000000000000000000000000000 DUP2 MSTORE PUSH1 0x4 ADD PUSH2 0x1444 SWAP1 PUSH2 0x2799 JUMP JUMPDEST PUSH1 0x40 MLOAD DUP1 SWAP2 SUB SWAP1 REVERT JUMPDEST PUSH32 0xF31A94B3B4C854E5A4ADEA9F6082AB58856D3750C9A0182C2D9641BDA7C09FC5 PUSH1 0x7 DUP3 PUSH1 0x40 MLOAD PUSH2 0x147E SWAP2 SWAP1 PUSH2 0x2739 JUMP JUMPDEST SWAP1 DUP2 MSTORE PUSH1 0x20 ADD PUSH1 0x40 MLOAD DUP1 SWAP2 SUB SWAP1 KECCAK256 PUSH1 0x2 ADD PUSH1 0x7 DUP4 PUSH1 0x40 MLOAD PUSH2 0x149F SWAP2 SWAP1 PUSH2 0x2739 JUMP JUMPDEST SWAP1 DUP2 MSTORE PUSH1 0x20 ADD PUSH1 0x40 MLOAD DUP1 SWAP2 SUB SWAP1 KECCAK256 PUSH1 0x5 ADD PUSH1 0x40 MLOAD PUSH2 0x14BE SWAP3 SWAP2 SWAP1 PUSH2 0x29C0 JUMP JUMPDEST PUSH1 0x40 MLOAD DUP1 SWAP2 SUB SWAP1 LOG1 POP JUMP JUMPDEST PUSH2 0x14D2 DUP3 PUSH2 0x886 JUMP JUMPDEST PUSH2 0x14DB DUP2 PUSH2 0x1A18 JUMP JUMPDEST PUSH2 0x14E5 DUP4 DUP4 PUSH2 0x1B1C JUMP JUMPDEST POP POP POP POP JUMP JUMPDEST POP POP JUMP JUMPDEST PUSH32 0x65D7A28E3265B37A6474929F336521B332C1681B933F6CB9F3376673440D862A DUP2 JUMP JUMPDEST PUSH0 PUSH1 0x5 SLOAD TIMESTAMP PUSH2 0x1522 SWAP2 SWAP1 PUSH2 0x269F JUMP JUMPDEST SWAP1 POP PUSH0 PUSH4 0xBBF81E00 DUP3 PUSH1 0x4 SLOAD PUSH1 0x3 SLOAD PUSH2 0x153B SWAP2 SWAP1 PUSH2 0x29F5 JUMP JUMPDEST PUSH2 0x1545 SWAP2 SWAP1 PUSH2 0x29F5 JUMP JUMPDEST PUSH2 0x154F SWAP2 SWAP1 PUSH2 0x2A63 JUMP JUMPDEST SWAP1 POP DUP1 PUSH1 0x6 PUSH0 DUP3 DUP3 SLOAD PUSH2 0x1562 SWAP2 SWAP1 PUSH2 0x2A93 JUMP JUMPDEST SWAP3 POP POP DUP2 SWAP1 SSTORE POP TIMESTAMP PUSH1 0x5 DUP2 SWAP1 SSTORE POP PUSH32 0xEA6DFD6D2633D9628DB2F2E59654EC4E8C745C3FD6F05DF0065037DE020589E2 PUSH1 0x6 SLOAD PUSH1 0x40 MLOAD PUSH2 0x15A1 SWAP2 SWAP1 PUSH2 0x1E75 JUMP JUMPDEST PUSH1 0x40 MLOAD DUP1 SWAP2 SUB SWAP1 LOG1 POP POP JUMP JUMPDEST PUSH0 DUP5 DUP5 TIMESTAMP PUSH1 0x40 MLOAD PUSH1 0x20 ADD PUSH2 0x15C3 SWAP4 SWAP3 SWAP2 SWAP1 PUSH2 0x28C7 JUMP JUMPDEST PUSH1 0x40 MLOAD PUSH1 0x20 DUP2 DUP4 SUB SUB DUP2 MSTORE SWAP1 PUSH1 0x40 MSTORE SWAP1 POP PUSH1 0x40 MLOAD DUP1 PUSH2 0x100 ADD PUSH1 0x40 MSTORE DUP1 CALLER PUSH20 0xFFFFFFFFFFFFFFFFFFFFFFFFFFFFFFFFFFFFFFFF AND DUP2 MSTORE PUSH1 0x20 ADD DUP8 PUSH20 0xFFFFFFFFFFFFFFFFFFFFFFFFFFFFFFFFFFFFFFFF AND DUP2 MSTORE PUSH1 0x20 ADD DUP7 DUP2 MSTORE PUSH1 0x20 ADD DUP6 DUP2 MSTORE PUSH1 0x20 ADD DUP5 DUP2 MSTORE PUSH1 0x20 ADD DUP4 DUP2 MSTORE PUSH1 0x20 ADD PUSH0 ISZERO ISZERO DUP2 MSTORE PUSH1 0x20 ADD PUSH0 ISZERO ISZERO DUP2 MSTORE POP PUSH1 0x7 DUP3 PUSH1 0x40 MLOAD PUSH2 0x164E SWAP2 SWAP1 PUSH2 0x2739 JUMP JUMPDEST SWAP1 DUP2 MSTORE PUSH1 0x20 ADD PUSH1 0x40 MLOAD DUP1 SWAP2 SUB SWAP1 KECCAK256 PUSH0 DUP3 ADD MLOAD DUP2 PUSH0 ADD PUSH0 PUSH2 0x100 EXP DUP2 SLOAD DUP2 PUSH20 0xFFFFFFFFFFFFFFFFFFFFFFFFFFFFFFFFFFFFFFFF MUL NOT AND SWAP1 DUP4 PUSH20 0xFFFFFFFFFFFFFFFFFFFFFFFFFFFFFFFFFFFFFFFF AND MUL OR SWAP1 SSTORE POP PUSH1 0x20 DUP3 ADD MLOAD DUP2 PUSH1 0x1 ADD PUSH0 PUSH2 0x100 EXP DUP2 SLOAD DUP2 PUSH20 0xFFFFFFFFFFFFFFFFFFFFFFFFFFFFFFFFFFFFFFFF MUL NOT AND SWAP1 DUP4 PUSH20 0xFFFFFFFFFFFFFFFFFFFFFFFFFFFFFFFFFFFFFFFF AND MUL OR SWAP1 SSTORE POP PUSH1 0x40 DUP3 ADD MLOAD DUP2 PUSH1 0x2 ADD SWAP1 DUP2 PUSH2 0x16FB SWAP2 SWAP1 PUSH2 0x2C51 JUMP JUMPDEST POP PUSH1 0x60 DUP3 ADD MLOAD DUP2 PUSH1 0x3 ADD SSTORE PUSH1 0x80 DUP3 ADD MLOAD DUP2 PUSH1 0x4 ADD SSTORE PUSH1 0xA0 DUP3 ADD MLOAD DUP2 PUSH1 0x5 ADD SWAP1 DUP2 PUSH2 0x1725 SWAP2 SWAP1 PUSH2 0x2C51 JUMP JUMPDEST POP PUSH1 0xC0 DUP3 ADD MLOAD DUP2 PUSH1 0x6 ADD PUSH0 PUSH2 0x100 EXP DUP2 SLOAD DUP2 PUSH1 0xFF MUL NOT AND SWAP1 DUP4 ISZERO ISZERO MUL OR SWAP1 SSTORE POP PUSH1 0xE0 DUP3 ADD MLOAD DUP2 PUSH1 0x6 ADD PUSH1 0x1 PUSH2 0x100 EXP DUP2 SLOAD DUP2 PUSH1 0xFF MUL NOT AND SWAP1 DUP4 ISZERO ISZERO MUL OR SWAP1 SSTORE POP SWAP1 POP POP PUSH1 0x8 DUP2 SWAP1 DUP1 PUSH1 0x1 DUP2 SLOAD ADD DUP1 DUP3 SSTORE DUP1 SWAP2 POP POP PUSH1 0x1 SWAP1 SUB SWAP1 PUSH0 MSTORE PUSH1 0x20 PUSH0 KECCAK256 ADD PUSH0 SWAP1 SWAP2 SWAP1 SWAP2 SWAP1 SWAP2 POP SWAP1 DUP2 PUSH2 0x1799 SWAP2 SWAP1 PUSH2 0x2C51 JUMP JUMPDEST POP PUSH1 0x1 PUSH1 0x7 DUP3 PUSH1 0x40 MLOAD PUSH2 0x17AC SWAP2 SWAP1 PUSH2 0x2739 JUMP JUMPDEST SWAP1 DUP2 MSTORE PUSH1 0x20 ADD PUSH1 0x40 MLOAD DUP1 SWAP2 SUB SWAP1 KECCAK256 PUSH1 0x6 ADD PUSH0 PUSH2 0x100 EXP DUP2 SLOAD DUP2 PUSH1 0xFF MUL NOT AND SWAP1 DUP4 ISZERO ISZERO MUL OR SWAP1 SSTORE POP PUSH32 0x7511EECA77B6245674AA0ED9CFC29C93005CA6C461F25CA4DCBB0FDB80E003C9 CALLER DUP3 DUP8 PUSH1 0x40 MLOAD PUSH2 0x1806 SWAP4 SWAP3 SWAP2 SWAP1 PUSH2 0x2D20 JUMP JUMPDEST PUSH1 0x40 MLOAD DUP1 SWAP2 SUB SWAP1 LOG1 POP POP POP POP POP POP JUMP JUMPDEST PUSH1 0x2 PUSH0 SWAP1 SLOAD SWAP1 PUSH2 0x100 EXP SWAP1 DIV PUSH20 0xFFFFFFFFFFFFFFFFFFFFFFFFFFFFFFFFFFFFFFFF AND PUSH20 0xFFFFFFFFFFFFFFFFFFFFFFFFFFFFFFFFFFFFFFFF AND CALLER PUSH20 0xFFFFFFFFFFFFFFFFFFFFFFFFFFFFFFFFFFFFFFFF AND EQ PUSH2 0x18A5 JUMPI PUSH1 0x40 MLOAD PUSH32 0x8C379A000000000000000000000000000000000000000000000000000000000 DUP2 MSTORE PUSH1 0x4 ADD PUSH2 0x189C SWAP1 PUSH2 0x2527 JUMP JUMPDEST PUSH1 0x40 MLOAD DUP1 SWAP2 SUB SWAP1 REVERT JUMPDEST CALLVALUE PUSH1 0x3 DUP2 SWAP1 SSTORE POP TIMESTAMP PUSH1 0x5 DUP2 SWAP1 SSTORE POP CALLER PUSH20 0xFFFFFFFFFFFFFFFFFFFFFFFFFFFFFFFFFFFFFFFF AND PUSH32 0x2D61CF17BAB18B04495576CF3D5490AFD6C0C573D79B7CE84A50FB523ABB3DAF CALLVALUE PUSH1 0x40 MLOAD PUSH2 0x18F9 SWAP2 SWAP1 PUSH2 0x1E75 JUMP JUMPDEST PUSH1 0x40 MLOAD DUP1 SWAP2 SUB SWAP1 LOG2 JUMP JUMPDEST PUSH1 0x5 SLOAD DUP2 JUMP JUMPDEST PUSH1 0x8 DUP2 DUP2 SLOAD DUP2 LT PUSH2 0x1918 JUMPI PUSH0 DUP1 REVERT JUMPDEST SWAP1 PUSH0 MSTORE PUSH1 0x20 PUSH0 KECCAK256 ADD PUSH0 SWAP2 POP SWAP1 POP DUP1 SLOAD PUSH2 0x1930 SWAP1 PUSH2 0x25DA JUMP JUMPDEST DUP1 PUSH1 0x1F ADD PUSH1 0x20 DUP1 SWAP2 DIV MUL PUSH1 0x20 ADD PUSH1 0x40 MLOAD SWAP1 DUP2 ADD PUSH1 0x40 MSTORE DUP1 SWAP3 SWAP2 SWAP1 DUP2 DUP2 MSTORE PUSH1 0x20 ADD DUP3 DUP1 SLOAD PUSH2 0x195C SWAP1 PUSH2 0x25DA JUMP JUMPDEST DUP1 ISZERO PUSH2 0x19A7 JUMPI DUP1 PUSH1 0x1F LT PUSH2 0x197E JUMPI PUSH2 0x100 DUP1 DUP4 SLOAD DIV MUL DUP4 MSTORE SWAP2 PUSH1 0x20 ADD SWAP2 PUSH2 0x19A7 JUMP JUMPDEST DUP3 ADD SWAP2 SWAP1 PUSH0 MSTORE PUSH1 0x20 PUSH0 KECCAK256 SWAP1 JUMPDEST DUP2 SLOAD DUP2 MSTORE SWAP1 PUSH1 0x1 ADD SWAP1 PUSH1 0x20 ADD DUP1 DUP4 GT PUSH2 0x198A JUMPI DUP3 SWAP1 SUB PUSH1 0x1F AND DUP3 ADD SWAP2 JUMPDEST POP POP POP POP POP DUP2 JUMP JUMPDEST PUSH0 PUSH32 0x1FFC9A700000000000000000000000000000000000000000000000000000000 PUSH28 0xFFFFFFFFFFFFFFFFFFFFFFFFFFFFFFFFFFFFFFFFFFFFFFFFFFFFFFFF NOT AND DUP3 PUSH28 0xFFFFFFFFFFFFFFFFFFFFFFFFFFFFFFFFFFFFFFFFFFFFFFFFFFFFFFFF NOT AND EQ SWAP1 POP SWAP2 SWAP1 POP JUMP JUMPDEST PUSH2 0x1A29 DUP2 PUSH2 0x1A24 PUSH2 0x1B15 JUMP JUMPDEST PUSH2 0x1CC7 JUMP JUMPDEST POP JUMP JUMPDEST PUSH0 PUSH2 0x1A37 DUP4 DUP4 PUSH2 0x1269 JUMP JUMPDEST PUSH2 0x1B0B JUMPI PUSH1 0x1 DUP1 PUSH0 DUP6 DUP2 MSTORE PUSH1 0x20 ADD SWAP1 DUP2 MSTORE PUSH1 0x20 ADD PUSH0 KECCAK256 PUSH0 ADD PUSH0 DUP5 PUSH20 0xFFFFFFFFFFFFFFFFFFFFFFFFFFFFFFFFFFFFFFFF AND PUSH20 0xFFFFFFFFFFFFFFFFFFFFFFFFFFFFFFFFFFFFFFFF AND DUP2 MSTORE PUSH1 0x20 ADD SWAP1 DUP2 MSTORE PUSH1 0x20 ADD PUSH0 KECCAK256 PUSH0 PUSH2 0x100 EXP DUP2 SLOAD DUP2 PUSH1 0xFF MUL NOT AND SWAP1 DUP4 ISZERO ISZERO MUL OR SWAP1 SSTORE POP PUSH2 0x1AA8 PUSH2 0x1B15 JUMP JUMPDEST PUSH20 0xFFFFFFFFFFFFFFFFFFFFFFFFFFFFFFFFFFFFFFFF AND DUP3 PUSH20 0xFFFFFFFFFFFFFFFFFFFFFFFFFFFFFFFFFFFFFFFF AND DUP5 PUSH32 0x2F8788117E7EFF1D82E926EC794901D17C78024A50270940304540A733656F0D PUSH1 0x40 MLOAD PUSH1 0x40 MLOAD DUP1 SWAP2 SUB SWAP1 LOG4 PUSH1 0x1 SWAP1 POP PUSH2 0x1B0F JUMP JUMPDEST PUSH0 SWAP1 POP JUMPDEST SWAP3 SWAP2 POP POP JUMP JUMPDEST PUSH0 CALLER SWAP1 POP SWAP1 JUMP JUMPDEST PUSH0 PUSH2 0x1B27 DUP4 DUP4 PUSH2 0x1269 JUMP JUMPDEST ISZERO PUSH2 0x1BFC JUMPI PUSH0 PUSH1 0x1 PUSH0 DUP6 DUP2 MSTORE PUSH1 0x20 ADD SWAP1 DUP2 MSTORE PUSH1 0x20 ADD PUSH0 KECCAK256 PUSH0 ADD PUSH0 DUP5 PUSH20 0xFFFFFFFFFFFFFFFFFFFFFFFFFFFFFFFFFFFFFFFF AND PUSH20 0xFFFFFFFFFFFFFFFFFFFFFFFFFFFFFFFFFFFFFFFF AND DUP2 MSTORE PUSH1 0x20 ADD SWAP1 DUP2 MSTORE PUSH1 0x20 ADD PUSH0 KECCAK256 PUSH0 PUSH2 0x100 EXP DUP2 SLOAD DUP2 PUSH1 0xFF MUL NOT AND SWAP1 DUP4 ISZERO ISZERO MUL OR SWAP1 SSTORE POP PUSH2 0x1B99 PUSH2 0x1B15 JUMP JUMPDEST PUSH20 0xFFFFFFFFFFFFFFFFFFFFFFFFFFFFFFFFFFFFFFFF AND DUP3 PUSH20 0xFFFFFFFFFFFFFFFFFFFFFFFFFFFFFFFFFFFFFFFF AND DUP5 PUSH32 0xF6391F5C32D9C69D2A47EA670B442974B53935D1EDC7FD64EB21E047A839171B PUSH1 0x40 MLOAD PUSH1 0x40 MLOAD DUP1 SWAP2 SUB SWAP1 LOG4 PUSH1 0x1 SWAP1 POP PUSH2 0x1C00 JUMP JUMPDEST PUSH0 SWAP1 POP JUMPDEST SWAP3 SWAP2 POP POP JUMP JUMPDEST PUSH2 0x1C0E PUSH2 0x1D18 JUMP JUMPDEST PUSH0 DUP1 PUSH0 PUSH2 0x100 EXP DUP2 SLOAD DUP2 PUSH1 0xFF MUL NOT AND SWAP1 DUP4 ISZERO ISZERO MUL OR SWAP1 SSTORE POP PUSH32 0x5DB9EE0A495BF2E6FF9C91A7834C1BA4FDD244A5E8AA4E537BD38AEAE4B073AA PUSH2 0x1C4F PUSH2 0x1B15 JUMP JUMPDEST PUSH1 0x40 MLOAD PUSH2 0x1C5C SWAP2 SWAP1 PUSH2 0x243C JUMP JUMPDEST PUSH1 0x40 MLOAD DUP1 SWAP2 SUB SWAP1 LOG1 JUMP JUMPDEST PUSH2 0x1C6E PUSH2 0x1D58 JUMP JUMPDEST PUSH1 0x1 PUSH0 DUP1 PUSH2 0x100 EXP DUP2 SLOAD DUP2 PUSH1 0xFF MUL NOT AND SWAP1 DUP4 ISZERO ISZERO MUL OR SWAP1 SSTORE POP PUSH32 0x62E78CEA01BEE320CD4E420270B5EA74000D11B0C9F74754EBDBFC544B05A258 PUSH2 0x1CB0 PUSH2 0x1B15 JUMP JUMPDEST PUSH1 0x40 MLOAD PUSH2 0x1CBD SWAP2 SWAP1 PUSH2 0x243C JUMP JUMPDEST PUSH1 0x40 MLOAD DUP1 SWAP2 SUB SWAP1 LOG1 JUMP JUMPDEST PUSH2 0x1CD1 DUP3 DUP3 PUSH2 0x1269 JUMP JUMPDEST PUSH2 0x1D14 JUMPI DUP1 DUP3 PUSH1 0x40 MLOAD PUSH32 0xE2517D3F00000000000000000000000000000000000000000000000000000000 DUP2 MSTORE PUSH1 0x4 ADD PUSH2 0x1D0B SWAP3 SWAP2 SWAP1 PUSH2 0x2D63 JUMP JUMPDEST PUSH1 0x40 MLOAD DUP1 SWAP2 SUB SWAP1 REVERT JUMPDEST POP POP JUMP JUMPDEST PUSH2 0x1D20 PUSH2 0xB34 JUMP JUMPDEST PUSH2 0x1D56 JUMPI PUSH1 0x40 MLOAD PUSH32 0x8DFC202B00000000000000000000000000000000000000000000000000000000 DUP2 MSTORE PUSH1 0x4 ADD PUSH1 0x40 MLOAD DUP1 SWAP2 SUB SWAP1 REVERT JUMPDEST JUMP JUMPDEST PUSH2 0x1D60 PUSH2 0xB34 JUMP JUMPDEST ISZERO PUSH2 0x1D97 JUMPI PUSH1 0x40 MLOAD PUSH32 0xD93C066500000000000000000000000000000000000000000000000000000000 DUP2 MSTORE PUSH1 0x4 ADD PUSH1 0x40 MLOAD DUP1 SWAP2 SUB SWAP1 REVERT JUMPDEST JUMP JUMPDEST PUSH0 PUSH1 0x40 MLOAD SWAP1 POP SWAP1 JUMP JUMPDEST PUSH0 DUP1 REVERT JUMPDEST PUSH0 DUP1 REVERT JUMPDEST PUSH0 PUSH32 0xFFFFFFFF00000000000000000000000000000000000000000000000000000000 DUP3 AND SWAP1 POP SWAP2 SWAP1 POP JUMP JUMPDEST PUSH2 0x1DDE DUP2 PUSH2 0x1DAA JUMP JUMPDEST DUP2 EQ PUSH2 0x1DE8 JUMPI PUSH0 DUP1 REVERT JUMPDEST POP JUMP JUMPDEST PUSH0 DUP2 CALLDATALOAD SWAP1 POP PUSH2 0x1DF9 DUP2 PUSH2 0x1DD5 JUMP JUMPDEST SWAP3 SWAP2 POP POP JUMP JUMPDEST PUSH0 PUSH1 0x20 DUP3 DUP5 SUB SLT ISZERO PUSH2 0x1E14 JUMPI PUSH2 0x1E13 PUSH2 0x1DA2 JUMP JUMPDEST JUMPDEST PUSH0 PUSH2 0x1E21 DUP5 DUP3 DUP6 ADD PUSH2 0x1DEB JUMP JUMPDEST SWAP2 POP POP SWAP3 SWAP2 POP POP JUMP JUMPDEST PUSH0 DUP2 ISZERO ISZERO SWAP1 POP SWAP2 SWAP1 POP JUMP JUMPDEST PUSH2 0x1E3E DUP2 PUSH2 0x1E2A JUMP JUMPDEST DUP3 MSTORE POP POP JUMP JUMPDEST PUSH0 PUSH1 0x20 DUP3 ADD SWAP1 POP PUSH2 0x1E57 PUSH0 DUP4 ADD DUP5 PUSH2 0x1E35 JUMP JUMPDEST SWAP3 SWAP2 POP POP JUMP JUMPDEST PUSH0 DUP2 SWAP1 POP SWAP2 SWAP1 POP JUMP JUMPDEST PUSH2 0x1E6F DUP2 PUSH2 0x1E5D JUMP JUMPDEST DUP3 MSTORE POP POP JUMP JUMPDEST PUSH0 PUSH1 0x20 DUP3 ADD SWAP1 POP PUSH2 0x1E88 PUSH0 DUP4 ADD DUP5 PUSH2 0x1E66 JUMP JUMPDEST SWAP3 SWAP2 POP POP JUMP JUMPDEST PUSH0 DUP2 SWAP1 POP SWAP2 SWAP1 POP JUMP JUMPDEST PUSH2 0x1EA0 DUP2 PUSH2 0x1E8E JUMP JUMPDEST DUP2 EQ PUSH2 0x1EAA JUMPI PUSH0 DUP1 REVERT JUMPDEST POP JUMP JUMPDEST PUSH0 DUP2 CALLDATALOAD SWAP1 POP PUSH2 0x1EBB DUP2 PUSH2 0x1E97 JUMP JUMPDEST SWAP3 SWAP2 POP POP JUMP JUMPDEST PUSH0 PUSH1 0x20 DUP3 DUP5 SUB SLT ISZERO PUSH2 0x1ED6 JUMPI PUSH2 0x1ED5 PUSH2 0x1DA2 JUMP JUMPDEST JUMPDEST PUSH0 PUSH2 0x1EE3 DUP5 DUP3 DUP6 ADD PUSH2 0x1EAD JUMP JUMPDEST SWAP2 POP POP SWAP3 SWAP2 POP POP JUMP JUMPDEST PUSH2 0x1EF5 DUP2 PUSH2 0x1E8E JUMP JUMPDEST DUP3 MSTORE POP POP JUMP JUMPDEST PUSH0 PUSH1 0x20 DUP3 ADD SWAP1 POP PUSH2 0x1F0E PUSH0 DUP4 ADD DUP5 PUSH2 0x1EEC JUMP JUMPDEST SWAP3 SWAP2 POP POP JUMP JUMPDEST PUSH0 PUSH20 0xFFFFFFFFFFFFFFFFFFFFFFFFFFFFFFFFFFFFFFFF DUP3 AND SWAP1 POP SWAP2 SWAP1 POP JUMP JUMPDEST PUSH0 PUSH2 0x1F3D DUP3 PUSH2 0x1F14 JUMP JUMPDEST SWAP1 POP SWAP2 SWAP1 POP JUMP JUMPDEST PUSH2 0x1F4D DUP2 PUSH2 0x1F33 JUMP JUMPDEST DUP2 EQ PUSH2 0x1F57 JUMPI PUSH0 DUP1 REVERT JUMPDEST POP JUMP JUMPDEST PUSH0 DUP2 CALLDATALOAD SWAP1 POP PUSH2 0x1F68 DUP2 PUSH2 0x1F44 JUMP JUMPDEST SWAP3 SWAP2 POP POP JUMP JUMPDEST PUSH0 DUP1 PUSH1 0x40 DUP4 DUP6 SUB SLT ISZERO PUSH2 0x1F84 JUMPI PUSH2 0x1F83 PUSH2 0x1DA2 JUMP JUMPDEST JUMPDEST PUSH0 PUSH2 0x1F91 DUP6 DUP3 DUP7 ADD PUSH2 0x1EAD JUMP JUMPDEST SWAP3 POP POP PUSH1 0x20 PUSH2 0x1FA2 DUP6 DUP3 DUP7 ADD PUSH2 0x1F5A JUMP JUMPDEST SWAP2 POP POP SWAP3 POP SWAP3 SWAP1 POP JUMP JUMPDEST PUSH0 DUP1 REVERT JUMPDEST PUSH0 DUP1 REVERT JUMPDEST PUSH0 PUSH1 0x1F NOT PUSH1 0x1F DUP4 ADD AND SWAP1 POP SWAP2 SWAP1 POP JUMP JUMPDEST PUSH32 0x4E487B7100000000000000000000000000000000000000000000000000000000 PUSH0 MSTORE PUSH1 0x41 PUSH1 0x4 MSTORE PUSH1 0x24 PUSH0 REVERT JUMPDEST PUSH2 0x1FFA DUP3 PUSH2 0x1FB4 JUMP JUMPDEST DUP2 ADD DUP2 DUP2 LT PUSH8 0xFFFFFFFFFFFFFFFF DUP3 GT OR ISZERO PUSH2 0x2019 JUMPI PUSH2 0x2018 PUSH2 0x1FC4 JUMP JUMPDEST JUMPDEST DUP1 PUSH1 0x40 MSTORE POP POP POP JUMP JUMPDEST PUSH0 PUSH2 0x202B PUSH2 0x1D99 JUMP JUMPDEST SWAP1 POP PUSH2 0x2037 DUP3 DUP3 PUSH2 0x1FF1 JUMP JUMPDEST SWAP2 SWAP1 POP JUMP JUMPDEST PUSH0 PUSH8 0xFFFFFFFFFFFFFFFF DUP3 GT ISZERO PUSH2 0x2056 JUMPI PUSH2 0x2055 PUSH2 0x1FC4 JUMP JUMPDEST JUMPDEST PUSH2 0x205F DUP3 PUSH2 0x1FB4 JUMP JUMPDEST SWAP1 POP PUSH1 0x20 DUP2 ADD SWAP1 POP SWAP2 SWAP1 POP JUMP JUMPDEST DUP3 DUP2 DUP4 CALLDATACOPY PUSH0 DUP4 DUP4 ADD MSTORE POP POP POP JUMP JUMPDEST PUSH0 PUSH2 0x208C PUSH2 0x2087 DUP5 PUSH2 0x203C JUMP JUMPDEST PUSH2 0x2022 JUMP JUMPDEST SWAP1 POP DUP3 DUP2 MSTORE PUSH1 0x20 DUP2 ADD DUP5 DUP5 DUP5 ADD GT ISZERO PUSH2 0x20A8 JUMPI PUSH2 0x20A7 PUSH2 0x1FB0 JUMP JUMPDEST JUMPDEST PUSH2 0x20B3 DUP5 DUP3 DUP6 PUSH2 0x206C JUMP JUMPDEST POP SWAP4 SWAP3 POP POP POP JUMP JUMPDEST PUSH0 DUP3 PUSH1 0x1F DUP4 ADD SLT PUSH2 0x20CF JUMPI PUSH2 0x20CE PUSH2 0x1FAC JUMP JUMPDEST JUMPDEST DUP2 CALLDATALOAD PUSH2 0x20DF DUP5 DUP3 PUSH1 0x20 DUP7 ADD PUSH2 0x207A JUMP JUMPDEST SWAP2 POP POP SWAP3 SWAP2 POP POP JUMP JUMPDEST PUSH0 PUSH1 0x20 DUP3 DUP5 SUB SLT ISZERO PUSH2 0x20FD JUMPI PUSH2 0x20FC PUSH2 0x1DA2 JUMP JUMPDEST JUMPDEST PUSH0 DUP3 ADD CALLDATALOAD PUSH8 0xFFFFFFFFFFFFFFFF DUP2 GT ISZERO PUSH2 0x211A JUMPI PUSH2 0x2119 PUSH2 0x1DA6 JUMP JUMPDEST JUMPDEST PUSH2 0x2126 DUP5 DUP3 DUP6 ADD PUSH2 0x20BB JUMP JUMPDEST SWAP2 POP POP SWAP3 SWAP2 POP POP JUMP JUMPDEST PUSH2 0x2138 DUP2 PUSH2 0x1F33 JUMP JUMPDEST DUP3 MSTORE POP POP JUMP JUMPDEST PUSH0 DUP2 MLOAD SWAP1 POP SWAP2 SWAP1 POP JUMP JUMPDEST PUSH0 DUP3 DUP3 MSTORE PUSH1 0x20 DUP3 ADD SWAP1 POP SWAP3 SWAP2 POP POP JUMP JUMPDEST PUSH0 JUMPDEST DUP4 DUP2 LT ISZERO PUSH2 0x2175 JUMPI DUP1 DUP3 ADD MLOAD DUP2 DUP5 ADD MSTORE PUSH1 0x20 DUP2 ADD SWAP1 POP PUSH2 0x215A JUMP JUMPDEST PUSH0 DUP5 DUP5 ADD MSTORE POP POP POP POP JUMP JUMPDEST PUSH0 PUSH2 0x218A DUP3 PUSH2 0x213E JUMP JUMPDEST PUSH2 0x2194 DUP2 DUP6 PUSH2 0x2148 JUMP JUMPDEST SWAP4 POP PUSH2 0x21A4 DUP2 DUP6 PUSH1 0x20 DUP7 ADD PUSH2 0x2158 JUMP JUMPDEST PUSH2 0x21AD DUP2 PUSH2 0x1FB4 JUMP JUMPDEST DUP5 ADD SWAP2 POP POP SWAP3 SWAP2 POP POP JUMP JUMPDEST PUSH0 DUP2 SWAP1 POP SWAP2 SWAP1 POP JUMP JUMPDEST PUSH2 0x21CA DUP2 PUSH2 0x21B8 JUMP JUMPDEST DUP3 MSTORE POP POP JUMP JUMPDEST PUSH0 PUSH2 0x100 DUP3 ADD SWAP1 POP PUSH2 0x21E4 PUSH0 DUP4 ADD DUP12 PUSH2 0x212F JUMP JUMPDEST PUSH2 0x21F1 PUSH1 0x20 DUP4 ADD DUP11 PUSH2 0x212F JUMP JUMPDEST DUP2 DUP2 SUB PUSH1 0x40 DUP4 ADD MSTORE PUSH2 0x2203 DUP2 DUP10 PUSH2 0x2180 JUMP JUMPDEST SWAP1 POP PUSH2 0x2212 PUSH1 0x60 DUP4 ADD DUP9 PUSH2 0x21C1 JUMP JUMPDEST PUSH2 0x221F PUSH1 0x80 DUP4 ADD DUP8 PUSH2 0x21C1 JUMP JUMPDEST DUP2 DUP2 SUB PUSH1 0xA0 DUP4 ADD MSTORE PUSH2 0x2231 DUP2 DUP7 PUSH2 0x2180 JUMP JUMPDEST SWAP1 POP PUSH2 0x2240 PUSH1 0xC0 DUP4 ADD DUP6 PUSH2 0x1E35 JUMP JUMPDEST PUSH2 0x224D PUSH1 0xE0 DUP4 ADD DUP5 PUSH2 0x1E35 JUMP JUMPDEST SWAP10 SWAP9 POP POP POP POP POP POP POP POP POP JUMP JUMPDEST PUSH2 0x2263 DUP2 PUSH2 0x1E5D JUMP JUMPDEST DUP2 EQ PUSH2 0x226D JUMPI PUSH0 DUP1 REVERT JUMPDEST POP JUMP JUMPDEST PUSH0 DUP2 CALLDATALOAD SWAP1 POP PUSH2 0x227E DUP2 PUSH2 0x225A JUMP JUMPDEST SWAP3 SWAP2 POP POP JUMP JUMPDEST PUSH0 PUSH1 0x20 DUP3 DUP5 SUB SLT ISZERO PUSH2 0x2299 JUMPI PUSH2 0x2298 PUSH2 0x1DA2 JUMP JUMPDEST JUMPDEST PUSH0 PUSH2 0x22A6 DUP5 DUP3 DUP6 ADD PUSH2 0x2270 JUMP JUMPDEST SWAP2 POP POP SWAP3 SWAP2 POP POP JUMP JUMPDEST PUSH2 0x22B8 DUP2 PUSH2 0x21B8 JUMP JUMPDEST DUP2 EQ PUSH2 0x22C2 JUMPI PUSH0 DUP1 REVERT JUMPDEST POP JUMP JUMPDEST PUSH0 DUP2 CALLDATALOAD SWAP1 POP PUSH2 0x22D3 DUP2 PUSH2 0x22AF JUMP JUMPDEST SWAP3 SWAP2 POP POP JUMP JUMPDEST PUSH0 DUP1 PUSH1 0x40 DUP4 DUP6 SUB SLT ISZERO PUSH2 0x22EF JUMPI PUSH2 0x22EE PUSH2 0x1DA2 JUMP JUMPDEST JUMPDEST PUSH0 PUSH2 0x22FC DUP6 DUP3 DUP7 ADD PUSH2 0x22C5 JUMP JUMPDEST SWAP3 POP POP PUSH1 0x20 DUP4 ADD CALLDATALOAD PUSH8 0xFFFFFFFFFFFFFFFF DUP2 GT ISZERO PUSH2 0x231D JUMPI PUSH2 0x231C PUSH2 0x1DA6 JUMP JUMPDEST JUMPDEST PUSH2 0x2329 DUP6 DUP3 DUP7 ADD PUSH2 0x20BB JUMP JUMPDEST SWAP2 POP POP SWAP3 POP SWAP3 SWAP1 POP JUMP JUMPDEST PUSH0 DUP1 PUSH1 0x40 DUP4 DUP6 SUB SLT ISZERO PUSH2 0x2349 JUMPI PUSH2 0x2348 PUSH2 0x1DA2 JUMP JUMPDEST JUMPDEST PUSH0 DUP4 ADD CALLDATALOAD PUSH8 0xFFFFFFFFFFFFFFFF DUP2 GT ISZERO PUSH2 0x2366 JUMPI PUSH2 0x2365 PUSH2 0x1DA6 JUMP JUMPDEST JUMPDEST PUSH2 0x2372 DUP6 DUP3 DUP7 ADD PUSH2 0x20BB JUMP JUMPDEST SWAP3 POP POP PUSH1 0x20 PUSH2 0x2383 DUP6 DUP3 DUP7 ADD PUSH2 0x22C5 JUMP JUMPDEST SWAP2 POP POP SWAP3 POP SWAP3 SWAP1 POP JUMP JUMPDEST PUSH0 DUP1 PUSH0 DUP1 PUSH0 PUSH1 0xA0 DUP7 DUP9 SUB SLT ISZERO PUSH2 0x23A6 JUMPI PUSH2 0x23A5 PUSH2 0x1DA2 JUMP JUMPDEST JUMPDEST PUSH0 PUSH2 0x23B3 DUP9 DUP3 DUP10 ADD PUSH2 0x1F5A JUMP JUMPDEST SWAP6 POP POP PUSH1 0x20 DUP7 ADD CALLDATALOAD PUSH8 0xFFFFFFFFFFFFFFFF DUP2 GT ISZERO PUSH2 0x23D4 JUMPI PUSH2 0x23D3 PUSH2 0x1DA6 JUMP JUMPDEST JUMPDEST PUSH2 0x23E0 DUP9 DUP3 DUP10 ADD PUSH2 0x20BB JUMP JUMPDEST SWAP5 POP POP PUSH1 0x40 PUSH2 0x23F1 DUP9 DUP3 DUP10 ADD PUSH2 0x22C5 JUMP JUMPDEST SWAP4 POP POP PUSH1 0x60 PUSH2 0x2402 DUP9 DUP3 DUP10 ADD PUSH2 0x22C5 JUMP JUMPDEST SWAP3 POP POP PUSH1 0x80 DUP7 ADD CALLDATALOAD PUSH8 0xFFFFFFFFFFFFFFFF DUP2 GT ISZERO PUSH2 0x2423 JUMPI PUSH2 0x2422 PUSH2 0x1DA6 JUMP JUMPDEST JUMPDEST PUSH2 0x242F DUP9 DUP3 DUP10 ADD PUSH2 0x20BB JUMP JUMPDEST SWAP2 POP POP SWAP3 SWAP6 POP SWAP3 SWAP6 SWAP1 SWAP4 POP JUMP JUMPDEST PUSH0 PUSH1 0x20 DUP3 ADD SWAP1 POP PUSH2 0x244F PUSH0 DUP4 ADD DUP5 PUSH2 0x212F JUMP JUMPDEST SWAP3 SWAP2 POP POP JUMP JUMPDEST PUSH2 0x245E DUP2 PUSH2 0x1E2A JUMP JUMPDEST DUP2 EQ PUSH2 0x2468 JUMPI PUSH0 DUP1 REVERT JUMPDEST POP JUMP JUMPDEST PUSH0 DUP2 CALLDATALOAD SWAP1 POP PUSH2 0x2479 DUP2 PUSH2 0x2455 JUMP JUMPDEST SWAP3 SWAP2 POP POP JUMP JUMPDEST PUSH0 DUP1 PUSH1 0x40 DUP4 DUP6 SUB SLT ISZERO PUSH2 0x2495 JUMPI PUSH2 0x2494 PUSH2 0x1DA2 JUMP JUMPDEST JUMPDEST PUSH0 PUSH2 0x24A2 DUP6 DUP3 DUP7 ADD PUSH2 0x2270 JUMP JUMPDEST SWAP3 POP POP PUSH1 0x20 PUSH2 0x24B3 DUP6 DUP3 DUP7 ADD PUSH2 0x246B JUMP JUMPDEST SWAP2 POP POP SWAP3 POP SWAP3 SWAP1 POP JUMP JUMPDEST PUSH0 PUSH1 0x20 DUP3 ADD SWAP1 POP DUP2 DUP2 SUB PUSH0 DUP4 ADD MSTORE PUSH2 0x24D5 DUP2 DUP5 PUSH2 0x2180 JUMP JUMPDEST SWAP1 POP SWAP3 SWAP2 POP POP JUMP JUMPDEST PUSH32 0x4E6F742074686520636F6E7472616374206F776E657200000000000000000000 PUSH0 DUP3 ADD MSTORE POP JUMP JUMPDEST PUSH0 PUSH2 0x2511 PUSH1 0x16 DUP4 PUSH2 0x2148 JUMP JUMPDEST SWAP2 POP PUSH2 0x251C DUP3 PUSH2 0x24DD JUMP JUMPDEST PUSH1 0x20 DUP3 ADD SWAP1 POP SWAP2 SWAP1 POP JUMP JUMPDEST PUSH0 PUSH1 0x20 DUP3 ADD SWAP1 POP DUP2 DUP2 SUB PUSH0 DUP4 ADD MSTORE PUSH2 0x253E DUP2 PUSH2 0x2505 JUMP JUMPDEST SWAP1 POP SWAP2 SWAP1 POP JUMP JUMPDEST PUSH32 0x4E6F20696E746572657374206F77656400000000000000000000000000000000 PUSH0 DUP3 ADD MSTORE POP JUMP JUMPDEST PUSH0 PUSH2 0x2579 PUSH1 0x10 DUP4 PUSH2 0x2148 JUMP JUMPDEST SWAP2 POP PUSH2 0x2584 DUP3 PUSH2 0x2545 JUMP JUMPDEST PUSH1 0x20 DUP3 ADD SWAP1 POP SWAP2 SWAP1 POP JUMP JUMPDEST PUSH0 PUSH1 0x20 DUP3 ADD SWAP1 POP DUP2 DUP2 SUB PUSH0 DUP4 ADD MSTORE PUSH2 0x25A6 DUP2 PUSH2 0x256D JUMP JUMPDEST SWAP1 POP SWAP2 SWAP1 POP JUMP JUMPDEST PUSH32 0x4E487B7100000000000000000000000000000000000000000000000000000000 PUSH0 MSTORE PUSH1 0x22 PUSH1 0x4 MSTORE PUSH1 0x24 PUSH0 REVERT JUMPDEST PUSH0 PUSH1 0x2 DUP3 DIV SWAP1 POP PUSH1 0x1 DUP3 AND DUP1 PUSH2 0x25F1 JUMPI PUSH1 0x7F DUP3 AND SWAP2 POP JUMPDEST PUSH1 0x20 DUP3 LT DUP2 SUB PUSH2 0x2604 JUMPI PUSH2 0x2603 PUSH2 0x25AD JUMP JUMPDEST JUMPDEST POP SWAP2 SWAP1 POP JUMP JUMPDEST PUSH32 0x4E6F2074726164657320617661696C61626C6500000000000000000000000000 PUSH0 DUP3 ADD MSTORE POP JUMP JUMPDEST PUSH0 PUSH2 0x263E PUSH1 0x13 DUP4 PUSH2 0x2148 JUMP JUMPDEST SWAP2 POP PUSH2 0x2649 DUP3 PUSH2 0x260A JUMP JUMPDEST PUSH1 0x20 DUP3 ADD SWAP1 POP SWAP2 SWAP1 POP JUMP JUMPDEST PUSH0 PUSH1 0x20 DUP3 ADD SWAP1 POP DUP2 DUP2 SUB PUSH0 DUP4 ADD MSTORE PUSH2 0x266B DUP2 PUSH2 0x2632 JUMP JUMPDEST SWAP1 POP SWAP2 SWAP1 POP JUMP JUMPDEST PUSH32 0x4E487B7100000000000000000000000000000000000000000000000000000000 PUSH0 MSTORE PUSH1 0x11 PUSH1 0x4 MSTORE PUSH1 0x24 PUSH0 REVERT JUMPDEST PUSH0 PUSH2 0x26A9 DUP3 PUSH2 0x1E5D JUMP JUMPDEST SWAP2 POP PUSH2 0x26B4 DUP4 PUSH2 0x1E5D JUMP JUMPDEST SWAP3 POP DUP3 DUP3 SUB SWAP1 POP DUP2 DUP2 GT ISZERO PUSH2 0x26CC JUMPI PUSH2 0x26CB PUSH2 0x2672 JUMP JUMPDEST JUMPDEST SWAP3 SWAP2 POP POP JUMP JUMPDEST PUSH32 0x4E487B7100000000000000000000000000000000000000000000000000000000 PUSH0 MSTORE PUSH1 0x32 PUSH1 0x4 MSTORE PUSH1 0x24 PUSH0 REVERT JUMPDEST PUSH0 DUP2 SWAP1 POP SWAP3 SWAP2 POP POP JUMP JUMPDEST PUSH0 PUSH2 0x2713 DUP3 PUSH2 0x213E JUMP JUMPDEST PUSH2 0x271D DUP2 DUP6 PUSH2 0x26FF JUMP JUMPDEST SWAP4 POP PUSH2 0x272D DUP2 DUP6 PUSH1 0x20 DUP7 ADD PUSH2 0x2158 JUMP JUMPDEST DUP1 DUP5 ADD SWAP2 POP POP SWAP3 SWAP2 POP POP JUMP JUMPDEST PUSH0 PUSH2 0x2744 DUP3 DUP5 PUSH2 0x2709 JUMP JUMPDEST SWAP2 POP DUP2 SWAP1 POP SWAP3 SWAP2 POP POP JUMP JUMPDEST PUSH32 0x5472616465206E6F7420636F6E6669726D656400000000000000000000000000 PUSH0 DUP3 ADD MSTORE POP JUMP JUMPDEST PUSH0 PUSH2 0x2783 PUSH1 0x13 DUP4 PUSH2 0x2148 JUMP JUMPDEST SWAP2 POP PUSH2 0x278E DUP3 PUSH2 0x274F JUMP JUMPDEST PUSH1 0x20 DUP3 ADD SWAP1 POP SWAP2 SWAP1 POP JUMP JUMPDEST PUSH0 PUSH1 0x20 DUP3 ADD SWAP1 POP DUP2 DUP2 SUB PUSH0 DUP4 ADD MSTORE PUSH2 0x27B0 DUP2 PUSH2 0x2777 JUMP JUMPDEST SWAP1 POP SWAP2 SWAP1 POP JUMP JUMPDEST PUSH32 0x4E6F742074686520696E69746961746F72000000000000000000000000000000 PUSH0 DUP3 ADD MSTORE POP JUMP JUMPDEST PUSH0 PUSH2 0x27EB PUSH1 0x11 DUP4 PUSH2 0x2148 JUMP JUMPDEST SWAP2 POP PUSH2 0x27F6 DUP3 PUSH2 0x27B7 JUMP JUMPDEST PUSH1 0x20 DUP3 ADD SWAP1 POP SWAP2 SWAP1 POP JUMP JUMPDEST PUSH0 PUSH1 0x20 DUP3 ADD SWAP1 POP DUP2 DUP2 SUB PUSH0 DUP4 ADD MSTORE PUSH2 0x2818 DUP2 PUSH2 0x27DF JUMP JUMPDEST SWAP1 POP SWAP2 SWAP1 POP JUMP JUMPDEST PUSH32 0x4E6F742074686520636F756E7465727061727479000000000000000000000000 PUSH0 DUP3 ADD MSTORE POP JUMP JUMPDEST PUSH0 PUSH2 0x2853 PUSH1 0x14 DUP4 PUSH2 0x2148 JUMP JUMPDEST SWAP2 POP PUSH2 0x285E DUP3 PUSH2 0x281F JUMP JUMPDEST PUSH1 0x20 DUP3 ADD SWAP1 POP SWAP2 SWAP1 POP JUMP JUMPDEST PUSH0 PUSH1 0x20 DUP3 ADD SWAP1 POP DUP2 DUP2 SUB PUSH0 DUP4 ADD MSTORE PUSH2 0x2880 DUP2 PUSH2 0x2847 JUMP JUMPDEST SWAP1 POP SWAP2 SWAP1 POP JUMP JUMPDEST PUSH0 DUP2 SWAP1 POP SWAP2 SWAP1 POP JUMP JUMPDEST PUSH2 0x28A1 PUSH2 0x289C DUP3 PUSH2 0x21B8 JUMP JUMPDEST PUSH2 0x2887 JUMP JUMPDEST DUP3 MSTORE POP POP JUMP JUMPDEST PUSH0 DUP2 SWAP1 POP SWAP2 SWAP1 POP JUMP JUMPDEST PUSH2 0x28C1 PUSH2 0x28BC DUP3 PUSH2 0x1E5D JUMP JUMPDEST PUSH2 0x28A7 JUMP JUMPDEST DUP3 MSTORE POP POP JUMP JUMPDEST PUSH0 PUSH2 0x28D2 DUP3 DUP7 PUSH2 0x2709 JUMP JUMPDEST SWAP2 POP PUSH2 0x28DE DUP3 DUP6 PUSH2 0x2890 JUMP JUMPDEST PUSH1 0x20 DUP3 ADD SWAP2 POP PUSH2 0x28EE DUP3 DUP5 PUSH2 0x28B0 JUMP JUMPDEST PUSH1 0x20 DUP3 ADD SWAP2 POP DUP2 SWAP1 POP SWAP5 SWAP4 POP POP POP POP JUMP JUMPDEST PUSH0 PUSH1 0x40 DUP3 ADD SWAP1 POP PUSH2 0x2912 PUSH0 DUP4 ADD DUP6 PUSH2 0x212F JUMP JUMPDEST DUP2 DUP2 SUB PUSH1 0x20 DUP4 ADD MSTORE PUSH2 0x2924 DUP2 DUP5 PUSH2 0x2180 JUMP JUMPDEST SWAP1 POP SWAP4 SWAP3 POP POP POP JUMP JUMPDEST PUSH0 DUP2 SWAP1 POP DUP2 PUSH0 MSTORE PUSH1 0x20 PUSH0 KECCAK256 SWAP1 POP SWAP2 SWAP1 POP JUMP JUMPDEST PUSH0 DUP2 SLOAD PUSH2 0x294B DUP2 PUSH2 0x25DA JUMP JUMPDEST PUSH2 0x2955 DUP2 DUP7 PUSH2 0x2148 JUMP JUMPDEST SWAP5 POP PUSH1 0x1 DUP3 AND PUSH0 DUP2 EQ PUSH2 0x296F JUMPI PUSH1 0x1 DUP2 EQ PUSH2 0x2985 JUMPI PUSH2 0x29B7 JUMP JUMPDEST PUSH1 0xFF NOT DUP4 AND DUP7 MSTORE DUP2 ISZERO ISZERO PUSH1 0x20 MUL DUP7 ADD SWAP4 POP PUSH2 0x29B7 JUMP JUMPDEST PUSH2 0x298E DUP6 PUSH2 0x292D JUMP JUMPDEST PUSH0 JUMPDEST DUP4 DUP2 LT ISZERO PUSH2 0x29AF JUMPI DUP2 SLOAD DUP2 DUP10 ADD MSTORE PUSH1 0x1 DUP3 ADD SWAP2 POP PUSH1 0x20 DUP2 ADD SWAP1 POP PUSH2 0x2990 JUMP JUMPDEST DUP1 DUP9 ADD SWAP6 POP POP POP JUMPDEST POP POP POP SWAP3 SWAP2 POP POP JUMP JUMPDEST PUSH0 PUSH1 0x40 DUP3 ADD SWAP1 POP DUP2 DUP2 SUB PUSH0 DUP4 ADD MSTORE PUSH2 0x29D8 DUP2 DUP6 PUSH2 0x293F JUMP JUMPDEST SWAP1 POP DUP2 DUP2 SUB PUSH1 0x20 DUP4 ADD MSTORE PUSH2 0x29EC DUP2 DUP5 PUSH2 0x293F JUMP JUMPDEST SWAP1 POP SWAP4 SWAP3 POP POP POP JUMP JUMPDEST PUSH0 PUSH2 0x29FF DUP3 PUSH2 0x1E5D JUMP JUMPDEST SWAP2 POP PUSH2 0x2A0A DUP4 PUSH2 0x1E5D JUMP JUMPDEST SWAP3 POP DUP3 DUP3 MUL PUSH2 0x2A18 DUP2 PUSH2 0x1E5D JUMP JUMPDEST SWAP2 POP DUP3 DUP3 DIV DUP5 EQ DUP4 ISZERO OR PUSH2 0x2A2F JUMPI PUSH2 0x2A2E PUSH2 0x2672 JUMP JUMPDEST JUMPDEST POP SWAP3 SWAP2 POP POP JUMP JUMPDEST PUSH32 0x4E487B7100000000000000000000000000000000000000000000000000000000 PUSH0 MSTORE PUSH1 0x12 PUSH1 0x4 MSTORE PUSH1 0x24 PUSH0 REVERT JUMPDEST PUSH0 PUSH2 0x2A6D DUP3 PUSH2 0x1E5D JUMP JUMPDEST SWAP2 POP PUSH2 0x2A78 DUP4 PUSH2 0x1E5D JUMP JUMPDEST SWAP3 POP DUP3 PUSH2 0x2A88 JUMPI PUSH2 0x2A87 PUSH2 0x2A36 JUMP JUMPDEST JUMPDEST DUP3 DUP3 DIV SWAP1 POP SWAP3 SWAP2 POP POP JUMP JUMPDEST PUSH0 PUSH2 0x2A9D DUP3 PUSH2 0x1E5D JUMP JUMPDEST SWAP2 POP PUSH2 0x2AA8 DUP4 PUSH2 0x1E5D JUMP JUMPDEST SWAP3 POP DUP3 DUP3 ADD SWAP1 POP DUP1 DUP3 GT ISZERO PUSH2 0x2AC0 JUMPI PUSH2 0x2ABF PUSH2 0x2672 JUMP JUMPDEST JUMPDEST SWAP3 SWAP2 POP POP JUMP JUMPDEST PUSH0 PUSH1 0x20 PUSH1 0x1F DUP4 ADD DIV SWAP1 POP SWAP2 SWAP1 POP JUMP JUMPDEST PUSH0 DUP3 DUP3 SHL SWAP1 POP SWAP3 SWAP2 POP POP JUMP JUMPDEST PUSH0 PUSH1 0x8 DUP4 MUL PUSH2 0x2B10 PUSH32 0xFFFFFFFFFFFFFFFFFFFFFFFFFFFFFFFFFFFFFFFFFFFFFFFFFFFFFFFFFFFFFFFF DUP3 PUSH2 0x2AD5 JUMP JUMPDEST PUSH2 0x2B1A DUP7 DUP4 PUSH2 0x2AD5 JUMP JUMPDEST SWAP6 POP DUP1 NOT DUP5 AND SWAP4 POP DUP1 DUP7 AND DUP5 OR SWAP3 POP POP POP SWAP4 SWAP3 POP POP POP JUMP JUMPDEST PUSH0 DUP2 SWAP1 POP SWAP2 SWAP1 POP JUMP JUMPDEST PUSH0 PUSH2 0x2B55 PUSH2 0x2B50 PUSH2 0x2B4B DUP5 PUSH2 0x1E5D JUMP JUMPDEST PUSH2 0x2B32 JUMP JUMPDEST PUSH2 0x1E5D JUMP JUMPDEST SWAP1 POP SWAP2 SWAP1 POP JUMP JUMPDEST PUSH0 DUP2 SWAP1 POP SWAP2 SWAP1 POP JUMP JUMPDEST PUSH2 0x2B6E DUP4 PUSH2 0x2B3B JUMP JUMPDEST PUSH2 0x2B82 PUSH2 0x2B7A DUP3 PUSH2 0x2B5C JUMP JUMPDEST DUP5 DUP5 SLOAD PUSH2 0x2AE1 JUMP JUMPDEST DUP3 SSTORE POP POP POP POP JUMP JUMPDEST PUSH0 SWAP1 JUMP JUMPDEST PUSH2 0x2B96 PUSH2 0x2B8A JUMP JUMPDEST PUSH2 0x2BA1 DUP2 DUP5 DUP5 PUSH2 0x2B65 JUMP JUMPDEST POP POP POP JUMP JUMPDEST JUMPDEST DUP2 DUP2 LT ISZERO PUSH2 0x2BC4 JUMPI PUSH2 0x2BB9 PUSH0 DUP3 PUSH2 0x2B8E JUMP JUMPDEST PUSH1 0x1 DUP2 ADD SWAP1 POP PUSH2 0x2BA7 JUMP JUMPDEST POP POP JUMP JUMPDEST PUSH1 0x1F DUP3 GT ISZERO PUSH2 0x2C09 JUMPI PUSH2 0x2BDA DUP2 PUSH2 0x292D JUMP JUMPDEST PUSH2 0x2BE3 DUP5 PUSH2 0x2AC6 JUMP JUMPDEST DUP2 ADD PUSH1 0x20 DUP6 LT ISZERO PUSH2 0x2BF2 JUMPI DUP2 SWAP1 POP JUMPDEST PUSH2 0x2C06 PUSH2 0x2BFE DUP6 PUSH2 0x2AC6 JUMP JUMPDEST DUP4 ADD DUP3 PUSH2 0x2BA6 JUMP JUMPDEST POP POP JUMPDEST POP POP POP JUMP JUMPDEST PUSH0 DUP3 DUP3 SHR SWAP1 POP SWAP3 SWAP2 POP POP JUMP JUMPDEST PUSH0 PUSH2 0x2C29 PUSH0 NOT DUP5 PUSH1 0x8 MUL PUSH2 0x2C0E JUMP JUMPDEST NOT DUP1 DUP4 AND SWAP2 POP POP SWAP3 SWAP2 POP POP JUMP JUMPDEST PUSH0 PUSH2 0x2C41 DUP4 DUP4 PUSH2 0x2C1A JUMP JUMPDEST SWAP2 POP DUP3 PUSH1 0x2 MUL DUP3 OR SWAP1 POP SWAP3 SWAP2 POP POP JUMP JUMPDEST PUSH2 0x2C5A DUP3 PUSH2 0x213E JUMP JUMPDEST PUSH8 0xFFFFFFFFFFFFFFFF DUP2 GT ISZERO PUSH2 0x2C73 JUMPI PUSH2 0x2C72 PUSH2 0x1FC4 JUMP JUMPDEST JUMPDEST PUSH2 0x2C7D DUP3 SLOAD PUSH2 0x25DA JUMP JUMPDEST PUSH2 0x2C88 DUP3 DUP3 DUP6 PUSH2 0x2BC8 JUMP JUMPDEST PUSH0 PUSH1 0x20 SWAP1 POP PUSH1 0x1F DUP4 GT PUSH1 0x1 DUP2 EQ PUSH2 0x2CB9 JUMPI PUSH0 DUP5 ISZERO PUSH2 0x2CA7 JUMPI DUP3 DUP8 ADD MLOAD SWAP1 POP JUMPDEST PUSH2 0x2CB1 DUP6 DUP3 PUSH2 0x2C36 JUMP JUMPDEST DUP7 SSTORE POP PUSH2 0x2D18 JUMP JUMPDEST PUSH1 0x1F NOT DUP5 AND PUSH2 0x2CC7 DUP7 PUSH2 0x292D JUMP JUMPDEST PUSH0 JUMPDEST DUP3 DUP2 LT ISZERO PUSH2 0x2CEE JUMPI DUP5 DUP10 ADD MLOAD DUP3 SSTORE PUSH1 0x1 DUP3 ADD SWAP2 POP PUSH1 0x20 DUP6 ADD SWAP5 POP PUSH1 0x20 DUP2 ADD SWAP1 POP PUSH2 0x2CC9 JUMP JUMPDEST DUP7 DUP4 LT ISZERO PUSH2 0x2D0B JUMPI DUP5 DUP10 ADD MLOAD PUSH2 0x2D07 PUSH1 0x1F DUP10 AND DUP3 PUSH2 0x2C1A JUMP JUMPDEST DUP4 SSTORE POP JUMPDEST PUSH1 0x1 PUSH1 0x2 DUP9 MUL ADD DUP9 SSTORE POP POP POP JUMPDEST POP POP POP POP POP POP JUMP JUMPDEST PUSH0 PUSH1 0x60 DUP3 ADD SWAP1 POP PUSH2 0x2D33 PUSH0 DUP4 ADD DUP7 PUSH2 0x212F JUMP JUMPDEST DUP2 DUP2 SUB PUSH1 0x20 DUP4 ADD MSTORE PUSH2 0x2D45 DUP2 DUP6 PUSH2 0x2180 JUMP JUMPDEST SWAP1 POP DUP2 DUP2 SUB PUSH1 0x40 DUP4 ADD MSTORE PUSH2 0x2D59 DUP2 DUP5 PUSH2 0x2180 JUMP JUMPDEST SWAP1 POP SWAP5 SWAP4 POP POP POP POP JUMP JUMPDEST PUSH0 PUSH1 0x40 DUP3 ADD SWAP1 POP PUSH2 0x2D76 PUSH0 DUP4 ADD DUP6 PUSH2 0x212F JUMP JUMPDEST PUSH2 0x2D83 PUSH1 0x20 DUP4 ADD DUP5 PUSH2 0x1EEC JUMP JUMPDEST SWAP4 SWAP3 POP POP POP JUMP INVALID LOG2 PUSH5 0x6970667358 0x22 SLT KECCAK256 DUP9 LOG3 DIV 0xB3 DUP3 0xBD PUSH27 0x50CC4A885A92CD849904AEAC8FAA16682BF16D9B5D73002C9A6473 PUSH16 0x6C634300081800330000000000000000 "
				},
				"gasEstimates": {
					"creation": {
						"codeDepositCost": "2342400",
						"executionCost": "infinite",
						"totalCost": "infinite"
					},
					"external": {
						"DEFAULT_ADMIN_ROLE()": "375",
						"PAUSER_ROLE()": "414",
						"afterTransfer(uint256,bool)": "645",
						"annualInterestRate()": "2516",
						"calculateInterest()": "infinite",
						"confirmTrade(address,string,int256,int256,string)": "infinite",
						"confirmTradeTermination(string,int256)": "infinite",
						"depositPrincipal()": "48150",
						"getRoleAdmin(bytes32)": "infinite",
						"getTotalInterestOwed()": "2521",
						"grantRole(bytes32,address)": "infinite",
						"hasRole(bytes32,address)": "3212",
						"inceptTrade(address,string,int256,int256,string)": "infinite",
						"initiateSettlement()": "infinite",
						"lastInterestCalculationTime()": "2513",
						"owner()": "2554",
						"pause()": "infinite",
						"paused()": "2541",
						"performSettlement(int256,string)": "infinite",
						"principal()": "2492",
						"renounceRole(bytes32,address)": "infinite",
						"requestTradeTermination(string,int256)": "infinite",
						"revokeRole(bytes32,address)": "infinite",
						"supportsInterface(bytes4)": "786",
						"testSendFunds(uint256)": "infinite",
						"totalInterestOwed()": "2493",
						"tradeIds(uint256)": "infinite",
						"trades(string)": "infinite",
						"unpause()": "infinite",
						"withdrawInterest()": "infinite"
					}
				},
				"methodIdentifiers": {
					"DEFAULT_ADMIN_ROLE()": "a217fddf",
					"PAUSER_ROLE()": "e63ab1e9",
					"afterTransfer(uint256,bool)": "df2d0728",
					"annualInterestRate()": "1a9703da",
					"calculateInterest()": "eb0c4955",
					"confirmTrade(address,string,int256,int256,string)": "858f0e93",
					"confirmTradeTermination(string,int256)": "79648ed3",
					"depositPrincipal()": "ecc38817",
					"getRoleAdmin(bytes32)": "248a9ca3",
					"getTotalInterestOwed()": "c69f6d1e",
					"grantRole(bytes32,address)": "2f2ff15d",
					"hasRole(bytes32,address)": "91d14854",
					"inceptTrade(address,string,int256,int256,string)": "ec11c4e9",
					"initiateSettlement()": "c78b432e",
					"lastInterestCalculationTime()": "f8026509",
					"owner()": "8da5cb5b",
					"pause()": "8456cb59",
					"paused()": "5c975abb",
					"performSettlement(int256,string)": "6ba63956",
					"principal()": "ba5d3078",
					"renounceRole(bytes32,address)": "36568abe",
					"requestTradeTermination(string,int256)": "729d581c",
					"revokeRole(bytes32,address)": "d547741f",
					"supportsInterface(bytes4)": "01ffc9a7",
					"testSendFunds(uint256)": "6861c20c",
					"totalInterestOwed()": "8f168c93",
					"tradeIds(uint256)": "ff52c484",
					"trades(string)": "47a04100",
					"unpause()": "3f4ba83a",
					"withdrawInterest()": "0063750c"
				}
			},
			"storageLayout": {
				"storage": [
					{
						"astId": 417,
						"contract": "contracts/Bond3.sol:Bond3",
						"label": "_paused",
						"offset": 0,
						"slot": "0",
						"type": "t_bool"
					},
					{
						"astId": 26,
						"contract": "contracts/Bond3.sol:Bond3",
						"label": "_roles",
						"offset": 0,
						"slot": "1",
						"type": "t_mapping(t_bytes32,t_struct(RoleData)21_storage)"
					},
					{
						"astId": 1070,
						"contract": "contracts/Bond3.sol:Bond3",
						"label": "owner",
						"offset": 0,
						"slot": "2",
						"type": "t_address"
					},
					{
						"astId": 1072,
						"contract": "contracts/Bond3.sol:Bond3",
						"label": "principal",
						"offset": 0,
						"slot": "3",
						"type": "t_uint256"
					},
					{
						"astId": 1074,
						"contract": "contracts/Bond3.sol:Bond3",
						"label": "annualInterestRate",
						"offset": 0,
						"slot": "4",
						"type": "t_uint256"
					},
					{
						"astId": 1076,
						"contract": "contracts/Bond3.sol:Bond3",
						"label": "lastInterestCalculationTime",
						"offset": 0,
						"slot": "5",
						"type": "t_uint256"
					},
					{
						"astId": 1078,
						"contract": "contracts/Bond3.sol:Bond3",
						"label": "totalInterestOwed",
						"offset": 0,
						"slot": "6",
						"type": "t_uint256"
					},
					{
						"astId": 597,
						"contract": "contracts/Bond3.sol:Bond3",
						"label": "trades",
						"offset": 0,
						"slot": "7",
						"type": "t_mapping(t_string_memory_ptr,t_struct(Trade)592_storage)"
					},
					{
						"astId": 600,
						"contract": "contracts/Bond3.sol:Bond3",
						"label": "tradeIds",
						"offset": 0,
						"slot": "8",
						"type": "t_array(t_string_storage)dyn_storage"
					}
				],
				"types": {
					"t_address": {
						"encoding": "inplace",
						"label": "address",
						"numberOfBytes": "20"
					},
					"t_array(t_string_storage)dyn_storage": {
						"base": "t_string_storage",
						"encoding": "dynamic_array",
						"label": "string[]",
						"numberOfBytes": "32"
					},
					"t_bool": {
						"encoding": "inplace",
						"label": "bool",
						"numberOfBytes": "1"
					},
					"t_bytes32": {
						"encoding": "inplace",
						"label": "bytes32",
						"numberOfBytes": "32"
					},
					"t_int256": {
						"encoding": "inplace",
						"label": "int256",
						"numberOfBytes": "32"
					},
					"t_mapping(t_address,t_bool)": {
						"encoding": "mapping",
						"key": "t_address",
						"label": "mapping(address => bool)",
						"numberOfBytes": "32",
						"value": "t_bool"
					},
					"t_mapping(t_bytes32,t_struct(RoleData)21_storage)": {
						"encoding": "mapping",
						"key": "t_bytes32",
						"label": "mapping(bytes32 => struct AccessControl.RoleData)",
						"numberOfBytes": "32",
						"value": "t_struct(RoleData)21_storage"
					},
					"t_mapping(t_string_memory_ptr,t_struct(Trade)592_storage)": {
						"encoding": "mapping",
						"key": "t_string_memory_ptr",
						"label": "mapping(string => struct Bond3.Trade)",
						"numberOfBytes": "32",
						"value": "t_struct(Trade)592_storage"
					},
					"t_string_memory_ptr": {
						"encoding": "bytes",
						"label": "string",
						"numberOfBytes": "32"
					},
					"t_string_storage": {
						"encoding": "bytes",
						"label": "string",
						"numberOfBytes": "32"
					},
					"t_struct(RoleData)21_storage": {
						"encoding": "inplace",
						"label": "struct AccessControl.RoleData",
						"members": [
							{
								"astId": 18,
								"contract": "contracts/Bond3.sol:Bond3",
								"label": "hasRole",
								"offset": 0,
								"slot": "0",
								"type": "t_mapping(t_address,t_bool)"
							},
							{
								"astId": 20,
								"contract": "contracts/Bond3.sol:Bond3",
								"label": "adminRole",
								"offset": 0,
								"slot": "1",
								"type": "t_bytes32"
							}
						],
						"numberOfBytes": "64"
					},
					"t_struct(Trade)592_storage": {
						"encoding": "inplace",
						"label": "struct Bond3.Trade",
						"members": [
							{
								"astId": 577,
								"contract": "contracts/Bond3.sol:Bond3",
								"label": "initiator",
								"offset": 0,
								"slot": "0",
								"type": "t_address"
							},
							{
								"astId": 579,
								"contract": "contracts/Bond3.sol:Bond3",
								"label": "counterparty",
								"offset": 0,
								"slot": "1",
								"type": "t_address"
							},
							{
								"astId": 581,
								"contract": "contracts/Bond3.sol:Bond3",
								"label": "tradeData",
								"offset": 0,
								"slot": "2",
								"type": "t_string_storage"
							},
							{
								"astId": 583,
								"contract": "contracts/Bond3.sol:Bond3",
								"label": "position",
								"offset": 0,
								"slot": "3",
								"type": "t_int256"
							},
							{
								"astId": 585,
								"contract": "contracts/Bond3.sol:Bond3",
								"label": "paymentAmount",
								"offset": 0,
								"slot": "4",
								"type": "t_int256"
							},
							{
								"astId": 587,
								"contract": "contracts/Bond3.sol:Bond3",
								"label": "initialSettlementData",
								"offset": 0,
								"slot": "5",
								"type": "t_string_storage"
							},
							{
								"astId": 589,
								"contract": "contracts/Bond3.sol:Bond3",
								"label": "confirmed",
								"offset": 0,
								"slot": "6",
								"type": "t_bool"
							},
							{
								"astId": 591,
								"contract": "contracts/Bond3.sol:Bond3",
								"label": "settled",
								"offset": 1,
								"slot": "6",
								"type": "t_bool"
							}
						],
						"numberOfBytes": "224"
					},
					"t_uint256": {
						"encoding": "inplace",
						"label": "uint256",
						"numberOfBytes": "32"
					}
				}
			},
			"userdoc": {
				"kind": "user",
				"methods": {},
				"version": 1
			}
		}
	}
}